{
  "address": "0xa5492624F46F7ef346BfC46A0fB364eBa3b1f525",
  "abi": [
    {
      "inputs": [
        {
          "internalType": "ChainlinkAggregator",
          "name": "aggregator_",
          "type": "address"
        }
      ],
      "stateMutability": "nonpayable",
      "type": "constructor"
    },
    {
      "inputs": [],
      "name": "InvalidOracleRound",
      "type": "error"
    },
    {
      "inputs": [],
      "name": "UnableToSyncError",
      "type": "error"
    },
    {
      "inputs": [],
      "name": "aggregator",
      "outputs": [
        {
          "internalType": "ChainlinkAggregator",
          "name": "",
          "type": "address"
        }
      ],
      "stateMutability": "view",
      "type": "function"
    },
    {
      "inputs": [
        {
          "internalType": "uint256",
          "name": "version",
          "type": "uint256"
        }
      ],
      "name": "atVersion",
      "outputs": [
        {
          "components": [
            {
              "internalType": "uint256",
              "name": "version",
              "type": "uint256"
            },
            {
              "internalType": "uint256",
              "name": "timestamp",
              "type": "uint256"
            },
            {
              "internalType": "Fixed18",
              "name": "price",
              "type": "int256"
            }
          ],
          "internalType": "struct IOracleProvider.OracleVersion",
          "name": "oracleVersion",
          "type": "tuple"
        }
      ],
      "stateMutability": "view",
      "type": "function"
    },
    {
      "inputs": [],
      "name": "currentVersion",
      "outputs": [
        {
          "components": [
            {
              "internalType": "uint256",
              "name": "version",
              "type": "uint256"
            },
            {
              "internalType": "uint256",
              "name": "timestamp",
              "type": "uint256"
            },
            {
              "internalType": "Fixed18",
              "name": "price",
              "type": "int256"
            }
          ],
          "internalType": "struct IOracleProvider.OracleVersion",
          "name": "oracleVersion",
          "type": "tuple"
        }
      ],
      "stateMutability": "view",
      "type": "function"
    },
    {
      "inputs": [],
      "name": "sync",
      "outputs": [
        {
          "components": [
            {
              "internalType": "uint256",
              "name": "version",
              "type": "uint256"
            },
            {
              "internalType": "uint256",
              "name": "timestamp",
              "type": "uint256"
            },
            {
              "internalType": "Fixed18",
              "name": "price",
              "type": "int256"
            }
          ],
          "internalType": "struct IOracleProvider.OracleVersion",
          "name": "",
          "type": "tuple"
        }
      ],
      "stateMutability": "nonpayable",
      "type": "function"
    }
  ],
  "transactionHash": "0x697c2fd2140126407ed26d6e31dbe8af26d4ac0b5f00847f1d165d276aa493e1",
  "args": [
    "0xcD2A119bD1F7DF95d706DE6F2057fDD45A0503E2"
  ],
  "numDeployments": 1,
  "solcInputHash": "203059fea21b19328010b29c18d6424b",
  "bytecode": "0x60c06040523480156200001157600080fd5b50604051620015b0380380620015b0833981016040819052620000349162000335565b6001600160a01b03811660808190526200007d906200005f9062000189602090811b6200045e17901c565b6200006c90600a6200047a565b620001f660201b620004cf1760201c565b60a081815250506000620000a76080516001600160a01b03166200026960201b620005891760201c565b90505b600080549050620000c6826200032a60201b620006561760201c565b61ffff1611156200012757604080518082019091526000808252602082018181528154600181018355918052915191516001600160801b03908116600160801b029216919091176000805160206200159083398151915290910155620000aa565b60408051808201825260008082529290910180516001600160801b0390811660208401908152845460018181018755958052935190518216600160801b0291161760008051602062001590833981519152909201919091555190555062000522565b6000816001600160a01b031663313ce5676040518163ffffffff1660e01b8152600401602060405180830381865afa158015620001ca573d6000803e3d6000fd5b505050506040513d601f19601f82011682018060405250810190620001f091906200048b565b92915050565b60006001600160ff1b03821115620002655760405162461bcd60e51b815260206004820152602860248201527f53616665436173743a2076616c756520646f65736e27742066697420696e2061604482015267371034b73a191a9b60c11b606482015260840160405180910390fd5b5090565b6200028e60405180606001604052806000815260200160008152602001600081525090565b6000806000846001600160a01b031663feaf968c6040518163ffffffff1660e01b815260040160a060405180830381865afa158015620002d2573d6000803e3d6000fd5b505050506040513d601f19601f82011682018060405250810190620002f89190620004cd565b506040805160608101825291825260208201939093526001600160501b03909316918301919091525095945050505050565b604090810151901c90565b6000602082840312156200034857600080fd5b81516001600160a01b03811681146200036057600080fd5b9392505050565b634e487b7160e01b600052601160045260246000fd5b600181815b80851115620003be578160001904821115620003a257620003a262000367565b80851615620003b057918102915b93841c939080029062000382565b509250929050565b600082620003d757506001620001f0565b81620003e657506000620001f0565b8160018114620003ff57600281146200040a576200042a565b6001915050620001f0565b60ff8411156200041e576200041e62000367565b50506001821b620001f0565b5060208310610133831016604e8410600b84101617156200044f575081810a620001f0565b6200045b83836200037d565b806000190482111562000472576200047262000367565b029392505050565b60006200036060ff841683620003c6565b6000602082840312156200049e57600080fd5b815160ff811681146200036057600080fd5b80516001600160501b0381168114620004c857600080fd5b919050565b600080600080600060a08688031215620004e657600080fd5b620004f186620004b0565b94506020860151935060408601519250606086015191506200051660808701620004b0565b90509295509295909350565b60805160a05161102d6200056360003960006107d30152600081816056015281816101310152818161018f015281816101fe0152610333015261102d6000f3fe608060405234801561001057600080fd5b506004361061004c5760003560e01c8063245a7bfc146100515780637ece075d146100a25780639d888e86146100d7578063fff6cae9146100df575b600080fd5b6100787f000000000000000000000000000000000000000000000000000000000000000081565b60405173ffffffffffffffffffffffffffffffffffffffff90911681526020015b60405180910390f35b6100b56100b0366004610ce8565b6100e7565b6040805182518152602080840151908201529181015190820152606001610099565b6100b5610163565b6100b56101d3565b61010b60405180606001604052806000815260200160008152602001600081525090565b61015d61015761011a84610661565b73ffffffffffffffffffffffffffffffffffffffff7f000000000000000000000000000000000000000000000000000000000000000016906106b9565b836107a3565b92915050565b61018760405180606001604052806000815260200160008152602001600081525090565b6101ce6101c97f000000000000000000000000000000000000000000000000000000000000000073ffffffffffffffffffffffffffffffffffffffff16610589565b610818565b905090565b6101f760405180606001604052806000815260200160008152602001600081525090565b60006102387f000000000000000000000000000000000000000000000000000000000000000073ffffffffffffffffffffffffffffffffffffffff16610589565b9050806040015167ffffffffffffffff16600003610282576040517f5234755400000000000000000000000000000000000000000000000000000000815260040160405180910390fd5b600161028c6108dd565b60408381015161029d92911c610d30565b61ffff1611156102d9576040517f68e7727f00000000000000000000000000000000000000000000000000000000815260040160405180910390fd5b6102e16108dd565b61ffff166102f482604090810151901c90565b61ffff16111561044757600080610396600061030e6108dd565b61ffff168154811061032257610322610d53565b6000918252602090912001546001547f000000000000000000000000000000000000000000000000000000000000000073ffffffffffffffffffffffffffffffffffffffff169170010000000000000000000000000000000090046fffffffffffffffffffffffffffffffff1690866108ed565b915091506000604051806040016040528060006103b16108dd565b61ffff16815481106103c5576103c5610d53565b6000918252602090912001546103ed906fffffffffffffffffffffffffffffffff1686610d82565b6fffffffffffffffffffffffffffffffff90811682529384166020918201528254600181018455600093845292819020825192909101518416700100000000000000000000000000000000029190931617910155506102d9565b604081015160015561045881610818565b91505090565b60008173ffffffffffffffffffffffffffffffffffffffff1663313ce5676040518163ffffffff1660e01b8152600401602060405180830381865afa1580156104ab573d6000803e3d6000fd5b505050506040513d601f19601f8201168201806040525081019061015d9190610db6565b60007f7fffffffffffffffffffffffffffffffffffffffffffffffffffffffffffffff821115610585576040517f08c379a000000000000000000000000000000000000000000000000000000000815260206004820152602860248201527f53616665436173743a2076616c756520646f65736e27742066697420696e206160448201527f6e20696e74323536000000000000000000000000000000000000000000000000606482015260840160405180910390fd5b5090565b6105ad60405180606001604052806000815260200160008152602001600081525090565b60008060008473ffffffffffffffffffffffffffffffffffffffff1663feaf968c6040518163ffffffff1660e01b815260040160a060405180830381865afa1580156105fd573d6000803e3d6000fd5b505050506040513d601f19601f820116820180604052508101906106219190610df8565b5060408051606081018252918252602082019390935269ffffffffffffffffffff909316918301919091525095945050505050565b604090810151901c90565b60008061066d83610bb1565b905080600001516fffffffffffffffffffffffffffffffff168382602001516fffffffffffffffffffffffffffffffff166106a89190610e48565b6106b29190610e60565b9392505050565b6106dd60405180606001604052806000815260200160008152602001600081525090565b6040517f9a6fc8f500000000000000000000000000000000000000000000000000000000815269ffffffffffffffffffff83166004820152600090819073ffffffffffffffffffffffffffffffffffffffff861690639a6fc8f59060240160a060405180830381865afa158015610758573d6000803e3d6000fd5b505050506040513d601f19601f8201168201806040525081019061077c9190610df8565b50604080516060810182529182526020820193909352918201969096529695505050505050565b6107c760405180606001604052806000815260200160008152602001600081525090565b60006107f784602001517f0000000000000000000000000000000000000000000000000000000000000000610cc9565b60408051606081018252948552945160208501529383019390935250919050565b61083c60405180606001604052806000815260200160008152602001600081525090565b60008061084e84604090810151901c90565b61ffff168154811061086257610862610d53565b6000918252602080832060408051808201825293909101546fffffffffffffffffffffffffffffffff808216808652700100000000000000000000000000000000909204169284018390529087015192945090916108bf91610e48565b6108c99190610e60565b90506108d584826107a3565b949350505050565b600080546101ce90600190610e60565b6000808573ffffffffffffffffffffffffffffffffffffffff8116639a6fc8f5610918876001610e48565b6040517fffffffff0000000000000000000000000000000000000000000000000000000060e084901b16815269ffffffffffffffffffff909116600482015260240160a060405180830381865afa9250505080156109b1575060408051601f3d9081017fffffffffffffffffffffffffffffffffffffffffffffffffffffffffffffffe01682019092526109ae91810190610df8565b60015b15610a155769ffffffffffffffffffff851615806109cd575081155b610a0f578851821015610a0f576109f08b69ffffffffffffffffffff8716610e60565b6109fb906001610e48565b896040015197509750505050505050610ba8565b50505050505b6040517f9a6fc8f500000000000000000000000000000000000000000000000000000000815269ffffffffffffffffffff8616600482015260009073ffffffffffffffffffffffffffffffffffffffff831690639a6fc8f59060240160a060405180830381865afa158015610a8e573d6000803e3d6000fd5b505050506040513d601f19601f82011682018060405250810190610ab29190610df8565b5060408901518951909750909450925050505b818110610b805783610ad681610e77565b6040517f9a6fc8f500000000000000000000000000000000000000000000000000000000815269ffffffffffffffffffff8216600482015290955073ffffffffffffffffffffffffffffffffffffffff85169150639a6fc8f59060240160a060405180830381865afa158015610b50573d6000803e3d6000fd5b505050506040513d601f19601f82011682018060405250810190610b749190610df8565b509350610ac592505050565b610b8a8888610e60565b610b95906001610e48565b610ba0856001610e48565b945094505050505b94509492505050565b60408051808201909152600080825260208201526000610bcf6108dd565b61ffff16905060008181548110610be857610be8610d53565b6000918252602091829020604080518082019091529101546fffffffffffffffffffffffffffffffff8082168352700100000000000000000000000000000000909104169181019190915291505b81516fffffffffffffffffffffffffffffffff16831015610cc35780610c5b81610e77565b91505060008181548110610c7157610c71610d53565b6000918252602091829020604080518082019091529101546fffffffffffffffffffffffffffffffff808216835270010000000000000000000000000000000090910416918101919091529150610c36565b50919050565b600081610cde670de0b6b3a764000085610eac565b6106b29190610f68565b600060208284031215610cfa57600080fd5b5035919050565b7f4e487b7100000000000000000000000000000000000000000000000000000000600052601160045260246000fd5b600061ffff83811690831681811015610d4b57610d4b610d01565b039392505050565b7f4e487b7100000000000000000000000000000000000000000000000000000000600052603260045260246000fd5b60006fffffffffffffffffffffffffffffffff808316818516808303821115610dad57610dad610d01565b01949350505050565b600060208284031215610dc857600080fd5b815160ff811681146106b257600080fd5b805169ffffffffffffffffffff81168114610df357600080fd5b919050565b600080600080600060a08688031215610e1057600080fd5b610e1986610dd9565b9450602086015193506040860151925060608601519150610e3c60808701610dd9565b90509295509295909350565b60008219821115610e5b57610e5b610d01565b500190565b600082821015610e7257610e72610d01565b500390565b600081610e8657610e86610d01565b507fffffffffffffffffffffffffffffffffffffffffffffffffffffffffffffffff0190565b60007f7fffffffffffffffffffffffffffffffffffffffffffffffffffffffffffffff600084136000841385830485118282161615610eed57610eed610d01565b7f80000000000000000000000000000000000000000000000000000000000000006000871286820588128184161615610f2857610f28610d01565b60008712925087820587128484161615610f4457610f44610d01565b87850587128184161615610f5a57610f5a610d01565b505050929093029392505050565b600082610f9e577f4e487b7100000000000000000000000000000000000000000000000000000000600052601260045260246000fd5b7fffffffffffffffffffffffffffffffffffffffffffffffffffffffffffffffff83147f800000000000000000000000000000000000000000000000000000000000000083141615610ff257610ff2610d01565b50059056fea2646970667358221220de334f2c2a2a978038bef01203cecde555af1cca3daecabed3e5941729f4f17764736f6c634300080f0033290decd9548b62a8d60345a988386fc84ba6bc95484008f6362f93160ef3e563",
  "devdoc": {
    "details": "One instance per Chainlink price feed should be deployed. Multiple products may use the same      ChainlinkOracle instance if their payoff functions are based on the same underlying oracle.      This implementation only support non-negative prices.",
    "errors": {
      "InvalidOracleRound()": [
        {
          "details": "Error for invalid oracle round"
        }
      ]
    },
    "kind": "dev",
    "methods": {
      "atVersion(uint256)": {
        "params": {
          "version": "The version of which to lookup"
        },
        "returns": {
          "oracleVersion": "Oracle version at version `version`"
        }
      },
      "constructor": {
        "params": {
          "aggregator_": "Chainlink price feed aggregator"
        }
      },
      "currentVersion()": {
        "returns": {
          "oracleVersion": "Current oracle version"
        }
      },
      "sync()": {
        "details": "`sync` is expected to be called soon after a phase update occurs in the underlying proxy.      Phase updates should be detected using off-chain mechanism and should trigger a `sync` call      This is feasible in the short term due to how infrequent phase updates are, but phase update      and roundCount detection should eventually be implemented at the contract level.      Reverts if there is more than 1 phase to update in a single sync because we currently cannot      determine the startingRoundId for the intermediary phase.",
        "returns": {
          "_0": "The current oracle version after sync"
        }
      }
    },
    "stateVariables": {
      "_decimalOffset": {
        "details": "Decimal offset used to normalize chainlink price to 18 decimals"
      },
      "_phases": {
        "details": "Mapping of the starting data for each underlying phase"
      },
      "aggregator": {
        "details": "Chainlink feed aggregator address"
      },
      "lastSyncedRoundId": {
        "details": "Last roundID seen when `sync` was called"
      }
    },
    "title": "ChainlinkOracle",
    "version": 1
  },
  "userdoc": {
    "kind": "user",
    "methods": {
      "atVersion(uint256)": {
        "notice": "Returns the current oracle version"
      },
      "constructor": {
        "notice": "Initializes the contract state"
      },
      "currentVersion()": {
        "notice": "Returns the current oracle version"
      },
      "sync()": {
        "notice": "Checks for a new price and updates the internal phase annotation state accordingly"
      }
    },
    "notice": "Chainlink implementation of the IOracle interface.",
    "version": 1
  },
  "storageLayout": {
    "storage": [
      {
        "astId": 2588,
        "contract": "contracts/ChainlinkFeedOracle.sol:ChainlinkFeedOracle",
        "label": "_phases",
        "offset": 0,
        "slot": "0",
        "type": "t_array(t_struct(Phase)2596_storage)dyn_storage"
      },
      {
        "astId": 2591,
        "contract": "contracts/ChainlinkFeedOracle.sol:ChainlinkFeedOracle",
        "label": "lastSyncedRoundId",
        "offset": 0,
        "slot": "1",
        "type": "t_uint256"
      }
    ],
    "types": {
      "t_array(t_struct(Phase)2596_storage)dyn_storage": {
        "base": "t_struct(Phase)2596_storage",
        "encoding": "dynamic_array",
        "label": "struct ChainlinkFeedOracle.Phase[]",
        "numberOfBytes": "32"
      },
      "t_struct(Phase)2596_storage": {
        "encoding": "inplace",
        "label": "struct ChainlinkFeedOracle.Phase",
        "members": [
          {
            "astId": 2593,
            "contract": "contracts/ChainlinkFeedOracle.sol:ChainlinkFeedOracle",
            "label": "startingVersion",
            "offset": 0,
            "slot": "0",
            "type": "t_uint128"
          },
          {
            "astId": 2595,
            "contract": "contracts/ChainlinkFeedOracle.sol:ChainlinkFeedOracle",
            "label": "startingRoundId",
            "offset": 16,
            "slot": "0",
            "type": "t_uint128"
          }
        ],
        "numberOfBytes": "32"
      },
      "t_uint128": {
        "encoding": "inplace",
        "label": "uint128",
        "numberOfBytes": "16"
      },
      "t_uint256": {
        "encoding": "inplace",
        "label": "uint256",
        "numberOfBytes": "32"
      }
    }
  }
}