{
  "address": "0x741FC06B5DE25AC5b31F54B92eE3Bf1C97bf8666",
  "abi": [
    {
      "inputs": [
        {
          "internalType": "Token18",
          "name": "asset_",
          "type": "address"
        },
        {
          "internalType": "contract IController",
          "name": "controller_",
          "type": "address"
        },
        {
          "internalType": "contract IProduct",
          "name": "long_",
          "type": "address"
        },
        {
          "internalType": "contract IProduct",
          "name": "short_",
          "type": "address"
        },
        {
          "internalType": "UFixed18",
          "name": "targetLeverage_",
          "type": "uint256"
        },
        {
          "internalType": "UFixed18",
          "name": "maxCollateral_",
          "type": "uint256"
        }
      ],
      "stateMutability": "nonpayable",
      "type": "constructor"
    },
    {
      "inputs": [],
      "name": "BalancedVaultDepositLimitExceeded",
      "type": "error"
    },
    {
      "inputs": [],
      "name": "BalancedVaultRedemptionLimitExceeded",
      "type": "error"
    },
    {
      "inputs": [
        {
          "internalType": "uint256",
          "name": "value",
          "type": "uint256"
        }
      ],
      "name": "Fixed18OverflowError",
      "type": "error"
    },
    {
      "inputs": [
        {
          "internalType": "int256",
          "name": "value",
          "type": "int256"
        }
      ],
      "name": "UFixed18UnderflowError",
      "type": "error"
    },
    {
      "inputs": [
        {
          "internalType": "uint256",
          "name": "version",
          "type": "uint256"
        }
      ],
      "name": "UInitializableAlreadyInitializedError",
      "type": "error"
    },
    {
      "inputs": [],
      "name": "UInitializableNotInitializingError",
      "type": "error"
    },
    {
      "inputs": [],
      "name": "UInitializableZeroVersionError",
      "type": "error"
    },
    {
      "anonymous": false,
      "inputs": [
        {
          "indexed": true,
          "internalType": "address",
          "name": "account",
          "type": "address"
        },
        {
          "indexed": true,
          "internalType": "address",
          "name": "spender",
          "type": "address"
        },
        {
          "indexed": false,
          "internalType": "UFixed18",
          "name": "value",
          "type": "uint256"
        }
      ],
      "name": "Approval",
      "type": "event"
    },
    {
      "anonymous": false,
      "inputs": [
        {
          "indexed": true,
          "internalType": "address",
          "name": "sender",
          "type": "address"
        },
        {
          "indexed": true,
          "internalType": "address",
          "name": "account",
          "type": "address"
        },
        {
          "indexed": false,
          "internalType": "UFixed18",
          "name": "assets",
          "type": "uint256"
        }
      ],
      "name": "Claim",
      "type": "event"
    },
    {
      "anonymous": false,
      "inputs": [
        {
          "indexed": false,
          "internalType": "contract IProduct",
          "name": "product",
          "type": "address"
        },
        {
          "indexed": false,
          "internalType": "UFixed18",
          "name": "targetCollateral",
          "type": "uint256"
        }
      ],
      "name": "CollateralUpdated",
      "type": "event"
    },
    {
      "anonymous": false,
      "inputs": [
        {
          "indexed": true,
          "internalType": "address",
          "name": "sender",
          "type": "address"
        },
        {
          "indexed": true,
          "internalType": "address",
          "name": "account",
          "type": "address"
        },
        {
          "indexed": false,
          "internalType": "uint256",
          "name": "version",
          "type": "uint256"
        },
        {
          "indexed": false,
          "internalType": "UFixed18",
          "name": "assets",
          "type": "uint256"
        }
      ],
      "name": "Deposit",
      "type": "event"
    },
    {
      "anonymous": false,
      "inputs": [
        {
          "indexed": false,
          "internalType": "uint256",
          "name": "version",
          "type": "uint256"
        }
      ],
      "name": "Initialized",
      "type": "event"
    },
    {
      "anonymous": false,
      "inputs": [
        {
          "indexed": false,
          "internalType": "contract IProduct",
          "name": "product",
          "type": "address"
        },
        {
          "indexed": false,
          "internalType": "UFixed18",
          "name": "targetPosition",
          "type": "uint256"
        }
      ],
      "name": "PositionUpdated",
      "type": "event"
    },
    {
      "anonymous": false,
      "inputs": [
        {
          "indexed": true,
          "internalType": "address",
          "name": "sender",
          "type": "address"
        },
        {
          "indexed": true,
          "internalType": "address",
          "name": "account",
          "type": "address"
        },
        {
          "indexed": false,
          "internalType": "uint256",
          "name": "version",
          "type": "uint256"
        },
        {
          "indexed": false,
          "internalType": "UFixed18",
          "name": "shares",
          "type": "uint256"
        }
      ],
      "name": "Redemption",
      "type": "event"
    },
    {
      "anonymous": false,
      "inputs": [
        {
          "indexed": true,
          "internalType": "address",
          "name": "from",
          "type": "address"
        },
        {
          "indexed": true,
          "internalType": "address",
          "name": "to",
          "type": "address"
        },
        {
          "indexed": false,
          "internalType": "UFixed18",
          "name": "value",
          "type": "uint256"
        }
      ],
      "name": "Transfer",
      "type": "event"
    },
    {
      "inputs": [
        {
          "internalType": "address",
          "name": "",
          "type": "address"
        },
        {
          "internalType": "address",
          "name": "",
          "type": "address"
        }
      ],
      "name": "allowance",
      "outputs": [
        {
          "internalType": "UFixed18",
          "name": "",
          "type": "uint256"
        }
      ],
      "stateMutability": "view",
      "type": "function"
    },
    {
      "inputs": [
        {
          "internalType": "address",
          "name": "spender",
          "type": "address"
        },
        {
          "internalType": "UFixed18",
          "name": "amount",
          "type": "uint256"
        }
      ],
      "name": "approve",
      "outputs": [
        {
          "internalType": "bool",
          "name": "",
          "type": "bool"
        }
      ],
      "stateMutability": "nonpayable",
      "type": "function"
    },
    {
      "inputs": [],
      "name": "asset",
      "outputs": [
        {
          "internalType": "Token18",
          "name": "",
          "type": "address"
        }
      ],
      "stateMutability": "view",
      "type": "function"
    },
    {
      "inputs": [
        {
          "internalType": "address",
          "name": "account",
          "type": "address"
        }
      ],
      "name": "balanceOf",
      "outputs": [
        {
          "internalType": "UFixed18",
          "name": "",
          "type": "uint256"
        }
      ],
      "stateMutability": "view",
      "type": "function"
    },
    {
      "inputs": [
        {
          "internalType": "address",
          "name": "account",
          "type": "address"
        }
      ],
      "name": "claim",
      "outputs": [],
      "stateMutability": "nonpayable",
      "type": "function"
    },
    {
      "inputs": [],
      "name": "collateral",
      "outputs": [
        {
          "internalType": "contract ICollateral",
          "name": "",
          "type": "address"
        }
      ],
      "stateMutability": "view",
      "type": "function"
    },
    {
      "inputs": [],
      "name": "controller",
      "outputs": [
        {
          "internalType": "contract IController",
          "name": "",
          "type": "address"
        }
      ],
      "stateMutability": "view",
      "type": "function"
    },
    {
      "inputs": [
        {
          "internalType": "UFixed18",
          "name": "shares",
          "type": "uint256"
        }
      ],
      "name": "convertToAssets",
      "outputs": [
        {
          "internalType": "UFixed18",
          "name": "",
          "type": "uint256"
        }
      ],
      "stateMutability": "view",
      "type": "function"
    },
    {
      "inputs": [
        {
          "internalType": "UFixed18",
          "name": "assets",
          "type": "uint256"
        }
      ],
      "name": "convertToShares",
      "outputs": [
        {
          "internalType": "UFixed18",
          "name": "",
          "type": "uint256"
        }
      ],
      "stateMutability": "view",
      "type": "function"
    },
    {
      "inputs": [],
      "name": "decimals",
      "outputs": [
        {
          "internalType": "uint8",
          "name": "",
          "type": "uint8"
        }
      ],
      "stateMutability": "pure",
      "type": "function"
    },
    {
      "inputs": [
        {
          "internalType": "UFixed18",
          "name": "assets",
          "type": "uint256"
        },
        {
          "internalType": "address",
          "name": "account",
          "type": "address"
        }
      ],
      "name": "deposit",
      "outputs": [],
      "stateMutability": "nonpayable",
      "type": "function"
    },
    {
      "inputs": [
        {
          "internalType": "string",
          "name": "name_",
          "type": "string"
        },
        {
          "internalType": "string",
          "name": "symbol_",
          "type": "string"
        }
      ],
      "name": "initialize",
      "outputs": [],
      "stateMutability": "nonpayable",
      "type": "function"
    },
    {
      "inputs": [],
      "name": "long",
      "outputs": [
        {
          "internalType": "contract IProduct",
          "name": "",
          "type": "address"
        }
      ],
      "stateMutability": "view",
      "type": "function"
    },
    {
      "inputs": [],
      "name": "maxCollateral",
      "outputs": [
        {
          "internalType": "UFixed18",
          "name": "",
          "type": "uint256"
        }
      ],
      "stateMutability": "view",
      "type": "function"
    },
    {
      "inputs": [
        {
          "internalType": "address",
          "name": "",
          "type": "address"
        }
      ],
      "name": "maxDeposit",
      "outputs": [
        {
          "internalType": "UFixed18",
          "name": "",
          "type": "uint256"
        }
      ],
      "stateMutability": "view",
      "type": "function"
    },
    {
      "inputs": [
        {
          "internalType": "address",
          "name": "account",
          "type": "address"
        }
      ],
      "name": "maxRedeem",
      "outputs": [
        {
          "internalType": "UFixed18",
          "name": "",
          "type": "uint256"
        }
      ],
      "stateMutability": "view",
      "type": "function"
    },
    {
      "inputs": [],
      "name": "name",
      "outputs": [
        {
          "internalType": "string",
          "name": "",
          "type": "string"
        }
      ],
      "stateMutability": "view",
      "type": "function"
    },
    {
      "inputs": [
        {
          "internalType": "UFixed18",
          "name": "shares",
          "type": "uint256"
        },
        {
          "internalType": "address",
          "name": "account",
          "type": "address"
        }
      ],
      "name": "redeem",
      "outputs": [],
      "stateMutability": "nonpayable",
      "type": "function"
    },
    {
      "inputs": [],
      "name": "short",
      "outputs": [
        {
          "internalType": "contract IProduct",
          "name": "",
          "type": "address"
        }
      ],
      "stateMutability": "view",
      "type": "function"
    },
    {
      "inputs": [],
      "name": "symbol",
      "outputs": [
        {
          "internalType": "string",
          "name": "",
          "type": "string"
        }
      ],
      "stateMutability": "view",
      "type": "function"
    },
    {
      "inputs": [],
      "name": "sync",
      "outputs": [],
      "stateMutability": "nonpayable",
      "type": "function"
    },
    {
      "inputs": [],
      "name": "targetLeverage",
      "outputs": [
        {
          "internalType": "UFixed18",
          "name": "",
          "type": "uint256"
        }
      ],
      "stateMutability": "view",
      "type": "function"
    },
    {
      "inputs": [],
      "name": "totalAssets",
      "outputs": [
        {
          "internalType": "UFixed18",
          "name": "",
          "type": "uint256"
        }
      ],
      "stateMutability": "view",
      "type": "function"
    },
    {
      "inputs": [],
      "name": "totalSupply",
      "outputs": [
        {
          "internalType": "UFixed18",
          "name": "",
          "type": "uint256"
        }
      ],
      "stateMutability": "view",
      "type": "function"
    },
    {
      "inputs": [],
      "name": "totalUnclaimed",
      "outputs": [
        {
          "internalType": "UFixed18",
          "name": "",
          "type": "uint256"
        }
      ],
      "stateMutability": "view",
      "type": "function"
    },
    {
      "inputs": [
        {
          "internalType": "address",
          "name": "to",
          "type": "address"
        },
        {
          "internalType": "UFixed18",
          "name": "amount",
          "type": "uint256"
        }
      ],
      "name": "transfer",
      "outputs": [
        {
          "internalType": "bool",
          "name": "",
          "type": "bool"
        }
      ],
      "stateMutability": "nonpayable",
      "type": "function"
    },
    {
      "inputs": [
        {
          "internalType": "address",
          "name": "from",
          "type": "address"
        },
        {
          "internalType": "address",
          "name": "to",
          "type": "address"
        },
        {
          "internalType": "UFixed18",
          "name": "amount",
          "type": "uint256"
        }
      ],
      "name": "transferFrom",
      "outputs": [
        {
          "internalType": "bool",
          "name": "",
          "type": "bool"
        }
      ],
      "stateMutability": "nonpayable",
      "type": "function"
    },
    {
      "inputs": [
        {
          "internalType": "address",
          "name": "account",
          "type": "address"
        }
      ],
      "name": "unclaimed",
      "outputs": [
        {
          "internalType": "UFixed18",
          "name": "",
          "type": "uint256"
        }
      ],
      "stateMutability": "view",
      "type": "function"
    }
  ],
  "transactionHash": "0x9d7aec2542659f516cb3bcc98562b2d74cf6211f853622e7095a45af876c0709",
  "args": [
    "0x52C64b8998eB7C80b6F526E99E29ABdcC86B841b",
    "0xA59eF0208418559770a48D7ae4f260A28763167B",
    "0x5E660B7B8357059241EAEc143e1e68A5A108D035",
    "0x4e67a8a428206Af5a6AC00Ba08a67Ce827182985",
    "2000000000000000000",
    "500000000000000000000000"
  ],
  "numDeployments": 1,
  "solcInputHash": "d577425edcd014ec7f986afedacf4044",
  "bytecode": "0x6101606040523480156200001257600080fd5b50604051620045b0380380620045b08339810160408190526200003591620000f5565b6001600160a01b0380871661014052851660808190526040805163d8dfeb4560e01b8152905163d8dfeb45916004808201926020929091908290030181865afa15801562000087573d6000803e3d6000fd5b505050506040513d601f19601f82011682018060405250810190620000ad919062000171565b6001600160a01b0390811660a05293841660c0529190921660e052610100919091526101205250620001989050565b6001600160a01b0381168114620000f257600080fd5b50565b60008060008060008060c087890312156200010f57600080fd5b86516200011c81620000dc565b60208801519096506200012f81620000dc565b60408801519095506200014281620000dc565b60608801519094506200015581620000dc565b809350506080870151915060a087015190509295509295509295565b6000602082840312156200018457600080fd5b81516200019181620000dc565b9392505050565b60805160a05160c05160e05161010051610120516101405161427b620003356000396000818161030d015281816107130152818161087601528181610a5f01526116b20152600081816102b00152818161195201526119870152600081816103dc01526127d80152600081816102e601528181610da6015281816111630152818161130f0152818161161a01528181611f6e01528181612005015281816121840152818161247f015281816124e70152818161283301528181612a6e0152612be901526000818161021101528181610d17015281816110ae015281816112340152818161153b01528181611d9301528181611e2a015281816120e701528181612227015281816124a0015281816124c6015281816125110152818161257601528181612737015281816128090152818161298d0152612b35015260008181610403015281816108980152818161125f0152818161133d0152818161156a01528181611642015281816129b801528181612a96015281816130230152613107015260008181610468015281816123cf0152612662015261427b6000f3fe608060405234801561001057600080fd5b50600436106101c45760003560e01c8063505bd3da116100f9578063c96f14b811610097578063d905777e11610071578063d905777e14610425578063dd62ed3e14610438578063f77c479114610463578063fff6cae91461048a57600080fd5b8063c96f14b8146103cf578063d6c946ea146103d7578063d8dfeb45146103fe57600080fd5b80637bde82f2116100d35780637bde82f21461038e57806395d89b41146103a1578063a9059cbb146103a9578063c6e6f592146103bc57600080fd5b8063505bd3da146103555780636e553f651461036857806370a082311461037b57600080fd5b806323b872dd1161016657806338bea4cb1161014057806338bea4cb146102e157806338d52e0f14610308578063402d267d1461032f5780634cd88b761461034257600080fd5b806323b872dd14610298578063251f47c1146102ab578063313ce567146102d257600080fd5b806307bfce37116101a257806307bfce371461020c578063095ea7b31461025857806318160ddd1461027b5780631e83409a1461028357600080fd5b806301e1d114146101c957806306fdde03146101e457806307a2d13a146101f9575b600080fd5b6101d1610492565b6040519081526020015b60405180910390f35b6101ec6104b1565b6040516101db9190613ab3565b6101d1610207366004613b04565b61053f565b6102337f000000000000000000000000000000000000000000000000000000000000000081565b60405173ffffffffffffffffffffffffffffffffffffffff90911681526020016101db565b61026b610266366004613b46565b61057c565b60405190151581526020016101db565b6101d16105f6565b610296610291366004613b70565b61060f565b005b61026b6102a6366004613b8b565b610745565b6101d17f000000000000000000000000000000000000000000000000000000000000000081565b604051601281526020016101db565b6102337f000000000000000000000000000000000000000000000000000000000000000081565b6102337f000000000000000000000000000000000000000000000000000000000000000081565b6101d161033d366004613b70565b610772565b610296610350366004613ca1565b61078b565b6101d1610363366004613b70565b610919565b610296610376366004613d05565b610932565b6101d1610389366004613b70565b610a96565b61029661039c366004613d05565b610aaf565b6101ec610c09565b61026b6103b7366004613b46565b610c16565b6101d16103ca366004613b04565b610c37565b6101d1610c6d565b6101d17f000000000000000000000000000000000000000000000000000000000000000081565b6102337f000000000000000000000000000000000000000000000000000000000000000081565b6101d1610433366004613b70565b610c86565b6101d1610446366004613d31565b600260209081526000928352604080842090915290825290205481565b6102337f000000000000000000000000000000000000000000000000000000000000000081565b610296610cab565b60008061049f6000610cc8565b5090506104ab81610f19565b91505090565b600080546104be90613d5b565b80601f01602080910402602001604051908101604052809291908181526020018280546104ea90613d5b565b80156105375780601f1061050c57610100808354040283529160200191610537565b820191906000526020600020905b81548152906001019060200180831161051a57829003601f168201915b505050505081565b60008061054c6000610cc8565b50905061055881610f19565b61056182610f7d565b604083015260208201526105758184610fac565b9392505050565b33600081815260026020908152604080832073ffffffffffffffffffffffffffffffffffffffff8716808552925280832085905551919290917f8c5be1e5ebec7d5bd14f71427d1e84f3dd0314c0f7b2291e5b200ac8c7c3b925906105e49086815260200190565b60405180910390a35060015b92915050565b6000806106036000610cc8565b5090506104ab81610f7d565b600061061a82610fdb565b5073ffffffffffffffffffffffffffffffffffffffff8316600090815260056020526040812080546006549290915591925061065681836114ec565b60065560405182815273ffffffffffffffffffffffffffffffffffffffff85169033907f70eb43c4a8ae8c40502dcf22436c509c28d6ff421cf07c491be56984bd9870689060200160405180910390a381600080806106b36114f8565b9194509250905060006106d0826106ca86866116f7565b906116f7565b90506106dc8187611703565b156106ef576106ec858288611717565b94505b6106f9888661172e565b61073a73ffffffffffffffffffffffffffffffffffffffff7f0000000000000000000000000000000000000000000000000000000000000000168a87611745565b505050505050505050565b600061075084610fdb565b505061075d843384611766565b610768848484611848565b5060019392505050565b60008061077f6000610cc8565b50905061057581611922565b6001806107b67f5db5abc19987c2b3729df7961b62b6bb0bae886dd47e3ce25bb3a3af34c6d80b5490565b106107f5576040517f1e7a9d95000000000000000000000000000000000000000000000000000000008152600481018290526024015b60405180910390fd5b61081e7f5db5abc19987c2b3729df7961b62b6bb0bae886dd47e3ce25bb3a3af34c6d80b829055565b60017fad57d7911b7e3d6c3c79a68ba909a7f4ba41f9485e5207b12dee0d0c6af5398c55600061084e8482613df4565b50600161085b8382613df4565b506108bc73ffffffffffffffffffffffffffffffffffffffff7f0000000000000000000000000000000000000000000000000000000000000000167f00000000000000000000000000000000000000000000000000000000000000006119ac565b60007fad57d7911b7e3d6c3c79a68ba909a7f4ba41f9485e5207b12dee0d0c6af5398c556040518181527fbe9b076dc5b65990cca9dd9d7366682482e7817a6f6bc7f4faf4dc32af497f32906020015b60405180910390a1505050565b60008061092583610cc8565b91505061057581846119ed565b600061093d82610fdb565b50905061095361094c82611922565b8490611aa7565b1561098a576040517f6726139b00000000000000000000000000000000000000000000000000000000815260040160405180910390fd5b60075461099790846116f7565b600755805160095573ffffffffffffffffffffffffffffffffffffffff82166000908152600a60205260409020546109cf90846116f7565b73ffffffffffffffffffffffffffffffffffffffff83166000818152600a60209081526040808320949094558451600c8252918490209190915583518351908152908101869052909133917fdcbc1c05240f31ff3ad067ef1ee35ce4997762752e3a095284754544f4c709d7910160405180910390a3610a8673ffffffffffffffffffffffffffffffffffffffff7f0000000000000000000000000000000000000000000000000000000000000000163385611abd565b610a9181600061172e565b505050565b600080610aa283610cc8565b9150506105758184611adf565b3373ffffffffffffffffffffffffffffffffffffffff821614610ad757610ad7813384611766565b600080610ae383610fdb565b91509150610afc610af5838386611b99565b8590611aa7565b15610b33576040517f457c19da00000000000000000000000000000000000000000000000000000000815260040160405180910390fd5b600854610b4090856116f7565b600855815160095573ffffffffffffffffffffffffffffffffffffffff83166000908152600b6020526040902054610b7890856116f7565b73ffffffffffffffffffffffffffffffffffffffff84166000818152600b60209081526040808320949094558551600c8252918490209190915584518351908152908101879052909133917fa28d80c9910787c0c058ed9b50c577f1389264bf61563fa45529e0771976f562910160405180910390a3610bf88385611bbb565b610c0382600061172e565b50505050565b600180546104be90613d5b565b6000610c2133610fdb565b5050610c2e338484611848565b50600192915050565b600080610c446000610cc8565b509050610c5081610f19565b610c5982610f7d565b604083015260208201526105758184611c74565b600080610c7a6000610cc8565b5090506104ab81611ca3565b6000806000610c9484610cc8565b91509150610ca3828286611b99565b949350505050565b6000610cb76000610fdb565b509050610cc581600061172e565b50565b610cec60405180606001604052806000815260200160008152602001600081525090565b610d1060405180606001604052806000815260200160008152602001600081525090565b6000610e387f000000000000000000000000000000000000000000000000000000000000000073ffffffffffffffffffffffffffffffffffffffff1663c07f47d46040518163ffffffff1660e01b8152600401602060405180830381865afa158015610d80573d6000803e3d6000fd5b505050506040513d601f19601f82011682018060405250810190610da49190613f0e565b7f000000000000000000000000000000000000000000000000000000000000000073ffffffffffffffffffffffffffffffffffffffff1663c07f47d46040518163ffffffff1660e01b8152600401602060405180830381865afa158015610e0f573d6000803e3d6000fd5b505050506040513d601f19601f82011682018060405250810190610e339190613f0e565b611cd2565b90506040518060600160405280828152602001610e56600954611ce8565b8152602001610e766009546000908152600d602052604090206002015490565b8152506040518060600160405280838152602001610ed2600c60008973ffffffffffffffffffffffffffffffffffffffff1673ffffffffffffffffffffffffffffffffffffffff16815260200190815260200160002054611ce8565b815273ffffffffffffffffffffffffffffffffffffffff969096166000908152600c60209081526040808320548352600d8252909120600201549601959095529492505050565b600080600080610f276114f8565b91945092509050600080610f3f836106ca87876116f7565b610f4e6007546106ca8a611ca3565b9092509050610f5d8282611aa7565b610f68576000610f72565b610f7282826114ec565b979650505050505050565b6000600954826000015103610f9457505060045490565b6105f0610fa383600754611c74565b600454906116f7565b6000610fba83604001511590565b15610fc65750806105f0565b60208301516040840151610575918491611717565b610fff60405180606001604052806000815260200160008152602001600081525090565b61102360405180606001604052806000815260200160008152602001600081525090565b61102c83612071565b600954825192945090925010156114035761105a61105560045461104f85610f7d565b906114ec565b6122a8565b61106382611ca3565b6006556000600781905560085581516009556040805160c08101918290527fb7648fb9000000000000000000000000000000000000000000000000000000009091523060c4820152807f000000000000000000000000000000000000000000000000000000000000000073ffffffffffffffffffffffffffffffffffffffff1663b7648fb960e483016040805180830381865afa158015611108573d6000803e3d6000fd5b505050506040513d601f19601f8201168201806040525081019061112c9190613f76565b5181526040517fb7648fb90000000000000000000000000000000000000000000000000000000081523060048201526020909101907f000000000000000000000000000000000000000000000000000000000000000073ffffffffffffffffffffffffffffffffffffffff169063b7648fb9906024016040805180830381865afa1580156111be573d6000803e3d6000fd5b505050506040513d601f19601f820116820180604052508101906111e29190613f76565b518152600480546020830152604080517fcc218ece000000000000000000000000000000000000000000000000000000008152309281019290925273ffffffffffffffffffffffffffffffffffffffff7f0000000000000000000000000000000000000000000000000000000000000000811660248401529201917f0000000000000000000000000000000000000000000000000000000000000000169063cc218ece90604401602060405180830381865afa1580156112a6573d6000803e3d6000fd5b505050506040513d601f19601f820116820180604052508101906112ca9190613f0e565b81526040517fcc218ece00000000000000000000000000000000000000000000000000000000815230600482015273ffffffffffffffffffffffffffffffffffffffff7f0000000000000000000000000000000000000000000000000000000000000000811660248301526020909201917f0000000000000000000000000000000000000000000000000000000000000000169063cc218ece90604401602060405180830381865afa158015611384573d6000803e3d6000fd5b505050506040513d601f19601f820116820180604052508101906113a89190613f0e565b81526020016113b684610f19565b905282516000908152600d602090815260409182902083518155908301516001820155908201516002820155606082015160038201556080820151600482015560a0909101516005909101555b73ffffffffffffffffffffffffffffffffffffffff83161580159061144d575073ffffffffffffffffffffffffffffffffffffffff83166000908152600c60205260409020548151115b156114e75773ffffffffffffffffffffffffffffffffffffffff831660009081526003602052604090205461149190849061148c9061104f8584611adf565b6122bb565b61149b81846119ed565b73ffffffffffffffffffffffffffffffffffffffff8416600090815260056020908152604080832093909355600a8152828220829055600b81528282208290558351600c909152919020555b915091565b60006105758284613fc1565b6040517fcc218ece00000000000000000000000000000000000000000000000000000000815230600482015273ffffffffffffffffffffffffffffffffffffffff7f000000000000000000000000000000000000000000000000000000000000000081166024830152600091829182917f00000000000000000000000000000000000000000000000000000000000000009091169063cc218ece90604401602060405180830381865afa1580156115b3573d6000803e3d6000fd5b505050506040513d601f19601f820116820180604052508101906115d79190613f0e565b6040517fcc218ece00000000000000000000000000000000000000000000000000000000815230600482015273ffffffffffffffffffffffffffffffffffffffff7f0000000000000000000000000000000000000000000000000000000000000000811660248301527f0000000000000000000000000000000000000000000000000000000000000000169063cc218ece90604401602060405180830381865afa158015611689573d6000803e3d6000fd5b505050506040513d601f19601f820116820180604052508101906116ad9190613f0e565b6116ec7f000000000000000000000000000000000000000000000000000000000000000073ffffffffffffffffffffffffffffffffffffffff16612349565b925092509250909192565b60006105758284613fd4565b600061170f8383612355565b159392505050565b6000816117248486613fe7565b610ca3919061402d565b6117378161238a565b61174182826125d7565b5050565b610a9173ffffffffffffffffffffffffffffffffffffffff84168383612860565b73ffffffffffffffffffffffffffffffffffffffff8084166000908152600260209081526040808320938616835292905220546117c3907fffffffffffffffffffffffffffffffffffffffffffffffffffffffffffffffff612934565b156117cd57505050565b73ffffffffffffffffffffffffffffffffffffffff80841660009081526002602090815260408083209386168352929052205461180a90826114ec565b73ffffffffffffffffffffffffffffffffffffffff938416600090815260026020908152604080832095909616825293909352929091209190915550565b73ffffffffffffffffffffffffffffffffffffffff831660009081526003602052604090205461187890826114ec565b73ffffffffffffffffffffffffffffffffffffffff80851660009081526003602052604080822093909355908416815220546118b490826116f7565b73ffffffffffffffffffffffffffffffffffffffff80841660008181526003602052604090819020939093559151908516907fddf252ad1be2c89b69c2b068fc378daa952ba7f163c4a11628f55a4df523b3ef906119159085815260200190565b60405180910390a3505050565b600061192d8261294a565b1561193a57506000919050565b600061194b6007546106ca85610f19565b90506119777f000000000000000000000000000000000000000000000000000000000000000082611aa7565b611982576000610575565b6105757f0000000000000000000000000000000000000000000000000000000000000000826114ec565b61174173ffffffffffffffffffffffffffffffffffffffff8316827fffffffffffffffffffffffffffffffffffffffffffffffffffffffffffffffff612c88565b73ffffffffffffffffffffffffffffffffffffffff81166000908152600c6020526040812054835103611a46575073ffffffffffffffffffffffffffffffffffffffff81166000908152600560205260409020546105f0565b73ffffffffffffffffffffffffffffffffffffffff82166000908152600b602052604090205461057590611a7b908590610fac565b73ffffffffffffffffffffffffffffffffffffffff8416600090815260056020526040902054906116f7565b6000611ab38383612355565b6002149392505050565b610a9173ffffffffffffffffffffffffffffffffffffffff8416833084612e0a565b73ffffffffffffffffffffffffffffffffffffffff81166000908152600c6020526040812054835103611b38575073ffffffffffffffffffffffffffffffffffffffff81166000908152600360205260409020546105f0565b73ffffffffffffffffffffffffffffffffffffffff82166000908152600a602052604090205461057590611b6d908590611c74565b73ffffffffffffffffffffffffffffffffffffffff8416600090815260036020526040902054906116f7565b6000611ba48461294a565b15611bb157506000610575565b610ca38383611adf565b73ffffffffffffffffffffffffffffffffffffffff8216600090815260036020526040902054611beb90826114ec565b73ffffffffffffffffffffffffffffffffffffffff8316600090815260036020526040902055600454611c1e90826114ec565b60045560405181815260009073ffffffffffffffffffffffffffffffffffffffff8416907fddf252ad1be2c89b69c2b068fc378daa952ba7f163c4a11628f55a4df523b3ef906020015b60405180910390a35050565b6000611c8283602001511590565b15611c8e5750806105f0565b60408301516020840151610575918491611717565b6000600954826000015103611cba57505060065490565b6105f0611cc983600854610fac565b600654906116f7565b6000818310611ce15781610575565b5090919050565b600080611ec5611d44611d23670de0b6b3a76400007fffffffffffffffffffffffffffffffffffffffffffffffffffffffffffffffff614041565b6000868152600d6020526040902060030154611d3e90612e68565b90612ec7565b6000858152600d6020526040902054611ebf90611d6090612e68565b6040517f20fe9c3c00000000000000000000000000000000000000000000000000000000815260048101889052611d3e907f000000000000000000000000000000000000000000000000000000000000000073ffffffffffffffffffffffffffffffffffffffff16906320fe9c3c906024016040805180830381865afa158015611dee573d6000803e3d6000fd5b505050506040513d601f19601f82011682018060405250810190611e129190613f27565b5173ffffffffffffffffffffffffffffffffffffffff7f0000000000000000000000000000000000000000000000000000000000000000166320fe9c3c611e5a8b6001613fd4565b6040518263ffffffff1660e01b8152600401611e7891815260200190565b6040805180830381865afa158015611e94573d6000803e3d6000fd5b505050506040513d601f19601f82011682018060405250810190611eb89190613f27565b5190612ee6565b90612ef2565b90506000612035611f1c611f01670de0b6b3a76400007fffffffffffffffffffffffffffffffffffffffffffffffffffffffffffffffff614041565b6000878152600d6020526040902060040154611d3e90612e68565b6000868152600d6020526040902060010154611ebf90611f3b90612e68565b6040517f20fe9c3c00000000000000000000000000000000000000000000000000000000815260048101899052611d3e907f000000000000000000000000000000000000000000000000000000000000000073ffffffffffffffffffffffffffffffffffffffff16906320fe9c3c906024016040805180830381865afa158015611fc9573d6000803e3d6000fd5b505050506040513d601f19601f82011682018060405250810190611fed9190613f27565b5173ffffffffffffffffffffffffffffffffffffffff7f0000000000000000000000000000000000000000000000000000000000000000166320fe9c3c611e5a8c6001613fd4565b9050610ca361206c6000611ebf8461206687612066600d60008d815260200190815260200160002060050154612e68565b90612efe565b612f0a565b61209560405180606001604052806000815260200160008152602001600081525090565b6120b960405180606001604052806000815260200160008152602001600081525090565b6040517ff667f8970000000000000000000000000000000000000000000000000000000081523060048201527f000000000000000000000000000000000000000000000000000000000000000073ffffffffffffffffffffffffffffffffffffffff169063f667f89790602401600060405180830381600087803b15801561214057600080fd5b505af1158015612154573d6000803e3d6000fd5b50506040517ff667f8970000000000000000000000000000000000000000000000000000000081523060048201527f000000000000000000000000000000000000000000000000000000000000000073ffffffffffffffffffffffffffffffffffffffff16925063f667f8979150602401600060405180830381600087803b1580156121df57600080fd5b505af11580156121f3573d6000803e3d6000fd5b50506040517f8e480b20000000000000000000000000000000000000000000000000000000008152306004820152600092507f000000000000000000000000000000000000000000000000000000000000000073ffffffffffffffffffffffffffffffffffffffff169150638e480b2090602401602060405180830381865afa158015612284573d6000803e3d6000fd5b505050506040513d601f19601f82011682018060405250810190610e389190613f0e565b6004546122b590826116f7565b60045550565b73ffffffffffffffffffffffffffffffffffffffff82166000908152600360205260409020546122eb90826116f7565b73ffffffffffffffffffffffffffffffffffffffff83166000818152600360205260408082209390935591519091907fddf252ad1be2c89b69c2b068fc378daa952ba7f163c4a11628f55a4df523b3ef90611c689085815260200190565b60006105f08230612f4a565b600082828082111561236c576002925050506105f0565b8082101561237f576000925050506105f0565b506001949350505050565b60008060006123976114f8565b9194509250905060006123b28561104f846106ca88886116f7565b905060006123c882671bc16d674ec80000612fde565b90506124637f000000000000000000000000000000000000000000000000000000000000000073ffffffffffffffffffffffffffffffffffffffff1663ba2de9bc6040518163ffffffff1660e01b8152600401602060405180830381865afa158015612438573d6000803e3d6000fd5b505050506040513d601f19601f8201168201806040525081019061245c9190613f0e565b8290611703565b1561246c575060005b6000806124798787611aa7565b6124c4577f00000000000000000000000000000000000000000000000000000000000000007f0000000000000000000000000000000000000000000000000000000000000000612507565b7f00000000000000000000000000000000000000000000000000000000000000007f00000000000000000000000000000000000000000000000000000000000000005b91509150612570827f000000000000000000000000000000000000000000000000000000000000000073ffffffffffffffffffffffffffffffffffffffff168473ffffffffffffffffffffffffffffffffffffffff1614612568578761256a565b885b85612ffd565b6125cd817f000000000000000000000000000000000000000000000000000000000000000073ffffffffffffffffffffffffffffffffffffffff168373ffffffffffffffffffffffffffffffffffffffff1614612568578761256a565b5050505050505050565b60006125e68261104f85610f19565b905060006126086126046008546004546116f790919063ffffffff16565b1590565b6126425761263d61263460045461262c6008546004546116f790919063ffffffff16565b859190611717565b600754906116f7565b61264f565b60075461264f90836116f7565b90506126f561245c671bc16d674ec800007f000000000000000000000000000000000000000000000000000000000000000073ffffffffffffffffffffffffffffffffffffffff1663ba2de9bc6040518163ffffffff1660e01b8152600401602060405180830381865afa1580156126cb573d6000803e3d6000fd5b505050506040513d601f19601f820116820180604052508101906126ef9190613f0e565b90613211565b156126fe575060005b83516040517f7ece075d00000000000000000000000000000000000000000000000000000000815260048101919091526000906127c0907f000000000000000000000000000000000000000000000000000000000000000073ffffffffffffffffffffffffffffffffffffffff1690637ece075d90602401606060405180830381865afa158015612793573d6000803e3d6000fd5b505050506040513d601f19601f820116820180604052508101906127b7919061408d565b60400151613226565b90506000612802671bc16d674ec800006127fc8481877f0000000000000000000000000000000000000000000000000000000000000000613211565b90612fde565b905061282e7f000000000000000000000000000000000000000000000000000000000000000082613231565b6128587f000000000000000000000000000000000000000000000000000000000000000082613231565b505050505050565b60405173ffffffffffffffffffffffffffffffffffffffff8316602482015260448101829052610a919084907fa9059cbb00000000000000000000000000000000000000000000000000000000906064015b604080517fffffffffffffffffffffffffffffffffffffffffffffffffffffffffffffffe08184030181529190526020810180517bffffffffffffffffffffffffffffffffffffffffffffffffffffffff167fffffffff0000000000000000000000000000000000000000000000000000000090931692909217909152613686565b60006129408383612355565b6001149392505050565b6040517f82df39de00000000000000000000000000000000000000000000000000000000815230600482015273ffffffffffffffffffffffffffffffffffffffff7f0000000000000000000000000000000000000000000000000000000000000000811660248301526000917f0000000000000000000000000000000000000000000000000000000000000000909116906382df39de90604401602060405180830381865afa158015612a01573d6000803e3d6000fd5b505050506040513d601f19601f82011682018060405250810190612a2591906140e9565b80612b0157506040517f82df39de00000000000000000000000000000000000000000000000000000000815230600482015273ffffffffffffffffffffffffffffffffffffffff7f0000000000000000000000000000000000000000000000000000000000000000811660248301527f000000000000000000000000000000000000000000000000000000000000000016906382df39de90604401602060405180830381865afa158015612add573d6000803e3d6000fd5b505050506040513d601f19601f82011682018060405250810190612b0191906140e9565b80612bb557506040517f58ca6f980000000000000000000000000000000000000000000000000000000081523060048201527f000000000000000000000000000000000000000000000000000000000000000073ffffffffffffffffffffffffffffffffffffffff16906358ca6f9890602401602060405180830381865afa158015612b91573d6000803e3d6000fd5b505050506040513d601f19601f82011682018060405250810190612bb591906140e9565b80612c6957506040517f58ca6f980000000000000000000000000000000000000000000000000000000081523060048201527f000000000000000000000000000000000000000000000000000000000000000073ffffffffffffffffffffffffffffffffffffffff16906358ca6f9890602401602060405180830381865afa158015612c45573d6000803e3d6000fd5b505050506040513d601f19601f82011682018060405250810190612c6991906140e9565b806105f057506040820151151580156105f057506020820151156105f0565b801580612d2857506040517fdd62ed3e00000000000000000000000000000000000000000000000000000000815230600482015273ffffffffffffffffffffffffffffffffffffffff838116602483015284169063dd62ed3e90604401602060405180830381865afa158015612d02573d6000803e3d6000fd5b505050506040513d601f19601f82011682018060405250810190612d269190613f0e565b155b612db4576040517f08c379a000000000000000000000000000000000000000000000000000000000815260206004820152603660248201527f5361666545524332303a20617070726f76652066726f6d206e6f6e2d7a65726f60448201527f20746f206e6f6e2d7a65726f20616c6c6f77616e63650000000000000000000060648201526084016107ec565b60405173ffffffffffffffffffffffffffffffffffffffff8316602482015260448101829052610a919084907f095ea7b300000000000000000000000000000000000000000000000000000000906064016128b2565b60405173ffffffffffffffffffffffffffffffffffffffff80851660248301528316604482015260648101829052610c039085907f23b872dd00000000000000000000000000000000000000000000000000000000906084016128b2565b6000817f7fffffffffffffffffffffffffffffffffffffffffffffffffffffffffffffff8111156105f0576040517ea07eb5000000000000000000000000000000000000000000000000000000008152600481018290526024016107ec565b6000670de0b6b3a7640000612edc8385614041565b610575919061410b565b60006105758284614173565b60006105758383613792565b6000610575828461419a565b600081818112156105f0576040517f501f289e000000000000000000000000000000000000000000000000000000008152600481018290526024016107ec565b6040517f70a0823100000000000000000000000000000000000000000000000000000000815273ffffffffffffffffffffffffffffffffffffffff8281166004830152600091908416906370a0823190602401602060405180830381865afa158015612fba573d6000803e3d6000fd5b505050506040513d601f19601f820116820180604052508101906105759190613f0e565b600081612ff3670de0b6b3a764000085613fe7565b610575919061402d565b6130078282611aa7565b156130e15773ffffffffffffffffffffffffffffffffffffffff7f00000000000000000000000000000000000000000000000000000000000000001663c3b35a7e308561305486866114ec565b6040517fffffffff0000000000000000000000000000000000000000000000000000000060e086901b16815273ffffffffffffffffffffffffffffffffffffffff93841660048201529290911660248301526044820152606401600060405180830381600087803b1580156130c857600080fd5b505af11580156130dc573d6000803e3d6000fd5b505050505b6130eb8282611703565b156131c55773ffffffffffffffffffffffffffffffffffffffff7f00000000000000000000000000000000000000000000000000000000000000001663f213159c308561313885876114ec565b6040517fffffffff0000000000000000000000000000000000000000000000000000000060e086901b16815273ffffffffffffffffffffffffffffffffffffffff93841660048201529290911660248301526044820152606401600060405180830381600087803b1580156131ac57600080fd5b505af11580156131c0573d6000803e3d6000fd5b505050505b6040805173ffffffffffffffffffffffffffffffffffffffff85168152602081018390527fdf43c689abc8d83e86b74634bbe0ba590e2ecb34f3f432a612c6edef3e532cbd910161090c565b6000670de0b6b3a7640000612ff38385613fe7565b60006105f0826137a1565b6040517f1e0c6fb900000000000000000000000000000000000000000000000000000000815230600482015260009061335a9073ffffffffffffffffffffffffffffffffffffffff851690631e0c6fb99060240160a060405180830381865afa1580156132a2573d6000803e3d6000fd5b505050506040513d601f19601f820116820180604052508101906132c691906141c2565b6040517fb7648fb900000000000000000000000000000000000000000000000000000000815230600482015273ffffffffffffffffffffffffffffffffffffffff86169063b7648fb9906024015b6040805180830381865afa158015613330573d6000803e3d6000fd5b505050506040513d601f19601f820116820180604052508101906133549190613f76565b906137b8565b600001519050600061347d8473ffffffffffffffffffffffffffffffffffffffff166359ea287d6040518163ffffffff1660e01b815260040160a060405180830381865afa1580156133b0573d6000803e3d6000fd5b505050506040513d601f19601f820116820180604052508101906133d491906141c2565b8573ffffffffffffffffffffffffffffffffffffffff16639a427d038773ffffffffffffffffffffffffffffffffffffffff1663c07f47d46040518163ffffffff1660e01b8152600401602060405180830381865afa15801561343b573d6000803e3d6000fd5b505050506040513d601f19601f8201168201806040525081019061345f9190613f0e565b6040518263ffffffff1660e01b815260040161331491815260200190565b60000151905060008473ffffffffffffffffffffffffffffffffffffffff1663193775676040518163ffffffff1660e01b8152600401602060405180830381865afa1580156134d0573d6000803e3d6000fd5b505050506040513d601f19601f820116820180604052508101906134f49190613f0e565b905060006135028284611aa7565b61350d576000613517565b61351782846114ec565b90506135238585611703565b1561359f5773ffffffffffffffffffffffffffffffffffffffff86166359218fe961354e86886114ec565b6040518263ffffffff1660e01b815260040161356c91815260200190565b600060405180830381600087803b15801561358657600080fd5b505af115801561359a573d6000803e3d6000fd5b505050505b6135a98585611aa7565b1561362f5773ffffffffffffffffffffffffffffffffffffffff861663d7d7d6b86135de836135d889896114ec565b906137e7565b6040518263ffffffff1660e01b81526004016135fc91815260200190565b600060405180830381600087803b15801561361657600080fd5b505af115801561362a573d6000803e3d6000fd5b505050505b6040805173ffffffffffffffffffffffffffffffffffffffff88168152602081018790527f814d2340073b1f05a68bb3f6aab82bfc4eea78f35f7c2332caddf0c35865331e910160405180910390a1505050505050565b60006136e8826040518060400160405280602081526020017f5361666545524332303a206c6f772d6c6576656c2063616c6c206661696c65648152508573ffffffffffffffffffffffffffffffffffffffff166137f39092919063ffffffff16565b805190915015610a91578080602001905181019061370691906140e9565b610a91576040517f08c379a000000000000000000000000000000000000000000000000000000000815260206004820152602a60248201527f5361666545524332303a204552433230206f7065726174696f6e20646964206e60448201527f6f7420737563636565640000000000000000000000000000000000000000000060648201526084016107ec565b6000818313611ce15781610575565b6000808212156137b457816000036105f0565b5090565b60408051808201909152600080825260208201526105756137dd848460200151613802565b8360400151613859565b60006105758383611cd2565b6060610ca384846000856138a7565b60408051808201909152600080825260208201526040805180820190915282518451829161383091906116f7565b8152602001613850846020015186602001516116f790919063ffffffff16565b90529392505050565b60408051808201909152600080825260208201526040805180820190915282518451829161388791906114ec565b8152602001613850846020015186602001516114ec90919063ffffffff16565b606082471015613939576040517f08c379a000000000000000000000000000000000000000000000000000000000815260206004820152602660248201527f416464726573733a20696e73756666696369656e742062616c616e636520666f60448201527f722063616c6c000000000000000000000000000000000000000000000000000060648201526084016107ec565b6000808673ffffffffffffffffffffffffffffffffffffffff1685876040516139629190614229565b60006040518083038185875af1925050503d806000811461399f576040519150601f19603f3d011682016040523d82523d6000602084013e6139a4565b606091505b5091509150610f728783838760608315613a46578251600003613a3f5773ffffffffffffffffffffffffffffffffffffffff85163b613a3f576040517f08c379a000000000000000000000000000000000000000000000000000000000815260206004820152601d60248201527f416464726573733a2063616c6c20746f206e6f6e2d636f6e747261637400000060448201526064016107ec565b5081610ca3565b610ca38383815115613a5b5781518083602001fd5b806040517f08c379a00000000000000000000000000000000000000000000000000000000081526004016107ec9190613ab3565b60005b83811015613aaa578181015183820152602001613a92565b50506000910152565b6020815260008251806020840152613ad2816040850160208701613a8f565b601f017fffffffffffffffffffffffffffffffffffffffffffffffffffffffffffffffe0169190910160400192915050565b600060208284031215613b1657600080fd5b5035919050565b803573ffffffffffffffffffffffffffffffffffffffff81168114613b4157600080fd5b919050565b60008060408385031215613b5957600080fd5b613b6283613b1d565b946020939093013593505050565b600060208284031215613b8257600080fd5b61057582613b1d565b600080600060608486031215613ba057600080fd5b613ba984613b1d565b9250613bb760208501613b1d565b9150604084013590509250925092565b7f4e487b7100000000000000000000000000000000000000000000000000000000600052604160045260246000fd5b600082601f830112613c0757600080fd5b813567ffffffffffffffff80821115613c2257613c22613bc7565b604051601f83017fffffffffffffffffffffffffffffffffffffffffffffffffffffffffffffffe0908116603f01168101908282118183101715613c6857613c68613bc7565b81604052838152866020858801011115613c8157600080fd5b836020870160208301376000602085830101528094505050505092915050565b60008060408385031215613cb457600080fd5b823567ffffffffffffffff80821115613ccc57600080fd5b613cd886838701613bf6565b93506020850135915080821115613cee57600080fd5b50613cfb85828601613bf6565b9150509250929050565b60008060408385031215613d1857600080fd5b82359150613d2860208401613b1d565b90509250929050565b60008060408385031215613d4457600080fd5b613d4d83613b1d565b9150613d2860208401613b1d565b600181811c90821680613d6f57607f821691505b602082108103613da8577f4e487b7100000000000000000000000000000000000000000000000000000000600052602260045260246000fd5b50919050565b601f821115610a9157600081815260208120601f850160051c81016020861015613dd55750805b601f850160051c820191505b8181101561285857828155600101613de1565b815167ffffffffffffffff811115613e0e57613e0e613bc7565b613e2281613e1c8454613d5b565b84613dae565b602080601f831160018114613e755760008415613e3f5750858301515b7fffffffffffffffffffffffffffffffffffffffffffffffffffffffffffffffff600386901b1c1916600185901b178555612858565b6000858152602081207fffffffffffffffffffffffffffffffffffffffffffffffffffffffffffffffe08616915b82811015613ec257888601518255948401946001909101908401613ea3565b5085821015613efe57878501517fffffffffffffffffffffffffffffffffffffffffffffffffffffffffffffffff600388901b60f8161c191681555b5050505050600190811b01905550565b600060208284031215613f2057600080fd5b5051919050565b600060408284031215613f3957600080fd5b6040516040810181811067ffffffffffffffff82111715613f5c57613f5c613bc7565b604052825181526020928301519281019290925250919050565b600060408284031215613f8857600080fd5b6105758383613f27565b7f4e487b7100000000000000000000000000000000000000000000000000000000600052601160045260246000fd5b818103818111156105f0576105f0613f92565b808201808211156105f0576105f0613f92565b80820281158282048414176105f0576105f0613f92565b7f4e487b7100000000000000000000000000000000000000000000000000000000600052601260045260246000fd5b60008261403c5761403c613ffe565b500490565b808202600082127f80000000000000000000000000000000000000000000000000000000000000008414161561407957614079613f92565b81810583148215176105f0576105f0613f92565b60006060828403121561409f57600080fd5b6040516060810181811067ffffffffffffffff821117156140c2576140c2613bc7565b80604052508251815260208301516020820152604083015160408201528091505092915050565b6000602082840312156140fb57600080fd5b8151801515811461057557600080fd5b60008261411a5761411a613ffe565b7fffffffffffffffffffffffffffffffffffffffffffffffffffffffffffffffff83147f80000000000000000000000000000000000000000000000000000000000000008314161561416e5761416e613f92565b500590565b818103600083128015838313168383128216171561419357614193613f92565b5092915050565b80820182811260008312801582168215821617156141ba576141ba613f92565b505092915050565b600060a082840312156141d457600080fd5b6040516060810181811067ffffffffffffffff821117156141f7576141f7613bc7565b6040528251815261420b8460208501613f27565b602082015261421d8460608501613f27565b60408201529392505050565b6000825161423b818460208701613a8f565b919091019291505056fea26469706673582212202e2fcb838eca2d3ddcd6c7499be1d8312ba01fac9794f5177c9715b10a51787964736f6c63430008110033",
  "devdoc": {
    "details": "Vault deploys and rebalances collateral between the corresponding long and short markets, while attempting to      maintain `targetLeverage` with its open positions at any given time. Deposits are only gated in so much as to cap      the maximum amount of assets in the vault.      The vault has a \"delayed mint\" mechanism for shares on deposit. After depositing to the vault, a user must wait      until the next settlement of the underlying products in order for shares to be reflected in the getters.      The shares will be fully reflected in contract state when the next settlement occurs on the vault itself.      Similarly, when redeeming shares, underlying assets are not claimable until a settlement occurs.      Each state changing interaction triggers the `settle` flywheel in order to bring the vault to the      desired state.      In the event that there is not a settlement for a long period of time, keepers can call the `sync` method to      force settlement and rebalancing. This is most useful to prevent vault liquidation due to PnL changes      causing the vault to be in an unhealthy state (far away from target leverage)",
    "kind": "dev",
    "methods": {
      "approve(address,uint256)": {
        "params": {
          "amount": "Amount of shares that spender can operate on",
          "spender": "Address which can spend operate on shares"
        },
        "returns": {
          "_0": "bool true if the approval was successful, otherwise reverts"
        }
      },
      "balanceOf(address)": {
        "params": {
          "account": "Account to query balance of"
        },
        "returns": {
          "_0": "Number of shares held by `account`"
        }
      },
      "claim(address)": {
        "params": {
          "account": "The account to claim for"
        }
      },
      "convertToAssets(uint256)": {
        "params": {
          "shares": "Number of shares to convert to assets"
        },
        "returns": {
          "_0": "Amount of assets for the given shares"
        }
      },
      "convertToShares(uint256)": {
        "params": {
          "assets": "Number of assets to convert to shares"
        },
        "returns": {
          "_0": "Amount of shares for the given assets"
        }
      },
      "decimals()": {
        "returns": {
          "_0": "Decimal places of the share share token"
        }
      },
      "deposit(uint256,address)": {
        "params": {
          "account": "The account to deposit on behalf of",
          "assets": "The amount of assets to deposit"
        }
      },
      "initialize(string,string)": {
        "params": {
          "name_": "ERC20 asset name",
          "symbol_": "ERC20 asset symbol"
        }
      },
      "maxDeposit(address)": {
        "details": "Only exact when vault is synced, otherwise approximate",
        "returns": {
          "_0": "Maximum available deposit amount"
        }
      },
      "maxRedeem(address)": {
        "details": "Only exact when vault is synced, otherwise approximate",
        "params": {
          "account": "The account to redeem for"
        },
        "returns": {
          "_0": "Maximum available redeemable amount"
        }
      },
      "redeem(uint256,address)": {
        "details": "Does not return any assets to the user due to delayed settlement. Use `claim` to claim assets      If account is not msg.sender, requires prior spending approval",
        "params": {
          "account": "The account to redeem on behalf of",
          "shares": "The amount of shares to redeem"
        }
      },
      "sync()": {
        "details": "Should be called by a keeper when the vault approaches a liquidation state on either side"
      },
      "totalAssets()": {
        "returns": {
          "_0": "Amount of assets held by the vault"
        }
      },
      "totalSupply()": {
        "returns": {
          "_0": "Amount of shares currently issued"
        }
      },
      "totalUnclaimed()": {
        "returns": {
          "_0": "Total unclaimed assets in vault"
        }
      },
      "transfer(address,uint256)": {
        "params": {
          "amount": "Amount of shares to send",
          "to": "Address to send shares to"
        },
        "returns": {
          "_0": "bool true if the transfer was successful, otherwise reverts"
        }
      },
      "transferFrom(address,address,uint256)": {
        "params": {
          "amount": "Amount of shares to send",
          "from": "Address to send shares from",
          "to": "Address to send shares to"
        },
        "returns": {
          "_0": "bool true if the transfer was successful, otherwise reverts"
        }
      },
      "unclaimed(address)": {
        "params": {
          "account": "Account to query unclaimed balance of"
        },
        "returns": {
          "_0": "`account`'s unclaimed assets"
        }
      }
    },
    "stateVariables": {
      "_balanceOf": {
        "details": "Mapping of shares of the vault per user"
      },
      "_deposit": {
        "details": "Deposits that have not been settled, or have been settled but not yet processed by this contract"
      },
      "_deposits": {
        "details": "Mapping of pending (not yet converted to shares) per user"
      },
      "_latestVersion": {
        "details": "The latest version that a pending deposit or redemption has been placed"
      },
      "_latestVersions": {
        "details": "Mapping of the latest version that a pending deposit or redemption has been placed per user"
      },
      "_redemption": {
        "details": "Redemptions that have not been settled, or have been settled but not yet processed by this contract"
      },
      "_redemptions": {
        "details": "Mapping of pending (not yet withdrawn) per user"
      },
      "_totalSupply": {
        "details": "Total number of shares across all users"
      },
      "_totalUnclaimed": {
        "details": "Mapping of unclaimed underlying of the vault per user"
      },
      "_unclaimed": {
        "details": "Mapping of unclaimed underlying of the vault per user"
      },
      "_versions": {
        "details": "Mapping of versions of the vault state at a given oracle version"
      },
      "allowance": {
        "details": "Mapping of allowance across all users"
      },
      "asset": {
        "details": "The underlying asset of the vault"
      },
      "collateral": {
        "details": "The address of the Perennial collateral contract"
      },
      "controller": {
        "details": "The address of the Perennial controller contract"
      },
      "long": {
        "details": "The address of the Perennial product on the long side"
      },
      "maxCollateral": {
        "details": "The collateral cap for the vault"
      },
      "name": {
        "details": "The ERC20 name of the vault"
      },
      "short": {
        "details": "The address of the Perennial product on the short side"
      },
      "symbol": {
        "details": "The ERC20 symbol of the vault"
      },
      "targetLeverage": {
        "details": "The target leverage amount for the vault"
      }
    },
    "title": "BalancedVault",
    "version": 1
  },
  "userdoc": {
    "kind": "user",
    "methods": {
      "approve(address,uint256)": {
        "notice": "Sets `amount` as the allowance of `spender` over the caller's shares"
      },
      "balanceOf(address)": {
        "notice": "Number of shares held by `account`"
      },
      "claim(address)": {
        "notice": "Claims all claimable assets for account, sending assets to account"
      },
      "convertToAssets(uint256)": {
        "notice": "Converts a given amount of shares to assets"
      },
      "convertToShares(uint256)": {
        "notice": "Converts a given amount of assets to shares"
      },
      "decimals()": {
        "notice": "Returns the decimals places of the share token"
      },
      "deposit(uint256,address)": {
        "notice": "Deposits `assets` assets into the vault, returning shares to `account` after the deposit settles."
      },
      "initialize(string,string)": {
        "notice": "Initializes the contract state"
      },
      "maxDeposit(address)": {
        "notice": "The maximum available deposit amount"
      },
      "maxRedeem(address)": {
        "notice": "The maximum available redeemable amount"
      },
      "redeem(uint256,address)": {
        "notice": "Redeems `shares` shares from the vault"
      },
      "sync()": {
        "notice": "Rebalances the collateral and position of the vault without a deposit or withdraw"
      },
      "totalAssets()": {
        "notice": "The total amount of assets currently held by the vault"
      },
      "totalSupply()": {
        "notice": "The total amount of shares currently issued"
      },
      "totalUnclaimed()": {
        "notice": "Total unclaimed assets in vault"
      },
      "transfer(address,uint256)": {
        "notice": "Moves `amount` shares from the caller's account to `to`"
      },
      "transferFrom(address,address,uint256)": {
        "notice": "Moves `amount` shares from `from to `to`"
      },
      "unclaimed(address)": {
        "notice": "`account`'s unclaimed assets"
      }
    },
    "notice": "ERC4626 vault that manages a 50-50 position between long-short markets of the same payoff on Perennial.",
    "version": 1
  },
  "storageLayout": {
    "storage": [
      {
        "astId": 9014,
        "contract": "contracts/BalancedVault.sol:BalancedVault",
        "label": "name",
        "offset": 0,
        "slot": "0",
        "type": "t_string_storage"
      },
      {
        "astId": 9017,
        "contract": "contracts/BalancedVault.sol:BalancedVault",
        "label": "symbol",
        "offset": 0,
        "slot": "1",
        "type": "t_string_storage"
      },
      {
        "astId": 9025,
        "contract": "contracts/BalancedVault.sol:BalancedVault",
        "label": "allowance",
        "offset": 0,
        "slot": "2",
        "type": "t_mapping(t_address,t_mapping(t_address,t_userDefinedValueType(UFixed18)4699))"
      },
      {
        "astId": 9031,
        "contract": "contracts/BalancedVault.sol:BalancedVault",
        "label": "_balanceOf",
        "offset": 0,
        "slot": "3",
        "type": "t_mapping(t_address,t_userDefinedValueType(UFixed18)4699)"
      },
      {
        "astId": 9035,
        "contract": "contracts/BalancedVault.sol:BalancedVault",
        "label": "_totalSupply",
        "offset": 0,
        "slot": "4",
        "type": "t_userDefinedValueType(UFixed18)4699"
      },
      {
        "astId": 9041,
        "contract": "contracts/BalancedVault.sol:BalancedVault",
        "label": "_unclaimed",
        "offset": 0,
        "slot": "5",
        "type": "t_mapping(t_address,t_userDefinedValueType(UFixed18)4699)"
      },
      {
        "astId": 9045,
        "contract": "contracts/BalancedVault.sol:BalancedVault",
        "label": "_totalUnclaimed",
        "offset": 0,
        "slot": "6",
        "type": "t_userDefinedValueType(UFixed18)4699"
      },
      {
        "astId": 9049,
        "contract": "contracts/BalancedVault.sol:BalancedVault",
        "label": "_deposit",
        "offset": 0,
        "slot": "7",
        "type": "t_userDefinedValueType(UFixed18)4699"
      },
      {
        "astId": 9053,
        "contract": "contracts/BalancedVault.sol:BalancedVault",
        "label": "_redemption",
        "offset": 0,
        "slot": "8",
        "type": "t_userDefinedValueType(UFixed18)4699"
      },
      {
        "astId": 9056,
        "contract": "contracts/BalancedVault.sol:BalancedVault",
        "label": "_latestVersion",
        "offset": 0,
        "slot": "9",
        "type": "t_uint256"
      },
      {
        "astId": 9062,
        "contract": "contracts/BalancedVault.sol:BalancedVault",
        "label": "_deposits",
        "offset": 0,
        "slot": "10",
        "type": "t_mapping(t_address,t_userDefinedValueType(UFixed18)4699)"
      },
      {
        "astId": 9068,
        "contract": "contracts/BalancedVault.sol:BalancedVault",
        "label": "_redemptions",
        "offset": 0,
        "slot": "11",
        "type": "t_mapping(t_address,t_userDefinedValueType(UFixed18)4699)"
      },
      {
        "astId": 9073,
        "contract": "contracts/BalancedVault.sol:BalancedVault",
        "label": "_latestVersions",
        "offset": 0,
        "slot": "12",
        "type": "t_mapping(t_address,t_uint256)"
      },
      {
        "astId": 9079,
        "contract": "contracts/BalancedVault.sol:BalancedVault",
        "label": "_versions",
        "offset": 0,
        "slot": "13",
        "type": "t_mapping(t_uint256,t_struct(Version)11157_storage)"
      }
    ],
    "types": {
      "t_address": {
        "encoding": "inplace",
        "label": "address",
        "numberOfBytes": "20"
      },
      "t_mapping(t_address,t_mapping(t_address,t_userDefinedValueType(UFixed18)4699))": {
        "encoding": "mapping",
        "key": "t_address",
        "label": "mapping(address => mapping(address => UFixed18))",
        "numberOfBytes": "32",
        "value": "t_mapping(t_address,t_userDefinedValueType(UFixed18)4699)"
      },
      "t_mapping(t_address,t_uint256)": {
        "encoding": "mapping",
        "key": "t_address",
        "label": "mapping(address => uint256)",
        "numberOfBytes": "32",
        "value": "t_uint256"
      },
      "t_mapping(t_address,t_userDefinedValueType(UFixed18)4699)": {
        "encoding": "mapping",
        "key": "t_address",
        "label": "mapping(address => UFixed18)",
        "numberOfBytes": "32",
        "value": "t_userDefinedValueType(UFixed18)4699"
      },
      "t_mapping(t_uint256,t_struct(Version)11157_storage)": {
        "encoding": "mapping",
        "key": "t_uint256",
        "label": "mapping(uint256 => struct IBalancedVault.Version)",
        "numberOfBytes": "32",
        "value": "t_struct(Version)11157_storage"
      },
      "t_string_storage": {
        "encoding": "bytes",
        "label": "string",
        "numberOfBytes": "32"
      },
      "t_struct(Version)11157_storage": {
        "encoding": "inplace",
        "label": "struct IBalancedVault.Version",
        "members": [
          {
            "astId": 11141,
            "contract": "contracts/BalancedVault.sol:BalancedVault",
            "label": "longPosition",
            "offset": 0,
            "slot": "0",
            "type": "t_userDefinedValueType(UFixed18)4699"
          },
          {
            "astId": 11144,
            "contract": "contracts/BalancedVault.sol:BalancedVault",
            "label": "shortPosition",
            "offset": 0,
            "slot": "1",
            "type": "t_userDefinedValueType(UFixed18)4699"
          },
          {
            "astId": 11147,
            "contract": "contracts/BalancedVault.sol:BalancedVault",
            "label": "totalShares",
            "offset": 0,
            "slot": "2",
            "type": "t_userDefinedValueType(UFixed18)4699"
          },
          {
            "astId": 11150,
            "contract": "contracts/BalancedVault.sol:BalancedVault",
            "label": "longAssets",
            "offset": 0,
            "slot": "3",
            "type": "t_userDefinedValueType(UFixed18)4699"
          },
          {
            "astId": 11153,
            "contract": "contracts/BalancedVault.sol:BalancedVault",
            "label": "shortAssets",
            "offset": 0,
            "slot": "4",
            "type": "t_userDefinedValueType(UFixed18)4699"
          },
          {
            "astId": 11156,
            "contract": "contracts/BalancedVault.sol:BalancedVault",
            "label": "totalAssets",
            "offset": 0,
            "slot": "5",
            "type": "t_userDefinedValueType(UFixed18)4699"
          }
        ],
        "numberOfBytes": "192"
      },
      "t_uint256": {
        "encoding": "inplace",
        "label": "uint256",
        "numberOfBytes": "32"
      },
      "t_userDefinedValueType(UFixed18)4699": {
        "encoding": "inplace",
        "label": "UFixed18",
        "numberOfBytes": "32"
      }
    }
  }
}