{
  "address": "0x736f79F5df3E33718a2ed2270976eD64320808e6",
  "abi": [
    {
      "inputs": [
        {
          "internalType": "contract IEmptySetReserve",
          "name": "reserve",
          "type": "address"
        },
        {
          "internalType": "Token18",
          "name": "dsu",
          "type": "address"
        },
        {
          "internalType": "Token6",
          "name": "usdc",
          "type": "address"
        }
      ],
      "stateMutability": "nonpayable",
      "type": "constructor"
    },
    {
      "inputs": [
        {
          "internalType": "UFixed18",
          "name": "oldBalance",
          "type": "uint256"
        },
        {
          "internalType": "UFixed18",
          "name": "newBalance",
          "type": "uint256"
        }
      ],
      "name": "BatcherBalanceMismatchError",
      "type": "error"
    },
    {
      "inputs": [],
      "name": "BatcherNotImplementedError",
      "type": "error"
    },
    {
      "inputs": [
        {
          "internalType": "uint256",
          "name": "version",
          "type": "uint256"
        }
      ],
      "name": "UInitializableAlreadyInitializedError",
      "type": "error"
    },
    {
      "inputs": [],
      "name": "UInitializableNotInitializingError",
      "type": "error"
    },
    {
      "inputs": [],
      "name": "UInitializableZeroVersionError",
      "type": "error"
    },
    {
      "inputs": [
        {
          "internalType": "address",
          "name": "sender",
          "type": "address"
        }
      ],
      "name": "UOwnableNotOwnerError",
      "type": "error"
    },
    {
      "inputs": [
        {
          "internalType": "address",
          "name": "sender",
          "type": "address"
        }
      ],
      "name": "UOwnableNotPendingOwnerError",
      "type": "error"
    },
    {
      "anonymous": false,
      "inputs": [
        {
          "indexed": false,
          "internalType": "UFixed18",
          "name": "amount",
          "type": "uint256"
        }
      ],
      "name": "Close",
      "type": "event"
    },
    {
      "anonymous": false,
      "inputs": [
        {
          "indexed": true,
          "internalType": "address",
          "name": "newOwner",
          "type": "address"
        }
      ],
      "name": "OwnerUpdated",
      "type": "event"
    },
    {
      "anonymous": false,
      "inputs": [
        {
          "indexed": true,
          "internalType": "address",
          "name": "newPendingOwner",
          "type": "address"
        }
      ],
      "name": "PendingOwnerUpdated",
      "type": "event"
    },
    {
      "anonymous": false,
      "inputs": [
        {
          "indexed": false,
          "internalType": "UFixed18",
          "name": "newMinted",
          "type": "uint256"
        },
        {
          "indexed": false,
          "internalType": "UFixed18",
          "name": "newRedeemed",
          "type": "uint256"
        }
      ],
      "name": "Rebalance",
      "type": "event"
    },
    {
      "anonymous": false,
      "inputs": [
        {
          "indexed": true,
          "internalType": "address",
          "name": "to",
          "type": "address"
        },
        {
          "indexed": false,
          "internalType": "UFixed18",
          "name": "amount",
          "type": "uint256"
        }
      ],
      "name": "Unwrap",
      "type": "event"
    },
    {
      "anonymous": false,
      "inputs": [
        {
          "indexed": true,
          "internalType": "address",
          "name": "to",
          "type": "address"
        },
        {
          "indexed": false,
          "internalType": "UFixed18",
          "name": "amount",
          "type": "uint256"
        }
      ],
      "name": "Wrap",
      "type": "event"
    },
    {
      "inputs": [],
      "name": "DSU",
      "outputs": [
        {
          "internalType": "Token18",
          "name": "",
          "type": "address"
        }
      ],
      "stateMutability": "view",
      "type": "function"
    },
    {
      "inputs": [],
      "name": "RESERVE",
      "outputs": [
        {
          "internalType": "contract IEmptySetReserve",
          "name": "",
          "type": "address"
        }
      ],
      "stateMutability": "view",
      "type": "function"
    },
    {
      "inputs": [],
      "name": "USDC",
      "outputs": [
        {
          "internalType": "Token6",
          "name": "",
          "type": "address"
        }
      ],
      "stateMutability": "view",
      "type": "function"
    },
    {
      "inputs": [],
      "name": "acceptOwner",
      "outputs": [],
      "stateMutability": "nonpayable",
      "type": "function"
    },
    {
      "inputs": [],
      "name": "close",
      "outputs": [],
      "stateMutability": "nonpayable",
      "type": "function"
    },
    {
      "inputs": [],
      "name": "owner",
      "outputs": [
        {
          "internalType": "address",
          "name": "",
          "type": "address"
        }
      ],
      "stateMutability": "view",
      "type": "function"
    },
    {
      "inputs": [],
      "name": "pendingOwner",
      "outputs": [
        {
          "internalType": "address",
          "name": "",
          "type": "address"
        }
      ],
      "stateMutability": "view",
      "type": "function"
    },
    {
      "inputs": [],
      "name": "rebalance",
      "outputs": [],
      "stateMutability": "nonpayable",
      "type": "function"
    },
    {
      "inputs": [],
      "name": "totalBalance",
      "outputs": [
        {
          "internalType": "UFixed18",
          "name": "",
          "type": "uint256"
        }
      ],
      "stateMutability": "view",
      "type": "function"
    },
    {
      "inputs": [
        {
          "internalType": "UFixed18",
          "name": "amount",
          "type": "uint256"
        },
        {
          "internalType": "address",
          "name": "to",
          "type": "address"
        }
      ],
      "name": "unwrap",
      "outputs": [],
      "stateMutability": "nonpayable",
      "type": "function"
    },
    {
      "inputs": [
        {
          "internalType": "address",
          "name": "newPendingOwner",
          "type": "address"
        }
      ],
      "name": "updatePendingOwner",
      "outputs": [],
      "stateMutability": "nonpayable",
      "type": "function"
    },
    {
      "inputs": [
        {
          "internalType": "UFixed18",
          "name": "amount",
          "type": "uint256"
        },
        {
          "internalType": "address",
          "name": "to",
          "type": "address"
        }
      ],
      "name": "wrap",
      "outputs": [],
      "stateMutability": "nonpayable",
      "type": "function"
    }
  ],
  "transactionHash": "0x2e919380113081f46a24a615f34c98ceab35e8c7c7ae258ad5c811bfbacf6397",
  "args": [
    "0xbdA59A4405AD32cF81887B54ef5e6D5cB2177d52",
    "0x237D7a40d3A28aA5dAAb786570d3d8bf8496e497",
    "0x07865c6E87B9F70255377e024ace6630C1Eaa37F"
  ],
  "solcInputHash": "d561138b63db29460b952b802bd67341",
  "bytecode": "0x60e06040523480156200001157600080fd5b5060405162002cc938038062002cc9833981810160405281019062000037919062000845565b8282828273ffffffffffffffffffffffffffffffffffffffff1660808173ffffffffffffffffffffffffffffffffffffffff16815250508173ffffffffffffffffffffffffffffffffffffffff1660a08173ffffffffffffffffffffffffffffffffffffffff16815250508073ffffffffffffffffffffffffffffffffffffffff1660c08173ffffffffffffffffffffffffffffffffffffffff16815250506200010a60805160a05173ffffffffffffffffffffffffffffffffffffffff166200015a60201b62000b081790919060201c565b6200013e60805160c05173ffffffffffffffffffffffffffffffffffffffff16620001b060201b62000b571790919060201c565b6200014e6200020660201b60201c565b50505050505062000d61565b620001ac817fffffffffffffffffffffffffffffffffffffffffffffffffffffffffffffffff8473ffffffffffffffffffffffffffffffffffffffff16620002a260201b62000ba6179092919060201c565b5050565b62000202817fffffffffffffffffffffffffffffffffffffffffffffffffffffffffffffffff8473ffffffffffffffffffffffffffffffffffffffff16620002a260201b62000ba6179092919060201c565b5050565b620002166200040460201b60201c565b158015620002575750620002557fad57d7911b7e3d6c3c79a68ba909a7f4ba41f9485e5207b12dee0d0c6af5398c6200042260201b62000cf51760201c565b155b156200028f576040517f689f12a400000000000000000000000000000000000000000000000000000000815260040160405180910390fd5b620002a0336200042d60201b60201c565b565b600081148062000332575060008373ffffffffffffffffffffffffffffffffffffffff1663dd62ed3e30856040518363ffffffff1660e01b8152600401620002ec929190620008b2565b602060405180830381865afa1580156200030a573d6000803e3d6000fd5b505050506040513d601f19601f820116820180604052508101906200033091906200091a565b145b62000374576040517f08c379a00000000000000000000000000000000000000000000000000000000081526004016200036b90620009d3565b60405180910390fd5b620003ff8363095ea7b360e01b84846040516024016200039692919062000a06565b604051602081830303815290604052907bffffffffffffffffffffffffffffffffffffffffffffffffffffffff19166020820180517bffffffffffffffffffffffffffffffffffffffffffffffffffffffff8381831617835250505050620004ad60201b60201c565b505050565b60006200041c306200058160201b62000d001760201c565b15905090565b600081549050919050565b62000467817fd520c4fc3bfc097da8746a8578e9e0417f5acfdd84a1de38ed670148cc1a349d620005a460201b62000d231790919060201c565b8073ffffffffffffffffffffffffffffffffffffffff167f4ffd725fc4a22075e9ec71c59edf9c38cdeb588a91b24fc5b61388c5be41282b60405160405180910390a250565b600062000516826040518060400160405280602081526020017f5361666545524332303a206c6f772d6c6576656c2063616c6c206661696c65648152508573ffffffffffffffffffffffffffffffffffffffff16620005ab60201b62000d2a179092919060201c565b90506000815111156200057c578080602001905181019062000539919062000a70565b6200057b576040517f08c379a0000000000000000000000000000000000000000000000000000000008152600401620005729062000b18565b60405180910390fd5b5b505050565b6000808273ffffffffffffffffffffffffffffffffffffffff163b119050919050565b8082555050565b6060620005c28484600085620005cb60201b60201c565b90509392505050565b60608247101562000613576040517f08c379a00000000000000000000000000000000000000000000000000000000081526004016200060a9062000bb0565b60405180910390fd5b62000624856200058160201b60201c565b62000666576040517f08c379a00000000000000000000000000000000000000000000000000000000081526004016200065d9062000c22565b60405180910390fd5b6000808673ffffffffffffffffffffffffffffffffffffffff16858760405162000691919062000cc7565b60006040518083038185875af1925050503d8060008114620006d0576040519150601f19603f3d011682016040523d82523d6000602084013e620006d5565b606091505b5091509150620006ed828286620006f960201b60201c565b92505050949350505050565b606083156200070b578290506200075e565b6000835111156200071f5782518084602001fd5b816040517f08c379a000000000000000000000000000000000000000000000000000000000815260040162000755919062000d3d565b60405180910390fd5b9392505050565b600080fd5b600073ffffffffffffffffffffffffffffffffffffffff82169050919050565b600062000797826200076a565b9050919050565b6000620007ab826200078a565b9050919050565b620007bd816200079e565b8114620007c957600080fd5b50565b600081519050620007dd81620007b2565b92915050565b620007ee816200078a565b8114620007fa57600080fd5b50565b6000815190506200080e81620007e3565b92915050565b6200081f816200078a565b81146200082b57600080fd5b50565b6000815190506200083f8162000814565b92915050565b60008060006060848603121562000861576200086062000765565b5b60006200087186828701620007cc565b93505060206200088486828701620007fd565b925050604062000897868287016200082e565b9150509250925092565b620008ac816200078a565b82525050565b6000604082019050620008c96000830185620008a1565b620008d86020830184620008a1565b9392505050565b6000819050919050565b620008f481620008df565b81146200090057600080fd5b50565b6000815190506200091481620008e9565b92915050565b60006020828403121562000933576200093262000765565b5b6000620009438482850162000903565b91505092915050565b600082825260208201905092915050565b7f5361666545524332303a20617070726f76652066726f6d206e6f6e2d7a65726f60008201527f20746f206e6f6e2d7a65726f20616c6c6f77616e636500000000000000000000602082015250565b6000620009bb6036836200094c565b9150620009c8826200095d565b604082019050919050565b60006020820190508181036000830152620009ee81620009ac565b9050919050565b62000a0081620008df565b82525050565b600060408201905062000a1d6000830185620008a1565b62000a2c6020830184620009f5565b9392505050565b60008115159050919050565b62000a4a8162000a33565b811462000a5657600080fd5b50565b60008151905062000a6a8162000a3f565b92915050565b60006020828403121562000a895762000a8862000765565b5b600062000a998482850162000a59565b91505092915050565b7f5361666545524332303a204552433230206f7065726174696f6e20646964206e60008201527f6f74207375636365656400000000000000000000000000000000000000000000602082015250565b600062000b00602a836200094c565b915062000b0d8262000aa2565b604082019050919050565b6000602082019050818103600083015262000b338162000af1565b9050919050565b7f416464726573733a20696e73756666696369656e742062616c616e636520666f60008201527f722063616c6c0000000000000000000000000000000000000000000000000000602082015250565b600062000b986026836200094c565b915062000ba58262000b3a565b604082019050919050565b6000602082019050818103600083015262000bcb8162000b89565b9050919050565b7f416464726573733a2063616c6c20746f206e6f6e2d636f6e7472616374000000600082015250565b600062000c0a601d836200094c565b915062000c178262000bd2565b602082019050919050565b6000602082019050818103600083015262000c3d8162000bfb565b9050919050565b600081519050919050565b600081905092915050565b60005b8381101562000c7a57808201518184015260208101905062000c5d565b8381111562000c8a576000848401525b50505050565b600062000c9d8262000c44565b62000ca9818562000c4f565b935062000cbb81856020860162000c5a565b80840191505092915050565b600062000cd5828462000c90565b915081905092915050565b600081519050919050565b6000601f19601f8301169050919050565b600062000d098262000ce0565b62000d1581856200094c565b935062000d2781856020860162000c5a565b62000d328162000ceb565b840191505092915050565b6000602082019050818103600083015262000d59818462000cfc565b905092915050565b60805160a05160c051611ec862000e01600039600081816102d901528181610668015281816106ed01528181610825015281816108c90152610d4b0152600081816103b501528181610582015281816106a70152818161072c0152818161089d015281816109080152610d97015260008181610324015281816103f8015281816104b10152818161054e015281816108790152610eac0152611ec86000f3fe608060405234801561001057600080fd5b50600436106100d45760003560e01c80639d2cc43611610081578063b5ee69551161005b578063b5ee6955146101bb578063e30c3978146101d7578063ebbc4965146101f5576100d4565b80639d2cc43614610161578063a2060bcf1461017f578063ad7a672f1461019d576100d4565b80637d7c2a1c116100b25780637d7c2a1c1461011b57806389a30271146101255780638da5cb5b14610143576100d4565b806313bac820146100d957806343d726d6146100f55780637647691d146100ff575b600080fd5b6100f360048036038101906100ee9190611606565b6101ff565b005b6100fd61025b565b005b61011960048036038101906101149190611606565b610604565b005b610123610660565b005b61012d610823565b60405161013a91906116a5565b60405180910390f35b61014b610847565b60405161015891906116cf565b60405180910390f35b610169610877565b604051610176919061170b565b60405180910390f35b61018761089b565b6040516101949190611735565b60405180910390f35b6101a56108bf565b6040516101b29190611781565b60405180910390f35b6101d560048036038101906101d0919061179c565b610955565b005b6101df610a45565b6040516101ec91906116cf565b60405180910390f35b6101fd610a75565b005b6102098282610d42565b8073ffffffffffffffffffffffffffffffffffffffff167fb61d00fdfee32467c7d81db64c811ae60c104c346debf36a14afe84b8fce59e58360405161024f9190611781565b60405180910390a25050565b3373ffffffffffffffffffffffffffffffffffffffff1661027a610847565b73ffffffffffffffffffffffffffffffffffffffff16146102d257336040517f9950d22a0000000000000000000000000000000000000000000000000000000081526004016102c991906116cf565b60405180910390fd5b60006103137f000000000000000000000000000000000000000000000000000000000000000073ffffffffffffffffffffffffffffffffffffffff16610ddf565b905061031e81610df2565b6103ae577f000000000000000000000000000000000000000000000000000000000000000073ffffffffffffffffffffffffffffffffffffffff1663a0712d68826040518263ffffffff1660e01b815260040161037b9190611781565b600060405180830381600087803b15801561039557600080fd5b505af11580156103a9573d6000803e3d6000fd5b505050505b60006103ef7f000000000000000000000000000000000000000000000000000000000000000073ffffffffffffffffffffffffffffffffffffffff16610dfe565b905060006104967f000000000000000000000000000000000000000000000000000000000000000073ffffffffffffffffffffffffffffffffffffffff16639b6c56ec306040518263ffffffff1660e01b815260040161044f91906116cf565b602060405180830381865afa15801561046c573d6000803e3d6000fd5b505050506040513d601f19601f8201168201806040525081019061049091906117de565b83610e11565b905060006104ad8284610e2590919063ffffffff16565b90507f000000000000000000000000000000000000000000000000000000000000000073ffffffffffffffffffffffffffffffffffffffff166322867d7830846040518363ffffffff1660e01b815260040161050a92919061180b565b600060405180830381600087803b15801561052457600080fd5b505af1158015610538573d6000803e3d6000fd5b5050505061054581610df2565b6105c7576105c67f00000000000000000000000000000000000000000000000000000000000000006105808486610e2590919063ffffffff16565b7f000000000000000000000000000000000000000000000000000000000000000073ffffffffffffffffffffffffffffffffffffffff16610e3b9092919063ffffffff16565b5b7fbf67515a38ee520223d32c1266d52101c30d936ed1f3e436c8caeb0a43cb06bf836040516105f69190611781565b60405180910390a150505050565b61060e8282610e6b565b8073ffffffffffffffffffffffffffffffffffffffff167f5dd085b6070b4cae004f84daafd199fd55b0bdfa11c3a802baffe89c2419d8c2836040516106549190611781565b60405180910390a25050565b6000806106a27f000000000000000000000000000000000000000000000000000000000000000073ffffffffffffffffffffffffffffffffffffffff16610ddf565b6106e17f000000000000000000000000000000000000000000000000000000000000000073ffffffffffffffffffffffffffffffffffffffff16610dfe565b9150915061076b6107277f000000000000000000000000000000000000000000000000000000000000000073ffffffffffffffffffffffffffffffffffffffff16610ddf565b6107667f000000000000000000000000000000000000000000000000000000000000000073ffffffffffffffffffffffffffffffffffffffff16610dfe565b610e9d565b6000806107818385610f3a90919063ffffffff16565b6107896108bf565b915091506107a08183610f5090919063ffffffff16565b6107e35781816040517fa4840ff90000000000000000000000000000000000000000000000000000000081526004016107da929190611834565b60405180910390fd5b7f0b33d39bbef101ecc4f5ef04e6d3a125c9fb745a418dac380e2a9460f8200dc8846000604051610815929190611834565b60405180910390a150505050565b7f000000000000000000000000000000000000000000000000000000000000000081565b60006108727fd520c4fc3bfc097da8746a8578e9e0417f5acfdd84a1de38ed670148cc1a349d610f67565b905090565b7f000000000000000000000000000000000000000000000000000000000000000081565b7f000000000000000000000000000000000000000000000000000000000000000081565b60006109506109037f000000000000000000000000000000000000000000000000000000000000000073ffffffffffffffffffffffffffffffffffffffff16610ddf565b6109427f000000000000000000000000000000000000000000000000000000000000000073ffffffffffffffffffffffffffffffffffffffff16610dfe565b610f3a90919063ffffffff16565b905090565b3373ffffffffffffffffffffffffffffffffffffffff16610974610847565b73ffffffffffffffffffffffffffffffffffffffff16146109cc57336040517f9950d22a0000000000000000000000000000000000000000000000000000000081526004016109c391906116cf565b60405180910390fd5b6109ff817faabf80d370e1f8b862122cc5c4b30b4a8eb2d6b5dda0d437726c353765e1ed32610d2390919063ffffffff16565b8073ffffffffffffffffffffffffffffffffffffffff167f69f201bc2089b9be6195d876d97a0136b4cf56bbf8986a52dcb50697f7d1cac560405160405180910390a250565b6000610a707faabf80d370e1f8b862122cc5c4b30b4a8eb2d6b5dda0d437726c353765e1ed32610f67565b905090565b610a7d610a45565b73ffffffffffffffffffffffffffffffffffffffff163373ffffffffffffffffffffffffffffffffffffffff1614610aec57336040517f14f8fce7000000000000000000000000000000000000000000000000000000008152600401610ae391906116cf565b60405180910390fd5b610afc610af7610a45565b610f72565b610b066000610955565b565b610b53817fffffffffffffffffffffffffffffffffffffffffffffffffffffffffffffffff8473ffffffffffffffffffffffffffffffffffffffff16610ba69092919063ffffffff16565b5050565b610ba2817fffffffffffffffffffffffffffffffffffffffffffffffffffffffffffffffff8473ffffffffffffffffffffffffffffffffffffffff16610ba69092919063ffffffff16565b5050565b6000811480610c30575060008373ffffffffffffffffffffffffffffffffffffffff1663dd62ed3e30856040518363ffffffff1660e01b8152600401610bed92919061185d565b602060405180830381865afa158015610c0a573d6000803e3d6000fd5b505050506040513d601f19601f82011682018060405250810190610c2e91906118b2565b145b610c6f576040517f08c379a0000000000000000000000000000000000000000000000000000000008152600401610c6690611962565b60405180910390fd5b610cf08363095ea7b360e01b8484604051602401610c8e929190611991565b604051602081830303815290604052907bffffffffffffffffffffffffffffffffffffffffffffffffffffffff19166020820180517bffffffffffffffffffffffffffffffffffffffffffffffffffffffff8381831617835250505050610feb565b505050565b600081549050919050565b6000808273ffffffffffffffffffffffffffffffffffffffff163b119050919050565b8082555050565b6060610d3984846000856110b2565b90509392505050565b610d90338360017f000000000000000000000000000000000000000000000000000000000000000073ffffffffffffffffffffffffffffffffffffffff166111c6909392919063ffffffff16565b610ddb81837f000000000000000000000000000000000000000000000000000000000000000073ffffffffffffffffffffffffffffffffffffffff16610e3b9092919063ffffffff16565b5050565b6000610deb8230611202565b9050919050565b60008082149050919050565b6000610e0a823061128e565b9050919050565b6000610e1d8383611312565b905092915050565b60008183610e3391906119e9565b905092915050565b610e6682828573ffffffffffffffffffffffffffffffffffffffff1661132b9092919063ffffffff16565b505050565b6040517f446be2a900000000000000000000000000000000000000000000000000000000815260040160405180910390fd5b610ea682610df2565b610f36577f000000000000000000000000000000000000000000000000000000000000000073ffffffffffffffffffffffffffffffffffffffff1663a0712d68836040518263ffffffff1660e01b8152600401610f039190611781565b600060405180830381600087803b158015610f1d57600080fd5b505af1158015610f31573d6000803e3d6000fd5b505050505b5050565b60008183610f489190611a1d565b905092915050565b60006001610f5e84846113b1565b14905092915050565b600081549050919050565b610fa5817fd520c4fc3bfc097da8746a8578e9e0417f5acfdd84a1de38ed670148cc1a349d610d2390919063ffffffff16565b8073ffffffffffffffffffffffffffffffffffffffff167f4ffd725fc4a22075e9ec71c59edf9c38cdeb588a91b24fc5b61388c5be41282b60405160405180910390a250565b600061104d826040518060400160405280602081526020017f5361666545524332303a206c6f772d6c6576656c2063616c6c206661696c65648152508573ffffffffffffffffffffffffffffffffffffffff16610d2a9092919063ffffffff16565b90506000815111156110ad578080602001905181019061106d9190611aab565b6110ac576040517f08c379a00000000000000000000000000000000000000000000000000000000081526004016110a390611b4a565b60405180910390fd5b5b505050565b6060824710156110f7576040517f08c379a00000000000000000000000000000000000000000000000000000000081526004016110ee90611bdc565b60405180910390fd5b61110085610d00565b61113f576040517f08c379a000000000000000000000000000000000000000000000000000000000815260040161113690611c48565b60405180910390fd5b6000808673ffffffffffffffffffffffffffffffffffffffff1685876040516111689190611ce2565b60006040518083038185875af1925050503d80600081146111a5576040519150601f19603f3d011682016040523d82523d6000602084013e6111aa565b606091505b50915091506111ba8282866113ef565b92505050949350505050565b6111fc83306111d58585611456565b8773ffffffffffffffffffffffffffffffffffffffff1661148b909392919063ffffffff16565b50505050565b60006112868373ffffffffffffffffffffffffffffffffffffffff166370a08231846040518263ffffffff1660e01b815260040161124091906116cf565b602060405180830381865afa15801561125d573d6000803e3d6000fd5b505050506040513d601f19601f8201168201806040525081019061128191906118b2565b611514565b905092915050565b60008273ffffffffffffffffffffffffffffffffffffffff166370a08231836040518263ffffffff1660e01b81526004016112c991906116cf565b602060405180830381865afa1580156112e6573d6000803e3d6000fd5b505050506040513d601f19601f8201168201806040525081019061130a91906118b2565b905092915050565b60008183106113215781611323565b825b905092915050565b6113ac8363a9059cbb60e01b848460405160240161134a929190611991565b604051602081830303815290604052907bffffffffffffffffffffffffffffffffffffffffffffffffffffffff19166020820180517bffffffffffffffffffffffffffffffffffffffffffffffffffffffff8381831617835250505050610feb565b505050565b6000806000848491509150808211156113cf576002925050506113e9565b808210156113e2576000925050506113e9565b6001925050505b92915050565b606083156113ff5782905061144f565b6000835111156114125782518084602001fd5b816040517f08c379a00000000000000000000000000000000000000000000000000000000081526004016114469190611d4e565b60405180910390fd5b9392505050565b6000816114735764e8d4a510008361146e9190611d9f565b611483565b6114828364e8d4a5100061152e565b5b905092915050565b61150e846323b872dd60e01b8585856040516024016114ac93929190611dd0565b604051602081830303815290604052907bffffffffffffffffffffffffffffffffffffffffffffffffffffffff19166020820180517bffffffffffffffffffffffffffffffffffffffffffffffffffffffff8381831617835250505050610feb565b50505050565b600064e8d4a51000826115279190611e07565b9050919050565b600080828461153d9190611e61565b1461154957600161154c565b60005b60ff16828461155b9190611d9f565b6115659190611a1d565b905092915050565b600080fd5b6000819050919050565b61158581611572565b811461159057600080fd5b50565b6000813590506115a28161157c565b92915050565b600073ffffffffffffffffffffffffffffffffffffffff82169050919050565b60006115d3826115a8565b9050919050565b6115e3816115c8565b81146115ee57600080fd5b50565b600081359050611600816115da565b92915050565b6000806040838503121561161d5761161c61156d565b5b600061162b85828601611593565b925050602061163c858286016115f1565b9150509250929050565b6000819050919050565b600061166b611666611661846115a8565b611646565b6115a8565b9050919050565b600061167d82611650565b9050919050565b600061168f82611672565b9050919050565b61169f81611684565b82525050565b60006020820190506116ba6000830184611696565b92915050565b6116c9816115c8565b82525050565b60006020820190506116e460008301846116c0565b92915050565b60006116f582611672565b9050919050565b611705816116ea565b82525050565b600060208201905061172060008301846116fc565b92915050565b61172f81611684565b82525050565b600060208201905061174a6000830184611726565b92915050565b600061176b61176661176184611572565b611646565b611572565b9050919050565b61177b81611750565b82525050565b60006020820190506117966000830184611772565b92915050565b6000602082840312156117b2576117b161156d565b5b60006117c0848285016115f1565b91505092915050565b6000815190506117d88161157c565b92915050565b6000602082840312156117f4576117f361156d565b5b6000611802848285016117c9565b91505092915050565b600060408201905061182060008301856116c0565b61182d6020830184611772565b9392505050565b60006040820190506118496000830185611772565b6118566020830184611772565b9392505050565b600060408201905061187260008301856116c0565b61187f60208301846116c0565b9392505050565b61188f81611572565b811461189a57600080fd5b50565b6000815190506118ac81611886565b92915050565b6000602082840312156118c8576118c761156d565b5b60006118d68482850161189d565b91505092915050565b600082825260208201905092915050565b7f5361666545524332303a20617070726f76652066726f6d206e6f6e2d7a65726f60008201527f20746f206e6f6e2d7a65726f20616c6c6f77616e636500000000000000000000602082015250565b600061194c6036836118df565b9150611957826118f0565b604082019050919050565b6000602082019050818103600083015261197b8161193f565b9050919050565b61198b81611572565b82525050565b60006040820190506119a660008301856116c0565b6119b36020830184611982565b9392505050565b7f4e487b7100000000000000000000000000000000000000000000000000000000600052601160045260246000fd5b60006119f482611572565b91506119ff83611572565b925082821015611a1257611a116119ba565b5b828203905092915050565b6000611a2882611572565b9150611a3383611572565b9250827fffffffffffffffffffffffffffffffffffffffffffffffffffffffffffffffff03821115611a6857611a676119ba565b5b828201905092915050565b60008115159050919050565b611a8881611a73565b8114611a9357600080fd5b50565b600081519050611aa581611a7f565b92915050565b600060208284031215611ac157611ac061156d565b5b6000611acf84828501611a96565b91505092915050565b7f5361666545524332303a204552433230206f7065726174696f6e20646964206e60008201527f6f74207375636365656400000000000000000000000000000000000000000000602082015250565b6000611b34602a836118df565b9150611b3f82611ad8565b604082019050919050565b60006020820190508181036000830152611b6381611b27565b9050919050565b7f416464726573733a20696e73756666696369656e742062616c616e636520666f60008201527f722063616c6c0000000000000000000000000000000000000000000000000000602082015250565b6000611bc66026836118df565b9150611bd182611b6a565b604082019050919050565b60006020820190508181036000830152611bf581611bb9565b9050919050565b7f416464726573733a2063616c6c20746f206e6f6e2d636f6e7472616374000000600082015250565b6000611c32601d836118df565b9150611c3d82611bfc565b602082019050919050565b60006020820190508181036000830152611c6181611c25565b9050919050565b600081519050919050565b600081905092915050565b60005b83811015611c9c578082015181840152602081019050611c81565b83811115611cab576000848401525b50505050565b6000611cbc82611c68565b611cc68185611c73565b9350611cd6818560208601611c7e565b80840191505092915050565b6000611cee8284611cb1565b915081905092915050565b600081519050919050565b6000601f19601f8301169050919050565b6000611d2082611cf9565b611d2a81856118df565b9350611d3a818560208601611c7e565b611d4381611d04565b840191505092915050565b60006020820190508181036000830152611d688184611d15565b905092915050565b7f4e487b7100000000000000000000000000000000000000000000000000000000600052601260045260246000fd5b6000611daa82611572565b9150611db583611572565b925082611dc557611dc4611d70565b5b828204905092915050565b6000606082019050611de560008301866116c0565b611df260208301856116c0565b611dff6040830184611982565b949350505050565b6000611e1282611572565b9150611e1d83611572565b9250817fffffffffffffffffffffffffffffffffffffffffffffffffffffffffffffffff0483118215151615611e5657611e556119ba565b5b828202905092915050565b6000611e6c82611572565b9150611e7783611572565b925082611e8757611e86611d70565b5b82820690509291505056fea2646970667358221220e02e9d1b6d8ff15b3bbfc1e5f8a429431751da509c6d1f4cb090e75f63a303ee64736f6c634300080d0033",
  "devdoc": {
    "kind": "dev",
    "methods": {
      "acceptOwner()": {
        "details": "Can only be called by the pending owner to ensure correctness"
      },
      "updatePendingOwner(address)": {
        "details": "Can only be called by the current owner      New owner does not take affect until that address calls `acceptOwner()`",
        "params": {
          "newPendingOwner": "New pending owner address"
        }
      }
    },
    "version": 1
  },
  "userdoc": {
    "kind": "user",
    "methods": {
      "acceptOwner()": {
        "notice": "Accepts and transfers the ownership of the contract to the pending owner"
      },
      "updatePendingOwner(address)": {
        "notice": "Updates the new pending owner"
      }
    },
    "version": 1
  },
  "storageLayout": {
    "storage": [],
    "types": null
  }
}