{
  "address": "0x237D7a40d3A28aA5dAAb786570d3d8bf8496e497",
  "abi": [
    {
      "inputs": [],
      "payable": false,
      "stateMutability": "nonpayable",
      "type": "constructor"
    },
    {
      "anonymous": false,
      "inputs": [
        {
          "indexed": true,
          "internalType": "address",
          "name": "owner",
          "type": "address"
        },
        {
          "indexed": true,
          "internalType": "address",
          "name": "spender",
          "type": "address"
        },
        {
          "indexed": false,
          "internalType": "uint256",
          "name": "value",
          "type": "uint256"
        }
      ],
      "name": "Approval",
      "type": "event"
    },
    {
      "anonymous": false,
      "inputs": [
        {
          "indexed": true,
          "internalType": "address",
          "name": "previousOwner",
          "type": "address"
        },
        {
          "indexed": true,
          "internalType": "address",
          "name": "newOwner",
          "type": "address"
        }
      ],
      "name": "OwnershipTransferred",
      "type": "event"
    },
    {
      "anonymous": false,
      "inputs": [
        {
          "indexed": true,
          "internalType": "address",
          "name": "from",
          "type": "address"
        },
        {
          "indexed": true,
          "internalType": "address",
          "name": "to",
          "type": "address"
        },
        {
          "indexed": false,
          "internalType": "uint256",
          "name": "value",
          "type": "uint256"
        }
      ],
      "name": "Transfer",
      "type": "event"
    },
    {
      "constant": true,
      "inputs": [],
      "name": "DOMAIN_SEPARATOR",
      "outputs": [
        {
          "internalType": "bytes32",
          "name": "",
          "type": "bytes32"
        }
      ],
      "payable": false,
      "stateMutability": "view",
      "type": "function"
    },
    {
      "constant": true,
      "inputs": [],
      "name": "PERMIT_TYPEHASH",
      "outputs": [
        {
          "internalType": "bytes32",
          "name": "",
          "type": "bytes32"
        }
      ],
      "payable": false,
      "stateMutability": "view",
      "type": "function"
    },
    {
      "constant": true,
      "inputs": [
        {
          "internalType": "address",
          "name": "owner",
          "type": "address"
        },
        {
          "internalType": "address",
          "name": "spender",
          "type": "address"
        }
      ],
      "name": "allowance",
      "outputs": [
        {
          "internalType": "uint256",
          "name": "",
          "type": "uint256"
        }
      ],
      "payable": false,
      "stateMutability": "view",
      "type": "function"
    },
    {
      "constant": false,
      "inputs": [
        {
          "internalType": "address",
          "name": "spender",
          "type": "address"
        },
        {
          "internalType": "uint256",
          "name": "amount",
          "type": "uint256"
        }
      ],
      "name": "approve",
      "outputs": [
        {
          "internalType": "bool",
          "name": "",
          "type": "bool"
        }
      ],
      "payable": false,
      "stateMutability": "nonpayable",
      "type": "function"
    },
    {
      "constant": true,
      "inputs": [
        {
          "internalType": "address",
          "name": "account",
          "type": "address"
        }
      ],
      "name": "balanceOf",
      "outputs": [
        {
          "internalType": "uint256",
          "name": "",
          "type": "uint256"
        }
      ],
      "payable": false,
      "stateMutability": "view",
      "type": "function"
    },
    {
      "constant": false,
      "inputs": [
        {
          "internalType": "uint256",
          "name": "amount",
          "type": "uint256"
        }
      ],
      "name": "burn",
      "outputs": [],
      "payable": false,
      "stateMutability": "nonpayable",
      "type": "function"
    },
    {
      "constant": true,
      "inputs": [],
      "name": "decimals",
      "outputs": [
        {
          "internalType": "uint8",
          "name": "",
          "type": "uint8"
        }
      ],
      "payable": false,
      "stateMutability": "view",
      "type": "function"
    },
    {
      "constant": false,
      "inputs": [
        {
          "internalType": "address",
          "name": "spender",
          "type": "address"
        },
        {
          "internalType": "uint256",
          "name": "subtractedValue",
          "type": "uint256"
        }
      ],
      "name": "decreaseAllowance",
      "outputs": [
        {
          "internalType": "bool",
          "name": "",
          "type": "bool"
        }
      ],
      "payable": false,
      "stateMutability": "nonpayable",
      "type": "function"
    },
    {
      "constant": false,
      "inputs": [
        {
          "internalType": "address",
          "name": "spender",
          "type": "address"
        },
        {
          "internalType": "uint256",
          "name": "addedValue",
          "type": "uint256"
        }
      ],
      "name": "increaseAllowance",
      "outputs": [
        {
          "internalType": "bool",
          "name": "",
          "type": "bool"
        }
      ],
      "payable": false,
      "stateMutability": "nonpayable",
      "type": "function"
    },
    {
      "constant": true,
      "inputs": [],
      "name": "isOwner",
      "outputs": [
        {
          "internalType": "bool",
          "name": "",
          "type": "bool"
        }
      ],
      "payable": false,
      "stateMutability": "view",
      "type": "function"
    },
    {
      "constant": false,
      "inputs": [
        {
          "internalType": "uint256",
          "name": "amount",
          "type": "uint256"
        }
      ],
      "name": "mint",
      "outputs": [],
      "payable": false,
      "stateMutability": "nonpayable",
      "type": "function"
    },
    {
      "constant": true,
      "inputs": [],
      "name": "name",
      "outputs": [
        {
          "internalType": "string",
          "name": "",
          "type": "string"
        }
      ],
      "payable": false,
      "stateMutability": "view",
      "type": "function"
    },
    {
      "constant": true,
      "inputs": [
        {
          "internalType": "address",
          "name": "",
          "type": "address"
        }
      ],
      "name": "nonces",
      "outputs": [
        {
          "internalType": "uint256",
          "name": "",
          "type": "uint256"
        }
      ],
      "payable": false,
      "stateMutability": "view",
      "type": "function"
    },
    {
      "constant": true,
      "inputs": [],
      "name": "owner",
      "outputs": [
        {
          "internalType": "address",
          "name": "",
          "type": "address"
        }
      ],
      "payable": false,
      "stateMutability": "view",
      "type": "function"
    },
    {
      "constant": false,
      "inputs": [
        {
          "internalType": "address",
          "name": "owner",
          "type": "address"
        },
        {
          "internalType": "address",
          "name": "spender",
          "type": "address"
        },
        {
          "internalType": "uint256",
          "name": "value",
          "type": "uint256"
        },
        {
          "internalType": "uint256",
          "name": "deadline",
          "type": "uint256"
        },
        {
          "internalType": "uint8",
          "name": "v",
          "type": "uint8"
        },
        {
          "internalType": "bytes32",
          "name": "r",
          "type": "bytes32"
        },
        {
          "internalType": "bytes32",
          "name": "s",
          "type": "bytes32"
        }
      ],
      "name": "permit",
      "outputs": [],
      "payable": false,
      "stateMutability": "nonpayable",
      "type": "function"
    },
    {
      "constant": false,
      "inputs": [],
      "name": "renounceOwnership",
      "outputs": [],
      "payable": false,
      "stateMutability": "nonpayable",
      "type": "function"
    },
    {
      "constant": true,
      "inputs": [],
      "name": "symbol",
      "outputs": [
        {
          "internalType": "string",
          "name": "",
          "type": "string"
        }
      ],
      "payable": false,
      "stateMutability": "view",
      "type": "function"
    },
    {
      "constant": true,
      "inputs": [],
      "name": "totalSupply",
      "outputs": [
        {
          "internalType": "uint256",
          "name": "",
          "type": "uint256"
        }
      ],
      "payable": false,
      "stateMutability": "view",
      "type": "function"
    },
    {
      "constant": false,
      "inputs": [
        {
          "internalType": "address",
          "name": "recipient",
          "type": "address"
        },
        {
          "internalType": "uint256",
          "name": "amount",
          "type": "uint256"
        }
      ],
      "name": "transfer",
      "outputs": [
        {
          "internalType": "bool",
          "name": "",
          "type": "bool"
        }
      ],
      "payable": false,
      "stateMutability": "nonpayable",
      "type": "function"
    },
    {
      "constant": false,
      "inputs": [
        {
          "internalType": "address",
          "name": "sender",
          "type": "address"
        },
        {
          "internalType": "address",
          "name": "recipient",
          "type": "address"
        },
        {
          "internalType": "uint256",
          "name": "amount",
          "type": "uint256"
        }
      ],
      "name": "transferFrom",
      "outputs": [
        {
          "internalType": "bool",
          "name": "",
          "type": "bool"
        }
      ],
      "payable": false,
      "stateMutability": "nonpayable",
      "type": "function"
    },
    {
      "constant": false,
      "inputs": [
        {
          "internalType": "address",
          "name": "newOwner",
          "type": "address"
        }
      ],
      "name": "transferOwnership",
      "outputs": [],
      "payable": false,
      "stateMutability": "nonpayable",
      "type": "function"
    }
  ],
  "transactionHash": "0x32661fc7c28f7d8820928599f2e2077ae77cfd9d85e360168d10ea5b7976c372",
  "args": [],
  "numDeployments": 1,
  "solcInputHash": "a023934da9c0c0cee1a067fd5ed652f6",
  "bytecode": "0x60806040523480156200001157600080fd5b506040518060400160405280601581526020017f4469676974616c205374616e6461726420556e697400000000000000000000008152506040518060400160405280600381526020017f44535500000000000000000000000000000000000000000000000000000000008152506012600062000092620001f860201b60201c565b9050806000806101000a81548173ffffffffffffffffffffffffffffffffffffffff021916908373ffffffffffffffffffffffffffffffffffffffff1602179055508073ffffffffffffffffffffffffffffffffffffffff16600073ffffffffffffffffffffffffffffffffffffffff167f8be0079c531659141344cd1fd0a4f28419497f9722a3daafe3b4186f6b6457e060405160405180910390a3508260019080519060200190620001489291906200031d565b508160029080519060200190620001619291906200031d565b5080600360006101000a81548160ff021916908360ff160217905550505050620001ec620001946200020060201b60201c565b6040518060400160405280600181526020017f3100000000000000000000000000000000000000000000000000000000000000815250620001da620002a660201b60201c565b30620002b360201b620021521760201c565b600781905550620003cc565b600033905090565b606060018054600181600116156101000203166002900480601f0160208091040260200160405190810160405280929190818152602001828054600181600116156101000203166002900480156200029c5780601f1062000270576101008083540402835291602001916200029c565b820191906000526020600020905b8154815290600101906020018083116200027e57829003601f168201915b5050505050905090565b6000804690508091505090565b6000807f8b73c3c69bb8fe3d512ecc4cf759cc79239f7b179b0ffacaa9a75d522b39400f60001b9050855160208701208551602087012060405183815282602082015281604082015286606082015285608082015260a08120945050505081915050949350505050565b828054600181600116156101000203166002900490600052602060002090601f016020900481019282601f106200036057805160ff191683800117855562000391565b8280016001018555821562000391579182015b828111156200039057825182559160200191906001019062000373565b5b509050620003a09190620003a4565b5090565b620003c991905b80821115620003c5576000816000905550600101620003ab565b5090565b90565b61229580620003dc6000396000f3fe608060405234801561001057600080fd5b50600436106101375760003560e01c8063715018a6116100b8578063a0712d681161007c578063a0712d6814610342578063a457c2d71461035e578063a9059cbb1461038e578063d505accf146103be578063dd62ed3e146103da578063f2fde38b1461040a57610137565b8063715018a6146102ae5780637ecebe00146102b85780638da5cb5b146102e85780638f32d59b1461030657806395d89b411461032457610137565b8063313ce567116100ff578063313ce567146101f65780633644e51514610214578063395093511461023257806342966c681461026257806370a082311461027e57610137565b806306fdde031461013c578063095ea7b31461015a57806318160ddd1461018a57806323b872dd146101a857806330adf81f146101d8575b600080fd5b610144610426565b6040516101519190611e7f565b60405180910390f35b610174600480360361016f91908101906118fb565b6104c8565b6040516101819190611da3565b60405180910390f35b6101926104e6565b60405161019f9190612001565b60405180910390f35b6101c260048036036101bd919081019061180e565b6104f0565b6040516101cf9190611da3565b60405180910390f35b6101e061058e565b6040516101ed9190611dbe565b60405180910390f35b6101fe6105b5565b60405161020b919061201c565b60405180910390f35b61021c6105cc565b6040516102299190611dbe565b60405180910390f35b61024c600480360361024791908101906118fb565b6105d2565b6040516102599190611da3565b60405180910390f35b61027c60048036036102779190810190611937565b610685565b005b610298600480360361029391908101906117a9565b6106e0565b6040516102a59190612001565b60405180910390f35b6102b6610729565b005b6102d260048036036102cd91908101906117a9565b61082f565b6040516102df9190612001565b60405180910390f35b6102f0610847565b6040516102fd9190611d88565b60405180910390f35b61030e610870565b60405161031b9190611da3565b60405180910390f35b61032c6108ce565b6040516103399190611e7f565b60405180910390f35b61035c60048036036103579190810190611937565b610970565b005b610378600480360361037391908101906118fb565b6109cb565b6040516103859190611da3565b60405180910390f35b6103a860048036036103a391908101906118fb565b610a98565b6040516103b59190611da3565b60405180910390f35b6103d860048036036103d3919081019061185d565b610ab6565b005b6103f460048036036103ef91908101906117d2565b610c80565b6040516104019190612001565b60405180910390f35b610424600480360361041f91908101906117a9565b610d07565b005b606060018054600181600116156101000203166002900480601f0160208091040260200160405190810160405280929190818152602001828054600181600116156101000203166002900480156104be5780601f10610493576101008083540402835291602001916104be565b820191906000526020600020905b8154815290600101906020018083116104a157829003601f168201915b5050505050905090565b60006104dc6104d5610d5a565b8484610d62565b6001905092915050565b6000600654905090565b60006104fd848484610f2d565b7fffffffffffffffffffffffffffffffffffffffffffffffffffffffffffffffff61052f8561052a610d5a565b610c80565b146105835761058284610540610d5a565b61057d856040518060600160405280602981526020016122056029913961056e8a610569610d5a565b610c80565b6111bb9092919063ffffffff16565b610d62565b5b600190509392505050565b7f6e71edae12b1b97f4d1f60370fef10105fa2faae0126114a169c64845d6126c960001b81565b6000600360009054906101000a900460ff16905090565b60075481565b600061067b6105df610d5a565b8461067685600560006105f0610d5a565b73ffffffffffffffffffffffffffffffffffffffff1673ffffffffffffffffffffffffffffffffffffffff16815260200190815260200160002060008973ffffffffffffffffffffffffffffffffffffffff1673ffffffffffffffffffffffffffffffffffffffff1681526020019081526020016000205461121690919063ffffffff16565b610d62565b6001905092915050565b61068d610870565b6106cc576040517f08c379a00000000000000000000000000000000000000000000000000000000081526004016106c390611f61565b60405180910390fd5b6106dd6106d7610847565b8261126b565b50565b6000600460008373ffffffffffffffffffffffffffffffffffffffff1673ffffffffffffffffffffffffffffffffffffffff168152602001908152602001600020549050919050565b610731610870565b610770576040517f08c379a000000000000000000000000000000000000000000000000000000000815260040161076790611f61565b60405180910390fd5b600073ffffffffffffffffffffffffffffffffffffffff166000809054906101000a900473ffffffffffffffffffffffffffffffffffffffff1673ffffffffffffffffffffffffffffffffffffffff167f8be0079c531659141344cd1fd0a4f28419497f9722a3daafe3b4186f6b6457e060405160405180910390a360008060006101000a81548173ffffffffffffffffffffffffffffffffffffffff021916908373ffffffffffffffffffffffffffffffffffffffff160217905550565b60086020528060005260406000206000915090505481565b60008060009054906101000a900473ffffffffffffffffffffffffffffffffffffffff16905090565b60008060009054906101000a900473ffffffffffffffffffffffffffffffffffffffff1673ffffffffffffffffffffffffffffffffffffffff166108b2610d5a565b73ffffffffffffffffffffffffffffffffffffffff1614905090565b606060028054600181600116156101000203166002900480601f0160208091040260200160405190810160405280929190818152602001828054600181600116156101000203166002900480156109665780601f1061093b57610100808354040283529160200191610966565b820191906000526020600020905b81548152906001019060200180831161094957829003601f168201915b5050505050905090565b610978610870565b6109b7576040517f08c379a00000000000000000000000000000000000000000000000000000000081526004016109ae90611f61565b60405180910390fd5b6109c86109c2610847565b8261140f565b50565b6000610a8e6109d8610d5a565b84610a898560405180606001604052806025815260200161222e6025913960056000610a02610d5a565b73ffffffffffffffffffffffffffffffffffffffff1673ffffffffffffffffffffffffffffffffffffffff16815260200190815260200160002060008a73ffffffffffffffffffffffffffffffffffffffff1673ffffffffffffffffffffffffffffffffffffffff168152602001908152602001600020546111bb9092919063ffffffff16565b610d62565b6001905092915050565b6000610aac610aa5610d5a565b8484610f2d565b6001905092915050565b6000610b646007547f6e71edae12b1b97f4d1f60370fef10105fa2faae0126114a169c64845d6126c960001b8a8a8a600860008f73ffffffffffffffffffffffffffffffffffffffff1673ffffffffffffffffffffffffffffffffffffffff1681526020019081526020016000206000815480929190600101919050558b604051602001610b4996959493929190611dd9565b60405160208183030381529060405280519060200120611599565b9050600060018286868660405160008152602001604052604051610b8b9493929190611e3a565b6020604051602081039080840390855afa158015610bad573d6000803e3d6000fd5b5050506020604051035190508873ffffffffffffffffffffffffffffffffffffffff168173ffffffffffffffffffffffffffffffffffffffff1614610c27576040517f08c379a0000000000000000000000000000000000000000000000000000000008152600401610c1e90611ec1565b60405180910390fd5b85421115610c6a576040517f08c379a0000000000000000000000000000000000000000000000000000000008152600401610c6190611f41565b60405180910390fd5b610c75898989610d62565b505050505050505050565b6000600560008473ffffffffffffffffffffffffffffffffffffffff1673ffffffffffffffffffffffffffffffffffffffff16815260200190815260200160002060008373ffffffffffffffffffffffffffffffffffffffff1673ffffffffffffffffffffffffffffffffffffffff16815260200190815260200160002054905092915050565b610d0f610870565b610d4e576040517f08c379a0000000000000000000000000000000000000000000000000000000008152600401610d4590611f61565b60405180910390fd5b610d57816115dd565b50565b600033905090565b600073ffffffffffffffffffffffffffffffffffffffff168373ffffffffffffffffffffffffffffffffffffffff161415610dd2576040517f08c379a0000000000000000000000000000000000000000000000000000000008152600401610dc990611fc1565b60405180910390fd5b600073ffffffffffffffffffffffffffffffffffffffff168273ffffffffffffffffffffffffffffffffffffffff161415610e42576040517f08c379a0000000000000000000000000000000000000000000000000000000008152600401610e3990611f01565b60405180910390fd5b80600560008573ffffffffffffffffffffffffffffffffffffffff1673ffffffffffffffffffffffffffffffffffffffff16815260200190815260200160002060008473ffffffffffffffffffffffffffffffffffffffff1673ffffffffffffffffffffffffffffffffffffffff168152602001908152602001600020819055508173ffffffffffffffffffffffffffffffffffffffff168373ffffffffffffffffffffffffffffffffffffffff167f8c5be1e5ebec7d5bd14f71427d1e84f3dd0314c0f7b2291e5b200ac8c7c3b92583604051610f209190612001565b60405180910390a3505050565b600073ffffffffffffffffffffffffffffffffffffffff168373ffffffffffffffffffffffffffffffffffffffff161415610f9d576040517f08c379a0000000000000000000000000000000000000000000000000000000008152600401610f9490611fa1565b60405180910390fd5b600073ffffffffffffffffffffffffffffffffffffffff168273ffffffffffffffffffffffffffffffffffffffff16141561100d576040517f08c379a000000000000000000000000000000000000000000000000000000000815260040161100490611ea1565b60405180910390fd5b611079816040518060600160405280602681526020016121df60269139600460008773ffffffffffffffffffffffffffffffffffffffff1673ffffffffffffffffffffffffffffffffffffffff168152602001908152602001600020546111bb9092919063ffffffff16565b600460008573ffffffffffffffffffffffffffffffffffffffff1673ffffffffffffffffffffffffffffffffffffffff1681526020019081526020016000208190555061110e81600460008573ffffffffffffffffffffffffffffffffffffffff1673ffffffffffffffffffffffffffffffffffffffff1681526020019081526020016000205461121690919063ffffffff16565b600460008473ffffffffffffffffffffffffffffffffffffffff1673ffffffffffffffffffffffffffffffffffffffff168152602001908152602001600020819055508173ffffffffffffffffffffffffffffffffffffffff168373ffffffffffffffffffffffffffffffffffffffff167fddf252ad1be2c89b69c2b068fc378daa952ba7f163c4a11628f55a4df523b3ef836040516111ae9190612001565b60405180910390a3505050565b6000838311158290611203576040517f08c379a00000000000000000000000000000000000000000000000000000000081526004016111fa9190611e7f565b60405180910390fd5b5060008385039050809150509392505050565b600080828401905083811015611261576040517f08c379a000000000000000000000000000000000000000000000000000000000815260040161125890611f21565b60405180910390fd5b8091505092915050565b600073ffffffffffffffffffffffffffffffffffffffff168273ffffffffffffffffffffffffffffffffffffffff1614156112db576040517f08c379a00000000000000000000000000000000000000000000000000000000081526004016112d290611f81565b60405180910390fd5b611347816040518060600160405280602281526020016121bd60229139600460008673ffffffffffffffffffffffffffffffffffffffff1673ffffffffffffffffffffffffffffffffffffffff168152602001908152602001600020546111bb9092919063ffffffff16565b600460008473ffffffffffffffffffffffffffffffffffffffff1673ffffffffffffffffffffffffffffffffffffffff1681526020019081526020016000208190555061139f8160065461170b90919063ffffffff16565b600681905550600073ffffffffffffffffffffffffffffffffffffffff168273ffffffffffffffffffffffffffffffffffffffff167fddf252ad1be2c89b69c2b068fc378daa952ba7f163c4a11628f55a4df523b3ef836040516114039190612001565b60405180910390a35050565b600073ffffffffffffffffffffffffffffffffffffffff168273ffffffffffffffffffffffffffffffffffffffff16141561147f576040517f08c379a000000000000000000000000000000000000000000000000000000000815260040161147690611fe1565b60405180910390fd5b6114948160065461121690919063ffffffff16565b6006819055506114ec81600460008573ffffffffffffffffffffffffffffffffffffffff1673ffffffffffffffffffffffffffffffffffffffff1681526020019081526020016000205461121690919063ffffffff16565b600460008473ffffffffffffffffffffffffffffffffffffffff1673ffffffffffffffffffffffffffffffffffffffff168152602001908152602001600020819055508173ffffffffffffffffffffffffffffffffffffffff16600073ffffffffffffffffffffffffffffffffffffffff167fddf252ad1be2c89b69c2b068fc378daa952ba7f163c4a11628f55a4df523b3ef8360405161158d9190612001565b60405180910390a35050565b60006040517f190100000000000000000000000000000000000000000000000000000000000081528360028201528260228201526042812091505080905092915050565b600073ffffffffffffffffffffffffffffffffffffffff168173ffffffffffffffffffffffffffffffffffffffff16141561164d576040517f08c379a000000000000000000000000000000000000000000000000000000000815260040161164490611ee1565b60405180910390fd5b8073ffffffffffffffffffffffffffffffffffffffff166000809054906101000a900473ffffffffffffffffffffffffffffffffffffffff1673ffffffffffffffffffffffffffffffffffffffff167f8be0079c531659141344cd1fd0a4f28419497f9722a3daafe3b4186f6b6457e060405160405180910390a3806000806101000a81548173ffffffffffffffffffffffffffffffffffffffff021916908373ffffffffffffffffffffffffffffffffffffffff16021790555050565b600061174d83836040518060400160405280601e81526020017f536166654d6174683a207375627472616374696f6e206f766572666c6f7700008152506111bb565b905092915050565b600081359050611764816120f6565b92915050565b6000813590506117798161210d565b92915050565b60008135905061178e81612124565b92915050565b6000813590506117a38161213b565b92915050565b6000602082840312156117bb57600080fd5b60006117c984828501611755565b91505092915050565b600080604083850312156117e557600080fd5b60006117f385828601611755565b925050602061180485828601611755565b9150509250929050565b60008060006060848603121561182357600080fd5b600061183186828701611755565b935050602061184286828701611755565b92505060406118538682870161177f565b9150509250925092565b600080600080600080600060e0888a03121561187857600080fd5b60006118868a828b01611755565b97505060206118978a828b01611755565b96505060406118a88a828b0161177f565b95505060606118b98a828b0161177f565b94505060806118ca8a828b01611794565b93505060a06118db8a828b0161176a565b92505060c06118ec8a828b0161176a565b91505092959891949750929550565b6000806040838503121561190e57600080fd5b600061191c85828601611755565b925050602061192d8582860161177f565b9150509250929050565b60006020828403121561194957600080fd5b60006119578482850161177f565b91505092915050565b61196981612053565b82525050565b61197881612065565b82525050565b61198781612071565b82525050565b600061199882612037565b6119a28185612042565b93506119b28185602086016120b2565b6119bb816120e5565b840191505092915050565b60006119d3602383612042565b91507f45524332303a207472616e7366657220746f20746865207a65726f206164647260008301527f65737300000000000000000000000000000000000000000000000000000000006020830152604082019050919050565b6000611a39601e83612042565b91507f5065726d69747461626c653a20496e76616c6964207369676e617475726500006000830152602082019050919050565b6000611a79602683612042565b91507f4f776e61626c653a206e6577206f776e657220697320746865207a65726f206160008301527f64647265737300000000000000000000000000000000000000000000000000006020830152604082019050919050565b6000611adf602283612042565b91507f45524332303a20617070726f766520746f20746865207a65726f20616464726560008301527f73730000000000000000000000000000000000000000000000000000000000006020830152604082019050919050565b6000611b45601b83612042565b91507f536166654d6174683a206164646974696f6e206f766572666c6f7700000000006000830152602082019050919050565b6000611b85601483612042565b91507f5065726d69747461626c653a20457870697265640000000000000000000000006000830152602082019050919050565b6000611bc5602083612042565b91507f4f776e61626c653a2063616c6c6572206973206e6f7420746865206f776e65726000830152602082019050919050565b6000611c05602183612042565b91507f45524332303a206275726e2066726f6d20746865207a65726f2061646472657360008301527f73000000000000000000000000000000000000000000000000000000000000006020830152604082019050919050565b6000611c6b602583612042565b91507f45524332303a207472616e736665722066726f6d20746865207a65726f20616460008301527f64726573730000000000000000000000000000000000000000000000000000006020830152604082019050919050565b6000611cd1602483612042565b91507f45524332303a20617070726f76652066726f6d20746865207a65726f2061646460008301527f72657373000000000000000000000000000000000000000000000000000000006020830152604082019050919050565b6000611d37601f83612042565b91507f45524332303a206d696e7420746f20746865207a65726f2061646472657373006000830152602082019050919050565b611d738161209b565b82525050565b611d82816120a5565b82525050565b6000602082019050611d9d6000830184611960565b92915050565b6000602082019050611db8600083018461196f565b92915050565b6000602082019050611dd3600083018461197e565b92915050565b600060c082019050611dee600083018961197e565b611dfb6020830188611960565b611e086040830187611960565b611e156060830186611d6a565b611e226080830185611d6a565b611e2f60a0830184611d6a565b979650505050505050565b6000608082019050611e4f600083018761197e565b611e5c6020830186611d79565b611e69604083018561197e565b611e76606083018461197e565b95945050505050565b60006020820190508181036000830152611e99818461198d565b905092915050565b60006020820190508181036000830152611eba816119c6565b9050919050565b60006020820190508181036000830152611eda81611a2c565b9050919050565b60006020820190508181036000830152611efa81611a6c565b9050919050565b60006020820190508181036000830152611f1a81611ad2565b9050919050565b60006020820190508181036000830152611f3a81611b38565b9050919050565b60006020820190508181036000830152611f5a81611b78565b9050919050565b60006020820190508181036000830152611f7a81611bb8565b9050919050565b60006020820190508181036000830152611f9a81611bf8565b9050919050565b60006020820190508181036000830152611fba81611c5e565b9050919050565b60006020820190508181036000830152611fda81611cc4565b9050919050565b60006020820190508181036000830152611ffa81611d2a565b9050919050565b60006020820190506120166000830184611d6a565b92915050565b60006020820190506120316000830184611d79565b92915050565b600081519050919050565b600082825260208201905092915050565b600061205e8261207b565b9050919050565b60008115159050919050565b6000819050919050565b600073ffffffffffffffffffffffffffffffffffffffff82169050919050565b6000819050919050565b600060ff82169050919050565b60005b838110156120d05780820151818401526020810190506120b5565b838111156120df576000848401525b50505050565b6000601f19601f8301169050919050565b6120ff81612053565b811461210a57600080fd5b50565b61211681612071565b811461212157600080fd5b50565b61212d8161209b565b811461213857600080fd5b50565b612144816120a5565b811461214f57600080fd5b50565b6000807f8b73c3c69bb8fe3d512ecc4cf759cc79239f7b179b0ffacaa9a75d522b39400f60001b9050855160208701208551602087012060405183815282602082015281604082015286606082015285608082015260a0812094505050508191505094935050505056fe45524332303a206275726e20616d6f756e7420657863656564732062616c616e636545524332303a207472616e7366657220616d6f756e7420657863656564732062616c616e6365446f6c6c61723a207472616e7366657220616d6f756e74206578636565647320616c6c6f77616e636545524332303a2064656372656173656420616c6c6f77616e63652062656c6f77207a65726fa365627a7a723158201e228d9ba5008f377f4c322db758ebe0f0fc6de910a387163a99dc386cb992fe6c6578706572696d656e74616cf564736f6c63430005110040",
  "devdoc": {
    "details": "Owned by the reserve, which is solely allowed to mint ESD to itself and to burn its held ESD",
    "methods": {
      "allowance(address,address)": {
        "details": "See {IERC20-allowance}."
      },
      "approve(address,uint256)": {
        "details": "See {IERC20-approve}.     * Requirements:     * - `spender` cannot be the zero address."
      },
      "balanceOf(address)": {
        "details": "See {IERC20-balanceOf}."
      },
      "burn(uint256)": {
        "details": "Owner only",
        "params": {
          "amount": "Amount of ESD to burn"
        }
      },
      "decimals()": {
        "details": "Returns the number of decimals used to get its user representation. For example, if `decimals` equals `2`, a balance of `505` tokens should be displayed to a user as `5,05` (`505 / 10 ** 2`).     * Tokens usually opt for a value of 18, imitating the relationship between Ether and Wei.     * NOTE: This information is only used for _display_ purposes: it in no way affects any of the arithmetic of the contract, including {IERC20-balanceOf} and {IERC20-transfer}."
      },
      "decreaseAllowance(address,uint256)": {
        "details": "Atomically decreases the allowance granted to `spender` by the caller.     * This is an alternative to {approve} that can be used as a mitigation for problems described in {IERC20-approve}.     * Emits an {Approval} event indicating the updated allowance.     * Requirements:     * - `spender` cannot be the zero address. - `spender` must have allowance for the caller of at least `subtractedValue`."
      },
      "increaseAllowance(address,uint256)": {
        "details": "Atomically increases the allowance granted to `spender` by the caller.     * This is an alternative to {approve} that can be used as a mitigation for problems described in {IERC20-approve}.     * Emits an {Approval} event indicating the updated allowance.     * Requirements:     * - `spender` cannot be the zero address."
      },
      "isOwner()": {
        "details": "Returns true if the caller is the current owner."
      },
      "mint(uint256)": {
        "details": "Owner only",
        "params": {
          "amount": "Amount of ESD to mint"
        }
      },
      "name()": {
        "details": "Returns the name of the token."
      },
      "owner()": {
        "details": "Returns the address of the current owner."
      },
      "permit(address,address,uint256,uint256,uint8,bytes32,bytes32)": {
        "details": "Will revert if:      (1) The permit's nonce is different than expected      (2) The deadline has passed      (3) The permit signature is invalid",
        "params": {
          "deadline": "Timestamp that the permit is valid until",
          "owner": "Owner that is allowing approval",
          "r": "R parameter of the permit signature",
          "s": "S parameter of the permit signature",
          "spender": "Spender to approve for `owner`",
          "v": "V parameter of the permit signature",
          "value": "Amount to approve"
        }
      },
      "renounceOwnership()": {
        "details": "Leaves the contract without owner. It will not be possible to call `onlyOwner` functions anymore. Can only be called by the current owner.     * NOTE: Renouncing ownership will leave the contract without an owner, thereby removing any functionality that is only available to the owner."
      },
      "symbol()": {
        "details": "Returns the symbol of the token, usually a shorter version of the name."
      },
      "totalSupply()": {
        "details": "See {IERC20-totalSupply}."
      },
      "transfer(address,uint256)": {
        "details": "See {IERC20-transfer}.     * Requirements:     * - `recipient` cannot be the zero address. - the caller must have a balance of at least `amount`."
      },
      "transferFrom(address,address,uint256)": {
        "details": "Extended to support infinite approval",
        "params": {
          "amount": "Amount of ESD to transfer",
          "sender": "Account to receive the sent ESD"
        }
      },
      "transferOwnership(address)": {
        "details": "Transfers ownership of the contract to a new account (`newOwner`). Can only be called by the current owner."
      }
    },
    "title": "Dollar"
  },
  "userdoc": {
    "methods": {
      "burn(uint256)": {
        "notice": "Burns `amount` ESD tokens from the {owner}"
      },
      "constructor": "Constructs the Dollar contract",
      "mint(uint256)": {
        "notice": "Mints `amount` ESD tokens to the {owner}"
      },
      "permit(address,address,uint256,uint256,uint8,bytes32,bytes32)": {
        "notice": "Update the allowance of `spender` for `owner` to `value` based on a signed EIP712 message"
      },
      "transferFrom(address,address,uint256)": {
        "notice": "Transfer `amount` ESD from the `sender` to the `recipient`"
      }
    },
    "notice": "ESD stablecoin ERC20 token"
  },
  "storageLayout": {
    "storage": [
      {
        "astId": 496,
        "contract": "contracts/emptyset/token/Dollar.sol:Dollar",
        "label": "_owner",
        "offset": 0,
        "slot": "0",
        "type": "t_address"
      },
      {
        "astId": 1019,
        "contract": "contracts/emptyset/token/Dollar.sol:Dollar",
        "label": "_name",
        "offset": 0,
        "slot": "1",
        "type": "t_string_storage"
      },
      {
        "astId": 1021,
        "contract": "contracts/emptyset/token/Dollar.sol:Dollar",
        "label": "_symbol",
        "offset": 0,
        "slot": "2",
        "type": "t_string_storage"
      },
      {
        "astId": 1023,
        "contract": "contracts/emptyset/token/Dollar.sol:Dollar",
        "label": "_decimals",
        "offset": 0,
        "slot": "3",
        "type": "t_uint8"
      },
      {
        "astId": 623,
        "contract": "contracts/emptyset/token/Dollar.sol:Dollar",
        "label": "_balances",
        "offset": 0,
        "slot": "4",
        "type": "t_mapping(t_address,t_uint256)"
      },
      {
        "astId": 629,
        "contract": "contracts/emptyset/token/Dollar.sol:Dollar",
        "label": "_allowances",
        "offset": 0,
        "slot": "5",
        "type": "t_mapping(t_address,t_mapping(t_address,t_uint256))"
      },
      {
        "astId": 631,
        "contract": "contracts/emptyset/token/Dollar.sol:Dollar",
        "label": "_totalSupply",
        "offset": 0,
        "slot": "6",
        "type": "t_uint256"
      },
      {
        "astId": 9713,
        "contract": "contracts/emptyset/token/Dollar.sol:Dollar",
        "label": "DOMAIN_SEPARATOR",
        "offset": 0,
        "slot": "7",
        "type": "t_bytes32"
      },
      {
        "astId": 9717,
        "contract": "contracts/emptyset/token/Dollar.sol:Dollar",
        "label": "nonces",
        "offset": 0,
        "slot": "8",
        "type": "t_mapping(t_address,t_uint256)"
      }
    ],
    "types": {
      "t_address": {
        "encoding": "inplace",
        "label": "address",
        "numberOfBytes": "20"
      },
      "t_bytes32": {
        "encoding": "inplace",
        "label": "bytes32",
        "numberOfBytes": "32"
      },
      "t_mapping(t_address,t_mapping(t_address,t_uint256))": {
        "encoding": "mapping",
        "key": "t_address",
        "label": "mapping(address => mapping(address => uint256))",
        "numberOfBytes": "32",
        "value": "t_mapping(t_address,t_uint256)"
      },
      "t_mapping(t_address,t_uint256)": {
        "encoding": "mapping",
        "key": "t_address",
        "label": "mapping(address => uint256)",
        "numberOfBytes": "32",
        "value": "t_uint256"
      },
      "t_string_storage": {
        "encoding": "bytes",
        "label": "string",
        "numberOfBytes": "32"
      },
      "t_uint256": {
        "encoding": "inplace",
        "label": "uint256",
        "numberOfBytes": "32"
      },
      "t_uint8": {
        "encoding": "inplace",
        "label": "uint8",
        "numberOfBytes": "1"
      }
    }
  }
}