{
  "address": "0xB91691A148141f95d0A7b6d3a9eE869bB0300444",
  "abi": [
    {
      "inputs": [
        {
          "internalType": "Token6",
          "name": "usdc_",
          "type": "address"
        },
        {
          "internalType": "contract IBatcher",
          "name": "batcher_",
          "type": "address"
        },
        {
          "internalType": "contract IEmptySetReserve",
          "name": "reserve_",
          "type": "address"
        },
        {
          "internalType": "contract IController",
          "name": "controller_",
          "type": "address"
        }
      ],
      "stateMutability": "nonpayable",
      "type": "constructor"
    },
    {
      "inputs": [
        {
          "internalType": "uint256",
          "name": "version",
          "type": "uint256"
        }
      ],
      "name": "UInitializableAlreadyInitializedError",
      "type": "error"
    },
    {
      "inputs": [],
      "name": "UInitializableNotInitializingError",
      "type": "error"
    },
    {
      "inputs": [],
      "name": "UInitializableZeroVersionError",
      "type": "error"
    },
    {
      "anonymous": false,
      "inputs": [
        {
          "indexed": false,
          "internalType": "uint256",
          "name": "version",
          "type": "uint256"
        }
      ],
      "name": "Initialized",
      "type": "event"
    },
    {
      "inputs": [],
      "name": "DSU",
      "outputs": [
        {
          "internalType": "Token18",
          "name": "",
          "type": "address"
        }
      ],
      "stateMutability": "view",
      "type": "function"
    },
    {
      "inputs": [],
      "name": "USDC",
      "outputs": [
        {
          "internalType": "Token6",
          "name": "",
          "type": "address"
        }
      ],
      "stateMutability": "view",
      "type": "function"
    },
    {
      "inputs": [],
      "name": "batcher",
      "outputs": [
        {
          "internalType": "contract IBatcher",
          "name": "",
          "type": "address"
        }
      ],
      "stateMutability": "view",
      "type": "function"
    },
    {
      "inputs": [],
      "name": "collateral",
      "outputs": [
        {
          "internalType": "contract ICollateral",
          "name": "",
          "type": "address"
        }
      ],
      "stateMutability": "view",
      "type": "function"
    },
    {
      "inputs": [],
      "name": "controller",
      "outputs": [
        {
          "internalType": "contract IController",
          "name": "",
          "type": "address"
        }
      ],
      "stateMutability": "view",
      "type": "function"
    },
    {
      "inputs": [],
      "name": "initialize",
      "outputs": [],
      "stateMutability": "nonpayable",
      "type": "function"
    },
    {
      "inputs": [
        {
          "components": [
            {
              "internalType": "enum IMultiInvoker.PerennialAction",
              "name": "action",
              "type": "uint8"
            },
            {
              "internalType": "bytes",
              "name": "args",
              "type": "bytes"
            }
          ],
          "internalType": "struct IMultiInvoker.Invocation[]",
          "name": "invocations",
          "type": "tuple[]"
        }
      ],
      "name": "invoke",
      "outputs": [],
      "stateMutability": "nonpayable",
      "type": "function"
    },
    {
      "inputs": [],
      "name": "reserve",
      "outputs": [
        {
          "internalType": "contract IEmptySetReserve",
          "name": "",
          "type": "address"
        }
      ],
      "stateMutability": "view",
      "type": "function"
    }
  ],
  "transactionHash": "0x193e34833aa4d4fd582d9851b07bb55430e726eeff32d8f615259daad01ac6b8",
  "args": [
    "0x07865c6E87B9F70255377e024ace6630C1Eaa37F",
    "0xC233A4d46052f4927f2d60aefAC6aBb51bb5A2E0",
    "0xbdA59A4405AD32cF81887B54ef5e6D5cB2177d52",
    "0x7c4ABBF7CB0C0BcB72917734B068Ed4D1AcdF8C5"
  ],
  "numDeployments": 1,
  "solcInputHash": "685488ab311ae082381cb70899da25df",
  "bytecode": "0x6101406040523480156200001257600080fd5b50604051620026e9380380620026e983398101604081905262000035916200015c565b6001600160a01b0380851660805283811660c052811660e08190526040805163d8dfeb4560e01b8152905163d8dfeb45916004808201926020929091908290030181865afa1580156200008c573d6000803e3d6000fd5b505050506040513d601f19601f82011682018060405250810190620000b29190620001c4565b6001600160a01b031661010081905260408051637e062a3560e11b8152905163fc0c546a916004808201926020929091908290030181865afa158015620000fd573d6000803e3d6000fd5b505050506040513d601f19601f82011682018060405250810190620001239190620001c4565b6001600160a01b0390811660a052919091166101205250620001eb915050565b6001600160a01b03811681146200015957600080fd5b50565b600080600080608085870312156200017357600080fd5b8451620001808162000143565b6020860151909450620001938162000143565b6040860151909350620001a68162000143565b6060860151909250620001b98162000143565b939692955090935050565b600060208284031215620001d757600080fd5b8151620001e48162000143565b9392505050565b60805160a05160c05160e0516101005161012051612391620003586000396000818161014d0152818161053201528181610594015281816105f401528181610656015281816113ad01526115fe01526000818161017401528181610470015281816104d2015281816107f901528181610e440152610fe201526000818161019b0152610b1b015260008181609201528181610276015281816102ec0152818161034e015281816103ae01528181610410015281816112d30152818161134e015281816114c80152818161152b015281816115a60152611719015260008181610113015281816102ca0152818161032c0152818161044e015281816104b0015281816105100152818161057201528181610dc901528181610f0c0152818161132c015261145501526000818160ec0152818161038c015281816103ee015281816105d20152818161063401528181610ebf01528181610f570152818161158401526116a601526123916000f3fe608060405234801561001057600080fd5b50600436106100885760003560e01c8063bdec4a271161005b578063bdec4a2714610135578063cd3293de14610148578063d8dfeb451461016f578063f77c47911461019657600080fd5b8063025a3a291461008d5780638129fc1c146100dd57806389a30271146100e7578063a2060bcf1461010e575b600080fd5b6100b47f000000000000000000000000000000000000000000000000000000000000000081565b60405173ffffffffffffffffffffffffffffffffffffffff909116815260200160405180910390f35b6100e56101bd565b005b6100b47f000000000000000000000000000000000000000000000000000000000000000081565b6100b47f000000000000000000000000000000000000000000000000000000000000000081565b6100e5610143366004611d16565b6106d4565b6100b47f000000000000000000000000000000000000000000000000000000000000000081565b6100b47f000000000000000000000000000000000000000000000000000000000000000081565b6100b47f000000000000000000000000000000000000000000000000000000000000000081565b6003806101e87f5db5abc19987c2b3729df7961b62b6bb0bae886dd47e3ce25bb3a3af34c6d80b5490565b10610227576040517f1e7a9d95000000000000000000000000000000000000000000000000000000008152600481018290526024015b60405180910390fd5b6102507f5db5abc19987c2b3729df7961b62b6bb0bae886dd47e3ce25bb3a3af34c6d80b829055565b60017fad57d7911b7e3d6c3c79a68ba909a7f4ba41f9485e5207b12dee0d0c6af5398c557f000000000000000000000000000000000000000000000000000000000000000073ffffffffffffffffffffffffffffffffffffffff16156104345761031273ffffffffffffffffffffffffffffffffffffffff7f0000000000000000000000000000000000000000000000000000000000000000167f00000000000000000000000000000000000000000000000000000000000000006000610d1c565b61037273ffffffffffffffffffffffffffffffffffffffff7f0000000000000000000000000000000000000000000000000000000000000000167f0000000000000000000000000000000000000000000000000000000000000000610d3d565b6103d473ffffffffffffffffffffffffffffffffffffffff7f0000000000000000000000000000000000000000000000000000000000000000167f00000000000000000000000000000000000000000000000000000000000000006000610d82565b61043473ffffffffffffffffffffffffffffffffffffffff7f0000000000000000000000000000000000000000000000000000000000000000167f0000000000000000000000000000000000000000000000000000000000000000610d3d565b61049673ffffffffffffffffffffffffffffffffffffffff7f0000000000000000000000000000000000000000000000000000000000000000167f00000000000000000000000000000000000000000000000000000000000000006000610d1c565b6104f673ffffffffffffffffffffffffffffffffffffffff7f0000000000000000000000000000000000000000000000000000000000000000167f0000000000000000000000000000000000000000000000000000000000000000610d3d565b61055873ffffffffffffffffffffffffffffffffffffffff7f0000000000000000000000000000000000000000000000000000000000000000167f00000000000000000000000000000000000000000000000000000000000000006000610d1c565b6105b873ffffffffffffffffffffffffffffffffffffffff7f0000000000000000000000000000000000000000000000000000000000000000167f0000000000000000000000000000000000000000000000000000000000000000610d3d565b61061a73ffffffffffffffffffffffffffffffffffffffff7f0000000000000000000000000000000000000000000000000000000000000000167f00000000000000000000000000000000000000000000000000000000000000006000610d82565b61067a73ffffffffffffffffffffffffffffffffffffffff7f0000000000000000000000000000000000000000000000000000000000000000167f0000000000000000000000000000000000000000000000000000000000000000610d3d565b60007fad57d7911b7e3d6c3c79a68ba909a7f4ba41f9485e5207b12dee0d0c6af5398c556040518181527fbe9b076dc5b65990cca9dd9d7366682482e7817a6f6bc7f4faf4dc32af497f329060200160405180910390a150565b60005b81811015610d175760008383838181106106f3576106f3611d8b565b90506020028101906107059190611dba565b61070e90611e9f565b905060018151600b81111561072557610725611f6f565b0361076057600080600083602001518060200190518101906107479190611fc3565b925092509250610758838383610daf565b505050610d04565b60028151600b81111561077557610775611f6f565b0361085f57600080600083602001518060200190518101906107979190611fc3565b6040517f2644131800000000000000000000000000000000000000000000000000000000815233600482015273ffffffffffffffffffffffffffffffffffffffff848116602483015283811660448301526064820183905293965091945092507f000000000000000000000000000000000000000000000000000000000000000090911690632644131890608401600060405180830381600087803b15801561083f57600080fd5b505af1158015610853573d6000803e3d6000fd5b50505050505050610d04565b60038151600b81111561087457610874611f6f565b036109275760008082602001518060200190518101906108949190612006565b6040517f9378bf7b00000000000000000000000000000000000000000000000000000000815233600482015260248101829052919350915073ffffffffffffffffffffffffffffffffffffffff831690639378bf7b906044015b600060405180830381600087803b15801561090857600080fd5b505af115801561091c573d6000803e3d6000fd5b505050505050610d04565b60048151600b81111561093c5761093c611f6f565b036109ba57600080826020015180602001905181019061095c9190612006565b6040517f2131ea4a00000000000000000000000000000000000000000000000000000000815233600482015260248101829052919350915073ffffffffffffffffffffffffffffffffffffffff831690632131ea4a906044016108ee565b60058151600b8111156109cf576109cf611f6f565b03610a4d5760008082602001518060200190518101906109ef9190612006565b6040517f2d2e52be00000000000000000000000000000000000000000000000000000000815233600482015260248101829052919350915073ffffffffffffffffffffffffffffffffffffffff831690632d2e52be906044016108ee565b60068151600b811115610a6257610a62611f6f565b03610ae0576000808260200151806020019051810190610a829190612006565b6040517fe503b00700000000000000000000000000000000000000000000000000000000815233600482015260248101829052919350915073ffffffffffffffffffffffffffffffffffffffff83169063e503b007906044016108ee565b60078151600b811115610af557610af5611f6f565b03610be3576000808260200151806020019051810190610b159190612034565b915091507f000000000000000000000000000000000000000000000000000000000000000073ffffffffffffffffffffffffffffffffffffffff16636fc6407c6040518163ffffffff1660e01b8152600401602060405180830381865afa158015610b84573d6000803e3d6000fd5b505050506040513d601f19601f82011682018060405250810190610ba891906120f1565b73ffffffffffffffffffffffffffffffffffffffff16628240533384846040518463ffffffff1660e01b81526004016108ee9392919061210e565b60088151600b811115610bf857610bf8611f6f565b03610c2d576000808260200151806020019051810190610c189190612006565b91509150610c268282610ea5565b5050610d04565b60098151600b811115610c4257610c42611f6f565b03610c70576000808260200151806020019051810190610c629190612006565b91509150610c268282610ef2565b600a8151600b811115610c8557610c85611f6f565b03610cb85760008060008360200151806020019051810190610ca79190611fc3565b925092509250610758838383610f3d565b600b8151600b811115610ccd57610ccd611f6f565b03610d045760008060008360200151806020019051810190610cef9190611fc3565b925092509250610d00838383610f8a565b5050505b5080610d0f816121ad565b9150506106d7565b505050565b610d1773ffffffffffffffffffffffffffffffffffffffff84168383611048565b610d7e73ffffffffffffffffffffffffffffffffffffffff8316827fffffffffffffffffffffffffffffffffffffffffffffffffffffffffffffffff611048565b5050565b610d1782610d91836000611248565b73ffffffffffffffffffffffffffffffffffffffff86169190611048565b610df073ffffffffffffffffffffffffffffffffffffffff7f000000000000000000000000000000000000000000000000000000000000000016338361127b565b6040517ff213159c00000000000000000000000000000000000000000000000000000000815273ffffffffffffffffffffffffffffffffffffffff84811660048301528381166024830152604482018390527f0000000000000000000000000000000000000000000000000000000000000000169063f213159c90606401600060405180830381600087803b158015610e8857600080fd5b505af1158015610e9c573d6000803e3d6000fd5b50505050505050565b610ee873ffffffffffffffffffffffffffffffffffffffff7f0000000000000000000000000000000000000000000000000000000000000000163383600161129d565b610d7e82826112d1565b610f3373ffffffffffffffffffffffffffffffffffffffff7f000000000000000000000000000000000000000000000000000000000000000016338361127b565b610d7e8282611529565b610f8073ffffffffffffffffffffffffffffffffffffffff7f0000000000000000000000000000000000000000000000000000000000000000163383600161129d565b610df030826112d1565b6040517f2644131800000000000000000000000000000000000000000000000000000000815233600482015230602482015273ffffffffffffffffffffffffffffffffffffffff8381166044830152606482018390527f00000000000000000000000000000000000000000000000000000000000000001690632644131890608401600060405180830381600087803b15801561102657600080fd5b505af115801561103a573d6000803e3d6000fd5b50505050610d178382611529565b8015806110e857506040517fdd62ed3e00000000000000000000000000000000000000000000000000000000815230600482015273ffffffffffffffffffffffffffffffffffffffff838116602483015284169063dd62ed3e90604401602060405180830381865afa1580156110c2573d6000803e3d6000fd5b505050506040513d601f19601f820116820180604052508101906110e691906121e5565b155b611174576040517f08c379a000000000000000000000000000000000000000000000000000000000815260206004820152603660248201527f5361666545524332303a20617070726f76652066726f6d206e6f6e2d7a65726f60448201527f20746f206e6f6e2d7a65726f20616c6c6f77616e636500000000000000000000606482015260840161021e565b60405173ffffffffffffffffffffffffffffffffffffffff8316602482015260448101829052610d179084907f095ea7b300000000000000000000000000000000000000000000000000000000906064015b604080517fffffffffffffffffffffffffffffffffffffffffffffffffffffffffffffffe08184030181529190526020810180517bffffffffffffffffffffffffffffffffffffffffffffffffffffffff167fffffffff0000000000000000000000000000000000000000000000000000000090931692909217909152611748565b6000816112635761125e64e8d4a510008461222d565b611272565b6112728364e8d4a51000611854565b90505b92915050565b610d1773ffffffffffffffffffffffffffffffffffffffff8416833084611886565b6112cb83306112ac8585611248565b73ffffffffffffffffffffffffffffffffffffffff8816929190611886565b50505050565b7f000000000000000000000000000000000000000000000000000000000000000073ffffffffffffffffffffffffffffffffffffffff161580611379575061137961137273ffffffffffffffffffffffffffffffffffffffff7f0000000000000000000000000000000000000000000000000000000000000000167f00000000000000000000000000000000000000000000000000000000000000006118e4565b8290611978565b1561147c576040517fa0712d68000000000000000000000000000000000000000000000000000000008152600481018290527f000000000000000000000000000000000000000000000000000000000000000073ffffffffffffffffffffffffffffffffffffffff169063a0712d6890602401600060405180830381600087803b15801561140657600080fd5b505af115801561141a573d6000803e3d6000fd5b5050505073ffffffffffffffffffffffffffffffffffffffff82163014610d7e57610d7e73ffffffffffffffffffffffffffffffffffffffff7f000000000000000000000000000000000000000000000000000000000000000016838361198e565b6040517f13bac8200000000000000000000000000000000000000000000000000000000081526004810182905273ffffffffffffffffffffffffffffffffffffffff83811660248301527f000000000000000000000000000000000000000000000000000000000000000016906313bac820906044015b600060405180830381600087803b15801561150d57600080fd5b505af1158015611521573d6000803e3d6000fd5b505050505050565b7f000000000000000000000000000000000000000000000000000000000000000073ffffffffffffffffffffffffffffffffffffffff1615806115ca57506115ca61137273ffffffffffffffffffffffffffffffffffffffff7f0000000000000000000000000000000000000000000000000000000000000000167f00000000000000000000000000000000000000000000000000000000000000006119af565b156116cd576040517fdb006a75000000000000000000000000000000000000000000000000000000008152600481018290527f000000000000000000000000000000000000000000000000000000000000000073ffffffffffffffffffffffffffffffffffffffff169063db006a7590602401600060405180830381600087803b15801561165757600080fd5b505af115801561166b573d6000803e3d6000fd5b5050505073ffffffffffffffffffffffffffffffffffffffff82163014610d7e57610d7e73ffffffffffffffffffffffffffffffffffffffff7f0000000000000000000000000000000000000000000000000000000000000000168383611a4b565b6040517f7647691d0000000000000000000000000000000000000000000000000000000081526004810182905273ffffffffffffffffffffffffffffffffffffffff83811660248301527f00000000000000000000000000000000000000000000000000000000000000001690637647691d906044016114f3565b60006117aa826040518060400160405280602081526020017f5361666545524332303a206c6f772d6c6576656c2063616c6c206661696c65648152508573ffffffffffffffffffffffffffffffffffffffff16611a789092919063ffffffff16565b805190915015610d1757808060200190518101906117c89190612241565b610d17576040517f08c379a000000000000000000000000000000000000000000000000000000000815260206004820152602a60248201527f5361666545524332303a204552433230206f7065726174696f6e20646964206e60448201527f6f74207375636365656400000000000000000000000000000000000000000000606482015260840161021e565b60006118608284612263565b1561186c57600161186f565b60005b60ff1661187c838561222d565b6112729190612277565b60405173ffffffffffffffffffffffffffffffffffffffff808516602483015283166044820152606481018290526112cb9085907f23b872dd00000000000000000000000000000000000000000000000000000000906084016111c6565b6040517f70a0823100000000000000000000000000000000000000000000000000000000815273ffffffffffffffffffffffffffffffffffffffff8281166004830152600091908416906370a0823190602401602060405180830381865afa158015611954573d6000803e3d6000fd5b505050506040513d601f19601f8201168201806040525081019061127291906121e5565b60006119848383611a91565b6002149392505050565b610d1773ffffffffffffffffffffffffffffffffffffffff84168383611ac6565b6040517f70a0823100000000000000000000000000000000000000000000000000000000815273ffffffffffffffffffffffffffffffffffffffff8281166004830152600091611272918516906370a0823190602401602060405180830381865afa158015611a22573d6000803e3d6000fd5b505050506040513d601f19601f82011682018060405250810190611a4691906121e5565b611b1c565b610d1782611a5a836000611248565b73ffffffffffffffffffffffffffffffffffffffff86169190611ac6565b6060611a878484600085611b2d565b90505b9392505050565b6000828280821115611aa857600292505050611275565b80821015611abb57600092505050611275565b506001949350505050565b60405173ffffffffffffffffffffffffffffffffffffffff8316602482015260448101829052610d179084907fa9059cbb00000000000000000000000000000000000000000000000000000000906064016111c6565b600061127564e8d4a510008361228f565b606082471015611bbf576040517f08c379a000000000000000000000000000000000000000000000000000000000815260206004820152602660248201527f416464726573733a20696e73756666696369656e742062616c616e636520666f60448201527f722063616c6c0000000000000000000000000000000000000000000000000000606482015260840161021e565b73ffffffffffffffffffffffffffffffffffffffff85163b611c3d576040517f08c379a000000000000000000000000000000000000000000000000000000000815260206004820152601d60248201527f416464726573733a2063616c6c20746f206e6f6e2d636f6e7472616374000000604482015260640161021e565b6000808673ffffffffffffffffffffffffffffffffffffffff168587604051611c6691906122f8565b60006040518083038185875af1925050503d8060008114611ca3576040519150601f19603f3d011682016040523d82523d6000602084013e611ca8565b606091505b5091509150611cb8828286611cc3565b979650505050505050565b60608315611cd2575081611a8a565b825115611ce25782518084602001fd5b816040517f08c379a000000000000000000000000000000000000000000000000000000000815260040161021e919061230a565b60008060208385031215611d2957600080fd5b823567ffffffffffffffff80821115611d4157600080fd5b818501915085601f830112611d5557600080fd5b813581811115611d6457600080fd5b8660208260051b8501011115611d7957600080fd5b60209290920196919550909350505050565b7f4e487b7100000000000000000000000000000000000000000000000000000000600052603260045260246000fd5b600082357fffffffffffffffffffffffffffffffffffffffffffffffffffffffffffffffc1833603018112611dee57600080fd5b9190910192915050565b7f4e487b7100000000000000000000000000000000000000000000000000000000600052604160045260246000fd5b6040805190810167ffffffffffffffff81118282101715611e4a57611e4a611df8565b60405290565b604051601f82017fffffffffffffffffffffffffffffffffffffffffffffffffffffffffffffffe016810167ffffffffffffffff81118282101715611e9757611e97611df8565b604052919050565b600060408236031215611eb157600080fd5b611eb9611e27565b8235600c8110611ec857600080fd5b815260208381013567ffffffffffffffff80821115611ee657600080fd5b9085019036601f830112611ef957600080fd5b813581811115611f0b57611f0b611df8565b611f3b847fffffffffffffffffffffffffffffffffffffffffffffffffffffffffffffffe0601f84011601611e50565b91508082523684828501011115611f5157600080fd5b80848401858401376000908201840152918301919091525092915050565b7f4e487b7100000000000000000000000000000000000000000000000000000000600052602160045260246000fd5b73ffffffffffffffffffffffffffffffffffffffff81168114611fc057600080fd5b50565b600080600060608486031215611fd857600080fd5b8351611fe381611f9e565b6020850151909350611ff481611f9e565b80925050604084015190509250925092565b6000806040838503121561201957600080fd5b825161202481611f9e565b6020939093015192949293505050565b6000806040838503121561204757600080fd5b825161205281611f9e565b8092505060208084015167ffffffffffffffff8082111561207257600080fd5b818601915086601f83011261208657600080fd5b81518181111561209857612098611df8565b8060051b91506120a9848301611e50565b81815291830184019184810190898411156120c357600080fd5b938501935b838510156120e1578451825293850193908501906120c8565b8096505050505050509250929050565b60006020828403121561210357600080fd5b8151611a8a81611f9e565b60006060820173ffffffffffffffffffffffffffffffffffffffff8087168452602081871681860152606060408601528291508551808452608086019250818701935060005b8181101561217057845184529382019392820192600101612154565b509198975050505050505050565b7f4e487b7100000000000000000000000000000000000000000000000000000000600052601160045260246000fd5b60007fffffffffffffffffffffffffffffffffffffffffffffffffffffffffffffffff82036121de576121de61217e565b5060010190565b6000602082840312156121f757600080fd5b5051919050565b7f4e487b7100000000000000000000000000000000000000000000000000000000600052601260045260246000fd5b60008261223c5761223c6121fe565b500490565b60006020828403121561225357600080fd5b81518015158114611a8a57600080fd5b600082612272576122726121fe565b500690565b6000821982111561228a5761228a61217e565b500190565b6000817fffffffffffffffffffffffffffffffffffffffffffffffffffffffffffffffff04831182151516156122c7576122c761217e565b500290565b60005b838110156122e75781810151838201526020016122cf565b838111156112cb5750506000910152565b60008251611dee8184602087016122cc565b60208152600082518060208401526123298160408501602087016122cc565b601f017fffffffffffffffffffffffffffffffffffffffffffffffffffffffffffffffe016919091016040019291505056fea2646970667358221220479faaf8d8630ef67c65f895f6231e70083576322c11698ed665bc41f90b801064736f6c634300080f0033",
  "devdoc": {
    "kind": "dev",
    "methods": {
      "constructor": {
        "details": "Called at implementation instantiate and constant for that implementation.",
        "params": {
          "batcher_": "Protocol Batcher address",
          "controller_": "Protocol Controller address",
          "reserve_": "EmptySet Reserve address",
          "usdc_": "USDC stablecoin address"
        }
      },
      "initialize()": {
        "details": "Must be called atomically as part of the upgradeable proxy deployment to      avoid front-running"
      },
      "invoke((uint8,bytes)[])": {
        "params": {
          "invocations": "The list of invocations to execute in order"
        }
      }
    },
    "stateVariables": {
      "DSU": {
        "details": "DSU address"
      },
      "USDC": {
        "details": "USDC stablecoin address"
      },
      "batcher": {
        "details": "Batcher address"
      },
      "collateral": {
        "details": "Collateral address"
      },
      "controller": {
        "details": "Controller address"
      },
      "reserve": {
        "details": "Reserve address"
      }
    },
    "version": 1
  },
  "userdoc": {
    "kind": "user",
    "methods": {
      "constructor": {
        "notice": "Initializes the immutable contract state"
      },
      "initialize()": {
        "notice": "Initializes the contract state"
      },
      "invoke((uint8,bytes)[])": {
        "notice": "Executes a list of invocations in order"
      }
    },
    "version": 1
  },
  "storageLayout": {
    "storage": [],
    "types": null
  }
}