{
  "address": "0x52e9662a89515DaeebcB0b5685D55557BbB3a12c",
  "abi": [
    {
      "inputs": [],
      "name": "CurveMathOutOfBoundsError",
      "type": "error"
    },
    {
      "inputs": [
        {
          "internalType": "uint256",
          "name": "value",
          "type": "uint256"
        }
      ],
      "name": "Fixed18OverflowError",
      "type": "error"
    },
    {
      "inputs": [
        {
          "internalType": "int256",
          "name": "value",
          "type": "int256"
        }
      ],
      "name": "Fixed18PackingOverflowError",
      "type": "error"
    },
    {
      "inputs": [
        {
          "internalType": "int256",
          "name": "value",
          "type": "int256"
        }
      ],
      "name": "Fixed18PackingUnderflowError",
      "type": "error"
    },
    {
      "inputs": [],
      "name": "InvalidControllerError",
      "type": "error"
    },
    {
      "inputs": [
        {
          "internalType": "address",
          "name": "account",
          "type": "address"
        },
        {
          "internalType": "address",
          "name": "operator",
          "type": "address"
        }
      ],
      "name": "NotAccountOrMultiInvokerError",
      "type": "error"
    },
    {
      "inputs": [],
      "name": "NotCollateralError",
      "type": "error"
    },
    {
      "inputs": [
        {
          "internalType": "uint256",
          "name": "coordinatorId",
          "type": "uint256"
        }
      ],
      "name": "NotOwnerError",
      "type": "error"
    },
    {
      "inputs": [
        {
          "internalType": "contract IProduct",
          "name": "product",
          "type": "address"
        }
      ],
      "name": "NotProductError",
      "type": "error"
    },
    {
      "inputs": [],
      "name": "ParamProviderInvalidFundingFee",
      "type": "error"
    },
    {
      "inputs": [],
      "name": "ParamProviderInvalidMakerFee",
      "type": "error"
    },
    {
      "inputs": [],
      "name": "ParamProviderInvalidPositionFee",
      "type": "error"
    },
    {
      "inputs": [],
      "name": "ParamProviderInvalidTakerFee",
      "type": "error"
    },
    {
      "inputs": [],
      "name": "PausedError",
      "type": "error"
    },
    {
      "inputs": [
        {
          "internalType": "enum PayoffDefinitionLib.PayoffType",
          "name": "payoffType",
          "type": "uint8"
        },
        {
          "internalType": "bytes30",
          "name": "data",
          "type": "bytes30"
        }
      ],
      "name": "PayoffDefinitionNotContract",
      "type": "error"
    },
    {
      "inputs": [
        {
          "internalType": "enum PayoffDefinitionLib.PayoffType",
          "name": "payoffType",
          "type": "uint8"
        },
        {
          "internalType": "enum PayoffDefinitionLib.PayoffDirection",
          "name": "payoffDirection",
          "type": "uint8"
        }
      ],
      "name": "PayoffDefinitionUnsupportedTransform",
      "type": "error"
    },
    {
      "inputs": [],
      "name": "PayoffProviderInvalidOracle",
      "type": "error"
    },
    {
      "inputs": [],
      "name": "PayoffProviderInvalidPayoffDefinitionError",
      "type": "error"
    },
    {
      "inputs": [
        {
          "internalType": "UFixed18",
          "name": "value",
          "type": "uint256"
        }
      ],
      "name": "PendingFeeUpdatesUnsupportedValue",
      "type": "error"
    },
    {
      "inputs": [],
      "name": "ProductClosedError",
      "type": "error"
    },
    {
      "inputs": [],
      "name": "ProductDoubleSidedError",
      "type": "error"
    },
    {
      "inputs": [],
      "name": "ProductInLiquidationError",
      "type": "error"
    },
    {
      "inputs": [],
      "name": "ProductInsufficientCollateralError",
      "type": "error"
    },
    {
      "inputs": [
        {
          "internalType": "UFixed18",
          "name": "socializationFactor",
          "type": "uint256"
        }
      ],
      "name": "ProductInsufficientLiquidityError",
      "type": "error"
    },
    {
      "inputs": [],
      "name": "ProductInvalidOracle",
      "type": "error"
    },
    {
      "inputs": [],
      "name": "ProductMakerOverLimitError",
      "type": "error"
    },
    {
      "inputs": [],
      "name": "ProductNotOwnerError",
      "type": "error"
    },
    {
      "inputs": [],
      "name": "ProductOracleBootstrappingError",
      "type": "error"
    },
    {
      "inputs": [],
      "name": "ProductOverClosedError",
      "type": "error"
    },
    {
      "inputs": [
        {
          "internalType": "uint256",
          "name": "value",
          "type": "uint256"
        }
      ],
      "name": "UFixed18PackingOverflowError",
      "type": "error"
    },
    {
      "inputs": [
        {
          "internalType": "uint256",
          "name": "version",
          "type": "uint256"
        }
      ],
      "name": "UInitializableAlreadyInitializedError",
      "type": "error"
    },
    {
      "inputs": [],
      "name": "UInitializableNotInitializingError",
      "type": "error"
    },
    {
      "inputs": [],
      "name": "UInitializableZeroVersionError",
      "type": "error"
    },
    {
      "inputs": [],
      "name": "UReentrancyGuardReentrantCallError",
      "type": "error"
    },
    {
      "anonymous": false,
      "inputs": [
        {
          "indexed": true,
          "internalType": "address",
          "name": "account",
          "type": "address"
        },
        {
          "indexed": false,
          "internalType": "uint256",
          "name": "preVersion",
          "type": "uint256"
        },
        {
          "indexed": false,
          "internalType": "uint256",
          "name": "toVersion",
          "type": "uint256"
        }
      ],
      "name": "AccountSettle",
      "type": "event"
    },
    {
      "anonymous": false,
      "inputs": [
        {
          "indexed": true,
          "internalType": "bool",
          "name": "newClosed",
          "type": "bool"
        },
        {
          "indexed": false,
          "internalType": "uint256",
          "name": "version",
          "type": "uint256"
        }
      ],
      "name": "ClosedUpdated",
      "type": "event"
    },
    {
      "anonymous": false,
      "inputs": [
        {
          "indexed": false,
          "internalType": "UFixed18",
          "name": "newFundingFee",
          "type": "uint256"
        },
        {
          "indexed": false,
          "internalType": "uint256",
          "name": "version",
          "type": "uint256"
        }
      ],
      "name": "FundingFeeUpdated",
      "type": "event"
    },
    {
      "anonymous": false,
      "inputs": [
        {
          "indexed": false,
          "internalType": "uint256",
          "name": "version",
          "type": "uint256"
        }
      ],
      "name": "Initialized",
      "type": "event"
    },
    {
      "anonymous": false,
      "inputs": [
        {
          "components": [
            {
              "internalType": "PackedFixed18",
              "name": "minRate",
              "type": "int128"
            },
            {
              "internalType": "PackedFixed18",
              "name": "maxRate",
              "type": "int128"
            },
            {
              "internalType": "PackedFixed18",
              "name": "targetRate",
              "type": "int128"
            },
            {
              "internalType": "PackedUFixed18",
              "name": "targetUtilization",
              "type": "uint128"
            }
          ],
          "indexed": false,
          "internalType": "struct JumpRateUtilizationCurve",
          "name": "",
          "type": "tuple"
        },
        {
          "indexed": false,
          "internalType": "uint256",
          "name": "version",
          "type": "uint256"
        }
      ],
      "name": "JumpRateUtilizationCurveUpdated",
      "type": "event"
    },
    {
      "anonymous": false,
      "inputs": [
        {
          "indexed": false,
          "internalType": "UFixed18",
          "name": "newMaintenance",
          "type": "uint256"
        },
        {
          "indexed": false,
          "internalType": "uint256",
          "name": "version",
          "type": "uint256"
        }
      ],
      "name": "MaintenanceUpdated",
      "type": "event"
    },
    {
      "anonymous": false,
      "inputs": [
        {
          "indexed": true,
          "internalType": "address",
          "name": "account",
          "type": "address"
        },
        {
          "indexed": false,
          "internalType": "uint256",
          "name": "version",
          "type": "uint256"
        },
        {
          "indexed": false,
          "internalType": "UFixed18",
          "name": "amount",
          "type": "uint256"
        }
      ],
      "name": "MakeClosed",
      "type": "event"
    },
    {
      "anonymous": false,
      "inputs": [
        {
          "indexed": true,
          "internalType": "address",
          "name": "account",
          "type": "address"
        },
        {
          "indexed": false,
          "internalType": "uint256",
          "name": "version",
          "type": "uint256"
        },
        {
          "indexed": false,
          "internalType": "UFixed18",
          "name": "amount",
          "type": "uint256"
        }
      ],
      "name": "MakeOpened",
      "type": "event"
    },
    {
      "anonymous": false,
      "inputs": [
        {
          "indexed": false,
          "internalType": "UFixed18",
          "name": "newMakerFee",
          "type": "uint256"
        },
        {
          "indexed": false,
          "internalType": "uint256",
          "name": "version",
          "type": "uint256"
        }
      ],
      "name": "MakerFeeUpdated",
      "type": "event"
    },
    {
      "anonymous": false,
      "inputs": [
        {
          "indexed": false,
          "internalType": "UFixed18",
          "name": "newMakerLimit",
          "type": "uint256"
        },
        {
          "indexed": false,
          "internalType": "uint256",
          "name": "version",
          "type": "uint256"
        }
      ],
      "name": "MakerLimitUpdated",
      "type": "event"
    },
    {
      "anonymous": false,
      "inputs": [
        {
          "indexed": false,
          "internalType": "UFixed18",
          "name": "newMakerFee",
          "type": "uint256"
        }
      ],
      "name": "PendingMakerFeeUpdated",
      "type": "event"
    },
    {
      "anonymous": false,
      "inputs": [
        {
          "indexed": false,
          "internalType": "UFixed18",
          "name": "newPositionFee",
          "type": "uint256"
        }
      ],
      "name": "PendingPositionFeeUpdated",
      "type": "event"
    },
    {
      "anonymous": false,
      "inputs": [
        {
          "indexed": false,
          "internalType": "UFixed18",
          "name": "newTakerFee",
          "type": "uint256"
        }
      ],
      "name": "PendingTakerFeeUpdated",
      "type": "event"
    },
    {
      "anonymous": false,
      "inputs": [
        {
          "indexed": false,
          "internalType": "UFixed18",
          "name": "newPositionFee",
          "type": "uint256"
        },
        {
          "indexed": false,
          "internalType": "uint256",
          "name": "version",
          "type": "uint256"
        }
      ],
      "name": "PositionFeeUpdated",
      "type": "event"
    },
    {
      "anonymous": false,
      "inputs": [
        {
          "indexed": false,
          "internalType": "uint256",
          "name": "preVersion",
          "type": "uint256"
        },
        {
          "indexed": false,
          "internalType": "uint256",
          "name": "toVersion",
          "type": "uint256"
        }
      ],
      "name": "Settle",
      "type": "event"
    },
    {
      "anonymous": false,
      "inputs": [
        {
          "indexed": true,
          "internalType": "address",
          "name": "account",
          "type": "address"
        },
        {
          "indexed": false,
          "internalType": "uint256",
          "name": "version",
          "type": "uint256"
        },
        {
          "indexed": false,
          "internalType": "UFixed18",
          "name": "amount",
          "type": "uint256"
        }
      ],
      "name": "TakeClosed",
      "type": "event"
    },
    {
      "anonymous": false,
      "inputs": [
        {
          "indexed": true,
          "internalType": "address",
          "name": "account",
          "type": "address"
        },
        {
          "indexed": false,
          "internalType": "uint256",
          "name": "version",
          "type": "uint256"
        },
        {
          "indexed": false,
          "internalType": "UFixed18",
          "name": "amount",
          "type": "uint256"
        }
      ],
      "name": "TakeOpened",
      "type": "event"
    },
    {
      "anonymous": false,
      "inputs": [
        {
          "indexed": false,
          "internalType": "UFixed18",
          "name": "newTakerFee",
          "type": "uint256"
        },
        {
          "indexed": false,
          "internalType": "uint256",
          "name": "version",
          "type": "uint256"
        }
      ],
      "name": "TakerFeeUpdated",
      "type": "event"
    },
    {
      "inputs": [
        {
          "internalType": "uint256",
          "name": "oracleVersion",
          "type": "uint256"
        }
      ],
      "name": "atVersion",
      "outputs": [
        {
          "components": [
            {
              "internalType": "uint256",
              "name": "version",
              "type": "uint256"
            },
            {
              "internalType": "uint256",
              "name": "timestamp",
              "type": "uint256"
            },
            {
              "internalType": "Fixed18",
              "name": "price",
              "type": "int256"
            }
          ],
          "internalType": "struct IOracleProvider.OracleVersion",
          "name": "",
          "type": "tuple"
        }
      ],
      "stateMutability": "view",
      "type": "function"
    },
    {
      "inputs": [
        {
          "internalType": "address",
          "name": "account",
          "type": "address"
        }
      ],
      "name": "closeAll",
      "outputs": [],
      "stateMutability": "nonpayable",
      "type": "function"
    },
    {
      "inputs": [
        {
          "internalType": "UFixed18",
          "name": "amount",
          "type": "uint256"
        }
      ],
      "name": "closeMake",
      "outputs": [],
      "stateMutability": "nonpayable",
      "type": "function"
    },
    {
      "inputs": [
        {
          "internalType": "address",
          "name": "account",
          "type": "address"
        },
        {
          "internalType": "UFixed18",
          "name": "amount",
          "type": "uint256"
        }
      ],
      "name": "closeMakeFor",
      "outputs": [],
      "stateMutability": "nonpayable",
      "type": "function"
    },
    {
      "inputs": [
        {
          "internalType": "UFixed18",
          "name": "amount",
          "type": "uint256"
        }
      ],
      "name": "closeTake",
      "outputs": [],
      "stateMutability": "nonpayable",
      "type": "function"
    },
    {
      "inputs": [
        {
          "internalType": "address",
          "name": "account",
          "type": "address"
        },
        {
          "internalType": "UFixed18",
          "name": "amount",
          "type": "uint256"
        }
      ],
      "name": "closeTakeFor",
      "outputs": [],
      "stateMutability": "nonpayable",
      "type": "function"
    },
    {
      "inputs": [],
      "name": "closed",
      "outputs": [
        {
          "internalType": "bool",
          "name": "",
          "type": "bool"
        }
      ],
      "stateMutability": "view",
      "type": "function"
    },
    {
      "inputs": [],
      "name": "controller",
      "outputs": [
        {
          "internalType": "contract IController",
          "name": "",
          "type": "address"
        }
      ],
      "stateMutability": "view",
      "type": "function"
    },
    {
      "inputs": [],
      "name": "currentVersion",
      "outputs": [
        {
          "components": [
            {
              "internalType": "uint256",
              "name": "version",
              "type": "uint256"
            },
            {
              "internalType": "uint256",
              "name": "timestamp",
              "type": "uint256"
            },
            {
              "internalType": "Fixed18",
              "name": "price",
              "type": "int256"
            }
          ],
          "internalType": "struct IOracleProvider.OracleVersion",
          "name": "",
          "type": "tuple"
        }
      ],
      "stateMutability": "view",
      "type": "function"
    },
    {
      "inputs": [],
      "name": "fundingFee",
      "outputs": [
        {
          "internalType": "UFixed18",
          "name": "",
          "type": "uint256"
        }
      ],
      "stateMutability": "view",
      "type": "function"
    },
    {
      "inputs": [
        {
          "components": [
            {
              "internalType": "string",
              "name": "name",
              "type": "string"
            },
            {
              "internalType": "string",
              "name": "symbol",
              "type": "string"
            },
            {
              "components": [
                {
                  "internalType": "enum PayoffDefinitionLib.PayoffType",
                  "name": "payoffType",
                  "type": "uint8"
                },
                {
                  "internalType": "enum PayoffDefinitionLib.PayoffDirection",
                  "name": "payoffDirection",
                  "type": "uint8"
                },
                {
                  "internalType": "bytes30",
                  "name": "data",
                  "type": "bytes30"
                }
              ],
              "internalType": "struct PayoffDefinition",
              "name": "payoffDefinition",
              "type": "tuple"
            },
            {
              "internalType": "contract IOracleProvider",
              "name": "oracle",
              "type": "address"
            },
            {
              "internalType": "UFixed18",
              "name": "maintenance",
              "type": "uint256"
            },
            {
              "internalType": "UFixed18",
              "name": "fundingFee",
              "type": "uint256"
            },
            {
              "internalType": "UFixed18",
              "name": "makerFee",
              "type": "uint256"
            },
            {
              "internalType": "UFixed18",
              "name": "takerFee",
              "type": "uint256"
            },
            {
              "internalType": "UFixed18",
              "name": "positionFee",
              "type": "uint256"
            },
            {
              "internalType": "UFixed18",
              "name": "makerLimit",
              "type": "uint256"
            },
            {
              "components": [
                {
                  "internalType": "PackedFixed18",
                  "name": "minRate",
                  "type": "int128"
                },
                {
                  "internalType": "PackedFixed18",
                  "name": "maxRate",
                  "type": "int128"
                },
                {
                  "internalType": "PackedFixed18",
                  "name": "targetRate",
                  "type": "int128"
                },
                {
                  "internalType": "PackedUFixed18",
                  "name": "targetUtilization",
                  "type": "uint128"
                }
              ],
              "internalType": "struct JumpRateUtilizationCurve",
              "name": "utilizationCurve",
              "type": "tuple"
            }
          ],
          "internalType": "struct IProduct.ProductInfo",
          "name": "productInfo_",
          "type": "tuple"
        }
      ],
      "name": "initialize",
      "outputs": [],
      "stateMutability": "nonpayable",
      "type": "function"
    },
    {
      "inputs": [
        {
          "internalType": "address",
          "name": "account",
          "type": "address"
        }
      ],
      "name": "isClosed",
      "outputs": [
        {
          "internalType": "bool",
          "name": "",
          "type": "bool"
        }
      ],
      "stateMutability": "view",
      "type": "function"
    },
    {
      "inputs": [
        {
          "internalType": "address",
          "name": "account",
          "type": "address"
        }
      ],
      "name": "isLiquidating",
      "outputs": [
        {
          "internalType": "bool",
          "name": "",
          "type": "bool"
        }
      ],
      "stateMutability": "view",
      "type": "function"
    },
    {
      "inputs": [
        {
          "internalType": "address",
          "name": "account",
          "type": "address"
        }
      ],
      "name": "latestVersion",
      "outputs": [
        {
          "internalType": "uint256",
          "name": "",
          "type": "uint256"
        }
      ],
      "stateMutability": "view",
      "type": "function"
    },
    {
      "inputs": [],
      "name": "latestVersion",
      "outputs": [
        {
          "internalType": "uint256",
          "name": "",
          "type": "uint256"
        }
      ],
      "stateMutability": "view",
      "type": "function"
    },
    {
      "inputs": [],
      "name": "maintenance",
      "outputs": [
        {
          "internalType": "UFixed18",
          "name": "",
          "type": "uint256"
        }
      ],
      "stateMutability": "view",
      "type": "function"
    },
    {
      "inputs": [
        {
          "internalType": "address",
          "name": "account",
          "type": "address"
        }
      ],
      "name": "maintenance",
      "outputs": [
        {
          "internalType": "UFixed18",
          "name": "",
          "type": "uint256"
        }
      ],
      "stateMutability": "view",
      "type": "function"
    },
    {
      "inputs": [
        {
          "internalType": "address",
          "name": "account",
          "type": "address"
        }
      ],
      "name": "maintenanceNext",
      "outputs": [
        {
          "internalType": "UFixed18",
          "name": "",
          "type": "uint256"
        }
      ],
      "stateMutability": "view",
      "type": "function"
    },
    {
      "inputs": [],
      "name": "makerFee",
      "outputs": [
        {
          "internalType": "UFixed18",
          "name": "",
          "type": "uint256"
        }
      ],
      "stateMutability": "view",
      "type": "function"
    },
    {
      "inputs": [],
      "name": "makerLimit",
      "outputs": [
        {
          "internalType": "UFixed18",
          "name": "",
          "type": "uint256"
        }
      ],
      "stateMutability": "view",
      "type": "function"
    },
    {
      "inputs": [],
      "name": "name",
      "outputs": [
        {
          "internalType": "string",
          "name": "",
          "type": "string"
        }
      ],
      "stateMutability": "view",
      "type": "function"
    },
    {
      "inputs": [
        {
          "internalType": "UFixed18",
          "name": "amount",
          "type": "uint256"
        }
      ],
      "name": "openMake",
      "outputs": [],
      "stateMutability": "nonpayable",
      "type": "function"
    },
    {
      "inputs": [
        {
          "internalType": "address",
          "name": "account",
          "type": "address"
        },
        {
          "internalType": "UFixed18",
          "name": "amount",
          "type": "uint256"
        }
      ],
      "name": "openMakeFor",
      "outputs": [],
      "stateMutability": "nonpayable",
      "type": "function"
    },
    {
      "inputs": [
        {
          "internalType": "UFixed18",
          "name": "amount",
          "type": "uint256"
        }
      ],
      "name": "openTake",
      "outputs": [],
      "stateMutability": "nonpayable",
      "type": "function"
    },
    {
      "inputs": [
        {
          "internalType": "address",
          "name": "account",
          "type": "address"
        },
        {
          "internalType": "UFixed18",
          "name": "amount",
          "type": "uint256"
        }
      ],
      "name": "openTakeFor",
      "outputs": [],
      "stateMutability": "nonpayable",
      "type": "function"
    },
    {
      "inputs": [],
      "name": "oracle",
      "outputs": [
        {
          "internalType": "contract IOracleProvider",
          "name": "",
          "type": "address"
        }
      ],
      "stateMutability": "view",
      "type": "function"
    },
    {
      "inputs": [],
      "name": "payoffDefinition",
      "outputs": [
        {
          "components": [
            {
              "internalType": "enum PayoffDefinitionLib.PayoffType",
              "name": "payoffType",
              "type": "uint8"
            },
            {
              "internalType": "enum PayoffDefinitionLib.PayoffDirection",
              "name": "payoffDirection",
              "type": "uint8"
            },
            {
              "internalType": "bytes30",
              "name": "data",
              "type": "bytes30"
            }
          ],
          "internalType": "struct PayoffDefinition",
          "name": "",
          "type": "tuple"
        }
      ],
      "stateMutability": "view",
      "type": "function"
    },
    {
      "inputs": [],
      "name": "pendingFeeUpdates",
      "outputs": [
        {
          "components": [
            {
              "internalType": "bool",
              "name": "makerFeeUpdated",
              "type": "bool"
            },
            {
              "internalType": "uint64",
              "name": "pendingMakerFee",
              "type": "uint64"
            },
            {
              "internalType": "bool",
              "name": "takerFeeUpdated",
              "type": "bool"
            },
            {
              "internalType": "uint64",
              "name": "pendingTakerFee",
              "type": "uint64"
            },
            {
              "internalType": "bool",
              "name": "positionFeeUpdated",
              "type": "bool"
            },
            {
              "internalType": "uint64",
              "name": "pendingPositionFee",
              "type": "uint64"
            }
          ],
          "internalType": "struct PendingFeeUpdates",
          "name": "",
          "type": "tuple"
        }
      ],
      "stateMutability": "view",
      "type": "function"
    },
    {
      "inputs": [
        {
          "internalType": "address",
          "name": "account",
          "type": "address"
        }
      ],
      "name": "position",
      "outputs": [
        {
          "components": [
            {
              "internalType": "UFixed18",
              "name": "maker",
              "type": "uint256"
            },
            {
              "internalType": "UFixed18",
              "name": "taker",
              "type": "uint256"
            }
          ],
          "internalType": "struct Position",
          "name": "",
          "type": "tuple"
        }
      ],
      "stateMutability": "view",
      "type": "function"
    },
    {
      "inputs": [
        {
          "internalType": "uint256",
          "name": "oracleVersion",
          "type": "uint256"
        }
      ],
      "name": "positionAtVersion",
      "outputs": [
        {
          "components": [
            {
              "internalType": "UFixed18",
              "name": "maker",
              "type": "uint256"
            },
            {
              "internalType": "UFixed18",
              "name": "taker",
              "type": "uint256"
            }
          ],
          "internalType": "struct Position",
          "name": "",
          "type": "tuple"
        }
      ],
      "stateMutability": "view",
      "type": "function"
    },
    {
      "inputs": [],
      "name": "positionFee",
      "outputs": [
        {
          "internalType": "UFixed18",
          "name": "",
          "type": "uint256"
        }
      ],
      "stateMutability": "view",
      "type": "function"
    },
    {
      "inputs": [
        {
          "internalType": "address",
          "name": "account",
          "type": "address"
        }
      ],
      "name": "pre",
      "outputs": [
        {
          "components": [
            {
              "internalType": "uint256",
              "name": "oracleVersion",
              "type": "uint256"
            },
            {
              "components": [
                {
                  "internalType": "UFixed18",
                  "name": "maker",
                  "type": "uint256"
                },
                {
                  "internalType": "UFixed18",
                  "name": "taker",
                  "type": "uint256"
                }
              ],
              "internalType": "struct Position",
              "name": "openPosition",
              "type": "tuple"
            },
            {
              "components": [
                {
                  "internalType": "UFixed18",
                  "name": "maker",
                  "type": "uint256"
                },
                {
                  "internalType": "UFixed18",
                  "name": "taker",
                  "type": "uint256"
                }
              ],
              "internalType": "struct Position",
              "name": "closePosition",
              "type": "tuple"
            }
          ],
          "internalType": "struct PrePosition",
          "name": "",
          "type": "tuple"
        }
      ],
      "stateMutability": "view",
      "type": "function"
    },
    {
      "inputs": [],
      "name": "pre",
      "outputs": [
        {
          "components": [
            {
              "internalType": "uint256",
              "name": "oracleVersion",
              "type": "uint256"
            },
            {
              "components": [
                {
                  "internalType": "UFixed18",
                  "name": "maker",
                  "type": "uint256"
                },
                {
                  "internalType": "UFixed18",
                  "name": "taker",
                  "type": "uint256"
                }
              ],
              "internalType": "struct Position",
              "name": "openPosition",
              "type": "tuple"
            },
            {
              "components": [
                {
                  "internalType": "UFixed18",
                  "name": "maker",
                  "type": "uint256"
                },
                {
                  "internalType": "UFixed18",
                  "name": "taker",
                  "type": "uint256"
                }
              ],
              "internalType": "struct Position",
              "name": "closePosition",
              "type": "tuple"
            }
          ],
          "internalType": "struct PrePosition",
          "name": "",
          "type": "tuple"
        }
      ],
      "stateMutability": "view",
      "type": "function"
    },
    {
      "inputs": [
        {
          "components": [
            {
              "internalType": "UFixed18",
              "name": "maker",
              "type": "uint256"
            },
            {
              "internalType": "UFixed18",
              "name": "taker",
              "type": "uint256"
            }
          ],
          "internalType": "struct Position",
          "name": "position_",
          "type": "tuple"
        }
      ],
      "name": "rate",
      "outputs": [
        {
          "internalType": "Fixed18",
          "name": "",
          "type": "int256"
        }
      ],
      "stateMutability": "view",
      "type": "function"
    },
    {
      "inputs": [],
      "name": "settle",
      "outputs": [],
      "stateMutability": "nonpayable",
      "type": "function"
    },
    {
      "inputs": [
        {
          "internalType": "address",
          "name": "account",
          "type": "address"
        }
      ],
      "name": "settleAccount",
      "outputs": [],
      "stateMutability": "nonpayable",
      "type": "function"
    },
    {
      "inputs": [
        {
          "internalType": "uint256",
          "name": "oracleVersion",
          "type": "uint256"
        }
      ],
      "name": "shareAtVersion",
      "outputs": [
        {
          "components": [
            {
              "internalType": "Fixed18",
              "name": "maker",
              "type": "int256"
            },
            {
              "internalType": "Fixed18",
              "name": "taker",
              "type": "int256"
            }
          ],
          "internalType": "struct Accumulator",
          "name": "",
          "type": "tuple"
        }
      ],
      "stateMutability": "view",
      "type": "function"
    },
    {
      "inputs": [],
      "name": "symbol",
      "outputs": [
        {
          "internalType": "string",
          "name": "",
          "type": "string"
        }
      ],
      "stateMutability": "view",
      "type": "function"
    },
    {
      "inputs": [],
      "name": "takerFee",
      "outputs": [
        {
          "internalType": "UFixed18",
          "name": "",
          "type": "uint256"
        }
      ],
      "stateMutability": "view",
      "type": "function"
    },
    {
      "inputs": [
        {
          "internalType": "bool",
          "name": "newClosed",
          "type": "bool"
        }
      ],
      "name": "updateClosed",
      "outputs": [],
      "stateMutability": "nonpayable",
      "type": "function"
    },
    {
      "inputs": [
        {
          "internalType": "UFixed18",
          "name": "newFundingFee",
          "type": "uint256"
        }
      ],
      "name": "updateFundingFee",
      "outputs": [],
      "stateMutability": "nonpayable",
      "type": "function"
    },
    {
      "inputs": [
        {
          "internalType": "UFixed18",
          "name": "newMaintenance",
          "type": "uint256"
        }
      ],
      "name": "updateMaintenance",
      "outputs": [],
      "stateMutability": "nonpayable",
      "type": "function"
    },
    {
      "inputs": [
        {
          "internalType": "UFixed18",
          "name": "newMakerFee",
          "type": "uint256"
        }
      ],
      "name": "updateMakerFee",
      "outputs": [],
      "stateMutability": "nonpayable",
      "type": "function"
    },
    {
      "inputs": [
        {
          "internalType": "UFixed18",
          "name": "newMakerLimit",
          "type": "uint256"
        }
      ],
      "name": "updateMakerLimit",
      "outputs": [],
      "stateMutability": "nonpayable",
      "type": "function"
    },
    {
      "inputs": [
        {
          "internalType": "UFixed18",
          "name": "newPositionFee",
          "type": "uint256"
        }
      ],
      "name": "updatePositionFee",
      "outputs": [],
      "stateMutability": "nonpayable",
      "type": "function"
    },
    {
      "inputs": [
        {
          "internalType": "UFixed18",
          "name": "newTakerFee",
          "type": "uint256"
        }
      ],
      "name": "updateTakerFee",
      "outputs": [],
      "stateMutability": "nonpayable",
      "type": "function"
    },
    {
      "inputs": [
        {
          "components": [
            {
              "internalType": "PackedFixed18",
              "name": "minRate",
              "type": "int128"
            },
            {
              "internalType": "PackedFixed18",
              "name": "maxRate",
              "type": "int128"
            },
            {
              "internalType": "PackedFixed18",
              "name": "targetRate",
              "type": "int128"
            },
            {
              "internalType": "PackedUFixed18",
              "name": "targetUtilization",
              "type": "uint128"
            }
          ],
          "internalType": "struct JumpRateUtilizationCurve",
          "name": "newUtilizationCurve",
          "type": "tuple"
        }
      ],
      "name": "updateUtilizationCurve",
      "outputs": [],
      "stateMutability": "nonpayable",
      "type": "function"
    },
    {
      "inputs": [],
      "name": "utilizationCurve",
      "outputs": [
        {
          "components": [
            {
              "internalType": "PackedFixed18",
              "name": "minRate",
              "type": "int128"
            },
            {
              "internalType": "PackedFixed18",
              "name": "maxRate",
              "type": "int128"
            },
            {
              "internalType": "PackedFixed18",
              "name": "targetRate",
              "type": "int128"
            },
            {
              "internalType": "PackedUFixed18",
              "name": "targetUtilization",
              "type": "uint128"
            }
          ],
          "internalType": "struct JumpRateUtilizationCurve",
          "name": "",
          "type": "tuple"
        }
      ],
      "stateMutability": "view",
      "type": "function"
    },
    {
      "inputs": [
        {
          "internalType": "uint256",
          "name": "oracleVersion",
          "type": "uint256"
        }
      ],
      "name": "valueAtVersion",
      "outputs": [
        {
          "components": [
            {
              "internalType": "Fixed18",
              "name": "maker",
              "type": "int256"
            },
            {
              "internalType": "Fixed18",
              "name": "taker",
              "type": "int256"
            }
          ],
          "internalType": "struct Accumulator",
          "name": "",
          "type": "tuple"
        }
      ],
      "stateMutability": "view",
      "type": "function"
    }
  ],
  "transactionHash": "0xe249f116c39769caf2cb81307758fabe0b97871988462ea68c19abc0aa9f0400",
  "args": [],
  "numDeployments": 1,
  "solcInputHash": "3f5fdd1b92b8a87545d780b669576bad",
  "bytecode": "0x6080806040523461001757615fef90816200001d8239f35b600080fdfe60806040526004361015610013575b600080fd5b60003560e01c806305d5c1cb146103e757806306fdde03146103de5780630dbc9ce1146103d557806311da60b4146103cc578063153261e5146103c357806319377567146103ba5780631e0c6fb9146103b157806320fe9c3c146103a8578063212e0ad31461039f5780632131ea4a146103965780632d2e52be1461038d5780633a25c111146103845780633e17b8c71461037b57806343f0179b14610372578063476fa96d1461036957806354fb39211461036057806356bc1ad41461035757806358ca6f981461034e57806359218fe914610345578063597e1fb51461033c57806359ea287d146103335780635d16e1201461032a57806360ec91d614610321578063611c71b4146103185780636943b0171461030f5780636c376cc5146103065780636ecffff9146102fd57806373b88f3b146102f457806376f37001146102eb5780637dc0d1d0146102e25780637ece075d146102d95780638c94b48f146102d05780638e480b20146102c757806391689024146102be5780639378bf7b146102b557806395d89b41146102ac5780639a427d03146102a35780639d888e861461029a578063a12e1b3314610291578063ab582f2914610288578063b7648fb91461027f578063c07f47d414610276578063d7d7d6b81461026d578063e1c3c98d14610264578063e503b0071461025b578063f667f89714610252578063f6b3200814610249578063f77c4791146102405763fc741c7c1461023857600080fd5b61000e6122a6565b5061000e61226f565b5061000e6121b8565b5061000e6120f7565b5061000e611fbe565b5061000e611eb7565b5061000e611df3565b5061000e611dd4565b5061000e611d8f565b5061000e611d34565b5061000e611d0b565b5061000e611c32565b5061000e611bfc565b5061000e611bcb565b5061000e611a7e565b5061000e611a41565b5061000e611a03565b5061000e6118fc565b5061000e6118ce565b5061000e61186e565b5061000e6117b2565b5061000e6116dc565b5061000e611537565b5061000e61150b565b5061000e611467565b5061000e611360565b5061000e6112fe565b5061000e6112d2565b5061000e6112aa565b5061000e61127c565b5061000e6111c9565b5061000e611183565b5061000e61107c565b5061000e610f75565b5061000e610f4a565b5061000e610f1e565b5061000e610e17565b5061000e610dad565b5061000e610c50565b5061000e610ad8565b5061000e6109c6565b5061000e610974565b5061000e61091e565b5061000e6108a0565b5061000e610754565b5061000e610670565b5061000e610644565b5061000e610614565b5061000e61041b565b600091031261000e57565b6002111561040557565b634e487b7160e01b600052602160045260246000fd5b503461000e57600036600319011261000e5760606104376148e2565b604051908051610446816103fb565b82526020810151610456816103fb565b6020830152604061ffff19910151166040820152f35b50634e487b7160e01b600052600060045260246000fd5b90600182811c921680156104b3575b602083101461049d57565b634e487b7160e01b600052602260045260246000fd5b91607f1691610492565b50634e487b7160e01b600052604160045260246000fd5b601f909101601f19168101906001600160401b038211908210176104f757604052565b6104ff6104bd565b604052565b906105b0575b6040519081600082549261051d84610483565b90818452600194858116908160001461058d575060011461054a575b5050610547925003826104d4565b90565b9093915060005260209081600020936000915b81831061057557505061054793508201013880610539565b8554878401850152948501948694509183019161055d565b91505061054794506020925060ff191682840152151560051b8201013880610539565b6105b861046c565b61050a565b919091602080825283519081818401526000945b8286106105fe5750508060409394116105f1575b601f01601f1916010190565b60008382840101526105e5565b85810182015184870160400152948101946105d1565b503461000e57600036600319011261000e57610640610634600080610504565b604051918291826105bd565b0390f35b503461000e57600036600319011261000e576020600080516020615e7a83398151915254604051908152f35b503461000e57600036600319011261000e57600080516020615e5a83398151915260028154146107425760028155600080516020615f7a83398151915254604051635c975abb60e01b815290602090829060049082906001600160a01b03165afa908115610735575b600091610707575b506106f5576001906106f1612559565b5055005b604051633b3b4caf60e21b8152600490fd5b610728915060203d811161072e575b61072081836104d4565b8101906124f0565b386106e1565b503d610716565b61073d612505565b6106d9565b604051637990191b60e11b8152600490fd5b503461000e57608036600319011261000e57610786610781600080516020615f7a83398151915254611862565b611862565b604051633e92a73360e11b8152906020908183806107a73060048301613cd4565b0381845afa928315610893575b600093610864575b50604051635091e19f60e11b815260048101849052908290829060249082905afa918215610857575b60009261082a575b5050336001600160a01b039091160361080c5761080a6004614645565b005b60405163123d8bcf60e21b81526004810191909152602490fd5b0390fd5b6108499250803d10610850575b61084181836104d4565b810190612533565b38806107ed565b503d610837565b61085f612505565b6107e5565b610885919350823d841161088c575b61087d81836104d4565b810190613c3b565b91386107bc565b503d610873565b61089b612505565b6107b4565b503461000e57600036600319011261000e576020600080516020615f5a83398151915254604051908152f35b6001600160a01b0381160361000e57565b60208091805184520151910152565b61091c909291926060604060a083019580518452610912602082015160208601906108dd565b01519101906108dd565b565b503461000e57602036600319011261000e5760043561093c816108cc565b6109446139f1565b5060018060a01b031660005260026020526106406109686002604060002001612c97565b604051918291826108ec565b503461000e57602036600319011261000e5761098e613167565b5061064061099f600435600a615072565b604051918291829190916020806040830194805184520151910152565b8015150361000e57565b503461000e5760208060031936011261000e57600435906109e6826109bc565b610a01610781600080516020615f7a83398151915254611862565b604051633e92a73360e11b81529190818380610a203060048301613cd4565b0381845afa928315610acb575b600093610aac575b50604051635091e19f60e11b815260048101849052908290829060249082905afa918215610a9f575b600092610a82575b5050336001600160a01b039091160361080c5761080a82613ce7565b610a989250803d106108505761084181836104d4565b3880610a66565b610aa7612505565b610a5e565b610ac4919350823d841161088c5761087d81836104d4565b9138610a35565b610ad3612505565b610a2d565b503461000e5760408060031936011261000e576004908135610af9816108cc565b600080516020615e5a833981519152926002845414610c425760028455600080516020615f7a833981519152548351635c975abb60e01b81526001600160a01b039182169160209182818681875afa908115610c35575b600091610c18575b50610c0857808516331491848315610ba9575b505050905015610b8c5750600092610b88600192602435906132f4565b5551f35b9151636dc3a3c360e01b8152918291610826913391908401612c42565b9193819350875192838092630479e58f60e41b82525afa918215610bfb575b600092610bde575b505016331480388084610b6b565b610bf49250803d106108505761084181836104d4565b3880610bd0565b610c03612505565b610bc8565b8551633b3b4caf60e21b81528490fd5b610c2f9150833d851161072e5761072081836104d4565b38610b58565b610c3d612505565b610b50565b8251637990191b60e11b8152fd5b503461000e5760408060031936011261000e576004908135610c71816108cc565b600080516020615e5a833981519152926002845414610c425760028455600080516020615f7a833981519152548351635c975abb60e01b81526001600160a01b039182169160209182818681875afa908115610da0575b600091610d83575b50610c0857600080516020615eda83398151915254610d7357808516331491848315610d14575b505050905015610b8c5750600092610b886001926024359061348f565b9193819350875192838092630479e58f60e41b82525afa918215610d66575b600092610d49575b505016331480388084610cf7565b610d5f9250803d106108505761084181836104d4565b3880610d3b565b610d6e612505565b610d33565b855163ded15dbf60e01b81528490fd5b610d9a9150833d851161072e5761072081836104d4565b38610cd0565b610da8612505565b610cc8565b503461000e57600036600319011261000e5760c0610dc9613e59565b6040519080511515825260a060018060401b039182602082015116602085015260408101511515604085015282606082015116606085015260808101511515608085015201511660a0820152f35b503461000e5760208060031936011261000e57610e45610781600080516020615f7a83398151915254611862565b604051633e92a73360e11b81529190818380610e643060048301613cd4565b0381845afa928315610f11575b600093610ef2575b50604051635091e19f60e11b815260048101849052908290829060249082905afa918215610ee5575b600092610ec8575b5050336001600160a01b039091160361080c5761080a60043561409b565b610ede9250803d106108505761084181836104d4565b3880610eaa565b610eed612505565b610ea2565b610f0a919350823d841161088c5761087d81836104d4565b9138610e79565b610f19612505565b610e71565b503461000e57600036600319011261000e576020600080516020615eba83398151915254604051908152f35b503461000e57602036600319011261000e57610f64613167565b5061064061099f600435600a6150dd565b503461000e5760208060031936011261000e57610fa3610781600080516020615f7a83398151915254611862565b604051633e92a73360e11b81529190818380610fc23060048301613cd4565b0381845afa92831561106f575b600093611050575b50604051635091e19f60e11b815260048101849052908290829060249082905afa918215611043575b600092611026575b5050336001600160a01b039091160361080c5761080a60043561440f565b61103c9250803d106108505761084181836104d4565b3880611008565b61104b612505565b611000565b611068919350823d841161088c5761087d81836104d4565b9138610fd7565b611077612505565b610fcf565b503461000e5760208060031936011261000e576110aa610781600080516020615f7a83398151915254611862565b604051633e92a73360e11b815291908183806110c93060048301613cd4565b0381845afa928315611176575b600093611157575b50604051635091e19f60e11b815260048101849052908290829060249082905afa91821561114a575b60009261112d575b5050336001600160a01b039091160361080c5761080a600435613f29565b6111439250803d106108505761084181836104d4565b388061110f565b611152612505565b611107565b61116f919350823d841161088c5761087d81836104d4565b91386110de565b61117e612505565b6110d6565b503461000e57602036600319011261000e576004356111a1816108cc565b60018060a01b03166000526002602052602060ff600760406000200154166040519015158152f35b503461000e57602036600319011261000e57600080516020615e5a83398151915260028154146107425760028155600080516020615f7a83398151915254604051635c975abb60e01b815290602090829060049082906001600160a01b03165afa90811561126f575b600091611251575b506106f55760019061124e6004353361378f565b55005b611269915060203d811161072e5761072081836104d4565b3861123a565b611277612505565b611232565b503461000e57600036600319011261000e576020600080516020615eda833981519152546040519015158152f35b503461000e57600036600319011261000e576112c46139f1565b506106406109686004612c97565b503461000e57600036600319011261000e576020600080516020615e1a83398151915254604051908152f35b503461000e57604036600319011261000e576020611358611333611326600435602435613c15565b61132e613dc0565b613a30565b611353670de0b6b3a764000061134d816301e13380613016565b92613016565b613bb4565b604051908152f35b503461000e5760208060031936011261000e5761138e610781600080516020615f7a83398151915254611862565b604051633e92a73360e11b815291908183806113ad3060048301613cd4565b0381845afa92831561145a575b60009361143b575b50604051635091e19f60e11b815260048101849052908290829060249082905afa91821561142e575b600092611411575b5050336001600160a01b039091160361080c5761080a6004356142cf565b6114279250803d106108505761084181836104d4565b38806113f3565b611436612505565b6113eb565b611453919350823d841161088c5761087d81836104d4565b91386113c2565b611462612505565b6113ba565b503461000e57602036600319011261000e57600435611485816108cc565b60018060a01b0316600052600260205261064060406000206114e0604051916114af6060846104d4565b6114b881612c77565b835260ff60076114ca60028401612c97565b92836020870152015416151560408401526148aa565b90816114fa575b5060405190151581529081906020820190565b6115059150516148cb565b386114e7565b503461000e57600036600319011261000e576020600080516020615d5a83398151915254604051908152f35b503461000e5760031960203682011261000e57600435906001600160401b03821161000e576102008260040191833603011261000e5760017f5db5abc19987c2b3729df7961b62b6bb0bae886dd47e3ce25bb3a3af34c6d80b81815410156116c357819055600080516020615dfa83398151915292818455303b1515806116bb575b6116a957333b15611697577fbe9b076dc5b65990cca9dd9d7366682482e7817a6f6bc7f4faf4dc32af497f329361168161167a61169295602460009533600080516020615f7a8339815191525561161f61161560a483016122d2565b6044830190614943565b6116276124b7565b61165f6116383661018484016122f8565b61016483013561014484013561012485013561010486013560e487013560c4880135613d31565b61167361166c848061235c565b90896123e2565b019061235c565b90856123e2565b556040519081529081906020820190565b0390a1005b6040516314878b6960e01b8152600490fd5b604051631a27c4a960e21b8152600490fd5b5060006115b9565b604051631e7a9d9560e01b815260048101839052602490fd5b503461000e57602036600319011261000e57600080516020615e5a83398151915260028154146107425760028155600080516020615f7a83398151915254604051635c975abb60e01b815290602090829060049082906001600160a01b03165afa9081156117a5575b600091611787575b506106f557600080516020615eda833981519152546117755760019061124e60043533612c5c565b60405163ded15dbf60e01b8152600490fd5b61179f915060203d811161072e5761072081836104d4565b3861174d565b6117ad612505565b611745565b503461000e57602036600319011261000e57600080516020615e5a83398151915260028154146107425760028155600080516020615f7a83398151915254604051635c975abb60e01b815290602090829060049082906001600160a01b03165afa908115611855575b600091611837575b506106f55760019061124e600435336132f4565b61184f915060203d811161072e5761072081836104d4565b38611823565b61185d612505565b61181b565b6001600160a01b031690565b503461000e57600036600319011261000e57600080516020615dba833981519152546040516001600160a01b039091168152602090f35b6040809180518452602081015160208501520151910152565b60608101929161091c91906118a5565b503461000e57602036600319011261000e5760606118ed600435614b87565b6118fa60405180926118a5565bf35b503461000e5760208060031936011261000e5761192a610781600080516020615f7a83398151915254611862565b604051633e92a73360e11b815291908183806119493060048301613cd4565b0381845afa9283156119f6575b6000936119d7575b50604051635091e19f60e11b815260048101849052908290829060249082905afa9182156119ca575b6000926119ad575b5050336001600160a01b039091160361080c5761080a600435614524565b6119c39250803d106108505761084181836104d4565b388061198f565b6119d2612505565b611987565b6119ef919350823d841161088c5761087d81836104d4565b913861195e565b6119fe612505565b611956565b503461000e57602036600319011261000e57600435611a21816108cc565b60018060a01b031660005260096020526020604060002054604051908152f35b503461000e57602036600319011261000e57600435611a5f816108cc565b60018060a01b0316600052600260205260206113586040600020615a6c565b503461000e5760408060031936011261000e576004908135611a9f816108cc565b600080516020615e5a833981519152926002845414610c425760028455600080516020615f7a833981519152548351635c975abb60e01b81526001600160a01b039182169160209182818681875afa908115611bbe575b600091611ba1575b50610c0857600080516020615eda83398151915254610d7357808516331491848315611b42575b505050905015610b8c5750600092610b8860019260243590612c5c565b9193819350875192838092630479e58f60e41b82525afa918215611b94575b600092611b77575b505016331480388084611b25565b611b8d9250803d106108505761084181836104d4565b3880611b69565b611b9c612505565b611b61565b611bb89150833d851161072e5761072081836104d4565b38611afe565b611bc6612505565b611af6565b503461000e57600036600319011261000e5761064061063460006001610504565b60408101929161091c91906108dd565b503461000e57602036600319011261000e57611c16613167565b506040611c266004356003615c22565b6118fa825180926108dd565b503461000e57600036600319011261000e57611c4c612512565b50600080516020615dba83398151915254604051634ec4474360e11b81526060916118ed91908390829060049082906001600160a01b03165afa908115611cc9575b600091611c9c575b50614c5d565b611cbc9150833d8111611cc2575b611cb481836104d4565b810190614b54565b38611c96565b503d611caa565b611cd1612505565b611c8e565b6060908051600f0b83526020810151600f0b60208401526040810151600f0b60408401528160018060801b0391015116910152565b503461000e57600036600319011261000e576080611d27613dc0565b6118fa6040518092611cd6565b503461000e57602036600319011261000e57600435611d52816108cc565b60018060a01b031660005260026020526020611358611d8a6040600020611d846002611d7d83612c77565b9201612c97565b90613182565b615a8a565b503461000e57602036600319011261000e57600435611dad816108cc565b611db5613167565b5060018060a01b031660005260026020526040611c2681600020612c77565b503461000e57600036600319011261000e576020600a54604051908152f35b503461000e57602036600319011261000e57600080516020615e5a83398151915260028154146107425760028155600080516020615f7a83398151915254604051635c975abb60e01b815290602090829060049082906001600160a01b03165afa908115611eaa575b600091611e8c575b506106f557600080516020615eda833981519152546117755760019061124e6004353361348f565b611ea4915060203d811161072e5761072081836104d4565b38611e64565b611eb2612505565b611e5c565b503461000e5760208060031936011261000e57611ee5610781600080516020615f7a83398151915254611862565b604051633e92a73360e11b81529190818380611f043060048301613cd4565b0381845afa928315611fb1575b600093611f92575b50604051635091e19f60e11b815260048101849052908290829060249082905afa918215611f85575b600092611f68575b5050336001600160a01b039091160361080c5761080a600435613fe2565b611f7e9250803d106108505761084181836104d4565b3880611f4a565b611f8d612505565b611f42565b611faa919350823d841161088c5761087d81836104d4565b9138611f19565b611fb9612505565b611f11565b503461000e5760408060031936011261000e576004908135611fdf816108cc565b600080516020615e5a833981519152926002845414610c425760028455600080516020615f7a833981519152548351635c975abb60e01b81526001600160a01b039182169160209182818681875afa9081156120ea575b6000916120cd575b50610c085780851633149184831561206e575b505050905015610b8c5750600092610b886001926024359061378f565b9193819350875192838092630479e58f60e41b82525afa9182156120c0575b6000926120a3575b505016331480388084612051565b6120b99250803d106108505761084181836104d4565b3880612095565b6120c8612505565b61208d565b6120e49150833d851161072e5761072081836104d4565b3861203e565b6120f2612505565b612036565b503461000e57602036600319011261000e57600435612115816108cc565b600080516020615e5a83398151915260028154146107425760028155600080516020615f7a83398151915254604051635c975abb60e01b815290602090829060049082906001600160a01b03165afa9081156121ab575b60009161218d575b506106f55761124e600192612187612559565b90612882565b6121a5915060203d811161072e5761072081836104d4565b38612174565b6121b3612505565b61216c565b503461000e57602036600319011261000e576004356121d6816108cc565b600460206121f5610781600080516020615f7a83398151915254611862565b60405163d8dfeb4560e01b815292839182905afa908115612262575b600091612244575b506001600160a01b031633036122325761080a9061396c565b6040516340cbe9b160e01b8152600490fd5b61225c915060203d81116108505761084181836104d4565b38612219565b61226a612505565b612211565b503461000e57600036600319011261000e57600080516020615f7a833981519152546040516001600160a01b039091168152602090f35b503461000e57600036600319011261000e576020600080516020615e9a83398151915254604051908152f35b35610547816108cc565b9061091c60405192836104d4565b359081600f0b820361000e57565b919082608091031261000e576040516123126080826104d4565b6060819361231f816122ea565b835261232d602082016122ea565b602084015261233e604082016122ea565b60408401520135906001600160801b038216820361000e5760600152565b903590601e198136030182121561000e57018035906001600160401b03821161000e5760200191813603831361000e57565b90601f811161239c57505050565b600091825260208220906020601f850160051c830194106123d8575b601f0160051c01915b8281106123cd57505050565b8181556001016123c1565b90925082906123b8565b9092916001600160401b0381116124aa575b612408816124028454610483565b8461238e565b6000601f82116001146124425781929394600092612437575b50508160011b916000199060031b1c1916179055565b013590503880612421565b601f1982169461245784600052602060002090565b91805b878110612492575083600195969710612478575b505050811b019055565b0135600019600384901b60f8161c1916905538808061246e565b9092602060018192868601358155019401910161245a565b6124b26104bd565b6123f4565b303b1515806124d9575b6116a9576001600080516020615e5a83398151915255565b50600080516020615dfa83398151915254156124c1565b9081602091031261000e5751610547816109bc565b506040513d6000823e3d90fd5b604051906125216060836104d4565b60006040838281528260208201520152565b9081602091031261000e5751610547816108cc565b908152602081019190915260400190565b612561612512565b5061257a600080516020615f7a83398151915254611862565b90612583614c08565b91600a5490835182146127e25761259982614b87565b906125a685516004612815565b855181036127d3575084915b604051631bf1901f60e21b81526001600160a01b03926020929084169184908481600481875afa9081156127c6575b6000916127a9575b501690813b1561000e5760405163a55ff01d60e01b81528992600090829081838161261789600483016118be565b03925af1801561279c575b612787575b506126578661264f612637613c4a565b9361264983600092600388600a61511e565b906127fd565b986003615c81565b61265f61469d565b8551825103612759575b5050816004916040519283809263d8dfeb4560e01b82525afa91821561274c575b60009261272f575b50501691823b1561000e57604051637f3dd53b60e01b815260048101919091527f88a84ea6dd274b386afd27dbbe11b6192b25017f5e60bb8c4053dfddb45c294d926000908290602490829084905af18015612722575b612707575b505183519061270260405192839283612548565b0390a1565b80612716600061271c936104d4565b806103f0565b386126ee565b61272a612505565b6126e9565b6127459250803d106108505761084181836104d4565b3880612692565b612754612505565b61268a565b60049296612649859388600361277095600a61511e565b9561277e8987516003615c81565b91889150612669565b806127166000612796936104d4565b38612627565b6127a4612505565b612622565b6127c09150853d87116108505761084181836104d4565b386125e9565b6127ce612505565b6125e1565b6127dc90614b87565b916125b2565b5050565b50634e487b7160e01b600052601160045260246000fd5b81198111612809570190565b6128116127e6565b0190565b548061281f575090565b600191506001198111612809570190565b9060018060a01b0316600052602052604060002090565b6001600160a01b03909116815260808101929161091c91602001906118a5565b6001600160a01b039091168152602081019190915260400190565b61289a600080516020615f7a83398151915254611862565b6128a5826009612830565b54835114612bd0576128c560026128bc8482612830565b01845190612815565b83518103612bc1575082915b60408051631bf1901f60e21b8082526004956001600160a01b0395919392909160209190871690600090889084818c81875afa908115612bb4575b8391612b97575b5016803b15612b9357918961298b8361294881898e99988e87998e5180968195829463060c0d2760e21b9c8d85528401612847565b03925af18015612b86575b612b72575b506129856129808c61297661296e826009612830565b916002612830565b600a8c5192614f47565b612c0e565b90612bd5565b976129a08761299b8c6002612830565b6159da565b86518d5103612a94575b5050829086519283809263d8dfeb4560e01b82525afa918215612a87575b600092612a6a575b505016803b1561000e576000612a4394612a229287837f9d7055d24918d8c2fd08660a27bf31d4086fa71a51cd07874276470223aa480f9b8851968795869485936364e5a46f60e11b85528401612867565b03925af18015612a5d575b612a48575b505195519051938493169583612548565b0390a2565b806127166000612a57936104d4565b38612a32565b612a65612505565b612a2d565b612a809250803d106108505761084181836104d4565b38806129d0565b612a8f612505565b6129c8565b909491979250865190815283818c818b5afa908115612b65575b600091612b48575b5016803b1561000e57612b1e8a926129856129808b8f808f9a838b998f60008094612aed8f93519788968795869485528401612847565b03925af18015612b3b575b612b26575b50600a612b16612b0e846009612830565b936002612830565b915192614f47565b9690386129aa565b806127166000612b35936104d4565b38612afd565b612b43612505565b612af8565b612b5f9150843d86116108505761084181836104d4565b38612ab6565b612b6d612505565b612aae565b8061271683612b80936104d4565b38612958565b612b8e612505565b612953565b5080fd5b612bae9150853d87116108505761084181836104d4565b38612913565b612bbc612505565b61290c565b612bca90614b87565b916128d1565b505050565b6000811280156001600160ff1b03839003841316612c01575b600160ff1b829003831216612809570190565b612c096127e6565b612bee565b805160209091015190600081126001600160ff1b038290038313811516612c0157600160ff1b829003831216612809570190565b6001600160a01b0391821681529116602082015260400190565b9061091c91612c72612c6c612559565b82612882565b612ccf565b90604051612c866040826104d4565b602060018294805484520154910152565b90604051612ca66060826104d4565b6040612cca6003839580548552612cbf60018201612c77565b602086015201612c77565b910152565b60018060a01b03908181166000526020916002835260409360ff600786600020015416612e765790612d02849284612e87565b81612d1e610781600080516020615f7a83398151915254611862565b9186519586809463d8dfeb4560e01b825260049889915afa928315612e69575b600093612e4a575b5086516301c8232360e71b8152928391829081612d66308a8c8401612c42565b0392165afa918215612e3d575b600092612e20575b5050612e1157612d8f612d94916002612830565b615b68565b612e0357600080516020615eda833981519152546127e257612dcb612dc6612dbd600a54613a1c565b611d8484612c97565b61325c565b91612dde670de0b6b3a764000084613139565b15612de857505050565b5163d8b8b95160e01b81529081019182529081906020010390fd5b90516390898fd160e01b8152fd5b5090516324a21d2960e01b8152fd5b612e369250803d1061072e5761072081836104d4565b3880612d7b565b612e45612505565b612d73565b612e62919350823d84116108505761084181836104d4565b9138612d46565b612e71612505565b612d3e565b8451636830d4d760e01b8152600490fd5b90612e93600a54614b87565b90612ead816002612ea48682612830565b018451906132de565b612eba81835160046132de565b612ee9612ed3612ecd6040850151613156565b83613122565b600080516020615eba8339815191525490613122565b9182612f1f575b516040516001600160a01b0390941693600080516020615d9a8339815191529350918291612a43919083612548565b612f7860046020612f41610781600080516020615f7a83398151915254611862565b60405163d8dfeb4560e01b815292839182905afa908115613009575b600091612feb575b506001600160a01b0316936000196130a1565b833b1561000e576000612fb3600080516020615d9a8339815191529582936040519485809481936364e5a46f60e11b83528c60048401612867565b03925af18015612fde575b612fc9575b50612ef0565b806127166000612fd8936104d4565b38612fc3565b612fe6612505565b612fbe565b613003915060203d81116108505761084181836104d4565b38612f65565b613011612505565b612f5d565b6000808213908313836001600160ff1b03838316828204861116613094575b600160ff1b936000831293908416868605841216613087575b8260008712950586129085161661307a575b05831291161661306e570290565b6130766127e6565b0290565b6130826127e6565b613060565b61308f6127e6565b61304e565b61309c6127e6565b613035565b600081136130ca576000136130b65750600090565b6130c2610547916130d0565b600019613016565b50610547905b6001600160ff1b0381116130e15790565b6024906040519062a07eb560e01b82526004820152fd5b806000190482118115151661306e570290565b50634e487b7160e01b600052601260045260246000fd5b670de0b6b3a764000091613135916130f8565b0490565b81811161314f571061314a57600190565b600090565b5050600290565b6000808212613163575090565b0390565b604051906131766040836104d4565b60006020838281520152565b9060406131a061054793613194613167565b506020840151906131a9565b910151906131ec565b906131d3906131b6613167565b506020806131c785518451906127fd565b940151910151906127fd565b604051916131e26040846104d4565b8252602082015290565b6131f4613167565b5080519160208082519384861061323c575b01519101519182821061322f575b604051936132236040866104d4565b03835203602082015290565b6132376127e6565b613214565b6132446127e6565b613206565b818110613254570390565b6131636127e6565b6020810151600091908061327957505050670de0b6b3a764000090565b613283915161329f565b670de0b6b3a764000091508082101561329a575090565b905090565b670de0b6b3a76400009080600019048211811515166132d1575b82156132c457020490565b6132cc61310b565b020490565b6132d96127e6565b6132b9565b90916132ef600283019182546127fd565b905555565b6132ff612c6c612559565b6001600160a01b03811660008181526002602052604090206007015490929060ff1661335b5761332e9161336d565b60005260026020526133436040600020615bce565b61334957565b604051633975ab9360e01b8152600490fd5b604051636830d4d760e01b8152600490fd5b90613379600a54614b87565b9061339381600261338a8682612830565b0184519061347e565b6133a0818351600461347e565b6133b3612ed3612ecd6040850151613156565b91826133e9575b516040516001600160a01b0390941693600080516020615e3a8339815191529350918291612a43919083612548565b61340b60046020612f41610781600080516020615f7a83398151915254611862565b833b1561000e576000613446600080516020615e3a8339815191529582936040519485809481936364e5a46f60e11b83528c60048401612867565b03925af18015613471575b61345c575b506133ba565b80612716600061346b936104d4565b38613456565b613479612505565b613451565b90916132ef600483019182546127fd565b906134a161349b612559565b83612882565b600a54156136355760018060a01b03918281166000526020926002845260409260ff60078560002001541661362457906134dc859284613647565b816134f8610781600080516020615f7a83398151915254611862565b9185519687809463d8dfeb4560e01b82526004998a915afa928315613617575b6000936135f8575b5085516301c8232360e71b8152928391829081613540308a8d8401612c42565b0392165afa9182156135eb575b6000926135ce575b50506135c057612d8f613569916002612830565b6135b35761359e61358761357e600a54613a1c565b611d8485612c97565b51600080516020615f5a833981519152549061376e565b6135a6575050565b5163677e872f60e11b8152fd5b516390898fd160e01b8152fd5b50516324a21d2960e01b8152fd5b6135e49250803d1061072e5761072081836104d4565b3880613555565b6135f3612505565b61354d565b613610919350823d84116108505761084181836104d4565b9138613520565b61361f612505565b613518565b8351636830d4d760e01b8152600490fd5b60405163c25d67ab60e01b8152600490fd5b90613653600a54614b87565b9061366d8160026136648682612830565b0184519061377e565b61367a818351600461377e565b6136a361368d612ecd6040850151613156565b600080516020615e9a8339815191525490613122565b91826136d9575b516040516001600160a01b0390941693600080516020615f3a8339815191529350918291612a43919083612548565b6136fb60046020612f41610781600080516020615f7a83398151915254611862565b833b1561000e576000613736600080516020615f3a8339815191529582936040519485809481936364e5a46f60e11b83528c60048401612867565b03925af18015613761575b61374c575b506136aa565b80612716600061375b936104d4565b38613746565b613769612505565b613741565b60029161377a91613139565b1490565b90916132ef600183019182546127fd565b9061091c9161379f612c6c612559565b6001600160a01b03811660008181526002602052604090206007015490929060ff1661335b576137ce9161384a565b60005260026020526137e36040600020615bce565b61334957600080516020615eda8339815191525461091c57613816612dc661380c600a54613a1c565b611d846004612c97565b613828670de0b6b3a764000082613139565b156138305750565b60405163d8b8b95160e01b81526004810191909152602490fd5b90613856600a54614b87565b906138708160026138678682612830565b0184519061395b565b61387d818351600461395b565b61389061368d612ecd6040850151613156565b91826138c6575b516040516001600160a01b0390941693600080516020615f9a8339815191529350918291612a43919083612548565b6138e860046020612f41610781600080516020615f7a83398151915254611862565b833b1561000e576000613923600080516020615f9a8339815191529582936040519485809481936364e5a46f60e11b83528c60048401612867565b03925af1801561394e575b613939575b50613897565b806127166000613948936104d4565b38613933565b613956612505565b61392e565b90916132ef600383019182546127fd565b600080516020615eda833981519152546117755760079061398e612c6c612559565b6139e360018060a01b0382169182600052600260205260206139d06040600020946139b886612c77565b9060005260028352611d846002604060002001612c97565b6139db81518461384a565b01519061336d565b01805460ff19166001179055565b60405190613a006060836104d4565b8160008152613a0d613167565b60208201526040612cca613167565b61054790613a28613167565b506003615c22565b60608101519091906001600160801b0316613a4b8183613139565b15613a9357670de0b6b3a764000090613a648284613139565b15613a765750505060200151600f0b90565b90839160206040610547960151930151600f0b92600f0b90613aa9565b916105479260408251920151600f0b91600f0b60005b93929092613ab78582613139565b158015613b6a575b613b5857613b18613b1385928780876105479a613b1f9910613b4b575b600087128015600160ff1b89018a1216613b3e575b6001600160ff1b038801891316613b31575b818410613b24575b03910361329f565b6130d0565b9103613be9565b612bd5565b613b2c6127e6565b613b0b565b613b396127e6565b613b03565b613b466127e6565b613af1565b613b536127e6565b613adc565b604051630db0f7cb60e01b8152600490fd5b506002613b778483613139565b14613abf565b600082128015600160ff1b8401831216613ba7575b6001600160ff1b038301821316613254570390565b613baf6127e6565b613b92565b8115613bdc575b600160ff1b8114600019831416613bd0570590565b613bd86127e6565b0590565b613be461310b565b613bbb565b61135361054792670de0b6b3a764000092613016565b90611353670de0b6b3a764000061054793613016565b9080613c325750613c2c57670de0b6b3a764000090565b60001990565b6105479161329f565b9081602091031261000e575190565b600080516020615e1a83398151915254600080516020615f7a8339815191525460405163e975c0c360e01b815290602090829060049082906001600160a01b03165afa908115613cc7575b600091613ca9575b5080821061329a575090565b613cc1915060203d811161088c5761087d81836104d4565b38613c9d565b613ccf612505565b613c95565b6001600160a01b03909116815260200190565b7f482763b305ee10cd21c16c0cbeed259f2e4fcacdc9767cef16dc1fbe483d34886020613d12612559565b83600080516020615eda833981519152555192604051938452151592a2565b95949295939093303b151580613d82575b6116a95761091c96613d6e613d7894613d69613d7d98613d64613d7396613ede565b613f7c565b614035565b614269565b6143a9565b6144e9565b614577565b50600080516020615dfa8339815191525415613d42565b60405190613da86080836104d4565b60006060838281528260208201528260408201520152565b613dc8613d99565b50613dd1613d99565b50604051613de06080826104d4565b600080516020615f1a8339815191525480600f0b825260801d600f0b6020820152600080516020615efa8339815191525480600f0b604083015260801c606082015290565b60405190613e3460c0836104d4565b8160a06000918281528260208201528260408201528260608201528260808201520152565b613e61613e25565b50613e6a613e25565b50604051613e7960c0826104d4565b600080516020615d7a8339815191525460ff808216151583526001600160401b03600883901c81166020850152604883901c821615156040850152605083901c81166060850152609083901c9091161515608084015260989190911c1660a082015290565b7f18eb97ecd7366a8be310b7e675d67335c7604d5f47446a54a222473625a27e229080600080516020615d5a83398151915255613f19614785565b9061270260405192839283612548565b303b1561000e57604051630476982d60e21b815261091c919060008160048183305af18015613f6f575b613f5e575b50613ede565b6000613f69916104d4565b38613f58565b613f77612505565b613f53565b6002613f90670de0b6b3a764000083613139565b14613fd057807fb2743902575ffdab882dfa43a3501f82fbbefa0d2c637e393aed1e80e2cb840b91600080516020615e1a83398151915255613f19614785565b6040516382894f6b60e01b8152600490fd5b303b1561000e57604051630476982d60e21b815261091c919060008160048183305af18015614028575b614017575b50613f7c565b6000614022916104d4565b38614011565b614030612505565b61400c565b6002614049670de0b6b3a764000083613139565b1461408957807f6bf5f38f4e94f47ae7a4d6e56dbf388c856f890b5f0f2808b66914710b0266ca91600080516020615e9a83398151915255613f19614785565b60405163665d643f60e11b8152600490fd5b303b1561000e57604051630476982d60e21b815260008160048183305af1801561418e575b61417d575b506140ce614804565b6141745760026140e6670de0b6b3a764000083613139565b14614089576140f3613e59565b6001600160401b0380831161415b579161414b612702927f5dcd1837ba774ef7f1f06e50ad3f64097201da74055346f26a4c7dea9af9084e948316602082015260018152600080516020615d7a83398151915261419b565b6040519081529081906020820190565b60405163477e89e360e01b815260048101849052602490fd5b61091c90614035565b6000614188916104d4565b386140c5565b614196612505565b6140c0565b81518154602084015160408501516060860151600160501b600160901b0360509190911b166001600160901b031990931693151560ff1693909317610100600160481b0360089290921b919091161760ff60481b92151560481b929092169190911717815561091c916142439060a09061423561421b6080830151151590565b855460ff60901b191690151560901b60ff60901b16178555565b01516001600160401b031690565b8154600160981b600160d81b03191660989190911b600160981b600160d81b0316179055565b600261427d670de0b6b3a764000083613139565b146142bd57807f8e37539629486a88c6a6083eb90030fb61cb856d56d96f53a326fda0d399ef3291600080516020615eba83398151915255613f19614785565b6040516322c4def360e11b8152600490fd5b303b1561000e57604051630476982d60e21b815260008160048183305af1801561439c575b61438b575b50614302614804565b61438257600261431a670de0b6b3a764000083613139565b146142bd57614327613e59565b6001600160401b0380831161415b579161414b612702927f4024ee9b51b90807c93e46f7e500580ef5b0b8491e1105188a44f62eed26b129948316606082015260016040820152600080516020615d7a83398151915261419b565b61091c90614269565b6000614396916104d4565b386142f9565b6143a4612505565b6142f4565b60026143bd670de0b6b3a764000083613139565b146143fd57807fd07cf37924efa8fca893c372ddfb1614e6fd8c02cfcc9205262535680b77b93491600080516020615e7a83398151915255613f19614785565b6040516307eb5d1760e21b8152600490fd5b303b1561000e57604051630476982d60e21b815260008160048183305af180156144dc575b6144cb575b50614442614804565b6144c257600261445a670de0b6b3a764000083613139565b146143fd57614467613e59565b6001600160401b0380831161415b579161414b612702927f75d77d82706bf877275b9bc542ae4f30aca347d73558e05b56b35a1452f8613294831660a082015260016080820152600080516020615d7a83398151915261419b565b61091c906143a9565b60006144d6916104d4565b38614439565b6144e4612505565b614434565b7fec4e0c10e4e0d362960c0114996546aa9c4d6cc297b00a7577e127b720791beb9080600080516020615f5a83398151915255613f19614785565b303b1561000e57604051630476982d60e21b815261091c919060008160048183305af1801561456a575b614559575b506144e9565b6000614564916104d4565b38614553565b614572612505565b61454e565b60a07fb08b24c7f4e8b392d39bbaf1f4aa9bbb733ba9a467559eb8d9e2ffb634658e9091805161460960018060801b031991600080516020615f1a8339815191526145db8482541660018060801b03938416178083556020870151600f0b90614628565b90556040840151600080516020615efa83398151915293845416908216179081845560608501511690614628565b9055614613614785565b6146206040518093611cd6565b6080820152a1565b6001600160801b031660809190911b6001600160801b0319161790565b303b1561000e57604051630476982d60e21b815261091c91613d7d9160008160048183305af18015614690575b61467f575b5036906122f8565b600061468a916104d4565b38614677565b614698612505565b614672565b6146a5613e59565b8051159081158092614778575b801561476b575b156127e25761091c9161474f575b6040810151614733575b6080810151614717575b6147038160a06000918281528260208201528260408201528260608201528260808201520152565b600080516020615d7a83398151915261419b565b60a081015161472e906001600160401b03166143a9565b6146db565b606081015161474a906001600160401b0316614269565b6146d1565b6020810151614766906001600160401b0316614035565b6146c7565b50608081015115156146b9565b50604081015115156146b2565b303b1561314a5760405163301fd1f560e21b8152602081600481305afa9081156147cd575b6000916147b5575090565b610547915060203d811161088c5761087d81836104d4565b6147d5612505565b6147aa565b919082604091031261000e576040516147f46040826104d4565b6020808294805184520151910152565b6040516359ea287d60e01b815260a081600481305afa801561489d575b600090614833575b61054791506148aa565b60a03d8111614896575b61484781846104d4565b82019060a0838303126148935750906148896105479260606040519361486d82866104d4565b8051855261487e83602083016147da565b6020860152016147da565b6040820152614829565b80fd5b503d61483d565b6148a5612505565b614821565b6148b760208201516148cb565b90816148c1575090565b6105479150604001515b80511590816148d8575090565b6020915001511590565b6148ea612512565b506148f3612512565b506040516149026060826104d4565b600080516020615dda8339815191525460ff811661491f816103fb565b825260ff8160081c16614931816103fb565b602083015261ffff1916604082015290565b303b151580614a24575b6116a9576001600160a01b0316803b15614a1257600080516020615dba8339815191525561498361497e3683614a45565b614a98565b15614a0057614993903690614a45565b80519061499f826103fb565b6149a8826103fb565b600080516020615dda8339815191529160ff83549116908160ff198216178455604061ff0060208501516149db816103fb565b6149e4816103fb565b60081b1693848461ffff19809516171786550151169117179055565b604051639a51fe8f60e01b8152600490fd5b60405163d26af10d60e01b8152600490fd5b50600080516020615dfa833981519152541561494d565b6002111561000e57565b919082606091031261000e57604051614a5f6060826104d4565b604081938035614a6e81614a3b565b83526020810135614a7e81614a3b565b602084015201359061ffff198216820361000e5760400152565b60018151614aa5816103fb565b614aae826103fb565b614ab7816103fb565b14614ac9576040015161ffff19161590565b6001600160a01b0390614adb90614ae2565b163b151590565b60018151614aef816103fb565b614af8826103fb565b614b01816103fb565b03614b19576040015160101c6001600160a01b031690565b8051604491614b27826103fb565b604061ffff1991015116604051916327ada38760e11b8352614b48816103fb565b60048301526024820152fd5b9081606091031261000e576040805191614b6f6060846104d4565b80518352602081015160208401520151604082015290565b61054790614b93612512565b50600080516020615dba83398151915254604051637ece075d60e01b81526004810192909252606090829060249082906001600160a01b03165afa908115614bfb575b600091614be35750614c5d565b611cbc915060603d8111611cc257611cb481836104d4565b614c03612505565b614bd6565b614c10612512565b50600080516020615dba8339815191525460405160016209351760e01b0319815261054791606090829060049082906000906001600160a01b03165af1908115614bfb57600091614be357505b614c65612512565b50614c6e6148e2565b614c7e6040830191825190614ca6565b905290565b6040810193929160209190614c97816103fb565b8152614ca2836103fb565b0152565b8051614cb1816103fb565b6020820192835192614cc2846103fb565b614ccc60006103fb565b614cd5836103fb565b82614d655750925b8051614ce8816103fb565b614cf260006103fb565b614cfb816103fb565b614d055750505090565b60019051614d12816103fb565b614d1b826103fb565b614d24816103fb565b03614d4957505061054790614d43670de0b6b3a7640000600019613016565b90613be9565b610826604051928392631fafe5ed60e21b845260048401614c83565b614d6f60016103fb565b614d78836103fb565b60018303614d905790614d8a91614dae565b92614cdd565b5050610826604051928392631fafe5ed60e21b845260048401614c83565b6001600160a01b0390614dc090614ae2565b16604051906020928383019063d7c7a93560e01b8252602484015260248352614dea6044846104d4565b614df46025614ee5565b92614e0260405194856104d4565b602584527f416464726573733a206c6f772d6c6576656c207374617469632063616c6c20668585015264185a5b195960da1b6040850152823b15614e94576000614e7f93610547969593829351915afa3d15614e8c573d90614e6382614ee5565b91614e7160405193846104d4565b82523d60008684013e614f0f565b8051810182019101613c3b565b606090614f0f565b60405162461bcd60e51b8152600481018690526024808201527f416464726573733a207374617469632063616c6c20746f206e6f6e2d636f6e746044820152631c9858dd60e21b6064820152608490fd5b6020906001600160401b038111614f02575b601f01601f19160190565b614f0a6104bd565b614ef7565b90919015614f1b575090565b815115614f2b5750805190602001fd5b60405162461bcd60e51b815290819061082690600483016105bd565b93929190614fe9614fee92614f5a613167565b50614f71614f688685615072565b93885490615072565b92614f7a613167565b5080519380516000811292602080600160ff1b928484018a12871516615019575b6001600160ff1b03968588018b131661500c575b01519301518094816000811293018512831516614fff575b01831316614ff2575b614fda60406122dc565b95038552036020840152612c77565b615026565b9255565b614ffa6127e6565b614fd0565b6150076127e6565b614fc7565b6150146127e6565b614faf565b6150216127e6565b614f9b565b906113536113536131d392615039613167565b5060206150698161506161504d89516130d0565b670de0b6b3a7640000978891875190613016565b9701516130d0565b91015190613016565b60019161507d613167565b506000520160205261054760406000206040519061509c6040836104d4565b5480600f0b825260801d600f0b60208201526150b6613167565b5060208151910151604051916150cd6040846104d4565b600f0b8252600f0b602082015290565b60029161507d613167565b815181546001600160801b0319166001600160801b0390911617808255602090920151909161511a91600f0b90614628565b9055565b9294939190948080516151319084615c22565b9684828961513d613167565b50615147936153e2565b919061515486838b615609565b61515d91615337565b9360010161516a90612c97565b906151759189615720565b939061518091615337565b9261518a916127fd565b95615193613167565b6020850151926020810151908185106152036151fe61523f986152279860206151fe996151f998615220976152a8575b8084039382511560001461526a57505060005b8a52019081511560001461524457505060005b60208801526151f985518d615072565b615337565b6152b5565b61521b895160018c0190600052602052604060002090565b6150e8565b51876150dd565b61521b83516002860190600052602052604060002090565b519055565b6152659161525d670de0b6b3a7640000613b13936130f8565b90519061329f565b6151e9565b61529691613b1391670de0b6b3a764000091141560001987900482111661529b575b835190860261329f565b6151d6565b6152a36127e6565b61528c565b6152b06127e6565b6151c3565b6152bd613167565b506152d560206152cd83516152e4565b9201516152e4565b604051916150cd6040846104d4565b60016001607f1b03811361531f5760016001607f1b0319811261530757600f0b90565b60249060405190634e02165d60e01b82526004820152fd5b60249060405190632cd75ba360e11b82526004820152fd5b90615340613167565b50602082519282519060008512938360018060ff1b039287840385138715166153d5575b600160ff1b968888038612166153c8575b01519384910151948160008112930386138315166153bb575b038412166153ae575b6153a160406122dc565b9301835201602082015290565b6153b66127e6565b615397565b6153c36127e6565b61538e565b6153d06127e6565b615375565b6153dd6127e6565b615364565b9391939290926153f0613167565b9460409182519363597e1fb560e01b85526020948581600481305afa9081156155e2575b6000916155c5575b506155b2578487019081511561559157875115615591578501518584015161544391613249565b92848251615450906130d0565b91015161545c91613be9565b61546590613156565b61546e8861325c565b61547791613122565b935163307648eb60e11b815290858083806154958c60048301611bec565b0381305afa938415996154e761554f98614d436154e1614d43996155169f99615531986155469b615584575b600092615567575b5050614d43613b13670de0b6b3a7640000809e6130f8565b916130d0565b90615537600061551c8a6155046154fd87613156565b97886130f8565b049e8f615510876155ef565b97613249565b866130a1565b941291821561555d5761553184915b516130d0565b90613bff565b8d5215615555575091516130d0565b91600019613016565b90840152565b90509161552b565b615531859161552b565b61557d9250803d1061088c5761087d81836104d4565b388e6154c9565b61558c612505565b6154c1565b5050505060009294506155a59193506122dc565b9181835282015290600090565b50505060009294506155a59193506122dc565b6155dc9150863d881161072e5761072081836104d4565b3861541c565b6155ea612505565b615414565b6000811361560357600013613c2c57600090565b50600190565b929192615614613167565b9360409283519363597e1fb560e01b85526020948581600481305afa908115615713575b6000916156f6575b506156e357848401928351156156c5578451156156c5576156a361569d61569661568a61568061553197876156bf9b9a986156b798015191015190613b7d565b614d4387516130d0565b614d43613b138961325c565b95516130d0565b85613bff565b614d43670de0b6b3a7640000600019613016565b8752516130d0565b90830152565b509150506000929394506156d991506122dc565b9181835282015290565b9150506000929394506156d991506122dc565b61570d9150863d881161072e5761072081836104d4565b38615640565b61571b612505565b615638565b9192909261572c613167565b93615736816148aa565b61581757906157449161586e565b60405190630dbc9ce160e01b825261578a61578461577d6020948581600481305afa90811561580a575b6000916157ed575b508461581f565b80936131ec565b9161585d565b8451909490156157d75782906157a8613b138385015183519061329f565b87525b018051909190156157c75761554f91613b13915190519061329f565b90506105479293915051906127fd565b936157e7839182840151906127fd565b946157ab565b6158049150863d881161088c5761087d81836104d4565b38615776565b615812612505565b61576e565b506000925050565b90615828613167565b5061584d670de0b6b3a7640000916020836158448387516130f8565b049401516130f8565b04604051916131e26040846104d4565b6105479060208151910151906127fd565b615876613167565b506158c96158b4615892602093604085820151910151906131a9565b936158c1846158b96158b460406158a98a516130d0565b950194855190613be9565b613156565b9601516130d0565b905190613be9565b604051633f1d071f60e21b815290928282600481305afa91821561599c575b600092615979575b5061593890615909670de0b6b3a76400009384926130f8565b6040516343f0179b60e01b8152919004948482600481305afa91821561596c575b60009261594d575b506130f8565b049061594460406122dc565b92835282015290565b615965919250853d871161088c5761087d81836104d4565b9038615932565b615974612505565b61592a565b61593891925061599590843d861161088c5761087d81836104d4565b91906158f0565b6159a4612505565b6158e8565b6004906000926159cd575b8281558260018201558260028201558260038201550155565b6159d561046c565b6159b4565b60206159fd6159e883612c77565b9360028401946159f786612c97565b90615a29565b815184559101516001830155615a11575050565b615a1e60006007936159a9565b01805460ff19169055565b91615a32613167565b50615a3c826148aa565b159081615a60575b5015615a5957615a5391613182565b90600190565b5090600090565b90505181511038615a44565b60ff600782015416615a8457611d8a61054791612c77565b50600090565b613135615ad86158b4670de0b6b3a764000093615ad3613b1360408051634ec4474360e11b8152606081600481305afa908115615b48575b600091615b2a575b50015192615b55565b613be9565b604051636c376cc560e01b815290602082600481305afa918215615b1d575b600092615b0457506130f8565b61596591925060203d811161088c5761087d81836104d4565b615b25612505565b615af7565b615b42915060603d8111611cc257611cb481836104d4565b38615aca565b615b50612505565b615ac2565b805160209091015180821061329a575090565b80541580615bc2575b80615bb6575b6001820154159182615ba9575b82615b9c575b50159081615b96575090565b90501590565b6006015415915038615b8a565b6004810154159250615b84565b50600581015415615b77565b50600381015415615b71565b615bec615bda82612c77565b615be660038401612c77565b906131a9565b6002615bfe6005840154835190613139565b14918215615c0b57505090565b600601546020909101516002925061377a91613139565b90615c2b613167565b50600052602052604060002060405190615c466040836104d4565b546001600160801b03808216835260809190911c60208301908152918190615c6c613167565b505116915116604051916131e26040846104d4565b90615c8c9082615c22565b91615d19615ca28260018501956159f787612c97565b9390615cac613167565b50615cc46020615cbc8351615d2d565b920151615d2d565b9160405194615cd46040876104d4565b6001600160801b0392831686529282166020808701918252935160009081529190935260409020935184546001600160801b0319169082161780855591511690614628565b9055615d225750565b600061091c916159a9565b6001600160801b0390818111615d41571690565b60249060405190635385129160e01b82526004820152fdfe968cf792ff9a89745e4746179e93a7b9d7f08b0ff8366fd6f6dbd524ef107464d729c7f2aea8904a802db9fc1939086967cdf7fffe1510c25ccafabfc894614eb9726781b72c53f23217f424d70445b222951f008aeac7eece8139caed71ed2d6c0d5e3cd81753b1b21f67f61d56a97aae7a3e0179486d114788ad4576f53266630ac9ad193fa8d8f5a7207eefdee35934d664003a3d4c286a591e065a62034ead57d7911b7e3d6c3c79a68ba909a7f4ba41f9485e5207b12dee0d0c6af5398cace7e947336f94057b47a9ab5531b0363e85c8d36c05c7d915ec8e525fd159d863625b85818a29587ee919ee6a968ee0b32f3513f2884b3968001062ba49eb6b1b30fe15febd596dffd21d4da0657732eea42b4b5a9789e3e6daab3d570999d7850062f2c27d17cdf727c8059e0b505bd3a788af62482a56bcede987d8eea5a35a294f9055e9dc7a18078b4e0139086766d723c3cd728bd59cc1f3b589741ed21d7cfd39841edd73967db6350efae442ebd8c6e1bfca55faa52b046d39b7e493bdea2cc426745068386b3804e5b401ae87ffbae9dbf293944b5307f507040c79917d72d9b73e141a5f0eff6b5933a24665154df6903ed198d591afc8ac62f8f7917d72d9b73e141a5f0eff6b5933a24665154df6903ed198d591afc8ac62f8f6f98b31465ac12e92b5cb136ade913276c267463c4395bb1a3999bc88fb837806897858f7b7d3c8b4e7a700b401ad192a110353a60c809946583c0d62cda7f0b70e555410d8128dff796eab5d29b97dd593ce9cab44a71b64c08244579ea6053339854479080fac0b5e7c0ecedb0fb02308a72a43cd102c6b9f918653d3400367a26469706673582212207627577d1531e7f8caff0a738e808ec64c8ff829ec46ea902d0368ea93fe99fc64736f6c634300080f0033"
}