{
  "address": "0x4AA8B447417815807b955757a6D1b78b86f3aD22",
  "abi": [
    {
      "inputs": [
        {
          "internalType": "contract TestnetReserve",
          "name": "reserve_",
          "type": "address"
        }
      ],
      "stateMutability": "nonpayable",
      "type": "constructor"
    },
    {
      "inputs": [
        {
          "internalType": "UFixed18",
          "name": "oldBalance",
          "type": "uint256"
        },
        {
          "internalType": "UFixed18",
          "name": "newBalance",
          "type": "uint256"
        }
      ],
      "name": "BatcherBalanceMismatchError",
      "type": "error"
    },
    {
      "inputs": [],
      "name": "BatcherNotImplementedError",
      "type": "error"
    },
    {
      "anonymous": false,
      "inputs": [
        {
          "indexed": false,
          "internalType": "UFixed18",
          "name": "amount",
          "type": "uint256"
        }
      ],
      "name": "Close",
      "type": "event"
    },
    {
      "anonymous": false,
      "inputs": [
        {
          "indexed": false,
          "internalType": "UFixed18",
          "name": "newMinted",
          "type": "uint256"
        },
        {
          "indexed": false,
          "internalType": "UFixed18",
          "name": "newRedeemed",
          "type": "uint256"
        }
      ],
      "name": "Rebalance",
      "type": "event"
    },
    {
      "anonymous": false,
      "inputs": [
        {
          "indexed": true,
          "internalType": "address",
          "name": "to",
          "type": "address"
        },
        {
          "indexed": false,
          "internalType": "UFixed18",
          "name": "amount",
          "type": "uint256"
        }
      ],
      "name": "Unwrap",
      "type": "event"
    },
    {
      "anonymous": false,
      "inputs": [
        {
          "indexed": true,
          "internalType": "address",
          "name": "to",
          "type": "address"
        },
        {
          "indexed": false,
          "internalType": "UFixed18",
          "name": "amount",
          "type": "uint256"
        }
      ],
      "name": "Wrap",
      "type": "event"
    },
    {
      "inputs": [],
      "name": "rebalance",
      "outputs": [],
      "stateMutability": "pure",
      "type": "function"
    },
    {
      "inputs": [],
      "name": "reserve",
      "outputs": [
        {
          "internalType": "contract TestnetReserve",
          "name": "",
          "type": "address"
        }
      ],
      "stateMutability": "view",
      "type": "function"
    },
    {
      "inputs": [],
      "name": "totalBalance",
      "outputs": [
        {
          "internalType": "UFixed18",
          "name": "",
          "type": "uint256"
        }
      ],
      "stateMutability": "pure",
      "type": "function"
    },
    {
      "inputs": [
        {
          "internalType": "UFixed18",
          "name": "amount",
          "type": "uint256"
        },
        {
          "internalType": "address",
          "name": "to",
          "type": "address"
        }
      ],
      "name": "unwrap",
      "outputs": [],
      "stateMutability": "nonpayable",
      "type": "function"
    },
    {
      "inputs": [
        {
          "internalType": "UFixed18",
          "name": "amount",
          "type": "uint256"
        },
        {
          "internalType": "address",
          "name": "to",
          "type": "address"
        }
      ],
      "name": "wrap",
      "outputs": [],
      "stateMutability": "nonpayable",
      "type": "function"
    }
  ],
  "transactionHash": "0x120f9385407b1730905537d9dd9e19ee8e5fdcb4579bd8680d84da1c1f151737",
  "args": [
    "0x7110eB89Da566f098BbeaB7471a61c22FCf5397C"
  ],
  "numDeployments": 1,
  "solcInputHash": "91fa3a2050ceaa5a50e5b36bee01d6ea",
  "bytecode": "0x60806040523480156200001157600080fd5b50604051620013833803806200138383398101604081905262000034916200053a565b600080546001600160a01b0319166001600160a01b038316908117909155604080516389a3027160e01b81529051620000d9929182916389a30271916004808201926020929091908290030181865afa15801562000096573d6000803e3d6000fd5b505050506040513d601f19601f82011682018060405250810190620000bc91906200053a565b6001600160a01b03166200013060201b620004771790919060201c565b6000546040805163a2060bcf60e01b8152905162000129926001600160a01b031691829163a2060bcf916004808201926020929091908290030181865afa15801562000096573d6000803e3d6000fd5b506200061e565b6200015781600019846001600160a01b03166200015b60201b620004bc179092919060201c565b5050565b801580620001d95750604051636eb1769f60e11b81523060048201526001600160a01b03838116602483015284169063dd62ed3e90604401602060405180830381865afa158015620001b1573d6000803e3d6000fd5b505050506040513d601f19601f82011682018060405250810190620001d791906200055a565b155b620002515760405162461bcd60e51b815260206004820152603660248201527f5361666545524332303a20617070726f76652066726f6d206e6f6e2d7a65726f60448201527f20746f206e6f6e2d7a65726f20616c6c6f77616e63650000000000000000000060648201526084015b60405180910390fd5b604080516001600160a01b038416602482015260448082018490528251808303909101815260649091019091526020810180516001600160e01b0390811663095ea7b360e01b17909152620002a9918591620002ae16565b505050565b60006200030a826040518060400160405280602081526020017f5361666545524332303a206c6f772d6c6576656c2063616c6c206661696c6564815250856001600160a01b03166200038c60201b620006c6179092919060201c565b805190915015620002a957808060200190518101906200032b919062000574565b620002a95760405162461bcd60e51b815260206004820152602a60248201527f5361666545524332303a204552433230206f7065726174696f6e20646964206e6044820152691bdd081cdd58d8d9595960b21b606482015260840162000248565b60606200039d8484600085620003a7565b90505b9392505050565b6060824710156200040a5760405162461bcd60e51b815260206004820152602660248201527f416464726573733a20696e73756666696369656e742062616c616e636520666f6044820152651c8818d85b1b60d21b606482015260840162000248565b6001600160a01b0385163b620004635760405162461bcd60e51b815260206004820152601d60248201527f416464726573733a2063616c6c20746f206e6f6e2d636f6e7472616374000000604482015260640162000248565b600080866001600160a01b03168587604051620004819190620005cb565b60006040518083038185875af1925050503d8060008114620004c0576040519150601f19603f3d011682016040523d82523d6000602084013e620004c5565b606091505b509092509050620004d8828286620004e3565b979650505050505050565b60608315620004f4575081620003a0565b825115620005055782518084602001fd5b8160405162461bcd60e51b8152600401620002489190620005e9565b6001600160a01b03811681146200053757600080fd5b50565b6000602082840312156200054d57600080fd5b8151620003a08162000521565b6000602082840312156200056d57600080fd5b5051919050565b6000602082840312156200058757600080fd5b81518015158114620003a057600080fd5b60005b83811015620005b55781810151838201526020016200059b565b83811115620005c5576000848401525b50505050565b60008251620005df81846020870162000598565b9190910192915050565b60208152600082518060208401526200060a81604085016020870162000598565b601f01601f19169190910160400192915050565b610d55806200062e6000396000f3fe608060405234801561001057600080fd5b50600436106100675760003560e01c80637d7c2a1c116100505780637d7c2a1c14610094578063ad7a672f1461009c578063cd3293de146100b757600080fd5b806313bac8201461006c5780637647691d14610081575b600080fd5b61007f61007a366004610b23565b6100fc565b005b61007f61008f366004610b23565b610290565b61007f610415565b6100a4610447565b6040519081526020015b60405180910390f35b6000546100d79073ffffffffffffffffffffffffffffffffffffffff1681565b60405173ffffffffffffffffffffffffffffffffffffffff90911681526020016100ae565b6101b03383600160008054906101000a900473ffffffffffffffffffffffffffffffffffffffff1673ffffffffffffffffffffffffffffffffffffffff166389a302716040518163ffffffff1660e01b8152600401602060405180830381865afa15801561016e573d6000803e3d6000fd5b505050506040513d601f19601f820116820180604052508101906101929190610b53565b73ffffffffffffffffffffffffffffffffffffffff169291906106df565b6000546040517f94bf804d0000000000000000000000000000000000000000000000000000000081526004810184905273ffffffffffffffffffffffffffffffffffffffff8381166024830152909116906394bf804d90604401600060405180830381600087803b15801561022457600080fd5b505af1158015610238573d6000803e3d6000fd5b505050508073ffffffffffffffffffffffffffffffffffffffff167fb61d00fdfee32467c7d81db64c811ae60c104c346debf36a14afe84b8fce59e58360405161028491815260200190565b60405180910390a25050565b610341338360008054906101000a900473ffffffffffffffffffffffffffffffffffffffff1673ffffffffffffffffffffffffffffffffffffffff1663a2060bcf6040518163ffffffff1660e01b8152600401602060405180830381865afa158015610300573d6000803e3d6000fd5b505050506040513d601f19601f820116820180604052508101906103249190610b53565b73ffffffffffffffffffffffffffffffffffffffff169190610713565b6000546040517f7bde82f20000000000000000000000000000000000000000000000000000000081526004810184905273ffffffffffffffffffffffffffffffffffffffff838116602483015290911690637bde82f290604401600060405180830381600087803b1580156103b557600080fd5b505af11580156103c9573d6000803e3d6000fd5b505050508073ffffffffffffffffffffffffffffffffffffffff167f5dd085b6070b4cae004f84daafd199fd55b0bdfa11c3a802baffe89c2419d8c28360405161028491815260200190565b6040517f446be2a900000000000000000000000000000000000000000000000000000000815260040160405180910390fd5b60006104727fffffffffffffffffffffffffffffffffffffffffffffffffffffffffffffffff610735565b905090565b6104b873ffffffffffffffffffffffffffffffffffffffff8316827fffffffffffffffffffffffffffffffffffffffffffffffffffffffffffffffff6104bc565b5050565b80158061055c57506040517fdd62ed3e00000000000000000000000000000000000000000000000000000000815230600482015273ffffffffffffffffffffffffffffffffffffffff838116602483015284169063dd62ed3e90604401602060405180830381865afa158015610536573d6000803e3d6000fd5b505050506040513d601f19601f8201168201806040525081019061055a9190610b70565b155b6105ed576040517f08c379a000000000000000000000000000000000000000000000000000000000815260206004820152603660248201527f5361666545524332303a20617070726f76652066726f6d206e6f6e2d7a65726f60448201527f20746f206e6f6e2d7a65726f20616c6c6f77616e63650000000000000000000060648201526084015b60405180910390fd5b60405173ffffffffffffffffffffffffffffffffffffffff83166024820152604481018290526106c19084907f095ea7b300000000000000000000000000000000000000000000000000000000906064015b604080517fffffffffffffffffffffffffffffffffffffffffffffffffffffffffffffffe08184030181529190526020810180517bffffffffffffffffffffffffffffffffffffffffffffffffffffffff167fffffffff000000000000000000000000000000000000000000000000000000009093169290921790915261074f565b505050565b60606106d5848460008561085b565b90505b9392505050565b61070d83306106ee85856109f1565b73ffffffffffffffffffffffffffffffffffffffff8816929190610a1b565b50505050565b6106c173ffffffffffffffffffffffffffffffffffffffff8416833084610a1b565b6000610749670de0b6b3a764000083610bb8565b92915050565b60006107b1826040518060400160405280602081526020017f5361666545524332303a206c6f772d6c6576656c2063616c6c206661696c65648152508573ffffffffffffffffffffffffffffffffffffffff166106c69092919063ffffffff16565b8051909150156106c157808060200190518101906107cf9190610bf5565b6106c1576040517f08c379a000000000000000000000000000000000000000000000000000000000815260206004820152602a60248201527f5361666545524332303a204552433230206f7065726174696f6e20646964206e60448201527f6f7420737563636565640000000000000000000000000000000000000000000060648201526084016105e4565b6060824710156108ed576040517f08c379a000000000000000000000000000000000000000000000000000000000815260206004820152602660248201527f416464726573733a20696e73756666696369656e742062616c616e636520666f60448201527f722063616c6c000000000000000000000000000000000000000000000000000060648201526084016105e4565b73ffffffffffffffffffffffffffffffffffffffff85163b61096b576040517f08c379a000000000000000000000000000000000000000000000000000000000815260206004820152601d60248201527f416464726573733a2063616c6c20746f206e6f6e2d636f6e747261637400000060448201526064016105e4565b6000808673ffffffffffffffffffffffffffffffffffffffff1685876040516109949190610c43565b60006040518083038185875af1925050503d80600081146109d1576040519150601f19603f3d011682016040523d82523d6000602084013e6109d6565b606091505b50915091506109e6828286610a79565b979650505050505050565b600081610a0c57610a0764e8d4a5100084610c8e565b6106d8565b6106d88364e8d4a51000610acc565b60405173ffffffffffffffffffffffffffffffffffffffff8085166024830152831660448201526064810182905261070d9085907f23b872dd000000000000000000000000000000000000000000000000000000009060840161063f565b60608315610a885750816106d8565b825115610a985782518084602001fd5b816040517f08c379a00000000000000000000000000000000000000000000000000000000081526004016105e49190610ca2565b6000610ad88284610cf3565b15610ae4576001610ae7565b60005b60ff16610af48385610c8e565b6106d89190610d07565b73ffffffffffffffffffffffffffffffffffffffff81168114610b2057600080fd5b50565b60008060408385031215610b3657600080fd5b823591506020830135610b4881610afe565b809150509250929050565b600060208284031215610b6557600080fd5b81516106d881610afe565b600060208284031215610b8257600080fd5b5051919050565b7f4e487b7100000000000000000000000000000000000000000000000000000000600052601160045260246000fd5b6000817fffffffffffffffffffffffffffffffffffffffffffffffffffffffffffffffff0483118215151615610bf057610bf0610b89565b500290565b600060208284031215610c0757600080fd5b815180151581146106d857600080fd5b60005b83811015610c32578181015183820152602001610c1a565b8381111561070d5750506000910152565b60008251610c55818460208701610c17565b9190910192915050565b7f4e487b7100000000000000000000000000000000000000000000000000000000600052601260045260246000fd5b600082610c9d57610c9d610c5f565b500490565b6020815260008251806020840152610cc1816040850160208701610c17565b601f017fffffffffffffffffffffffffffffffffffffffffffffffffffffffffffffffe0169190910160400192915050565b600082610d0257610d02610c5f565b500690565b60008219821115610d1a57610d1a610b89565b50019056fea26469706673582212201fb71dd031026bd7a23ebe8b57cf9fbf078a4412613d2d4382120ef9fe37ccc364736f6c634300080f0033",
  "devdoc": {
    "kind": "dev",
    "methods": {},
    "version": 1
  },
  "userdoc": {
    "kind": "user",
    "methods": {},
    "version": 1
  },
  "storageLayout": {
    "storage": [
      {
        "astId": 20768,
        "contract": "contracts/test/TestnetBatcher.sol:TestnetBatcher",
        "label": "reserve",
        "offset": 0,
        "slot": "0",
        "type": "t_contract(TestnetReserve)21054"
      }
    ],
    "types": {
      "t_contract(TestnetReserve)21054": {
        "encoding": "inplace",
        "label": "contract TestnetReserve",
        "numberOfBytes": "20"
      }
    }
  }
}