{
  "address": "0x13b7A79e050ef2C3fDc858EFD5c066c3655be841",
  "abi": [
    {
      "inputs": [
        {
          "internalType": "Token18",
          "name": "dsu_",
          "type": "address"
        },
        {
          "internalType": "Token6",
          "name": "usdc_",
          "type": "address"
        }
      ],
      "stateMutability": "nonpayable",
      "type": "constructor"
    },
    {
      "inputs": [
        {
          "internalType": "uint256",
          "name": "version",
          "type": "uint256"
        }
      ],
      "name": "UInitializableAlreadyInitializedError",
      "type": "error"
    },
    {
      "inputs": [],
      "name": "UInitializableNotInitializingError",
      "type": "error"
    },
    {
      "inputs": [],
      "name": "UInitializableZeroVersionError",
      "type": "error"
    },
    {
      "anonymous": false,
      "inputs": [
        {
          "indexed": true,
          "internalType": "address",
          "name": "account",
          "type": "address"
        },
        {
          "indexed": false,
          "internalType": "UFixed18",
          "name": "borrowAmount",
          "type": "uint256"
        }
      ],
      "name": "Borrow",
      "type": "event"
    },
    {
      "anonymous": false,
      "inputs": [
        {
          "indexed": false,
          "internalType": "uint256",
          "name": "version",
          "type": "uint256"
        }
      ],
      "name": "Initialized",
      "type": "event"
    },
    {
      "anonymous": false,
      "inputs": [
        {
          "indexed": true,
          "internalType": "address",
          "name": "account",
          "type": "address"
        },
        {
          "indexed": false,
          "internalType": "UFixed18",
          "name": "mintAmount",
          "type": "uint256"
        },
        {
          "indexed": false,
          "internalType": "UFixed18",
          "name": "costAmount",
          "type": "uint256"
        }
      ],
      "name": "Mint",
      "type": "event"
    },
    {
      "anonymous": false,
      "inputs": [
        {
          "indexed": true,
          "internalType": "address",
          "name": "account",
          "type": "address"
        },
        {
          "indexed": false,
          "internalType": "UFixed18",
          "name": "costAmount",
          "type": "uint256"
        },
        {
          "indexed": false,
          "internalType": "UFixed18",
          "name": "redeemAmount",
          "type": "uint256"
        }
      ],
      "name": "Redeem",
      "type": "event"
    },
    {
      "anonymous": false,
      "inputs": [
        {
          "indexed": true,
          "internalType": "address",
          "name": "account",
          "type": "address"
        },
        {
          "indexed": false,
          "internalType": "UFixed18",
          "name": "repayAmount",
          "type": "uint256"
        }
      ],
      "name": "Repay",
      "type": "event"
    },
    {
      "inputs": [],
      "name": "DSU",
      "outputs": [
        {
          "internalType": "Token18",
          "name": "",
          "type": "address"
        }
      ],
      "stateMutability": "view",
      "type": "function"
    },
    {
      "inputs": [],
      "name": "USDC",
      "outputs": [
        {
          "internalType": "Token6",
          "name": "",
          "type": "address"
        }
      ],
      "stateMutability": "view",
      "type": "function"
    },
    {
      "inputs": [
        {
          "internalType": "address",
          "name": "",
          "type": "address"
        }
      ],
      "name": "debt",
      "outputs": [
        {
          "internalType": "UFixed18",
          "name": "",
          "type": "uint256"
        }
      ],
      "stateMutability": "pure",
      "type": "function"
    },
    {
      "inputs": [],
      "name": "initialize",
      "outputs": [],
      "stateMutability": "nonpayable",
      "type": "function"
    },
    {
      "inputs": [
        {
          "internalType": "UFixed18",
          "name": "amount",
          "type": "uint256"
        }
      ],
      "name": "mint",
      "outputs": [],
      "stateMutability": "nonpayable",
      "type": "function"
    },
    {
      "inputs": [
        {
          "internalType": "UFixed18",
          "name": "amount",
          "type": "uint256"
        }
      ],
      "name": "redeem",
      "outputs": [],
      "stateMutability": "nonpayable",
      "type": "function"
    },
    {
      "inputs": [],
      "name": "redeemPrice",
      "outputs": [
        {
          "internalType": "UFixed18",
          "name": "",
          "type": "uint256"
        }
      ],
      "stateMutability": "pure",
      "type": "function"
    },
    {
      "inputs": [
        {
          "internalType": "address",
          "name": "",
          "type": "address"
        },
        {
          "internalType": "UFixed18",
          "name": "",
          "type": "uint256"
        }
      ],
      "name": "repay",
      "outputs": [],
      "stateMutability": "pure",
      "type": "function"
    }
  ],
  "transactionHash": "0xc8a1cb00466ab8d7937022fedf6f59b8b4b74975f623fc23238b6209c3d2c48d",
  "args": [
    "0x52C64b8998eB7C80b6F526E99E29ABdcC86B841b",
    "0x6775842AE82BF2F0f987b10526768Ad89d79536E"
  ],
  "numDeployments": 1,
  "solcInputHash": "28377171a4f4054d4bc4d54b1c42e1a8",
  "bytecode": "0x60c060405234801561001057600080fd5b50604051610ed9380380610ed983398101604081905261002f9161005e565b6001600160a01b039182166080521660a052610098565b6001600160a01b038116811461005b57600080fd5b50565b6000806040838503121561007157600080fd5b825161007c81610046565b602084015190925061008d81610046565b809150509250929050565b60805160a051610dec6100ed6000396000818160cb015281816103c6015261060c01526000818161013e0152818161022e0152818161041e015281816104a90152818161052b01526105810152610dec6000f3fe608060405234801561001057600080fd5b50600436106100885760003560e01c80639b6c56ec1161005b5780639b6c56ec14610112578063a0712d6814610126578063a2060bcf14610139578063db006a751461016057600080fd5b806322867d781461008d5780637a233fb3146100a15780638129fc1c146100be57806389a30271146100c6575b600080fd5b61009f61009b366004610bed565b5050565b005b670de0b6b3a76400005b6040519081526020015b60405180910390f35b61009f610173565b6100ed7f000000000000000000000000000000000000000000000000000000000000000081565b60405173ffffffffffffffffffffffffffffffffffffffff90911681526020016100b5565b6100ab610120366004610c19565b50600090565b61009f610134366004610c3d565b6103ac565b6100ed7f000000000000000000000000000000000000000000000000000000000000000081565b61009f61016e366004610c3d565b610511565b60018061019e7f5db5abc19987c2b3729df7961b62b6bb0bae886dd47e3ce25bb3a3af34c6d80b5490565b106101dd576040517f1e7a9d95000000000000000000000000000000000000000000000000000000008152600481018290526024015b60405180910390fd5b6102067f5db5abc19987c2b3729df7961b62b6bb0bae886dd47e3ce25bb3a3af34c6d80b829055565b60017fad57d7911b7e3d6c3c79a68ba909a7f4ba41f9485e5207b12dee0d0c6af5398c5560007f000000000000000000000000000000000000000000000000000000000000000090503073ffffffffffffffffffffffffffffffffffffffff168173ffffffffffffffffffffffffffffffffffffffff16638da5cb5b6040518163ffffffff1660e01b8152600401602060405180830381865afa1580156102b1573d6000803e3d6000fd5b505050506040513d601f19601f820116820180604052508101906102d59190610c56565b73ffffffffffffffffffffffffffffffffffffffff1614610351578073ffffffffffffffffffffffffffffffffffffffff166379ba50976040518163ffffffff1660e01b8152600401600060405180830381600087803b15801561033857600080fd5b505af115801561034c573d6000803e3d6000fd5b505050505b5060007fad57d7911b7e3d6c3c79a68ba909a7f4ba41f9485e5207b12dee0d0c6af5398c556040518181527fbe9b076dc5b65990cca9dd9d7366682482e7817a6f6bc7f4faf4dc32af497f329060200160405180910390a150565b6103ef73ffffffffffffffffffffffffffffffffffffffff7f0000000000000000000000000000000000000000000000000000000000000000163383600161066d565b6040517fa0712d68000000000000000000000000000000000000000000000000000000008152600481018290527f000000000000000000000000000000000000000000000000000000000000000073ffffffffffffffffffffffffffffffffffffffff169063a0712d6890602401600060405180830381600087803b15801561047757600080fd5b505af115801561048b573d6000803e3d6000fd5b506104d292505073ffffffffffffffffffffffffffffffffffffffff7f000000000000000000000000000000000000000000000000000000000000000016905033836106a1565b604080518281526020810183905233917f4c209b5fc8ad50758f13e2e1088ba56a560dff690a1c6fef26394f4c03821c4f91015b60405180910390a250565b61055273ffffffffffffffffffffffffffffffffffffffff7f00000000000000000000000000000000000000000000000000000000000000001633836106c7565b6040517f42966c68000000000000000000000000000000000000000000000000000000008152600481018290527f000000000000000000000000000000000000000000000000000000000000000073ffffffffffffffffffffffffffffffffffffffff16906342966c6890602401600060405180830381600087803b1580156105da57600080fd5b505af11580156105ee573d6000803e3d6000fd5b5061063592505073ffffffffffffffffffffffffffffffffffffffff7f000000000000000000000000000000000000000000000000000000000000000016905033836106e9565b604080518281526020810183905233917fe5b754fb1abb7f01b499791d0b820ae3b6af3424ac1c59768edb53f4ec31a9299101610506565b61069b833061067c8585610716565b73ffffffffffffffffffffffffffffffffffffffff8816929190610749565b50505050565b6106c273ffffffffffffffffffffffffffffffffffffffff84168383610825565b505050565b6106c273ffffffffffffffffffffffffffffffffffffffff8416833084610749565b6106c2826106f8836000610716565b73ffffffffffffffffffffffffffffffffffffffff86169190610825565b6000816107315761072c64e8d4a5100084610ca2565b610740565b6107408364e8d4a5100061087b565b90505b92915050565b60405173ffffffffffffffffffffffffffffffffffffffff8085166024830152831660448201526064810182905261069b9085907f23b872dd00000000000000000000000000000000000000000000000000000000906084015b604080517fffffffffffffffffffffffffffffffffffffffffffffffffffffffffffffffe08184030181529190526020810180517bffffffffffffffffffffffffffffffffffffffffffffffffffffffff167fffffffff00000000000000000000000000000000000000000000000000000000909316929092179091526108ad565b60405173ffffffffffffffffffffffffffffffffffffffff83166024820152604481018290526106c29084907fa9059cbb00000000000000000000000000000000000000000000000000000000906064016107a3565b600082156108a4578161088f600185610cdd565b6108999190610ca2565b61072c906001610cf0565b50600092915050565b600061090f826040518060400160405280602081526020017f5361666545524332303a206c6f772d6c6576656c2063616c6c206661696c65648152508573ffffffffffffffffffffffffffffffffffffffff166109b99092919063ffffffff16565b8051909150156106c2578080602001905181019061092d9190610d03565b6106c2576040517f08c379a000000000000000000000000000000000000000000000000000000000815260206004820152602a60248201527f5361666545524332303a204552433230206f7065726174696f6e20646964206e60448201527f6f7420737563636565640000000000000000000000000000000000000000000060648201526084016101d4565b60606109c884846000856109d0565b949350505050565b606082471015610a62576040517f08c379a000000000000000000000000000000000000000000000000000000000815260206004820152602660248201527f416464726573733a20696e73756666696369656e742062616c616e636520666f60448201527f722063616c6c000000000000000000000000000000000000000000000000000060648201526084016101d4565b6000808673ffffffffffffffffffffffffffffffffffffffff168587604051610a8b9190610d49565b60006040518083038185875af1925050503d8060008114610ac8576040519150601f19603f3d011682016040523d82523d6000602084013e610acd565b606091505b5091509150610ade87838387610ae9565b979650505050505050565b60608315610b7f578251600003610b785773ffffffffffffffffffffffffffffffffffffffff85163b610b78576040517f08c379a000000000000000000000000000000000000000000000000000000000815260206004820152601d60248201527f416464726573733a2063616c6c20746f206e6f6e2d636f6e747261637400000060448201526064016101d4565b50816109c8565b6109c88383815115610b945781518083602001fd5b806040517f08c379a00000000000000000000000000000000000000000000000000000000081526004016101d49190610d65565b73ffffffffffffffffffffffffffffffffffffffff81168114610bea57600080fd5b50565b60008060408385031215610c0057600080fd5b8235610c0b81610bc8565b946020939093013593505050565b600060208284031215610c2b57600080fd5b8135610c3681610bc8565b9392505050565b600060208284031215610c4f57600080fd5b5035919050565b600060208284031215610c6857600080fd5b8151610c3681610bc8565b7f4e487b7100000000000000000000000000000000000000000000000000000000600052601160045260246000fd5b600082610cd8577f4e487b7100000000000000000000000000000000000000000000000000000000600052601260045260246000fd5b500490565b8181038181111561074357610743610c73565b8082018082111561074357610743610c73565b600060208284031215610d1557600080fd5b81518015158114610c3657600080fd5b60005b83811015610d40578181015183820152602001610d28565b50506000910152565b60008251610d5b818460208701610d25565b9190910192915050565b6020815260008251806020840152610d84816040850160208701610d25565b601f017fffffffffffffffffffffffffffffffffffffffffffffffffffffffffffffffe016919091016040019291505056fea26469706673582212201badbfc22591035206ced1827b73d67609269396536fe94c688322b9d1d0200e64736f6c63430008110033",
  "devdoc": {
    "kind": "dev",
    "methods": {},
    "version": 1
  },
  "userdoc": {
    "kind": "user",
    "methods": {},
    "version": 1
  },
  "storageLayout": {
    "storage": [],
    "types": null
  }
}