{
  "address": "0x8b3BaEaee9FB366A01AE73f87F2cc1BbAb54dFC8",
  "abi": [
    {
      "inputs": [
        {
          "internalType": "ChainlinkAggregator",
          "name": "aggregator_",
          "type": "address"
        }
      ],
      "stateMutability": "nonpayable",
      "type": "constructor"
    },
    {
      "inputs": [],
      "name": "InvalidOracleRound",
      "type": "error"
    },
    {
      "inputs": [],
      "name": "UnableToSyncError",
      "type": "error"
    },
    {
      "inputs": [],
      "name": "aggregator",
      "outputs": [
        {
          "internalType": "ChainlinkAggregator",
          "name": "",
          "type": "address"
        }
      ],
      "stateMutability": "view",
      "type": "function"
    },
    {
      "inputs": [
        {
          "internalType": "uint256",
          "name": "version",
          "type": "uint256"
        }
      ],
      "name": "atVersion",
      "outputs": [
        {
          "components": [
            {
              "internalType": "uint256",
              "name": "version",
              "type": "uint256"
            },
            {
              "internalType": "uint256",
              "name": "timestamp",
              "type": "uint256"
            },
            {
              "internalType": "Fixed18",
              "name": "price",
              "type": "int256"
            }
          ],
          "internalType": "struct IOracleProvider.OracleVersion",
          "name": "oracleVersion",
          "type": "tuple"
        }
      ],
      "stateMutability": "view",
      "type": "function"
    },
    {
      "inputs": [],
      "name": "currentVersion",
      "outputs": [
        {
          "components": [
            {
              "internalType": "uint256",
              "name": "version",
              "type": "uint256"
            },
            {
              "internalType": "uint256",
              "name": "timestamp",
              "type": "uint256"
            },
            {
              "internalType": "Fixed18",
              "name": "price",
              "type": "int256"
            }
          ],
          "internalType": "struct IOracleProvider.OracleVersion",
          "name": "oracleVersion",
          "type": "tuple"
        }
      ],
      "stateMutability": "view",
      "type": "function"
    },
    {
      "inputs": [],
      "name": "sync",
      "outputs": [
        {
          "components": [
            {
              "internalType": "uint256",
              "name": "version",
              "type": "uint256"
            },
            {
              "internalType": "uint256",
              "name": "timestamp",
              "type": "uint256"
            },
            {
              "internalType": "Fixed18",
              "name": "price",
              "type": "int256"
            }
          ],
          "internalType": "struct IOracleProvider.OracleVersion",
          "name": "",
          "type": "tuple"
        }
      ],
      "stateMutability": "nonpayable",
      "type": "function"
    }
  ],
  "transactionHash": "0x2eef2d283dd19c5ace2b08e309be24828248b4f860657abf5c8005952b0a3d34",
  "args": [
    "0x62CAe0FA2da220f43a51F86Db2EDb36DcA9A5A08"
  ],
  "numDeployments": 1,
  "solcInputHash": "52743fa0e950b73a764d03e778cc2f72",
  "bytecode": "0x60c06040523480156200001157600080fd5b50604051620015893803806200158983398101604081905262000034916200032d565b6001600160a01b03811660808190526200007d906200005f9062000181602090811b6200045f17901c565b6200006c90600a62000472565b620001ee60201b620004d01760201c565b60a081815250506000620000a76080516001600160a01b03166200026160201b6200058a1760201c565b90505b600080549050620000c6826200032260201b620006571760201c565b61ffff1611156200012757604080518082019091526000808252602082018181528154600181018355918052915191516001600160801b03908116600160801b029216919091176000805160206200156983398151915290910155620000aa565b604080518082018252600080825292909101516001600160801b03908116602083019081528354600181018555938052915191518116600160801b029116176000805160206200156983398151915290910155506200051a565b6000816001600160a01b031663313ce5676040518163ffffffff1660e01b8152600401602060405180830381865afa158015620001c2573d6000803e3d6000fd5b505050506040513d601f19601f82011682018060405250810190620001e8919062000483565b92915050565b60006001600160ff1b038211156200025d5760405162461bcd60e51b815260206004820152602860248201527f53616665436173743a2076616c756520646f65736e27742066697420696e2061604482015267371034b73a191a9b60c11b606482015260840160405180910390fd5b5090565b6200028660405180606001604052806000815260200160008152602001600081525090565b6000806000846001600160a01b031663feaf968c6040518163ffffffff1660e01b815260040160a060405180830381865afa158015620002ca573d6000803e3d6000fd5b505050506040513d601f19601f82011682018060405250810190620002f09190620004c5565b506040805160608101825291825260208201939093526001600160501b03909316918301919091525095945050505050565b604090810151901c90565b6000602082840312156200034057600080fd5b81516001600160a01b03811681146200035857600080fd5b9392505050565b634e487b7160e01b600052601160045260246000fd5b600181815b80851115620003b65781600019048211156200039a576200039a6200035f565b80851615620003a857918102915b93841c93908002906200037a565b509250929050565b600082620003cf57506001620001e8565b81620003de57506000620001e8565b8160018114620003f75760028114620004025762000422565b6001915050620001e8565b60ff8411156200041657620004166200035f565b50506001821b620001e8565b5060208310610133831016604e8410600b841016171562000447575081810a620001e8565b62000453838362000375565b80600019048211156200046a576200046a6200035f565b029392505050565b60006200035860ff841683620003be565b6000602082840312156200049657600080fd5b815160ff811681146200035857600080fd5b80516001600160501b0381168114620004c057600080fd5b919050565b600080600080600060a08688031215620004de57600080fd5b620004e986620004a8565b94506020860151935060408601519250606086015191506200050e60808701620004a8565b90509295509295909350565b60805160a05161100e6200055b60003960006107d40152600081816056015281816101310152818161018f015281816101fe0152610339015261100e6000f3fe608060405234801561001057600080fd5b506004361061004c5760003560e01c8063245a7bfc146100515780637ece075d146100a25780639d888e86146100d7578063fff6cae9146100df575b600080fd5b6100787f000000000000000000000000000000000000000000000000000000000000000081565b60405173ffffffffffffffffffffffffffffffffffffffff90911681526020015b60405180910390f35b6100b56100b0366004610c4f565b6100e7565b6040805182518152602080840151908201529181015190820152606001610099565b6100b5610163565b6100b56101d3565b61010b60405180606001604052806000815260200160008152602001600081525090565b61015d61015761011a84610662565b73ffffffffffffffffffffffffffffffffffffffff7f000000000000000000000000000000000000000000000000000000000000000016906106ba565b836107a4565b92915050565b61018760405180606001604052806000815260200160008152602001600081525090565b6101ce6101c97f000000000000000000000000000000000000000000000000000000000000000073ffffffffffffffffffffffffffffffffffffffff1661058a565b610819565b905090565b6101f760405180606001604052806000815260200160008152602001600081525090565b60006102387f000000000000000000000000000000000000000000000000000000000000000073ffffffffffffffffffffffffffffffffffffffff1661058a565b9050806040015167ffffffffffffffff16600003610282576040517f5234755400000000000000000000000000000000000000000000000000000000815260040160405180910390fd5b600161028c6108de565b60408381015161029d92911c610c97565b61ffff1611156102d9576040517f68e7727f00000000000000000000000000000000000000000000000000000000815260040160405180910390fd5b6102e16108de565b61ffff166102f482604090810151901c90565b61ffff16111561045057600061039c61030b6108de565b60006103156108de565b61ffff168154811061032957610329610cba565b60009182526020909120015484517f000000000000000000000000000000000000000000000000000000000000000073ffffffffffffffffffffffffffffffffffffffff16929170010000000000000000000000000000000090046fffffffffffffffffffffffffffffffff16906108ee565b90506000604051806040016040528060006103b56108de565b61ffff16815481106103c9576103c9610cba565b6000918252602090912001546103f1906fffffffffffffffffffffffffffffffff1685610ce9565b6fffffffffffffffffffffffffffffffff908116825260408601518116602092830152835460018101855560009485529382902083519390920151811670010000000000000000000000000000000002921691909117910155506102d9565b61045981610819565b91505090565b60008173ffffffffffffffffffffffffffffffffffffffff1663313ce5676040518163ffffffff1660e01b8152600401602060405180830381865afa1580156104ac573d6000803e3d6000fd5b505050506040513d601f19601f8201168201806040525081019061015d9190610d1d565b60007f7fffffffffffffffffffffffffffffffffffffffffffffffffffffffffffffff821115610586576040517f08c379a000000000000000000000000000000000000000000000000000000000815260206004820152602860248201527f53616665436173743a2076616c756520646f65736e27742066697420696e206160448201527f6e20696e74323536000000000000000000000000000000000000000000000000606482015260840160405180910390fd5b5090565b6105ae60405180606001604052806000815260200160008152602001600081525090565b60008060008473ffffffffffffffffffffffffffffffffffffffff1663feaf968c6040518163ffffffff1660e01b815260040160a060405180830381865afa1580156105fe573d6000803e3d6000fd5b505050506040513d601f19601f820116820180604052508101906106229190610d5f565b5060408051606081018252918252602082019390935269ffffffffffffffffffff909316918301919091525095945050505050565b604090810151901c90565b60008061066e83610af0565b905080600001516fffffffffffffffffffffffffffffffff168382602001516fffffffffffffffffffffffffffffffff166106a99190610daf565b6106b39190610dc7565b9392505050565b6106de60405180606001604052806000815260200160008152602001600081525090565b6040517f9a6fc8f500000000000000000000000000000000000000000000000000000000815269ffffffffffffffffffff83166004820152600090819073ffffffffffffffffffffffffffffffffffffffff861690639a6fc8f59060240160a060405180830381865afa158015610759573d6000803e3d6000fd5b505050506040513d601f19601f8201168201806040525081019061077d9190610d5f565b50604080516060810182529182526020820193909352918201969096529695505050505050565b6107c860405180606001604052806000815260200160008152602001600081525090565b60006107f884602001517f0000000000000000000000000000000000000000000000000000000000000000610c08565b60408051606081018252948552945160208501529383019390935250919050565b61083d60405180606001604052806000815260200160008152602001600081525090565b60008061084f84604090810151901c90565b61ffff168154811061086357610863610cba565b6000918252602080832060408051808201825293909101546fffffffffffffffffffffffffffffffff808216808652700100000000000000000000000000000000909204169284018390529087015192945090916108c091610daf565b6108ca9190610dc7565b90506108d684826107a4565b949350505050565b600080546101ce90600190610dc7565b6040517fc159730400000000000000000000000000000000000000000000000000000000815261ffff841660048201526000908590829073ffffffffffffffffffffffffffffffffffffffff83169063c159730490602401602060405180830381865afa158015610963573d6000803e3d6000fd5b505050506040513d601f19601f820116820180604052508101906109879190610dde565b90506000808273ffffffffffffffffffffffffffffffffffffffff1663feaf968c6040518163ffffffff1660e01b815260040160a060405180830381865afa1580156109d7573d6000803e3d6000fd5b505050506040513d601f19601f820116820180604052508101906109fb9190610d5f565b509350505091505b85811115610abf5781610a1581610e14565b6040517f9a6fc8f500000000000000000000000000000000000000000000000000000000815269ffffffffffffffffffff8216600482015290935073ffffffffffffffffffffffffffffffffffffffff85169150639a6fc8f59060240160a060405180830381865afa158015610a8f573d6000803e3d6000fd5b505050506040513d601f19601f82011682018060405250810190610ab39190610d5f565b509350610a0392505050565b6000610acb8984610c27565b9050610ad78882610dc7565b610ae2906001610daf565b9a9950505050505050505050565b60408051808201909152600080825260208201526000610b0e6108de565b61ffff16905060008181548110610b2757610b27610cba565b6000918252602091829020604080518082019091529101546fffffffffffffffffffffffffffffffff8082168352700100000000000000000000000000000000909104169181019190915291505b81516fffffffffffffffffffffffffffffffff16831015610c025780610b9a81610e58565b91505060008181548110610bb057610bb0610cba565b6000918252602091829020604080518082019091529101546fffffffffffffffffffffffffffffffff808216835270010000000000000000000000000000000090910416918101919091529150610b75565b50919050565b600081610c1d670de0b6b3a764000085610e8d565b6106b39190610f49565b60006106b369ffffffffffffffffffff831669ffff0000000000000000604086901b16610daf565b600060208284031215610c6157600080fd5b5035919050565b7f4e487b7100000000000000000000000000000000000000000000000000000000600052601160045260246000fd5b600061ffff83811690831681811015610cb257610cb2610c68565b039392505050565b7f4e487b7100000000000000000000000000000000000000000000000000000000600052603260045260246000fd5b60006fffffffffffffffffffffffffffffffff808316818516808303821115610d1457610d14610c68565b01949350505050565b600060208284031215610d2f57600080fd5b815160ff811681146106b357600080fd5b805169ffffffffffffffffffff81168114610d5a57600080fd5b919050565b600080600080600060a08688031215610d7757600080fd5b610d8086610d40565b9450602086015193506040860151925060608601519150610da360808701610d40565b90509295509295909350565b60008219821115610dc257610dc2610c68565b500190565b600082821015610dd957610dd9610c68565b500390565b600060208284031215610df057600080fd5b815173ffffffffffffffffffffffffffffffffffffffff811681146106b357600080fd5b600069ffffffffffffffffffff821680610e3057610e30610c68565b7fffffffffffffffffffffffffffffffffffffffffffffffffffffffffffffffff0192915050565b600081610e6757610e67610c68565b507fffffffffffffffffffffffffffffffffffffffffffffffffffffffffffffffff0190565b60007f7fffffffffffffffffffffffffffffffffffffffffffffffffffffffffffffff600084136000841385830485118282161615610ece57610ece610c68565b7f80000000000000000000000000000000000000000000000000000000000000006000871286820588128184161615610f0957610f09610c68565b60008712925087820587128484161615610f2557610f25610c68565b87850587128184161615610f3b57610f3b610c68565b505050929093029392505050565b600082610f7f577f4e487b7100000000000000000000000000000000000000000000000000000000600052601260045260246000fd5b7fffffffffffffffffffffffffffffffffffffffffffffffffffffffffffffffff83147f800000000000000000000000000000000000000000000000000000000000000083141615610fd357610fd3610c68565b50059056fea2646970667358221220136630af47d1281e89dce807121de6e746300af2417d68ead5503e464bfdec7e64736f6c634300080f0033290decd9548b62a8d60345a988386fc84ba6bc95484008f6362f93160ef3e563",
  "devdoc": {
    "details": "One instance per Chainlink price feed should be deployed. Multiple products may use the same      ChainlinkOracle instance if their payoff functions are based on the same underlying oracle.      This implementation only support non-negative prices.",
    "errors": {
      "InvalidOracleRound()": [
        {
          "details": "Error for invalid oracle round"
        }
      ]
    },
    "kind": "dev",
    "methods": {
      "atVersion(uint256)": {
        "params": {
          "version": "The version of which to lookup"
        },
        "returns": {
          "oracleVersion": "Oracle version at version `version`"
        }
      },
      "constructor": {
        "params": {
          "aggregator_": "Chainlink price feed aggregator"
        }
      },
      "currentVersion()": {
        "returns": {
          "oracleVersion": "Current oracle version"
        }
      },
      "sync()": {
        "details": "`sync` is expected to be called soon after a phase update occurs in the underlying proxy.      Phase updates should be detected using off-chain mechanism and should trigger a `sync` call      This is feasible in the short term due to how infrequent phase updates are, but phase update      and roundCount detection should eventually be implemented at the contract level.      Reverts if there is more than 1 phase to update in a single sync because we currently cannot      determine the startingRoundId for the intermediary phase.",
        "returns": {
          "_0": "The current oracle version after sync"
        }
      }
    },
    "stateVariables": {
      "_decimalOffset": {
        "details": "Decimal offset used to normalize chainlink price to 18 decimals"
      },
      "_phases": {
        "details": "Mapping of the starting data for each underlying phase"
      },
      "aggregator": {
        "details": "Chainlink feed aggregator address"
      }
    },
    "title": "ChainlinkOracle",
    "version": 1
  },
  "userdoc": {
    "kind": "user",
    "methods": {
      "atVersion(uint256)": {
        "notice": "Returns the current oracle version"
      },
      "constructor": {
        "notice": "Initializes the contract state"
      },
      "currentVersion()": {
        "notice": "Returns the current oracle version"
      },
      "sync()": {
        "notice": "Checks for a new price and updates the internal phase annotation state accordingly"
      }
    },
    "notice": "Chainlink implementation of the IOracle interface.",
    "version": 1
  },
  "storageLayout": {
    "storage": [
      {
        "astId": 2588,
        "contract": "contracts/ChainlinkFeedOracle.sol:ChainlinkFeedOracle",
        "label": "_phases",
        "offset": 0,
        "slot": "0",
        "type": "t_array(t_struct(Phase)2593_storage)dyn_storage"
      }
    ],
    "types": {
      "t_array(t_struct(Phase)2593_storage)dyn_storage": {
        "base": "t_struct(Phase)2593_storage",
        "encoding": "dynamic_array",
        "label": "struct ChainlinkFeedOracle.Phase[]",
        "numberOfBytes": "32"
      },
      "t_struct(Phase)2593_storage": {
        "encoding": "inplace",
        "label": "struct ChainlinkFeedOracle.Phase",
        "members": [
          {
            "astId": 2590,
            "contract": "contracts/ChainlinkFeedOracle.sol:ChainlinkFeedOracle",
            "label": "startingVersion",
            "offset": 0,
            "slot": "0",
            "type": "t_uint128"
          },
          {
            "astId": 2592,
            "contract": "contracts/ChainlinkFeedOracle.sol:ChainlinkFeedOracle",
            "label": "startingRoundId",
            "offset": 16,
            "slot": "0",
            "type": "t_uint128"
          }
        ],
        "numberOfBytes": "32"
      },
      "t_uint128": {
        "encoding": "inplace",
        "label": "uint128",
        "numberOfBytes": "16"
      }
    }
  }
}