{
  "address": "0xE442047148ACc3Df089500FC380bAAE8fF375AA4",
  "abi": [
    {
      "inputs": [],
      "name": "CurveMathOutOfBoundsError",
      "type": "error"
    },
    {
      "inputs": [
        {
          "internalType": "uint256",
          "name": "value",
          "type": "uint256"
        }
      ],
      "name": "Fixed18OverflowError",
      "type": "error"
    },
    {
      "inputs": [
        {
          "internalType": "int256",
          "name": "value",
          "type": "int256"
        }
      ],
      "name": "Fixed18PackingOverflowError",
      "type": "error"
    },
    {
      "inputs": [
        {
          "internalType": "int256",
          "name": "value",
          "type": "int256"
        }
      ],
      "name": "Fixed18PackingUnderflowError",
      "type": "error"
    },
    {
      "inputs": [],
      "name": "InvalidControllerError",
      "type": "error"
    },
    {
      "inputs": [
        {
          "internalType": "address",
          "name": "account",
          "type": "address"
        },
        {
          "internalType": "address",
          "name": "operator",
          "type": "address"
        }
      ],
      "name": "NotAccountOrMultiInvokerError",
      "type": "error"
    },
    {
      "inputs": [],
      "name": "NotCollateralError",
      "type": "error"
    },
    {
      "inputs": [
        {
          "internalType": "uint256",
          "name": "coordinatorId",
          "type": "uint256"
        }
      ],
      "name": "NotOwnerError",
      "type": "error"
    },
    {
      "inputs": [
        {
          "internalType": "contract IProduct",
          "name": "product",
          "type": "address"
        }
      ],
      "name": "NotProductError",
      "type": "error"
    },
    {
      "inputs": [],
      "name": "ParamProviderInvalidParamValue",
      "type": "error"
    },
    {
      "inputs": [],
      "name": "PausedError",
      "type": "error"
    },
    {
      "inputs": [
        {
          "internalType": "enum PayoffDefinitionLib.PayoffType",
          "name": "payoffType",
          "type": "uint8"
        },
        {
          "internalType": "bytes30",
          "name": "data",
          "type": "bytes30"
        }
      ],
      "name": "PayoffDefinitionNotContract",
      "type": "error"
    },
    {
      "inputs": [
        {
          "internalType": "enum PayoffDefinitionLib.PayoffType",
          "name": "payoffType",
          "type": "uint8"
        },
        {
          "internalType": "enum PayoffDefinitionLib.PayoffDirection",
          "name": "payoffDirection",
          "type": "uint8"
        }
      ],
      "name": "PayoffDefinitionUnsupportedTransform",
      "type": "error"
    },
    {
      "inputs": [],
      "name": "PayoffProviderInvalidOracle",
      "type": "error"
    },
    {
      "inputs": [],
      "name": "PayoffProviderInvalidPayoffDefinitionError",
      "type": "error"
    },
    {
      "inputs": [
        {
          "internalType": "UFixed18",
          "name": "value",
          "type": "uint256"
        }
      ],
      "name": "PendingFeeUpdatesUnsupportedValue",
      "type": "error"
    },
    {
      "inputs": [],
      "name": "ProductClosedError",
      "type": "error"
    },
    {
      "inputs": [],
      "name": "ProductDoubleSidedError",
      "type": "error"
    },
    {
      "inputs": [],
      "name": "ProductInLiquidationError",
      "type": "error"
    },
    {
      "inputs": [],
      "name": "ProductInsufficientCollateralError",
      "type": "error"
    },
    {
      "inputs": [
        {
          "internalType": "UFixed18",
          "name": "socializationFactor",
          "type": "uint256"
        }
      ],
      "name": "ProductInsufficientLiquidityError",
      "type": "error"
    },
    {
      "inputs": [],
      "name": "ProductMakerOverLimitError",
      "type": "error"
    },
    {
      "inputs": [],
      "name": "ProductOracleBootstrappingError",
      "type": "error"
    },
    {
      "inputs": [],
      "name": "ProductOverClosedError",
      "type": "error"
    },
    {
      "inputs": [
        {
          "internalType": "uint256",
          "name": "value",
          "type": "uint256"
        }
      ],
      "name": "UFixed18PackingOverflowError",
      "type": "error"
    },
    {
      "inputs": [
        {
          "internalType": "uint256",
          "name": "version",
          "type": "uint256"
        }
      ],
      "name": "UInitializableAlreadyInitializedError",
      "type": "error"
    },
    {
      "inputs": [],
      "name": "UInitializableNotInitializingError",
      "type": "error"
    },
    {
      "inputs": [],
      "name": "UInitializableZeroVersionError",
      "type": "error"
    },
    {
      "inputs": [],
      "name": "UReentrancyGuardReentrantCallError",
      "type": "error"
    },
    {
      "anonymous": false,
      "inputs": [
        {
          "indexed": true,
          "internalType": "address",
          "name": "account",
          "type": "address"
        },
        {
          "indexed": false,
          "internalType": "uint256",
          "name": "preVersion",
          "type": "uint256"
        },
        {
          "indexed": false,
          "internalType": "uint256",
          "name": "toVersion",
          "type": "uint256"
        }
      ],
      "name": "AccountSettle",
      "type": "event"
    },
    {
      "anonymous": false,
      "inputs": [
        {
          "indexed": true,
          "internalType": "bool",
          "name": "newClosed",
          "type": "bool"
        },
        {
          "indexed": false,
          "internalType": "uint256",
          "name": "version",
          "type": "uint256"
        }
      ],
      "name": "ClosedUpdated",
      "type": "event"
    },
    {
      "anonymous": false,
      "inputs": [
        {
          "indexed": false,
          "internalType": "UFixed18",
          "name": "newFundingFee",
          "type": "uint256"
        },
        {
          "indexed": false,
          "internalType": "uint256",
          "name": "version",
          "type": "uint256"
        }
      ],
      "name": "FundingFeeUpdated",
      "type": "event"
    },
    {
      "anonymous": false,
      "inputs": [
        {
          "indexed": false,
          "internalType": "uint256",
          "name": "version",
          "type": "uint256"
        }
      ],
      "name": "Initialized",
      "type": "event"
    },
    {
      "anonymous": false,
      "inputs": [
        {
          "components": [
            {
              "internalType": "PackedFixed18",
              "name": "minRate",
              "type": "int128"
            },
            {
              "internalType": "PackedFixed18",
              "name": "maxRate",
              "type": "int128"
            },
            {
              "internalType": "PackedFixed18",
              "name": "targetRate",
              "type": "int128"
            },
            {
              "internalType": "PackedUFixed18",
              "name": "targetUtilization",
              "type": "uint128"
            }
          ],
          "indexed": false,
          "internalType": "struct JumpRateUtilizationCurve",
          "name": "",
          "type": "tuple"
        },
        {
          "indexed": false,
          "internalType": "uint256",
          "name": "version",
          "type": "uint256"
        }
      ],
      "name": "JumpRateUtilizationCurveUpdated",
      "type": "event"
    },
    {
      "anonymous": false,
      "inputs": [
        {
          "indexed": false,
          "internalType": "UFixed18",
          "name": "newMaintenance",
          "type": "uint256"
        },
        {
          "indexed": false,
          "internalType": "uint256",
          "name": "version",
          "type": "uint256"
        }
      ],
      "name": "MaintenanceUpdated",
      "type": "event"
    },
    {
      "anonymous": false,
      "inputs": [
        {
          "indexed": true,
          "internalType": "address",
          "name": "account",
          "type": "address"
        },
        {
          "indexed": false,
          "internalType": "uint256",
          "name": "version",
          "type": "uint256"
        },
        {
          "indexed": false,
          "internalType": "UFixed18",
          "name": "amount",
          "type": "uint256"
        }
      ],
      "name": "MakeClosed",
      "type": "event"
    },
    {
      "anonymous": false,
      "inputs": [
        {
          "indexed": true,
          "internalType": "address",
          "name": "account",
          "type": "address"
        },
        {
          "indexed": false,
          "internalType": "uint256",
          "name": "version",
          "type": "uint256"
        },
        {
          "indexed": false,
          "internalType": "UFixed18",
          "name": "amount",
          "type": "uint256"
        }
      ],
      "name": "MakeOpened",
      "type": "event"
    },
    {
      "anonymous": false,
      "inputs": [
        {
          "indexed": false,
          "internalType": "UFixed18",
          "name": "newMakerFee",
          "type": "uint256"
        },
        {
          "indexed": false,
          "internalType": "uint256",
          "name": "version",
          "type": "uint256"
        }
      ],
      "name": "MakerFeeUpdated",
      "type": "event"
    },
    {
      "anonymous": false,
      "inputs": [
        {
          "indexed": false,
          "internalType": "UFixed18",
          "name": "newMakerLimit",
          "type": "uint256"
        },
        {
          "indexed": false,
          "internalType": "uint256",
          "name": "version",
          "type": "uint256"
        }
      ],
      "name": "MakerLimitUpdated",
      "type": "event"
    },
    {
      "anonymous": false,
      "inputs": [
        {
          "indexed": false,
          "internalType": "address",
          "name": "newOracle",
          "type": "address"
        },
        {
          "indexed": false,
          "internalType": "uint256",
          "name": "oracleVersion",
          "type": "uint256"
        }
      ],
      "name": "OracleUpdated",
      "type": "event"
    },
    {
      "anonymous": false,
      "inputs": [
        {
          "indexed": false,
          "internalType": "UFixed18",
          "name": "newMakerFee",
          "type": "uint256"
        }
      ],
      "name": "PendingMakerFeeUpdated",
      "type": "event"
    },
    {
      "anonymous": false,
      "inputs": [
        {
          "indexed": false,
          "internalType": "UFixed18",
          "name": "newPositionFee",
          "type": "uint256"
        }
      ],
      "name": "PendingPositionFeeUpdated",
      "type": "event"
    },
    {
      "anonymous": false,
      "inputs": [
        {
          "indexed": false,
          "internalType": "UFixed18",
          "name": "newTakerFee",
          "type": "uint256"
        }
      ],
      "name": "PendingTakerFeeUpdated",
      "type": "event"
    },
    {
      "anonymous": false,
      "inputs": [
        {
          "indexed": false,
          "internalType": "UFixed18",
          "name": "newPositionFee",
          "type": "uint256"
        },
        {
          "indexed": false,
          "internalType": "uint256",
          "name": "version",
          "type": "uint256"
        }
      ],
      "name": "PositionFeeUpdated",
      "type": "event"
    },
    {
      "anonymous": false,
      "inputs": [
        {
          "indexed": false,
          "internalType": "uint256",
          "name": "preVersion",
          "type": "uint256"
        },
        {
          "indexed": false,
          "internalType": "uint256",
          "name": "toVersion",
          "type": "uint256"
        }
      ],
      "name": "Settle",
      "type": "event"
    },
    {
      "anonymous": false,
      "inputs": [
        {
          "indexed": true,
          "internalType": "address",
          "name": "account",
          "type": "address"
        },
        {
          "indexed": false,
          "internalType": "uint256",
          "name": "version",
          "type": "uint256"
        },
        {
          "indexed": false,
          "internalType": "UFixed18",
          "name": "amount",
          "type": "uint256"
        }
      ],
      "name": "TakeClosed",
      "type": "event"
    },
    {
      "anonymous": false,
      "inputs": [
        {
          "indexed": true,
          "internalType": "address",
          "name": "account",
          "type": "address"
        },
        {
          "indexed": false,
          "internalType": "uint256",
          "name": "version",
          "type": "uint256"
        },
        {
          "indexed": false,
          "internalType": "UFixed18",
          "name": "amount",
          "type": "uint256"
        }
      ],
      "name": "TakeOpened",
      "type": "event"
    },
    {
      "anonymous": false,
      "inputs": [
        {
          "indexed": false,
          "internalType": "UFixed18",
          "name": "newTakerFee",
          "type": "uint256"
        },
        {
          "indexed": false,
          "internalType": "uint256",
          "name": "version",
          "type": "uint256"
        }
      ],
      "name": "TakerFeeUpdated",
      "type": "event"
    },
    {
      "inputs": [
        {
          "internalType": "uint256",
          "name": "oracleVersion",
          "type": "uint256"
        }
      ],
      "name": "atVersion",
      "outputs": [
        {
          "components": [
            {
              "internalType": "uint256",
              "name": "version",
              "type": "uint256"
            },
            {
              "internalType": "uint256",
              "name": "timestamp",
              "type": "uint256"
            },
            {
              "internalType": "Fixed18",
              "name": "price",
              "type": "int256"
            }
          ],
          "internalType": "struct IOracleProvider.OracleVersion",
          "name": "",
          "type": "tuple"
        }
      ],
      "stateMutability": "view",
      "type": "function"
    },
    {
      "inputs": [
        {
          "internalType": "address",
          "name": "account",
          "type": "address"
        }
      ],
      "name": "closeAll",
      "outputs": [],
      "stateMutability": "nonpayable",
      "type": "function"
    },
    {
      "inputs": [
        {
          "internalType": "UFixed18",
          "name": "amount",
          "type": "uint256"
        }
      ],
      "name": "closeMake",
      "outputs": [],
      "stateMutability": "nonpayable",
      "type": "function"
    },
    {
      "inputs": [
        {
          "internalType": "address",
          "name": "account",
          "type": "address"
        },
        {
          "internalType": "UFixed18",
          "name": "amount",
          "type": "uint256"
        }
      ],
      "name": "closeMakeFor",
      "outputs": [],
      "stateMutability": "nonpayable",
      "type": "function"
    },
    {
      "inputs": [
        {
          "internalType": "UFixed18",
          "name": "amount",
          "type": "uint256"
        }
      ],
      "name": "closeTake",
      "outputs": [],
      "stateMutability": "nonpayable",
      "type": "function"
    },
    {
      "inputs": [
        {
          "internalType": "address",
          "name": "account",
          "type": "address"
        },
        {
          "internalType": "UFixed18",
          "name": "amount",
          "type": "uint256"
        }
      ],
      "name": "closeTakeFor",
      "outputs": [],
      "stateMutability": "nonpayable",
      "type": "function"
    },
    {
      "inputs": [],
      "name": "closed",
      "outputs": [
        {
          "internalType": "bool",
          "name": "",
          "type": "bool"
        }
      ],
      "stateMutability": "view",
      "type": "function"
    },
    {
      "inputs": [],
      "name": "controller",
      "outputs": [
        {
          "internalType": "contract IController",
          "name": "",
          "type": "address"
        }
      ],
      "stateMutability": "view",
      "type": "function"
    },
    {
      "inputs": [],
      "name": "currentVersion",
      "outputs": [
        {
          "components": [
            {
              "internalType": "uint256",
              "name": "version",
              "type": "uint256"
            },
            {
              "internalType": "uint256",
              "name": "timestamp",
              "type": "uint256"
            },
            {
              "internalType": "Fixed18",
              "name": "price",
              "type": "int256"
            }
          ],
          "internalType": "struct IOracleProvider.OracleVersion",
          "name": "",
          "type": "tuple"
        }
      ],
      "stateMutability": "view",
      "type": "function"
    },
    {
      "inputs": [],
      "name": "fundingFee",
      "outputs": [
        {
          "internalType": "UFixed18",
          "name": "",
          "type": "uint256"
        }
      ],
      "stateMutability": "view",
      "type": "function"
    },
    {
      "inputs": [
        {
          "components": [
            {
              "internalType": "string",
              "name": "name",
              "type": "string"
            },
            {
              "internalType": "string",
              "name": "symbol",
              "type": "string"
            },
            {
              "components": [
                {
                  "internalType": "enum PayoffDefinitionLib.PayoffType",
                  "name": "payoffType",
                  "type": "uint8"
                },
                {
                  "internalType": "enum PayoffDefinitionLib.PayoffDirection",
                  "name": "payoffDirection",
                  "type": "uint8"
                },
                {
                  "internalType": "bytes30",
                  "name": "data",
                  "type": "bytes30"
                }
              ],
              "internalType": "struct PayoffDefinition",
              "name": "payoffDefinition",
              "type": "tuple"
            },
            {
              "internalType": "contract IOracleProvider",
              "name": "oracle",
              "type": "address"
            },
            {
              "internalType": "UFixed18",
              "name": "maintenance",
              "type": "uint256"
            },
            {
              "internalType": "UFixed18",
              "name": "fundingFee",
              "type": "uint256"
            },
            {
              "internalType": "UFixed18",
              "name": "makerFee",
              "type": "uint256"
            },
            {
              "internalType": "UFixed18",
              "name": "takerFee",
              "type": "uint256"
            },
            {
              "internalType": "UFixed18",
              "name": "positionFee",
              "type": "uint256"
            },
            {
              "internalType": "UFixed18",
              "name": "makerLimit",
              "type": "uint256"
            },
            {
              "components": [
                {
                  "internalType": "PackedFixed18",
                  "name": "minRate",
                  "type": "int128"
                },
                {
                  "internalType": "PackedFixed18",
                  "name": "maxRate",
                  "type": "int128"
                },
                {
                  "internalType": "PackedFixed18",
                  "name": "targetRate",
                  "type": "int128"
                },
                {
                  "internalType": "PackedUFixed18",
                  "name": "targetUtilization",
                  "type": "uint128"
                }
              ],
              "internalType": "struct JumpRateUtilizationCurve",
              "name": "utilizationCurve",
              "type": "tuple"
            }
          ],
          "internalType": "struct IProduct.ProductInfo",
          "name": "productInfo_",
          "type": "tuple"
        }
      ],
      "name": "initialize",
      "outputs": [],
      "stateMutability": "nonpayable",
      "type": "function"
    },
    {
      "inputs": [
        {
          "internalType": "address",
          "name": "account",
          "type": "address"
        }
      ],
      "name": "isClosed",
      "outputs": [
        {
          "internalType": "bool",
          "name": "",
          "type": "bool"
        }
      ],
      "stateMutability": "view",
      "type": "function"
    },
    {
      "inputs": [
        {
          "internalType": "address",
          "name": "account",
          "type": "address"
        }
      ],
      "name": "isLiquidating",
      "outputs": [
        {
          "internalType": "bool",
          "name": "",
          "type": "bool"
        }
      ],
      "stateMutability": "view",
      "type": "function"
    },
    {
      "inputs": [
        {
          "internalType": "address",
          "name": "account",
          "type": "address"
        }
      ],
      "name": "latestVersion",
      "outputs": [
        {
          "internalType": "uint256",
          "name": "",
          "type": "uint256"
        }
      ],
      "stateMutability": "view",
      "type": "function"
    },
    {
      "inputs": [],
      "name": "latestVersion",
      "outputs": [
        {
          "internalType": "uint256",
          "name": "",
          "type": "uint256"
        }
      ],
      "stateMutability": "view",
      "type": "function"
    },
    {
      "inputs": [],
      "name": "maintenance",
      "outputs": [
        {
          "internalType": "UFixed18",
          "name": "",
          "type": "uint256"
        }
      ],
      "stateMutability": "view",
      "type": "function"
    },
    {
      "inputs": [
        {
          "internalType": "address",
          "name": "account",
          "type": "address"
        }
      ],
      "name": "maintenance",
      "outputs": [
        {
          "internalType": "UFixed18",
          "name": "",
          "type": "uint256"
        }
      ],
      "stateMutability": "view",
      "type": "function"
    },
    {
      "inputs": [
        {
          "internalType": "address",
          "name": "account",
          "type": "address"
        }
      ],
      "name": "maintenanceNext",
      "outputs": [
        {
          "internalType": "UFixed18",
          "name": "",
          "type": "uint256"
        }
      ],
      "stateMutability": "view",
      "type": "function"
    },
    {
      "inputs": [],
      "name": "makerFee",
      "outputs": [
        {
          "internalType": "UFixed18",
          "name": "",
          "type": "uint256"
        }
      ],
      "stateMutability": "view",
      "type": "function"
    },
    {
      "inputs": [],
      "name": "makerLimit",
      "outputs": [
        {
          "internalType": "UFixed18",
          "name": "",
          "type": "uint256"
        }
      ],
      "stateMutability": "view",
      "type": "function"
    },
    {
      "inputs": [],
      "name": "name",
      "outputs": [
        {
          "internalType": "string",
          "name": "",
          "type": "string"
        }
      ],
      "stateMutability": "view",
      "type": "function"
    },
    {
      "inputs": [
        {
          "internalType": "UFixed18",
          "name": "amount",
          "type": "uint256"
        }
      ],
      "name": "openMake",
      "outputs": [],
      "stateMutability": "nonpayable",
      "type": "function"
    },
    {
      "inputs": [
        {
          "internalType": "address",
          "name": "account",
          "type": "address"
        },
        {
          "internalType": "UFixed18",
          "name": "amount",
          "type": "uint256"
        }
      ],
      "name": "openMakeFor",
      "outputs": [],
      "stateMutability": "nonpayable",
      "type": "function"
    },
    {
      "inputs": [
        {
          "internalType": "UFixed18",
          "name": "amount",
          "type": "uint256"
        }
      ],
      "name": "openTake",
      "outputs": [],
      "stateMutability": "nonpayable",
      "type": "function"
    },
    {
      "inputs": [
        {
          "internalType": "address",
          "name": "account",
          "type": "address"
        },
        {
          "internalType": "UFixed18",
          "name": "amount",
          "type": "uint256"
        }
      ],
      "name": "openTakeFor",
      "outputs": [],
      "stateMutability": "nonpayable",
      "type": "function"
    },
    {
      "inputs": [],
      "name": "oracle",
      "outputs": [
        {
          "internalType": "contract IOracleProvider",
          "name": "",
          "type": "address"
        }
      ],
      "stateMutability": "view",
      "type": "function"
    },
    {
      "inputs": [],
      "name": "payoffDefinition",
      "outputs": [
        {
          "components": [
            {
              "internalType": "enum PayoffDefinitionLib.PayoffType",
              "name": "payoffType",
              "type": "uint8"
            },
            {
              "internalType": "enum PayoffDefinitionLib.PayoffDirection",
              "name": "payoffDirection",
              "type": "uint8"
            },
            {
              "internalType": "bytes30",
              "name": "data",
              "type": "bytes30"
            }
          ],
          "internalType": "struct PayoffDefinition",
          "name": "",
          "type": "tuple"
        }
      ],
      "stateMutability": "view",
      "type": "function"
    },
    {
      "inputs": [],
      "name": "pendingFeeUpdates",
      "outputs": [
        {
          "components": [
            {
              "internalType": "bool",
              "name": "makerFeeUpdated",
              "type": "bool"
            },
            {
              "internalType": "uint64",
              "name": "pendingMakerFee",
              "type": "uint64"
            },
            {
              "internalType": "bool",
              "name": "takerFeeUpdated",
              "type": "bool"
            },
            {
              "internalType": "uint64",
              "name": "pendingTakerFee",
              "type": "uint64"
            },
            {
              "internalType": "bool",
              "name": "positionFeeUpdated",
              "type": "bool"
            },
            {
              "internalType": "uint64",
              "name": "pendingPositionFee",
              "type": "uint64"
            }
          ],
          "internalType": "struct PendingFeeUpdates",
          "name": "",
          "type": "tuple"
        }
      ],
      "stateMutability": "view",
      "type": "function"
    },
    {
      "inputs": [
        {
          "internalType": "address",
          "name": "account",
          "type": "address"
        }
      ],
      "name": "position",
      "outputs": [
        {
          "components": [
            {
              "internalType": "UFixed18",
              "name": "maker",
              "type": "uint256"
            },
            {
              "internalType": "UFixed18",
              "name": "taker",
              "type": "uint256"
            }
          ],
          "internalType": "struct Position",
          "name": "",
          "type": "tuple"
        }
      ],
      "stateMutability": "view",
      "type": "function"
    },
    {
      "inputs": [
        {
          "internalType": "uint256",
          "name": "oracleVersion",
          "type": "uint256"
        }
      ],
      "name": "positionAtVersion",
      "outputs": [
        {
          "components": [
            {
              "internalType": "UFixed18",
              "name": "maker",
              "type": "uint256"
            },
            {
              "internalType": "UFixed18",
              "name": "taker",
              "type": "uint256"
            }
          ],
          "internalType": "struct Position",
          "name": "",
          "type": "tuple"
        }
      ],
      "stateMutability": "view",
      "type": "function"
    },
    {
      "inputs": [],
      "name": "positionFee",
      "outputs": [
        {
          "internalType": "UFixed18",
          "name": "",
          "type": "uint256"
        }
      ],
      "stateMutability": "view",
      "type": "function"
    },
    {
      "inputs": [
        {
          "internalType": "address",
          "name": "account",
          "type": "address"
        }
      ],
      "name": "pre",
      "outputs": [
        {
          "components": [
            {
              "internalType": "uint256",
              "name": "oracleVersion",
              "type": "uint256"
            },
            {
              "components": [
                {
                  "internalType": "UFixed18",
                  "name": "maker",
                  "type": "uint256"
                },
                {
                  "internalType": "UFixed18",
                  "name": "taker",
                  "type": "uint256"
                }
              ],
              "internalType": "struct Position",
              "name": "openPosition",
              "type": "tuple"
            },
            {
              "components": [
                {
                  "internalType": "UFixed18",
                  "name": "maker",
                  "type": "uint256"
                },
                {
                  "internalType": "UFixed18",
                  "name": "taker",
                  "type": "uint256"
                }
              ],
              "internalType": "struct Position",
              "name": "closePosition",
              "type": "tuple"
            }
          ],
          "internalType": "struct PrePosition",
          "name": "",
          "type": "tuple"
        }
      ],
      "stateMutability": "view",
      "type": "function"
    },
    {
      "inputs": [],
      "name": "pre",
      "outputs": [
        {
          "components": [
            {
              "internalType": "uint256",
              "name": "oracleVersion",
              "type": "uint256"
            },
            {
              "components": [
                {
                  "internalType": "UFixed18",
                  "name": "maker",
                  "type": "uint256"
                },
                {
                  "internalType": "UFixed18",
                  "name": "taker",
                  "type": "uint256"
                }
              ],
              "internalType": "struct Position",
              "name": "openPosition",
              "type": "tuple"
            },
            {
              "components": [
                {
                  "internalType": "UFixed18",
                  "name": "maker",
                  "type": "uint256"
                },
                {
                  "internalType": "UFixed18",
                  "name": "taker",
                  "type": "uint256"
                }
              ],
              "internalType": "struct Position",
              "name": "closePosition",
              "type": "tuple"
            }
          ],
          "internalType": "struct PrePosition",
          "name": "",
          "type": "tuple"
        }
      ],
      "stateMutability": "view",
      "type": "function"
    },
    {
      "inputs": [
        {
          "components": [
            {
              "internalType": "UFixed18",
              "name": "maker",
              "type": "uint256"
            },
            {
              "internalType": "UFixed18",
              "name": "taker",
              "type": "uint256"
            }
          ],
          "internalType": "struct Position",
          "name": "position_",
          "type": "tuple"
        }
      ],
      "name": "rate",
      "outputs": [
        {
          "internalType": "Fixed18",
          "name": "",
          "type": "int256"
        }
      ],
      "stateMutability": "view",
      "type": "function"
    },
    {
      "inputs": [],
      "name": "settle",
      "outputs": [],
      "stateMutability": "nonpayable",
      "type": "function"
    },
    {
      "inputs": [
        {
          "internalType": "address",
          "name": "account",
          "type": "address"
        }
      ],
      "name": "settleAccount",
      "outputs": [],
      "stateMutability": "nonpayable",
      "type": "function"
    },
    {
      "inputs": [
        {
          "internalType": "uint256",
          "name": "oracleVersion",
          "type": "uint256"
        }
      ],
      "name": "shareAtVersion",
      "outputs": [
        {
          "components": [
            {
              "internalType": "Fixed18",
              "name": "maker",
              "type": "int256"
            },
            {
              "internalType": "Fixed18",
              "name": "taker",
              "type": "int256"
            }
          ],
          "internalType": "struct Accumulator",
          "name": "",
          "type": "tuple"
        }
      ],
      "stateMutability": "view",
      "type": "function"
    },
    {
      "inputs": [],
      "name": "symbol",
      "outputs": [
        {
          "internalType": "string",
          "name": "",
          "type": "string"
        }
      ],
      "stateMutability": "view",
      "type": "function"
    },
    {
      "inputs": [],
      "name": "takerFee",
      "outputs": [
        {
          "internalType": "UFixed18",
          "name": "",
          "type": "uint256"
        }
      ],
      "stateMutability": "view",
      "type": "function"
    },
    {
      "inputs": [
        {
          "internalType": "bool",
          "name": "newClosed",
          "type": "bool"
        }
      ],
      "name": "updateClosed",
      "outputs": [],
      "stateMutability": "nonpayable",
      "type": "function"
    },
    {
      "inputs": [
        {
          "internalType": "UFixed18",
          "name": "newFundingFee",
          "type": "uint256"
        }
      ],
      "name": "updateFundingFee",
      "outputs": [],
      "stateMutability": "nonpayable",
      "type": "function"
    },
    {
      "inputs": [
        {
          "internalType": "UFixed18",
          "name": "newMaintenance",
          "type": "uint256"
        }
      ],
      "name": "updateMaintenance",
      "outputs": [],
      "stateMutability": "nonpayable",
      "type": "function"
    },
    {
      "inputs": [
        {
          "internalType": "UFixed18",
          "name": "newMakerFee",
          "type": "uint256"
        }
      ],
      "name": "updateMakerFee",
      "outputs": [],
      "stateMutability": "nonpayable",
      "type": "function"
    },
    {
      "inputs": [
        {
          "internalType": "UFixed18",
          "name": "newMakerLimit",
          "type": "uint256"
        }
      ],
      "name": "updateMakerLimit",
      "outputs": [],
      "stateMutability": "nonpayable",
      "type": "function"
    },
    {
      "inputs": [
        {
          "internalType": "contract IOracleProvider",
          "name": "newOracle",
          "type": "address"
        }
      ],
      "name": "updateOracle",
      "outputs": [],
      "stateMutability": "nonpayable",
      "type": "function"
    },
    {
      "inputs": [
        {
          "internalType": "UFixed18",
          "name": "newPositionFee",
          "type": "uint256"
        }
      ],
      "name": "updatePositionFee",
      "outputs": [],
      "stateMutability": "nonpayable",
      "type": "function"
    },
    {
      "inputs": [
        {
          "internalType": "UFixed18",
          "name": "newTakerFee",
          "type": "uint256"
        }
      ],
      "name": "updateTakerFee",
      "outputs": [],
      "stateMutability": "nonpayable",
      "type": "function"
    },
    {
      "inputs": [
        {
          "components": [
            {
              "internalType": "PackedFixed18",
              "name": "minRate",
              "type": "int128"
            },
            {
              "internalType": "PackedFixed18",
              "name": "maxRate",
              "type": "int128"
            },
            {
              "internalType": "PackedFixed18",
              "name": "targetRate",
              "type": "int128"
            },
            {
              "internalType": "PackedUFixed18",
              "name": "targetUtilization",
              "type": "uint128"
            }
          ],
          "internalType": "struct JumpRateUtilizationCurve",
          "name": "newUtilizationCurve",
          "type": "tuple"
        }
      ],
      "name": "updateUtilizationCurve",
      "outputs": [],
      "stateMutability": "nonpayable",
      "type": "function"
    },
    {
      "inputs": [],
      "name": "utilizationCurve",
      "outputs": [
        {
          "components": [
            {
              "internalType": "PackedFixed18",
              "name": "minRate",
              "type": "int128"
            },
            {
              "internalType": "PackedFixed18",
              "name": "maxRate",
              "type": "int128"
            },
            {
              "internalType": "PackedFixed18",
              "name": "targetRate",
              "type": "int128"
            },
            {
              "internalType": "PackedUFixed18",
              "name": "targetUtilization",
              "type": "uint128"
            }
          ],
          "internalType": "struct JumpRateUtilizationCurve",
          "name": "",
          "type": "tuple"
        }
      ],
      "stateMutability": "view",
      "type": "function"
    },
    {
      "inputs": [
        {
          "internalType": "uint256",
          "name": "oracleVersion",
          "type": "uint256"
        }
      ],
      "name": "valueAtVersion",
      "outputs": [
        {
          "components": [
            {
              "internalType": "Fixed18",
              "name": "maker",
              "type": "int256"
            },
            {
              "internalType": "Fixed18",
              "name": "taker",
              "type": "int256"
            }
          ],
          "internalType": "struct Accumulator",
          "name": "",
          "type": "tuple"
        }
      ],
      "stateMutability": "view",
      "type": "function"
    }
  ],
  "transactionHash": "0x8833e147879db568e1cf99fa55b7750ea3417219af0e324d3779f2793e90ef5a",
  "args": [],
  "numDeployments": 1,
  "solcInputHash": "a94c7c3630faebd0874cdd6386cdd2fc",
  "bytecode": "0x6080806040523461001757615fdc90816200001d8239f35b600080fdfe60806040526004361015610013575b600080fd5b60003560e01c806305d5c1cb146103fb57806306fdde03146103f25780630dbc9ce1146103e957806311da60b4146103e0578063153261e5146103d757806319377567146103ce5780631cb44dfc146103c55780631e0c6fb9146103bc57806320fe9c3c146103b3578063212e0ad3146103aa5780632131ea4a146103a15780632d2e52be146103985780633a25c1111461038f5780633e17b8c71461038657806343f0179b1461037d578063476fa96d1461037457806354fb39211461036b57806356bc1ad41461036257806358ca6f981461035957806359218fe914610350578063597e1fb51461034757806359ea287d1461033e5780635d16e1201461033557806360ec91d61461032c578063611c71b4146103235780636943b0171461031a5780636c376cc5146103115780636ecffff91461030857806373b88f3b146102ff57806376f37001146102f65780637dc0d1d0146102ed5780637ece075d146102e45780638c94b48f146102db5780638e480b20146102d257806391689024146102c95780639378bf7b146102c057806395d89b41146102b75780639a427d03146102ae5780639d888e86146102a5578063a12e1b331461029c578063ab582f2914610293578063b7648fb91461028a578063c07f47d414610281578063d7d7d6b814610278578063e1c3c98d1461026f578063e503b00714610266578063f667f8971461025d578063f6b3200814610254578063f77c47911461024b5763fc741c7c1461024357600080fd5b61000e6123b0565b5061000e612379565b5061000e6122c2565b5061000e612201565b5061000e6120cc565b5061000e611fc5565b5061000e611f01565b5061000e611ee2565b5061000e611e9d565b5061000e611e47565b5061000e611e1e565b5061000e611d45565b5061000e611d0f565b5061000e611cde565b5061000e611b95565b5061000e611b50565b5061000e611b12565b5061000e611a0b565b5061000e6119dd565b5061000e61197d565b5061000e6118c1565b5061000e6117eb565b5061000e611646565b5061000e61161a565b5061000e611576565b5061000e61146f565b5061000e61140d565b5061000e6113e1565b5061000e6113b9565b5061000e61138b565b5061000e6112db565b5061000e611295565b5061000e61118e565b5061000e611087565b5061000e61105c565b5061000e611030565b5061000e610f29565b5061000e610ebf565b5061000e610d66565b5061000e610bf4565b5061000e610ae2565b5061000e610a90565b5061000e610a3a565b5061000e6108e7565b5061000e6108aa565b5061000e61075e565b5061000e610676565b5061000e61064a565b5061000e61061a565b5061000e61042f565b600091031261000e57565b6002111561041957565b634e487b7160e01b600052602160045260246000fd5b503461000e57600036600319011261000e57606061044b61490e565b60405190805161045a8161040f565b8252602081015161046a8161040f565b6020830152604061ffff19910151166040820152f35b50634e487b7160e01b600052600060045260246000fd5b90600182811c921680156104c7575b60208310146104b157565b634e487b7160e01b600052602260045260246000fd5b91607f16916104a6565b50634e487b7160e01b600052604160045260246000fd5b601f909101601f19168101906001600160401b0382119082101761050b57604052565b6105136104d1565b604052565b906105c4575b6040519081600082549261053184610497565b9081845260019485811690816000146105a1575060011461055e575b505061055b925003826104e8565b90565b9093915060005260209081600020936000915b81831061058957505061055b9350820101388061054d565b85548784018501529485019486945091830191610571565b91505061055b94506020925060ff191682840152151560051b820101388061054d565b6105cc610480565b61051e565b6020808252825181830181905290939260005b82811061060657505060409293506000838284010152601f8019910116010190565b8181018601518482016040015285016105e4565b503461000e57600036600319011261000e5761064661063a600080610518565b604051918291826105d1565b0390f35b503461000e57600036600319011261000e576020600080516020615e6783398151915254604051908152f35b503461000e5760008060031936011261075b57600080516020615e4783398151915260028154146107495760028155600080516020615f6783398151915254604051635c975abb60e01b815290602090829060049082906001600160a01b03165afa90811561073c575b839161070e575b506106fc576001906106f7612663565b505580f35b604051633b3b4caf60e21b8152600490fd5b61072f915060203d8111610735575b61072781836104e8565b8101906125fa565b386106e7565b503d61071d565b61074461260f565b6106e0565b604051637990191b60e11b8152600490fd5b80fd5b503461000e57608036600319011261000e5761079061078b600080516020615f6783398151915254611971565b611971565b604051633e92a73360e11b8152906020908183806107b13060048301613d24565b0381845afa92831561089d575b60009361086e575b50604051635091e19f60e11b815260048101849052908290829060249082905afa918215610861575b600092610834575b5050336001600160a01b0390911603610816576108146004614674565b005b60405163123d8bcf60e21b81526004810191909152602490fd5b0390fd5b6108539250803d1061085a575b61084b81836104e8565b81019061263d565b38806107f7565b503d610841565b61086961260f565b6107ef565b61088f919350823d8411610896575b61088781836104e8565b810190613c8b565b91386107c6565b503d61087d565b6108a561260f565b6107be565b503461000e57600036600319011261000e576020600080516020615f4783398151915254604051908152f35b6001600160a01b0381160361000e57565b503461000e5760208060031936011261000e5760043590610907826108d6565b61092261078b600080516020615f6783398151915254611971565b604051633e92a73360e11b815291908183806109413060048301613d24565b0381845afa9283156109ec575b6000936109cd575b50604051635091e19f60e11b815260048101849052908290829060249082905afa9182156109c0575b6000926109a3575b5050336001600160a01b03909116036108165761081482613d81565b6109b99250803d1061085a5761084b81836104e8565b3880610987565b6109c861260f565b61097f565b6109e5919350823d84116108965761088781836104e8565b9138610956565b6109f461260f565b61094e565b60208091805184520151910152565b610a38909291926060604060a083019580518452610a2e602082015160208601906109f9565b01519101906109f9565b565b503461000e57602036600319011261000e57600435610a58816108d6565b610a60613a70565b5060018060a01b03166000526002602052610646610a846002604060002001612d5c565b60405191829182610a08565b503461000e57602036600319011261000e57610aaa6131d2565b50610646610abb600435600a6150c5565b604051918291829190916020806040830194805184520151910152565b8015150361000e57565b503461000e5760208060031936011261000e5760043590610b0282610ad8565b610b1d61078b600080516020615f6783398151915254611971565b604051633e92a73360e11b81529190818380610b3c3060048301613d24565b0381845afa928315610be7575b600093610bc8575b50604051635091e19f60e11b815260048101849052908290829060249082905afa918215610bbb575b600092610b9e575b5050336001600160a01b03909116036108165761081482613d37565b610bb49250803d1061085a5761084b81836104e8565b3880610b82565b610bc361260f565b610b7a565b610be0919350823d84116108965761088781836104e8565b9138610b51565b610bef61260f565b610b49565b503461000e5760408060031936011261000e576004803590610c15826108d6565b600080516020615e47833981519152926002845414610d595760028455600080516020615f67833981519152548151635c975abb60e01b81526001600160a01b039182169160209182818781875afa908115610d4c575b600091610d2f575b50610d1f57808616331491858315610cc0575b505050905015610ca357600184610ca060243586613364565b55005b51636dc3a3c360e01b815290819061083090339085908401612d07565b9193819350855192838092630479e58f60e41b82525afa918215610d12575b600092610cf5575b505016331480388085610c87565b610d0b9250803d1061085a5761084b81836104e8565b3880610ce7565b610d1a61260f565b610cdf565b50505051633b3b4caf60e21b8152fd5b610d469150833d85116107355761072781836104e8565b38610c74565b610d5461260f565b610c6c565b51637990191b60e11b8152fd5b503461000e5760408060031936011261000e576004803590610d87826108d6565b600080516020615e47833981519152926002845414610d595760028455600080516020615f67833981519152548151635c975abb60e01b81526001600160a01b039182169160209182818781875afa908115610eb2575b600091610e95575b50610d1f57600080516020615ec783398151915254610e8557808616331491858315610e26575b505050905015610ca357600184610ca060243586613504565b9193819350855192838092630479e58f60e41b82525afa918215610e78575b600092610e5b575b505016331480388085610e0d565b610e719250803d1061085a5761084b81836104e8565b3880610e4d565b610e8061260f565b610e45565b5050505163ded15dbf60e01b8152fd5b610eac9150833d85116107355761072781836104e8565b38610de6565b610eba61260f565b610dde565b503461000e57600036600319011261000e5760c0610edb613ebe565b6040519080511515825260a060018060401b039182602082015116602085015260408101511515604085015282606082015116606085015260808101511515608085015201511660a0820152f35b503461000e5760208060031936011261000e57610f5761078b600080516020615f6783398151915254611971565b604051633e92a73360e11b81529190818380610f763060048301613d24565b0381845afa928315611023575b600093611004575b50604051635091e19f60e11b815260048101849052908290829060249082905afa918215610ff7575b600092610fda575b5050336001600160a01b0390911603610816576108146004356140ee565b610ff09250803d1061085a5761084b81836104e8565b3880610fbc565b610fff61260f565b610fb4565b61101c919350823d84116108965761088781836104e8565b9138610f8b565b61102b61260f565b610f83565b503461000e57600036600319011261000e576020600080516020615ea783398151915254604051908152f35b503461000e57602036600319011261000e576110766131d2565b50610646610abb600435600a615130565b503461000e5760208060031936011261000e576110b561078b600080516020615f6783398151915254611971565b604051633e92a73360e11b815291908183806110d43060048301613d24565b0381845afa928315611181575b600093611162575b50604051635091e19f60e11b815260048101849052908290829060249082905afa918215611155575b600092611138575b5050336001600160a01b03909116036108165761081460043561443e565b61114e9250803d1061085a5761084b81836104e8565b388061111a565b61115d61260f565b611112565b61117a919350823d84116108965761088781836104e8565b91386110e9565b61118961260f565b6110e1565b503461000e5760208060031936011261000e576111bc61078b600080516020615f6783398151915254611971565b604051633e92a73360e11b815291908183806111db3060048301613d24565b0381845afa928315611288575b600093611269575b50604051635091e19f60e11b815260048101849052908290829060249082905afa91821561125c575b60009261123f575b5050336001600160a01b039091160361081657610814600435613f8e565b6112559250803d1061085a5761084b81836104e8565b3880611221565b61126461260f565b611219565b611281919350823d84116108965761088781836104e8565b91386111f0565b61129061260f565b6111e8565b503461000e57602036600319011261000e576004356112b3816108d6565b60018060a01b03166000526002602052602060ff600760406000200154166040519015158152f35b503461000e57602036600319011261000e57600080516020615e4783398151915260028154146107495760028155600080516020615f6783398151915254604051635c975abb60e01b815290602090829060049082906001600160a01b03165afa90811561137e575b600091611360575b506106fc57600190610ca060043533613809565b611378915060203d81116107355761072781836104e8565b3861134c565b61138661260f565b611344565b503461000e57600036600319011261000e576020600080516020615ec7833981519152546040519015158152f35b503461000e57600036600319011261000e576113d3613a70565b50610646610a846004612d5c565b503461000e57600036600319011261000e576020600080516020615e0783398151915254604051908152f35b503461000e57604036600319011261000e576020611467611442611435600435602435613c65565b61143d613e25565b613aaf565b611462670de0b6b3a764000061145c816301e133806130db565b926130db565b613c04565b604051908152f35b503461000e5760208060031936011261000e5761149d61078b600080516020615f6783398151915254611971565b604051633e92a73360e11b815291908183806114bc3060048301613d24565b0381845afa928315611569575b60009361154a575b50604051635091e19f60e11b815260048101849052908290829060249082905afa91821561153d575b600092611520575b5050336001600160a01b039091160361081657610814600435614310565b6115369250803d1061085a5761084b81836104e8565b3880611502565b61154561260f565b6114fa565b611562919350823d84116108965761088781836104e8565b91386114d1565b61157161260f565b6114c9565b503461000e57602036600319011261000e57600435611594816108d6565b60018060a01b0316600052600260205261064660406000206115ef604051916115be6060846104e8565b6115c781612d3c565b835260ff60076115d960028401612d5c565b92836020870152015416151560408401526148d6565b9081611609575b5060405190151581529081906020820190565b6116149150516148f7565b386115f6565b503461000e57600036600319011261000e576020600080516020615d4783398151915254604051908152f35b503461000e5760031960203682011261000e57600435906001600160401b03821161000e576102008260040191833603011261000e5760017f5db5abc19987c2b3729df7961b62b6bb0bae886dd47e3ce25bb3a3af34c6d80b81815410156117d257819055600080516020615de783398151915292818455303b1515806117ca575b6117b857333b156117a6577fbe9b076dc5b65990cca9dd9d7366682482e7817a6f6bc7f4faf4dc32af497f32936117906117896117a195602460009533600080516020615f678339815191525561172e61172460a483016123dc565b604483019061496f565b6117366125c1565b61176e611747366101848401612402565b61016483013561014484013561012485013561010486013560e487013560c4880135613d96565b61178261177b8480612466565b90896124ec565b0190612466565b90856124ec565b556040519081529081906020820190565b0390a1005b6040516314878b6960e01b8152600490fd5b604051631a27c4a960e21b8152600490fd5b5060006116c8565b604051631e7a9d9560e01b815260048101839052602490fd5b503461000e57602036600319011261000e57600080516020615e4783398151915260028154146107495760028155600080516020615f6783398151915254604051635c975abb60e01b815290602090829060049082906001600160a01b03165afa9081156118b4575b600091611896575b506106fc57600080516020615ec78339815191525461188457600190610ca060043533612d21565b60405163ded15dbf60e01b8152600490fd5b6118ae915060203d81116107355761072781836104e8565b3861185c565b6118bc61260f565b611854565b503461000e57602036600319011261000e57600080516020615e4783398151915260028154146107495760028155600080516020615f6783398151915254604051635c975abb60e01b815290602090829060049082906001600160a01b03165afa908115611964575b600091611946575b506106fc57600190610ca060043533613364565b61195e915060203d81116107355761072781836104e8565b38611932565b61196c61260f565b61192a565b6001600160a01b031690565b503461000e57600036600319011261000e57600080516020615da7833981519152546040516001600160a01b039091168152602090f35b6040809180518452602081015160208501520151910152565b606081019291610a3891906119b4565b503461000e57602036600319011261000e5760606119fc600435614b96565b611a0960405180926119b4565bf35b503461000e5760208060031936011261000e57611a3961078b600080516020615f6783398151915254611971565b604051633e92a73360e11b81529190818380611a583060048301613d24565b0381845afa928315611b05575b600093611ae6575b50604051635091e19f60e11b815260048101849052908290829060249082905afa918215611ad9575b600092611abc575b5050336001600160a01b039091160361081657610814600435614553565b611ad29250803d1061085a5761084b81836104e8565b3880611a9e565b611ae161260f565b611a96565b611afe919350823d84116108965761088781836104e8565b9138611a6d565b611b0d61260f565b611a65565b503461000e57602036600319011261000e57600435611b30816108d6565b60018060a01b031660005260096020526020604060002054604051908152f35b503461000e57602036600319011261000e57600435611b6e816108d6565b60018060a01b031660005260026020526020611467611b906040600020612d3c565b615a77565b503461000e5760408060031936011261000e576004803590611bb6826108d6565b600080516020615e47833981519152926002845414610d595760028455600080516020615f67833981519152548151635c975abb60e01b81526001600160a01b039182169160209182818781875afa908115611cd1575b600091611cb4575b50610d1f57600080516020615ec783398151915254610e8557808616331491858315611c55575b505050905015610ca357600184610ca060243586612d21565b9193819350855192838092630479e58f60e41b82525afa918215611ca7575b600092611c8a575b505016331480388085611c3c565b611ca09250803d1061085a5761084b81836104e8565b3880611c7c565b611caf61260f565b611c74565b611ccb9150833d85116107355761072781836104e8565b38611c15565b611cd961260f565b611c0d565b503461000e57600036600319011261000e5761064661063a60006001610518565b604081019291610a3891906109f9565b503461000e57602036600319011261000e57611d296131d2565b506040611d396004356003615c0f565b611a09825180926109f9565b503461000e57600036600319011261000e57611d5f61261c565b50600080516020615da783398151915254604051634ec4474360e11b81526060916119fc91908390829060049082906001600160a01b03165afa908115611ddc575b600091611daf575b50614cd1565b611dcf9150833d8111611dd5575b611dc781836104e8565b810190614b63565b38611da9565b503d611dbd565b611de461260f565b611da1565b6060908051600f0b83526020810151600f0b60208401526040810151600f0b60408401528160018060801b0391015116910152565b503461000e57600036600319011261000e576080611e3a613e25565b611a096040518092611de9565b503461000e57602036600319011261000e57600435611e65816108d6565b60018060a01b031660005260026020526020611467611b906040600020611e976002611e9083612d3c565b9201612d5c565b906131ed565b503461000e57602036600319011261000e57600435611ebb816108d6565b611ec36131d2565b5060018060a01b031660005260026020526040611d3981600020612d3c565b503461000e57600036600319011261000e576020600a54604051908152f35b503461000e57602036600319011261000e57600080516020615e4783398151915260028154146107495760028155600080516020615f6783398151915254604051635c975abb60e01b815290602090829060049082906001600160a01b03165afa908115611fb8575b600091611f9a575b506106fc57600080516020615ec78339815191525461188457600190610ca060043533613504565b611fb2915060203d81116107355761072781836104e8565b38611f72565b611fc061260f565b611f6a565b503461000e5760208060031936011261000e57611ff361078b600080516020615f6783398151915254611971565b604051633e92a73360e11b815291908183806120123060048301613d24565b0381845afa9283156120bf575b6000936120a0575b50604051635091e19f60e11b815260048101849052908290829060249082905afa918215612093575b600092612076575b5050336001600160a01b039091160361081657610814600435614047565b61208c9250803d1061085a5761084b81836104e8565b3880612058565b61209b61260f565b612050565b6120b8919350823d84116108965761088781836104e8565b9138612027565b6120c761260f565b61201f565b503461000e5760408060031936011261000e5760048035906120ed826108d6565b600080516020615e47833981519152926002845414610d595760028455600080516020615f67833981519152548151635c975abb60e01b81526001600160a01b039182169160209182818781875afa9081156121f4575b6000916121d7575b50610d1f57808616331491858315612178575b505050905015610ca357600184610ca060243586613809565b9193819350855192838092630479e58f60e41b82525afa9182156121ca575b6000926121ad575b50501633148038808561215f565b6121c39250803d1061085a5761084b81836104e8565b388061219f565b6121d261260f565b612197565b6121ee9150833d85116107355761072781836104e8565b3861214c565b6121fc61260f565b612144565b503461000e57602036600319011261000e5760043561221f816108d6565b600080516020615e4783398151915260028154146107495760028155600080516020615f6783398151915254604051635c975abb60e01b815290602090829060049082906001600160a01b03165afa9081156122b5575b600091612297575b506106fc57610ca0600192612291612663565b9061298a565b6122af915060203d81116107355761072781836104e8565b3861227e565b6122bd61260f565b612276565b503461000e57602036600319011261000e576004356122e0816108d6565b600460206122ff61078b600080516020615f6783398151915254611971565b60405163d8dfeb4560e01b815292839182905afa90811561236c575b60009161234e575b506001600160a01b0316330361233c57610814906139eb565b6040516340cbe9b160e01b8152600490fd5b612366915060203d811161085a5761084b81836104e8565b38612323565b61237461260f565b61231b565b503461000e57600036600319011261000e57600080516020615f67833981519152546040516001600160a01b039091168152602090f35b503461000e57600036600319011261000e576020600080516020615e8783398151915254604051908152f35b3561055b816108d6565b90610a3860405192836104e8565b359081600f0b820361000e57565b919082608091031261000e5760405161241c6080826104e8565b60608193612429816123f4565b8352612437602082016123f4565b6020840152612448604082016123f4565b60408401520135906001600160801b038216820361000e5760600152565b903590601e198136030182121561000e57018035906001600160401b03821161000e5760200191813603831361000e57565b90601f81116124a657505050565b600091825260208220906020601f850160051c830194106124e2575b601f0160051c01915b8281106124d757505050565b8181556001016124cb565b90925082906124c2565b9092916001600160401b0381116125b4575b6125128161250c8454610497565b84612498565b6000601f821160011461254c5781929394600092612541575b50508160011b916000199060031b1c1916179055565b01359050388061252b565b601f1982169461256184600052602060002090565b91805b87811061259c575083600195969710612582575b505050811b019055565b0135600019600384901b60f8161c19169055388080612578565b90926020600181928686013581550194019101612564565b6125bc6104d1565b6124fe565b303b1515806125e3575b6117b8576001600080516020615e4783398151915255565b50600080516020615de783398151915254156125cb565b9081602091031261000e575161055b81610ad8565b506040513d6000823e3d90fd5b6040519061262b6060836104e8565b60006040838281528260208201520152565b9081602091031261000e575161055b816108d6565b908152602081019190915260400190565b61266b61261c565b50612684600080516020615f6783398151915254611971565b9061268d614c7c565b91600a5490835182146128e6576126a382614b96565b906126b085516004612916565b855181036128d7575084915b604051631bf1901f60e21b81526001600160a01b03926020929084169184908481600481875afa9081156128ca575b6000916128ad575b501690813b1561000e5760405163a55ff01d60e01b81528992600090829081838161272189600483016119cd565b03925af180156128a0575b61288b575b506127558661274d81612742613c9a565b94600386600a615171565b986003615c6e565b61275d6146cc565b8551825103612857575b5050816004916040519283809263d8dfeb4560e01b82525afa91821561284a575b60009261282d575b50501691823b1561000e57604051637f3dd53b60e01b815260048101919091527f88a84ea6dd274b386afd27dbbe11b6192b25017f5e60bb8c4053dfddb45c294d926000908290602490829084905af18015612820575b612805575b505183519061280060405192839283612652565b0390a1565b80612814600061281a936104e8565b80610404565b386127ec565b61282861260f565b6127e7565b6128439250803d1061085a5761084b81836104e8565b3880612790565b61285261260f565b612788565b6004929661286e859388600361287495600a615171565b90612901565b956128828987516003615c6e565b91889150612767565b80612814600061289a936104e8565b38612731565b6128a861260f565b61272c565b6128c49150853d871161085a5761084b81836104e8565b386126f3565b6128d261260f565b6126eb565b6128e090614b96565b916126bc565b5050565b50634e487b7160e01b600052601160045260246000fd5b9190820180921161290e57565b610a386128ea565b5480612920575090565b9050600181018091116129305790565b61055b6128ea565b9060018060a01b0316600052602052604060002090565b6001600160a01b039091168152608081019291610a3891602001906119b4565b6001600160a01b039091168152602081019190915260400190565b6129a2600080516020615f6783398151915254611971565b6129ad826009612938565b54835114612cc4576129cd60026129c48482612938565b01845190612916565b83518103612cb5575082915b60018060a01b038092166040805194631bf1901f60e21b9283875260208660049882818b81875afa908115612ca8575b600091612c8b575b5016803b1561000e578792878a92600088518092818381612a408d63060c0d2760e21b998a84528c840161294f565b03925af18015612c7e575b612c69575b50612a7c612a77612a628b6009612938565b612a6d8c6002612938565b600a8a5192614fbb565b612ce5565b97612a9187612a8c8c6002612938565b6159e5565b86518d5103612b85575b5050829086519283809263d8dfeb4560e01b82525afa918215612b78575b600092612b5b575b505016803b1561000e576000612b3494612b139287837f9d7055d24918d8c2fd08660a27bf31d4086fa71a51cd07874276470223aa480f9b8851968795869485936364e5a46f60e11b8552840161296f565b03925af18015612b4e575b612b39575b505195519051938493169583612652565b0390a2565b806128146000612b48936104e8565b38612b23565b612b5661260f565b612b1e565b612b719250803d1061085a5761084b81836104e8565b3880612ac1565b612b8061260f565b612ab9565b909491979250865190815283818c818b5afa908115612c5c575b600091612c3f575b5016803b1561000e57612c158a92612c0f612a778b8f808f9a838b998f60008094612bde8f9351978896879586948552840161294f565b03925af18015612c32575b612c1d575b50600a612c07612bff846009612938565b936002612938565b915192614fbb565b90612cc9565b969038612a9b565b806128146000612c2c936104e8565b38612bee565b612c3a61260f565b612be9565b612c569150843d861161085a5761084b81836104e8565b38612ba7565b612c6461260f565b612b9f565b806128146000612c78936104e8565b38612a50565b612c8661260f565b612a4b565b612ca29150833d851161085a5761084b81836104e8565b38612a11565b612cb061260f565b612a09565b612cbe90614b96565b916129d9565b505050565b9190916000838201938412911290801582169115161761290e57565b6020815191015190600082820192831291129080158216911516176129305790565b6001600160a01b0391821681529116602082015260400190565b90610a3891612d37612d31612663565b8261298a565b612d94565b90604051612d4b6040826104e8565b602060018294805484520154910152565b90604051612d6b6060826104e8565b6040612d8f6003839580548552612d8460018201612d3c565b602086015201612d3c565b910152565b60018060a01b03908181166000526020916002835260409360ff600786600020015416612f3b5790612dc7849284612f4c565b81612de361078b600080516020615f6783398151915254611971565b9186519586809463d8dfeb4560e01b825260049889915afa928315612f2e575b600093612f0f575b5086516301c8232360e71b8152928391829081612e2b308a8c8401612d07565b0392165afa918215612f02575b600092612ee5575b5050612ed657612e54612e59916002612938565b615b55565b612ec857600080516020615ec7833981519152546128e657612e90612e8b612e82600a54613a9b565b611e9784612d5c565b6132c5565b91612ea3670de0b6b3a7640000846131a4565b15612ead57505050565b5163d8b8b95160e01b81529081019182529081906020010390fd5b90516390898fd160e01b8152fd5b5090516324a21d2960e01b8152fd5b612efb9250803d106107355761072781836104e8565b3880612e40565b612f0a61260f565b612e38565b612f27919350823d841161085a5761084b81836104e8565b9138612e0b565b612f3661260f565b612e03565b8451636830d4d760e01b8152600490fd5b90612f58600a54614b96565b90612f72816002612f698682612938565b01845190613342565b612f7f8183516004613342565b612fae612f98612f9260408501516131c1565b8361318d565b600080516020615ea7833981519152549061318d565b9182612fe4575b516040516001600160a01b0390941693600080516020615d878339815191529350918291612b34919083612652565b61303d6004602061300661078b600080516020615f6783398151915254611971565b60405163d8dfeb4560e01b815292839182905afa9081156130ce575b6000916130b0575b506001600160a01b03169360001961310c565b833b1561000e576000613078600080516020615d878339815191529582936040519485809481936364e5a46f60e11b83528c6004840161296f565b03925af180156130a3575b61308e575b50612fb5565b80612814600061309d936104e8565b38613088565b6130ab61260f565b613083565b6130c8915060203d811161085a5761084b81836104e8565b3861302a565b6130d661260f565b613022565b818102929160008212600160ff1b8214166130ff575b818405149015171561290e57565b6131076128ea565b6130f1565b60008113613135576000136131215750600090565b61312d61055b9161313b565b6000196130db565b5061055b905b6001600160ff1b03811161314c5790565b6024906040519062a07eb560e01b82526004820152fd5b8181029291811591840414171561290e57565b50634e487b7160e01b600052601260045260246000fd5b670de0b6b3a7640000916131a091613163565b0490565b8181116131ba57106131b557600190565b600090565b5050600290565b60008082126131ce575090565b0390565b604051906131e16040836104e8565b60006020838281520152565b90604061320b61055b936131ff6131d2565b50602084015190613214565b91015190613272565b9061321d6131d2565b5060208083519383518501809511613265575b01519101518101809111613258575b6040519161324e6040846104e8565b8252602082015290565b6132606128ea565b61323f565b61326d6128ea565b613230565b9061327b6131d2565b50602080835193835185039485116132ab575b01519101518103908111613258576040519161324e6040846104e8565b6132b36128ea565b61328e565b9190820391821161290e57565b602081015160009190806132e257505050670de0b6b3a764000090565b6132ec9151613308565b670de0b6b3a7640000915080821015613303575090565b905090565b670de0b6b3a764000090818102918183041490151715613335575b811561332d570490565b6131a0613176565b61333d6128ea565b613323565b9091600282018054918201809211613358575555565b6133606128ea565b5555565b61336f612d31612663565b6001600160a01b03811660008181526002602052604090206007015490929060ff166133cb5761339e916133dd565b60005260026020526133b36040600020615bbb565b6133b957565b604051633975ab9360e01b8152600490fd5b604051636830d4d760e01b8152600490fd5b906133e9600a54614b96565b906134038160026133fa8682612938565b018451906134ee565b61341081835160046134ee565b613423612f98612f9260408501516131c1565b9182613459575b516040516001600160a01b0390941693600080516020615e278339815191529350918291612b34919083612652565b61347b6004602061300661078b600080516020615f6783398151915254611971565b833b1561000e5760006134b6600080516020615e278339815191529582936040519485809481936364e5a46f60e11b83528c6004840161296f565b03925af180156134e1575b6134cc575b5061342a565b8061281460006134db936104e8565b386134c6565b6134e961260f565b6134c1565b9091600482018054918201809211613358575555565b90613516613510612663565b8361298a565b600a54156136aa5760018060a01b03918281166000526020926002845260409260ff60078560002001541661369957906135518592846136bc565b8161356d61078b600080516020615f6783398151915254611971565b9185519687809463d8dfeb4560e01b82526004998a915afa92831561368c575b60009361366d575b5085516301c8232360e71b81529283918290816135b5308a8d8401612d07565b0392165afa918215613660575b600092613643575b505061363557612e546135de916002612938565b613628576136136135fc6135f3600a54613a9b565b611e9785612d5c565b51600080516020615f4783398151915254906137e3565b61361b575050565b5163677e872f60e11b8152fd5b516390898fd160e01b8152fd5b50516324a21d2960e01b8152fd5b6136599250803d106107355761072781836104e8565b38806135ca565b61366861260f565b6135c2565b613685919350823d841161085a5761084b81836104e8565b9138613595565b61369461260f565b61358d565b8351636830d4d760e01b8152600490fd5b60405163c25d67ab60e01b8152600490fd5b906136c8600a54614b96565b906136e28160026136d98682612938565b018451906137f3565b6136ef81835160046137f3565b613718613702612f9260408501516131c1565b600080516020615e87833981519152549061318d565b918261374e575b516040516001600160a01b0390941693600080516020615f278339815191529350918291612b34919083612652565b6137706004602061300661078b600080516020615f6783398151915254611971565b833b1561000e5760006137ab600080516020615f278339815191529582936040519485809481936364e5a46f60e11b83528c6004840161296f565b03925af180156137d6575b6137c1575b5061371f565b8061281460006137d0936104e8565b386137bb565b6137de61260f565b6137b6565b6002916137ef916131a4565b1490565b9091600182018054918201809211613358575555565b90610a3891613819612d31612663565b6001600160a01b03811660008181526002602052604090206007015490929060ff166133cb57613848916138c4565b600052600260205261385d6040600020615bbb565b6133b957600080516020615ec783398151915254610a3857613890612e8b613886600a54613a9b565b611e976004612d5c565b6138a2670de0b6b3a7640000826131a4565b156138aa5750565b60405163d8b8b95160e01b81526004810191909152602490fd5b906138d0600a54614b96565b906138ea8160026138e18682612938565b018451906139d5565b6138f781835160046139d5565b61390a613702612f9260408501516131c1565b9182613940575b516040516001600160a01b0390941693600080516020615f878339815191529350918291612b34919083612652565b6139626004602061300661078b600080516020615f6783398151915254611971565b833b1561000e57600061399d600080516020615f878339815191529582936040519485809481936364e5a46f60e11b83528c6004840161296f565b03925af180156139c8575b6139b3575b50613911565b8061281460006139c2936104e8565b386139ad565b6139d061260f565b6139a8565b9091600382018054918201809211613358575555565b600080516020615ec78339815191525461188457600790613a0d612d31612663565b613a6260018060a01b038216918260005260026020526020613a4f604060002094613a3786612d3c565b9060005260028352611e976002604060002001612d5c565b613a5a8151846138c4565b0151906133dd565b01805460ff19166001179055565b60405190613a7f6060836104e8565b8160008152613a8c6131d2565b60208201526040612d8f6131d2565b61055b90613aa76131d2565b506003615c0f565b60608101519091906001600160801b0316613aca81836131a4565b15613b1257670de0b6b3a764000090613ae382846131a4565b15613af55750505060200151600f0b90565b9083916020604061055b960151930151600f0b92600f0b90613b28565b9161055b9260408251920151600f0b91600f0b60005b90929391613b3682846131a4565b158015613bd8575b613bc65761055b94613b94613b8f83613b9a9686670de0b6b3a7640000976114629703928311613bb9575b8986039560008b128015828913169188121617613bac575b8103908111613b9f57613308565b61313b565b906130db565b612cc9565b613ba76128ea565b613308565b613bb46128ea565b613b81565b613bc16128ea565b613b69565b604051630db0f7cb60e01b8152600490fd5b506002613be582856131a4565b14613b3e565b8181039291600013801582851316918412161761290e57565b8115613c2c575b600160ff1b8114600019831416613c20570590565b613c286128ea565b0590565b613c34613176565b613c0b565b61146261055b92670de0b6b3a7640000926130db565b90611462670de0b6b3a764000061055b936130db565b9080613c825750613c7c57670de0b6b3a764000090565b60001990565b61055b91613308565b9081602091031261000e575190565b600080516020615e0783398151915254600080516020615f678339815191525460405163e975c0c360e01b815290602090829060049082906001600160a01b03165afa908115613d17575b600091613cf9575b50808210613303575090565b613d11915060203d81116108965761088781836104e8565b38613ced565b613d1f61260f565b613ce5565b6001600160a01b03909116815260200190565b7f482763b305ee10cd21c16c0cbeed259f2e4fcacdc9767cef16dc1fbe483d34886020613d62612663565b83600080516020615ec7833981519152555192604051938452151592a2565b600a54610a38916001600160a01b0316614c17565b95949295939093303b151580613de7575b6117b857610a3896613dd3613ddd94613dce613de298613dc9613dd896613f43565b613fe1565b61409a565b6142bc565b6143ea565b614518565b6145a6565b50600080516020615de78339815191525415613da7565b60405190613e0d6080836104e8565b60006060838281528260208201528260408201520152565b613e2d613dfe565b50613e36613dfe565b50604051613e456080826104e8565b600080516020615f078339815191525480600f0b825260801d600f0b6020820152600080516020615ee78339815191525480600f0b604083015260801c606082015290565b60405190613e9960c0836104e8565b8160a06000918281528260208201528260408201528260608201528260808201520152565b613ec6613e8a565b50613ecf613e8a565b50604051613ede60c0826104e8565b600080516020615d678339815191525460ff808216151583526001600160401b03600883901c81166020850152604883901c821615156040850152605083901c81166060850152609083901c9091161515608084015260989190911c1660a082015290565b7f18eb97ecd7366a8be310b7e675d67335c7604d5f47446a54a222473625a27e229080600080516020615d4783398151915255613f7e6147b4565b9061280060405192839283612652565b303b1561000e57604051630476982d60e21b8152610a38919060008160048183305af18015613fd4575b613fc3575b50613f43565b6000613fce916104e8565b38613fbd565b613fdc61260f565b613fb8565b6002613ff5670de0b6b3a7640000836131a4565b1461403557807fb2743902575ffdab882dfa43a3501f82fbbefa0d2c637e393aed1e80e2cb840b91600080516020615e0783398151915255613f7e6147b4565b604051632012d38160e11b8152600490fd5b303b1561000e57604051630476982d60e21b8152610a38919060008160048183305af1801561408d575b61407c575b50613fe1565b6000614087916104e8565b38614076565b61409561260f565b614071565b60026140ae670de0b6b3a7640000836131a4565b1461403557807f6bf5f38f4e94f47ae7a4d6e56dbf388c856f890b5f0f2808b66914710b0266ca91600080516020615e8783398151915255613f7e6147b4565b303b1561000e57604051630476982d60e21b815260008160048183305af180156141e1575b6141d0575b50614121614833565b6141c7576002614139670de0b6b3a7640000836131a4565b1461403557614146613ebe565b6001600160401b038083116141ae579161419e612800927f5dcd1837ba774ef7f1f06e50ad3f64097201da74055346f26a4c7dea9af9084e948316602082015260018152600080516020615d678339815191526141ee565b6040519081529081906020820190565b60405163477e89e360e01b815260048101849052602490fd5b610a389061409a565b60006141db916104e8565b38614118565b6141e961260f565b614113565b81518154602084015160408501516060860151600160501b600160901b0360509190911b166001600160901b031990931693151560ff1693909317610100600160481b0360089290921b919091161760ff60481b92151560481b9290921691909117178155610a38916142969060a09061428861426e6080830151151590565b855460ff60901b191690151560901b60ff60901b16178555565b01516001600160401b031690565b8154600160981b600160d81b03191660989190911b600160981b600160d81b0316179055565b60026142d0670de0b6b3a7640000836131a4565b1461403557807f8e37539629486a88c6a6083eb90030fb61cb856d56d96f53a326fda0d399ef3291600080516020615ea783398151915255613f7e6147b4565b303b1561000e57604051630476982d60e21b815260008160048183305af180156143dd575b6143cc575b50614343614833565b6143c357600261435b670de0b6b3a7640000836131a4565b1461403557614368613ebe565b6001600160401b038083116141ae579161419e612800927f4024ee9b51b90807c93e46f7e500580ef5b0b8491e1105188a44f62eed26b129948316606082015260016040820152600080516020615d678339815191526141ee565b610a38906142bc565b60006143d7916104e8565b3861433a565b6143e561260f565b614335565b60026143fe670de0b6b3a7640000836131a4565b1461403557807fd07cf37924efa8fca893c372ddfb1614e6fd8c02cfcc9205262535680b77b93491600080516020615e6783398151915255613f7e6147b4565b303b1561000e57604051630476982d60e21b815260008160048183305af1801561450b575b6144fa575b50614471614833565b6144f1576002614489670de0b6b3a7640000836131a4565b1461403557614496613ebe565b6001600160401b038083116141ae579161419e612800927f75d77d82706bf877275b9bc542ae4f30aca347d73558e05b56b35a1452f8613294831660a082015260016080820152600080516020615d678339815191526141ee565b610a38906143ea565b6000614505916104e8565b38614468565b61451361260f565b614463565b7fec4e0c10e4e0d362960c0114996546aa9c4d6cc297b00a7577e127b720791beb9080600080516020615f4783398151915255613f7e6147b4565b303b1561000e57604051630476982d60e21b8152610a38919060008160048183305af18015614599575b614588575b50614518565b6000614593916104e8565b38614582565b6145a161260f565b61457d565b60a07fb08b24c7f4e8b392d39bbaf1f4aa9bbb733ba9a467559eb8d9e2ffb634658e9091805161463860018060801b031991600080516020615f0783398151915261460a8482541660018060801b03938416178083556020870151600f0b90614657565b90556040840151600080516020615ee783398151915293845416908216179081845560608501511690614657565b90556146426147b4565b61464f6040518093611de9565b6080820152a1565b6001600160801b031660809190911b6001600160801b0319161790565b303b1561000e57604051630476982d60e21b8152610a3891613de29160008160048183305af180156146bf575b6146ae575b503690612402565b60006146b9916104e8565b386146a6565b6146c761260f565b6146a1565b6146d4613ebe565b80511590811580926147a7575b801561479a575b156128e657610a389161477e575b6040810151614762575b6080810151614746575b6147328160a06000918281528260208201528260408201528260608201528260808201520152565b600080516020615d678339815191526141ee565b60a081015161475d906001600160401b03166143ea565b61470a565b6060810151614779906001600160401b03166142bc565b614700565b6020810151614795906001600160401b031661409a565b6146f6565b50608081015115156146e8565b50604081015115156146e1565b303b156131b55760405163301fd1f560e21b8152602081600481305afa9081156147fc575b6000916147e4575090565b61055b915060203d81116108965761088781836104e8565b61480461260f565b6147d9565b919082604091031261000e576040516148236040826104e8565b6020808294805184520151910152565b6040516359ea287d60e01b815260a081600481305afa80156148c9575b600090614862575b61055b91506148d6565b60a03d81116148c2575b61487681846104e8565b82019060a08383031261075b5750906148b861055b9260606040519361489c82866104e8565b805185526148ad8360208301614809565b602086015201614809565b6040820152614858565b503d61486c565b6148d161260f565b614850565b6148e360208201516148f7565b90816148ed575090565b61055b9150604001515b8051159081614904575090565b6020915001511590565b61491661261c565b5061491f61261c565b5060405161492e6060826104e8565b600080516020615dc78339815191525460ff811661494b8161040f565b825260ff8160081c1661495d8161040f565b602083015261ffff1916604082015290565b303b151580614a33575b6117b857614992906000906001600160a01b0316614c17565b6149a461499f3683614a54565b614aa7565b15614a21576149b4903690614a54565b8051906149c08261040f565b6149c98261040f565b600080516020615dc78339815191529160ff83549116908160ff198216178455604061ff0060208501516149fc8161040f565b614a058161040f565b60081b1693848461ffff19809516171786550151169117179055565b604051639a51fe8f60e01b8152600490fd5b50600080516020615de78339815191525415614979565b6002111561000e57565b919082606091031261000e57604051614a6e6060826104e8565b604081938035614a7d81614a4a565b83526020810135614a8d81614a4a565b602084015201359061ffff198216820361000e5760400152565b60018151614ab48161040f565b614abd8261040f565b614ac68161040f565b14614ad8576040015161ffff19161590565b6001600160a01b0390614aea90614af1565b163b151590565b60018151614afe8161040f565b614b078261040f565b614b108161040f565b03614b28576040015160101c6001600160a01b031690565b8051604491614b368261040f565b604061ffff1991015116604051916327ada38760e11b8352614b578161040f565b60048301526024820152fd5b9081606091031261000e576040805191614b7e6060846104e8565b80518352602081015160208401520151604082015290565b61055b90614ba261261c565b50600080516020615da783398151915254604051637ece075d60e01b81526004810192909252606090829060249082906001600160a01b03165afa908115614c0a575b600091614bf25750614cd1565b611dcf915060603d8111611dd557611dc781836104e8565b614c1261260f565b614be5565b90813b15614c6a57816040917f41dd56c92c84169d8e89dc293d2649a911f47b357d3012bc88662395e01979d093600080516020615da78339815191525582519160018060a01b031682526020820152a1565b60405163d26af10d60e01b8152600490fd5b614c8461261c565b50600080516020615da78339815191525460405160016209351760e01b0319815261055b91606090829060049082906000906001600160a01b03165af1908115614c0a57600091614bf257505b614cd961261c565b50614ce261490e565b614cf26040830191825190614d1a565b905290565b6040810193929160209190614d0b8161040f565b8152614d168361040f565b0152565b8051614d258161040f565b6020820192835192614d368461040f565b614d40600061040f565b614d498361040f565b82614dd95750925b8051614d5c8161040f565b614d66600061040f565b614d6f8161040f565b614d795750505090565b60019051614d868161040f565b614d8f8261040f565b614d988161040f565b03614dbd57505061055b90614db7670de0b6b3a76400006000196130db565b90613c39565b610830604051928392631fafe5ed60e21b845260048401614cf7565b614de3600161040f565b614dec8361040f565b60018303614e045790614dfe91614e22565b92614d51565b5050610830604051928392631fafe5ed60e21b845260048401614cf7565b6001600160a01b0390614e3490614af1565b16604051906020928383019063d7c7a93560e01b8252602484015260248352614e5e6044846104e8565b614e686025614f59565b92614e7660405194856104e8565b602584527f416464726573733a206c6f772d6c6576656c207374617469632063616c6c20668585015264185a5b195960da1b6040850152823b15614f08576000614ef39361055b969593829351915afa3d15614f00573d90614ed782614f59565b91614ee560405193846104e8565b82523d60008684013e614f83565b8051810182019101613c8b565b606090614f83565b60405162461bcd60e51b8152600481018690526024808201527f416464726573733a207374617469632063616c6c20746f206e6f6e2d636f6e746044820152631c9858dd60e21b6064820152608490fd5b6020906001600160401b038111614f76575b601f01601f19160190565b614f7e6104d1565b614f6b565b90919015614f8f575090565b815115614f9f5750805190602001fd5b60405162461bcd60e51b815290819061083090600483016105d1565b9392919061509190614fcb6131d2565b5061146261504e614fe8614fdf87856150c5565b938954906150c5565b94614ff16131d2565b50602080855195885196600088820398128189128116918913901516176150b8575b015196015195600087820397128188128116918813901516176150ab575b604051936150406040866104e8565b845260208401958652612d3c565b936150576131d2565b50615089602061508161506a885161313b565b95611462670de0b6b3a764000097889251906130db565b96015161313b565b9051906130db565b604051916150a06040846104e8565b825260208201529255565b6150b36128ea565b615031565b6150c06128ea565b615013565b6001916150d06131d2565b506000520160205261055b6040600020604051906150ef6040836104e8565b5480600f0b825260801d600f0b60208201526151096131d2565b5060208151910151604051916151206040846104e8565b600f0b8252600f0b602082015290565b6002916150d06131d2565b815181546001600160801b0319166001600160801b0390911617808255602090920151909161516d91600f0b90614657565b9055565b92949391948080516151839088615c0f565b9284828561518f6131d2565b50615199936153f3565b91906151a686838761561a565b6151af9161538f565b976001016151bc90612d5c565b906151c79185615731565b97906151d29161538f565b968101809111926152456152739361526c61524f61524a61524a9661528b99615300575b9c6151ff6131d2565b966020808d01519181880151808403938085116152f3575b82516152b657505060005b8a52019081511560001461529057505060005b602088015261524585518d6150c5565b61538f565b61530d565b615267895160018c0190600052602052604060002090565b61513b565b5187615130565b61526783516002860190600052602052604060002090565b519055565b6152b1916152a9670de0b6b3a7640000613b8f93613163565b905190613308565b615235565b6152e191613b8f91670de0b6b3a7640000918288029288840414911417156152e6575b835190613308565b615222565b6152ee6128ea565b6152d9565b6152fb6128ea565b615217565b6153086128ea565b6151f6565b6153156131d2565b5061532d6020615325835161533c565b92015161533c565b604051916151206040846104e8565b60016001607f1b0381136153775760016001607f1b0319811261535f57600f0b90565b60249060405190634e02165d60e01b82526004820152fd5b60249060405190632cd75ba360e11b82526004820152fd5b906153986131d2565b50602080835193835194600086820196871291129080158216911516176153e6575b01519101519060008282019283129112908015821691151617613258576040519161324e6040846104e8565b6153ee6128ea565b6153ba565b9391939290926154016131d2565b9460409182519363597e1fb560e01b85526020948581600481305afa9081156155f3575b6000916155d6575b506155c357848701908151156155a2578751156155a25785015185840151615454916132b8565b928482516154619061313b565b91015161546d91613c39565b615476906131c1565b61547f886132c5565b6154889161318d565b935163307648eb60e11b815290858083806154a68c60048301611cff565b0381305afa938415996154f861556098614db76154f2614db7996155279f99615542986155579b615595575b600092615578575b5050614db7613b8f670de0b6b3a7640000809e613163565b9161313b565b90615548600061552d8a61551561550e876131c1565b9788613163565b049e8f61552187615600565b976132b8565b8661310c565b941291821561556e5761554284915b5161313b565b90613c4f565b8d52156155665750915161313b565b916000196130db565b90840152565b90509161553c565b615542859161553c565b61558e9250803d106108965761088781836104e8565b388e6154da565b61559d61260f565b6154d2565b5050505060009294506155b69193506123e6565b9181835282015290600090565b50505060009294506155b69193506123e6565b6155ed9150863d88116107355761072781836104e8565b3861542d565b6155fb61260f565b615425565b6000811361561457600013613c7c57600090565b50600190565b9291926156256131d2565b9360409283519363597e1fb560e01b85526020948581600481305afa908115615724575b600091615707575b506156f457848401928351156156d6578451156156d6576156b46156ae6156a761569b61569161554297876156d09b9a986156c898015191015190613beb565b614db7875161313b565b614db7613b8f896132c5565b955161313b565b85613c4f565b614db7670de0b6b3a76400006000196130db565b87525161313b565b90830152565b509150506000929394506156ea91506123e6565b9181835282015290565b9150506000929394506156ea91506123e6565b61571e9150863d88116107355761072781836104e8565b38615651565b61572c61260f565b615649565b9192909261573d6131d2565b93615747816148d6565b615828579061575591615881565b60405190630dbc9ce160e01b825261579b61579561578e6020948581600481305afa90811561581b575b6000916157fe575b5084615830565b8093613272565b9161586e565b8451909490156157e85782906157b9613b8f83850151835190613308565b87525b018051909190156157d85761556091613b8f9151905190613308565b905061055b929391505190612901565b936157f883918284015190612901565b946157bc565b6158159150863d88116108965761088781836104e8565b38615787565b61582361260f565b61577f565b506000925050565b906158396131d2565b5061585e670de0b6b3a764000091602083615855838751613163565b04940151613163565b046040519161324e6040846104e8565b6020815191015181018091116129305790565b6158896131d2565b506158d46158c76158a560209360408582015191015190613214565b936158cc846150816158c760406158bc8a5161313b565b950194855190613c39565b6131c1565b905190613c39565b604051633f1d071f60e21b815290928282600481305afa9182156159a7575b600092615984575b5061594390615914670de0b6b3a7640000938492613163565b6040516343f0179b60e01b8152919004948482600481305afa918215615977575b600092615958575b50613163565b049061594f60406123e6565b92835282015290565b615970919250853d87116108965761088781836104e8565b903861593d565b61597f61260f565b615935565b6159439192506159a090843d86116108965761088781836104e8565b91906158fb565b6159af61260f565b6158f3565b6004906000926159d8575b8281558260018201558260028201558260038201550155565b6159e0610480565b6159bf565b6020615a086159f383612d3c565b936002840194615a0286612d5c565b90615a34565b815184559101516001830155615a1c575050565b615a2960006007936159b4565b01805460ff19169055565b91615a3d6131d2565b50615a47826148d6565b159081615a6b575b5015615a6457615a5e916131ed565b90600190565b5090600090565b90505181511038615a4f565b6131a0615ac56158c7670de0b6b3a764000093615ac0613b8f60408051634ec4474360e11b8152606081600481305afa908115615b35575b600091615b17575b50015192615b42565b613c39565b604051636c376cc560e01b815290602082600481305afa918215615b0a575b600092615af15750613163565b61597091925060203d81116108965761088781836104e8565b615b1261260f565b615ae4565b615b2f915060603d8111611dd557611dc781836104e8565b38615ab7565b615b3d61260f565b615aaf565b8051602090910151808210613303575090565b80541580615baf575b80615ba3575b6001820154159182615b96575b82615b89575b50159081615b83575090565b90501590565b6006015415915038615b77565b6004810154159250615b71565b50600581015415615b64565b50600381015415615b5e565b615bd9615bc782612d3c565b615bd360038401612d3c565b90613214565b6002615beb60058401548351906131a4565b14918215615bf857505090565b60060154602090910151600292506137ef916131a4565b90615c186131d2565b50600052602052604060002060405190615c336040836104e8565b546001600160801b03808216835260809190911c60208301908152918190615c596131d2565b5051169151166040519161324e6040846104e8565b90615c799082615c0f565b91615d06615c8f826001850195615a0287612d5c565b9390615c996131d2565b50615cb16020615ca98351615d1a565b920151615d1a565b9160405194615cc16040876104e8565b6001600160801b0392831686529282166020808701918252935160009081529190935260409020935184546001600160801b0319169082161780855591511690614657565b9055615d0f5750565b6000610a38916159b4565b6001600160801b0390818111615d2e571690565b60249060405190635385129160e01b82526004820152fdfe968cf792ff9a89745e4746179e93a7b9d7f08b0ff8366fd6f6dbd524ef107464d729c7f2aea8904a802db9fc1939086967cdf7fffe1510c25ccafabfc894614eb9726781b72c53f23217f424d70445b222951f008aeac7eece8139caed71ed2d6c0d5e3cd81753b1b21f67f61d56a97aae7a3e0179486d114788ad4576f53266630ac9ad193fa8d8f5a7207eefdee35934d664003a3d4c286a591e065a62034ead57d7911b7e3d6c3c79a68ba909a7f4ba41f9485e5207b12dee0d0c6af5398cace7e947336f94057b47a9ab5531b0363e85c8d36c05c7d915ec8e525fd159d863625b85818a29587ee919ee6a968ee0b32f3513f2884b3968001062ba49eb6b1b30fe15febd596dffd21d4da0657732eea42b4b5a9789e3e6daab3d570999d7850062f2c27d17cdf727c8059e0b505bd3a788af62482a56bcede987d8eea5a35a294f9055e9dc7a18078b4e0139086766d723c3cd728bd59cc1f3b589741ed21d7cfd39841edd73967db6350efae442ebd8c6e1bfca55faa52b046d39b7e493bdea2cc426745068386b3804e5b401ae87ffbae9dbf293944b5307f507040c79917d72d9b73e141a5f0eff6b5933a24665154df6903ed198d591afc8ac62f8f7917d72d9b73e141a5f0eff6b5933a24665154df6903ed198d591afc8ac62f8f6f98b31465ac12e92b5cb136ade913276c267463c4395bb1a3999bc88fb837806897858f7b7d3c8b4e7a700b401ad192a110353a60c809946583c0d62cda7f0b70e555410d8128dff796eab5d29b97dd593ce9cab44a71b64c08244579ea6053339854479080fac0b5e7c0ecedb0fb02308a72a43cd102c6b9f918653d3400367a2646970667358221220c7754a6e80b15d2df75708d6c5c417eb426054257d82eab1d7005bad8acc702364736f6c63430008110033"
}