{
  "address": "0xd713b16fA40671C25817a0E8BBaD6452A09112B5",
  "abi": [
    {
      "inputs": [
        {
          "internalType": "ChainlinkRegistry",
          "name": "registry_",
          "type": "address"
        },
        {
          "internalType": "address",
          "name": "base_",
          "type": "address"
        },
        {
          "internalType": "address",
          "name": "quote_",
          "type": "address"
        }
      ],
      "stateMutability": "nonpayable",
      "type": "constructor"
    },
    {
      "inputs": [
        {
          "internalType": "uint256",
          "name": "version",
          "type": "uint256"
        }
      ],
      "name": "UInitializableAlreadyInitializedError",
      "type": "error"
    },
    {
      "inputs": [],
      "name": "UInitializableNotInitializingError",
      "type": "error"
    },
    {
      "inputs": [],
      "name": "UInitializableZeroVersionError",
      "type": "error"
    },
    {
      "inputs": [
        {
          "internalType": "address",
          "name": "sender",
          "type": "address"
        }
      ],
      "name": "UOwnableNotOwnerError",
      "type": "error"
    },
    {
      "inputs": [
        {
          "internalType": "address",
          "name": "sender",
          "type": "address"
        }
      ],
      "name": "UOwnableNotPendingOwnerError",
      "type": "error"
    },
    {
      "anonymous": false,
      "inputs": [
        {
          "indexed": true,
          "internalType": "address",
          "name": "newOwner",
          "type": "address"
        }
      ],
      "name": "OwnerUpdated",
      "type": "event"
    },
    {
      "anonymous": false,
      "inputs": [
        {
          "indexed": true,
          "internalType": "address",
          "name": "newPendingOwner",
          "type": "address"
        }
      ],
      "name": "PendingOwnerUpdated",
      "type": "event"
    },
    {
      "inputs": [],
      "name": "acceptOwner",
      "outputs": [],
      "stateMutability": "nonpayable",
      "type": "function"
    },
    {
      "inputs": [
        {
          "internalType": "uint256",
          "name": "version",
          "type": "uint256"
        }
      ],
      "name": "atVersion",
      "outputs": [
        {
          "components": [
            {
              "internalType": "uint256",
              "name": "version",
              "type": "uint256"
            },
            {
              "internalType": "uint256",
              "name": "timestamp",
              "type": "uint256"
            },
            {
              "internalType": "Fixed18",
              "name": "price",
              "type": "int256"
            }
          ],
          "internalType": "struct IOracleProvider.OracleVersion",
          "name": "oracleVersion",
          "type": "tuple"
        }
      ],
      "stateMutability": "view",
      "type": "function"
    },
    {
      "inputs": [],
      "name": "base",
      "outputs": [
        {
          "internalType": "address",
          "name": "",
          "type": "address"
        }
      ],
      "stateMutability": "view",
      "type": "function"
    },
    {
      "inputs": [],
      "name": "currentVersion",
      "outputs": [
        {
          "components": [
            {
              "internalType": "uint256",
              "name": "version",
              "type": "uint256"
            },
            {
              "internalType": "uint256",
              "name": "timestamp",
              "type": "uint256"
            },
            {
              "internalType": "Fixed18",
              "name": "price",
              "type": "int256"
            }
          ],
          "internalType": "struct IOracleProvider.OracleVersion",
          "name": "oracleVersion",
          "type": "tuple"
        }
      ],
      "stateMutability": "view",
      "type": "function"
    },
    {
      "inputs": [],
      "name": "owner",
      "outputs": [
        {
          "internalType": "address",
          "name": "",
          "type": "address"
        }
      ],
      "stateMutability": "view",
      "type": "function"
    },
    {
      "inputs": [],
      "name": "pendingOwner",
      "outputs": [
        {
          "internalType": "address",
          "name": "",
          "type": "address"
        }
      ],
      "stateMutability": "view",
      "type": "function"
    },
    {
      "inputs": [],
      "name": "quote",
      "outputs": [
        {
          "internalType": "address",
          "name": "",
          "type": "address"
        }
      ],
      "stateMutability": "view",
      "type": "function"
    },
    {
      "inputs": [],
      "name": "registry",
      "outputs": [
        {
          "internalType": "ChainlinkRegistry",
          "name": "",
          "type": "address"
        }
      ],
      "stateMutability": "view",
      "type": "function"
    },
    {
      "inputs": [],
      "name": "sync",
      "outputs": [
        {
          "components": [
            {
              "internalType": "uint256",
              "name": "version",
              "type": "uint256"
            },
            {
              "internalType": "uint256",
              "name": "timestamp",
              "type": "uint256"
            },
            {
              "internalType": "Fixed18",
              "name": "price",
              "type": "int256"
            }
          ],
          "internalType": "struct IOracleProvider.OracleVersion",
          "name": "",
          "type": "tuple"
        }
      ],
      "stateMutability": "nonpayable",
      "type": "function"
    },
    {
      "inputs": [
        {
          "internalType": "address",
          "name": "newPendingOwner",
          "type": "address"
        }
      ],
      "name": "updatePendingOwner",
      "outputs": [],
      "stateMutability": "nonpayable",
      "type": "function"
    }
  ],
  "transactionHash": "0x0a7887b9b2783db8df5fa92b82c02f25e2bf258b781dc9f97c3b01725850c33d",
  "args": [
    "0xAa7F6f7f507457a1EE157fE97F6c7DB2BEec5cD0",
    "0xEeeeeEeeeEeEeeEeEeEeeEEEeeeeEeeeeeeeEEeE",
    "0x0000000000000000000000000000000000000348"
  ],
  "numDeployments": 1,
  "solcInputHash": "65527db1409d6958fd38b19b43619005",
  "bytecode": "0x6101006040523480156200001257600080fd5b5060405162001507380380620015078339810160408190526200003591620001e8565b6001600160a01b03838116608081905283821660a081905291831660c081905260008054600180820183558280527f290decd9548b62a8d60345a988386fc84ba6bc95484008f6362f93160ef3e563918201839055825490810183550155620000ce92620000b09291620000db602090811b6200063017901c565b620000bd90600a62000351565b6200015c60201b620006c71760201c565b60e052506200038e915050565b604051630b1c5a7560e31b81526001600160a01b0383811660048301528281166024830152600091908516906358e2d3a890604401602060405180830381865afa1580156200012e573d6000803e3d6000fd5b505050506040513d601f19601f8201168201806040525081019062000154919062000369565b949350505050565b60006001600160ff1b03821115620001cb5760405162461bcd60e51b815260206004820152602860248201527f53616665436173743a2076616c756520646f65736e27742066697420696e2061604482015267371034b73a191a9b60c11b606482015260840160405180910390fd5b5090565b6001600160a01b0381168114620001e557600080fd5b50565b600080600060608486031215620001fe57600080fd5b83516200020b81620001cf565b60208501519093506200021e81620001cf565b60408501519092506200023181620001cf565b809150509250925092565b634e487b7160e01b600052601160045260246000fd5b600181815b80851115620002935781600019048211156200027757620002776200023c565b808516156200028557918102915b93841c939080029062000257565b509250929050565b600082620002ac575060016200034b565b81620002bb575060006200034b565b8160018114620002d45760028114620002df57620002ff565b60019150506200034b565b60ff841115620002f357620002f36200023c565b50506001821b6200034b565b5060208310610133831016604e8410600b841016171562000324575081810a6200034b565b62000330838362000252565b80600019048211156200034757620003476200023c565b0290505b92915050565b60006200036260ff8416836200029b565b9392505050565b6000602082840312156200037c57600080fd5b815160ff811681146200036257600080fd5b60805160a05160c05160e0516110c262000445600039600061097a01526000818161017001528181610214015281816103200152818161050901528181610581015281816108080152610b0601526000818160c8015281816101f3015281816102ff015281816104e801528181610560015281816107e70152610ae501526000818161010c01528181610246015281816102dd015281816104c6015281816105b2015281816107c50152610b4201526110c26000f3fe608060405234801561001057600080fd5b50600436106100be5760003560e01c80639d888e8611610076578063e30c39781161005b578063e30c3978146101af578063ebbc4965146101b7578063fff6cae9146101bf57600080fd5b80639d888e8614610192578063b5ee69551461019a57600080fd5b80637ece075d116100a75780637ece075d1461012e5780638da5cb5b14610163578063999b93af1461016b57600080fd5b80635001f3b5146100c35780637b10399914610107575b600080fd5b6100ea7f000000000000000000000000000000000000000000000000000000000000000081565b6040516001600160a01b0390911681526020015b60405180910390f35b6100ea7f000000000000000000000000000000000000000000000000000000000000000081565b61014161013c366004610ddc565b6101c7565b60408051825181526020808401519082015291810151908201526060016100fe565b6100ea61027a565b6100ea7f000000000000000000000000000000000000000000000000000000000000000081565b6101416102a9565b6101ad6101a8366004610df5565b610349565b005b6100ea6103f9565b6101ad610423565b610141610493565b6101eb60405180606001604052806000815260200160008152602001600081525090565b61027461026e7f00000000000000000000000000000000000000000000000000000000000000007f000000000000000000000000000000000000000000000000000000000000000061023c8661077d565b6001600160a01b037f00000000000000000000000000000000000000000000000000000000000000001692919061083e565b8361094a565b92915050565b60006102a47fd520c4fc3bfc097da8746a8578e9e0417f5acfdd84a1de38ed670148cc1a349d5490565b905090565b6102cd60405180606001604052806000815260200160008152602001600081525090565b6102a46103446001600160a01b037f0000000000000000000000000000000000000000000000000000000000000000167f00000000000000000000000000000000000000000000000000000000000000007f00000000000000000000000000000000000000000000000000000000000000006109bf565b610aba565b3361035261027a565b6001600160a01b031614610399576040517f9950d22a0000000000000000000000000000000000000000000000000000000081523360048201526024015b60405180910390fd5b6103c27faabf80d370e1f8b862122cc5c4b30b4a8eb2d6b5dda0d437726c353765e1ed32829055565b6040516001600160a01b038216907f69f201bc2089b9be6195d876d97a0136b4cf56bbf8986a52dcb50697f7d1cac590600090a250565b60006102a47faabf80d370e1f8b862122cc5c4b30b4a8eb2d6b5dda0d437726c353765e1ed325490565b61042b6103f9565b6001600160a01b0316336001600160a01b031614610477576040517f14f8fce7000000000000000000000000000000000000000000000000000000008152336004820152602401610390565b6104876104826103f9565b610bcf565b6104916000610349565b565b6104b760405180606001604052806000815260200160008152602001600081525090565b600061052d6001600160a01b037f0000000000000000000000000000000000000000000000000000000000000000167f00000000000000000000000000000000000000000000000000000000000000007f00000000000000000000000000000000000000000000000000000000000000006109bf565b90505b610538610c2f565b61ffff1661054f8260409081015161ffff911c1690565b61ffff1611156106215760006105da7f00000000000000000000000000000000000000000000000000000000000000007f00000000000000000000000000000000000000000000000000000000000000006105a8610c2f565b6001600160a01b037f000000000000000000000000000000000000000000000000000000000000000016929190610c3f565b6000805460018101825590805269ffffffffffffffffffff919091167f290decd9548b62a8d60345a988386fc84ba6bc95484008f6362f93160ef3e5639091015550610530565b61062a81610aba565b91505090565b6040517f58e2d3a80000000000000000000000000000000000000000000000000000000081526001600160a01b0383811660048301528281166024830152600091908516906358e2d3a890604401602060405180830381865afa15801561069b573d6000803e3d6000fd5b505050506040513d601f19601f820116820180604052508101906106bf9190610e1e565b949350505050565b60007f7fffffffffffffffffffffffffffffffffffffffffffffffffffffffffffffff821115610779576040517f08c379a000000000000000000000000000000000000000000000000000000000815260206004820152602860248201527f53616665436173743a2076616c756520646f65736e27742066697420696e206160448201527f6e20696e743235360000000000000000000000000000000000000000000000006064820152608401610390565b5090565b60008061078983610ce7565b905060008161ffff16815481106107a2576107a2610e41565b9060005260206000200154836107b89190610e6d565b61082d6001600160a01b037f0000000000000000000000000000000000000000000000000000000000000000167f00000000000000000000000000000000000000000000000000000000000000007f000000000000000000000000000000000000000000000000000000000000000085610d34565b6108379190610e84565b9392505050565b61086e60405180606001604052806000815260200160008152602001600069ffffffffffffffffffff1681525090565b6040517ffc58749e0000000000000000000000000000000000000000000000000000000081526001600160a01b038581166004830152848116602483015269ffffffffffffffffffff84166044830152600091829188169063fc58749e9060640160a060405180830381865afa1580156108ec573d6000803e3d6000fd5b505050506040513d601f19601f820116820180604052508101906109109190610ecc565b5093505092505060405180606001604052808281526020018381526020018569ffffffffffffffffffff1681525092505050949350505050565b61096e60405180606001604052806000815260200160008152602001600081525090565b600061099e84602001517f0000000000000000000000000000000000000000000000000000000000000000610dbd565b60408051606081018252948552945160208501529383019390935250919050565b6109ef60405180606001604052806000815260200160008152602001600069ffffffffffffffffffff1681525090565b6040517fbcfd032d0000000000000000000000000000000000000000000000000000000081526001600160a01b0384811660048301528381166024830152600091829182919088169063bcfd032d9060440160a060405180830381865afa158015610a5e573d6000803e3d6000fd5b505050506040513d601f19601f82011682018060405250810190610a829190610ecc565b5060408051606081018252918252602082019390935269ffffffffffffffffffff909316918301919091525093505050509392505050565b610ade60405180606001604052806000815260200160008152602001600081525090565b6000610b6a7f00000000000000000000000000000000000000000000000000000000000000007f0000000000000000000000000000000000000000000000000000000000000000610b388660409081015161ffff911c1690565b6001600160a01b037f000000000000000000000000000000000000000000000000000000000000000016929190610d34565b8360400151610b799190610f1c565b69ffffffffffffffffffff166000610b9a8560409081015161ffff911c1690565b61ffff1681548110610bae57610bae610e41565b9060005260206000200154610bc39190610f47565b9050610837838261094a565b610bf87fd520c4fc3bfc097da8746a8578e9e0417f5acfdd84a1de38ed670148cc1a349d829055565b6040516001600160a01b038216907f4ffd725fc4a22075e9ec71c59edf9c38cdeb588a91b24fc5b61388c5be41282b90600090a250565b600080546102a490600190610e6d565b604051633073a1bf60e21b81526001600160a01b038481166004830152838116602483015261ffff83166044830152600091829182919088169063c1ce86fc906064016040805180830381865afa158015610c9e573d6000803e3d6000fd5b505050506040513d601f19601f82011682018060405250810190610cc29190610f5f565b9092509050610cd18282610f1c565b610cdc906001610e84565b979650505050505050565b6000610cf1610c2f565b90505b8160008261ffff1681548110610d0c57610d0c610e41565b90600052602060002001541115610d2f5780610d2781610f92565b915050610cf4565b919050565b604051633073a1bf60e21b81526001600160a01b038481166004830152838116602483015261ffff831660448301526000919086169063c1ce86fc906064016040805180830381865afa158015610d8f573d6000803e3d6000fd5b505050506040513d601f19601f82011682018060405250810190610db39190610f5f565b5095945050505050565b600081610dd2670de0b6b3a764000085610fb0565b6108379190611050565b600060208284031215610dee57600080fd5b5035919050565b600060208284031215610e0757600080fd5b81356001600160a01b038116811461083757600080fd5b600060208284031215610e3057600080fd5b815160ff8116811461083757600080fd5b634e487b7160e01b600052603260045260246000fd5b634e487b7160e01b600052601160045260246000fd5b600082821015610e7f57610e7f610e57565b500390565b600069ffffffffffffffffffff808316818516808303821115610ea957610ea9610e57565b01949350505050565b805169ffffffffffffffffffff81168114610d2f57600080fd5b600080600080600060a08688031215610ee457600080fd5b610eed86610eb2565b9450602086015193506040860151925060608601519150610f1060808701610eb2565b90509295509295909350565b600069ffffffffffffffffffff83811690831681811015610f3f57610f3f610e57565b039392505050565b60008219821115610f5a57610f5a610e57565b500190565b60008060408385031215610f7257600080fd5b610f7b83610eb2565b9150610f8960208401610eb2565b90509250929050565b600061ffff821680610fa657610fa6610e57565b6000190192915050565b60007f7fffffffffffffffffffffffffffffffffffffffffffffffffffffffffffffff600084136000841385830485118282161615610ff157610ff1610e57565b600160ff1b600087128682058812818416161561101057611010610e57565b6000871292508782058712848416161561102c5761102c610e57565b8785058712818416161561104257611042610e57565b505050929093029392505050565b60008261106d57634e487b7160e01b600052601260045260246000fd5b600160ff1b82146000198414161561108757611087610e57565b50059056fea26469706673582212201d9bc95bcdb2063defbc0a4e73de9c810c7bb8a8ae551b25412de2fffbdb0ab364736f6c634300080e0033",
  "devdoc": {
    "details": "One instance per Chainlink price feed should be deployed. Multiple products may use the same      ChainlinkOracle instance if their payoff functions are based on the same underlying oracle.      This implementation only support non-negative prices.",
    "kind": "dev",
    "methods": {
      "acceptOwner()": {
        "details": "Can only be called by the pending owner to ensure correctness"
      },
      "atVersion(uint256)": {
        "params": {
          "version": "The version of which to lookup"
        },
        "returns": {
          "oracleVersion": "Oracle version at version `version`"
        }
      },
      "constructor": {
        "params": {
          "base_": "base currency for feed",
          "quote_": "quote currency for feed",
          "registry_": "Chainlink price feed registry"
        }
      },
      "currentVersion()": {
        "returns": {
          "oracleVersion": "Current oracle version"
        }
      },
      "sync()": {
        "returns": {
          "_0": "The current oracle version after sync"
        }
      },
      "updatePendingOwner(address)": {
        "details": "Can only be called by the current owner      New owner does not take affect until that address calls `acceptOwner()`",
        "params": {
          "newPendingOwner": "New pending owner address"
        }
      }
    },
    "stateVariables": {
      "_decimalOffset": {
        "details": "Decimal offset used to normalize chainlink price to 18 decimals"
      },
      "_startingVersionForPhaseId": {
        "details": "Mapping of the first oracle version for each underlying phase ID"
      },
      "base": {
        "details": "Base token address for the Chainlink oracle"
      },
      "quote": {
        "details": "Quote token address for the Chainlink oracle"
      },
      "registry": {
        "details": "Chainlink registry feed address"
      }
    },
    "title": "ChainlinkOracle",
    "version": 1
  },
  "userdoc": {
    "kind": "user",
    "methods": {
      "acceptOwner()": {
        "notice": "Accepts and transfers the ownership of the contract to the pending owner"
      },
      "atVersion(uint256)": {
        "notice": "Returns the current oracle version"
      },
      "constructor": {
        "notice": "Initializes the contract state"
      },
      "currentVersion()": {
        "notice": "Returns the current oracle version"
      },
      "sync()": {
        "notice": "Checks for a new price and updates the internal phase annotation state accordingly"
      },
      "updatePendingOwner(address)": {
        "notice": "Updates the new pending owner"
      }
    },
    "notice": "Chainlink implementation of the IOracle interface.",
    "version": 1
  },
  "storageLayout": {
    "storage": [
      {
        "astId": 16320,
        "contract": "contracts/oracle/ChainlinkOracle.sol:ChainlinkOracle",
        "label": "_startingVersionForPhaseId",
        "offset": 0,
        "slot": "0",
        "type": "t_array(t_uint256)dyn_storage"
      }
    ],
    "types": {
      "t_array(t_uint256)dyn_storage": {
        "base": "t_uint256",
        "encoding": "dynamic_array",
        "label": "uint256[]",
        "numberOfBytes": "32"
      },
      "t_uint256": {
        "encoding": "inplace",
        "label": "uint256",
        "numberOfBytes": "32"
      }
    }
  }
}