{
  "address": "0xb47cD3a89773354ea27dC073D9636a849DAD4B03",
  "abi": [
    {
      "inputs": [
        {
          "internalType": "Token18",
          "name": "token_",
          "type": "address"
        }
      ],
      "stateMutability": "nonpayable",
      "type": "constructor"
    },
    {
      "inputs": [],
      "name": "AlreadyInitializedError",
      "type": "error"
    },
    {
      "inputs": [
        {
          "internalType": "UFixed18",
          "name": "totalMaintenance",
          "type": "uint256"
        },
        {
          "internalType": "UFixed18",
          "name": "totalCollateral",
          "type": "uint256"
        }
      ],
      "name": "CollateralCantLiquidate",
      "type": "error"
    },
    {
      "inputs": [],
      "name": "CollateralInsufficientCollateralError",
      "type": "error"
    },
    {
      "inputs": [],
      "name": "CollateralUnderLimitError",
      "type": "error"
    },
    {
      "inputs": [],
      "name": "CollateralZeroAddressError",
      "type": "error"
    },
    {
      "inputs": [
        {
          "internalType": "uint256",
          "name": "value",
          "type": "uint256"
        }
      ],
      "name": "Fixed18OverflowError",
      "type": "error"
    },
    {
      "inputs": [],
      "name": "InvalidControllerError",
      "type": "error"
    },
    {
      "inputs": [
        {
          "internalType": "address",
          "name": "sender",
          "type": "address"
        }
      ],
      "name": "NotCollateralError",
      "type": "error"
    },
    {
      "inputs": [
        {
          "internalType": "address",
          "name": "sender",
          "type": "address"
        }
      ],
      "name": "NotOwnerError",
      "type": "error"
    },
    {
      "inputs": [
        {
          "internalType": "address",
          "name": "sender",
          "type": "address"
        }
      ],
      "name": "NotProductError",
      "type": "error"
    },
    {
      "inputs": [
        {
          "internalType": "address",
          "name": "sender",
          "type": "address"
        },
        {
          "internalType": "contract IProduct",
          "name": "product",
          "type": "address"
        }
      ],
      "name": "NotProductOwnerError",
      "type": "error"
    },
    {
      "inputs": [],
      "name": "PausedError",
      "type": "error"
    },
    {
      "inputs": [
        {
          "internalType": "uint256",
          "name": "version",
          "type": "uint256"
        }
      ],
      "name": "UInitializableAlreadyInitializedError",
      "type": "error"
    },
    {
      "inputs": [],
      "name": "UInitializableNotInitializingError",
      "type": "error"
    },
    {
      "inputs": [],
      "name": "UInitializableZeroVersionError",
      "type": "error"
    },
    {
      "inputs": [],
      "name": "UReentrancyGuardReentrantCallError",
      "type": "error"
    },
    {
      "anonymous": false,
      "inputs": [
        {
          "indexed": true,
          "internalType": "contract IProduct",
          "name": "product",
          "type": "address"
        },
        {
          "indexed": true,
          "internalType": "address",
          "name": "account",
          "type": "address"
        },
        {
          "indexed": false,
          "internalType": "Fixed18",
          "name": "amount",
          "type": "int256"
        },
        {
          "indexed": false,
          "internalType": "UFixed18",
          "name": "newShortfall",
          "type": "uint256"
        }
      ],
      "name": "AccountSettle",
      "type": "event"
    },
    {
      "anonymous": false,
      "inputs": [
        {
          "indexed": true,
          "internalType": "address",
          "name": "user",
          "type": "address"
        },
        {
          "indexed": true,
          "internalType": "contract IProduct",
          "name": "product",
          "type": "address"
        },
        {
          "indexed": false,
          "internalType": "UFixed18",
          "name": "amount",
          "type": "uint256"
        }
      ],
      "name": "Deposit",
      "type": "event"
    },
    {
      "anonymous": false,
      "inputs": [
        {
          "indexed": true,
          "internalType": "address",
          "name": "account",
          "type": "address"
        },
        {
          "indexed": false,
          "internalType": "UFixed18",
          "name": "amount",
          "type": "uint256"
        }
      ],
      "name": "FeeClaim",
      "type": "event"
    },
    {
      "anonymous": false,
      "inputs": [
        {
          "indexed": true,
          "internalType": "address",
          "name": "user",
          "type": "address"
        },
        {
          "indexed": true,
          "internalType": "contract IProduct",
          "name": "product",
          "type": "address"
        },
        {
          "indexed": false,
          "internalType": "address",
          "name": "liquidator",
          "type": "address"
        },
        {
          "indexed": false,
          "internalType": "UFixed18",
          "name": "fee",
          "type": "uint256"
        }
      ],
      "name": "Liquidation",
      "type": "event"
    },
    {
      "anonymous": false,
      "inputs": [
        {
          "indexed": true,
          "internalType": "contract IProduct",
          "name": "product",
          "type": "address"
        },
        {
          "indexed": false,
          "internalType": "UFixed18",
          "name": "protocolFee",
          "type": "uint256"
        },
        {
          "indexed": false,
          "internalType": "UFixed18",
          "name": "productFee",
          "type": "uint256"
        }
      ],
      "name": "ProductSettle",
      "type": "event"
    },
    {
      "anonymous": false,
      "inputs": [
        {
          "indexed": true,
          "internalType": "contract IProduct",
          "name": "product",
          "type": "address"
        },
        {
          "indexed": false,
          "internalType": "UFixed18",
          "name": "amount",
          "type": "uint256"
        }
      ],
      "name": "ShortfallResolution",
      "type": "event"
    },
    {
      "anonymous": false,
      "inputs": [
        {
          "indexed": true,
          "internalType": "address",
          "name": "user",
          "type": "address"
        },
        {
          "indexed": true,
          "internalType": "contract IProduct",
          "name": "product",
          "type": "address"
        },
        {
          "indexed": false,
          "internalType": "UFixed18",
          "name": "amount",
          "type": "uint256"
        }
      ],
      "name": "Withdrawal",
      "type": "event"
    },
    {
      "inputs": [],
      "name": "claimFee",
      "outputs": [],
      "stateMutability": "nonpayable",
      "type": "function"
    },
    {
      "inputs": [
        {
          "internalType": "contract IProduct",
          "name": "product",
          "type": "address"
        }
      ],
      "name": "collateral",
      "outputs": [
        {
          "internalType": "UFixed18",
          "name": "",
          "type": "uint256"
        }
      ],
      "stateMutability": "view",
      "type": "function"
    },
    {
      "inputs": [
        {
          "internalType": "address",
          "name": "account",
          "type": "address"
        },
        {
          "internalType": "contract IProduct",
          "name": "product",
          "type": "address"
        }
      ],
      "name": "collateral",
      "outputs": [
        {
          "internalType": "UFixed18",
          "name": "",
          "type": "uint256"
        }
      ],
      "stateMutability": "view",
      "type": "function"
    },
    {
      "inputs": [],
      "name": "controller",
      "outputs": [
        {
          "internalType": "contract IController",
          "name": "",
          "type": "address"
        }
      ],
      "stateMutability": "view",
      "type": "function"
    },
    {
      "inputs": [
        {
          "internalType": "address",
          "name": "account",
          "type": "address"
        },
        {
          "internalType": "contract IProduct",
          "name": "product",
          "type": "address"
        },
        {
          "internalType": "UFixed18",
          "name": "amount",
          "type": "uint256"
        }
      ],
      "name": "depositTo",
      "outputs": [],
      "stateMutability": "nonpayable",
      "type": "function"
    },
    {
      "inputs": [
        {
          "internalType": "address",
          "name": "",
          "type": "address"
        }
      ],
      "name": "fees",
      "outputs": [
        {
          "internalType": "UFixed18",
          "name": "",
          "type": "uint256"
        }
      ],
      "stateMutability": "view",
      "type": "function"
    },
    {
      "inputs": [
        {
          "internalType": "contract IController",
          "name": "controller_",
          "type": "address"
        }
      ],
      "name": "initialize",
      "outputs": [],
      "stateMutability": "nonpayable",
      "type": "function"
    },
    {
      "inputs": [
        {
          "internalType": "address",
          "name": "account",
          "type": "address"
        },
        {
          "internalType": "contract IProduct",
          "name": "product",
          "type": "address"
        }
      ],
      "name": "liquidatable",
      "outputs": [
        {
          "internalType": "bool",
          "name": "",
          "type": "bool"
        }
      ],
      "stateMutability": "view",
      "type": "function"
    },
    {
      "inputs": [
        {
          "internalType": "address",
          "name": "account",
          "type": "address"
        },
        {
          "internalType": "contract IProduct",
          "name": "product",
          "type": "address"
        }
      ],
      "name": "liquidatableNext",
      "outputs": [
        {
          "internalType": "bool",
          "name": "",
          "type": "bool"
        }
      ],
      "stateMutability": "view",
      "type": "function"
    },
    {
      "inputs": [
        {
          "internalType": "address",
          "name": "account",
          "type": "address"
        },
        {
          "internalType": "contract IProduct",
          "name": "product",
          "type": "address"
        }
      ],
      "name": "liquidate",
      "outputs": [],
      "stateMutability": "nonpayable",
      "type": "function"
    },
    {
      "inputs": [
        {
          "internalType": "contract IProduct",
          "name": "product",
          "type": "address"
        },
        {
          "internalType": "UFixed18",
          "name": "amount",
          "type": "uint256"
        }
      ],
      "name": "resolveShortfall",
      "outputs": [],
      "stateMutability": "nonpayable",
      "type": "function"
    },
    {
      "inputs": [
        {
          "internalType": "address",
          "name": "account",
          "type": "address"
        },
        {
          "internalType": "Fixed18",
          "name": "amount",
          "type": "int256"
        }
      ],
      "name": "settleAccount",
      "outputs": [],
      "stateMutability": "nonpayable",
      "type": "function"
    },
    {
      "inputs": [
        {
          "internalType": "UFixed18",
          "name": "amount",
          "type": "uint256"
        }
      ],
      "name": "settleProduct",
      "outputs": [],
      "stateMutability": "nonpayable",
      "type": "function"
    },
    {
      "inputs": [
        {
          "internalType": "contract IProduct",
          "name": "product",
          "type": "address"
        }
      ],
      "name": "shortfall",
      "outputs": [
        {
          "internalType": "UFixed18",
          "name": "",
          "type": "uint256"
        }
      ],
      "stateMutability": "view",
      "type": "function"
    },
    {
      "inputs": [],
      "name": "token",
      "outputs": [
        {
          "internalType": "Token18",
          "name": "",
          "type": "address"
        }
      ],
      "stateMutability": "view",
      "type": "function"
    },
    {
      "inputs": [
        {
          "internalType": "address",
          "name": "account",
          "type": "address"
        },
        {
          "internalType": "contract IProduct",
          "name": "product",
          "type": "address"
        },
        {
          "internalType": "UFixed18",
          "name": "amount",
          "type": "uint256"
        }
      ],
      "name": "withdrawTo",
      "outputs": [],
      "stateMutability": "nonpayable",
      "type": "function"
    }
  ],
  "transactionHash": "0x3c830bc8801a8ca3dbb796daaf7fedce4eee0c2fae4ad25985f7c56b392fd820",
  "args": [
    "0x1e7d42D73291A9580F1f9b6483928319CE1c3d75"
  ],
  "numDeployments": 1,
  "solcInputHash": "669da26b2049a035994bb66b35ec132a",
  "bytecode": "0x60a060405234801561001057600080fd5b50604051620023f7380380620023f783398101604081905261003191610042565b6001600160a01b0316608052610072565b60006020828403121561005457600080fd5b81516001600160a01b038116811461006b57600080fd5b9392505050565b608051612346620000b1600039600081816102b201528181610ab701528181610c0901528181610f1c01528181611487015261174601526123466000f3fe608060405234801561001057600080fd5b50600436106101005760003560e01c8063c9cb48de11610097578063f213159c11610066578063f213159c1461025a578063f77c47911461026d578063faaebd211461028d578063fc0c546a146102ad57600080fd5b8063c9cb48de146101e9578063ca70d300146101fc578063cc218ece1461020f578063e41191801461024757600080fd5b8063a5fdc5de116100d3578063a5fdc5de1461015d578063b4d6f78114610197578063c3b35a7e146101c3578063c4d66de8146101d657600080fd5b80637f3dd53b1461010557806382df39de1461011a57806386b9d81f1461014257806399d32fc414610155575b600080fd5b610118610113366004612052565b6102d4565b005b61012d610128366004612080565b6105c0565b60405190151581526020015b60405180910390f35b610118610150366004612080565b610664565b610118610b67565b61018961016b3660046120b9565b6001600160a01b031660009081526020819052604090206001015490565b604051908152602001610139565b6101896101a53660046120b9565b6001600160a01b031660009081526020819052604090206002015490565b6101186101d13660046120d6565b610c70565b6101186101e43660046120b9565b6111d1565b6101186101f7366004612117565b6112bc565b61011861020a366004612117565b6113c5565b61018961021d366004612080565b6001600160a01b038082166000908152602081815260408083209386168352929052205492915050565b61012d610255366004612080565b6114f6565b6101186102683660046120d6565b61154e565b61027561184b565b6040516001600160a01b039091168152602001610139565b61018961029b3660046120b9565b60016020526000908152604090205481565b6102757f000000000000000000000000000000000000000000000000000000000000000081565b6102dc61184b565b604051633fe948c960e11b81523360048201526001600160a01b039190911690637fd2919290602401602060405180830381865afa158015610322573d6000803e3d6000fd5b505050506040513d601f19601f820116820180604052508101906103469190612143565b61036a57604051634d53256560e01b81523360048201526024015b60405180910390fd5b6000803361037661184b565b915091506000816001600160a01b03166361d027b36040518163ffffffff1660e01b8152600401602060405180830381865afa1580156103ba573d6000803e3d6000fd5b505050506040513d601f19601f820116820180604052508101906103de9190612165565b6040517f2d809cb60000000000000000000000000000000000000000000000000000000081526001600160a01b038581166004830152919250600091841690632d809cb690602401602060405180830381865afa158015610443573d6000803e3d6000fd5b505050506040513d601f19601f820116820180604052508101906104679190612165565b905060006104d7846001600160a01b031663b0e21e8a6040518163ffffffff1660e01b8152600401602060405180830381865afa1580156104ac573d6000803e3d6000fd5b505050506040513d601f19601f820116820180604052508101906104d09190612182565b879061187a565b905060006104e58783611899565b6001600160a01b038716600090815260208190526040902090915061050a90886118a5565b6001600160a01b03841660009081526001602052604090205461052d90836118c0565b6001600160a01b03808616600090815260016020526040808220939093559085168152205461055c90826118c0565b6001600160a01b03808516600090815260016020908152604091829020939093558051858152928301849052908816917fbb1fb7280f9f082e1804d5dc09e8cd7c89debd6b303542f604bcdf7696d9579d910160405180910390a250505050505050565b6001600160a01b0380821660009081526020818152604080832093861683529290529081205461065b9060405163245a240960e21b81526001600160a01b0386811660048301528516906391689024906024015b602060405180830381865afa158015610631573d6000803e3d6000fd5b505050506040513d601f19601f820116820180604052508101906106559190612182565b906118cc565b90505b92915050565b600261068e7f1b30fe15febd596dffd21d4da0657732eea42b4b5a9789e3e6daab3d570999d75490565b036106ac57604051637990191b60e11b815260040160405180910390fd5b60027f1b30fe15febd596dffd21d4da0657732eea42b4b5a9789e3e6daab3d570999d755806106d961184b565b604051630b92054b60e21b81526001600160a01b0383811660048301529190911690632e48152c90602401602060405180830381865afa158015610721573d6000803e3d6000fd5b505050506040513d601f19601f820116820180604052508101906107459190612143565b1561076357604051633b3b4caf60e21b815260040160405180910390fd5b8161076c61184b565b604051633fe948c960e11b81526001600160a01b0383811660048301529190911690637fd2919290602401602060405180830381865afa1580156107b4573d6000803e3d6000fd5b505050506040513d601f19601f820116820180604052508101906107d89190612143565b61080057604051634d53256560e01b81526001600160a01b0382166004820152602401610361565b8383806001600160a01b03166311da60b46040518163ffffffff1660e01b8152600401600060405180830381600087803b15801561083d57600080fd5b505af1158015610851573d6000803e3d6000fd5b505060405163f667f89760e01b81526001600160a01b0385811660048301528416925063f667f8979150602401600060405180830381600087803b15801561089857600080fd5b505af11580156108ac573d6000803e3d6000fd5b505060405163245a240960e21b81526001600160a01b0389811660048301526000935088169150639168902490602401602060405180830381865afa1580156108f9573d6000803e3d6000fd5b505050506040513d601f19601f8201168201806040525081019061091d9190612182565b6001600160a01b03878116600090815260208181526040808320938c168352929052205490915061094e82826118cc565b61098e576040517f8b9b0bf80000000000000000000000000000000000000000000000000000000081526004810183905260248101829052604401610361565b6040517ff6b320080000000000000000000000000000000000000000000000000000000081526001600160a01b03898116600483015288169063f6b3200890602401600060405180830381600087803b1580156109ea57600080fd5b505af11580156109fe573d6000803e3d6000fd5b505050506000610a0c61184b565b6001600160a01b031663a36a36306040518163ffffffff1660e01b8152600401602060405180830381865afa158015610a49573d6000803e3d6000fd5b505050506040513d601f19601f82011682018060405250810190610a6d9190612182565b90506000610a8483610a7f868561187a565b6118e6565b6001600160a01b038a166000908152602081905260409020909150610aaa908b836118f2565b610ade6001600160a01b037f000000000000000000000000000000000000000000000000000000000000000016338361194a565b60408051338152602081018390526001600160a01b03808c1692908d16917f76f1c54646947e8e8df3eab8141bb3d115d07da2520f8e41b208a17d138a8959910160405180910390a35050505050505050610b6360017f1b30fe15febd596dffd21d4da0657732eea42b4b5a9789e3e6daab3d570999d76118e290919063ffffffff16565b5050565b610b6f61184b565b6001600160a01b0316635c975abb6040518163ffffffff1660e01b8152600401602060405180830381865afa158015610bac573d6000803e3d6000fd5b505050506040513d601f19601f82011682018060405250810190610bd09190612143565b15610bee57604051633b3b4caf60e21b815260040160405180910390fd5b336000818152600160205260408120805491905590610c38907f00000000000000000000000000000000000000000000000000000000000000006001600160a01b0316908361194a565b60405181815233907f10df095d1434aed409b2f33d2a6a8456f8b0824633cc12a1b43032085aadc41d9060200160405180910390a250565b6002610c9a7f1b30fe15febd596dffd21d4da0657732eea42b4b5a9789e3e6daab3d570999d75490565b03610cb857604051637990191b60e11b815260040160405180910390fd5b60027f1b30fe15febd596dffd21d4da0657732eea42b4b5a9789e3e6daab3d570999d75581610ce561184b565b604051630b92054b60e21b81526001600160a01b0383811660048301529190911690632e48152c90602401602060405180830381865afa158015610d2d573d6000803e3d6000fd5b505050506040513d601f19601f82011682018060405250810190610d519190612143565b15610d6f57604051633b3b4caf60e21b815260040160405180910390fd5b836001600160a01b038116610d97576040516394c3555f60e01b815260040160405180910390fd5b83610da061184b565b604051633fe948c960e11b81526001600160a01b0383811660048301529190911690637fd2919290602401602060405180830381865afa158015610de8573d6000803e3d6000fd5b505050506040513d601f19601f82011682018060405250810190610e0c9190612143565b610e3457604051634d53256560e01b81526001600160a01b0382166004820152602401610361565b3385806001600160a01b03166311da60b46040518163ffffffff1660e01b8152600401600060405180830381600087803b158015610e7157600080fd5b505af1158015610e85573d6000803e3d6000fd5b505060405163f667f89760e01b81526001600160a01b0385811660048301528416925063f667f8979150602401600060405180830381600087803b158015610ecc57600080fd5b505af1158015610ee0573d6000803e3d6000fd5b5050506001600160a01b0388166000908152602081905260409020339150889082908290610f0f90838c6118f2565b610f436001600160a01b037f0000000000000000000000000000000000000000000000000000000000000000168d8c61194a565b6040518a81526001600160a01b038c169033907f2717ead6b9200dd235aad468c9809ea400fe33ac69b5bfaa6d3e90fc922b63989060200160405180910390a360405163245a240960e21b81526001600160a01b03838116600483015260009190831690639168902490602401602060405180830381865afa158015610fcd573d6000803e3d6000fd5b505050506040513d601f19601f82011682018060405250810190610ff19190612182565b60405163ab582f2960e01b81526001600160a01b03858116600483015291925060009184169063ab582f2990602401602060405180830381865afa15801561103d573d6000803e3d6000fd5b505050506040513d601f19601f820116820180604052508101906110619190612182565b6001600160a01b038085166000908152602081815260408083209389168352929052205490915061109690610655848461195e565b156110cd576040517f40e2812c00000000000000000000000000000000000000000000000000000000815260040160405180910390fd5b505050506001600160a01b03818116600090815260208181526040808320938616835292905220548015801590611172575061117261110a61184b565b6001600160a01b031663ba2de9bc6040518163ffffffff1660e01b8152600401602060405180830381865afa158015611147573d6000803e3d6000fd5b505050506040513d601f19601f8201168201806040525081019061116b9190612182565b829061196a565b156111905760405163410d976960e01b815260040160405180910390fd5b50505050505050506111cc60017f1b30fe15febd596dffd21d4da0657732eea42b4b5a9789e3e6daab3d570999d76118e290919063ffffffff16565b505050565b6001806111fc7f5db5abc19987c2b3729df7961b62b6bb0bae886dd47e3ce25bb3a3af34c6d80b5490565b10611236576040517f1e7a9d9500000000000000000000000000000000000000000000000000000000815260048101829052602401610361565b61125f7f5db5abc19987c2b3729df7961b62b6bb0bae886dd47e3ce25bb3a3af34c6d80b829055565b60017fad57d7911b7e3d6c3c79a68ba909a7f4ba41f9485e5207b12dee0d0c6af5398c5561128c8261197e565b611294611a38565b60007fad57d7911b7e3d6c3c79a68ba909a7f4ba41f9485e5207b12dee0d0c6af5398c555050565b6112c461184b565b604051633fe948c960e11b81523360048201526001600160a01b039190911690637fd2919290602401602060405180830381865afa15801561130a573d6000803e3d6000fd5b505050506040513d601f19601f8201168201806040525081019061132e9190612143565b61134d57604051634d53256560e01b8152336004820152602401610361565b336000818152602081905260408120611367908585611aab565b9050836001600160a01b0316826001600160a01b03167f40957a7f26dd9f9d628b1aba01d4a3db4c38008974c79a62f6cf0f273a78b3a885846040516113b7929190918252602082015260400190565b60405180910390a350505050565b816113ce61184b565b604051630b92054b60e21b81526001600160a01b0383811660048301529190911690632e48152c90602401602060405180830381865afa158015611416573d6000803e3d6000fd5b505050506040513d601f19601f8201168201806040525081019061143a9190612143565b1561145857604051633b3b4caf60e21b815260040160405180910390fd5b6001600160a01b038316600090815260208190526040902061147a9083611b3c565b6114ae6001600160a01b037f0000000000000000000000000000000000000000000000000000000000000000163384611b5f565b826001600160a01b03167f8ae4dab3d718e6b7019e16378795bb41b3046b9117483430a39f7af4ab9bb893836040516114e991815260200190565b60405180910390a2505050565b6001600160a01b0380821660009081526020818152604080832093861683529290529081205461065b9060405163ab582f2960e01b81526001600160a01b03868116600483015285169063ab582f2990602401610614565b60026115787f1b30fe15febd596dffd21d4da0657732eea42b4b5a9789e3e6daab3d570999d75490565b0361159657604051637990191b60e11b815260040160405180910390fd5b60027f1b30fe15febd596dffd21d4da0657732eea42b4b5a9789e3e6daab3d570999d755816115c361184b565b604051630b92054b60e21b81526001600160a01b0383811660048301529190911690632e48152c90602401602060405180830381865afa15801561160b573d6000803e3d6000fd5b505050506040513d601f19601f8201168201806040525081019061162f9190612143565b1561164d57604051633b3b4caf60e21b815260040160405180910390fd5b836001600160a01b038116611675576040516394c3555f60e01b815260040160405180910390fd5b8361167e61184b565b604051633fe948c960e11b81526001600160a01b0383811660048301529190911690637fd2919290602401602060405180830381865afa1580156116c6573d6000803e3d6000fd5b505050506040513d601f19601f820116820180604052508101906116ea9190612143565b61171257604051634d53256560e01b81526001600160a01b0382166004820152602401610361565b6001600160a01b038516600090815260208190526040902086908690611739908388611b74565b61176d6001600160a01b037f0000000000000000000000000000000000000000000000000000000000000000163388611b5f565b866001600160a01b0316886001600160a01b03167f5548c837ab068cf56a2c2479df0882a4922fd203edb7517321831d95078c5f62886040516117b291815260200190565b60405180910390a36001600160a01b038181166000908152602081815260408083209386168352929052205480158015906117f357506117f361110a61184b565b156118115760405163410d976960e01b815260040160405180910390fd5b5050505050506111cc60017f1b30fe15febd596dffd21d4da0657732eea42b4b5a9789e3e6daab3d570999d76118e290919063ffffffff16565b60006118757f0e555410d8128dff796eab5d29b97dd593ce9cab44a71b64c08244579ea605335490565b905090565b6000670de0b6b3a764000061188f83856121b1565b61065b91906121d0565b600061065b82846121f2565b60018201546118b49082611899565b82600101819055505050565b600061065b8284612209565b60006118d88383611bbf565b6002149392505050565b9055565b600061065b8383611bf4565b6001600160a01b0382166000908152602084905260409020546119159082611899565b6001600160a01b038316600090815260208590526040902055600183015461193d9082611899565b8360010181905550505050565b6111cc6001600160a01b0384168383611c0a565b600061065b8383611cb3565b60006119768383611bbf565b159392505050565b303b151580156119ad57507fad57d7911b7e3d6c3c79a68ba909a7f4ba41f9485e5207b12dee0d0c6af5398c54155b156119cb57604051631a27c4a960e21b815260040160405180910390fd5b6001600160a01b0381163b611a0c576040517f14878b6900000000000000000000000000000000000000000000000000000000815260040160405180910390fd5b611a357f0e555410d8128dff796eab5d29b97dd593ce9cab44a71b64c08244579ea60533829055565b50565b303b15158015611a6757507fad57d7911b7e3d6c3c79a68ba909a7f4ba41f9485e5207b12dee0d0c6af5398c54155b15611a8557604051631a27c4a960e21b815260040160405180910390fd5b60017f1b30fe15febd596dffd21d4da0657732eea42b4b5a9789e3e6daab3d570999d755565b6001600160a01b0382166000908152602084905260408120548190611adb908490611ad590611cc3565b90611d22565b9050611ae681611d2e565b19611afb57611af481611d5a565b9150600090505b611b0481611d5a565b6001600160a01b0385166000908152602087905260409020556002850154611b2c90836118c0565b8560020181905550509392505050565b6002820154611b4b9082611899565b600283015560018201546118b490826118c0565b6111cc6001600160a01b038416833084611d65565b6001600160a01b038216600090815260208490526040902054611b9790826118c0565b6001600160a01b038316600090815260208590526040902055600183015461193d90826118c0565b6000828280821115611bd65760029250505061065e565b80821015611be95760009250505061065e565b506001949350505050565b6000818310611c03578161065b565b5090919050565b6040516001600160a01b0383166024820152604481018290526111cc9084907fa9059cbb00000000000000000000000000000000000000000000000000000000906064015b60408051601f198184030181529190526020810180517bffffffffffffffffffffffffffffffffffffffffffffffffffffffff167fffffffff0000000000000000000000000000000000000000000000000000000090931692909217909152611dbc565b600081831015611c03578161065b565b6000817f7fffffffffffffffffffffffffffffffffffffffffffffffffffffffffffffff81111561065e576040517ea07eb500000000000000000000000000000000000000000000000000000000815260048101829052602401610361565b600061065b8284612221565b600080821315611d4057506001919050565b6000821215611d525750600019919050565b506000919050565b600061065e82611ea1565b6040516001600160a01b0380851660248301528316604482015260648101829052611db69085907f23b872dd0000000000000000000000000000000000000000000000000000000090608401611c4f565b50505050565b6000611e11826040518060400160405280602081526020017f5361666545524332303a206c6f772d6c6576656c2063616c6c206661696c6564815250856001600160a01b0316611eb89092919063ffffffff16565b8051909150156111cc5780806020019051810190611e2f9190612143565b6111cc5760405162461bcd60e51b815260206004820152602a60248201527f5361666545524332303a204552433230206f7065726174696f6e20646964206e60448201527f6f742073756363656564000000000000000000000000000000000000000000006064820152608401610361565b600080821215611eb4578160000361065e565b5090565b6060611ec78484600085611ed1565b90505b9392505050565b606082471015611f495760405162461bcd60e51b815260206004820152602660248201527f416464726573733a20696e73756666696369656e742062616c616e636520666f60448201527f722063616c6c00000000000000000000000000000000000000000000000000006064820152608401610361565b6001600160a01b0385163b611fa05760405162461bcd60e51b815260206004820152601d60248201527f416464726573733a2063616c6c20746f206e6f6e2d636f6e74726163740000006044820152606401610361565b600080866001600160a01b03168587604051611fbc91906122c1565b60006040518083038185875af1925050503d8060008114611ff9576040519150601f19603f3d011682016040523d82523d6000602084013e611ffe565b606091505b509150915061200e828286612019565b979650505050505050565b60608315612028575081611eca565b8251156120385782518084602001fd5b8160405162461bcd60e51b815260040161036191906122dd565b60006020828403121561206457600080fd5b5035919050565b6001600160a01b0381168114611a3557600080fd5b6000806040838503121561209357600080fd5b823561209e8161206b565b915060208301356120ae8161206b565b809150509250929050565b6000602082840312156120cb57600080fd5b8135611eca8161206b565b6000806000606084860312156120eb57600080fd5b83356120f68161206b565b925060208401356121068161206b565b929592945050506040919091013590565b6000806040838503121561212a57600080fd5b82356121358161206b565b946020939093013593505050565b60006020828403121561215557600080fd5b81518015158114611eca57600080fd5b60006020828403121561217757600080fd5b8151611eca8161206b565b60006020828403121561219457600080fd5b5051919050565b634e487b7160e01b600052601160045260246000fd5b60008160001904831182151516156121cb576121cb61219b565b500290565b6000826121ed57634e487b7160e01b600052601260045260246000fd5b500490565b6000828210156122045761220461219b565b500390565b6000821982111561221c5761221c61219b565b500190565b6000808212827f7fffffffffffffffffffffffffffffffffffffffffffffffffffffffffffffff0384138115161561225b5761225b61219b565b827f800000000000000000000000000000000000000000000000000000000000000003841281161561228f5761228f61219b565b50500190565b60005b838110156122b0578181015183820152602001612298565b83811115611db65750506000910152565b600082516122d3818460208701612295565b9190910192915050565b60208152600082518060208401526122fc816040850160208701612295565b601f01601f1916919091016040019291505056fea26469706673582212201d74ed9e95b47c1f8c7c6a6eb1ff1dbc33d82515910316f33633b35d3fab93e164736f6c634300080d0033",
  "devdoc": {
    "kind": "dev",
    "methods": {
      "collateral(address)": {
        "params": {
          "product": "Product to return for"
        },
        "returns": {
          "_0": "The total balance of collateral in the product"
        }
      },
      "collateral(address,address)": {
        "params": {
          "account": "Account to return for",
          "product": "Product to return for"
        },
        "returns": {
          "_0": "The balance of the collateral account"
        }
      },
      "constructor": {
        "details": "Called at implementation instantiate and constant for that implementation.",
        "params": {
          "token_": "Collateral ERC20 stablecoin address"
        }
      },
      "depositTo(address,address,uint256)": {
        "params": {
          "account": "Account to deposit the collateral for",
          "amount": "Amount of collateral to deposit",
          "product": "Product to credit the collateral to"
        }
      },
      "initialize(address)": {
        "details": "Must be called atomically as part of the upgradeable proxy deployment to      avoid front-running",
        "params": {
          "controller_": "Factory contract address"
        }
      },
      "liquidatable(address,address)": {
        "params": {
          "account": "Account to return for",
          "product": "Product to return for"
        },
        "returns": {
          "_0": "Whether the account can be liquidated"
        }
      },
      "liquidatableNext(address,address)": {
        "details": "Takes into account the current pre-position on the account",
        "params": {
          "account": "Account to return for",
          "product": "Product to return for"
        },
        "returns": {
          "_0": "Whether the account can be liquidated"
        }
      },
      "liquidate(address,address)": {
        "details": "Account must be under-collateralized, fee returned immediately to `msg.sender`",
        "params": {
          "account": "Account to liquidate",
          "product": "Product to liquidate for"
        }
      },
      "resolveShortfall(address,uint256)": {
        "details": "Shortfall is a measure of settled insolvency in the market      This hook can be used by the product owner or an insurance fund to re-capitalize an insolvent market",
        "params": {
          "amount": "Amount of shortfall to resolve",
          "product": "Product to resolve shortfall for"
        }
      },
      "settleAccount(address,int256)": {
        "details": "Callable only by the corresponding product as part of the settlement flywheel.      Moves collateral within a product, any collateral leaving the product due to      fees has already been accounted for in the settleProduct flywheel.      Debits in excess of the account balance get recorded as shortfall, and can be      resolved by the product owner as needed.",
        "params": {
          "account": "Account to credit",
          "amount": "Amount to credit the account (can be negative)"
        }
      },
      "settleProduct(uint256)": {
        "details": "Callable only by the corresponding product as part of the settlement flywheel      Removes collateral from the product as fees.",
        "params": {
          "amount": "Amount to debit from the account"
        }
      },
      "shortfall(address)": {
        "params": {
          "product": "Product to return for"
        },
        "returns": {
          "_0": "The current shortfall of the product"
        }
      },
      "withdrawTo(address,address,uint256)": {
        "params": {
          "account": "Account to withdraw the collateral to",
          "amount": "Amount of collateral to withdraw",
          "product": "Product to withdraw the collateral from"
        }
      }
    },
    "stateVariables": {
      "_products": {
        "details": "Per product collateral state"
      },
      "fees": {
        "details": "Protocol and product fees collected, but not yet claimed"
      },
      "token": {
        "details": "ERC20 stablecoin for collateral"
      }
    },
    "title": "Collateral",
    "version": 1
  },
  "userdoc": {
    "kind": "user",
    "methods": {
      "claimFee()": {
        "notice": "Claims all of `msg.sender`'s fees"
      },
      "collateral(address)": {
        "notice": "Returns the total balance of `product`'s collateral"
      },
      "collateral(address,address)": {
        "notice": "Returns the balance of `account`'s `product` collateral account"
      },
      "constructor": {
        "notice": "Initializes the immutable contract state"
      },
      "depositTo(address,address,uint256)": {
        "notice": "Deposits `amount` collateral from `msg.sender` to `account`'s `product`         account"
      },
      "initialize(address)": {
        "notice": "Initializes the contract state"
      },
      "liquidatable(address,address)": {
        "notice": "Returns whether `account`'s `product` collateral account can be liquidated"
      },
      "liquidatableNext(address,address)": {
        "notice": "Returns whether `account`'s `product` collateral account can be liquidated         after the next oracle version settlement"
      },
      "liquidate(address,address)": {
        "notice": "Liquidates `account`'s `product` collateral account"
      },
      "resolveShortfall(address,uint256)": {
        "notice": "Injects additional collateral into a product to resolve shortfall"
      },
      "settleAccount(address,int256)": {
        "notice": "Credits `amount` to `account`'s collateral account"
      },
      "settleProduct(uint256)": {
        "notice": "Debits `amount` from product's total collateral account"
      },
      "shortfall(address)": {
        "notice": "Returns the current shortfall of `product`'s collateral"
      },
      "withdrawTo(address,address,uint256)": {
        "notice": "Withdraws `amount` collateral from `msg.sender`'s `product` account         and sends it to `account`"
      }
    },
    "notice": "Manages logic and state for all collateral accounts in the protocol.",
    "version": 1
  },
  "storageLayout": {
    "storage": [
      {
        "astId": 9024,
        "contract": "contracts/collateral/Collateral.sol:Collateral",
        "label": "_products",
        "offset": 0,
        "slot": "0",
        "type": "t_mapping(t_contract(IProduct)13640,t_struct(OptimisticLedger)9700_storage)"
      },
      {
        "astId": 9030,
        "contract": "contracts/collateral/Collateral.sol:Collateral",
        "label": "fees",
        "offset": 0,
        "slot": "1",
        "type": "t_mapping(t_address,t_userDefinedValueType(UFixed18)1887)"
      }
    ],
    "types": {
      "t_address": {
        "encoding": "inplace",
        "label": "address",
        "numberOfBytes": "20"
      },
      "t_contract(IProduct)13640": {
        "encoding": "inplace",
        "label": "contract IProduct",
        "numberOfBytes": "20"
      },
      "t_mapping(t_address,t_userDefinedValueType(UFixed18)1887)": {
        "encoding": "mapping",
        "key": "t_address",
        "label": "mapping(address => UFixed18)",
        "numberOfBytes": "32",
        "value": "t_userDefinedValueType(UFixed18)1887"
      },
      "t_mapping(t_contract(IProduct)13640,t_struct(OptimisticLedger)9700_storage)": {
        "encoding": "mapping",
        "key": "t_contract(IProduct)13640",
        "label": "mapping(contract IProduct => struct OptimisticLedger)",
        "numberOfBytes": "32",
        "value": "t_struct(OptimisticLedger)9700_storage"
      },
      "t_struct(OptimisticLedger)9700_storage": {
        "encoding": "inplace",
        "label": "struct OptimisticLedger",
        "members": [
          {
            "astId": 9691,
            "contract": "contracts/collateral/Collateral.sol:Collateral",
            "label": "balances",
            "offset": 0,
            "slot": "0",
            "type": "t_mapping(t_address,t_userDefinedValueType(UFixed18)1887)"
          },
          {
            "astId": 9695,
            "contract": "contracts/collateral/Collateral.sol:Collateral",
            "label": "total",
            "offset": 0,
            "slot": "1",
            "type": "t_userDefinedValueType(UFixed18)1887"
          },
          {
            "astId": 9699,
            "contract": "contracts/collateral/Collateral.sol:Collateral",
            "label": "shortfall",
            "offset": 0,
            "slot": "2",
            "type": "t_userDefinedValueType(UFixed18)1887"
          }
        ],
        "numberOfBytes": "96"
      },
      "t_userDefinedValueType(UFixed18)1887": {
        "encoding": "inplace",
        "label": "UFixed18",
        "numberOfBytes": "32"
      }
    }
  }
}