{
  "address": "0x4bda02fE012BaFEf4cfD5d3d8568dE85995bED3E",
  "abi": [
    {
      "inputs": [],
      "name": "ControllerAlreadyInitializedError",
      "type": "error"
    },
    {
      "inputs": [],
      "name": "ControllerInvalidIncentivizationFeeError",
      "type": "error"
    },
    {
      "inputs": [],
      "name": "ControllerInvalidLiquidationFeeError",
      "type": "error"
    },
    {
      "inputs": [],
      "name": "ControllerInvalidMinFundingFeeError",
      "type": "error"
    },
    {
      "inputs": [],
      "name": "ControllerInvalidProtocolFeeError",
      "type": "error"
    },
    {
      "inputs": [],
      "name": "ControllerNoZeroCoordinatorError",
      "type": "error"
    },
    {
      "inputs": [],
      "name": "ControllerNotAllowedError",
      "type": "error"
    },
    {
      "inputs": [
        {
          "internalType": "uint256",
          "name": "controllerId",
          "type": "uint256"
        }
      ],
      "name": "ControllerNotOwnerError",
      "type": "error"
    },
    {
      "inputs": [
        {
          "internalType": "uint256",
          "name": "coordinatorId",
          "type": "uint256"
        }
      ],
      "name": "ControllerNotPauserError",
      "type": "error"
    },
    {
      "inputs": [
        {
          "internalType": "uint256",
          "name": "controllerId",
          "type": "uint256"
        }
      ],
      "name": "ControllerNotPendingOwnerError",
      "type": "error"
    },
    {
      "inputs": [
        {
          "internalType": "uint256",
          "name": "version",
          "type": "uint256"
        }
      ],
      "name": "UInitializableAlreadyInitializedError",
      "type": "error"
    },
    {
      "inputs": [],
      "name": "UInitializableNotInitializingError",
      "type": "error"
    },
    {
      "inputs": [],
      "name": "UInitializableZeroVersionError",
      "type": "error"
    },
    {
      "anonymous": false,
      "inputs": [
        {
          "indexed": true,
          "internalType": "uint256",
          "name": "coordinatorId",
          "type": "uint256"
        },
        {
          "indexed": false,
          "internalType": "bool",
          "name": "allowed",
          "type": "bool"
        }
      ],
      "name": "AllowedUpdated",
      "type": "event"
    },
    {
      "anonymous": false,
      "inputs": [
        {
          "indexed": false,
          "internalType": "contract ICollateral",
          "name": "newCollateral",
          "type": "address"
        }
      ],
      "name": "CollateralUpdated",
      "type": "event"
    },
    {
      "anonymous": false,
      "inputs": [
        {
          "indexed": true,
          "internalType": "uint256",
          "name": "coordinatorId",
          "type": "uint256"
        },
        {
          "indexed": false,
          "internalType": "address",
          "name": "owner",
          "type": "address"
        }
      ],
      "name": "CoordinatorCreated",
      "type": "event"
    },
    {
      "anonymous": false,
      "inputs": [
        {
          "indexed": true,
          "internalType": "uint256",
          "name": "coordinatorId",
          "type": "uint256"
        },
        {
          "indexed": false,
          "internalType": "address",
          "name": "newOwner",
          "type": "address"
        }
      ],
      "name": "CoordinatorOwnerUpdated",
      "type": "event"
    },
    {
      "anonymous": false,
      "inputs": [
        {
          "indexed": true,
          "internalType": "uint256",
          "name": "coordinatorId",
          "type": "uint256"
        },
        {
          "indexed": false,
          "internalType": "bool",
          "name": "paused",
          "type": "bool"
        }
      ],
      "name": "CoordinatorPausedUpdated",
      "type": "event"
    },
    {
      "anonymous": false,
      "inputs": [
        {
          "indexed": true,
          "internalType": "uint256",
          "name": "coordinatorId",
          "type": "uint256"
        },
        {
          "indexed": false,
          "internalType": "address",
          "name": "pauser",
          "type": "address"
        }
      ],
      "name": "CoordinatorPauserUpdated",
      "type": "event"
    },
    {
      "anonymous": false,
      "inputs": [
        {
          "indexed": true,
          "internalType": "uint256",
          "name": "coordinatorId",
          "type": "uint256"
        },
        {
          "indexed": false,
          "internalType": "address",
          "name": "newPendingOwner",
          "type": "address"
        }
      ],
      "name": "CoordinatorPendingOwnerUpdated",
      "type": "event"
    },
    {
      "anonymous": false,
      "inputs": [
        {
          "indexed": true,
          "internalType": "uint256",
          "name": "coordinatorId",
          "type": "uint256"
        },
        {
          "indexed": false,
          "internalType": "address",
          "name": "newTreasury",
          "type": "address"
        }
      ],
      "name": "CoordinatorTreasuryUpdated",
      "type": "event"
    },
    {
      "anonymous": false,
      "inputs": [
        {
          "indexed": false,
          "internalType": "UFixed18",
          "name": "newIncentivizationFee",
          "type": "uint256"
        }
      ],
      "name": "IncentivizationFeeUpdated",
      "type": "event"
    },
    {
      "anonymous": false,
      "inputs": [
        {
          "indexed": false,
          "internalType": "contract IIncentivizer",
          "name": "newIncentivizer",
          "type": "address"
        }
      ],
      "name": "IncentivizerUpdated",
      "type": "event"
    },
    {
      "anonymous": false,
      "inputs": [
        {
          "indexed": false,
          "internalType": "UFixed18",
          "name": "newLiquidationFee",
          "type": "uint256"
        }
      ],
      "name": "LiquidationFeeUpdated",
      "type": "event"
    },
    {
      "anonymous": false,
      "inputs": [
        {
          "indexed": false,
          "internalType": "UFixed18",
          "name": "newMinCollateral",
          "type": "uint256"
        }
      ],
      "name": "MinCollateralUpdated",
      "type": "event"
    },
    {
      "anonymous": false,
      "inputs": [
        {
          "indexed": false,
          "internalType": "UFixed18",
          "name": "newMinFundingFee",
          "type": "uint256"
        }
      ],
      "name": "MinFundingFeeUpdated",
      "type": "event"
    },
    {
      "anonymous": false,
      "inputs": [
        {
          "indexed": false,
          "internalType": "contract IBeacon",
          "name": "newProductBeacon",
          "type": "address"
        }
      ],
      "name": "ProductBeaconUpdated",
      "type": "event"
    },
    {
      "anonymous": false,
      "inputs": [
        {
          "indexed": true,
          "internalType": "contract IProduct",
          "name": "product",
          "type": "address"
        },
        {
          "indexed": false,
          "internalType": "contract IProductProvider",
          "name": "provider",
          "type": "address"
        }
      ],
      "name": "ProductCreated",
      "type": "event"
    },
    {
      "anonymous": false,
      "inputs": [
        {
          "indexed": false,
          "internalType": "uint256",
          "name": "newProgramsPerProduct",
          "type": "uint256"
        }
      ],
      "name": "ProgramsPerProductUpdated",
      "type": "event"
    },
    {
      "anonymous": false,
      "inputs": [
        {
          "indexed": false,
          "internalType": "UFixed18",
          "name": "newProtocolFee",
          "type": "uint256"
        }
      ],
      "name": "ProtocolFeeUpdated",
      "type": "event"
    },
    {
      "inputs": [
        {
          "internalType": "uint256",
          "name": "coordinatorId",
          "type": "uint256"
        }
      ],
      "name": "acceptCoordinatorOwner",
      "outputs": [],
      "stateMutability": "nonpayable",
      "type": "function"
    },
    {
      "inputs": [
        {
          "internalType": "uint256",
          "name": "",
          "type": "uint256"
        }
      ],
      "name": "allowed",
      "outputs": [
        {
          "internalType": "bool",
          "name": "",
          "type": "bool"
        }
      ],
      "stateMutability": "view",
      "type": "function"
    },
    {
      "inputs": [],
      "name": "collateral",
      "outputs": [
        {
          "internalType": "contract ICollateral",
          "name": "",
          "type": "address"
        }
      ],
      "stateMutability": "view",
      "type": "function"
    },
    {
      "inputs": [
        {
          "internalType": "contract IProduct",
          "name": "",
          "type": "address"
        }
      ],
      "name": "coordinatorFor",
      "outputs": [
        {
          "internalType": "uint256",
          "name": "",
          "type": "uint256"
        }
      ],
      "stateMutability": "view",
      "type": "function"
    },
    {
      "inputs": [
        {
          "internalType": "uint256",
          "name": "coordinatorId",
          "type": "uint256"
        }
      ],
      "name": "coordinators",
      "outputs": [
        {
          "components": [
            {
              "internalType": "address",
              "name": "pendingOwner",
              "type": "address"
            },
            {
              "internalType": "address",
              "name": "owner",
              "type": "address"
            },
            {
              "internalType": "address",
              "name": "treasury",
              "type": "address"
            },
            {
              "internalType": "address",
              "name": "pauser",
              "type": "address"
            },
            {
              "internalType": "bool",
              "name": "paused",
              "type": "bool"
            }
          ],
          "internalType": "struct IController.Coordinator",
          "name": "",
          "type": "tuple"
        }
      ],
      "stateMutability": "view",
      "type": "function"
    },
    {
      "inputs": [],
      "name": "createCoordinator",
      "outputs": [
        {
          "internalType": "uint256",
          "name": "",
          "type": "uint256"
        }
      ],
      "stateMutability": "nonpayable",
      "type": "function"
    },
    {
      "inputs": [
        {
          "internalType": "uint256",
          "name": "coordinatorId",
          "type": "uint256"
        },
        {
          "internalType": "contract IProductProvider",
          "name": "provider",
          "type": "address"
        }
      ],
      "name": "createProduct",
      "outputs": [
        {
          "internalType": "contract IProduct",
          "name": "",
          "type": "address"
        }
      ],
      "stateMutability": "nonpayable",
      "type": "function"
    },
    {
      "inputs": [],
      "name": "incentivizationFee",
      "outputs": [
        {
          "internalType": "UFixed18",
          "name": "",
          "type": "uint256"
        }
      ],
      "stateMutability": "view",
      "type": "function"
    },
    {
      "inputs": [],
      "name": "incentivizer",
      "outputs": [
        {
          "internalType": "contract IIncentivizer",
          "name": "",
          "type": "address"
        }
      ],
      "stateMutability": "view",
      "type": "function"
    },
    {
      "inputs": [
        {
          "internalType": "contract ICollateral",
          "name": "collateral_",
          "type": "address"
        },
        {
          "internalType": "contract IIncentivizer",
          "name": "incentivizer_",
          "type": "address"
        },
        {
          "internalType": "contract IBeacon",
          "name": "productBeacon_",
          "type": "address"
        }
      ],
      "name": "initialize",
      "outputs": [],
      "stateMutability": "nonpayable",
      "type": "function"
    },
    {
      "inputs": [
        {
          "internalType": "contract IProduct",
          "name": "product",
          "type": "address"
        }
      ],
      "name": "isProduct",
      "outputs": [
        {
          "internalType": "bool",
          "name": "",
          "type": "bool"
        }
      ],
      "stateMutability": "view",
      "type": "function"
    },
    {
      "inputs": [],
      "name": "liquidationFee",
      "outputs": [
        {
          "internalType": "UFixed18",
          "name": "",
          "type": "uint256"
        }
      ],
      "stateMutability": "view",
      "type": "function"
    },
    {
      "inputs": [],
      "name": "minCollateral",
      "outputs": [
        {
          "internalType": "UFixed18",
          "name": "",
          "type": "uint256"
        }
      ],
      "stateMutability": "view",
      "type": "function"
    },
    {
      "inputs": [],
      "name": "minFundingFee",
      "outputs": [
        {
          "internalType": "UFixed18",
          "name": "",
          "type": "uint256"
        }
      ],
      "stateMutability": "view",
      "type": "function"
    },
    {
      "inputs": [
        {
          "internalType": "contract IProduct",
          "name": "product",
          "type": "address"
        }
      ],
      "name": "owner",
      "outputs": [
        {
          "internalType": "address",
          "name": "",
          "type": "address"
        }
      ],
      "stateMutability": "view",
      "type": "function"
    },
    {
      "inputs": [],
      "name": "owner",
      "outputs": [
        {
          "internalType": "address",
          "name": "",
          "type": "address"
        }
      ],
      "stateMutability": "view",
      "type": "function"
    },
    {
      "inputs": [
        {
          "internalType": "uint256",
          "name": "coordinatorId",
          "type": "uint256"
        }
      ],
      "name": "owner",
      "outputs": [
        {
          "internalType": "address",
          "name": "",
          "type": "address"
        }
      ],
      "stateMutability": "view",
      "type": "function"
    },
    {
      "inputs": [
        {
          "internalType": "uint256",
          "name": "coordinatorId",
          "type": "uint256"
        }
      ],
      "name": "paused",
      "outputs": [
        {
          "internalType": "bool",
          "name": "",
          "type": "bool"
        }
      ],
      "stateMutability": "view",
      "type": "function"
    },
    {
      "inputs": [
        {
          "internalType": "contract IProduct",
          "name": "product",
          "type": "address"
        }
      ],
      "name": "paused",
      "outputs": [
        {
          "internalType": "bool",
          "name": "",
          "type": "bool"
        }
      ],
      "stateMutability": "view",
      "type": "function"
    },
    {
      "inputs": [],
      "name": "paused",
      "outputs": [
        {
          "internalType": "bool",
          "name": "",
          "type": "bool"
        }
      ],
      "stateMutability": "view",
      "type": "function"
    },
    {
      "inputs": [
        {
          "internalType": "contract IProduct",
          "name": "product",
          "type": "address"
        }
      ],
      "name": "pauser",
      "outputs": [
        {
          "internalType": "address",
          "name": "",
          "type": "address"
        }
      ],
      "stateMutability": "view",
      "type": "function"
    },
    {
      "inputs": [
        {
          "internalType": "uint256",
          "name": "coordinatorId",
          "type": "uint256"
        }
      ],
      "name": "pauser",
      "outputs": [
        {
          "internalType": "address",
          "name": "",
          "type": "address"
        }
      ],
      "stateMutability": "view",
      "type": "function"
    },
    {
      "inputs": [],
      "name": "pauser",
      "outputs": [
        {
          "internalType": "address",
          "name": "",
          "type": "address"
        }
      ],
      "stateMutability": "view",
      "type": "function"
    },
    {
      "inputs": [
        {
          "internalType": "uint256",
          "name": "coordinatorId",
          "type": "uint256"
        }
      ],
      "name": "pendingOwner",
      "outputs": [
        {
          "internalType": "address",
          "name": "",
          "type": "address"
        }
      ],
      "stateMutability": "view",
      "type": "function"
    },
    {
      "inputs": [],
      "name": "pendingOwner",
      "outputs": [
        {
          "internalType": "address",
          "name": "",
          "type": "address"
        }
      ],
      "stateMutability": "view",
      "type": "function"
    },
    {
      "inputs": [],
      "name": "productBeacon",
      "outputs": [
        {
          "internalType": "contract IBeacon",
          "name": "",
          "type": "address"
        }
      ],
      "stateMutability": "view",
      "type": "function"
    },
    {
      "inputs": [],
      "name": "programsPerProduct",
      "outputs": [
        {
          "internalType": "uint256",
          "name": "",
          "type": "uint256"
        }
      ],
      "stateMutability": "view",
      "type": "function"
    },
    {
      "inputs": [],
      "name": "protocolFee",
      "outputs": [
        {
          "internalType": "UFixed18",
          "name": "",
          "type": "uint256"
        }
      ],
      "stateMutability": "view",
      "type": "function"
    },
    {
      "inputs": [
        {
          "internalType": "contract IProduct",
          "name": "product",
          "type": "address"
        }
      ],
      "name": "treasury",
      "outputs": [
        {
          "internalType": "address",
          "name": "",
          "type": "address"
        }
      ],
      "stateMutability": "view",
      "type": "function"
    },
    {
      "inputs": [
        {
          "internalType": "uint256",
          "name": "coordinatorId",
          "type": "uint256"
        }
      ],
      "name": "treasury",
      "outputs": [
        {
          "internalType": "address",
          "name": "",
          "type": "address"
        }
      ],
      "stateMutability": "view",
      "type": "function"
    },
    {
      "inputs": [],
      "name": "treasury",
      "outputs": [
        {
          "internalType": "address",
          "name": "",
          "type": "address"
        }
      ],
      "stateMutability": "view",
      "type": "function"
    },
    {
      "inputs": [
        {
          "internalType": "uint256",
          "name": "coordinatorId",
          "type": "uint256"
        },
        {
          "internalType": "bool",
          "name": "newAllowed",
          "type": "bool"
        }
      ],
      "name": "updateAllowed",
      "outputs": [],
      "stateMutability": "nonpayable",
      "type": "function"
    },
    {
      "inputs": [
        {
          "internalType": "contract ICollateral",
          "name": "newCollateral",
          "type": "address"
        }
      ],
      "name": "updateCollateral",
      "outputs": [],
      "stateMutability": "nonpayable",
      "type": "function"
    },
    {
      "inputs": [
        {
          "internalType": "uint256",
          "name": "coordinatorId",
          "type": "uint256"
        },
        {
          "internalType": "bool",
          "name": "newPaused",
          "type": "bool"
        }
      ],
      "name": "updateCoordinatorPaused",
      "outputs": [],
      "stateMutability": "nonpayable",
      "type": "function"
    },
    {
      "inputs": [
        {
          "internalType": "uint256",
          "name": "coordinatorId",
          "type": "uint256"
        },
        {
          "internalType": "address",
          "name": "newPauser",
          "type": "address"
        }
      ],
      "name": "updateCoordinatorPauser",
      "outputs": [],
      "stateMutability": "nonpayable",
      "type": "function"
    },
    {
      "inputs": [
        {
          "internalType": "uint256",
          "name": "coordinatorId",
          "type": "uint256"
        },
        {
          "internalType": "address",
          "name": "newPendingOwner",
          "type": "address"
        }
      ],
      "name": "updateCoordinatorPendingOwner",
      "outputs": [],
      "stateMutability": "nonpayable",
      "type": "function"
    },
    {
      "inputs": [
        {
          "internalType": "uint256",
          "name": "coordinatorId",
          "type": "uint256"
        },
        {
          "internalType": "address",
          "name": "newTreasury",
          "type": "address"
        }
      ],
      "name": "updateCoordinatorTreasury",
      "outputs": [],
      "stateMutability": "nonpayable",
      "type": "function"
    },
    {
      "inputs": [
        {
          "internalType": "UFixed18",
          "name": "newIncentivizationFee",
          "type": "uint256"
        }
      ],
      "name": "updateIncentivizationFee",
      "outputs": [],
      "stateMutability": "nonpayable",
      "type": "function"
    },
    {
      "inputs": [
        {
          "internalType": "contract IIncentivizer",
          "name": "newIncentivizer",
          "type": "address"
        }
      ],
      "name": "updateIncentivizer",
      "outputs": [],
      "stateMutability": "nonpayable",
      "type": "function"
    },
    {
      "inputs": [
        {
          "internalType": "UFixed18",
          "name": "newLiquidationFee",
          "type": "uint256"
        }
      ],
      "name": "updateLiquidationFee",
      "outputs": [],
      "stateMutability": "nonpayable",
      "type": "function"
    },
    {
      "inputs": [
        {
          "internalType": "UFixed18",
          "name": "newMinCollateral",
          "type": "uint256"
        }
      ],
      "name": "updateMinCollateral",
      "outputs": [],
      "stateMutability": "nonpayable",
      "type": "function"
    },
    {
      "inputs": [
        {
          "internalType": "UFixed18",
          "name": "newMinFundingFee",
          "type": "uint256"
        }
      ],
      "name": "updateMinFundingFee",
      "outputs": [],
      "stateMutability": "nonpayable",
      "type": "function"
    },
    {
      "inputs": [
        {
          "internalType": "contract IBeacon",
          "name": "newProductBeacon",
          "type": "address"
        }
      ],
      "name": "updateProductBeacon",
      "outputs": [],
      "stateMutability": "nonpayable",
      "type": "function"
    },
    {
      "inputs": [
        {
          "internalType": "uint256",
          "name": "newProgramsPerProduct",
          "type": "uint256"
        }
      ],
      "name": "updateProgramsPerProduct",
      "outputs": [],
      "stateMutability": "nonpayable",
      "type": "function"
    },
    {
      "inputs": [
        {
          "internalType": "UFixed18",
          "name": "newProtocolFee",
          "type": "uint256"
        }
      ],
      "name": "updateProtocolFee",
      "outputs": [],
      "stateMutability": "nonpayable",
      "type": "function"
    }
  ],
  "transactionHash": "0xe2ed4f85c77b068af4d1a3dad8791ac7e45e0f09e268e522e95148a3e4494d79",
  "args": [],
  "numDeployments": 1,
  "solcInputHash": "669da26b2049a035994bb66b35ec132a",
  "bytecode": "0x608060405234801561001057600080fd5b506124df806100206000396000f3fe60806040523480156200001157600080fd5b50600436106200033c5760003560e01c80637a7da00411620001bd578063ae9526331162000101578063d809aa6111620000a3578063e975c0c3116200007a578063e975c0c31462000736578063ee50ccb51462000740578063f8dfc2cc146200075757600080fd5b8063d809aa611462000701578063d8dfeb451462000718578063e30c3978146200072c57600080fd5b8063ba2de9bc11620000d8578063ba2de9bc14620006c9578063c0c53b8b14620006d3578063c2cc6f1414620006ea57600080fd5b8063ae9526331462000691578063af2757b714620006a8578063b0e21e8a14620006bf57600080fd5b80638da5cb5b116200016b578063a123c33e1162000142578063a123c33e1462000659578063a1eef78e1462000670578063a36a3630146200068757600080fd5b80638da5cb5b146200062e5780638fbf180314620006385780639fd0506d146200064f57600080fd5b80637d254e6611620001a05780637d254e6614620005d35780637d49c1b714620005f65780637fd29192146200060057600080fd5b80637a7da00414620005a55780637c01369014620005bc57600080fd5b80634c5430a0116200028557806364e893de116200023357806366c06239116200020a57806366c0623914620005705780636fc6407c146200057a57806375907f28146200058e57600080fd5b806364e893de146200052b57806365e821e51462000542578063666e1b39146200055957600080fd5b80635c975abb11620002685780635c975abb14620004aa5780635f1cc00514620004b457806361d027b3146200052157600080fd5b80634c5430a0146200047c57806353922864146200049357600080fd5b80632d809cb611620002ef5780633ceda01111620002c65780633ceda01114620004355780634256dd78146200044e578063478739ca146200046557600080fd5b80632d809cb614620003f35780632e48152c146200040a578063391d0c9c146200042157600080fd5b8063214296e81162000324578063214296e8146200039d5780632933d89114620003c35780632b800e3b14620003dc57600080fd5b8062dde10e14620003415780630a1289ad146200036d575b600080fd5b6200035862000352366004620019d5565b6200076e565b60405190151581526020015b60405180910390f35b620003846200037e36600462001a08565b620007bd565b6040516001600160a01b03909116815260200162000364565b62000358620003ae366004620019d5565b60056020526000908152604090205460ff1681565b620003da620003d4366004620019d5565b620007e1565b005b62000384620003ed366004620019d5565b62000865565b620003846200040436600462001a08565b6200089d565b620003586200041b36600462001a08565b620008c1565b60025462000384906001600160a01b031681565b6200043f60095481565b60405190815260200162000364565b620003da6200045f366004620019d5565b620008e5565b620003da62000476366004620019d5565b620009aa565b620003846200048d366004620019d5565b62000a6f565b62000384620004a4366004620019d5565b62000ac7565b6200035862000b0d565b620004cb620004c5366004620019d5565b62000b4a565b604051620003649190600060a0820190506001600160a01b038084511683528060208501511660208401528060408501511660408401528060608501511660608401525060808301511515608083015292915050565b6200038462000bf8565b620003846200053c36600462001a28565b62000c0b565b620003da6200055336600462001a08565b62000e40565b620003846200056a36600462001a08565b62000ed2565b6200043f62000ef6565b60015462000384906001600160a01b031681565b620003da6200059f366004620019d5565b62001078565b620003da620005b636600462001a08565b6200113d565b620003da620005cd36600462001a08565b620011cf565b6200043f620005e436600462001a08565b60046020526000908152604090205481565b6200043f600b5481565b620003586200061136600462001a08565b6001600160a01b0316600090815260046020526040902054151590565b6200038462001261565b620003da62000649366004620019d5565b6200126f565b6200038462001344565b620003846200066a366004620019d5565b62001352565b620003da62000681366004620019d5565b6200138d565b6200043f60085481565b620003da620006a236600462001a28565b62001406565b620003da620006b936600462001a28565b620014c1565b6200043f60065481565b6200043f600a5481565b620003da620006e436600462001a5b565b62001579565b620003da620006fb36600462001aad565b62001685565b620003da62000712366004620019d5565b62001754565b60005462000384906001600160a01b031681565b6200038462001819565b6200043f60075481565b620003da6200075136600462001aad565b62001827565b620003da6200076836600462001a28565b620018bb565b60006200077a62000b0d565b80620007b757506003828154811062000797576200079762001ad9565b906000526020600020906004020160030160149054906101000a900460ff165b92915050565b6001600160a01b038116600090815260046020526040812054620007b79062000ac7565b6000620007ee8162001352565b6001600160a01b0316336001600160a01b031614620008285760405163f0a882b560e01b8152600481018290526024015b60405180910390fd5b600a8290556040518281527fd19fe8ad9152af12b174a60210fb798db0767d63973ebb97298dc44d67a5c82d906020015b60405180910390a15050565b6000600382815481106200087d576200087d62001ad9565b60009182526020909120600490910201546001600160a01b031692915050565b6001600160a01b038116600090815260046020526040812054620007b79062000a6f565b6001600160a01b038116600090815260046020526040812054620007b7906200076e565b6000620008f28162001352565b6001600160a01b0316336001600160a01b031614620009285760405163f0a882b560e01b8152600481018290526024016200081f565b6200093c82670de0b6b3a764000062001976565b1562000974576040517f3c5df10400000000000000000000000000000000000000000000000000000000815260040160405180910390fd5b60068290556040518281527fd10d75876659a287a59a6ccfa2e3fff42f84d94b542837acd30bc184d562de409060200162000859565b6000620009b78162001352565b6001600160a01b0316336001600160a01b031614620009ed5760405163f0a882b560e01b8152600481018290526024016200081f565b62000a0182670de0b6b3a764000062001976565b1562000a39576040517f0c6b0ec800000000000000000000000000000000000000000000000000000000815260040160405180910390fd5b60078290556040518281527fdf7e6bc55eeb2668bd338e44a5abb721b1f98ad51f7a00baaa1b62f9383862d79060200162000859565b6000806003838154811062000a885762000a8862001ad9565b60009182526020909120600260049092020101546001600160a01b03169050801562000ab5578062000ac0565b62000ac08362001352565b9392505050565b6000806003838154811062000ae05762000ae062001ad9565b60009182526020909120600360049092020101546001600160a01b03169050801562000ab5578062000ac0565b6000600360008154811062000b265762000b2662001ad9565b906000526020600020906004020160030160149054906101000a900460ff16905090565b6040805160a0810182526000808252602082018190529181018290526060810182905260808101919091526003828154811062000b8b5762000b8b62001ad9565b60009182526020918290206040805160a08101825260049390930290910180546001600160a01b03908116845260018201548116948401949094526002810154841691830191909152600301549182166060820152600160a01b90910460ff161515608082015292915050565b600062000c06600062000a6f565b905090565b60008262000c198162001352565b6001600160a01b0316336001600160a01b03161462000c4f5760405163f0a882b560e01b8152600481018290526024016200081f565b8360000362000c8a576040517f7244bc7800000000000000000000000000000000000000000000000000000000815260040160405180910390fd5b6000805260056020527f05b8ccbb9d4d8fb16ea74ce3c29a41f1b461fbdaff4714a0d9a8eb05499746bc5460ff1615801562000cd5575060008481526005602052604090205460ff16155b1562000d0d576040517fbe61bb8700000000000000000000000000000000000000000000000000000000815260040160405180910390fd5b6002546040516000916001600160a01b03169062000d2b90620019c7565b6001600160a01b039091168152604060208201819052600090820152606001604051809103906000f08015801562000d67573d6000803e3d6000fd5b506040517fc4d66de80000000000000000000000000000000000000000000000000000000081526001600160a01b038681166004830152919250829182169063c4d66de890602401600060405180830381600087803b15801562000dca57600080fd5b505af115801562000ddf573d6000803e3d6000fd5b505050506001600160a01b038181166000818152600460209081526040918290208a90559051928816835290917fa66df2ac9413442073c2e47b33e555f5891823df7841196bd1f197175a12f8ae910160405180910390a295945050505050565b600062000e4d8162001352565b6001600160a01b0316336001600160a01b03161462000e835760405163f0a882b560e01b8152600481018290526024016200081f565b600180546001600160a01b0319166001600160a01b0384169081179091556040519081527f18c973e70eca8db74eab2a3e0de3c4bffcc46c45f6f17f600e2d4d4f744e2a2b9060200162000859565b6001600160a01b038116600090815260046020526040812054620007b79062001352565b600380546040805160a0810182526000808252336020808401828152848601848152606086018581526080870186815260018a018b559986529551600489027fc2575a0e9e593c00f959f8c92f12db2869c3395a3b0502d05e2516446f71f85b810180546001600160a01b039384166001600160a01b03199182161790915593517fc2575a0e9e593c00f959f8c92f12db2869c3395a3b0502d05e2516446f71f85c8201805491841691861691909117905591517fc2575a0e9e593c00f959f8c92f12db2869c3395a3b0502d05e2516446f71f85d83018054918316919094161790925594517fc2575a0e9e593c00f959f8c92f12db2869c3395a3b0502d05e2516446f71f85e909501805498511515600160a01b027fffffffffffffffffffffff0000000000000000000000000000000000000000009099169590911694909417969096179092559151908152909282917f645c9ae30d6a6aa6b2dace770fa0cfac2d8d44b9b036510e0a16aab39e6b5931910160405180910390a2919050565b6000620010858162001352565b6001600160a01b0316336001600160a01b031614620010bb5760405163f0a882b560e01b8152600481018290526024016200081f565b620010cf82670de0b6b3a764000062001976565b1562001107576040517fb4c4f79900000000000000000000000000000000000000000000000000000000815260040160405180910390fd5b60088290556040518281527f1a35ca75fc5ab34ae3487b3507e7453b6e4c15a69f2392939fbbcf8f64558ad19060200162000859565b60006200114a8162001352565b6001600160a01b0316336001600160a01b031614620011805760405163f0a882b560e01b8152600481018290526024016200081f565b600080546001600160a01b0319166001600160a01b0384169081179091556040519081527fa0fe5cb0e8843811ca9f6123983dcdfd45a33b61892b9b8f380ed444078e299a9060200162000859565b6000620011dc8162001352565b6001600160a01b0316336001600160a01b031614620012125760405163f0a882b560e01b8152600481018290526024016200081f565b600280546001600160a01b0319166001600160a01b0384169081179091556040519081527f36466d973cc33c9b726f867d2fc1f8cd56d58de206993f62ccba543a3429ea629060200162000859565b600062000c06600062001352565b60006003828154811062001287576200128762001ad9565b6000918252602090912060049091020180549091506001600160a01b0316338114620012e3576040517f07f41a5f000000000000000000000000000000000000000000000000000000008152600481018490526024016200081f565b81546001600160a01b031990811683556001830180546001600160a01b03841692168217905560405190815283907f87c983c6a4d6d9a68e6d99934d1fb50f760858298c06f8ed6b316f534e06faf4906020015b60405180910390a2505050565b600062000c06600062000ac7565b6000600382815481106200136a576200136a62001ad9565b60009182526020909120600160049092020101546001600160a01b031692915050565b60006200139a8162001352565b6001600160a01b0316336001600160a01b031614620013d05760405163f0a882b560e01b8152600481018290526024016200081f565b600b8290556040518281527f7e6452dce5202ad16be30ea14955296f7157b95e4ca48b73fc54d54601185adf9060200162000859565b81620014128162001352565b6001600160a01b0316336001600160a01b031614620014485760405163f0a882b560e01b8152600481018290526024016200081f565b81600384815481106200145f576200145f62001ad9565b60009182526020918290206004919091020160030180546001600160a01b0319166001600160a01b03938416179055604051918416825284917f7be390d6034bf06d145f44a071a895ad3320f09c185598f74add0da31cada185910162001337565b81620014cd8162001352565b6001600160a01b0316336001600160a01b031614620015035760405163f0a882b560e01b8152600481018290526024016200081f565b81600384815481106200151a576200151a62001ad9565b60009182526020918290206004919091020180546001600160a01b0319166001600160a01b03938416179055604051918416825284917f0bffd4439c17923ee1b2b093be5394c42dcab0d9394e349a8d6a059c239ba603910162001337565b600180620015a57f5db5abc19987c2b3729df7961b62b6bb0bae886dd47e3ce25bb3a3af34c6d80b5490565b10620015e1576040517f1e7a9d95000000000000000000000000000000000000000000000000000000008152600481018290526024016200081f565b6200160b7f5db5abc19987c2b3729df7961b62b6bb0bae886dd47e3ce25bb3a3af34c6d80b829055565b60017fad57d7911b7e3d6c3c79a68ba909a7f4ba41f9485e5207b12dee0d0c6af5398c556200163962000ef6565b5062001645846200113d565b620016508362000e40565b6200165b82620011cf565b60007fad57d7911b7e3d6c3c79a68ba909a7f4ba41f9485e5207b12dee0d0c6af5398c5550505050565b81620016918162000ac7565b6001600160a01b0316336001600160a01b031614620016e0576040517feb94b522000000000000000000000000000000000000000000000000000000008152600481018290526024016200081f565b8160038481548110620016f757620016f762001ad9565b906000526020600020906004020160030160146101000a81548160ff021916908315150217905550827f8687fadd114273583c49dbd5c380ea8aada2a3f92db9fc9fba379906735633268360405162001337911515815260200190565b6000620017618162001352565b6001600160a01b0316336001600160a01b031614620017975760405163f0a882b560e01b8152600481018290526024016200081f565b620017ab82670de0b6b3a764000062001976565b15620017e3576040517f7c3ceda900000000000000000000000000000000000000000000000000000000815260040160405180910390fd5b60098290556040518281527f852c049e335a49416ecbcb0128935cc3832c307d450d206f0a2d0bf2b28ba2db9060200162000859565b600062000c06600062000865565b6000620018348162001352565b6001600160a01b0316336001600160a01b0316146200186a5760405163f0a882b560e01b8152600481018290526024016200081f565b600083815260056020908152604091829020805460ff1916851515908117909155915191825284917faf22ec546747fecccb88b4e0bfdb870a12b89d281ab0167f74ed197b456903c2910162001337565b81620018c78162001352565b6001600160a01b0316336001600160a01b031614620018fd5760405163f0a882b560e01b8152600481018290526024016200081f565b816003848154811062001914576200191462001ad9565b60009182526020918290206004919091020160020180546001600160a01b0319166001600160a01b03938416179055604051918416825284917fffd31ccade46a73a57d8efd7d740bbf6aa67e50a158c98ad82a06ad31556cef4910162001337565b60006200198483836200198e565b6002149392505050565b6000828280821115620019a757600292505050620007b7565b80821015620019bc57600092505050620007b7565b506001949350505050565b6109a18062001b0983390190565b600060208284031215620019e857600080fd5b5035919050565b6001600160a01b038116811462001a0557600080fd5b50565b60006020828403121562001a1b57600080fd5b813562000ac081620019ef565b6000806040838503121562001a3c57600080fd5b82359150602083013562001a5081620019ef565b809150509250929050565b60008060006060848603121562001a7157600080fd5b833562001a7e81620019ef565b9250602084013562001a9081620019ef565b9150604084013562001aa281620019ef565b809150509250925092565b6000806040838503121562001ac157600080fd5b823591506020830135801515811462001a5057600080fd5b7f4e487b7100000000000000000000000000000000000000000000000000000000600052603260045260246000fdfe60806040526040516109a13803806109a18339810160408190526100229161048b565b61004d60017fa3f0ad74e5423aebfd80d3ef4346578335a9a72aeaee59ff6cb3582b35133d5161054b565b60008051602061095a8339815191521461006957610069610570565b6100758282600061007c565b50506105f0565b61008583610147565b6040516001600160a01b038416907f1cf3b03a6cf19fa2baba4df148e9dcabedea7f8a5c07840e207e5c089be95d3e90600090a26000825111806100c65750805b1561014257610140836001600160a01b0316635c60da1b6040518163ffffffff1660e01b8152600401602060405180830381865afa15801561010c573d6000803e3d6000fd5b505050506040513d601f19601f820116820180604052508101906101309190610586565b836102d860201b6100291760201c565b505b505050565b61015a8161030460201b6100551760201c565b6101b95760405162461bcd60e51b815260206004820152602560248201527f455243313936373a206e657720626561636f6e206973206e6f74206120636f6e6044820152641d1c9858dd60da1b60648201526084015b60405180910390fd5b61022d816001600160a01b0316635c60da1b6040518163ffffffff1660e01b8152600401602060405180830381865afa1580156101fa573d6000803e3d6000fd5b505050506040513d601f19601f8201168201806040525081019061021e9190610586565b61030460201b6100551760201c565b6102925760405162461bcd60e51b815260206004820152603060248201527f455243313936373a20626561636f6e20696d706c656d656e746174696f6e206960448201526f1cc81b9bdd08184818dbdb9d1c9858dd60821b60648201526084016101b0565b806102b760008051602061095a83398151915260001b61031360201b6100641760201c565b80546001600160a01b0319166001600160a01b039290921691909117905550565b60606102fd838360405180606001604052806027815260200161097a60279139610316565b9392505050565b6001600160a01b03163b151590565b90565b60606001600160a01b0384163b61037e5760405162461bcd60e51b815260206004820152602660248201527f416464726573733a2064656c65676174652063616c6c20746f206e6f6e2d636f6044820152651b9d1c9858dd60d21b60648201526084016101b0565b600080856001600160a01b03168560405161039991906105a1565b600060405180830381855af49150503d80600081146103d4576040519150601f19603f3d011682016040523d82523d6000602084013e6103d9565b606091505b5090925090506103ea8282866103f4565b9695505050505050565b606083156104035750816102fd565b8251156104135782518084602001fd5b8160405162461bcd60e51b81526004016101b091906105bd565b80516001600160a01b038116811461044457600080fd5b919050565b634e487b7160e01b600052604160045260246000fd5b60005b8381101561047a578181015183820152602001610462565b838111156101405750506000910152565b6000806040838503121561049e57600080fd5b6104a78361042d565b60208401519092506001600160401b03808211156104c457600080fd5b818501915085601f8301126104d857600080fd5b8151818111156104ea576104ea610449565b604051601f8201601f19908116603f0116810190838211818310171561051257610512610449565b8160405282815288602084870101111561052b57600080fd5b61053c83602083016020880161045f565b80955050505050509250929050565b60008282101561056b57634e487b7160e01b600052601160045260246000fd5b500390565b634e487b7160e01b600052600160045260246000fd5b60006020828403121561059857600080fd5b6102fd8261042d565b600082516105b381846020870161045f565b9190910192915050565b60208152600082518060208401526105dc81604085016020870161045f565b601f01601f19169190910160400192915050565b61035b806105ff6000396000f3fe60806040523661001357610011610017565b005b6100115b610027610022610067565b610100565b565b606061004e83836040518060600160405280602781526020016102ff60279139610124565b9392505050565b6001600160a01b03163b151590565b90565b600061009a7fa3f0ad74e5423aebfd80d3ef4346578335a9a72aeaee59ff6cb3582b35133d50546001600160a01b031690565b6001600160a01b0316635c60da1b6040518163ffffffff1660e01b8152600401602060405180830381865afa1580156100d7573d6000803e3d6000fd5b505050506040513d601f19601f820116820180604052508101906100fb9190610256565b905090565b3660008037600080366000845af43d6000803e80801561011f573d6000f35b3d6000fd5b60606001600160a01b0384163b6101a85760405162461bcd60e51b815260206004820152602660248201527f416464726573733a2064656c65676174652063616c6c20746f206e6f6e2d636f60448201527f6e7472616374000000000000000000000000000000000000000000000000000060648201526084015b60405180910390fd5b600080856001600160a01b0316856040516101c391906102af565b600060405180830381855af49150503d80600081146101fe576040519150601f19603f3d011682016040523d82523d6000602084013e610203565b606091505b509150915061021382828661021d565b9695505050505050565b6060831561022c57508161004e565b82511561023c5782518084602001fd5b8160405162461bcd60e51b815260040161019f91906102cb565b60006020828403121561026857600080fd5b81516001600160a01b038116811461004e57600080fd5b60005b8381101561029a578181015183820152602001610282565b838111156102a9576000848401525b50505050565b600082516102c181846020870161027f565b9190910192915050565b60208152600082518060208401526102ea81604085016020870161027f565b601f01601f1916919091016040019291505056fe416464726573733a206c6f772d6c6576656c2064656c65676174652063616c6c206661696c6564a2646970667358221220c2cd8522e2d940840276495aefa7e527fd843d9e8d6ae46b5af07f6c1321a21664736f6c634300080d0033a3f0ad74e5423aebfd80d3ef4346578335a9a72aeaee59ff6cb3582b35133d50416464726573733a206c6f772d6c6576656c2064656c65676174652063616c6c206661696c6564a2646970667358221220a04865a334deed2c99c1cee236d179e04e7b74ce84f50edc0e99b9d2941d4f6a64736f6c634300080d0033",
  "devdoc": {
    "kind": "dev",
    "methods": {
      "acceptCoordinatorOwner(uint256)": {
        "details": "Must be called by the coordinator's pending owner",
        "params": {
          "coordinatorId": "Coordinator to update"
        }
      },
      "coordinators(uint256)": {
        "params": {
          "coordinatorId": "Coordinator to return for"
        },
        "returns": {
          "_0": "Coordinator state"
        }
      },
      "createCoordinator()": {
        "details": "`treasury` and `pauser` initialize as the 0-address, defaulting to the `owner`",
        "returns": {
          "_0": "New coordinator ID"
        }
      },
      "createProduct(uint256,address)": {
        "details": "Coordinator caller must be allowed",
        "params": {
          "coordinatorId": "Coordinator that will own the product",
          "provider": "Provider that will service the market"
        },
        "returns": {
          "_0": "New product contract address"
        }
      },
      "initialize(address,address,address)": {
        "details": "Must be called atomically as part of the upgradeable proxy deployment to      avoid front-running",
        "params": {
          "collateral_": "Collateral contract address",
          "incentivizer_": "Incentivizer contract address",
          "productBeacon_": "Product implementation beacon address"
        }
      },
      "isProduct(address)": {
        "params": {
          "product": "Contract address to check"
        },
        "returns": {
          "_0": "Whether a contract is a product"
        }
      },
      "owner()": {
        "returns": {
          "_0": "Owner of the protocol"
        }
      },
      "owner(address)": {
        "params": {
          "product": "Product to return for"
        },
        "returns": {
          "_0": "Owner of the product"
        }
      },
      "owner(uint256)": {
        "params": {
          "coordinatorId": "Coordinator to return for"
        },
        "returns": {
          "_0": "Owner of the coordinator"
        }
      },
      "paused()": {
        "returns": {
          "_0": "Paused status of the protocol"
        }
      },
      "paused(address)": {
        "params": {
          "product": "Product to return for"
        },
        "returns": {
          "_0": "Paused status of the product"
        }
      },
      "paused(uint256)": {
        "params": {
          "coordinatorId": "Coordinator to return for"
        },
        "returns": {
          "_0": "Paused status of the coordinator"
        }
      },
      "pauser()": {
        "details": "Defaults to the `owner` when `pauser` is unset",
        "returns": {
          "_0": "Pauser of the protocol"
        }
      },
      "pauser(address)": {
        "details": "Defaults to the `owner` when `pauser` is unset",
        "params": {
          "product": "Product to return for"
        },
        "returns": {
          "_0": "Pauser of the product"
        }
      },
      "pauser(uint256)": {
        "details": "Defaults to the `owner` when `pauser` is unset",
        "params": {
          "coordinatorId": "Coordinator to return for"
        },
        "returns": {
          "_0": "Pauser of the coordinator"
        }
      },
      "pendingOwner()": {
        "returns": {
          "_0": "Owner of the protocol"
        }
      },
      "pendingOwner(uint256)": {
        "params": {
          "coordinatorId": "Coordinator to return for"
        },
        "returns": {
          "_0": "Pending owner of the coordinator"
        }
      },
      "treasury()": {
        "details": "Defaults to the `owner` when `treasury` is unset",
        "returns": {
          "_0": "Treasury of the protocol"
        }
      },
      "treasury(address)": {
        "details": "Defaults to the `owner` when `treasury` is unset",
        "params": {
          "product": "Product to return for"
        },
        "returns": {
          "_0": "Treasury of the product"
        }
      },
      "treasury(uint256)": {
        "details": "Defaults to the `owner` when `treasury` is unset",
        "params": {
          "coordinatorId": "Coordinator to return for"
        },
        "returns": {
          "_0": "Treasury of the coordinator"
        }
      },
      "updateAllowed(uint256,bool)": {
        "params": {
          "coordinatorId": "Coordinator to update",
          "newAllowed": "New allowed status for `coordinatorId`"
        }
      },
      "updateCollateral(address)": {
        "params": {
          "newCollateral": "New Collateral contract address"
        }
      },
      "updateCoordinatorPaused(uint256,bool)": {
        "details": "Must be called by the coordinator's current owner",
        "params": {
          "coordinatorId": "Coordinator to update",
          "newPaused": "New paused status"
        }
      },
      "updateCoordinatorPauser(uint256,address)": {
        "details": "Must be called by the coordinator's current owner",
        "params": {
          "coordinatorId": "Coordinator to update",
          "newPauser": "New pauser address"
        }
      },
      "updateCoordinatorPendingOwner(uint256,address)": {
        "details": "Must be called by the coordinator's current owner",
        "params": {
          "coordinatorId": "Coordinator to update",
          "newPendingOwner": "New pending owner address"
        }
      },
      "updateCoordinatorTreasury(uint256,address)": {
        "details": "Must be called by the coordinator's current owner",
        "params": {
          "coordinatorId": "Coordinator to update",
          "newTreasury": "New treasury address"
        }
      },
      "updateIncentivizationFee(uint256)": {
        "params": {
          "newIncentivizationFee": "New incentivization fee"
        }
      },
      "updateIncentivizer(address)": {
        "params": {
          "newIncentivizer": "New Incentivizer contract address"
        }
      },
      "updateLiquidationFee(uint256)": {
        "params": {
          "newLiquidationFee": "New liquidation fee"
        }
      },
      "updateMinCollateral(uint256)": {
        "params": {
          "newMinCollateral": "New minimum allowed collateral amount"
        }
      },
      "updateMinFundingFee(uint256)": {
        "params": {
          "newMinFundingFee": "New minimum allowed funding fee"
        }
      },
      "updateProductBeacon(address)": {
        "params": {
          "newProductBeacon": "New Product implementation beacon address"
        }
      },
      "updateProgramsPerProduct(uint256)": {
        "params": {
          "newProgramsPerProduct": "New maximum incentivization programs per product allowed"
        }
      },
      "updateProtocolFee(uint256)": {
        "params": {
          "newProtocolFee": "New protocol-product fee split"
        }
      }
    },
    "stateVariables": {
      "_coordinators": {
        "details": "List of product coordinators"
      },
      "allowed": {
        "details": "Whether a specific coordinator is allowed to create a new product"
      },
      "collateral": {
        "details": "Collateral contract address for the protocol"
      },
      "coordinatorFor": {
        "details": "Mapping of the coordinator for each  product"
      },
      "incentivizationFee": {
        "details": "Fee on incentivization programs"
      },
      "incentivizer": {
        "details": "Incentivizer contract address for the protocol"
      },
      "liquidationFee": {
        "details": "Fee on maintenance for liquidation"
      },
      "minCollateral": {
        "details": "Minimum allowable collateral amount per user account"
      },
      "minFundingFee": {
        "details": "Minimum allowable funding fee for a product"
      },
      "productBeacon": {
        "details": "Product implementation beacon address for the protocol"
      },
      "programsPerProduct": {
        "details": "Maximum incentivization programs per product allowed"
      },
      "protocolFee": {
        "details": "Percent of collected fees that go to the protocol treasury vs the product treasury"
      }
    },
    "title": "Controller",
    "version": 1
  },
  "userdoc": {
    "kind": "user",
    "methods": {
      "acceptCoordinatorOwner(uint256)": {
        "notice": "Accepts ownership over an existing coordinator"
      },
      "coordinators(uint256)": {
        "notice": "Returns coordinator state for coordinator `coordinatorId`"
      },
      "createCoordinator()": {
        "notice": "Creates a new coordinator with `msg.sender` as the owner"
      },
      "createProduct(uint256,address)": {
        "notice": "Creates a new product market with `provider`"
      },
      "initialize(address,address,address)": {
        "notice": "Initializes the contract state"
      },
      "isProduct(address)": {
        "notice": "Returns whether a contract is a product"
      },
      "owner()": {
        "notice": "Returns the owner of the protocol"
      },
      "owner(address)": {
        "notice": "Returns the owner of the product `product`"
      },
      "owner(uint256)": {
        "notice": "Returns the owner of the coordinator `coordinatorId`"
      },
      "paused()": {
        "notice": "Returns the paused status of the protocol"
      },
      "paused(address)": {
        "notice": "Returns the paused status of the product `product`"
      },
      "paused(uint256)": {
        "notice": "Returns the paused status of the coordinator `coordinatorId`"
      },
      "pauser()": {
        "notice": "Returns the pauser of the protocol"
      },
      "pauser(address)": {
        "notice": "Returns the pauser of the product `product`"
      },
      "pauser(uint256)": {
        "notice": "Returns the pauser of the coordinator `coordinatorId`"
      },
      "pendingOwner()": {
        "notice": "Returns the pending owner of the protocol"
      },
      "pendingOwner(uint256)": {
        "notice": "Returns the pending owner of the coordinator `coordinatorId`"
      },
      "treasury()": {
        "notice": "Returns the treasury of the protocol"
      },
      "treasury(address)": {
        "notice": "Returns the treasury of the product `product`"
      },
      "treasury(uint256)": {
        "notice": "Returns the treasury of the coordinator `coordinatorId`"
      },
      "updateAllowed(uint256,bool)": {
        "notice": "Updates whether `coordinatorId` is allowed to create new products"
      },
      "updateCollateral(address)": {
        "notice": "Updates the Collateral contract address"
      },
      "updateCoordinatorPaused(uint256,bool)": {
        "notice": "Updates the paused status of an existing coordinator"
      },
      "updateCoordinatorPauser(uint256,address)": {
        "notice": "Updates the pauser of an existing coordinator"
      },
      "updateCoordinatorPendingOwner(uint256,address)": {
        "notice": "Updates the pending owner of an existing coordinator"
      },
      "updateCoordinatorTreasury(uint256,address)": {
        "notice": "Updates the treasury of an existing coordinator"
      },
      "updateIncentivizationFee(uint256)": {
        "notice": "Updates the incentivization fee"
      },
      "updateIncentivizer(address)": {
        "notice": "Updates the Incentivizer contract address"
      },
      "updateLiquidationFee(uint256)": {
        "notice": "Updates the liquidation fee"
      },
      "updateMinCollateral(uint256)": {
        "notice": "Updates the minimum allowed collateral amount per user account"
      },
      "updateMinFundingFee(uint256)": {
        "notice": "Updates the minimum allowed funding fee"
      },
      "updateProductBeacon(address)": {
        "notice": "Updates the Product implementation beacon address"
      },
      "updateProgramsPerProduct(uint256)": {
        "notice": "Updates the maximum incentivization programs per product allowed"
      },
      "updateProtocolFee(uint256)": {
        "notice": "Updates the protocol-product fee split"
      }
    },
    "notice": "Manages creating new products and global protocol parameters.",
    "version": 1
  },
  "storageLayout": {
    "storage": [
      {
        "astId": 9918,
        "contract": "contracts/controller/Controller.sol:Controller",
        "label": "collateral",
        "offset": 0,
        "slot": "0",
        "type": "t_contract(ICollateral)12734"
      },
      {
        "astId": 9922,
        "contract": "contracts/controller/Controller.sol:Controller",
        "label": "incentivizer",
        "offset": 0,
        "slot": "1",
        "type": "t_contract(IIncentivizer)13401"
      },
      {
        "astId": 9926,
        "contract": "contracts/controller/Controller.sol:Controller",
        "label": "productBeacon",
        "offset": 0,
        "slot": "2",
        "type": "t_contract(IBeacon)5862"
      },
      {
        "astId": 9931,
        "contract": "contracts/controller/Controller.sol:Controller",
        "label": "_coordinators",
        "offset": 0,
        "slot": "3",
        "type": "t_array(t_struct(Coordinator)12758_storage)dyn_storage"
      },
      {
        "astId": 9937,
        "contract": "contracts/controller/Controller.sol:Controller",
        "label": "coordinatorFor",
        "offset": 0,
        "slot": "4",
        "type": "t_mapping(t_contract(IProduct)13640,t_uint256)"
      },
      {
        "astId": 9942,
        "contract": "contracts/controller/Controller.sol:Controller",
        "label": "allowed",
        "offset": 0,
        "slot": "5",
        "type": "t_mapping(t_uint256,t_bool)"
      },
      {
        "astId": 9946,
        "contract": "contracts/controller/Controller.sol:Controller",
        "label": "protocolFee",
        "offset": 0,
        "slot": "6",
        "type": "t_userDefinedValueType(UFixed18)1887"
      },
      {
        "astId": 9950,
        "contract": "contracts/controller/Controller.sol:Controller",
        "label": "minFundingFee",
        "offset": 0,
        "slot": "7",
        "type": "t_userDefinedValueType(UFixed18)1887"
      },
      {
        "astId": 9954,
        "contract": "contracts/controller/Controller.sol:Controller",
        "label": "liquidationFee",
        "offset": 0,
        "slot": "8",
        "type": "t_userDefinedValueType(UFixed18)1887"
      },
      {
        "astId": 9958,
        "contract": "contracts/controller/Controller.sol:Controller",
        "label": "incentivizationFee",
        "offset": 0,
        "slot": "9",
        "type": "t_userDefinedValueType(UFixed18)1887"
      },
      {
        "astId": 9962,
        "contract": "contracts/controller/Controller.sol:Controller",
        "label": "minCollateral",
        "offset": 0,
        "slot": "10",
        "type": "t_userDefinedValueType(UFixed18)1887"
      },
      {
        "astId": 9965,
        "contract": "contracts/controller/Controller.sol:Controller",
        "label": "programsPerProduct",
        "offset": 0,
        "slot": "11",
        "type": "t_uint256"
      }
    ],
    "types": {
      "t_address": {
        "encoding": "inplace",
        "label": "address",
        "numberOfBytes": "20"
      },
      "t_array(t_struct(Coordinator)12758_storage)dyn_storage": {
        "base": "t_struct(Coordinator)12758_storage",
        "encoding": "dynamic_array",
        "label": "struct IController.Coordinator[]",
        "numberOfBytes": "32"
      },
      "t_bool": {
        "encoding": "inplace",
        "label": "bool",
        "numberOfBytes": "1"
      },
      "t_contract(IBeacon)5862": {
        "encoding": "inplace",
        "label": "contract IBeacon",
        "numberOfBytes": "20"
      },
      "t_contract(ICollateral)12734": {
        "encoding": "inplace",
        "label": "contract ICollateral",
        "numberOfBytes": "20"
      },
      "t_contract(IIncentivizer)13401": {
        "encoding": "inplace",
        "label": "contract IIncentivizer",
        "numberOfBytes": "20"
      },
      "t_contract(IProduct)13640": {
        "encoding": "inplace",
        "label": "contract IProduct",
        "numberOfBytes": "20"
      },
      "t_mapping(t_contract(IProduct)13640,t_uint256)": {
        "encoding": "mapping",
        "key": "t_contract(IProduct)13640",
        "label": "mapping(contract IProduct => uint256)",
        "numberOfBytes": "32",
        "value": "t_uint256"
      },
      "t_mapping(t_uint256,t_bool)": {
        "encoding": "mapping",
        "key": "t_uint256",
        "label": "mapping(uint256 => bool)",
        "numberOfBytes": "32",
        "value": "t_bool"
      },
      "t_struct(Coordinator)12758_storage": {
        "encoding": "inplace",
        "label": "struct IController.Coordinator",
        "members": [
          {
            "astId": 12745,
            "contract": "contracts/controller/Controller.sol:Controller",
            "label": "pendingOwner",
            "offset": 0,
            "slot": "0",
            "type": "t_address"
          },
          {
            "astId": 12748,
            "contract": "contracts/controller/Controller.sol:Controller",
            "label": "owner",
            "offset": 0,
            "slot": "1",
            "type": "t_address"
          },
          {
            "astId": 12751,
            "contract": "contracts/controller/Controller.sol:Controller",
            "label": "treasury",
            "offset": 0,
            "slot": "2",
            "type": "t_address"
          },
          {
            "astId": 12754,
            "contract": "contracts/controller/Controller.sol:Controller",
            "label": "pauser",
            "offset": 0,
            "slot": "3",
            "type": "t_address"
          },
          {
            "astId": 12757,
            "contract": "contracts/controller/Controller.sol:Controller",
            "label": "paused",
            "offset": 20,
            "slot": "3",
            "type": "t_bool"
          }
        ],
        "numberOfBytes": "128"
      },
      "t_uint256": {
        "encoding": "inplace",
        "label": "uint256",
        "numberOfBytes": "32"
      },
      "t_userDefinedValueType(UFixed18)1887": {
        "encoding": "inplace",
        "label": "UFixed18",
        "numberOfBytes": "32"
      }
    }
  }
}