{
  "address": "0x0818E46C726810c2f7a1C513D0637a862bc0df6F",
  "abi": [
    {
      "inputs": [],
      "name": "ControllerInvalidIncentivizationFeeError",
      "type": "error"
    },
    {
      "inputs": [],
      "name": "ControllerInvalidLiquidationFeeError",
      "type": "error"
    },
    {
      "inputs": [],
      "name": "ControllerInvalidMinFundingFeeError",
      "type": "error"
    },
    {
      "inputs": [],
      "name": "ControllerInvalidProtocolFeeError",
      "type": "error"
    },
    {
      "inputs": [],
      "name": "ControllerNoZeroCoordinatorError",
      "type": "error"
    },
    {
      "inputs": [],
      "name": "ControllerNotContractAddressError",
      "type": "error"
    },
    {
      "inputs": [
        {
          "internalType": "uint256",
          "name": "controllerId",
          "type": "uint256"
        }
      ],
      "name": "ControllerNotOwnerError",
      "type": "error"
    },
    {
      "inputs": [],
      "name": "ControllerNotPauserError",
      "type": "error"
    },
    {
      "inputs": [
        {
          "internalType": "uint256",
          "name": "controllerId",
          "type": "uint256"
        }
      ],
      "name": "ControllerNotPendingOwnerError",
      "type": "error"
    },
    {
      "inputs": [
        {
          "internalType": "uint256",
          "name": "version",
          "type": "uint256"
        }
      ],
      "name": "UInitializableAlreadyInitializedError",
      "type": "error"
    },
    {
      "inputs": [],
      "name": "UInitializableNotInitializingError",
      "type": "error"
    },
    {
      "inputs": [],
      "name": "UInitializableZeroVersionError",
      "type": "error"
    },
    {
      "anonymous": false,
      "inputs": [
        {
          "indexed": false,
          "internalType": "contract ICollateral",
          "name": "newCollateral",
          "type": "address"
        }
      ],
      "name": "CollateralUpdated",
      "type": "event"
    },
    {
      "anonymous": false,
      "inputs": [
        {
          "indexed": true,
          "internalType": "uint256",
          "name": "coordinatorId",
          "type": "uint256"
        },
        {
          "indexed": false,
          "internalType": "address",
          "name": "owner",
          "type": "address"
        }
      ],
      "name": "CoordinatorCreated",
      "type": "event"
    },
    {
      "anonymous": false,
      "inputs": [
        {
          "indexed": true,
          "internalType": "uint256",
          "name": "coordinatorId",
          "type": "uint256"
        },
        {
          "indexed": false,
          "internalType": "address",
          "name": "newOwner",
          "type": "address"
        }
      ],
      "name": "CoordinatorOwnerUpdated",
      "type": "event"
    },
    {
      "anonymous": false,
      "inputs": [
        {
          "indexed": true,
          "internalType": "uint256",
          "name": "coordinatorId",
          "type": "uint256"
        },
        {
          "indexed": false,
          "internalType": "address",
          "name": "newPendingOwner",
          "type": "address"
        }
      ],
      "name": "CoordinatorPendingOwnerUpdated",
      "type": "event"
    },
    {
      "anonymous": false,
      "inputs": [
        {
          "indexed": true,
          "internalType": "uint256",
          "name": "coordinatorId",
          "type": "uint256"
        },
        {
          "indexed": false,
          "internalType": "address",
          "name": "newTreasury",
          "type": "address"
        }
      ],
      "name": "CoordinatorTreasuryUpdated",
      "type": "event"
    },
    {
      "anonymous": false,
      "inputs": [
        {
          "indexed": false,
          "internalType": "UFixed18",
          "name": "newIncentivizationFee",
          "type": "uint256"
        }
      ],
      "name": "IncentivizationFeeUpdated",
      "type": "event"
    },
    {
      "anonymous": false,
      "inputs": [
        {
          "indexed": false,
          "internalType": "contract IIncentivizer",
          "name": "newIncentivizer",
          "type": "address"
        }
      ],
      "name": "IncentivizerUpdated",
      "type": "event"
    },
    {
      "anonymous": false,
      "inputs": [
        {
          "indexed": false,
          "internalType": "uint256",
          "name": "version",
          "type": "uint256"
        }
      ],
      "name": "Initialized",
      "type": "event"
    },
    {
      "anonymous": false,
      "inputs": [
        {
          "indexed": false,
          "internalType": "UFixed18",
          "name": "newLiquidationFee",
          "type": "uint256"
        }
      ],
      "name": "LiquidationFeeUpdated",
      "type": "event"
    },
    {
      "anonymous": false,
      "inputs": [
        {
          "indexed": false,
          "internalType": "UFixed18",
          "name": "newMinCollateral",
          "type": "uint256"
        }
      ],
      "name": "MinCollateralUpdated",
      "type": "event"
    },
    {
      "anonymous": false,
      "inputs": [
        {
          "indexed": false,
          "internalType": "UFixed18",
          "name": "newMinFundingFee",
          "type": "uint256"
        }
      ],
      "name": "MinFundingFeeUpdated",
      "type": "event"
    },
    {
      "anonymous": false,
      "inputs": [
        {
          "indexed": false,
          "internalType": "bool",
          "name": "newPaused",
          "type": "bool"
        }
      ],
      "name": "PausedUpdated",
      "type": "event"
    },
    {
      "anonymous": false,
      "inputs": [
        {
          "indexed": false,
          "internalType": "address",
          "name": "newPauser",
          "type": "address"
        }
      ],
      "name": "PauserUpdated",
      "type": "event"
    },
    {
      "anonymous": false,
      "inputs": [
        {
          "indexed": false,
          "internalType": "contract IBeacon",
          "name": "newProductBeacon",
          "type": "address"
        }
      ],
      "name": "ProductBeaconUpdated",
      "type": "event"
    },
    {
      "anonymous": false,
      "inputs": [
        {
          "indexed": true,
          "internalType": "contract IProduct",
          "name": "product",
          "type": "address"
        },
        {
          "components": [
            {
              "internalType": "string",
              "name": "name",
              "type": "string"
            },
            {
              "internalType": "string",
              "name": "symbol",
              "type": "string"
            },
            {
              "components": [
                {
                  "internalType": "enum PayoffDefinitionLib.PayoffType",
                  "name": "payoffType",
                  "type": "uint8"
                },
                {
                  "internalType": "enum PayoffDefinitionLib.PayoffDirection",
                  "name": "payoffDirection",
                  "type": "uint8"
                },
                {
                  "internalType": "bytes30",
                  "name": "data",
                  "type": "bytes30"
                }
              ],
              "internalType": "struct PayoffDefinition",
              "name": "payoffDefinition",
              "type": "tuple"
            },
            {
              "internalType": "contract IOracleProvider",
              "name": "oracle",
              "type": "address"
            },
            {
              "internalType": "UFixed18",
              "name": "maintenance",
              "type": "uint256"
            },
            {
              "internalType": "UFixed18",
              "name": "fundingFee",
              "type": "uint256"
            },
            {
              "internalType": "UFixed18",
              "name": "makerFee",
              "type": "uint256"
            },
            {
              "internalType": "UFixed18",
              "name": "takerFee",
              "type": "uint256"
            },
            {
              "internalType": "UFixed18",
              "name": "makerLimit",
              "type": "uint256"
            },
            {
              "components": [
                {
                  "internalType": "PackedFixed18",
                  "name": "minRate",
                  "type": "int128"
                },
                {
                  "internalType": "PackedFixed18",
                  "name": "maxRate",
                  "type": "int128"
                },
                {
                  "internalType": "PackedFixed18",
                  "name": "targetRate",
                  "type": "int128"
                },
                {
                  "internalType": "PackedUFixed18",
                  "name": "targetUtilization",
                  "type": "uint128"
                }
              ],
              "internalType": "struct JumpRateUtilizationCurve",
              "name": "utilizationCurve",
              "type": "tuple"
            }
          ],
          "indexed": false,
          "internalType": "struct IProduct.ProductInfo",
          "name": "productInfo",
          "type": "tuple"
        }
      ],
      "name": "ProductCreated",
      "type": "event"
    },
    {
      "anonymous": false,
      "inputs": [
        {
          "indexed": false,
          "internalType": "uint256",
          "name": "newProgramsPerProduct",
          "type": "uint256"
        }
      ],
      "name": "ProgramsPerProductUpdated",
      "type": "event"
    },
    {
      "anonymous": false,
      "inputs": [
        {
          "indexed": false,
          "internalType": "UFixed18",
          "name": "newProtocolFee",
          "type": "uint256"
        }
      ],
      "name": "ProtocolFeeUpdated",
      "type": "event"
    },
    {
      "inputs": [
        {
          "internalType": "uint256",
          "name": "coordinatorId",
          "type": "uint256"
        }
      ],
      "name": "acceptCoordinatorOwner",
      "outputs": [],
      "stateMutability": "nonpayable",
      "type": "function"
    },
    {
      "inputs": [],
      "name": "collateral",
      "outputs": [
        {
          "internalType": "contract ICollateral",
          "name": "",
          "type": "address"
        }
      ],
      "stateMutability": "view",
      "type": "function"
    },
    {
      "inputs": [
        {
          "internalType": "contract IProduct",
          "name": "",
          "type": "address"
        }
      ],
      "name": "coordinatorFor",
      "outputs": [
        {
          "internalType": "uint256",
          "name": "",
          "type": "uint256"
        }
      ],
      "stateMutability": "view",
      "type": "function"
    },
    {
      "inputs": [
        {
          "internalType": "uint256",
          "name": "coordinatorId",
          "type": "uint256"
        }
      ],
      "name": "coordinators",
      "outputs": [
        {
          "components": [
            {
              "internalType": "address",
              "name": "pendingOwner",
              "type": "address"
            },
            {
              "internalType": "address",
              "name": "owner",
              "type": "address"
            },
            {
              "internalType": "address",
              "name": "treasury",
              "type": "address"
            }
          ],
          "internalType": "struct IController.Coordinator",
          "name": "",
          "type": "tuple"
        }
      ],
      "stateMutability": "view",
      "type": "function"
    },
    {
      "inputs": [],
      "name": "createCoordinator",
      "outputs": [
        {
          "internalType": "uint256",
          "name": "",
          "type": "uint256"
        }
      ],
      "stateMutability": "nonpayable",
      "type": "function"
    },
    {
      "inputs": [
        {
          "internalType": "uint256",
          "name": "coordinatorId",
          "type": "uint256"
        },
        {
          "components": [
            {
              "internalType": "string",
              "name": "name",
              "type": "string"
            },
            {
              "internalType": "string",
              "name": "symbol",
              "type": "string"
            },
            {
              "components": [
                {
                  "internalType": "enum PayoffDefinitionLib.PayoffType",
                  "name": "payoffType",
                  "type": "uint8"
                },
                {
                  "internalType": "enum PayoffDefinitionLib.PayoffDirection",
                  "name": "payoffDirection",
                  "type": "uint8"
                },
                {
                  "internalType": "bytes30",
                  "name": "data",
                  "type": "bytes30"
                }
              ],
              "internalType": "struct PayoffDefinition",
              "name": "payoffDefinition",
              "type": "tuple"
            },
            {
              "internalType": "contract IOracleProvider",
              "name": "oracle",
              "type": "address"
            },
            {
              "internalType": "UFixed18",
              "name": "maintenance",
              "type": "uint256"
            },
            {
              "internalType": "UFixed18",
              "name": "fundingFee",
              "type": "uint256"
            },
            {
              "internalType": "UFixed18",
              "name": "makerFee",
              "type": "uint256"
            },
            {
              "internalType": "UFixed18",
              "name": "takerFee",
              "type": "uint256"
            },
            {
              "internalType": "UFixed18",
              "name": "makerLimit",
              "type": "uint256"
            },
            {
              "components": [
                {
                  "internalType": "PackedFixed18",
                  "name": "minRate",
                  "type": "int128"
                },
                {
                  "internalType": "PackedFixed18",
                  "name": "maxRate",
                  "type": "int128"
                },
                {
                  "internalType": "PackedFixed18",
                  "name": "targetRate",
                  "type": "int128"
                },
                {
                  "internalType": "PackedUFixed18",
                  "name": "targetUtilization",
                  "type": "uint128"
                }
              ],
              "internalType": "struct JumpRateUtilizationCurve",
              "name": "utilizationCurve",
              "type": "tuple"
            }
          ],
          "internalType": "struct IProduct.ProductInfo",
          "name": "productInfo",
          "type": "tuple"
        }
      ],
      "name": "createProduct",
      "outputs": [
        {
          "internalType": "contract IProduct",
          "name": "",
          "type": "address"
        }
      ],
      "stateMutability": "nonpayable",
      "type": "function"
    },
    {
      "inputs": [],
      "name": "incentivizationFee",
      "outputs": [
        {
          "internalType": "UFixed18",
          "name": "",
          "type": "uint256"
        }
      ],
      "stateMutability": "view",
      "type": "function"
    },
    {
      "inputs": [],
      "name": "incentivizer",
      "outputs": [
        {
          "internalType": "contract IIncentivizer",
          "name": "",
          "type": "address"
        }
      ],
      "stateMutability": "view",
      "type": "function"
    },
    {
      "inputs": [
        {
          "internalType": "contract ICollateral",
          "name": "collateral_",
          "type": "address"
        },
        {
          "internalType": "contract IIncentivizer",
          "name": "incentivizer_",
          "type": "address"
        },
        {
          "internalType": "contract IBeacon",
          "name": "productBeacon_",
          "type": "address"
        }
      ],
      "name": "initialize",
      "outputs": [],
      "stateMutability": "nonpayable",
      "type": "function"
    },
    {
      "inputs": [
        {
          "internalType": "contract IProduct",
          "name": "product",
          "type": "address"
        }
      ],
      "name": "isProduct",
      "outputs": [
        {
          "internalType": "bool",
          "name": "",
          "type": "bool"
        }
      ],
      "stateMutability": "view",
      "type": "function"
    },
    {
      "inputs": [],
      "name": "liquidationFee",
      "outputs": [
        {
          "internalType": "UFixed18",
          "name": "",
          "type": "uint256"
        }
      ],
      "stateMutability": "view",
      "type": "function"
    },
    {
      "inputs": [],
      "name": "minCollateral",
      "outputs": [
        {
          "internalType": "UFixed18",
          "name": "",
          "type": "uint256"
        }
      ],
      "stateMutability": "view",
      "type": "function"
    },
    {
      "inputs": [],
      "name": "minFundingFee",
      "outputs": [
        {
          "internalType": "UFixed18",
          "name": "",
          "type": "uint256"
        }
      ],
      "stateMutability": "view",
      "type": "function"
    },
    {
      "inputs": [
        {
          "internalType": "contract IProduct",
          "name": "product",
          "type": "address"
        }
      ],
      "name": "owner",
      "outputs": [
        {
          "internalType": "address",
          "name": "",
          "type": "address"
        }
      ],
      "stateMutability": "view",
      "type": "function"
    },
    {
      "inputs": [],
      "name": "owner",
      "outputs": [
        {
          "internalType": "address",
          "name": "",
          "type": "address"
        }
      ],
      "stateMutability": "view",
      "type": "function"
    },
    {
      "inputs": [
        {
          "internalType": "uint256",
          "name": "coordinatorId",
          "type": "uint256"
        }
      ],
      "name": "owner",
      "outputs": [
        {
          "internalType": "address",
          "name": "",
          "type": "address"
        }
      ],
      "stateMutability": "view",
      "type": "function"
    },
    {
      "inputs": [],
      "name": "paused",
      "outputs": [
        {
          "internalType": "bool",
          "name": "",
          "type": "bool"
        }
      ],
      "stateMutability": "view",
      "type": "function"
    },
    {
      "inputs": [],
      "name": "pauser",
      "outputs": [
        {
          "internalType": "address",
          "name": "",
          "type": "address"
        }
      ],
      "stateMutability": "view",
      "type": "function"
    },
    {
      "inputs": [
        {
          "internalType": "uint256",
          "name": "coordinatorId",
          "type": "uint256"
        }
      ],
      "name": "pendingOwner",
      "outputs": [
        {
          "internalType": "address",
          "name": "",
          "type": "address"
        }
      ],
      "stateMutability": "view",
      "type": "function"
    },
    {
      "inputs": [],
      "name": "pendingOwner",
      "outputs": [
        {
          "internalType": "address",
          "name": "",
          "type": "address"
        }
      ],
      "stateMutability": "view",
      "type": "function"
    },
    {
      "inputs": [],
      "name": "productBeacon",
      "outputs": [
        {
          "internalType": "contract IBeacon",
          "name": "",
          "type": "address"
        }
      ],
      "stateMutability": "view",
      "type": "function"
    },
    {
      "inputs": [],
      "name": "programsPerProduct",
      "outputs": [
        {
          "internalType": "uint256",
          "name": "",
          "type": "uint256"
        }
      ],
      "stateMutability": "view",
      "type": "function"
    },
    {
      "inputs": [],
      "name": "protocolFee",
      "outputs": [
        {
          "internalType": "UFixed18",
          "name": "",
          "type": "uint256"
        }
      ],
      "stateMutability": "view",
      "type": "function"
    },
    {
      "inputs": [
        {
          "internalType": "contract IProduct",
          "name": "product",
          "type": "address"
        }
      ],
      "name": "treasury",
      "outputs": [
        {
          "internalType": "address",
          "name": "",
          "type": "address"
        }
      ],
      "stateMutability": "view",
      "type": "function"
    },
    {
      "inputs": [
        {
          "internalType": "uint256",
          "name": "coordinatorId",
          "type": "uint256"
        }
      ],
      "name": "treasury",
      "outputs": [
        {
          "internalType": "address",
          "name": "",
          "type": "address"
        }
      ],
      "stateMutability": "view",
      "type": "function"
    },
    {
      "inputs": [],
      "name": "treasury",
      "outputs": [
        {
          "internalType": "address",
          "name": "",
          "type": "address"
        }
      ],
      "stateMutability": "view",
      "type": "function"
    },
    {
      "inputs": [
        {
          "internalType": "contract ICollateral",
          "name": "newCollateral",
          "type": "address"
        }
      ],
      "name": "updateCollateral",
      "outputs": [],
      "stateMutability": "nonpayable",
      "type": "function"
    },
    {
      "inputs": [
        {
          "internalType": "uint256",
          "name": "coordinatorId",
          "type": "uint256"
        },
        {
          "internalType": "address",
          "name": "newPendingOwner",
          "type": "address"
        }
      ],
      "name": "updateCoordinatorPendingOwner",
      "outputs": [],
      "stateMutability": "nonpayable",
      "type": "function"
    },
    {
      "inputs": [
        {
          "internalType": "uint256",
          "name": "coordinatorId",
          "type": "uint256"
        },
        {
          "internalType": "address",
          "name": "newTreasury",
          "type": "address"
        }
      ],
      "name": "updateCoordinatorTreasury",
      "outputs": [],
      "stateMutability": "nonpayable",
      "type": "function"
    },
    {
      "inputs": [
        {
          "internalType": "UFixed18",
          "name": "newIncentivizationFee",
          "type": "uint256"
        }
      ],
      "name": "updateIncentivizationFee",
      "outputs": [],
      "stateMutability": "nonpayable",
      "type": "function"
    },
    {
      "inputs": [
        {
          "internalType": "contract IIncentivizer",
          "name": "newIncentivizer",
          "type": "address"
        }
      ],
      "name": "updateIncentivizer",
      "outputs": [],
      "stateMutability": "nonpayable",
      "type": "function"
    },
    {
      "inputs": [
        {
          "internalType": "UFixed18",
          "name": "newLiquidationFee",
          "type": "uint256"
        }
      ],
      "name": "updateLiquidationFee",
      "outputs": [],
      "stateMutability": "nonpayable",
      "type": "function"
    },
    {
      "inputs": [
        {
          "internalType": "UFixed18",
          "name": "newMinCollateral",
          "type": "uint256"
        }
      ],
      "name": "updateMinCollateral",
      "outputs": [],
      "stateMutability": "nonpayable",
      "type": "function"
    },
    {
      "inputs": [
        {
          "internalType": "UFixed18",
          "name": "newMinFundingFee",
          "type": "uint256"
        }
      ],
      "name": "updateMinFundingFee",
      "outputs": [],
      "stateMutability": "nonpayable",
      "type": "function"
    },
    {
      "inputs": [
        {
          "internalType": "bool",
          "name": "newPaused",
          "type": "bool"
        }
      ],
      "name": "updatePaused",
      "outputs": [],
      "stateMutability": "nonpayable",
      "type": "function"
    },
    {
      "inputs": [
        {
          "internalType": "address",
          "name": "newPauser",
          "type": "address"
        }
      ],
      "name": "updatePauser",
      "outputs": [],
      "stateMutability": "nonpayable",
      "type": "function"
    },
    {
      "inputs": [
        {
          "internalType": "contract IBeacon",
          "name": "newProductBeacon",
          "type": "address"
        }
      ],
      "name": "updateProductBeacon",
      "outputs": [],
      "stateMutability": "nonpayable",
      "type": "function"
    },
    {
      "inputs": [
        {
          "internalType": "uint256",
          "name": "newProgramsPerProduct",
          "type": "uint256"
        }
      ],
      "name": "updateProgramsPerProduct",
      "outputs": [],
      "stateMutability": "nonpayable",
      "type": "function"
    },
    {
      "inputs": [
        {
          "internalType": "UFixed18",
          "name": "newProtocolFee",
          "type": "uint256"
        }
      ],
      "name": "updateProtocolFee",
      "outputs": [],
      "stateMutability": "nonpayable",
      "type": "function"
    }
  ],
  "transactionHash": "0xdff42b3125b73e7b0c9ca4039db1980766755dc5c46d18b26d446b0ab3c0c09e",
  "args": [],
  "numDeployments": 1,
  "solcInputHash": "dd52f03d8fef7833844e4ba864fd9fba",
  "bytecode": "0x608060405234801561001057600080fd5b50612de7806100206000396000f3fe60806040523480156200001157600080fd5b5060043610620002e45760003560e01c80637a7da0041162000199578063a36a363011620000e9578063d809aa611162000097578063e30c3978116200007a578063e30c39781462000638578063e975c0c31462000642578063f8dfc2cc146200064c57600080fd5b8063d809aa611462000617578063d8dfeb45146200062e57600080fd5b8063b0e21e8a11620000cc578063b0e21e8a14620005ec578063ba2de9bc14620005f6578063c0c53b8b146200060057600080fd5b8063a36a363014620005cb578063af2757b714620005d557600080fd5b80638da5cb5b11620001475780639fd0506d116200012a5780639fd0506d1462000593578063a123c33e146200059d578063a1eef78e14620005b457600080fd5b80638da5cb5b14620005725780638fbf1803146200057c57600080fd5b80637d254e66116200017c5780637d254e66146200050a5780637d49c1b7146200052d5780637fd29192146200053757600080fd5b80637a7da00414620004dc5780637c01369014620004f357600080fd5b80634c5430a0116200025557806365e821e5116200020357806366c0623911620001e657806366c0623914620004b15780636fc6407c14620004bb57806375907f2814620004c557600080fd5b806365e821e51462000483578063666e1b39146200049a57600080fd5b80635c975abb11620002385780635c975abb14620004075780635f1cc005146200042257806361d027b3146200047957600080fd5b80634c5430a014620003d9578063554bab3c14620003f057600080fd5b80632d809cb611620002b35780633ceda01111620002965780633ceda01114620003925780634256dd7814620003ab578063478739ca14620003c257600080fd5b80632d809cb61462000371578063391d0c9c146200038857600080fd5b806308cdc2a814620002e95780630d57036114620003025780632933d89114620003435780632b800e3b146200035a575b600080fd5b62000300620002fa36600462001df6565b62000663565b005b620003196200031336600462001e1a565b62000734565b60405173ffffffffffffffffffffffffffffffffffffffff90911681526020015b60405180910390f35b620003006200035436600462001e6c565b62000926565b620003196200036b36600462001e6c565b620009fe565b620003196200038236600462001eac565b62000a42565b6200031962000a79565b6200039c62000aa9565b6040519081526020016200033a565b62000300620003bc36600462001e6c565b62000ad4565b62000300620003d336600462001e6c565b62000bf1565b62000319620003ea36600462001e6c565b62000d0e565b620003006200040136600462001eac565b62000d73565b6200041162000e5a565b60405190151581526020016200033a565b620004396200043336600462001e6c565b62000e85565b60408051825173ffffffffffffffffffffffffffffffffffffffff908116825260208085015182169083015292820151909216908201526060016200033a565b6200031962000f13565b620003006200049436600462001eac565b62000f21565b62000319620004ab36600462001eac565b62001057565b6200039c62001088565b6200031962001094565b62000300620004d636600462001e6c565b620010bf565b62000300620004ed36600462001eac565b620011dc565b620003006200050436600462001eac565b62001312565b6200039c6200051b36600462001eac565b60016020526000908152604090205481565b6200039c62001448565b620004116200054836600462001eac565b73ffffffffffffffffffffffffffffffffffffffff16600090815260016020526040902054151590565b6200031962001473565b620003006200058d36600462001e6c565b62001481565b6200031962001587565b62000319620005ae36600462001e6c565b620015e9565b62000300620005c536600462001e6c565b62001630565b6200039c62001701565b62000300620005e636600462001ecc565b6200172c565b6200039c6200183c565b6200039c62001867565b620003006200061136600462001ef4565b62001892565b620003006200062836600462001e6c565b620019d1565b6200031962001aee565b6200031962001b19565b6200039c62001b27565b620003006200065d36600462001ecc565b62001b52565b6200066d62001587565b73ffffffffffffffffffffffffffffffffffffffff163373ffffffffffffffffffffffffffffffffffffffff1614620006d2576040517f84f8637600000000000000000000000000000000000000000000000000000000815260040160405180910390fd5b620006fc7ff201e8b56b5ea8f1176ce6f2699cbe9659ba7491e9460c9d358ddf61400b5de3829055565b60405181151581527f31311016d7204faff81880133e3db244ae8a8b9ce15e83e2432258226d15f9429060200160405180910390a150565b6000826200074281620015e9565b73ffffffffffffffffffffffffffffffffffffffff163373ffffffffffffffffffffffffffffffffffffffff1614620007af576040517ff0a882b5000000000000000000000000000000000000000000000000000000008152600481018290526024015b60405180910390fd5b83600003620007ea576040517f7244bc7800000000000000000000000000000000000000000000000000000000815260040160405180910390fd5b6000620007f662000a79565b8460405160240162000809919062002150565b604080517fffffffffffffffffffffffffffffffffffffffffffffffffffffffffffffffe08184030181529181526020820180517bffffffffffffffffffffffffffffffffffffffffffffffffffffffff167ff0b4095900000000000000000000000000000000000000000000000000000000179052516200088b9062001de8565b620008989291906200225b565b604051809103906000f080158015620008b5573d6000803e3d6000fd5b5073ffffffffffffffffffffffffffffffffffffffff8116600081815260016020526040908190208890555191925082917f09d535073bc2dc21c8fd680a2141218a65fb0acc46e88b9e5d96f114b734b004906200091590889062002150565b60405180910390a295945050505050565b60006200093381620015e9565b73ffffffffffffffffffffffffffffffffffffffff163373ffffffffffffffffffffffffffffffffffffffff16146200099c576040517ff0a882b500000000000000000000000000000000000000000000000000000000815260048101829052602401620007a6565b620009c67f2859911faffd405cbcc22bdad2f67b54a86355c092452044dbab4f656aec3dc9839055565b6040518281527fd19fe8ad9152af12b174a60210fb798db0767d63973ebb97298dc44d67a5c82d906020015b60405180910390a15050565b600080828154811062000a155762000a15620022ef565b600091825260209091206003909102015473ffffffffffffffffffffffffffffffffffffffff1692915050565b73ffffffffffffffffffffffffffffffffffffffff811660009081526001602052604081205462000a739062000d0e565b92915050565b600062000aa47f81565bc82d6e7196d38320713fd94f897c0e1a4c83974a2fbbbf9fbb55a6d8a75490565b905090565b600062000aa47f1f7147efa84c5ef8ccb713891d25247c732a9d5765ebc3bb6cb30d1f17d277f05490565b600062000ae181620015e9565b73ffffffffffffffffffffffffffffffffffffffff163373ffffffffffffffffffffffffffffffffffffffff161462000b4a576040517ff0a882b500000000000000000000000000000000000000000000000000000000815260048101829052602401620007a6565b62000b5e82670de0b6b3a764000062001c65565b1562000b96576040517f3c5df10400000000000000000000000000000000000000000000000000000000815260040160405180910390fd5b62000bc07f7b1a264a02657d43e78b10f2a591a99a0fdf8a165fb72bbf762d965e9973f64e839055565b6040518281527fd10d75876659a287a59a6ccfa2e3fff42f84d94b542837acd30bc184d562de4090602001620009f2565b600062000bfe81620015e9565b73ffffffffffffffffffffffffffffffffffffffff163373ffffffffffffffffffffffffffffffffffffffff161462000c67576040517ff0a882b500000000000000000000000000000000000000000000000000000000815260048101829052602401620007a6565b62000c7b82670de0b6b3a764000062001c65565b1562000cb3576040517f0c6b0ec800000000000000000000000000000000000000000000000000000000815260040160405180910390fd5b62000cdd7f6f35922f1b8609c81847a86ce8bb2528f73d722df88772b050ac89d3bc48707d839055565b6040518281527fdf7e6bc55eeb2668bd338e44a5abb721b1f98ad51f7a00baaa1b62f9383862d790602001620009f2565b6000806000838154811062000d275762000d27620022ef565b600091825260209091206002600390920201015473ffffffffffffffffffffffffffffffffffffffff169050801562000d61578062000d6c565b62000d6c83620015e9565b9392505050565b600062000d8081620015e9565b73ffffffffffffffffffffffffffffffffffffffff163373ffffffffffffffffffffffffffffffffffffffff161462000de9576040517ff0a882b500000000000000000000000000000000000000000000000000000000815260048101829052602401620007a6565b62000e137fc641ae699093d5be5b0b167620fe782b911b5015c8c9f6e14207530ddda0d020839055565b60405173ffffffffffffffffffffffffffffffffffffffff831681527fa4336c0cb1e245b95ad204faed7e940d6dc999684fd8b5e1ff597a0c4efca8ab90602001620009f2565b600062000aa47ff201e8b56b5ea8f1176ce6f2699cbe9659ba7491e9460c9d358ddf61400b5de35490565b60408051606081018252600080825260208201819052918101919091526000828154811062000eb85762000eb8620022ef565b6000918252602091829020604080516060810182526003909302909101805473ffffffffffffffffffffffffffffffffffffffff90811684526001820154811694840194909452600201549092169181019190915292915050565b600062000aa4600062000d0e565b600062000f2e81620015e9565b73ffffffffffffffffffffffffffffffffffffffff163373ffffffffffffffffffffffffffffffffffffffff161462000f97576040517ff0a882b500000000000000000000000000000000000000000000000000000000815260048101829052602401620007a6565b73ffffffffffffffffffffffffffffffffffffffff82163b62000fe6576040517fe939acbc00000000000000000000000000000000000000000000000000000000815260040160405180910390fd5b620010107fcbd1a41d9e21eb02a3acb8d57f9495422d3837dd84bf5dfbc51964fe540cff41839055565b60405173ffffffffffffffffffffffffffffffffffffffff831681527f18c973e70eca8db74eab2a3e0de3c4bffcc46c45f6f17f600e2d4d4f744e2a2b90602001620009f2565b73ffffffffffffffffffffffffffffffffffffffff811660009081526001602052604081205462000a7390620015e9565b600062000aa462001c7d565b600062000aa47fcbd1a41d9e21eb02a3acb8d57f9495422d3837dd84bf5dfbc51964fe540cff415490565b6000620010cc81620015e9565b73ffffffffffffffffffffffffffffffffffffffff163373ffffffffffffffffffffffffffffffffffffffff161462001135576040517ff0a882b500000000000000000000000000000000000000000000000000000000815260048101829052602401620007a6565b6200114982670de0b6b3a764000062001c65565b1562001181576040517fb4c4f79900000000000000000000000000000000000000000000000000000000815260040160405180910390fd5b620011ab7fdf23e6978beb49efbffd02ffd26ec2f120b1e5be191aa5749bafaa170026fb09839055565b6040518281527f1a35ca75fc5ab34ae3487b3507e7453b6e4c15a69f2392939fbbcf8f64558ad190602001620009f2565b6000620011e981620015e9565b73ffffffffffffffffffffffffffffffffffffffff163373ffffffffffffffffffffffffffffffffffffffff161462001252576040517ff0a882b500000000000000000000000000000000000000000000000000000000815260048101829052602401620007a6565b73ffffffffffffffffffffffffffffffffffffffff82163b620012a1576040517fe939acbc00000000000000000000000000000000000000000000000000000000815260040160405180910390fd5b620012cb7f9a67237eef0f801c1f3a0e6be772257326890fecbd39f68c5f7bb69ca7c408c3839055565b60405173ffffffffffffffffffffffffffffffffffffffff831681527fa0fe5cb0e8843811ca9f6123983dcdfd45a33b61892b9b8f380ed444078e299a90602001620009f2565b60006200131f81620015e9565b73ffffffffffffffffffffffffffffffffffffffff163373ffffffffffffffffffffffffffffffffffffffff161462001388576040517ff0a882b500000000000000000000000000000000000000000000000000000000815260048101829052602401620007a6565b73ffffffffffffffffffffffffffffffffffffffff82163b620013d7576040517fe939acbc00000000000000000000000000000000000000000000000000000000815260040160405180910390fd5b620014017f81565bc82d6e7196d38320713fd94f897c0e1a4c83974a2fbbbf9fbb55a6d8a7839055565b60405173ffffffffffffffffffffffffffffffffffffffff831681527f36466d973cc33c9b726f867d2fc1f8cd56d58de206993f62ccba543a3429ea6290602001620009f2565b600062000aa47fd665791d8a3246c9a2360cb3de854da1c9536240e0380f1f5c2dd0e6b8b7c8605490565b600062000aa46000620015e9565b6000808281548110620014985762001498620022ef565b60009182526020909120600390910201805490915073ffffffffffffffffffffffffffffffffffffffff1633811462001501576040517f07f41a5f00000000000000000000000000000000000000000000000000000000815260048101849052602401620007a6565b81547fffffffffffffffffffffffff0000000000000000000000000000000000000000908116835560018301805473ffffffffffffffffffffffffffffffffffffffff841692168217905560405190815283907f87c983c6a4d6d9a68e6d99934d1fb50f760858298c06f8ed6b316f534e06faf4906020015b60405180910390a2505050565b600080620015b37fc641ae699093d5be5b0b167620fe782b911b5015c8c9f6e14207530ddda0d0205490565b905073ffffffffffffffffffffffffffffffffffffffff811615620015d95780620015e3565b620015e362001473565b91505090565b6000808281548110620016005762001600620022ef565b600091825260209091206001600390920201015473ffffffffffffffffffffffffffffffffffffffff1692915050565b60006200163d81620015e9565b73ffffffffffffffffffffffffffffffffffffffff163373ffffffffffffffffffffffffffffffffffffffff1614620016a6576040517ff0a882b500000000000000000000000000000000000000000000000000000000815260048101829052602401620007a6565b620016d07fd665791d8a3246c9a2360cb3de854da1c9536240e0380f1f5c2dd0e6b8b7c860839055565b6040518281527f7e6452dce5202ad16be30ea14955296f7157b95e4ca48b73fc54d54601185adf90602001620009f2565b600062000aa47fdf23e6978beb49efbffd02ffd26ec2f120b1e5be191aa5749bafaa170026fb095490565b816200173881620015e9565b73ffffffffffffffffffffffffffffffffffffffff163373ffffffffffffffffffffffffffffffffffffffff1614620017a1576040517ff0a882b500000000000000000000000000000000000000000000000000000000815260048101829052602401620007a6565b8160008481548110620017b857620017b8620022ef565b60009182526020918290206003919091020180547fffffffffffffffffffffffff00000000000000000000000000000000000000001673ffffffffffffffffffffffffffffffffffffffff938416179055604051918416825284917f0bffd4439c17923ee1b2b093be5394c42dcab0d9394e349a8d6a059c239ba60391016200157a565b600062000aa47f7b1a264a02657d43e78b10f2a591a99a0fdf8a165fb72bbf762d965e9973f64e5490565b600062000aa47f2859911faffd405cbcc22bdad2f67b54a86355c092452044dbab4f656aec3dc95490565b600180620018be7f5db5abc19987c2b3729df7961b62b6bb0bae886dd47e3ce25bb3a3af34c6d80b5490565b10620018fa576040517f1e7a9d9500000000000000000000000000000000000000000000000000000000815260048101829052602401620007a6565b620019247f5db5abc19987c2b3729df7961b62b6bb0bae886dd47e3ce25bb3a3af34c6d80b829055565b60017fad57d7911b7e3d6c3c79a68ba909a7f4ba41f9485e5207b12dee0d0c6af5398c556200195262001c7d565b506200195e84620011dc565b620019698362000f21565b620019748262001312565b60007fad57d7911b7e3d6c3c79a68ba909a7f4ba41f9485e5207b12dee0d0c6af5398c556040518181527fbe9b076dc5b65990cca9dd9d7366682482e7817a6f6bc7f4faf4dc32af497f329060200160405180910390a150505050565b6000620019de81620015e9565b73ffffffffffffffffffffffffffffffffffffffff163373ffffffffffffffffffffffffffffffffffffffff161462001a47576040517ff0a882b500000000000000000000000000000000000000000000000000000000815260048101829052602401620007a6565b62001a5b82670de0b6b3a764000062001c65565b1562001a93576040517f7c3ceda900000000000000000000000000000000000000000000000000000000815260040160405180910390fd5b62001abd7f1f7147efa84c5ef8ccb713891d25247c732a9d5765ebc3bb6cb30d1f17d277f0839055565b6040518281527f852c049e335a49416ecbcb0128935cc3832c307d450d206f0a2d0bf2b28ba2db90602001620009f2565b600062000aa47f9a67237eef0f801c1f3a0e6be772257326890fecbd39f68c5f7bb69ca7c408c35490565b600062000aa46000620009fe565b600062000aa47f6f35922f1b8609c81847a86ce8bb2528f73d722df88772b050ac89d3bc48707d5490565b8162001b5e81620015e9565b73ffffffffffffffffffffffffffffffffffffffff163373ffffffffffffffffffffffffffffffffffffffff161462001bc7576040517ff0a882b500000000000000000000000000000000000000000000000000000000815260048101829052602401620007a6565b816000848154811062001bde5762001bde620022ef565b60009182526020918290206003919091020160020180547fffffffffffffffffffffffff00000000000000000000000000000000000000001673ffffffffffffffffffffffffffffffffffffffff938416179055604051918416825284917fffd31ccade46a73a57d8efd7d740bbf6aa67e50a158c98ad82a06ad31556cef491016200157a565b600062001c73838362001daf565b6002149392505050565b600080546040805160608101825283815233602080830182815283850187815260018701885587805293517f290decd9548b62a8d60345a988386fc84ba6bc95484008f6362f93160ef3e5636003880290810180547fffffffffffffffffffffffff000000000000000000000000000000000000000090811673ffffffffffffffffffffffffffffffffffffffff9485161790915592517f290decd9548b62a8d60345a988386fc84ba6bc95484008f6362f93160ef3e56482018054851691841691909117905594517f290decd9548b62a8d60345a988386fc84ba6bc95484008f6362f93160ef3e5659095018054909216941693909317909255915191825282917f645c9ae30d6a6aa6b2dace770fa0cfac2d8d44b9b036510e0a16aab39e6b5931910160405180910390a2919050565b600082828082111562001dc85760029250505062000a73565b8082101562001ddd5760009250505062000a73565b506001949350505050565b610a93806200231f83390190565b60006020828403121562001e0957600080fd5b8135801515811462000d6c57600080fd5b6000806040838503121562001e2e57600080fd5b82359150602083013567ffffffffffffffff81111562001e4d57600080fd5b83016101e0818603121562001e6157600080fd5b809150509250929050565b60006020828403121562001e7f57600080fd5b5035919050565b73ffffffffffffffffffffffffffffffffffffffff8116811462001ea957600080fd5b50565b60006020828403121562001ebf57600080fd5b813562000d6c8162001e86565b6000806040838503121562001ee057600080fd5b82359150602083013562001e618162001e86565b60008060006060848603121562001f0a57600080fd5b833562001f178162001e86565b9250602084013562001f298162001e86565b9150604084013562001f3b8162001e86565b809150509250925092565b60008083357fffffffffffffffffffffffffffffffffffffffffffffffffffffffffffffffe184360301811262001f7c57600080fd5b830160208101925035905067ffffffffffffffff81111562001f9d57600080fd5b80360382131562001fad57600080fd5b9250929050565b8183528181602085013750600060208284010152600060207fffffffffffffffffffffffffffffffffffffffffffffffffffffffffffffffe0601f840116840101905092915050565b6002811062001ea957600080fd5b6002811062001ea9577f4e487b7100000000000000000000000000000000000000000000000000000000600052602160045260246000fd5b8035620020508162001ffd565b6200205b816200200b565b825260208101356200206d8162001ffd565b62002078816200200b565b602083015260408101357fffffffffffffffffffffffffffffffffffffffffffffffffffffffffffff00008116808214620020b257600080fd5b80604085015250505050565b8035620020cb8162001e86565b919050565b8035600f81900b8114620020cb57600080fd5b620020ee81620020d0565b600f0b82526200210160208201620020d0565b600f0b60208301526200211760408201620020d0565b600f0b604083015260608101356fffffffffffffffffffffffffffffffff81168082146200214457600080fd5b80606085015250505050565b60208152600062002162838462001f46565b6101e060208501526200217b6102008501828462001fb4565b9150506200218d602085018562001f46565b7fffffffffffffffffffffffffffffffffffffffffffffffffffffffffffffffe0858403016040860152620021c483828462001fb4565b92505050620021da606084016040860162002043565b620021e860a08501620020be565b73ffffffffffffffffffffffffffffffffffffffff811660c08501525060c084013560e084015261010060e085013581850152610120818601358186015261014091508086013582860152506101608186013581860152620022516101808601828801620020e3565b5090949350505050565b73ffffffffffffffffffffffffffffffffffffffff8316815260006020604081840152835180604085015260005b81811015620022a75785810183015185820160600152820162002289565b81811115620022ba576000606083870101525b50601f017fffffffffffffffffffffffffffffffffffffffffffffffffffffffffffffffe01692909201606001949350505050565b7f4e487b7100000000000000000000000000000000000000000000000000000000600052603260045260246000fdfe608060405260405162000a9338038062000a938339810160408190526200002691620004c6565b6200005360017fa3f0ad74e5423aebfd80d3ef4346578335a9a72aeaee59ff6cb3582b35133d5162000594565b60008051602062000a4c83398151915214620000735762000073620005ba565b620000818282600062000089565b505062000641565b62000094836200015e565b6040516001600160a01b038416907f1cf3b03a6cf19fa2baba4df148e9dcabedea7f8a5c07840e207e5c089be95d3e90600090a2600082511180620000d65750805b15620001595762000157836001600160a01b0316635c60da1b6040518163ffffffff1660e01b8152600401602060405180830381865afa1580156200011f573d6000803e3d6000fd5b505050506040513d601f19601f82011682018060405250810190620001459190620005d0565b83620002ff60201b620000291760201c565b505b505050565b62000174816200032e60201b620000551760201c565b620001d45760405162461bcd60e51b815260206004820152602560248201527f455243313936373a206e657720626561636f6e206973206e6f74206120636f6e6044820152641d1c9858dd60da1b60648201526084015b60405180910390fd5b6200024e816001600160a01b0316635c60da1b6040518163ffffffff1660e01b8152600401602060405180830381865afa15801562000217573d6000803e3d6000fd5b505050506040513d601f19601f820116820180604052508101906200023d9190620005d0565b6200032e60201b620000551760201c565b620002b55760405162461bcd60e51b815260206004820152603060248201527f455243313936373a20626561636f6e20696d706c656d656e746174696f6e206960448201526f1cc81b9bdd08184818dbdb9d1c9858dd60821b6064820152608401620001cb565b80620002de60008051602062000a4c83398151915260001b6200033d60201b620000711760201c565b80546001600160a01b0319166001600160a01b039290921691909117905550565b606062000327838360405180606001604052806027815260200162000a6c6027913962000340565b9392505050565b6001600160a01b03163b151590565b90565b60606001600160a01b0384163b620003aa5760405162461bcd60e51b815260206004820152602660248201527f416464726573733a2064656c65676174652063616c6c20746f206e6f6e2d636f6044820152651b9d1c9858dd60d21b6064820152608401620001cb565b600080856001600160a01b031685604051620003c79190620005ee565b600060405180830381855af49150503d806000811462000404576040519150601f19603f3d011682016040523d82523d6000602084013e62000409565b606091505b5090925090506200041c82828662000426565b9695505050505050565b606083156200043757508162000327565b825115620004485782518084602001fd5b8160405162461bcd60e51b8152600401620001cb91906200060c565b80516001600160a01b03811681146200047c57600080fd5b919050565b634e487b7160e01b600052604160045260246000fd5b60005b83811015620004b45781810151838201526020016200049a565b83811115620001575750506000910152565b60008060408385031215620004da57600080fd5b620004e58362000464565b60208401519092506001600160401b03808211156200050357600080fd5b818501915085601f8301126200051857600080fd5b8151818111156200052d576200052d62000481565b604051601f8201601f19908116603f0116810190838211818310171562000558576200055862000481565b816040528281528860208487010111156200057257600080fd5b6200058583602083016020880162000497565b80955050505050509250929050565b600082821015620005b557634e487b7160e01b600052601160045260246000fd5b500390565b634e487b7160e01b600052600160045260246000fd5b600060208284031215620005e357600080fd5b620003278262000464565b600082516200060281846020870162000497565b9190910192915050565b60208152600082518060208401526200062d81604085016020870162000497565b601f01601f19169190910160400192915050565b6103fb80620006516000396000f3fe60806040523661001357610011610017565b005b6100115b610027610022610074565b610127565b565b606061004e838360405180606001604052806027815260200161039f6027913961014b565b9392505050565b73ffffffffffffffffffffffffffffffffffffffff163b151590565b90565b60006100b47fa3f0ad74e5423aebfd80d3ef4346578335a9a72aeaee59ff6cb3582b35133d505473ffffffffffffffffffffffffffffffffffffffff1690565b73ffffffffffffffffffffffffffffffffffffffff16635c60da1b6040518163ffffffff1660e01b8152600401602060405180830381865afa1580156100fe573d6000803e3d6000fd5b505050506040513d601f19601f8201168201806040525081019061012291906102cb565b905090565b3660008037600080366000845af43d6000803e808015610146573d6000f35b3d6000fd5b606073ffffffffffffffffffffffffffffffffffffffff84163b6101f6576040517f08c379a000000000000000000000000000000000000000000000000000000000815260206004820152602660248201527f416464726573733a2064656c65676174652063616c6c20746f206e6f6e2d636f60448201527f6e7472616374000000000000000000000000000000000000000000000000000060648201526084015b60405180910390fd5b6000808573ffffffffffffffffffffffffffffffffffffffff168560405161021e9190610331565b600060405180830381855af49150503d8060008114610259576040519150601f19603f3d011682016040523d82523d6000602084013e61025e565b606091505b509150915061026e828286610278565b9695505050505050565b6060831561028757508161004e565b8251156102975782518084602001fd5b816040517f08c379a00000000000000000000000000000000000000000000000000000000081526004016101ed919061034d565b6000602082840312156102dd57600080fd5b815173ffffffffffffffffffffffffffffffffffffffff8116811461004e57600080fd5b60005b8381101561031c578181015183820152602001610304565b8381111561032b576000848401525b50505050565b60008251610343818460208701610301565b9190910192915050565b602081526000825180602084015261036c816040850160208701610301565b601f017fffffffffffffffffffffffffffffffffffffffffffffffffffffffffffffffe016919091016040019291505056fe416464726573733a206c6f772d6c6576656c2064656c65676174652063616c6c206661696c6564a26469706673582212208ce966e1385eefb01b44b0d1cdba417199b04aa2fe5c746c59969a22757b9b3664736f6c634300080f0033a3f0ad74e5423aebfd80d3ef4346578335a9a72aeaee59ff6cb3582b35133d50416464726573733a206c6f772d6c6576656c2064656c65676174652063616c6c206661696c6564a26469706673582212207b63003df7f905db73bc6dfd429e1f3244bef25c4f88af0412ba6d9c9e0e7f9064736f6c634300080f0033",
  "devdoc": {
    "kind": "dev",
    "methods": {
      "acceptCoordinatorOwner(uint256)": {
        "details": "Must be called by the coordinator's pending owner",
        "params": {
          "coordinatorId": "Coordinator to update"
        }
      },
      "coordinators(uint256)": {
        "params": {
          "coordinatorId": "Coordinator to return for"
        },
        "returns": {
          "_0": "Coordinator state"
        }
      },
      "createCoordinator()": {
        "details": "Can only be called by the protocol owner",
        "returns": {
          "_0": "New coordinator ID"
        }
      },
      "createProduct(uint256,(string,string,(uint8,uint8,bytes30),address,uint256,uint256,uint256,uint256,uint256,(int128,int128,int128,uint128)))": {
        "details": "Can only be called by the coordinator owner",
        "params": {
          "coordinatorId": "Coordinator that will own the product",
          "productInfo": "Product params used to initialize the product"
        },
        "returns": {
          "_0": "New product contract address"
        }
      },
      "initialize(address,address,address)": {
        "details": "Must be called atomically as part of the upgradeable proxy deployment to      avoid front-running",
        "params": {
          "collateral_": "Collateral contract address",
          "incentivizer_": "Incentivizer contract address",
          "productBeacon_": "Product implementation beacon address"
        }
      },
      "isProduct(address)": {
        "params": {
          "product": "Contract address to check"
        },
        "returns": {
          "_0": "Whether a contract is a product"
        }
      },
      "owner()": {
        "returns": {
          "_0": "Owner of the protocol"
        }
      },
      "owner(address)": {
        "params": {
          "product": "Product to return for"
        },
        "returns": {
          "_0": "Owner of the product"
        }
      },
      "owner(uint256)": {
        "params": {
          "coordinatorId": "Coordinator to return for"
        },
        "returns": {
          "_0": "Owner of the coordinator"
        }
      },
      "pendingOwner()": {
        "returns": {
          "_0": "Owner of the protocol"
        }
      },
      "pendingOwner(uint256)": {
        "params": {
          "coordinatorId": "Coordinator to return for"
        },
        "returns": {
          "_0": "Pending owner of the coordinator"
        }
      },
      "treasury()": {
        "details": "Defaults to the `owner` when `treasury` is unset",
        "returns": {
          "_0": "Treasury of the protocol"
        }
      },
      "treasury(address)": {
        "details": "Defaults to the `owner` when `treasury` is unset",
        "params": {
          "product": "Product to return for"
        },
        "returns": {
          "_0": "Treasury of the product"
        }
      },
      "treasury(uint256)": {
        "details": "Defaults to the `owner` when `treasury` is unset",
        "params": {
          "coordinatorId": "Coordinator to return for"
        },
        "returns": {
          "_0": "Treasury of the coordinator"
        }
      },
      "updateCollateral(address)": {
        "params": {
          "newCollateral": "New Collateral contract address"
        }
      },
      "updateCoordinatorPendingOwner(uint256,address)": {
        "details": "Must be called by the coordinator's current owner",
        "params": {
          "coordinatorId": "Coordinator to update",
          "newPendingOwner": "New pending owner address"
        }
      },
      "updateCoordinatorTreasury(uint256,address)": {
        "details": "Must be called by the coordinator's current owner. Defaults to the coordinator `owner` if set to address(0)",
        "params": {
          "coordinatorId": "Coordinator to update",
          "newTreasury": "New treasury address"
        }
      },
      "updateIncentivizationFee(uint256)": {
        "params": {
          "newIncentivizationFee": "New incentivization fee"
        }
      },
      "updateIncentivizer(address)": {
        "params": {
          "newIncentivizer": "New Incentivizer contract address"
        }
      },
      "updateLiquidationFee(uint256)": {
        "params": {
          "newLiquidationFee": "New liquidation fee"
        }
      },
      "updateMinCollateral(uint256)": {
        "params": {
          "newMinCollateral": "New minimum allowed collateral amount"
        }
      },
      "updateMinFundingFee(uint256)": {
        "params": {
          "newMinFundingFee": "New minimum allowed funding fee"
        }
      },
      "updatePaused(bool)": {
        "params": {
          "newPaused": "New protocol paused state"
        }
      },
      "updatePauser(address)": {
        "params": {
          "newPauser": "New protocol pauser address"
        }
      },
      "updateProductBeacon(address)": {
        "params": {
          "newProductBeacon": "New Product implementation beacon address"
        }
      },
      "updateProgramsPerProduct(uint256)": {
        "params": {
          "newProgramsPerProduct": "New maximum incentivization programs per product allowed"
        }
      },
      "updateProtocolFee(uint256)": {
        "params": {
          "newProtocolFee": "New protocol-product fee split"
        }
      }
    },
    "stateVariables": {
      "_collateral": {
        "details": "Collateral contract address for the protocol"
      },
      "_coordinators": {
        "details": "List of product coordinators"
      },
      "_incentivizationFee": {
        "details": "Fee on incentivization programs"
      },
      "_incentivizer": {
        "details": "Incentivizer contract address for the protocol"
      },
      "_liquidationFee": {
        "details": "Fee on maintenance for liquidation"
      },
      "_minCollateral": {
        "details": "Minimum allowable collateral amount per user account"
      },
      "_minFundingFee": {
        "details": "Minimum allowable funding fee for a product"
      },
      "_paused": {
        "details": "The paused status of the protocol"
      },
      "_pauser": {
        "details": "Protocol pauser address. address(0) defaults to owner(0)"
      },
      "_productBeacon": {
        "details": "Product implementation beacon address for the protocol"
      },
      "_programsPerProduct": {
        "details": "Maximum incentivization programs per product allowed"
      },
      "_protocolFee": {
        "details": "Percent of collected fees that go to the protocol treasury vs the product treasury"
      },
      "coordinatorFor": {
        "details": "Mapping of the coordinator for each  product"
      }
    },
    "title": "Controller",
    "version": 1
  },
  "userdoc": {
    "kind": "user",
    "methods": {
      "acceptCoordinatorOwner(uint256)": {
        "notice": "Accepts ownership over an existing coordinator"
      },
      "coordinators(uint256)": {
        "notice": "Returns coordinator state for coordinator `coordinatorId`"
      },
      "createCoordinator()": {
        "notice": "Creates a new coordinator with `msg.sender` as the owner"
      },
      "createProduct(uint256,(string,string,(uint8,uint8,bytes30),address,uint256,uint256,uint256,uint256,uint256,(int128,int128,int128,uint128)))": {
        "notice": "Creates a new product market with `provider`"
      },
      "initialize(address,address,address)": {
        "notice": "Initializes the contract state"
      },
      "isProduct(address)": {
        "notice": "Returns whether a contract is a product"
      },
      "owner()": {
        "notice": "Returns the owner of the protocol"
      },
      "owner(address)": {
        "notice": "Returns the owner of the product `product`"
      },
      "owner(uint256)": {
        "notice": "Returns the owner of the coordinator `coordinatorId`"
      },
      "pendingOwner()": {
        "notice": "Returns the pending owner of the protocol"
      },
      "pendingOwner(uint256)": {
        "notice": "Returns the pending owner of the coordinator `coordinatorId`"
      },
      "treasury()": {
        "notice": "Returns the treasury of the protocol"
      },
      "treasury(address)": {
        "notice": "Returns the treasury of the product `product`"
      },
      "treasury(uint256)": {
        "notice": "Returns the treasury of the coordinator `coordinatorId`"
      },
      "updateCollateral(address)": {
        "notice": "Updates the Collateral contract address"
      },
      "updateCoordinatorPendingOwner(uint256,address)": {
        "notice": "Updates the pending owner of an existing coordinator"
      },
      "updateCoordinatorTreasury(uint256,address)": {
        "notice": "Updates the treasury of an existing coordinator"
      },
      "updateIncentivizationFee(uint256)": {
        "notice": "Updates the incentivization fee"
      },
      "updateIncentivizer(address)": {
        "notice": "Updates the Incentivizer contract address"
      },
      "updateLiquidationFee(uint256)": {
        "notice": "Updates the liquidation fee"
      },
      "updateMinCollateral(uint256)": {
        "notice": "Updates the minimum allowed collateral amount per user account"
      },
      "updateMinFundingFee(uint256)": {
        "notice": "Updates the minimum allowed funding fee"
      },
      "updatePaused(bool)": {
        "notice": "Updates the protocol paused state"
      },
      "updatePauser(address)": {
        "notice": "Updates the protocol pauser address. Zero address defaults to owner(0)"
      },
      "updateProductBeacon(address)": {
        "notice": "Updates the Product implementation beacon address"
      },
      "updateProgramsPerProduct(uint256)": {
        "notice": "Updates the maximum incentivization programs per product allowed"
      },
      "updateProtocolFee(uint256)": {
        "notice": "Updates the protocol-product fee split"
      }
    },
    "notice": "Manages creating new products and global protocol parameters.",
    "version": 1
  },
  "storageLayout": {
    "storage": [
      {
        "astId": 11565,
        "contract": "contracts/controller/Controller.sol:Controller",
        "label": "_coordinators",
        "offset": 0,
        "slot": "0",
        "type": "t_array(t_struct(Coordinator)14688_storage)dyn_storage"
      },
      {
        "astId": 11571,
        "contract": "contracts/controller/Controller.sol:Controller",
        "label": "coordinatorFor",
        "offset": 0,
        "slot": "1",
        "type": "t_mapping(t_contract(IProduct)16058,t_uint256)"
      }
    ],
    "types": {
      "t_address": {
        "encoding": "inplace",
        "label": "address",
        "numberOfBytes": "20"
      },
      "t_array(t_struct(Coordinator)14688_storage)dyn_storage": {
        "base": "t_struct(Coordinator)14688_storage",
        "encoding": "dynamic_array",
        "label": "struct IController.Coordinator[]",
        "numberOfBytes": "32"
      },
      "t_contract(IProduct)16058": {
        "encoding": "inplace",
        "label": "contract IProduct",
        "numberOfBytes": "20"
      },
      "t_mapping(t_contract(IProduct)16058,t_uint256)": {
        "encoding": "mapping",
        "key": "t_contract(IProduct)16058",
        "label": "mapping(contract IProduct => uint256)",
        "numberOfBytes": "32",
        "value": "t_uint256"
      },
      "t_struct(Coordinator)14688_storage": {
        "encoding": "inplace",
        "label": "struct IController.Coordinator",
        "members": [
          {
            "astId": 14681,
            "contract": "contracts/controller/Controller.sol:Controller",
            "label": "pendingOwner",
            "offset": 0,
            "slot": "0",
            "type": "t_address"
          },
          {
            "astId": 14684,
            "contract": "contracts/controller/Controller.sol:Controller",
            "label": "owner",
            "offset": 0,
            "slot": "1",
            "type": "t_address"
          },
          {
            "astId": 14687,
            "contract": "contracts/controller/Controller.sol:Controller",
            "label": "treasury",
            "offset": 0,
            "slot": "2",
            "type": "t_address"
          }
        ],
        "numberOfBytes": "96"
      },
      "t_uint256": {
        "encoding": "inplace",
        "label": "uint256",
        "numberOfBytes": "32"
      }
    }
  }
}