{
  "address": "0x52C64b8998eB7C80b6F526E99E29ABdcC86B841b",
  "abi": [
    {
      "inputs": [
        {
          "internalType": "Token6",
          "name": "usdc_",
          "type": "address"
        },
        {
          "internalType": "Token18",
          "name": "dsu_",
          "type": "address"
        },
        {
          "internalType": "contract IBatcher",
          "name": "batcher_",
          "type": "address"
        },
        {
          "internalType": "contract ICollateral",
          "name": "collateral_",
          "type": "address"
        }
      ],
      "stateMutability": "nonpayable",
      "type": "constructor"
    },
    {
      "anonymous": false,
      "inputs": [
        {
          "indexed": true,
          "internalType": "address",
          "name": "account",
          "type": "address"
        },
        {
          "indexed": true,
          "internalType": "contract IProduct",
          "name": "product",
          "type": "address"
        },
        {
          "indexed": false,
          "internalType": "UFixed18",
          "name": "amount",
          "type": "uint256"
        }
      ],
      "name": "WrapAndDeposit",
      "type": "event"
    },
    {
      "inputs": [],
      "name": "DSU",
      "outputs": [
        {
          "internalType": "Token18",
          "name": "",
          "type": "address"
        }
      ],
      "stateMutability": "view",
      "type": "function"
    },
    {
      "inputs": [],
      "name": "USDC",
      "outputs": [
        {
          "internalType": "Token6",
          "name": "",
          "type": "address"
        }
      ],
      "stateMutability": "view",
      "type": "function"
    },
    {
      "inputs": [],
      "name": "batcher",
      "outputs": [
        {
          "internalType": "contract IBatcher",
          "name": "",
          "type": "address"
        }
      ],
      "stateMutability": "view",
      "type": "function"
    },
    {
      "inputs": [],
      "name": "collateral",
      "outputs": [
        {
          "internalType": "contract ICollateral",
          "name": "",
          "type": "address"
        }
      ],
      "stateMutability": "view",
      "type": "function"
    },
    {
      "inputs": [
        {
          "internalType": "address",
          "name": "account",
          "type": "address"
        },
        {
          "internalType": "contract IProduct",
          "name": "product",
          "type": "address"
        },
        {
          "internalType": "UFixed18",
          "name": "amount",
          "type": "uint256"
        }
      ],
      "name": "wrapAndDeposit",
      "outputs": [],
      "stateMutability": "nonpayable",
      "type": "function"
    }
  ],
  "transactionHash": "0x9a1e98e0f082ac102be2ecbaeb90a4392e50dec44037a3908531f4f1b66973ab",
  "args": [
    "0xb7a4F3E9097C08dA09517b5aB877F7a917224ede",
    "0x1e7d42D73291A9580F1f9b6483928319CE1c3d75",
    "0xd9a05F4b6277cD968F60C05f498F6e3719469c2f",
    "0xaf146A62aB4Cfd042338d5a6Bf22b1DcE9b23Dbc"
  ],
  "numDeployments": 1,
  "solcInputHash": "b8274f6dd1d105c22962cd6c5ef4c924",
  "bytecode": "0x6101006040523480156200001257600080fd5b5060405162001ee538038062001ee583398181016040528101906200003891906200075e565b8373ffffffffffffffffffffffffffffffffffffffff1660808173ffffffffffffffffffffffffffffffffffffffff16815250508273ffffffffffffffffffffffffffffffffffffffff1660a08173ffffffffffffffffffffffffffffffffffffffff16815250508173ffffffffffffffffffffffffffffffffffffffff1660c08173ffffffffffffffffffffffffffffffffffffffff16815250508073ffffffffffffffffffffffffffffffffffffffff1660e08173ffffffffffffffffffffffffffffffffffffffff16815250506200013c60c05160805173ffffffffffffffffffffffffffffffffffffffff166200017a60201b620003641790919060201c565b6200017060e05160a05173ffffffffffffffffffffffffffffffffffffffff16620001d060201b620003b31790919060201c565b5050505062000c90565b620001cc817fffffffffffffffffffffffffffffffffffffffffffffffffffffffffffffffff8473ffffffffffffffffffffffffffffffffffffffff166200022660201b62000402179092919060201c565b5050565b62000222817fffffffffffffffffffffffffffffffffffffffffffffffffffffffffffffffff8473ffffffffffffffffffffffffffffffffffffffff166200022660201b62000402179092919060201c565b5050565b6000811480620002b6575060008373ffffffffffffffffffffffffffffffffffffffff1663dd62ed3e30856040518363ffffffff1660e01b815260040162000270929190620007e1565b602060405180830381865afa1580156200028e573d6000803e3d6000fd5b505050506040513d601f19601f82011682018060405250810190620002b4919062000849565b145b620002f8576040517f08c379a0000000000000000000000000000000000000000000000000000000008152600401620002ef9062000902565b60405180910390fd5b620003838363095ea7b360e01b84846040516024016200031a92919062000935565b604051602081830303815290604052907bffffffffffffffffffffffffffffffffffffffffffffffffffffffff19166020820180517bffffffffffffffffffffffffffffffffffffffffffffffffffffffff83818316178352505050506200038860201b60201c565b505050565b6000620003f1826040518060400160405280602081526020017f5361666545524332303a206c6f772d6c6576656c2063616c6c206661696c65648152508573ffffffffffffffffffffffffffffffffffffffff166200045c60201b62000551179092919060201c565b90506000815111156200045757808060200190518101906200041491906200099f565b62000456576040517f08c379a00000000000000000000000000000000000000000000000000000000081526004016200044d9062000a47565b60405180910390fd5b5b505050565b60606200047384846000856200047c60201b60201c565b90509392505050565b606082471015620004c4576040517f08c379a0000000000000000000000000000000000000000000000000000000008152600401620004bb9062000adf565b60405180910390fd5b620004d585620005aa60201b60201c565b62000517576040517f08c379a00000000000000000000000000000000000000000000000000000000081526004016200050e9062000b51565b60405180910390fd5b6000808673ffffffffffffffffffffffffffffffffffffffff16858760405162000542919062000bf6565b60006040518083038185875af1925050503d806000811462000581576040519150601f19603f3d011682016040523d82523d6000602084013e62000586565b606091505b50915091506200059e828286620005cd60201b60201c565b92505050949350505050565b6000808273ffffffffffffffffffffffffffffffffffffffff163b119050919050565b60608315620005df5782905062000632565b600083511115620005f35782518084602001fd5b816040517f08c379a000000000000000000000000000000000000000000000000000000000815260040162000629919062000c6c565b60405180910390fd5b9392505050565b600080fd5b600073ffffffffffffffffffffffffffffffffffffffff82169050919050565b60006200066b826200063e565b9050919050565b6200067d816200065e565b81146200068957600080fd5b50565b6000815190506200069d8162000672565b92915050565b620006ae816200065e565b8114620006ba57600080fd5b50565b600081519050620006ce81620006a3565b92915050565b6000620006e1826200065e565b9050919050565b620006f381620006d4565b8114620006ff57600080fd5b50565b6000815190506200071381620006e8565b92915050565b600062000726826200065e565b9050919050565b620007388162000719565b81146200074457600080fd5b50565b60008151905062000758816200072d565b92915050565b600080600080608085870312156200077b576200077a62000639565b5b60006200078b878288016200068c565b94505060206200079e87828801620006bd565b9350506040620007b18782880162000702565b9250506060620007c48782880162000747565b91505092959194509250565b620007db816200065e565b82525050565b6000604082019050620007f86000830185620007d0565b620008076020830184620007d0565b9392505050565b6000819050919050565b62000823816200080e565b81146200082f57600080fd5b50565b600081519050620008438162000818565b92915050565b60006020828403121562000862576200086162000639565b5b6000620008728482850162000832565b91505092915050565b600082825260208201905092915050565b7f5361666545524332303a20617070726f76652066726f6d206e6f6e2d7a65726f60008201527f20746f206e6f6e2d7a65726f20616c6c6f77616e636500000000000000000000602082015250565b6000620008ea6036836200087b565b9150620008f7826200088c565b604082019050919050565b600060208201905081810360008301526200091d81620008db565b9050919050565b6200092f816200080e565b82525050565b60006040820190506200094c6000830185620007d0565b6200095b602083018462000924565b9392505050565b60008115159050919050565b620009798162000962565b81146200098557600080fd5b50565b60008151905062000999816200096e565b92915050565b600060208284031215620009b857620009b762000639565b5b6000620009c88482850162000988565b91505092915050565b7f5361666545524332303a204552433230206f7065726174696f6e20646964206e60008201527f6f74207375636365656400000000000000000000000000000000000000000000602082015250565b600062000a2f602a836200087b565b915062000a3c82620009d1565b604082019050919050565b6000602082019050818103600083015262000a628162000a20565b9050919050565b7f416464726573733a20696e73756666696369656e742062616c616e636520666f60008201527f722063616c6c0000000000000000000000000000000000000000000000000000602082015250565b600062000ac76026836200087b565b915062000ad48262000a69565b604082019050919050565b6000602082019050818103600083015262000afa8162000ab8565b9050919050565b7f416464726573733a2063616c6c20746f206e6f6e2d636f6e7472616374000000600082015250565b600062000b39601d836200087b565b915062000b468262000b01565b602082019050919050565b6000602082019050818103600083015262000b6c8162000b2a565b9050919050565b600081519050919050565b600081905092915050565b60005b8381101562000ba957808201518184015260208101905062000b8c565b8381111562000bb9576000848401525b50505050565b600062000bcc8262000b73565b62000bd8818562000b7e565b935062000bea81856020860162000b89565b80840191505092915050565b600062000c04828462000bbf565b915081905092915050565b600081519050919050565b6000601f19601f8301169050919050565b600062000c388262000c0f565b62000c4481856200087b565b935062000c5681856020860162000b89565b62000c618162000c1a565b840191505092915050565b6000602082019050818103600083015262000c88818462000c2b565b905092915050565b60805160a05160c05160e05161120662000cdf60003960008181610201015261034201526000818161010201526101740152600061031e01526000818161012d01526102fa01526112066000f3fe608060405234801561001057600080fd5b50600436106100675760003560e01c806389a302711161005057806389a30271146100a6578063a2060bcf146100c4578063d8dfeb45146100e257610067565b8063025a3a291461006c57806344bc170a1461008a575b600080fd5b610074610100565b6040516100819190610986565b60405180910390f35b6100a4600480360381019061009f9190610a58565b610124565b005b6100ae6102f8565b6040516100bb9190610acc565b60405180910390f35b6100cc61031c565b6040516100d99190610af6565b60405180910390f35b6100ea610340565b6040516100f79190610b32565b60405180910390f35b7f000000000000000000000000000000000000000000000000000000000000000081565b610172338260017f000000000000000000000000000000000000000000000000000000000000000073ffffffffffffffffffffffffffffffffffffffff16610569909392919063ffffffff16565b7f000000000000000000000000000000000000000000000000000000000000000073ffffffffffffffffffffffffffffffffffffffff166313bac82082306040518363ffffffff1660e01b81526004016101cd929190610b8d565b600060405180830381600087803b1580156101e757600080fd5b505af11580156101fb573d6000803e3d6000fd5b505050507f000000000000000000000000000000000000000000000000000000000000000073ffffffffffffffffffffffffffffffffffffffff1663f213159c8484846040518463ffffffff1660e01b815260040161025c93929190610bd7565b600060405180830381600087803b15801561027657600080fd5b505af115801561028a573d6000803e3d6000fd5b505050508173ffffffffffffffffffffffffffffffffffffffff168373ffffffffffffffffffffffffffffffffffffffff167f8e7ce60e353ab1a4cc59ca4782bdc69e0565713d1824dce27e0de2e362147ed0836040516102eb9190610c0e565b60405180910390a3505050565b7f000000000000000000000000000000000000000000000000000000000000000081565b7f000000000000000000000000000000000000000000000000000000000000000081565b7f000000000000000000000000000000000000000000000000000000000000000081565b6103af817fffffffffffffffffffffffffffffffffffffffffffffffffffffffffffffffff8473ffffffffffffffffffffffffffffffffffffffff166104029092919063ffffffff16565b5050565b6103fe817fffffffffffffffffffffffffffffffffffffffffffffffffffffffffffffffff8473ffffffffffffffffffffffffffffffffffffffff166104029092919063ffffffff16565b5050565b600081148061048c575060008373ffffffffffffffffffffffffffffffffffffffff1663dd62ed3e30856040518363ffffffff1660e01b8152600401610449929190610c29565b602060405180830381865afa158015610466573d6000803e3d6000fd5b505050506040513d601f19601f8201168201806040525081019061048a9190610c7e565b145b6104cb576040517f08c379a00000000000000000000000000000000000000000000000000000000081526004016104c290610d2e565b60405180910390fd5b61054c8363095ea7b360e01b84846040516024016104ea929190610d5d565b604051602081830303815290604052907bffffffffffffffffffffffffffffffffffffffffffffffffffffffff19166020820180517bffffffffffffffffffffffffffffffffffffffffffffffffffffffff83818316178352505050506105a5565b505050565b6060610560848460008561066c565b90509392505050565b61059f83306105788585610780565b8773ffffffffffffffffffffffffffffffffffffffff166107b5909392919063ffffffff16565b50505050565b6000610607826040518060400160405280602081526020017f5361666545524332303a206c6f772d6c6576656c2063616c6c206661696c65648152508573ffffffffffffffffffffffffffffffffffffffff166105519092919063ffffffff16565b905060008151111561066757808060200190518101906106279190610dbe565b610666576040517f08c379a000000000000000000000000000000000000000000000000000000000815260040161065d90610e5d565b60405180910390fd5b5b505050565b6060824710156106b1576040517f08c379a00000000000000000000000000000000000000000000000000000000081526004016106a890610eef565b60405180910390fd5b6106ba8561083e565b6106f9576040517f08c379a00000000000000000000000000000000000000000000000000000000081526004016106f090610f5b565b60405180910390fd5b6000808673ffffffffffffffffffffffffffffffffffffffff1685876040516107229190610ff5565b60006040518083038185875af1925050503d806000811461075f576040519150601f19603f3d011682016040523d82523d6000602084013e610764565b606091505b5091509150610774828286610861565b92505050949350505050565b60008161079d5764e8d4a5100083610798919061106a565b6107ad565b6107ac8364e8d4a510006108c8565b5b905092915050565b610838846323b872dd60e01b8585856040516024016107d69392919061109b565b604051602081830303815290604052907bffffffffffffffffffffffffffffffffffffffffffffffffffffffff19166020820180517bffffffffffffffffffffffffffffffffffffffffffffffffffffffff83818316178352505050506105a5565b50505050565b6000808273ffffffffffffffffffffffffffffffffffffffff163b119050919050565b60608315610871578290506108c1565b6000835111156108845782518084602001fd5b816040517f08c379a00000000000000000000000000000000000000000000000000000000081526004016108b89190611127565b60405180910390fd5b9392505050565b60008082846108d79190611149565b146108e35760016108e6565b60005b60ff1682846108f5919061106a565b6108ff919061117a565b905092915050565b600073ffffffffffffffffffffffffffffffffffffffff82169050919050565b6000819050919050565b600061094c61094761094284610907565b610927565b610907565b9050919050565b600061095e82610931565b9050919050565b600061097082610953565b9050919050565b61098081610965565b82525050565b600060208201905061099b6000830184610977565b92915050565b600080fd5b60006109b182610907565b9050919050565b6109c1816109a6565b81146109cc57600080fd5b50565b6000813590506109de816109b8565b92915050565b60006109ef826109a6565b9050919050565b6109ff816109e4565b8114610a0a57600080fd5b50565b600081359050610a1c816109f6565b92915050565b6000819050919050565b610a3581610a22565b8114610a4057600080fd5b50565b600081359050610a5281610a2c565b92915050565b600080600060608486031215610a7157610a706109a1565b5b6000610a7f868287016109cf565b9350506020610a9086828701610a0d565b9250506040610aa186828701610a43565b9150509250925092565b6000610ab682610953565b9050919050565b610ac681610aab565b82525050565b6000602082019050610ae16000830184610abd565b92915050565b610af081610aab565b82525050565b6000602082019050610b0b6000830184610ae7565b92915050565b6000610b1c82610953565b9050919050565b610b2c81610b11565b82525050565b6000602082019050610b476000830184610b23565b92915050565b6000610b68610b63610b5e84610a22565b610927565b610a22565b9050919050565b610b7881610b4d565b82525050565b610b87816109a6565b82525050565b6000604082019050610ba26000830185610b6f565b610baf6020830184610b7e565b9392505050565b6000610bc182610953565b9050919050565b610bd181610bb6565b82525050565b6000606082019050610bec6000830186610b7e565b610bf96020830185610bc8565b610c066040830184610b6f565b949350505050565b6000602082019050610c236000830184610b6f565b92915050565b6000604082019050610c3e6000830185610b7e565b610c4b6020830184610b7e565b9392505050565b610c5b81610a22565b8114610c6657600080fd5b50565b600081519050610c7881610c52565b92915050565b600060208284031215610c9457610c936109a1565b5b6000610ca284828501610c69565b91505092915050565b600082825260208201905092915050565b7f5361666545524332303a20617070726f76652066726f6d206e6f6e2d7a65726f60008201527f20746f206e6f6e2d7a65726f20616c6c6f77616e636500000000000000000000602082015250565b6000610d18603683610cab565b9150610d2382610cbc565b604082019050919050565b60006020820190508181036000830152610d4781610d0b565b9050919050565b610d5781610a22565b82525050565b6000604082019050610d726000830185610b7e565b610d7f6020830184610d4e565b9392505050565b60008115159050919050565b610d9b81610d86565b8114610da657600080fd5b50565b600081519050610db881610d92565b92915050565b600060208284031215610dd457610dd36109a1565b5b6000610de284828501610da9565b91505092915050565b7f5361666545524332303a204552433230206f7065726174696f6e20646964206e60008201527f6f74207375636365656400000000000000000000000000000000000000000000602082015250565b6000610e47602a83610cab565b9150610e5282610deb565b604082019050919050565b60006020820190508181036000830152610e7681610e3a565b9050919050565b7f416464726573733a20696e73756666696369656e742062616c616e636520666f60008201527f722063616c6c0000000000000000000000000000000000000000000000000000602082015250565b6000610ed9602683610cab565b9150610ee482610e7d565b604082019050919050565b60006020820190508181036000830152610f0881610ecc565b9050919050565b7f416464726573733a2063616c6c20746f206e6f6e2d636f6e7472616374000000600082015250565b6000610f45601d83610cab565b9150610f5082610f0f565b602082019050919050565b60006020820190508181036000830152610f7481610f38565b9050919050565b600081519050919050565b600081905092915050565b60005b83811015610faf578082015181840152602081019050610f94565b83811115610fbe576000848401525b50505050565b6000610fcf82610f7b565b610fd98185610f86565b9350610fe9818560208601610f91565b80840191505092915050565b60006110018284610fc4565b915081905092915050565b7f4e487b7100000000000000000000000000000000000000000000000000000000600052601260045260246000fd5b7f4e487b7100000000000000000000000000000000000000000000000000000000600052601160045260246000fd5b600061107582610a22565b915061108083610a22565b9250826110905761108f61100c565b5b828204905092915050565b60006060820190506110b06000830186610b7e565b6110bd6020830185610b7e565b6110ca6040830184610d4e565b949350505050565b600081519050919050565b6000601f19601f8301169050919050565b60006110f9826110d2565b6111038185610cab565b9350611113818560208601610f91565b61111c816110dd565b840191505092915050565b6000602082019050818103600083015261114181846110ee565b905092915050565b600061115482610a22565b915061115f83610a22565b92508261116f5761116e61100c565b5b828206905092915050565b600061118582610a22565b915061119083610a22565b9250827fffffffffffffffffffffffffffffffffffffffffffffffffffffffffffffffff038211156111c5576111c461103b565b5b82820190509291505056fea264697066735822122043b005e58cdede1a486b87b634a8466f836da6a95ea3757299b29fbde406180c64736f6c634300080e0033",
  "devdoc": {
    "kind": "dev",
    "methods": {
      "constructor": {
        "params": {
          "batcher_": "The USDC-to-DSU batcher contract address",
          "collateral_": "The perennial collateral contract address",
          "dsu_": "The DSU token contract address",
          "usdc_": "The USDC token contract address"
        }
      },
      "wrapAndDeposit(address,address,uint256)": {
        "params": {
          "account": "Account to deposit the collateral for",
          "amount": "18 decimals-normalized stablecoin (USDC, DSU) value of collateral to deposit",
          "product": "Product to credit the collateral to"
        }
      }
    },
    "stateVariables": {
      "batcher": {
        "details": "Contract that wraps USDC to DSU"
      },
      "collateral": {
        "details": "Contract managing state for collateral accounts in the protocol"
      }
    },
    "title": "Forwarder",
    "version": 1
  },
  "userdoc": {
    "kind": "user",
    "methods": {
      "constructor": {
        "notice": "Initializes the contract state"
      },
      "wrapAndDeposit(address,address,uint256)": {
        "notice": "Pulls `amount` of USDC from `msg.sender`'s balance, wraps it as DSU, and deposits it as collateral to `account`'s `product` account"
      }
    },
    "notice": "Facilitates collateral deposits to the protocol where the amount is supplied         in USDC then wrapped as DSU before being deposited.",
    "version": 1
  },
  "storageLayout": {
    "storage": [],
    "types": null
  }
}