{
  "address": "0x8eff96CDF5a77C6a4a5Ed2247D88Fe4e4aB8812E",
  "abi": [
    {
      "inputs": [],
      "name": "AlreadyInitializedError",
      "type": "error"
    },
    {
      "inputs": [
        {
          "internalType": "uint256",
          "name": "value",
          "type": "uint256"
        }
      ],
      "name": "Fixed18OverflowError",
      "type": "error"
    },
    {
      "inputs": [
        {
          "internalType": "uint256",
          "name": "programId",
          "type": "uint256"
        }
      ],
      "name": "IncentivizerInvalidProgramError",
      "type": "error"
    },
    {
      "inputs": [
        {
          "internalType": "address",
          "name": "sender",
          "type": "address"
        },
        {
          "internalType": "uint256",
          "name": "programId",
          "type": "uint256"
        }
      ],
      "name": "IncentivizerNotProgramOwnerError",
      "type": "error"
    },
    {
      "inputs": [],
      "name": "IncentivizerProgramNotClosableError",
      "type": "error"
    },
    {
      "inputs": [
        {
          "internalType": "address",
          "name": "sender",
          "type": "address"
        },
        {
          "internalType": "uint256",
          "name": "programId",
          "type": "uint256"
        }
      ],
      "name": "IncentivizerProgramPausedError",
      "type": "error"
    },
    {
      "inputs": [],
      "name": "IncentivizerTooManyProgramsError",
      "type": "error"
    },
    {
      "inputs": [],
      "name": "InvalidControllerError",
      "type": "error"
    },
    {
      "inputs": [
        {
          "internalType": "address",
          "name": "sender",
          "type": "address"
        }
      ],
      "name": "NotCollateralError",
      "type": "error"
    },
    {
      "inputs": [
        {
          "internalType": "address",
          "name": "sender",
          "type": "address"
        }
      ],
      "name": "NotOwnerError",
      "type": "error"
    },
    {
      "inputs": [
        {
          "internalType": "address",
          "name": "sender",
          "type": "address"
        }
      ],
      "name": "NotProductError",
      "type": "error"
    },
    {
      "inputs": [
        {
          "internalType": "address",
          "name": "sender",
          "type": "address"
        },
        {
          "internalType": "contract IProduct",
          "name": "product",
          "type": "address"
        }
      ],
      "name": "NotProductOwnerError",
      "type": "error"
    },
    {
      "inputs": [],
      "name": "PausedError",
      "type": "error"
    },
    {
      "inputs": [],
      "name": "ProgramAlreadyStartedError",
      "type": "error"
    },
    {
      "inputs": [],
      "name": "ProgramInvalidDurationError",
      "type": "error"
    },
    {
      "inputs": [],
      "name": "ProgramInvalidGraceError",
      "type": "error"
    },
    {
      "inputs": [],
      "name": "TokenPullEtherError",
      "type": "error"
    },
    {
      "inputs": [
        {
          "internalType": "int256",
          "name": "value",
          "type": "int256"
        }
      ],
      "name": "UFixed18UnderflowError",
      "type": "error"
    },
    {
      "inputs": [
        {
          "internalType": "uint256",
          "name": "version",
          "type": "uint256"
        }
      ],
      "name": "UInitializableAlreadyInitializedError",
      "type": "error"
    },
    {
      "inputs": [],
      "name": "UInitializableNotInitializingError",
      "type": "error"
    },
    {
      "inputs": [],
      "name": "UInitializableZeroVersionError",
      "type": "error"
    },
    {
      "inputs": [],
      "name": "UReentrancyGuardReentrantCallError",
      "type": "error"
    },
    {
      "anonymous": false,
      "inputs": [
        {
          "indexed": true,
          "internalType": "address",
          "name": "account",
          "type": "address"
        },
        {
          "indexed": true,
          "internalType": "uint256",
          "name": "programId",
          "type": "uint256"
        },
        {
          "indexed": false,
          "internalType": "UFixed18",
          "name": "amount",
          "type": "uint256"
        }
      ],
      "name": "Claim",
      "type": "event"
    },
    {
      "anonymous": false,
      "inputs": [
        {
          "indexed": true,
          "internalType": "Token",
          "name": "token",
          "type": "address"
        },
        {
          "indexed": false,
          "internalType": "UFixed18",
          "name": "amount",
          "type": "uint256"
        }
      ],
      "name": "FeeClaim",
      "type": "event"
    },
    {
      "anonymous": false,
      "inputs": [
        {
          "indexed": true,
          "internalType": "uint256",
          "name": "programId",
          "type": "uint256"
        },
        {
          "indexed": false,
          "internalType": "UFixed18",
          "name": "amount",
          "type": "uint256"
        }
      ],
      "name": "ProgramClosed",
      "type": "event"
    },
    {
      "anonymous": false,
      "inputs": [
        {
          "indexed": true,
          "internalType": "uint256",
          "name": "programId",
          "type": "uint256"
        },
        {
          "indexed": false,
          "internalType": "uint256",
          "name": "versionComplete",
          "type": "uint256"
        }
      ],
      "name": "ProgramCompleted",
      "type": "event"
    },
    {
      "anonymous": false,
      "inputs": [
        {
          "indexed": true,
          "internalType": "uint256",
          "name": "programId",
          "type": "uint256"
        },
        {
          "indexed": false,
          "internalType": "contract IProduct",
          "name": "product",
          "type": "address"
        },
        {
          "indexed": false,
          "internalType": "Token",
          "name": "token",
          "type": "address"
        },
        {
          "indexed": false,
          "internalType": "UFixed18",
          "name": "amountMaker",
          "type": "uint256"
        },
        {
          "indexed": false,
          "internalType": "UFixed18",
          "name": "amountTaker",
          "type": "uint256"
        },
        {
          "indexed": false,
          "internalType": "uint256",
          "name": "start",
          "type": "uint256"
        },
        {
          "indexed": false,
          "internalType": "uint256",
          "name": "duration",
          "type": "uint256"
        },
        {
          "indexed": false,
          "internalType": "uint256",
          "name": "grace",
          "type": "uint256"
        },
        {
          "indexed": false,
          "internalType": "UFixed18",
          "name": "fee",
          "type": "uint256"
        }
      ],
      "name": "ProgramCreated",
      "type": "event"
    },
    {
      "inputs": [
        {
          "internalType": "uint256",
          "name": "programId",
          "type": "uint256"
        }
      ],
      "name": "available",
      "outputs": [
        {
          "internalType": "UFixed18",
          "name": "",
          "type": "uint256"
        }
      ],
      "stateMutability": "view",
      "type": "function"
    },
    {
      "inputs": [
        {
          "internalType": "contract IProduct",
          "name": "product",
          "type": "address"
        }
      ],
      "name": "claim",
      "outputs": [],
      "stateMutability": "nonpayable",
      "type": "function"
    },
    {
      "inputs": [
        {
          "internalType": "uint256",
          "name": "programId",
          "type": "uint256"
        }
      ],
      "name": "claim",
      "outputs": [],
      "stateMutability": "nonpayable",
      "type": "function"
    },
    {
      "inputs": [
        {
          "internalType": "Token[]",
          "name": "tokens",
          "type": "address[]"
        }
      ],
      "name": "claimFee",
      "outputs": [],
      "stateMutability": "nonpayable",
      "type": "function"
    },
    {
      "inputs": [
        {
          "internalType": "uint256",
          "name": "programId",
          "type": "uint256"
        }
      ],
      "name": "close",
      "outputs": [],
      "stateMutability": "nonpayable",
      "type": "function"
    },
    {
      "inputs": [
        {
          "internalType": "uint256",
          "name": "programId",
          "type": "uint256"
        }
      ],
      "name": "closed",
      "outputs": [
        {
          "internalType": "bool",
          "name": "",
          "type": "bool"
        }
      ],
      "stateMutability": "view",
      "type": "function"
    },
    {
      "inputs": [],
      "name": "controller",
      "outputs": [
        {
          "internalType": "contract IController",
          "name": "",
          "type": "address"
        }
      ],
      "stateMutability": "view",
      "type": "function"
    },
    {
      "inputs": [
        {
          "components": [
            {
              "components": [
                {
                  "internalType": "UFixed18",
                  "name": "maker",
                  "type": "uint256"
                },
                {
                  "internalType": "UFixed18",
                  "name": "taker",
                  "type": "uint256"
                }
              ],
              "internalType": "struct Position",
              "name": "amount",
              "type": "tuple"
            },
            {
              "internalType": "uint256",
              "name": "start",
              "type": "uint256"
            },
            {
              "internalType": "uint256",
              "name": "duration",
              "type": "uint256"
            },
            {
              "internalType": "uint256",
              "name": "grace",
              "type": "uint256"
            },
            {
              "internalType": "contract IProduct",
              "name": "product",
              "type": "address"
            },
            {
              "internalType": "Token",
              "name": "token",
              "type": "address"
            }
          ],
          "internalType": "struct ProgramInfo",
          "name": "info",
          "type": "tuple"
        }
      ],
      "name": "create",
      "outputs": [
        {
          "internalType": "uint256",
          "name": "",
          "type": "uint256"
        }
      ],
      "stateMutability": "nonpayable",
      "type": "function"
    },
    {
      "inputs": [
        {
          "internalType": "uint256",
          "name": "programId",
          "type": "uint256"
        }
      ],
      "name": "end",
      "outputs": [],
      "stateMutability": "nonpayable",
      "type": "function"
    },
    {
      "inputs": [
        {
          "internalType": "Token",
          "name": "",
          "type": "address"
        }
      ],
      "name": "fees",
      "outputs": [
        {
          "internalType": "UFixed18",
          "name": "",
          "type": "uint256"
        }
      ],
      "stateMutability": "view",
      "type": "function"
    },
    {
      "inputs": [
        {
          "internalType": "contract IController",
          "name": "controller_",
          "type": "address"
        }
      ],
      "name": "initialize",
      "outputs": [],
      "stateMutability": "nonpayable",
      "type": "function"
    },
    {
      "inputs": [
        {
          "internalType": "address",
          "name": "account",
          "type": "address"
        },
        {
          "internalType": "uint256",
          "name": "programId",
          "type": "uint256"
        }
      ],
      "name": "latestVersion",
      "outputs": [
        {
          "internalType": "uint256",
          "name": "",
          "type": "uint256"
        }
      ],
      "stateMutability": "view",
      "type": "function"
    },
    {
      "inputs": [
        {
          "internalType": "uint256",
          "name": "programId",
          "type": "uint256"
        }
      ],
      "name": "owner",
      "outputs": [
        {
          "internalType": "address",
          "name": "",
          "type": "address"
        }
      ],
      "stateMutability": "view",
      "type": "function"
    },
    {
      "inputs": [
        {
          "internalType": "uint256",
          "name": "programId",
          "type": "uint256"
        }
      ],
      "name": "paused",
      "outputs": [
        {
          "internalType": "bool",
          "name": "",
          "type": "bool"
        }
      ],
      "stateMutability": "view",
      "type": "function"
    },
    {
      "inputs": [
        {
          "internalType": "uint256",
          "name": "programId",
          "type": "uint256"
        }
      ],
      "name": "programInfos",
      "outputs": [
        {
          "components": [
            {
              "components": [
                {
                  "internalType": "UFixed18",
                  "name": "maker",
                  "type": "uint256"
                },
                {
                  "internalType": "UFixed18",
                  "name": "taker",
                  "type": "uint256"
                }
              ],
              "internalType": "struct Position",
              "name": "amount",
              "type": "tuple"
            },
            {
              "internalType": "uint256",
              "name": "start",
              "type": "uint256"
            },
            {
              "internalType": "uint256",
              "name": "duration",
              "type": "uint256"
            },
            {
              "internalType": "uint256",
              "name": "grace",
              "type": "uint256"
            },
            {
              "internalType": "contract IProduct",
              "name": "product",
              "type": "address"
            },
            {
              "internalType": "Token",
              "name": "token",
              "type": "address"
            }
          ],
          "internalType": "struct ProgramInfo",
          "name": "",
          "type": "tuple"
        }
      ],
      "stateMutability": "view",
      "type": "function"
    },
    {
      "inputs": [
        {
          "internalType": "contract IProduct",
          "name": "product",
          "type": "address"
        },
        {
          "internalType": "uint256",
          "name": "index",
          "type": "uint256"
        }
      ],
      "name": "programsForAt",
      "outputs": [
        {
          "internalType": "uint256",
          "name": "",
          "type": "uint256"
        }
      ],
      "stateMutability": "view",
      "type": "function"
    },
    {
      "inputs": [
        {
          "internalType": "contract IProduct",
          "name": "product",
          "type": "address"
        }
      ],
      "name": "programsForLength",
      "outputs": [
        {
          "internalType": "uint256",
          "name": "",
          "type": "uint256"
        }
      ],
      "stateMutability": "view",
      "type": "function"
    },
    {
      "inputs": [
        {
          "internalType": "address",
          "name": "account",
          "type": "address"
        },
        {
          "internalType": "uint256",
          "name": "programId",
          "type": "uint256"
        }
      ],
      "name": "settled",
      "outputs": [
        {
          "internalType": "UFixed18",
          "name": "",
          "type": "uint256"
        }
      ],
      "stateMutability": "view",
      "type": "function"
    },
    {
      "inputs": [
        {
          "components": [
            {
              "internalType": "uint256",
              "name": "version",
              "type": "uint256"
            },
            {
              "internalType": "uint256",
              "name": "timestamp",
              "type": "uint256"
            },
            {
              "internalType": "Fixed18",
              "name": "price",
              "type": "int256"
            }
          ],
          "internalType": "struct IOracleProvider.OracleVersion",
          "name": "currentOracleVersion",
          "type": "tuple"
        }
      ],
      "name": "sync",
      "outputs": [],
      "stateMutability": "nonpayable",
      "type": "function"
    },
    {
      "inputs": [
        {
          "internalType": "address",
          "name": "account",
          "type": "address"
        }
      ],
      "name": "syncAccount",
      "outputs": [],
      "stateMutability": "nonpayable",
      "type": "function"
    },
    {
      "inputs": [
        {
          "internalType": "uint256",
          "name": "programId",
          "type": "uint256"
        }
      ],
      "name": "treasury",
      "outputs": [
        {
          "internalType": "address",
          "name": "",
          "type": "address"
        }
      ],
      "stateMutability": "view",
      "type": "function"
    },
    {
      "inputs": [
        {
          "internalType": "address",
          "name": "account",
          "type": "address"
        },
        {
          "internalType": "uint256",
          "name": "programId",
          "type": "uint256"
        }
      ],
      "name": "unclaimed",
      "outputs": [
        {
          "internalType": "UFixed18",
          "name": "",
          "type": "uint256"
        }
      ],
      "stateMutability": "view",
      "type": "function"
    },
    {
      "inputs": [
        {
          "internalType": "uint256",
          "name": "programId",
          "type": "uint256"
        }
      ],
      "name": "versionComplete",
      "outputs": [
        {
          "internalType": "uint256",
          "name": "",
          "type": "uint256"
        }
      ],
      "stateMutability": "view",
      "type": "function"
    }
  ],
  "transactionHash": "0x7ca7d5da092b88881ef8f273c754cf215100c4546f376854c84d9b847275dc95",
  "args": [],
  "numDeployments": 1,
  "solcInputHash": "669da26b2049a035994bb66b35ec132a",
  "bytecode": "0x608060405234801561001057600080fd5b50613c6b806100206000396000f3fe608060405234801561001057600080fd5b506004361061018c5760003560e01c806396e494e8116100e3578063b774b6011161008c578063d865a71e11610066578063d865a71e14610423578063f77c479114610436578063faaebd211461043e57600080fd5b8063b774b601146103c8578063c4d66de8146103db578063cd6edd09146103ee57600080fd5b8063a55ff01d116100bd578063a55ff01d1461038f578063ab0068f4146103a2578063b6bf43cb146103b557600080fd5b806396e494e8146102e75780639ad5413e1461030a578063a123c33e1461037c57600080fd5b8063379607f5116101455780635c959b621161011f5780635c959b621461028b57806375938643146102b15780638c2fdb50146102c457600080fd5b8063379607f51461023a578063499aa1471461024d5780634c5430a01461026057600080fd5b80630aebeb4e116101765780630aebeb4e146101ce5780631e83409a146101e15780633209127d146101f457600080fd5b8062dde10e146101915780630ad24528146101b9575b600080fd5b6101a461019f3660046134e9565b61045e565b60405190151581526020015b60405180910390f35b6101cc6101c73660046134e9565b610523565b005b6101cc6101dc3660046134e9565b610649565b6101cc6101ef366004613517565b6108b5565b61022c610202366004613534565b60009081526001602081815260408084206001600160a01b03959095168452939091019052205490565b6040519081526020016101b0565b6101cc6102483660046134e9565b610b3c565b61022c61025b366004613560565b610cd7565b61027361026e3660046134e9565b611471565b6040516001600160a01b0390911681526020016101b0565b6101a46102993660046134e9565b60009081526001602052604090206004015460ff1690565b6101cc6102bf366004613517565b6115c2565b61022c6102d23660046134e9565b60009081526001602052604090206003015490565b61022c6102f53660046134e9565b60009081526001602052604090206002015490565b61031d6103183660046134e9565b61172c565b604080518251805182526020908101518183015283015181830152908201516060808301919091528201516080808301919091528201516001600160a01b0390811660a0808401919091529092015190911660c082015260e0016101b0565b61027361038a3660046134e9565b6117fa565b6101cc61039d3660046135e0565b6118dd565b61022c6103b0366004613517565b611a70565b61022c6103c3366004613534565b611a91565b6101cc6103d636600461361c565b611aba565b6101cc6103e9366004613517565b611c90565b61022c6103fc366004613534565b60009081526001602090815260408083206001600160a01b03949094168352929052205490565b61022c610431366004613534565b611d7b565b610273611e2b565b61022c61044c366004613517565b60036020526000908152604090205481565b6000610468611e2b565b6001600160a01b0316632e48152c6000848154811061048957610489613691565b600091825260209091206007909102016005015460405160e083901b7fffffffff000000000000000000000000000000000000000000000000000000001681526001600160a01b039091166004820152602401602060405180830381865afa1580156104f9573d6000803e3d6000fd5b505050506040513d601f19601f8201168201806040525081019061051d91906136a7565b92915050565b600261053b600080516020613c168339815191525490565b0361055957604051637990191b60e11b815260040160405180910390fd5b6002600080516020613c1683398151915255600054819081106105975760405163394db33160e11b8152600481018290526024015b60405180910390fd5b816105a18161045e565b156105c857604051630d4a1b5b60e21b81523360048201526024810182905260440161058e565b826105d2816117fa565b6001600160a01b0316336001600160a01b031614610625576040517fa17e37520000000000000000000000000000000000000000000000000000000081523360048201526024810182905260440161058e565b61062e84611e5e565b50506001600080516020613c16833981519152555050565b50565b6002610661600080516020613c168339815191525490565b0361067f57604051637990191b60e11b815260040160405180910390fd5b6002600080516020613c1683398151915255600054819081106106b85760405163394db33160e11b81526004810182905260240161058e565b816106c28161045e565b156106e957604051630d4a1b5b60e21b81523360048201526024810182905260440161058e565b6000838152600160205260408120815490919081908690811061070e5761070e613691565b600091825260209182902060408051610100810182526007909302909101805460c08401908152600182015460e085015283526002810154938301939093526003830154908201526004820154606082015260058201546001600160a01b03908116608083015260068301541660a082015290915061078f90839042611f59565b6107c5576040517f2892731100000000000000000000000000000000000000000000000000000000815260040160405180910390fd5b81600301546000036107da576107da85611e5e565b600085815260016020526040812061080a9060028101805460009091556004909101805460ff1916600117905590565b905061082d61081887611471565b60068401546001600160a01b0316908361207b565b60058201546001600160a01b0316600090815260026020526040902061085390876120ca565b50857f4bda279d19f319811d901a51bb064a9a3ffdf0b3a0108f1dc37d9eca6482c48a8260405161088691815260200190565b60405180910390a250505050506106466001600080516020613c16833981519152611e5a90919063ffffffff16565b60026108cd600080516020613c168339815191525490565b036108eb57604051637990191b60e11b815260040160405180910390fd5b6002600080516020613c168339815191525580610906611e2b565b604051630b92054b60e21b81526001600160a01b0383811660048301529190911690632e48152c90602401602060405180830381865afa15801561094e573d6000803e3d6000fd5b505050506040513d601f19601f8201168201806040525081019061097291906136a7565b1561099057604051633b3b4caf60e21b815260040160405180910390fd5b81610999611e2b565b604051633fe948c960e11b81526001600160a01b0383811660048301529190911690637fd2919290602401602060405180830381865afa1580156109e1573d6000803e3d6000fd5b505050506040513d601f19601f82011682018060405250810190610a0591906136a7565b610a2d57604051634d53256560e01b81526001600160a01b038216600482015260240161058e565b826001600160a01b03166311da60b46040518163ffffffff1660e01b8152600401600060405180830381600087803b158015610a6857600080fd5b505af1158015610a7c573d6000803e3d6000fd5b505060405163f667f89760e01b81523360048201526001600160a01b038616925063f667f8979150602401600060405180830381600087803b158015610ac157600080fd5b505af1158015610ad5573d6000803e3d6000fd5b505050506000610ae484611a70565b905060005b81811015610b1657610b0433610aff8784611a91565b6120d6565b80610b0e816136df565b915050610ae9565b505050506106466001600080516020613c16833981519152611e5a90919063ffffffff16565b6002610b54600080516020613c168339815191525490565b03610b7257604051637990191b60e11b815260040160405180910390fd5b6002600080516020613c168339815191525560005481908110610bab5760405163394db33160e11b81526004810182905260240161058e565b81610bb58161045e565b15610bdc57604051630d4a1b5b60e21b81523360048201526024810182905260440161058e565b6000808481548110610bf057610bf0613691565b60009182526020822060056007909202010154604080517f11da60b400000000000000000000000000000000000000000000000000000000815290516001600160a01b03909216935083926311da60b49260048084019382900301818387803b158015610c5c57600080fd5b505af1158015610c70573d6000803e3d6000fd5b505060405163f667f89760e01b81523360048201526001600160a01b038416925063f667f8979150602401600060405180830381600087803b158015610cb557600080fd5b505af1158015610cc9573d6000803e3d6000fd5b5050505061062e33856120d6565b60006002610cf1600080516020613c168339815191525490565b03610d0f57604051637990191b60e11b815260040160405180910390fd5b6002600080516020613c1683398151915255610d3160c0830160a08401613517565b610d39611e2b565b604051630b92054b60e21b81526001600160a01b0383811660048301529190911690632e48152c90602401602060405180830381865afa158015610d81573d6000803e3d6000fd5b505050506040513d601f19601f82011682018060405250810190610da591906136a7565b15610dc357604051633b3b4caf60e21b815260040160405180910390fd5b610dd360c0840160a08501613517565b610ddb611e2b565b604051633fe948c960e11b81526001600160a01b0383811660048301529190911690637fd2919290602401602060405180830381865afa158015610e23573d6000803e3d6000fd5b505050506040513d601f19601f82011682018060405250810190610e4791906136a7565b610e6f57604051634d53256560e01b81526001600160a01b038216600482015260240161058e565b6000610e79611e2b565b90506000816001600160a01b0316638da5cb5b6040518163ffffffff1660e01b8152600401602060405180830381865afa158015610ebb573d6000803e3d6000fd5b505050506040513d601f19601f82011682018060405250810190610edf91906136f8565b6001600160a01b0316336001600160a01b0316149050816001600160a01b0316637d49c1b76040518163ffffffff1660e01b8152600401602060405180830381865afa158015610f33573d6000803e3d6000fd5b505050506040513d601f19601f82011682018060405250810190610f579190613715565b610f6a6103b060c0890160a08a01613517565b10610fa1576040517f1651519200000000000000000000000000000000000000000000000000000000815260040160405180910390fd5b8015801561105f57506001600160a01b03821663666e1b39610fc960c0890160a08a01613517565b6040517fffffffff0000000000000000000000000000000000000000000000000000000060e084901b1681526001600160a01b039091166004820152602401602060405180830381865afa158015611025573d6000803e3d6000fd5b505050506040513d601f19601f8201168201806040525081019061104991906136f8565b6001600160a01b0316336001600160a01b031614155b156110ba573361107560c0880160a08901613517565b6040517f2f697e1b0000000000000000000000000000000000000000000000000000000081526001600160a01b0392831660048201529116602482015260440161058e565b6000808054905090506000836001600160a01b0316633ceda0116040518163ffffffff1660e01b8152600401602060405180830381865afa158015611103573d6000803e3d6000fd5b505050506040513d601f19601f820116820180604052508101906111279190613715565b90506000806111448361113f368d90038d018d61378b565b6121fb565b6000805460018082018355828052845180517f290decd9548b62a8d60345a988386fc84ba6bc95484008f6362f93160ef3e5636007909402938401556020908101517f290decd9548b62a8d60345a988386fc84ba6bc95484008f6362f93160ef3e564840155808601517f290decd9548b62a8d60345a988386fc84ba6bc95484008f6362f93160ef3e5658401556040808701517f290decd9548b62a8d60345a988386fc84ba6bc95484008f6362f93160ef3e56685015560608701517f290decd9548b62a8d60345a988386fc84ba6bc95484008f6362f93160ef3e56785015560808701517f290decd9548b62a8d60345a988386fc84ba6bc95484008f6362f93160ef3e568850180547fffffffffffffffffffffffff00000000000000000000000000000000000000009081166001600160a01b039384161790915560a08901517f290decd9548b62a8d60345a988386fc84ba6bc95484008f6362f93160ef3e5699096018054909116959091169490941790935589845252902091935091506112d19083876123ba565b61130b84600260008d60a00160208101906112ec9190613517565b6001600160a01b031681526020810191909152604001600020906123e9565b5061134781600360008d60c00160208101906113279190613517565b6001600160a01b03168152602081019190915260400160002054906123f5565b6003600061135b60e08e0160c08f01613517565b6001600160a01b031681526020810191909152604001600020556113b63361139061138b368e90038e018e613828565b612401565b60018d60c00160208101906113a59190613517565b6001600160a01b0316929190612415565b60808083015160a08085015185518051602091820151828901516040808b01516060808d015183516001600160a01b039b8c1681529a909816968a01969096529088019390935292860152948401529082019290925260c081019190915260e0810182905284907fe08acb93a041ef5c9de54ad0caf5cd21f44314d2100f5872eb3df4128f4e95f7906101000160405180910390a250506001600080516020613c168339815191525550945061146c9350505050565b919050565b60008181526001602052604081208154829081908590811061149557611495613691565b906000526020600020906007020190508160040160019054906101000a900460ff16611551576114c3611e2b565b60058201546040517f2d809cb60000000000000000000000000000000000000000000000000000000081526001600160a01b039182166004820152911690632d809cb6906024015b602060405180830381865afa158015611528573d6000803e3d6000fd5b505050506040513d601f19601f8201168201806040525081019061154c91906136f8565b6115ba565b611559611e2b565b6001600160a01b03166361d027b36040518163ffffffff1660e01b8152600401602060405180830381865afa158015611596573d6000803e3d6000fd5b505050506040513d601f19601f820116820180604052508101906115ba91906136f8565b949350505050565b6115ca611e2b565b604051633fe948c960e11b81523360048201526001600160a01b039190911690637fd2919290602401602060405180830381865afa158015611610573d6000803e3d6000fd5b505050506040513d601f19601f8201168201806040525081019061163491906136a7565b61165357604051634d53256560e01b815233600482015260240161058e565b33600061165f82611a70565b905060005b818110156117265760006116788483611a91565b90506117136000828154811061169057611690613691565b6000918252602080832060408051610100810182526007909402909101805460c0850190815260018083015460e08701529085526002820154858501526003820154858401526004820154606086015260058201546001600160a01b03908116608087015260069092015490911660a0850152868552909152909120908761248d565b508061171e816136df565b915050611664565b50505050565b6040805161010081018252600060c0820181815260e08301829052825260208201819052918101829052606081018290526080810182905260a08101919091526000828154811061177f5761177f613691565b600091825260209182902060408051610100810182526007909302909101805460c08401908152600182015460e085015283526002810154938301939093526003830154908201526004820154606082015260058201546001600160a01b03908116608083015260069092015490911660a082015292915050565b60008181526001602052604081208154829081908590811061181e5761181e613691565b906000526020600020906007020190508160040160019054906101000a900460ff166118985761184c611e2b565b60058201546040517f666e1b390000000000000000000000000000000000000000000000000000000081526001600160a01b03918216600482015291169063666e1b399060240161150b565b6118a0611e2b565b6001600160a01b0316638da5cb5b6040518163ffffffff1660e01b8152600401602060405180830381865afa158015611596573d6000803e3d6000fd5b6118e5611e2b565b604051633fe948c960e11b81523360048201526001600160a01b039190911690637fd2919290602401602060405180830381865afa15801561192b573d6000803e3d6000fd5b505050506040513d601f19601f8201168201806040525081019061194f91906136a7565b61196e57604051634d53256560e01b815233600482015260240161058e565b33600061197a82611a70565b905060005b818110156117265760006119938483611a91565b600081815260016020526040902060030154909150156119b35750611a5e565b611a498560200151600083815481106119ce576119ce613691565b600091825260209182902060408051610100810182526007909302909101805460c08401908152600182015460e085015283526002810154938301939093526003830154908201526004820154606082015260058201546001600160a01b03908116608083015260069092015490911660a082015290612517565b611a535750611a5e565b611a5c81611e5e565b505b80611a68816136df565b91505061197f565b6001600160a01b038116600090815260026020526040812061051d90612537565b6001600160a01b0382166000908152600260205260408120611ab39083612541565b9392505050565b611ac2611e2b565b6001600160a01b0316635c975abb6040518163ffffffff1660e01b8152600401602060405180830381865afa158015611aff573d6000803e3d6000fd5b505050506040513d601f19601f82011682018060405250810190611b2391906136a7565b15611b4157604051633b3b4caf60e21b815260040160405180910390fd5b60005b81811015611c8b576000838383818110611b6057611b60613691565b9050602002016020810190611b759190613517565b6001600160a01b03811660009081526003602052604090205490915080611b9d575050611c79565b6001600160a01b038216600090815260036020526040812055611c33611bc1611e2b565b6001600160a01b03166361d027b36040518163ffffffff1660e01b8152600401602060405180830381865afa158015611bfe573d6000803e3d6000fd5b505050506040513d601f19601f82011682018060405250810190611c2291906136f8565b6001600160a01b038416908361207b565b816001600160a01b03167f10df095d1434aed409b2f33d2a6a8456f8b0824633cc12a1b43032085aadc41d82604051611c6e91815260200190565b60405180910390a250505b80611c83816136df565b915050611b44565b505050565b600180611cbb7f5db5abc19987c2b3729df7961b62b6bb0bae886dd47e3ce25bb3a3af34c6d80b5490565b10611cf5576040517f1e7a9d950000000000000000000000000000000000000000000000000000000081526004810182905260240161058e565b611d1e7f5db5abc19987c2b3729df7961b62b6bb0bae886dd47e3ce25bb3a3af34c6d80b829055565b60017fad57d7911b7e3d6c3c79a68ba909a7f4ba41f9485e5207b12dee0d0c6af5398c55611d4b8261254d565b611d53612604565b60007fad57d7911b7e3d6c3c79a68ba909a7f4ba41f9485e5207b12dee0d0c6af5398c555050565b600080548210611d8d5750600061051d565b6000808381548110611da157611da1613691565b6000918252602080832060408051610100810182526007909402909101805460c0850190815260018083015460e08701529085526002820154858501526003820154858401526004820154606086015260058201546001600160a01b03908116608087015260069092015490911660a08501528785529091529091209091506115ba908286612665565b6000611e557f0e555410d8128dff796eab5d29b97dd593ce9cab44a71b64c08244579ea605335490565b905090565b9055565b6000808281548110611e7257611e72613691565b600091825260209182902060056007909202010154604080517fc07f47d400000000000000000000000000000000000000000000000000000000815290516001600160a01b039092169263c07f47d4926004808401938290030181865afa158015611ee1573d6000803e3d6000fd5b505050506040513d601f19601f82011682018060405250810190611f059190613715565b60008381526001602052604090206003018190559050817f87b327d54760099959808207b991374a96f64737788848bb10282b249558be4482604051611f4d91815260200190565b60405180910390a25050565b60008084600301546000146120495783608001516001600160a01b0316639d8870a76040518163ffffffff1660e01b8152600401602060405180830381865afa158015611faa573d6000803e3d6000fd5b505050506040513d601f19601f82011682018060405250810190611fce91906136f8565b6001600160a01b0316637ece075d86600301546040518263ffffffff1660e01b8152600401611fff91815260200190565b606060405180830381865afa15801561201c573d6000803e3d6000fd5b505050506040513d601f19601f820116820180604052508101906120409190613844565b6020015161205d565b8360400151846020015161205d9190613880565b905083606001518161206f9190613880565b90921015949350505050565b73eeeeeeeeeeeeeeeeeeeeeeeeeeeeeeeeeeeeeeee6001600160a01b038416146120c057611c8b826120af858460006126a6565b6001600160a01b0386169190612722565b611c8b82826127cb565b6000611ab383836128e4565b600081815260016020526040812081549091908190849081106120fb576120fb613691565b600091825260209182902060408051610100810182526007909302909101805460c08401908152600182015460e085015283526002810154938301939093526003830154908201526004820154606082015260058201546001600160a01b03908116608083015260069092015490911660a0820152905061217d82828661248d565b6001600160a01b0384811660009081526001840160205260408120805491905560a083015190916121b09116868361207b565b83856001600160a01b03167f34fcbac0073d7c3d388e51312faf357774904998eeb8fca628b9e6f65ee1cbf7836040516121ec91815260200190565b60405180910390a35050505050565b6040805161010081018252600060c0820181815260e08301829052825260208201819052918101829052606081018290526080810182905260a08101919091526020820151600090421061227b576040517f2b1eccc500000000000000000000000000000000000000000000000000000000815260040160405180910390fd5b620151808360400151108061229757506303c267008360400151115b156122ce576040517f72cd3d6300000000000000000000000000000000000000000000000000000000815260040160405180910390fd5b62093a80836060015110806122e9575062278d008360600151115b15612320576040517f8dbd9cb300000000000000000000000000000000000000000000000000000000815260040160405180910390fd5b600061233f612337670de0b6b3a7640000876129d7565b8551906129e3565b90506040518060c0016040528082815260200185602001518152602001856040015181526020018560600151815260200185608001516001600160a01b031681526020018560a001516001600160a01b031681525092506123b061138b828660000151612a3490919063ffffffff16565b9150509250929050565b81516123c590612401565b6002840155600490920180549215156101000261ff00199093169290921790915550565b6000611ab38383612a82565b6000611ab38284613880565b6020810151815160009161051d91906123f5565b73eeeeeeeeeeeeeeeeeeeeeeeeeeeeeeeeeeeeeeee6001600160a01b0385160361246b576040517fad4e092700000000000000000000000000000000000000000000000000000000815260040160405180910390fd5b611726833061247b8786866126a6565b6001600160a01b038816929190612ad1565b60008061249b858585612b22565b6001600160a01b038516600090815260018801602052604090205491935091506124c590836123f5565b6001600160a01b038416600090815260018701602052604090205560028501546124ef90836129d7565b60028601556001600160a01b0390921660009081526020949094525060409092209190915550565b60008260400151836020015161252d9190613880565b9091101592915050565b600061051d825490565b6000611ab38383612eda565b303b1515801561257c57507fad57d7911b7e3d6c3c79a68ba909a7f4ba41f9485e5207b12dee0d0c6af5398c54155b1561259a57604051631a27c4a960e21b815260040160405180910390fd5b6001600160a01b0381163b6125db576040517f14878b6900000000000000000000000000000000000000000000000000000000815260040160405180910390fd5b6106467f0e555410d8128dff796eab5d29b97dd593ce9cab44a71b64c08244579ea60533829055565b303b1515801561263357507fad57d7911b7e3d6c3c79a68ba909a7f4ba41f9485e5207b12dee0d0c6af5398c54155b1561265157604051631a27c4a960e21b815260040160405180910390fd5b6001600080516020613c1683398151915255565b600080612673858585612b22565b506001600160a01b038416600090815260018701602052604090205490915061269d9082906123f5565b95945050505050565b6000806126b285612f04565b905060128110156126fe5760006126ca826012613898565b6126d590600a613993565b9050836126eb576126e681866139b5565b6126f5565b6126f58582612f9c565b92505050611ab3565b600061270b601283613898565b61271690600a613993565b90506126f581866139c9565b6040516001600160a01b038316602482015260448101829052611c8b9084907fa9059cbb00000000000000000000000000000000000000000000000000000000906064015b60408051601f198184030181529190526020810180517bffffffffffffffffffffffffffffffffffffffffffffffffffffffff167fffffffff0000000000000000000000000000000000000000000000000000000090931692909217909152612fce565b8047101561281b5760405162461bcd60e51b815260206004820152601d60248201527f416464726573733a20696e73756666696369656e742062616c616e6365000000604482015260640161058e565b6000826001600160a01b03168260405160006040518083038185875af1925050503d8060008114612868576040519150601f19603f3d011682016040523d82523d6000602084013e61286d565b606091505b5050905080611c8b5760405162461bcd60e51b815260206004820152603a60248201527f416464726573733a20756e61626c6520746f2073656e642076616c75652c207260448201527f6563697069656e74206d61792068617665207265766572746564000000000000606482015260840161058e565b600081815260018301602052604081205480156129cd576000612908600183613898565b855490915060009061291c90600190613898565b905081811461298157600086600001828154811061293c5761293c613691565b906000526020600020015490508087600001848154811061295f5761295f613691565b6000918252602080832090910192909255918252600188019052604090208390555b8554869080612992576129926139e8565b60019003818190600052602060002001600090559055856001016000868152602001908152602001600020600090556001935050505061051d565b600091505061051d565b6000611ab38284613898565b60408051808201909152600080825260208201526040805180820190915283518190612a0f90856130b3565b8152602001612a2b8486602001516130b390919063ffffffff16565b90529392505050565b604080518082019091526000808252602082015260408051808201909152825184518291612a6291906129d7565b8152602001612a2b846020015186602001516129d790919063ffffffff16565b6000818152600183016020526040812054612ac95750815460018181018455600084815260208082209093018490558454848252828601909352604090209190915561051d565b50600061051d565b6040516001600160a01b03808516602483015283166044820152606481018290526117269085907f23b872dd0000000000000000000000000000000000000000000000000000000090608401612767565b60808201516001600160a01b038281166000818152602087905260408082205490517fb7648fb90000000000000000000000000000000000000000000000000000000081526004810193909352909384939092849184169063b7648fb9906024016040805180830381865afa158015612b9f573d6000803e3d6000fd5b505050506040513d601f19601f82011682018060405250810190612bc391906139fe565b6040517f8e480b200000000000000000000000000000000000000000000000000000000081526001600160a01b038881166004830152919250600091851690638e480b2090602401602060405180830381865afa158015612c28573d6000803e3d6000fd5b505050506040513d601f19601f82011682018060405250810190612c4c9190613715565b90508860030154600014612c6d57612c68818a600301546130d2565b612c6f565b805b94506000846001600160a01b0316639d8870a76040518163ffffffff1660e01b8152600401602060405180830381865afa158015612cb1573d6000803e3d6000fd5b505050506040513d601f19601f82011682018060405250810190612cd591906136f8565b6001600160a01b0316637ece075d876040518263ffffffff1660e01b8152600401612d0291815260200190565b606060405180830381865afa158015612d1f573d6000803e3d6000fd5b505050506040513d601f19601f82011682018060405250810190612d439190613844565b602001519050612d5a898260209190910151111590565b612d6f57600080965096505050505050612ed2565b60048a015460ff1615612d8a57600096505050505050612ed2565b83600003612da057600096505050505050612ed2565b6000612ea4612e9d876001600160a01b031663476fa96d886040518263ffffffff1660e01b8152600401612dd691815260200190565b6040805180830381865afa158015612df2573d6000803e3d6000fd5b505050506040513d601f19601f82011682018060405250810190612e1691906139fe565b6040517f476fa96d000000000000000000000000000000000000000000000000000000008152600481018b90526001600160a01b038a169063476fa96d906024016040805180830381865afa158015612e73573d6000803e3d6000fd5b505050506040513d601f19601f82011682018060405250810190612e9791906139fe565b906130e8565b8590613136565b9050612ec9612ec4612ebf83612eb98e61318a565b906131ac565b6131fa565b61320e565b97505050505050505b935093915050565b6000826000018281548110612ef157612ef1613691565b9060005260206000200154905092915050565b600073eeeeeeeeeeeeeeeeeeeeeeeeeeeeeeeeeeeeeeee6001600160a01b03831614612f9457816001600160a01b031663313ce5676040518163ffffffff1660e01b8152600401602060405180830381865afa158015612f68573d6000803e3d6000fd5b505050506040513d601f19601f82011682018060405250810190612f8c9190613a30565b60ff1661051d565b601292915050565b6000612fa88284613a53565b15612fb4576001612fb7565b60005b60ff16612fc483856139b5565b611ab39190613880565b6000613023826040518060400160405280602081526020017f5361666545524332303a206c6f772d6c6576656c2063616c6c206661696c6564815250856001600160a01b031661324e9092919063ffffffff16565b805190915015611c8b578080602001905181019061304191906136a7565b611c8b5760405162461bcd60e51b815260206004820152602a60248201527f5361666545524332303a204552433230206f7065726174696f6e20646964206e60448201527f6f74207375636365656400000000000000000000000000000000000000000000606482015260840161058e565b6000670de0b6b3a76400006130c883856139c9565b611ab391906139b5565b60008183106130e15781611ab3565b5090919050565b604080518082019091526000808252602082015260408051808201909152825184518291613116919061325d565b8152602001612a2b8460200151866020015161325d90919063ffffffff16565b60408051808201909152600080825260208201526040518060400160405280613170846000015161316a8760000151613269565b906132af565b8152602001612a2b846020015161316a8760200151613269565b6040805180820182526000808252602082015290820151825161051d916132ce565b6040805180820190915260008082526020820152604080518082019091528251845182916131da91906132af565b8152602001612a2b846020015186602001516132af90919063ffffffff16565b6020810151815160009161051d9190613333565b6000818181121561051d576040517f501f289e0000000000000000000000000000000000000000000000000000000081526004810182905260240161058e565b60606115ba848460008561333f565b6000611ab38284613a67565b6000816001600160ff1b0381111561051d576040517ea07eb50000000000000000000000000000000000000000000000000000000081526004810182905260240161058e565b6000670de0b6b3a76400006132c48385613aa6565b611ab39190613b2d565b604080518082019091526000808252602082015260405180604001604052806133126133016132fc86613487565b613269565b865161330c90613269565b9061349b565b8152602001612a2b6133266132fc86613487565b61330c8760200151613269565b6000611ab38284613b5b565b6060824710156133b75760405162461bcd60e51b815260206004820152602660248201527f416464726573733a20696e73756666696369656e742062616c616e636520666f60448201527f722063616c6c0000000000000000000000000000000000000000000000000000606482015260840161058e565b6001600160a01b0385163b61340e5760405162461bcd60e51b815260206004820152601d60248201527f416464726573733a2063616c6c20746f206e6f6e2d636f6e7472616374000000604482015260640161058e565b600080866001600160a01b0316858760405161342a9190613bc6565b60006040518083038185875af1925050503d8060008114613467576040519150601f19603f3d011682016040523d82523d6000602084013e61346c565b606091505b509150915061347c8282866134b0565b979650505050505050565b600061051d670de0b6b3a7640000836139c9565b6000816132c4670de0b6b3a764000085613aa6565b606083156134bf575081611ab3565b8251156134cf5782518084602001fd5b8160405162461bcd60e51b815260040161058e9190613be2565b6000602082840312156134fb57600080fd5b5035919050565b6001600160a01b038116811461064657600080fd5b60006020828403121561352957600080fd5b8135611ab381613502565b6000806040838503121561354757600080fd5b823561355281613502565b946020939093013593505050565b600060e0828403121561357257600080fd5b50919050565b6040516060810167ffffffffffffffff811182821017156135a957634e487b7160e01b600052604160045260246000fd5b60405290565b6040805190810167ffffffffffffffff811182821017156135a957634e487b7160e01b600052604160045260246000fd5b6000606082840312156135f257600080fd5b6135fa613578565b8235815260208301356020820152604083013560408201528091505092915050565b6000806020838503121561362f57600080fd5b823567ffffffffffffffff8082111561364757600080fd5b818501915085601f83011261365b57600080fd5b81358181111561366a57600080fd5b8660208260051b850101111561367f57600080fd5b60209290920196919550909350505050565b634e487b7160e01b600052603260045260246000fd5b6000602082840312156136b957600080fd5b81518015158114611ab357600080fd5b634e487b7160e01b600052601160045260246000fd5b6000600182016136f1576136f16136c9565b5060010190565b60006020828403121561370a57600080fd5b8151611ab381613502565b60006020828403121561372757600080fd5b5051919050565b60006040828403121561374057600080fd5b6040516040810181811067ffffffffffffffff8211171561377157634e487b7160e01b600052604160045260246000fd5b604052823581526020928301359281019290925250919050565b600060e0828403121561379d57600080fd5b60405160c0810181811067ffffffffffffffff821117156137ce57634e487b7160e01b600052604160045260246000fd5b6040526137db848461372e565b815260408301356020820152606083013560408201526080830135606082015260a083013561380981613502565b608082015260c083013561381c81613502565b60a08201529392505050565b60006040828403121561383a57600080fd5b611ab3838361372e565b60006060828403121561385657600080fd5b61385e613578565b8251815260208301516020820152604083015160408201528091505092915050565b60008219821115613893576138936136c9565b500190565b6000828210156138aa576138aa6136c9565b500390565b600181815b808511156138ea5781600019048211156138d0576138d06136c9565b808516156138dd57918102915b93841c93908002906138b4565b509250929050565b6000826139015750600161051d565b8161390e5750600061051d565b8160018114613924576002811461392e5761394a565b600191505061051d565b60ff84111561393f5761393f6136c9565b50506001821b61051d565b5060208310610133831016604e8410600b841016171561396d575081810a61051d565b61397783836138af565b806000190482111561398b5761398b6136c9565b029392505050565b6000611ab383836138f2565b634e487b7160e01b600052601260045260246000fd5b6000826139c4576139c461399f565b500490565b60008160001904831182151516156139e3576139e36136c9565b500290565b634e487b7160e01b600052603160045260246000fd5b600060408284031215613a1057600080fd5b613a186135af565b82518152602083015160208201528091505092915050565b600060208284031215613a4257600080fd5b815160ff81168114611ab357600080fd5b600082613a6257613a6261399f565b500690565b600080831283600160ff1b01831281151615613a8557613a856136c9565b836001600160ff1b03018313811615613aa057613aa06136c9565b50500390565b60006001600160ff1b03600084136000841385830485118282161615613ace57613ace6136c9565b600160ff1b6000871286820588128184161615613aed57613aed6136c9565b60008712925087820587128484161615613b0957613b096136c9565b87850587128184161615613b1f57613b1f6136c9565b505050929093029392505050565b600082613b3c57613b3c61399f565b600160ff1b821460001984141615613b5657613b566136c9565b500590565b6000808212826001600160ff1b0303841381151615613b7c57613b7c6136c9565b82600160ff1b038412811615613b9457613b946136c9565b50500190565b60005b83811015613bb5578181015183820152602001613b9d565b838111156117265750506000910152565b60008251613bd8818460208701613b9a565b9190910192915050565b6020815260008251806020840152613c01816040850160208701613b9a565b601f01601f1916919091016040019291505056fe1b30fe15febd596dffd21d4da0657732eea42b4b5a9789e3e6daab3d570999d7a26469706673582212206010c1cd6728a31cb1248ab088859743634a4faad10ebfcc15722da9fa5c86e164736f6c634300080d0033",
  "devdoc": {
    "kind": "dev",
    "methods": {
      "available(uint256)": {
        "params": {
          "programId": "Program to return for"
        },
        "returns": {
          "_0": "Available rewards for `programId`"
        }
      },
      "claim(address)": {
        "params": {
          "product": "Product to claim rewards for"
        }
      },
      "claim(uint256)": {
        "params": {
          "programId": "Program to claim rewards for"
        }
      },
      "claimFee(address[])": {
        "params": {
          "tokens": "Tokens to claim fees for"
        }
      },
      "close(uint256)": {
        "params": {
          "programId": "Program to end"
        }
      },
      "closed(uint256)": {
        "params": {
          "programId": "Program to return for"
        },
        "returns": {
          "_0": "whether closed for `programId`"
        }
      },
      "create(((uint256,uint256),uint256,uint256,uint256,address,address))": {
        "details": "Must be called as the product or protocol owner",
        "params": {
          "info": "Parameters for the new program"
        },
        "returns": {
          "_0": "new program's ID"
        }
      },
      "end(uint256)": {
        "details": "Must be called as the program owner",
        "params": {
          "programId": "Program to end"
        }
      },
      "initialize(address)": {
        "details": "Must be called atomically as part of the upgradeable proxy deployment to      avoid front-running",
        "params": {
          "controller_": "Factory contract address"
        }
      },
      "latestVersion(address,uint256)": {
        "params": {
          "account": "Account to return for",
          "programId": "Program to return for"
        },
        "returns": {
          "_0": "`account`'s latest synced version for `programId`"
        }
      },
      "owner(uint256)": {
        "params": {
          "programId": "Program to return for"
        },
        "returns": {
          "_0": "The owner of `programId`"
        }
      },
      "paused(uint256)": {
        "params": {
          "programId": "Program to return for"
        },
        "returns": {
          "_0": "The paused status of `programId`"
        }
      },
      "programInfos(uint256)": {
        "params": {
          "programId": "Program to return for"
        },
        "returns": {
          "_0": "Program info"
        }
      },
      "programsForAt(address,uint256)": {
        "params": {
          "index": "Index to return for",
          "product": "Product to return for"
        },
        "returns": {
          "_0": "The program at index `index` for `product`"
        }
      },
      "programsForLength(address)": {
        "params": {
          "product": "Product to return for"
        },
        "returns": {
          "_0": "Quantity of programs for `product`"
        }
      },
      "settled(address,uint256)": {
        "params": {
          "account": "Account to return for",
          "programId": "Program to return for"
        },
        "returns": {
          "_0": "`account`'s settled rewards for `programId`"
        }
      },
      "sync((uint256,uint256,int256))": {
        "details": "Called every settle() from each product"
      },
      "syncAccount(address)": {
        "details": "Called immediately proceeding a position update in the corresponding product",
        "params": {
          "account": "Account to sync"
        }
      },
      "treasury(uint256)": {
        "params": {
          "programId": "Program to return for"
        },
        "returns": {
          "_0": "The treasury of `programId`"
        }
      },
      "unclaimed(address,uint256)": {
        "params": {
          "account": "Account to return for",
          "programId": "Program to return for"
        },
        "returns": {
          "_0": "`account`'s total unclaimed rewards for `programId`"
        }
      },
      "versionComplete(uint256)": {
        "params": {
          "programId": "Program to return for"
        },
        "returns": {
          "_0": "The version completed for `programId`"
        }
      }
    },
    "stateVariables": {
      "_programInfos": {
        "details": "Static program state"
      },
      "_programs": {
        "details": "Dynamic program state"
      },
      "_registry": {
        "details": "Mapping of all programs for each product"
      },
      "fees": {
        "details": "Fees that have been collected, but remain unclaimed"
      }
    },
    "version": 1
  },
  "userdoc": {
    "kind": "user",
    "methods": {
      "available(uint256)": {
        "notice": "Returns available rewards for a specific program"
      },
      "claim(address)": {
        "notice": "Claims all of `msg.sender`'s rewards for `product` programs"
      },
      "claim(uint256)": {
        "notice": "Claims all of `msg.sender`'s rewards for a specific program"
      },
      "claimFee(address[])": {
        "notice": "Claims all `tokens` fees to the protocol treasury"
      },
      "close(uint256)": {
        "notice": "Closes a program, returning all unclaimed rewards"
      },
      "closed(uint256)": {
        "notice": "Returns whether closed for a specific program"
      },
      "create(((uint256,uint256),uint256,uint256,uint256,address,address))": {
        "notice": "Creates a new incentive program"
      },
      "end(uint256)": {
        "notice": "Completes an in-progress program early"
      },
      "initialize(address)": {
        "notice": "Initializes the contract state"
      },
      "latestVersion(address,uint256)": {
        "notice": "Returns `account`'s latest synced version for a specific program"
      },
      "owner(uint256)": {
        "notice": "Returns the owner of a specific program"
      },
      "paused(uint256)": {
        "notice": "Returns the paused status of a specific program"
      },
      "programInfos(uint256)": {
        "notice": "Returns program info for program `programId`"
      },
      "programsForAt(address,uint256)": {
        "notice": "Returns the program at index `index` for a specific product"
      },
      "programsForLength(address)": {
        "notice": "Returns quantity of programs for a specific product"
      },
      "settled(address,uint256)": {
        "notice": "Returns `account`'s settled rewards for a specific program"
      },
      "sync((uint256,uint256,int256))": {
        "notice": "Completes any in-progress programs that newly completable"
      },
      "syncAccount(address)": {
        "notice": "Settles unsettled balance for `account`"
      },
      "treasury(uint256)": {
        "notice": "Returns the treasury of a specific program"
      },
      "unclaimed(address,uint256)": {
        "notice": "Returns `account`'s total unclaimed rewards for a specific program"
      },
      "versionComplete(uint256)": {
        "notice": "Returns the version completed for a specific program"
      }
    },
    "version": 1
  },
  "storageLayout": {
    "storage": [
      {
        "astId": 11145,
        "contract": "contracts/incentivizer/Incentivizer.sol:Incentivizer",
        "label": "_programInfos",
        "offset": 0,
        "slot": "0",
        "type": "t_array(t_struct(ProgramInfo)14851_storage)dyn_storage"
      },
      {
        "astId": 11151,
        "contract": "contracts/incentivizer/Incentivizer.sol:Incentivizer",
        "label": "_programs",
        "offset": 0,
        "slot": "1",
        "type": "t_mapping(t_uint256,t_struct(Program)12145_storage)"
      },
      {
        "astId": 11158,
        "contract": "contracts/incentivizer/Incentivizer.sol:Incentivizer",
        "label": "_registry",
        "offset": 0,
        "slot": "2",
        "type": "t_mapping(t_contract(IProduct)13640,t_struct(UintSet)8867_storage)"
      },
      {
        "astId": 11165,
        "contract": "contracts/incentivizer/Incentivizer.sol:Incentivizer",
        "label": "fees",
        "offset": 0,
        "slot": "3",
        "type": "t_mapping(t_userDefinedValueType(Token)2599,t_userDefinedValueType(UFixed18)1887)"
      }
    ],
    "types": {
      "t_address": {
        "encoding": "inplace",
        "label": "address",
        "numberOfBytes": "20"
      },
      "t_array(t_bytes32)dyn_storage": {
        "base": "t_bytes32",
        "encoding": "dynamic_array",
        "label": "bytes32[]",
        "numberOfBytes": "32"
      },
      "t_array(t_struct(ProgramInfo)14851_storage)dyn_storage": {
        "base": "t_struct(ProgramInfo)14851_storage",
        "encoding": "dynamic_array",
        "label": "struct ProgramInfo[]",
        "numberOfBytes": "32"
      },
      "t_bool": {
        "encoding": "inplace",
        "label": "bool",
        "numberOfBytes": "1"
      },
      "t_bytes32": {
        "encoding": "inplace",
        "label": "bytes32",
        "numberOfBytes": "32"
      },
      "t_contract(IProduct)13640": {
        "encoding": "inplace",
        "label": "contract IProduct",
        "numberOfBytes": "20"
      },
      "t_mapping(t_address,t_uint256)": {
        "encoding": "mapping",
        "key": "t_address",
        "label": "mapping(address => uint256)",
        "numberOfBytes": "32",
        "value": "t_uint256"
      },
      "t_mapping(t_address,t_userDefinedValueType(UFixed18)1887)": {
        "encoding": "mapping",
        "key": "t_address",
        "label": "mapping(address => UFixed18)",
        "numberOfBytes": "32",
        "value": "t_userDefinedValueType(UFixed18)1887"
      },
      "t_mapping(t_bytes32,t_uint256)": {
        "encoding": "mapping",
        "key": "t_bytes32",
        "label": "mapping(bytes32 => uint256)",
        "numberOfBytes": "32",
        "value": "t_uint256"
      },
      "t_mapping(t_contract(IProduct)13640,t_struct(UintSet)8867_storage)": {
        "encoding": "mapping",
        "key": "t_contract(IProduct)13640",
        "label": "mapping(contract IProduct => struct EnumerableSet.UintSet)",
        "numberOfBytes": "32",
        "value": "t_struct(UintSet)8867_storage"
      },
      "t_mapping(t_uint256,t_struct(Program)12145_storage)": {
        "encoding": "mapping",
        "key": "t_uint256",
        "label": "mapping(uint256 => struct Program)",
        "numberOfBytes": "32",
        "value": "t_struct(Program)12145_storage"
      },
      "t_mapping(t_userDefinedValueType(Token)2599,t_userDefinedValueType(UFixed18)1887)": {
        "encoding": "mapping",
        "key": "t_userDefinedValueType(Token)2599",
        "label": "mapping(Token => UFixed18)",
        "numberOfBytes": "32",
        "value": "t_userDefinedValueType(UFixed18)1887"
      },
      "t_struct(Position)13948_storage": {
        "encoding": "inplace",
        "label": "struct Position",
        "members": [
          {
            "astId": 13943,
            "contract": "contracts/incentivizer/Incentivizer.sol:Incentivizer",
            "label": "maker",
            "offset": 0,
            "slot": "0",
            "type": "t_userDefinedValueType(UFixed18)1887"
          },
          {
            "astId": 13947,
            "contract": "contracts/incentivizer/Incentivizer.sol:Incentivizer",
            "label": "taker",
            "offset": 0,
            "slot": "1",
            "type": "t_userDefinedValueType(UFixed18)1887"
          }
        ],
        "numberOfBytes": "64"
      },
      "t_struct(Program)12145_storage": {
        "encoding": "inplace",
        "label": "struct Program",
        "members": [
          {
            "astId": 12125,
            "contract": "contracts/incentivizer/Incentivizer.sol:Incentivizer",
            "label": "latestVersion",
            "offset": 0,
            "slot": "0",
            "type": "t_mapping(t_address,t_uint256)"
          },
          {
            "astId": 12131,
            "contract": "contracts/incentivizer/Incentivizer.sol:Incentivizer",
            "label": "settled",
            "offset": 0,
            "slot": "1",
            "type": "t_mapping(t_address,t_userDefinedValueType(UFixed18)1887)"
          },
          {
            "astId": 12135,
            "contract": "contracts/incentivizer/Incentivizer.sol:Incentivizer",
            "label": "available",
            "offset": 0,
            "slot": "2",
            "type": "t_userDefinedValueType(UFixed18)1887"
          },
          {
            "astId": 12138,
            "contract": "contracts/incentivizer/Incentivizer.sol:Incentivizer",
            "label": "versionComplete",
            "offset": 0,
            "slot": "3",
            "type": "t_uint256"
          },
          {
            "astId": 12141,
            "contract": "contracts/incentivizer/Incentivizer.sol:Incentivizer",
            "label": "closed",
            "offset": 0,
            "slot": "4",
            "type": "t_bool"
          },
          {
            "astId": 12144,
            "contract": "contracts/incentivizer/Incentivizer.sol:Incentivizer",
            "label": "protocolOwned",
            "offset": 1,
            "slot": "4",
            "type": "t_bool"
          }
        ],
        "numberOfBytes": "160"
      },
      "t_struct(ProgramInfo)14851_storage": {
        "encoding": "inplace",
        "label": "struct ProgramInfo",
        "members": [
          {
            "astId": 14833,
            "contract": "contracts/incentivizer/Incentivizer.sol:Incentivizer",
            "label": "amount",
            "offset": 0,
            "slot": "0",
            "type": "t_struct(Position)13948_storage"
          },
          {
            "astId": 14836,
            "contract": "contracts/incentivizer/Incentivizer.sol:Incentivizer",
            "label": "start",
            "offset": 0,
            "slot": "2",
            "type": "t_uint256"
          },
          {
            "astId": 14839,
            "contract": "contracts/incentivizer/Incentivizer.sol:Incentivizer",
            "label": "duration",
            "offset": 0,
            "slot": "3",
            "type": "t_uint256"
          },
          {
            "astId": 14842,
            "contract": "contracts/incentivizer/Incentivizer.sol:Incentivizer",
            "label": "grace",
            "offset": 0,
            "slot": "4",
            "type": "t_uint256"
          },
          {
            "astId": 14846,
            "contract": "contracts/incentivizer/Incentivizer.sol:Incentivizer",
            "label": "product",
            "offset": 0,
            "slot": "5",
            "type": "t_contract(IProduct)13640"
          },
          {
            "astId": 14850,
            "contract": "contracts/incentivizer/Incentivizer.sol:Incentivizer",
            "label": "token",
            "offset": 0,
            "slot": "6",
            "type": "t_userDefinedValueType(Token)2599"
          }
        ],
        "numberOfBytes": "224"
      },
      "t_struct(Set)8409_storage": {
        "encoding": "inplace",
        "label": "struct EnumerableSet.Set",
        "members": [
          {
            "astId": 8404,
            "contract": "contracts/incentivizer/Incentivizer.sol:Incentivizer",
            "label": "_values",
            "offset": 0,
            "slot": "0",
            "type": "t_array(t_bytes32)dyn_storage"
          },
          {
            "astId": 8408,
            "contract": "contracts/incentivizer/Incentivizer.sol:Incentivizer",
            "label": "_indexes",
            "offset": 0,
            "slot": "1",
            "type": "t_mapping(t_bytes32,t_uint256)"
          }
        ],
        "numberOfBytes": "64"
      },
      "t_struct(UintSet)8867_storage": {
        "encoding": "inplace",
        "label": "struct EnumerableSet.UintSet",
        "members": [
          {
            "astId": 8866,
            "contract": "contracts/incentivizer/Incentivizer.sol:Incentivizer",
            "label": "_inner",
            "offset": 0,
            "slot": "0",
            "type": "t_struct(Set)8409_storage"
          }
        ],
        "numberOfBytes": "64"
      },
      "t_uint256": {
        "encoding": "inplace",
        "label": "uint256",
        "numberOfBytes": "32"
      },
      "t_userDefinedValueType(Token)2599": {
        "encoding": "inplace",
        "label": "Token",
        "numberOfBytes": "20"
      },
      "t_userDefinedValueType(UFixed18)1887": {
        "encoding": "inplace",
        "label": "UFixed18",
        "numberOfBytes": "32"
      }
    }
  }
}