{
  "address": "0x82aB91EF0f295E1788625D295f68c888e6c851B1",
  "abi": [
    {
      "inputs": [],
      "name": "AlreadyInitializedError",
      "type": "error"
    },
    {
      "inputs": [
        {
          "internalType": "uint256",
          "name": "value",
          "type": "uint256"
        }
      ],
      "name": "Fixed18OverflowError",
      "type": "error"
    },
    {
      "inputs": [
        {
          "internalType": "contract IProduct",
          "name": "product",
          "type": "address"
        },
        {
          "internalType": "uint256",
          "name": "programId",
          "type": "uint256"
        }
      ],
      "name": "IncentivizerInvalidProgramError",
      "type": "error"
    },
    {
      "inputs": [
        {
          "internalType": "contract IProduct",
          "name": "product",
          "type": "address"
        }
      ],
      "name": "IncentivizerNotAllowedError",
      "type": "error"
    },
    {
      "inputs": [
        {
          "internalType": "contract IProduct",
          "name": "product",
          "type": "address"
        },
        {
          "internalType": "uint256",
          "name": "programId",
          "type": "uint256"
        }
      ],
      "name": "IncentivizerNotProgramOwnerError",
      "type": "error"
    },
    {
      "inputs": [],
      "name": "IncentivizerTooManyProgramsError",
      "type": "error"
    },
    {
      "inputs": [],
      "name": "InvalidControllerError",
      "type": "error"
    },
    {
      "inputs": [],
      "name": "NotCollateralError",
      "type": "error"
    },
    {
      "inputs": [
        {
          "internalType": "uint256",
          "name": "coordinatorId",
          "type": "uint256"
        }
      ],
      "name": "NotOwnerError",
      "type": "error"
    },
    {
      "inputs": [
        {
          "internalType": "contract IProduct",
          "name": "product",
          "type": "address"
        }
      ],
      "name": "NotProductError",
      "type": "error"
    },
    {
      "inputs": [
        {
          "internalType": "contract IProduct",
          "name": "product",
          "type": "address"
        }
      ],
      "name": "NotProductOwnerError",
      "type": "error"
    },
    {
      "inputs": [],
      "name": "PausedError",
      "type": "error"
    },
    {
      "inputs": [],
      "name": "ProgramInvalidDurationError",
      "type": "error"
    },
    {
      "inputs": [],
      "name": "ProgramInvalidStartError",
      "type": "error"
    },
    {
      "inputs": [
        {
          "internalType": "int256",
          "name": "value",
          "type": "int256"
        }
      ],
      "name": "UFixed18UnderflowError",
      "type": "error"
    },
    {
      "inputs": [
        {
          "internalType": "uint256",
          "name": "version",
          "type": "uint256"
        }
      ],
      "name": "UInitializableAlreadyInitializedError",
      "type": "error"
    },
    {
      "inputs": [],
      "name": "UInitializableNotInitializingError",
      "type": "error"
    },
    {
      "inputs": [],
      "name": "UInitializableZeroVersionError",
      "type": "error"
    },
    {
      "inputs": [],
      "name": "UReentrancyGuardReentrantCallError",
      "type": "error"
    },
    {
      "anonymous": false,
      "inputs": [
        {
          "indexed": true,
          "internalType": "contract IProduct",
          "name": "product",
          "type": "address"
        },
        {
          "indexed": true,
          "internalType": "address",
          "name": "account",
          "type": "address"
        },
        {
          "indexed": true,
          "internalType": "uint256",
          "name": "programId",
          "type": "uint256"
        },
        {
          "indexed": false,
          "internalType": "UFixed18",
          "name": "amount",
          "type": "uint256"
        }
      ],
      "name": "Claim",
      "type": "event"
    },
    {
      "anonymous": false,
      "inputs": [
        {
          "indexed": true,
          "internalType": "Token18",
          "name": "token",
          "type": "address"
        },
        {
          "indexed": false,
          "internalType": "UFixed18",
          "name": "amount",
          "type": "uint256"
        }
      ],
      "name": "FeeClaim",
      "type": "event"
    },
    {
      "anonymous": false,
      "inputs": [
        {
          "indexed": true,
          "internalType": "contract IProduct",
          "name": "product",
          "type": "address"
        },
        {
          "indexed": true,
          "internalType": "uint256",
          "name": "programId",
          "type": "uint256"
        },
        {
          "indexed": false,
          "internalType": "uint256",
          "name": "version",
          "type": "uint256"
        }
      ],
      "name": "ProgramComplete",
      "type": "event"
    },
    {
      "anonymous": false,
      "inputs": [
        {
          "indexed": true,
          "internalType": "contract IProduct",
          "name": "product",
          "type": "address"
        },
        {
          "indexed": true,
          "internalType": "uint256",
          "name": "programId",
          "type": "uint256"
        },
        {
          "indexed": false,
          "internalType": "uint256",
          "name": "coordinatorId",
          "type": "uint256"
        },
        {
          "indexed": false,
          "internalType": "Token18",
          "name": "token",
          "type": "address"
        },
        {
          "indexed": false,
          "internalType": "UFixed18",
          "name": "amountMaker",
          "type": "uint256"
        },
        {
          "indexed": false,
          "internalType": "UFixed18",
          "name": "amountTaker",
          "type": "uint256"
        },
        {
          "indexed": false,
          "internalType": "uint256",
          "name": "start",
          "type": "uint256"
        },
        {
          "indexed": false,
          "internalType": "uint256",
          "name": "duration",
          "type": "uint256"
        },
        {
          "indexed": false,
          "internalType": "UFixed18",
          "name": "programFeeAmount",
          "type": "uint256"
        }
      ],
      "name": "ProgramCreated",
      "type": "event"
    },
    {
      "anonymous": false,
      "inputs": [
        {
          "indexed": true,
          "internalType": "contract IProduct",
          "name": "product",
          "type": "address"
        },
        {
          "indexed": true,
          "internalType": "uint256",
          "name": "programId",
          "type": "uint256"
        },
        {
          "indexed": false,
          "internalType": "uint256",
          "name": "version",
          "type": "uint256"
        }
      ],
      "name": "ProgramStarted",
      "type": "event"
    },
    {
      "inputs": [
        {
          "internalType": "contract IProduct",
          "name": "product",
          "type": "address"
        }
      ],
      "name": "active",
      "outputs": [
        {
          "internalType": "uint256",
          "name": "",
          "type": "uint256"
        }
      ],
      "stateMutability": "view",
      "type": "function"
    },
    {
      "inputs": [
        {
          "internalType": "contract IProduct",
          "name": "product",
          "type": "address"
        },
        {
          "internalType": "uint256",
          "name": "programId",
          "type": "uint256"
        }
      ],
      "name": "available",
      "outputs": [
        {
          "internalType": "UFixed18",
          "name": "",
          "type": "uint256"
        }
      ],
      "stateMutability": "view",
      "type": "function"
    },
    {
      "inputs": [
        {
          "internalType": "contract IProduct",
          "name": "product",
          "type": "address"
        },
        {
          "internalType": "uint256[]",
          "name": "programIds",
          "type": "uint256[]"
        }
      ],
      "name": "claim",
      "outputs": [],
      "stateMutability": "nonpayable",
      "type": "function"
    },
    {
      "inputs": [
        {
          "internalType": "contract IProduct[]",
          "name": "products",
          "type": "address[]"
        },
        {
          "internalType": "uint256[][]",
          "name": "programIds",
          "type": "uint256[][]"
        }
      ],
      "name": "claim",
      "outputs": [],
      "stateMutability": "nonpayable",
      "type": "function"
    },
    {
      "inputs": [
        {
          "internalType": "Token18[]",
          "name": "tokens",
          "type": "address[]"
        }
      ],
      "name": "claimFee",
      "outputs": [],
      "stateMutability": "nonpayable",
      "type": "function"
    },
    {
      "inputs": [
        {
          "internalType": "contract IProduct",
          "name": "product",
          "type": "address"
        },
        {
          "internalType": "uint256",
          "name": "programId",
          "type": "uint256"
        }
      ],
      "name": "complete",
      "outputs": [],
      "stateMutability": "nonpayable",
      "type": "function"
    },
    {
      "inputs": [],
      "name": "controller",
      "outputs": [
        {
          "internalType": "contract IController",
          "name": "",
          "type": "address"
        }
      ],
      "stateMutability": "view",
      "type": "function"
    },
    {
      "inputs": [
        {
          "internalType": "contract IProduct",
          "name": "product",
          "type": "address"
        }
      ],
      "name": "count",
      "outputs": [
        {
          "internalType": "uint256",
          "name": "",
          "type": "uint256"
        }
      ],
      "stateMutability": "view",
      "type": "function"
    },
    {
      "inputs": [
        {
          "internalType": "contract IProduct",
          "name": "product",
          "type": "address"
        },
        {
          "components": [
            {
              "internalType": "uint256",
              "name": "coordinatorId",
              "type": "uint256"
            },
            {
              "components": [
                {
                  "internalType": "UFixed18",
                  "name": "maker",
                  "type": "uint256"
                },
                {
                  "internalType": "UFixed18",
                  "name": "taker",
                  "type": "uint256"
                }
              ],
              "internalType": "struct Position",
              "name": "amount",
              "type": "tuple"
            },
            {
              "internalType": "uint256",
              "name": "start",
              "type": "uint256"
            },
            {
              "internalType": "uint256",
              "name": "duration",
              "type": "uint256"
            },
            {
              "internalType": "Token18",
              "name": "token",
              "type": "address"
            }
          ],
          "internalType": "struct ProgramInfo",
          "name": "programInfo",
          "type": "tuple"
        }
      ],
      "name": "create",
      "outputs": [
        {
          "internalType": "uint256",
          "name": "programId",
          "type": "uint256"
        }
      ],
      "stateMutability": "nonpayable",
      "type": "function"
    },
    {
      "inputs": [
        {
          "internalType": "Token18",
          "name": "",
          "type": "address"
        }
      ],
      "name": "fees",
      "outputs": [
        {
          "internalType": "UFixed18",
          "name": "",
          "type": "uint256"
        }
      ],
      "stateMutability": "view",
      "type": "function"
    },
    {
      "inputs": [
        {
          "internalType": "contract IController",
          "name": "controller_",
          "type": "address"
        }
      ],
      "name": "initialize",
      "outputs": [],
      "stateMutability": "nonpayable",
      "type": "function"
    },
    {
      "inputs": [
        {
          "internalType": "contract IProduct",
          "name": "product",
          "type": "address"
        },
        {
          "internalType": "uint256",
          "name": "programId",
          "type": "uint256"
        }
      ],
      "name": "owner",
      "outputs": [
        {
          "internalType": "address",
          "name": "",
          "type": "address"
        }
      ],
      "stateMutability": "view",
      "type": "function"
    },
    {
      "inputs": [
        {
          "internalType": "contract IProduct",
          "name": "product",
          "type": "address"
        },
        {
          "internalType": "uint256",
          "name": "programId",
          "type": "uint256"
        }
      ],
      "name": "programInfos",
      "outputs": [
        {
          "components": [
            {
              "internalType": "uint256",
              "name": "coordinatorId",
              "type": "uint256"
            },
            {
              "components": [
                {
                  "internalType": "UFixed18",
                  "name": "maker",
                  "type": "uint256"
                },
                {
                  "internalType": "UFixed18",
                  "name": "taker",
                  "type": "uint256"
                }
              ],
              "internalType": "struct Position",
              "name": "amount",
              "type": "tuple"
            },
            {
              "internalType": "uint256",
              "name": "start",
              "type": "uint256"
            },
            {
              "internalType": "uint256",
              "name": "duration",
              "type": "uint256"
            },
            {
              "internalType": "Token18",
              "name": "token",
              "type": "address"
            }
          ],
          "internalType": "struct ProgramInfo",
          "name": "",
          "type": "tuple"
        }
      ],
      "stateMutability": "view",
      "type": "function"
    },
    {
      "inputs": [
        {
          "components": [
            {
              "internalType": "uint256",
              "name": "version",
              "type": "uint256"
            },
            {
              "internalType": "uint256",
              "name": "timestamp",
              "type": "uint256"
            },
            {
              "internalType": "Fixed18",
              "name": "price",
              "type": "int256"
            }
          ],
          "internalType": "struct IOracleProvider.OracleVersion",
          "name": "currentOracleVersion",
          "type": "tuple"
        }
      ],
      "name": "sync",
      "outputs": [],
      "stateMutability": "nonpayable",
      "type": "function"
    },
    {
      "inputs": [
        {
          "internalType": "address",
          "name": "account",
          "type": "address"
        },
        {
          "components": [
            {
              "internalType": "uint256",
              "name": "version",
              "type": "uint256"
            },
            {
              "internalType": "uint256",
              "name": "timestamp",
              "type": "uint256"
            },
            {
              "internalType": "Fixed18",
              "name": "price",
              "type": "int256"
            }
          ],
          "internalType": "struct IOracleProvider.OracleVersion",
          "name": "currentOracleVersion",
          "type": "tuple"
        }
      ],
      "name": "syncAccount",
      "outputs": [],
      "stateMutability": "nonpayable",
      "type": "function"
    },
    {
      "inputs": [
        {
          "internalType": "contract IProduct",
          "name": "product",
          "type": "address"
        },
        {
          "internalType": "uint256",
          "name": "programId",
          "type": "uint256"
        }
      ],
      "name": "treasury",
      "outputs": [
        {
          "internalType": "address",
          "name": "",
          "type": "address"
        }
      ],
      "stateMutability": "view",
      "type": "function"
    },
    {
      "inputs": [
        {
          "internalType": "contract IProduct",
          "name": "product",
          "type": "address"
        },
        {
          "internalType": "address",
          "name": "account",
          "type": "address"
        },
        {
          "internalType": "uint256",
          "name": "programId",
          "type": "uint256"
        }
      ],
      "name": "unclaimed",
      "outputs": [
        {
          "internalType": "UFixed18",
          "name": "",
          "type": "uint256"
        }
      ],
      "stateMutability": "view",
      "type": "function"
    },
    {
      "inputs": [
        {
          "internalType": "contract IProduct",
          "name": "product",
          "type": "address"
        },
        {
          "internalType": "uint256",
          "name": "programId",
          "type": "uint256"
        }
      ],
      "name": "versionComplete",
      "outputs": [
        {
          "internalType": "uint256",
          "name": "",
          "type": "uint256"
        }
      ],
      "stateMutability": "view",
      "type": "function"
    },
    {
      "inputs": [
        {
          "internalType": "contract IProduct",
          "name": "product",
          "type": "address"
        },
        {
          "internalType": "uint256",
          "name": "programId",
          "type": "uint256"
        }
      ],
      "name": "versionStarted",
      "outputs": [
        {
          "internalType": "uint256",
          "name": "",
          "type": "uint256"
        }
      ],
      "stateMutability": "view",
      "type": "function"
    }
  ],
  "transactionHash": "0x9196f7ff20e45672fd8398ced0d84bb0555f5bb6074f10ebf1197c51a3d24501",
  "args": [],
  "numDeployments": 1,
  "solcInputHash": "65527db1409d6958fd38b19b43619005",
  "bytecode": "0x608060405234801561001057600080fd5b50613818806100206000396000f3fe608060405234801561001057600080fd5b50600436106101515760003560e01c806370f3f08b116100cd578063d758869111610081578063f77c479111610066578063f77c47911461033e578063f8724aba14610346578063faaebd211461038157600080fd5b8063d758869114610318578063e1e5a82e1461032b57600080fd5b8063a55ff01d116100b2578063a55ff01d146102df578063b774b601146102f2578063c4d66de81461030557600080fd5b806370f3f08b1461029157806390672ad8146102cc57600080fd5b80632c3e50e5116101245780634ea71327116101095780634ea713271461025857806366f8162e1461026b5780636da0d5401461027e57600080fd5b80632c3e50e5146101e5578063457182781461024557600080fd5b806305d85eda14610156578063095c824114610192578063144dcdd1146101a55780631830349c146101d0575b600080fd5b61017f610164366004612fe4565b6001600160a01b031660009081526020819052604090205490565b6040519081526020015b60405180910390f35b61017f6101a0366004613001565b6103a1565b6101b86101b3366004613001565b6103d0565b6040516001600160a01b039091168152602001610189565b6101e36101de3660046130e4565b610498565b005b6101f86101f3366004613001565b61054e565b604080518251815260208084015180518284015201518183015290820151606080830191909152820151608080830191909152909101516001600160a01b031660a082015260c001610189565b6101e361025336600461315f565b6105ee565b61017f610266366004612fe4565b61068a565b61017f6102793660046131b4565b6106ab565b6101b861028c366004613001565b6106d6565b61017f61029f366004613001565b6001600160a01b039190911660009081526020818152604080832093835260019093019052206003015490565b6101e36102da3660046131f5565b610726565b6101e36102ed366004613261565b61082c565b6101e361030036600461327d565b61091a565b6101e3610313366004612fe4565b610aeb565b61017f6103263660046132bf565b610bda565b6101e3610339366004613001565b611179565b6101b8611361565b61017f610354366004613001565b6001600160a01b039190911660009081526020818152604080832093835260019384019091529020015490565b61017f61038f366004612fe4565b60016020526000908152604090205481565b6001600160a01b0382166000908152602081815260408083208484526001019091529020600201545b92915050565b60006103da611361565b6001600160a01b0316634c5430a0600080866001600160a01b03166001600160a01b03168152602001908152602001600020600001848154811061042057610420613300565b9060005260206000209060060201600001546040518263ffffffff1660e01b815260040161045091815260200190565b602060405180830381865afa15801561046d573d6000803e3d6000fd5b505050506040513d601f19601f820116820180604052508101906104919190613316565b9392505050565b6104a0611361565b604051633fe948c960e11b81523360048201526001600160a01b039190911690637fd2919290602401602060405180830381865afa1580156104e6573d6000803e3d6000fd5b505050506040513d601f19601f8201168201806040525081019061050a9190613333565b61052e57604051634d53256560e01b81523360048201526024015b60405180910390fd5b33600081815260208190526040902061054990828585611390565b505050565b610556612f7c565b6001600160a01b038316600090815260208190526040902080548390811061058057610580613300565b60009182526020918290206040805160a081018252600690930290910180548352815180830183526001820154815260028201548186015293830193909352600383015490820152600482015460608201526005909101546001600160a01b03166080820152905092915050565b60026106066000805160206137c38339815191525490565b0361062457604051637990191b60e11b815260040160405180910390fd5b60026000805160206137c3833981519152556106738383838080602002602001604051908101604052809392919081815260200183836020028082843760009201919091525061155c92505050565b60016000805160206137c383398151915255505050565b6001600160a01b03811660009081526020819052604081206103ca90611799565b6001600160a01b03831660009081526020819052604081206106ce9084846117a7565b949350505050565b60006106e0611361565b6001600160a01b031663a123c33e600080866001600160a01b03166001600160a01b03168152602001908152602001600020600001848154811061042057610420613300565b600261073e6000805160206137c38339815191525490565b0361075c57604051637990191b60e11b815260040160405180910390fd5b60026000805160206137c3833981519152558260005b81811015610811576107ff86868381811061078f5761078f613300565b90506020020160208101906107a49190612fe4565b8585848181106107b6576107b6613300565b90506020028101906107c89190613355565b8080602002602001604051908101604052809392919081815260200183836020028082843760009201919091525061155c92505050565b80610809816133b5565b915050610772565b505060016000805160206137c3833981519152555b50505050565b610834611361565b604051633fe948c960e11b81523360048201526001600160a01b039190911690637fd2919290602401602060405180830381865afa15801561087a573d6000803e3d6000fd5b505050506040513d601f19601f8201168201806040525081019061089e9190613333565b6108bd57604051634d53256560e01b8152336004820152602401610525565b3360008181526020819052604081206108d79083856117ed565b905060005b815181101561082657610908838383815181106108fb576108fb613300565b60200260200101516119f4565b80610912816133b5565b9150506108dc565b610922611361565b6001600160a01b0316635c975abb6040518163ffffffff1660e01b8152600401602060405180830381865afa15801561095f573d6000803e3d6000fd5b505050506040513d601f19601f820116820180604052508101906109839190613333565b156109a157604051633b3b4caf60e21b815260040160405180910390fd5b60005b818110156105495760008383838181106109c0576109c0613300565b90506020020160208101906109d59190612fe4565b6001600160a01b038116600090815260016020526040902054909150806109fd575050610ad9565b6001600160a01b038216600090815260016020526040812055610a93610a21611361565b6001600160a01b03166361d027b36040518163ffffffff1660e01b8152600401602060405180830381865afa158015610a5e573d6000803e3d6000fd5b505050506040513d601f19601f82011682018060405250810190610a829190613316565b6001600160a01b0384169083611aee565b816001600160a01b03167f10df095d1434aed409b2f33d2a6a8456f8b0824633cc12a1b43032085aadc41d82604051610ace91815260200190565b60405180910390a250505b80610ae3816133b5565b9150506109a4565b600180610b167f5db5abc19987c2b3729df7961b62b6bb0bae886dd47e3ce25bb3a3af34c6d80b5490565b10610b50576040517f1e7a9d9500000000000000000000000000000000000000000000000000000000815260048101829052602401610525565b610b797f5db5abc19987c2b3729df7961b62b6bb0bae886dd47e3ce25bb3a3af34c6d80b829055565b60017fad57d7911b7e3d6c3c79a68ba909a7f4ba41f9485e5207b12dee0d0c6af5398c55610ba682611b02565b610bae611bbc565b60007fad57d7911b7e3d6c3c79a68ba909a7f4ba41f9485e5207b12dee0d0c6af5398c555050565b5050565b60006002610bf46000805160206137c38339815191525490565b03610c1257604051637990191b60e11b815260040160405180910390fd5b60026000805160206137c38339815191525582610c2d611361565b604051633fe948c960e11b81526001600160a01b0383811660048301529190911690637fd2919290602401602060405180830381865afa158015610c75573d6000803e3d6000fd5b505050506040513d601f19601f82011682018060405250810190610c999190613333565b610cc157604051634d53256560e01b81526001600160a01b0382166004820152602401610525565b83610cca611361565b604051630b92054b60e21b81526001600160a01b0383811660048301529190911690632e48152c90602401602060405180830381865afa158015610d12573d6000803e3d6000fd5b505050506040513d601f19601f82011682018060405250810190610d369190613333565b15610d5457604051633b3b4caf60e21b815260040160405180910390fd5b8335610d5e611361565b6001600160a01b031663a123c33e826040518263ffffffff1660e01b8152600401610d8b91815260200190565b602060405180830381865afa158015610da8573d6000803e3d6000fd5b505050506040513d601f19601f82011682018060405250810190610dcc9190613316565b6001600160a01b0316336001600160a01b031614610e19576040517f48f62f3c00000000000000000000000000000000000000000000000000000000815260048101829052602401610525565b6000610e23611361565b9050853515801590610eb857506040517f7d254e660000000000000000000000000000000000000000000000000000000081526001600160a01b038881166004830152821690637d254e6690602401602060405180830381865afa158015610e8f573d6000803e3d6000fd5b505050506040513d601f19601f82011682018060405250810190610eb391906133ce565b863514155b15610efa576040517fe264a5240000000000000000000000000000000000000000000000000000000081526001600160a01b0388166004820152602401610525565b806001600160a01b0316637d49c1b76040518163ffffffff1660e01b8152600401602060405180830381865afa158015610f38573d6000803e3d6000fd5b505050506040513d601f19601f82011682018060405250810190610f5c91906133ce565b610f658861068a565b10610f9c576040517f1651519200000000000000000000000000000000000000000000000000000000815260040160405180910390fd5b610fb3610fae36889003880188613444565b611c1d565b60008061102f610fc8368a90038a018a613444565b846001600160a01b0316633ceda0116040518163ffffffff1660e01b8152600401602060405180830381865afa158015611006573d6000803e3d6000fd5b505050506040513d601f19601f8201168201806040525081019061102a91906133ce565b611cad565b60808201516001600160a01b0316600090815260016020526040902054919350915061105b9082611d0c565b60808301516001600160a01b03908116600090815260016020908152604080832094909455918c16815290819052206110949083611d18565b96506110c9336110b46110af368c90038c0160208d016134ce565b611dc5565b60808501516001600160a01b03169190611dd9565b81516080808401516020808601518051908201516040808901516060808b01518351998a526001600160a01b03978816968a019690965288830194909452928701919091529385015260a084015260c0830184905290518992918c16917ffe218174388ddad84fffa65176c55982d46026108e260beab5c93481a6416da6919081900360e00190a35050505050506103ca60016000805160206137c383398151915261155890919063ffffffff16565b60026111916000805160206137c38339815191525490565b036111af57604051637990191b60e11b815260040160405180910390fd5b60026000805160206137c3833981519152556001600160a01b03821660009081526020819052604090205482908290811061120f5760405163d063582960e01b81526001600160a01b038316600482015260248101829052604401610525565b83611218611361565b604051630b92054b60e21b81526001600160a01b0383811660048301529190911690632e48152c90602401602060405180830381865afa158015611260573d6000803e3d6000fd5b505050506040513d601f19601f820116820180604052508101906112849190613333565b156112a257604051633b3b4caf60e21b815260040160405180910390fd5b84846112ae82826106d6565b6001600160a01b0316336001600160a01b03161461130a576040517fa17e37520000000000000000000000000000000000000000000000000000000081526001600160a01b038316600482015260248101829052604401610525565b6001600160a01b038716600090815260208190526040812061132d908989611dee565b905061133988826119f4565b505050505050610bd660016000805160206137c383398151915261155890919063ffffffff16565b600061138b7f0e555410d8128dff796eab5d29b97dd593ce9cab44a71b64c08244579ea605335490565b905090565b6001600160a01b03821660009081526005850160205260409020548454815b818110156113ee576001600160a01b038516600090815260048801602052604090206113db9082611f32565b50806113e6816133b5565b9150506113af565b506001600160a01b0384166000908152600587016020908152604080832084905560048901909152812061142190611f3e565b905060005b815181101561154e57600082828151811061144357611443613300565b60200260200101519050600089600101600083815260200190815260200160002090506114ef898b600001848154811061147f5761147f613300565b60009182526020918290206040805160a081018252600690930290910180548352815180830183526001820154815260028201548186015293830193909352600383015490820152600482015460608201526005909101546001600160a01b031660808201528391908b8b611f4b565b6114fc60028b0183611fb8565b15801561150e57506003810154875110155b15611539576001600160a01b038816600090815260048b01602052604090206115379083611fd0565b505b50508080611546906133b5565b915050611426565b5050505050505050565b9055565b81611565611361565b604051633fe948c960e11b81526001600160a01b0383811660048301529190911690637fd2919290602401602060405180830381865afa1580156115ad573d6000803e3d6000fd5b505050506040513d601f19601f820116820180604052508101906115d19190613333565b6115f957604051634d53256560e01b81526001600160a01b0382166004820152602401610525565b82611602611361565b604051630b92054b60e21b81526001600160a01b0383811660048301529190911690632e48152c90602401602060405180830381865afa15801561164a573d6000803e3d6000fd5b505050506040513d601f19601f8201168201806040525081019061166e9190613333565b1561168c57604051633b3b4caf60e21b815260040160405180910390fd5b3384806001600160a01b03166311da60b46040518163ffffffff1660e01b8152600401600060405180830381600087803b1580156116c957600080fd5b505af11580156116dd573d6000803e3d6000fd5b50506040517ff667f8970000000000000000000000000000000000000000000000000000000081526001600160a01b0385811660048301528416925063f667f8979150602401600060405180830381600087803b15801561173d57600080fd5b505af1158015611751573d6000803e3d6000fd5b505086519150600090505b8181101561154e576117878888838151811061177a5761177a613300565b6020026020010151611fdc565b80611791816133b5565b91505061175c565b60006103ca826002016120b5565b60006117b4848390541190565b6117c057506000610491565b50600081815260018401602090815260408083206001600160a01b03861684529091529020549392505050565b606060006117fd85600201611f3e565b9050805167ffffffffffffffff8111156118195761181961302d565b60405190808252806020026020018201604052801561187557816020015b6118626040518060800160405280600081526020016000815260200160008152602001600081525090565b8152602001906001900390816118375790505b50915060005b81518110156119eb57600082828151811061189857611898613300565b6020026020010151905060008760000182815481106118b9576118b9613300565b600091825260208083206040805160a0810182526006909402909101805484528151808301835260018083015482526002808401548387015286860192909252600383015486850152600483015460608701526005909201546001600160a01b03166080860152878652908d01909252832090810154919350919015801561194957506020880151604084015111155b1561195c576119598a858a6120bf565b90505b6000808360030154600014801561197e575060208a015161197e9086906120dc565b156119945761198e8c8c886120fc565b90925090505b6040518060800160405280878152602001848152602001838152602001828152508988815181106119c7576119c7613300565b602002602001018190525050505050505080806119e3906133b5565b91505061187b565b50509392505050565b8051606082015115611a4457611a44611a0d84836103d0565b60608401516001600160a01b0386166000908152602081905260409020611a3490856121ab565b6001600160a01b03169190611aee565b602082015115611a975780836001600160a01b03167f1239d8c1165187259e281474a9ae5bb87fabb197873589de0a2645ae5e2261da8460200151604051611a8e91815260200190565b60405180910390a35b6040820151156105495780836001600160a01b03167fc590246f839a70d2279ef40b9e46b50bb20789c016f823abca87b69963f225848460400151604051611ae191815260200190565b60405180910390a3505050565b6105496001600160a01b03841683836121e6565b303b15158015611b3157507fad57d7911b7e3d6c3c79a68ba909a7f4ba41f9485e5207b12dee0d0c6af5398c54155b15611b4f57604051631a27c4a960e21b815260040160405180910390fd5b6001600160a01b0381163b611b90576040517f14878b6900000000000000000000000000000000000000000000000000000000815260040160405180910390fd5b611bb97f0e555410d8128dff796eab5d29b97dd593ce9cab44a71b64c08244579ea60533829055565b50565b303b15158015611beb57507fad57d7911b7e3d6c3c79a68ba909a7f4ba41f9485e5207b12dee0d0c6af5398c54155b15611c0957604051631a27c4a960e21b815260040160405180910390fd5b60016000805160206137c383398151915255565b60408101514210611c5a576040517f0a5af16500000000000000000000000000000000000000000000000000000000815260040160405180910390fd5b6201518081606001511080611c7657506303c267008160600151115b15611bb9576040517f72cd3d6300000000000000000000000000000000000000000000000000000000815260040160405180910390fd5b611cb5612f7c565b600080611cd8611ccd670de0b6b3a76400008661228f565b60208701519061229b565b90506000611cf66110af8388602001516122ec90919063ffffffff16565b60208701929092525084925090505b9250929050565b600061049182846134ea565b815460018082018455600084815260208082208551600686029091019081558582015180518286015582015160028201556040808701516003830155606087015160048301556080870151600590920180547fffffffffffffffffffffffff0000000000000000000000000000000000000000166001600160a01b0390931692909217909155848352928601905220611db1908361233a565b611dbe6002840182611f32565b5092915050565b602081015181516000916103ca9190611d0c565b6105496001600160a01b038416833084612353565b611e196040518060800160405280600081526020016000815260200160008152602001600081525090565b600082815260018501602052604081206002810154909103611f0857611f028584866001600160a01b0316639d8870a76040518163ffffffff1660e01b8152600401602060405180830381865afa158015611e78573d6000803e3d6000fd5b505050506040513d601f19601f82011682018060405250810190611e9c9190613316565b6001600160a01b0316639d888e866040518163ffffffff1660e01b8152600401606060405180830381865afa158015611ed9573d6000803e3d6000fd5b505050506040513d601f19601f82011682018060405250810190611efd9190613502565b6120bf565b60208301525b8060030154600003611f2a57611f1f8585856120fc565b606084015260408301525b509392505050565b600061049183836123a4565b60606000610491836123f3565b6000611f5a868686868661244f565b6001600160a01b038416600090815260208890526040902054909150611f809082611d0c565b6001600160a01b0384166000908152602088905260409020556001860154611fa8908261228f565b8660010181905550505050505050565b60008181526001830160205260408120541515610491565b600061049183836126fe565b6001600160a01b03821660009081526020819052604090205482908290811061202a5760405163d063582960e01b81526001600160a01b038316600482015260248101829052604401610525565b6001600160a01b03841660009081526020819052604081209061204e8233876127f1565b905061205f3382611a3485896121ab565b84336001600160a01b0316876001600160a01b03167f865ca08d59f5cb456e85cd2f7ef63664ea4f73327414e9d8152c4158b0e94645846040516120a591815260200190565b60405180910390a4505050505050565b60006103ca825490565b805160008381526001850160205260409020600201819055610491565b6000826060015183604001516120f291906134ea565b9091101592915050565b6000806121908486600001858154811061211857612118613300565b600091825260208083206040805160a08101825260069094029091018054845281518083018352600180830154825260028301548286015285850191909152600382015485840152600482015460608601526005909101546001600160a01b031660808501528985528b019091529091209190612820565b90925090506121a26002860184611fd0565b50935093915050565b60008260000182815481106121c2576121c2613300565b60009182526020909120600690910201600501546001600160a01b03169392505050565b6040516001600160a01b0383166024820152604481018290526105499084907fa9059cbb00000000000000000000000000000000000000000000000000000000906064015b60408051601f198184030181529190526020810180517bffffffffffffffffffffffffffffffffffffffffffffffffffffffff167fffffffff0000000000000000000000000000000000000000000000000000000090931692909217909152612a28565b6000610491828461356c565b604080518082019091526000808252602082015260408051808201909152835181906122c79085612b0d565b81526020016122e3848660200151612b0d90919063ffffffff16565b90529392505050565b60408051808201909152600080825260208201526040805180820190915282518451829161231a919061228f565b81526020016122e38460200151866020015161228f90919063ffffffff16565b6123478160200151611dc5565b82600101819055505050565b6040516001600160a01b03808516602483015283166044820152606481018290526108269085907f23b872dd000000000000000000000000000000000000000000000000000000009060840161222b565b60008181526001830160205260408120546123eb575081546001818101845560008481526020808220909301849055845484825282860190935260409020919091556103ca565b5060006103ca565b60608160000180548060200260200160405190810160405280929190818152602001828054801561244357602002820191906000526020600020905b81548152602001906001019080831161242f575b50505050509050919050565b6000806000876002015460001461246a57876002015461246d565b83515b600389015415612481578860030154612485565b6000195b6040517f8e480b200000000000000000000000000000000000000000000000000000000081526001600160a01b0388811660048301529294509092506000916125279184916125229187918d1690638e480b2090602401602060405180830381865afa1580156124f9573d6000803e3d6000fd5b505050506040513d601f19601f8201168201806040525081019061251d91906133ce565b612b2c565b612b43565b90506000612539838760000151612b43565b905060006126358a6001600160a01b031663476fa96d856040518263ffffffff1660e01b815260040161256e91815260200190565b6040805180830381865afa15801561258a573d6000803e3d6000fd5b505050506040513d601f19601f820116820180604052508101906125ae9190613583565b6040517f476fa96d000000000000000000000000000000000000000000000000000000008152600481018590526001600160a01b038d169063476fa96d906024016040805180830381865afa15801561260b573d6000803e3d6000fd5b505050506040513d601f19601f8201168201806040525081019061262f9190613583565b90612b52565b6040517fb7648fb90000000000000000000000000000000000000000000000000000000081526001600160a01b038a811660048301529192506000916126c99184918e169063b7648fb9906024016040805180830381865afa15801561269f573d6000803e3d6000fd5b505050506040513d601f19601f820116820180604052508101906126c39190613583565b90612ba0565b90506126ee6126e96126e4836126de8e612bf4565b90612c1b565b612c69565b612c7d565b9c9b505050505050505050505050565b600081815260018301602052604081205480156127e757600061272260018361356c565b85549091506000906127369060019061356c565b905081811461279b57600086600001828154811061275657612756613300565b906000526020600020015490508087600001848154811061277957612779613300565b6000918252602080832090910192909255918252600188019052604090208390555b85548690806127ac576127ac6135b5565b6001900381819060005260206000200160009055905585600101600086815260200190815260200160002060009055600193505050506103ca565b60009150506103ca565b600081815260018401602090815260408083206001600160a01b038616845290915281208054908290556106ce565b60008060008560020154905061286e81866001600160a01b031663c07f47d46040518163ffffffff1660e01b8152600401602060405180830381865afa1580156124f9573d6000803e3d6000fd5b92508286600301819055506000856001600160a01b0316639d8870a76040518163ffffffff1660e01b8152600401602060405180830381865afa1580156128b9573d6000803e3d6000fd5b505050506040513d601f19601f820116820180604052508101906128dd9190613316565b604051637ece075d60e01b8152600481018490529091506000906001600160a01b03831690637ece075d90602401606060405180830381865afa158015612928573d6000803e3d6000fd5b505050506040513d601f19601f8201168201806040525081019061294c9190613502565b604051637ece075d60e01b8152600481018790529091506000906001600160a01b03841690637ece075d90602401606060405180830381865afa158015612997573d6000803e3d6000fd5b505050506040513d601f19601f820116820180604052508101906129bb9190613502565b90506000826020015182602001516129d3919061356c565b88606001516129e2919061356c565b9050612a018189606001516129fa8b60200151611dc5565b9190612cbd565b60018b0154909650612a13908761228f565b8a600101819055505050505050935093915050565b6000612a7d826040518060400160405280602081526020017f5361666545524332303a206c6f772d6c6576656c2063616c6c206661696c6564815250856001600160a01b0316612cca9092919063ffffffff16565b8051909150156105495780806020019051810190612a9b9190613333565b6105495760405162461bcd60e51b815260206004820152602a60248201527f5361666545524332303a204552433230206f7065726174696f6e20646964206e60448201527f6f742073756363656564000000000000000000000000000000000000000000006064820152608401610525565b6000670de0b6b3a7640000612b2283856135cb565b6104919190613600565b600081831015612b3c5781610491565b5090919050565b6000818310612b3c5781610491565b604080518082019091526000808252602082015260408051808201909152825184518291612b809190612cd9565b81526020016122e384602001518660200151612cd990919063ffffffff16565b60408051808201909152600080825260208201526040518060400160405280612bda8460000151612bd48760000151612ce5565b90612d2b565b81526020016122e38460200151612bd48760200151612ce5565b6040805180820190915260008082526020820152606082015160208301516103ca91612d4a565b604080518082019091526000808252602082015260408051808201909152825184518291612c499190612d2b565b81526020016122e384602001518660200151612d2b90919063ffffffff16565b602081015181516000916103ca9190612daf565b600081818112156103ca576040517f501f289e00000000000000000000000000000000000000000000000000000000815260048101829052602401610525565b60006106ce848484612dbb565b60606106ce8484600085612dd2565b60006104918284613614565b6000816001600160ff1b038111156103ca576040517ea07eb500000000000000000000000000000000000000000000000000000000815260048101829052602401610525565b6000670de0b6b3a7640000612d408385613653565b61049191906136da565b60408051808201909152600080825260208201526040518060400160405280612d8e612d7d612d7886612f1a565b612ce5565b8651612d8890612ce5565b90612f2e565b81526020016122e3612da2612d7886612f1a565b612d888760200151612ce5565b60006104918284613708565b600081612dc884866135cb565b6106ce9190613600565b606082471015612e4a5760405162461bcd60e51b815260206004820152602660248201527f416464726573733a20696e73756666696369656e742062616c616e636520666f60448201527f722063616c6c00000000000000000000000000000000000000000000000000006064820152608401610525565b6001600160a01b0385163b612ea15760405162461bcd60e51b815260206004820152601d60248201527f416464726573733a2063616c6c20746f206e6f6e2d636f6e74726163740000006044820152606401610525565b600080866001600160a01b03168587604051612ebd9190613773565b60006040518083038185875af1925050503d8060008114612efa576040519150601f19603f3d011682016040523d82523d6000602084013e612eff565b606091505b5091509150612f0f828286612f43565b979650505050505050565b60006103ca670de0b6b3a7640000836135cb565b600081612d40670de0b6b3a764000085613653565b60608315612f52575081610491565b825115612f625782518084602001fd5b8160405162461bcd60e51b8152600401610525919061378f565b6040518060a0016040528060008152602001612fab604051806040016040528060008152602001600081525090565b8152602001600081526020016000815260200160006001600160a01b031681525090565b6001600160a01b0381168114611bb957600080fd5b600060208284031215612ff657600080fd5b813561049181612fcf565b6000806040838503121561301457600080fd5b823561301f81612fcf565b946020939093013593505050565b634e487b7160e01b600052604160045260246000fd5b6040805190810167ffffffffffffffff8111828210171561307457634e487b7160e01b600052604160045260246000fd5b60405290565b60006060828403121561308c57600080fd5b6040516060810181811067ffffffffffffffff821117156130bd57634e487b7160e01b600052604160045260246000fd5b80604052508091508235815260208301356020820152604083013560408201525092915050565b600080608083850312156130f757600080fd5b823561310281612fcf565b9150613111846020850161307a565b90509250929050565b60008083601f84011261312c57600080fd5b50813567ffffffffffffffff81111561314457600080fd5b6020830191508360208260051b8501011115611d0557600080fd5b60008060006040848603121561317457600080fd5b833561317f81612fcf565b9250602084013567ffffffffffffffff81111561319b57600080fd5b6131a78682870161311a565b9497909650939450505050565b6000806000606084860312156131c957600080fd5b83356131d481612fcf565b925060208401356131e481612fcf565b929592945050506040919091013590565b6000806000806040858703121561320b57600080fd5b843567ffffffffffffffff8082111561322357600080fd5b61322f8883890161311a565b9096509450602087013591508082111561324857600080fd5b506132558782880161311a565b95989497509550505050565b60006060828403121561327357600080fd5b610491838361307a565b6000806020838503121561329057600080fd5b823567ffffffffffffffff8111156132a757600080fd5b6132b38582860161311a565b90969095509350505050565b60008082840360e08112156132d357600080fd5b83356132de81612fcf565b925060c0601f19820112156132f257600080fd5b506020830190509250929050565b634e487b7160e01b600052603260045260246000fd5b60006020828403121561332857600080fd5b815161049181612fcf565b60006020828403121561334557600080fd5b8151801515811461049157600080fd5b6000808335601e1984360301811261336c57600080fd5b83018035915067ffffffffffffffff82111561338757600080fd5b6020019150600581901b3603821315611d0557600080fd5b634e487b7160e01b600052601160045260246000fd5b6000600182016133c7576133c761339f565b5060010190565b6000602082840312156133e057600080fd5b5051919050565b6000604082840312156133f957600080fd5b6040516040810181811067ffffffffffffffff8211171561342a57634e487b7160e01b600052604160045260246000fd5b604052823581526020928301359281019290925250919050565b600060c0828403121561345657600080fd5b60405160a0810181811067ffffffffffffffff8211171561348757634e487b7160e01b600052604160045260246000fd5b6040528235815261349b84602085016133e7565b6020820152606083013560408201526080830135606082015260a08301356134c281612fcf565b60808201529392505050565b6000604082840312156134e057600080fd5b61049183836133e7565b600082198211156134fd576134fd61339f565b500190565b60006060828403121561351457600080fd5b6040516060810181811067ffffffffffffffff8211171561354557634e487b7160e01b600052604160045260246000fd5b80604052508251815260208301516020820152604083015160408201528091505092915050565b60008282101561357e5761357e61339f565b500390565b60006040828403121561359557600080fd5b61359d613043565b82518152602083015160208201528091505092915050565b634e487b7160e01b600052603160045260246000fd5b60008160001904831182151516156135e5576135e561339f565b500290565b634e487b7160e01b600052601260045260246000fd5b60008261360f5761360f6135ea565b500490565b600080831283600160ff1b018312811516156136325761363261339f565b836001600160ff1b0301831381161561364d5761364d61339f565b50500390565b60006001600160ff1b0360008413600084138583048511828216161561367b5761367b61339f565b600160ff1b600087128682058812818416161561369a5761369a61339f565b600087129250878205871284841616156136b6576136b661339f565b878505871281841616156136cc576136cc61339f565b505050929093029392505050565b6000826136e9576136e96135ea565b600160ff1b8214600019841416156137035761370361339f565b500590565b6000808212826001600160ff1b03038413811516156137295761372961339f565b82600160ff1b0384128116156137415761374161339f565b50500190565b60005b8381101561376257818101518382015260200161374a565b838111156108265750506000910152565b60008251613785818460208701613747565b9190910192915050565b60208152600082518060208401526137ae816040850160208701613747565b601f01601f1916919091016040019291505056fe1b30fe15febd596dffd21d4da0657732eea42b4b5a9789e3e6daab3d570999d7a264697066735822122055e472a67bffa0c2f196ab1b1365df8bcc534c6a5d3d8fccf298ddc11e81426f64736f6c634300080e0033",
  "devdoc": {
    "kind": "dev",
    "methods": {
      "active(address)": {
        "params": {
          "product": "Product to check for"
        },
        "returns": {
          "_0": "Number of active programs"
        }
      },
      "available(address,uint256)": {
        "params": {
          "product": "Product to return for",
          "programId": "Program to return for"
        },
        "returns": {
          "_0": "Available rewards for `programId`"
        }
      },
      "claim(address,uint256[])": {
        "params": {
          "product": "Product to claim rewards for",
          "programIds": "Programs to claim rewards for"
        }
      },
      "claim(address[],uint256[][])": {
        "params": {
          "products": "Products to claim rewards for",
          "programIds": "Programs to claim rewards for"
        }
      },
      "claimFee(address[])": {
        "params": {
          "tokens": "Tokens to claim fees for"
        }
      },
      "complete(address,uint256)": {
        "details": "Must be called as the program owner",
        "params": {
          "product": "Product that the program is running on",
          "programId": "Program to complete early"
        }
      },
      "count(address)": {
        "params": {
          "product": "Product to check for"
        },
        "returns": {
          "_0": "Number of programs (inactive or active)"
        }
      },
      "create(address,(uint256,(uint256,uint256),uint256,uint256,address))": {
        "details": "Must be called as the product or protocol owner",
        "params": {
          "product": "The product to create the new program on",
          "programInfo": "Parameters for the new program"
        },
        "returns": {
          "programId": "New program's ID"
        }
      },
      "initialize(address)": {
        "details": "Must be called atomically as part of the upgradeable proxy deployment to      avoid front-running",
        "params": {
          "controller_": "Factory contract address"
        }
      },
      "owner(address,uint256)": {
        "params": {
          "product": "Product to return for",
          "programId": "Program to return for"
        },
        "returns": {
          "_0": "The owner of `programId`"
        }
      },
      "programInfos(address,uint256)": {
        "params": {
          "product": "Product to return for",
          "programId": "Program to return for"
        },
        "returns": {
          "_0": "Program info"
        }
      },
      "sync((uint256,uint256,int256))": {
        "details": "Called every settle() from each product",
        "params": {
          "currentOracleVersion": "The preloaded current oracle version"
        }
      },
      "syncAccount(address,(uint256,uint256,int256))": {
        "details": "Called immediately proceeding a position update in the corresponding product",
        "params": {
          "account": "Account to sync",
          "currentOracleVersion": "The preloaded current oracle version"
        }
      },
      "treasury(address,uint256)": {
        "params": {
          "product": "Product to return for",
          "programId": "Program to return for"
        },
        "returns": {
          "_0": "The treasury of `programId`"
        }
      },
      "unclaimed(address,address,uint256)": {
        "params": {
          "account": "Account to return for",
          "product": "Product to return for",
          "programId": "Program to return for"
        },
        "returns": {
          "_0": "`account`'s total unclaimed rewards for `programId`"
        }
      },
      "versionComplete(address,uint256)": {
        "params": {
          "product": "Product to return for",
          "programId": "Program to return for"
        },
        "returns": {
          "_0": "The version completed for `programId`"
        }
      },
      "versionStarted(address,uint256)": {
        "params": {
          "product": "Product to return for",
          "programId": "Program to return for"
        },
        "returns": {
          "_0": "The version started for `programId`"
        }
      }
    },
    "stateVariables": {
      "_products": {
        "details": "Product management state"
      },
      "fees": {
        "details": "Fees that have been collected, but remain unclaimed"
      }
    },
    "title": "Incentivizer",
    "version": 1
  },
  "userdoc": {
    "kind": "user",
    "methods": {
      "active(address)": {
        "notice": "Returns the quantity of active programs for a given product"
      },
      "available(address,uint256)": {
        "notice": "Returns available rewards for a specific program"
      },
      "claim(address,uint256[])": {
        "notice": "Claims all of `msg.sender`'s rewards for `product` programs"
      },
      "claim(address[],uint256[][])": {
        "notice": "Claims all of `msg.sender`'s rewards for a specific program"
      },
      "claimFee(address[])": {
        "notice": "Claims all `tokens` fees to the protocol treasury"
      },
      "complete(address,uint256)": {
        "notice": "Completes an in-progress program early"
      },
      "count(address)": {
        "notice": "Returns the quantity of programs for a given product"
      },
      "create(address,(uint256,(uint256,uint256),uint256,uint256,address))": {
        "notice": "Creates a new incentive program"
      },
      "initialize(address)": {
        "notice": "Initializes the contract state"
      },
      "owner(address,uint256)": {
        "notice": "Returns the owner of a specific program"
      },
      "programInfos(address,uint256)": {
        "notice": "Returns program info for program `programId`"
      },
      "sync((uint256,uint256,int256))": {
        "notice": "Starts and completes programs as they become available"
      },
      "syncAccount(address,(uint256,uint256,int256))": {
        "notice": "Settles unsettled balance for `account`"
      },
      "treasury(address,uint256)": {
        "notice": "Returns the treasury of a specific program"
      },
      "unclaimed(address,address,uint256)": {
        "notice": "Returns `account`'s total unclaimed rewards for a specific program"
      },
      "versionComplete(address,uint256)": {
        "notice": "Returns the version completed for a specific program"
      },
      "versionStarted(address,uint256)": {
        "notice": "Returns the version started for a specific program"
      }
    },
    "notice": "Manages logic and state for all incentive programs in the protocol.",
    "version": 1
  },
  "storageLayout": {
    "storage": [
      {
        "astId": 11222,
        "contract": "contracts/incentivizer/Incentivizer.sol:Incentivizer",
        "label": "_products",
        "offset": 0,
        "slot": "0",
        "type": "t_mapping(t_contract(IProduct)14123,t_struct(ProductManager)12064_storage)"
      },
      {
        "astId": 11229,
        "contract": "contracts/incentivizer/Incentivizer.sol:Incentivizer",
        "label": "fees",
        "offset": 0,
        "slot": "1",
        "type": "t_mapping(t_userDefinedValueType(Token18)2721,t_userDefinedValueType(UFixed18)1949)"
      }
    ],
    "types": {
      "t_address": {
        "encoding": "inplace",
        "label": "address",
        "numberOfBytes": "20"
      },
      "t_array(t_bytes32)dyn_storage": {
        "base": "t_bytes32",
        "encoding": "dynamic_array",
        "label": "bytes32[]",
        "numberOfBytes": "32"
      },
      "t_array(t_struct(ProgramInfo)15323_storage)dyn_storage": {
        "base": "t_struct(ProgramInfo)15323_storage",
        "encoding": "dynamic_array",
        "label": "struct ProgramInfo[]",
        "numberOfBytes": "32"
      },
      "t_bytes32": {
        "encoding": "inplace",
        "label": "bytes32",
        "numberOfBytes": "32"
      },
      "t_contract(IProduct)14123": {
        "encoding": "inplace",
        "label": "contract IProduct",
        "numberOfBytes": "20"
      },
      "t_mapping(t_address,t_struct(UintSet)8786_storage)": {
        "encoding": "mapping",
        "key": "t_address",
        "label": "mapping(address => struct EnumerableSet.UintSet)",
        "numberOfBytes": "32",
        "value": "t_struct(UintSet)8786_storage"
      },
      "t_mapping(t_address,t_uint256)": {
        "encoding": "mapping",
        "key": "t_address",
        "label": "mapping(address => uint256)",
        "numberOfBytes": "32",
        "value": "t_uint256"
      },
      "t_mapping(t_address,t_userDefinedValueType(UFixed18)1949)": {
        "encoding": "mapping",
        "key": "t_address",
        "label": "mapping(address => UFixed18)",
        "numberOfBytes": "32",
        "value": "t_userDefinedValueType(UFixed18)1949"
      },
      "t_mapping(t_bytes32,t_uint256)": {
        "encoding": "mapping",
        "key": "t_bytes32",
        "label": "mapping(bytes32 => uint256)",
        "numberOfBytes": "32",
        "value": "t_uint256"
      },
      "t_mapping(t_contract(IProduct)14123,t_struct(ProductManager)12064_storage)": {
        "encoding": "mapping",
        "key": "t_contract(IProduct)14123",
        "label": "mapping(contract IProduct => struct ProductManager)",
        "numberOfBytes": "32",
        "value": "t_struct(ProductManager)12064_storage"
      },
      "t_mapping(t_uint256,t_struct(Program)12660_storage)": {
        "encoding": "mapping",
        "key": "t_uint256",
        "label": "mapping(uint256 => struct Program)",
        "numberOfBytes": "32",
        "value": "t_struct(Program)12660_storage"
      },
      "t_mapping(t_userDefinedValueType(Token18)2721,t_userDefinedValueType(UFixed18)1949)": {
        "encoding": "mapping",
        "key": "t_userDefinedValueType(Token18)2721",
        "label": "mapping(Token18 => UFixed18)",
        "numberOfBytes": "32",
        "value": "t_userDefinedValueType(UFixed18)1949"
      },
      "t_struct(Position)14431_storage": {
        "encoding": "inplace",
        "label": "struct Position",
        "members": [
          {
            "astId": 14426,
            "contract": "contracts/incentivizer/Incentivizer.sol:Incentivizer",
            "label": "maker",
            "offset": 0,
            "slot": "0",
            "type": "t_userDefinedValueType(UFixed18)1949"
          },
          {
            "astId": 14430,
            "contract": "contracts/incentivizer/Incentivizer.sol:Incentivizer",
            "label": "taker",
            "offset": 0,
            "slot": "1",
            "type": "t_userDefinedValueType(UFixed18)1949"
          }
        ],
        "numberOfBytes": "64"
      },
      "t_struct(ProductManager)12064_storage": {
        "encoding": "inplace",
        "label": "struct ProductManager",
        "members": [
          {
            "astId": 12042,
            "contract": "contracts/incentivizer/Incentivizer.sol:Incentivizer",
            "label": "programInfos",
            "offset": 0,
            "slot": "0",
            "type": "t_array(t_struct(ProgramInfo)15323_storage)dyn_storage"
          },
          {
            "astId": 12048,
            "contract": "contracts/incentivizer/Incentivizer.sol:Incentivizer",
            "label": "programs",
            "offset": 0,
            "slot": "1",
            "type": "t_mapping(t_uint256,t_struct(Program)12660_storage)"
          },
          {
            "astId": 12052,
            "contract": "contracts/incentivizer/Incentivizer.sol:Incentivizer",
            "label": "activePrograms",
            "offset": 0,
            "slot": "2",
            "type": "t_struct(UintSet)8786_storage"
          },
          {
            "astId": 12058,
            "contract": "contracts/incentivizer/Incentivizer.sol:Incentivizer",
            "label": "activeProgramsFor",
            "offset": 0,
            "slot": "4",
            "type": "t_mapping(t_address,t_struct(UintSet)8786_storage)"
          },
          {
            "astId": 12063,
            "contract": "contracts/incentivizer/Incentivizer.sol:Incentivizer",
            "label": "nextProgramFor",
            "offset": 0,
            "slot": "5",
            "type": "t_mapping(t_address,t_uint256)"
          }
        ],
        "numberOfBytes": "192"
      },
      "t_struct(Program)12660_storage": {
        "encoding": "inplace",
        "label": "struct Program",
        "members": [
          {
            "astId": 12649,
            "contract": "contracts/incentivizer/Incentivizer.sol:Incentivizer",
            "label": "settled",
            "offset": 0,
            "slot": "0",
            "type": "t_mapping(t_address,t_userDefinedValueType(UFixed18)1949)"
          },
          {
            "astId": 12653,
            "contract": "contracts/incentivizer/Incentivizer.sol:Incentivizer",
            "label": "available",
            "offset": 0,
            "slot": "1",
            "type": "t_userDefinedValueType(UFixed18)1949"
          },
          {
            "astId": 12656,
            "contract": "contracts/incentivizer/Incentivizer.sol:Incentivizer",
            "label": "versionStarted",
            "offset": 0,
            "slot": "2",
            "type": "t_uint256"
          },
          {
            "astId": 12659,
            "contract": "contracts/incentivizer/Incentivizer.sol:Incentivizer",
            "label": "versionComplete",
            "offset": 0,
            "slot": "3",
            "type": "t_uint256"
          }
        ],
        "numberOfBytes": "128"
      },
      "t_struct(ProgramInfo)15323_storage": {
        "encoding": "inplace",
        "label": "struct ProgramInfo",
        "members": [
          {
            "astId": 15308,
            "contract": "contracts/incentivizer/Incentivizer.sol:Incentivizer",
            "label": "coordinatorId",
            "offset": 0,
            "slot": "0",
            "type": "t_uint256"
          },
          {
            "astId": 15312,
            "contract": "contracts/incentivizer/Incentivizer.sol:Incentivizer",
            "label": "amount",
            "offset": 0,
            "slot": "1",
            "type": "t_struct(Position)14431_storage"
          },
          {
            "astId": 15315,
            "contract": "contracts/incentivizer/Incentivizer.sol:Incentivizer",
            "label": "start",
            "offset": 0,
            "slot": "3",
            "type": "t_uint256"
          },
          {
            "astId": 15318,
            "contract": "contracts/incentivizer/Incentivizer.sol:Incentivizer",
            "label": "duration",
            "offset": 0,
            "slot": "4",
            "type": "t_uint256"
          },
          {
            "astId": 15322,
            "contract": "contracts/incentivizer/Incentivizer.sol:Incentivizer",
            "label": "token",
            "offset": 0,
            "slot": "5",
            "type": "t_userDefinedValueType(Token18)2721"
          }
        ],
        "numberOfBytes": "192"
      },
      "t_struct(Set)8328_storage": {
        "encoding": "inplace",
        "label": "struct EnumerableSet.Set",
        "members": [
          {
            "astId": 8323,
            "contract": "contracts/incentivizer/Incentivizer.sol:Incentivizer",
            "label": "_values",
            "offset": 0,
            "slot": "0",
            "type": "t_array(t_bytes32)dyn_storage"
          },
          {
            "astId": 8327,
            "contract": "contracts/incentivizer/Incentivizer.sol:Incentivizer",
            "label": "_indexes",
            "offset": 0,
            "slot": "1",
            "type": "t_mapping(t_bytes32,t_uint256)"
          }
        ],
        "numberOfBytes": "64"
      },
      "t_struct(UintSet)8786_storage": {
        "encoding": "inplace",
        "label": "struct EnumerableSet.UintSet",
        "members": [
          {
            "astId": 8785,
            "contract": "contracts/incentivizer/Incentivizer.sol:Incentivizer",
            "label": "_inner",
            "offset": 0,
            "slot": "0",
            "type": "t_struct(Set)8328_storage"
          }
        ],
        "numberOfBytes": "64"
      },
      "t_uint256": {
        "encoding": "inplace",
        "label": "uint256",
        "numberOfBytes": "32"
      },
      "t_userDefinedValueType(Token18)2721": {
        "encoding": "inplace",
        "label": "Token18",
        "numberOfBytes": "20"
      },
      "t_userDefinedValueType(UFixed18)1949": {
        "encoding": "inplace",
        "label": "UFixed18",
        "numberOfBytes": "32"
      }
    }
  }
}