{
  "address": "0x38934b335543246A49F82dbf364C37BbC877d9f2",
  "abi": [
    {
      "inputs": [
        {
          "internalType": "uint256",
          "name": "value",
          "type": "uint256"
        }
      ],
      "name": "Fixed18OverflowError",
      "type": "error"
    },
    {
      "inputs": [],
      "name": "IncentivizerBatchClaimArgumentMismatchError",
      "type": "error"
    },
    {
      "inputs": [
        {
          "internalType": "contract IProduct",
          "name": "product",
          "type": "address"
        },
        {
          "internalType": "uint256",
          "name": "programId",
          "type": "uint256"
        }
      ],
      "name": "IncentivizerInvalidProgramError",
      "type": "error"
    },
    {
      "inputs": [
        {
          "internalType": "contract IProduct",
          "name": "product",
          "type": "address"
        }
      ],
      "name": "IncentivizerNotAllowedError",
      "type": "error"
    },
    {
      "inputs": [
        {
          "internalType": "contract IProduct",
          "name": "product",
          "type": "address"
        },
        {
          "internalType": "uint256",
          "name": "programId",
          "type": "uint256"
        }
      ],
      "name": "IncentivizerNotProgramOwnerError",
      "type": "error"
    },
    {
      "inputs": [],
      "name": "IncentivizerTooManyProgramsError",
      "type": "error"
    },
    {
      "inputs": [],
      "name": "InvalidControllerError",
      "type": "error"
    },
    {
      "inputs": [],
      "name": "NotCollateralError",
      "type": "error"
    },
    {
      "inputs": [
        {
          "internalType": "uint256",
          "name": "coordinatorId",
          "type": "uint256"
        }
      ],
      "name": "NotOwnerError",
      "type": "error"
    },
    {
      "inputs": [
        {
          "internalType": "contract IProduct",
          "name": "product",
          "type": "address"
        }
      ],
      "name": "NotProductError",
      "type": "error"
    },
    {
      "inputs": [],
      "name": "PausedError",
      "type": "error"
    },
    {
      "inputs": [],
      "name": "ProgramInvalidDurationError",
      "type": "error"
    },
    {
      "inputs": [],
      "name": "ProgramInvalidStartError",
      "type": "error"
    },
    {
      "inputs": [
        {
          "internalType": "int256",
          "name": "value",
          "type": "int256"
        }
      ],
      "name": "UFixed18UnderflowError",
      "type": "error"
    },
    {
      "inputs": [
        {
          "internalType": "uint256",
          "name": "version",
          "type": "uint256"
        }
      ],
      "name": "UInitializableAlreadyInitializedError",
      "type": "error"
    },
    {
      "inputs": [],
      "name": "UInitializableNotInitializingError",
      "type": "error"
    },
    {
      "inputs": [],
      "name": "UInitializableZeroVersionError",
      "type": "error"
    },
    {
      "inputs": [],
      "name": "UReentrancyGuardReentrantCallError",
      "type": "error"
    },
    {
      "anonymous": false,
      "inputs": [
        {
          "indexed": true,
          "internalType": "contract IProduct",
          "name": "product",
          "type": "address"
        },
        {
          "indexed": true,
          "internalType": "address",
          "name": "account",
          "type": "address"
        },
        {
          "indexed": true,
          "internalType": "uint256",
          "name": "programId",
          "type": "uint256"
        },
        {
          "indexed": false,
          "internalType": "UFixed18",
          "name": "amount",
          "type": "uint256"
        }
      ],
      "name": "Claim",
      "type": "event"
    },
    {
      "anonymous": false,
      "inputs": [
        {
          "indexed": true,
          "internalType": "Token18",
          "name": "token",
          "type": "address"
        },
        {
          "indexed": false,
          "internalType": "UFixed18",
          "name": "amount",
          "type": "uint256"
        }
      ],
      "name": "FeeClaim",
      "type": "event"
    },
    {
      "anonymous": false,
      "inputs": [
        {
          "indexed": false,
          "internalType": "uint256",
          "name": "version",
          "type": "uint256"
        }
      ],
      "name": "Initialized",
      "type": "event"
    },
    {
      "anonymous": false,
      "inputs": [
        {
          "indexed": true,
          "internalType": "contract IProduct",
          "name": "product",
          "type": "address"
        },
        {
          "indexed": true,
          "internalType": "uint256",
          "name": "programId",
          "type": "uint256"
        },
        {
          "indexed": false,
          "internalType": "uint256",
          "name": "version",
          "type": "uint256"
        }
      ],
      "name": "ProgramComplete",
      "type": "event"
    },
    {
      "anonymous": false,
      "inputs": [
        {
          "indexed": true,
          "internalType": "contract IProduct",
          "name": "product",
          "type": "address"
        },
        {
          "indexed": true,
          "internalType": "uint256",
          "name": "programId",
          "type": "uint256"
        },
        {
          "components": [
            {
              "internalType": "uint256",
              "name": "coordinatorId",
              "type": "uint256"
            },
            {
              "components": [
                {
                  "internalType": "UFixed18",
                  "name": "maker",
                  "type": "uint256"
                },
                {
                  "internalType": "UFixed18",
                  "name": "taker",
                  "type": "uint256"
                }
              ],
              "internalType": "struct Position",
              "name": "amount",
              "type": "tuple"
            },
            {
              "internalType": "uint256",
              "name": "start",
              "type": "uint256"
            },
            {
              "internalType": "uint256",
              "name": "duration",
              "type": "uint256"
            },
            {
              "internalType": "Token18",
              "name": "token",
              "type": "address"
            }
          ],
          "indexed": false,
          "internalType": "struct ProgramInfo",
          "name": "programInfo",
          "type": "tuple"
        },
        {
          "indexed": false,
          "internalType": "UFixed18",
          "name": "programFeeAmount",
          "type": "uint256"
        }
      ],
      "name": "ProgramCreated",
      "type": "event"
    },
    {
      "anonymous": false,
      "inputs": [
        {
          "indexed": true,
          "internalType": "contract IProduct",
          "name": "product",
          "type": "address"
        },
        {
          "indexed": true,
          "internalType": "uint256",
          "name": "programId",
          "type": "uint256"
        },
        {
          "indexed": false,
          "internalType": "uint256",
          "name": "version",
          "type": "uint256"
        }
      ],
      "name": "ProgramStarted",
      "type": "event"
    },
    {
      "inputs": [
        {
          "internalType": "contract IProduct",
          "name": "product",
          "type": "address"
        }
      ],
      "name": "active",
      "outputs": [
        {
          "internalType": "uint256",
          "name": "",
          "type": "uint256"
        }
      ],
      "stateMutability": "view",
      "type": "function"
    },
    {
      "inputs": [
        {
          "internalType": "contract IProduct",
          "name": "product",
          "type": "address"
        },
        {
          "internalType": "uint256",
          "name": "programId",
          "type": "uint256"
        }
      ],
      "name": "available",
      "outputs": [
        {
          "internalType": "UFixed18",
          "name": "",
          "type": "uint256"
        }
      ],
      "stateMutability": "view",
      "type": "function"
    },
    {
      "inputs": [
        {
          "internalType": "contract IProduct",
          "name": "product",
          "type": "address"
        },
        {
          "internalType": "uint256[]",
          "name": "programIds",
          "type": "uint256[]"
        }
      ],
      "name": "claim",
      "outputs": [],
      "stateMutability": "nonpayable",
      "type": "function"
    },
    {
      "inputs": [
        {
          "internalType": "contract IProduct[]",
          "name": "products",
          "type": "address[]"
        },
        {
          "internalType": "uint256[][]",
          "name": "programIds",
          "type": "uint256[][]"
        }
      ],
      "name": "claim",
      "outputs": [],
      "stateMutability": "nonpayable",
      "type": "function"
    },
    {
      "inputs": [
        {
          "internalType": "Token18[]",
          "name": "tokens",
          "type": "address[]"
        }
      ],
      "name": "claimFee",
      "outputs": [],
      "stateMutability": "nonpayable",
      "type": "function"
    },
    {
      "inputs": [
        {
          "internalType": "contract IProduct",
          "name": "product",
          "type": "address"
        },
        {
          "internalType": "uint256",
          "name": "programId",
          "type": "uint256"
        }
      ],
      "name": "complete",
      "outputs": [],
      "stateMutability": "nonpayable",
      "type": "function"
    },
    {
      "inputs": [],
      "name": "controller",
      "outputs": [
        {
          "internalType": "contract IController",
          "name": "",
          "type": "address"
        }
      ],
      "stateMutability": "view",
      "type": "function"
    },
    {
      "inputs": [
        {
          "internalType": "contract IProduct",
          "name": "product",
          "type": "address"
        }
      ],
      "name": "count",
      "outputs": [
        {
          "internalType": "uint256",
          "name": "",
          "type": "uint256"
        }
      ],
      "stateMutability": "view",
      "type": "function"
    },
    {
      "inputs": [
        {
          "internalType": "contract IProduct",
          "name": "product",
          "type": "address"
        },
        {
          "components": [
            {
              "internalType": "uint256",
              "name": "coordinatorId",
              "type": "uint256"
            },
            {
              "components": [
                {
                  "internalType": "UFixed18",
                  "name": "maker",
                  "type": "uint256"
                },
                {
                  "internalType": "UFixed18",
                  "name": "taker",
                  "type": "uint256"
                }
              ],
              "internalType": "struct Position",
              "name": "amount",
              "type": "tuple"
            },
            {
              "internalType": "uint256",
              "name": "start",
              "type": "uint256"
            },
            {
              "internalType": "uint256",
              "name": "duration",
              "type": "uint256"
            },
            {
              "internalType": "Token18",
              "name": "token",
              "type": "address"
            }
          ],
          "internalType": "struct ProgramInfo",
          "name": "programInfo",
          "type": "tuple"
        }
      ],
      "name": "create",
      "outputs": [
        {
          "internalType": "uint256",
          "name": "programId",
          "type": "uint256"
        }
      ],
      "stateMutability": "nonpayable",
      "type": "function"
    },
    {
      "inputs": [
        {
          "internalType": "Token18",
          "name": "",
          "type": "address"
        }
      ],
      "name": "fees",
      "outputs": [
        {
          "internalType": "UFixed18",
          "name": "",
          "type": "uint256"
        }
      ],
      "stateMutability": "view",
      "type": "function"
    },
    {
      "inputs": [
        {
          "internalType": "contract IController",
          "name": "controller_",
          "type": "address"
        }
      ],
      "name": "initialize",
      "outputs": [],
      "stateMutability": "nonpayable",
      "type": "function"
    },
    {
      "inputs": [
        {
          "internalType": "contract IProduct",
          "name": "product",
          "type": "address"
        },
        {
          "internalType": "uint256",
          "name": "programId",
          "type": "uint256"
        }
      ],
      "name": "owner",
      "outputs": [
        {
          "internalType": "address",
          "name": "",
          "type": "address"
        }
      ],
      "stateMutability": "view",
      "type": "function"
    },
    {
      "inputs": [
        {
          "internalType": "contract IProduct",
          "name": "product",
          "type": "address"
        },
        {
          "internalType": "uint256",
          "name": "programId",
          "type": "uint256"
        }
      ],
      "name": "programInfos",
      "outputs": [
        {
          "components": [
            {
              "internalType": "uint256",
              "name": "coordinatorId",
              "type": "uint256"
            },
            {
              "components": [
                {
                  "internalType": "UFixed18",
                  "name": "maker",
                  "type": "uint256"
                },
                {
                  "internalType": "UFixed18",
                  "name": "taker",
                  "type": "uint256"
                }
              ],
              "internalType": "struct Position",
              "name": "amount",
              "type": "tuple"
            },
            {
              "internalType": "uint256",
              "name": "start",
              "type": "uint256"
            },
            {
              "internalType": "uint256",
              "name": "duration",
              "type": "uint256"
            },
            {
              "internalType": "Token18",
              "name": "token",
              "type": "address"
            }
          ],
          "internalType": "struct ProgramInfo",
          "name": "",
          "type": "tuple"
        }
      ],
      "stateMutability": "view",
      "type": "function"
    },
    {
      "inputs": [
        {
          "components": [
            {
              "internalType": "uint256",
              "name": "version",
              "type": "uint256"
            },
            {
              "internalType": "uint256",
              "name": "timestamp",
              "type": "uint256"
            },
            {
              "internalType": "Fixed18",
              "name": "price",
              "type": "int256"
            }
          ],
          "internalType": "struct IOracleProvider.OracleVersion",
          "name": "currentOracleVersion",
          "type": "tuple"
        }
      ],
      "name": "sync",
      "outputs": [],
      "stateMutability": "nonpayable",
      "type": "function"
    },
    {
      "inputs": [
        {
          "internalType": "address",
          "name": "account",
          "type": "address"
        },
        {
          "components": [
            {
              "internalType": "uint256",
              "name": "version",
              "type": "uint256"
            },
            {
              "internalType": "uint256",
              "name": "timestamp",
              "type": "uint256"
            },
            {
              "internalType": "Fixed18",
              "name": "price",
              "type": "int256"
            }
          ],
          "internalType": "struct IOracleProvider.OracleVersion",
          "name": "currentOracleVersion",
          "type": "tuple"
        }
      ],
      "name": "syncAccount",
      "outputs": [],
      "stateMutability": "nonpayable",
      "type": "function"
    },
    {
      "inputs": [
        {
          "internalType": "contract IProduct",
          "name": "product",
          "type": "address"
        },
        {
          "internalType": "uint256",
          "name": "programId",
          "type": "uint256"
        }
      ],
      "name": "treasury",
      "outputs": [
        {
          "internalType": "address",
          "name": "",
          "type": "address"
        }
      ],
      "stateMutability": "view",
      "type": "function"
    },
    {
      "inputs": [
        {
          "internalType": "contract IProduct",
          "name": "product",
          "type": "address"
        },
        {
          "internalType": "address",
          "name": "account",
          "type": "address"
        },
        {
          "internalType": "uint256",
          "name": "programId",
          "type": "uint256"
        }
      ],
      "name": "unclaimed",
      "outputs": [
        {
          "internalType": "UFixed18",
          "name": "",
          "type": "uint256"
        }
      ],
      "stateMutability": "view",
      "type": "function"
    },
    {
      "inputs": [
        {
          "internalType": "contract IProduct",
          "name": "product",
          "type": "address"
        },
        {
          "internalType": "uint256",
          "name": "programId",
          "type": "uint256"
        }
      ],
      "name": "versionComplete",
      "outputs": [
        {
          "internalType": "uint256",
          "name": "",
          "type": "uint256"
        }
      ],
      "stateMutability": "view",
      "type": "function"
    },
    {
      "inputs": [
        {
          "internalType": "contract IProduct",
          "name": "product",
          "type": "address"
        },
        {
          "internalType": "uint256",
          "name": "programId",
          "type": "uint256"
        }
      ],
      "name": "versionStarted",
      "outputs": [
        {
          "internalType": "uint256",
          "name": "",
          "type": "uint256"
        }
      ],
      "stateMutability": "view",
      "type": "function"
    }
  ],
  "transactionHash": "0xd3365695662706f3d6dc73b0c6dd1d55be926dac803617b25bd5b8195cf404ea",
  "args": [],
  "numDeployments": 1,
  "solcInputHash": "dd52f03d8fef7833844e4ba864fd9fba",
  "bytecode": "0x608060405234801561001057600080fd5b506141e7806100206000396000f3fe608060405234801561001057600080fd5b50600436106101515760003560e01c806370f3f08b116100cd578063d758869111610081578063f77c479111610066578063f77c479114610325578063f8724aba1461032d578063faaebd211461037557600080fd5b8063d7588691146102ff578063e1e5a82e1461031257600080fd5b8063a55ff01d116100b2578063a55ff01d146102c6578063b774b601146102d9578063c4d66de8146102ec57600080fd5b806370f3f08b1461026b57806390672ad8146102b357600080fd5b80632c3e50e5116101245780634ea71327116101095780634ea713271461023257806366f8162e146102455780636da0d5401461025857600080fd5b80632c3e50e5146101ff578063457182781461021f57600080fd5b806305d85eda14610156578063095c82411461019f578063144dcdd1146101b25780631830349c146101ea575b600080fd5b61018c6101643660046136a4565b73ffffffffffffffffffffffffffffffffffffffff1660009081526020819052604090205490565b6040519081526020015b60405180910390f35b61018c6101ad3660046136c1565b610395565b6101c56101c03660046136c1565b6103d1565b60405173ffffffffffffffffffffffffffffffffffffffff9091168152602001610196565b6101fd6101f83660046137ef565b6104c0565b005b61021261020d3660046136c1565b6105b5565b6040516101969190613825565b6101fd61022d3660046138c6565b61066f565b61018c6102403660046136a4565b61075a565b61018c61025336600461391b565b610788565b6101c56102663660046136c1565b6107c0565b61018c6102793660046136c1565b73ffffffffffffffffffffffffffffffffffffffff9190911660009081526020818152604080832093835260019093019052206003015490565b6101fd6102c136600461395c565b610837565b6101fd6102d43660046139c8565b6109c3565b6101fd6102e73660046139e4565b610af0565b6101fd6102fa3660046136a4565b610cfa565b61018c61030d366004613a26565b610e18565b6101fd6103203660046136c1565b6114b6565b6101c5611771565b61018c61033b3660046136c1565b73ffffffffffffffffffffffffffffffffffffffff9190911660009081526020818152604080832093835260019384019091529020015490565b61018c6103833660046136a4565b60016020526000908152604090205481565b73ffffffffffffffffffffffffffffffffffffffff82166000908152602081815260408083208484526001019091529020600201545b92915050565b60006103db611771565b73ffffffffffffffffffffffffffffffffffffffff16634c5430a06000808673ffffffffffffffffffffffffffffffffffffffff1673ffffffffffffffffffffffffffffffffffffffff168152602001908152602001600020600001848154811061044857610448613a85565b9060005260206000209060060201600001546040518263ffffffff1660e01b815260040161047891815260200190565b602060405180830381865afa158015610495573d6000803e3d6000fd5b505050506040513d601f19601f820116820180604052508101906104b99190613ab4565b9392505050565b6104c8611771565b6040517f7fd2919200000000000000000000000000000000000000000000000000000000815233600482015273ffffffffffffffffffffffffffffffffffffffff9190911690637fd2919290602401602060405180830381865afa158015610534573d6000803e3d6000fd5b505050506040513d601f19601f820116820180604052508101906105589190613ad1565b610595576040517f4d5325650000000000000000000000000000000000000000000000000000000081523360048201526024015b60405180910390fd5b3360008181526020819052604090206105b0908285856117a0565b505050565b6105bd613622565b73ffffffffffffffffffffffffffffffffffffffff831660009081526020819052604090208054839081106105f4576105f4613a85565b60009182526020918290206040805160a0810182526006909302909101805483528151808301835260018201548152600282015481860152938301939093526003830154908201526004820154606082015260059091015473ffffffffffffffffffffffffffffffffffffffff166080820152905092915050565b60026106997f1b30fe15febd596dffd21d4da0657732eea42b4b5a9789e3e6daab3d570999d75490565b036106d0576040517ff320323600000000000000000000000000000000000000000000000000000000815260040160405180910390fd5b60027f1b30fe15febd596dffd21d4da0657732eea42b4b5a9789e3e6daab3d570999d755610731838383808060200260200160405190810160405280939291908181526020018383602002808284376000920191909152506119ad92505050565b60017f1b30fe15febd596dffd21d4da0657732eea42b4b5a9789e3e6daab3d570999d755505050565b73ffffffffffffffffffffffffffffffffffffffff811660009081526020819052604081206103cb90611c10565b73ffffffffffffffffffffffffffffffffffffffff831660009081526020819052604081206107b8908484611c1e565b949350505050565b60006107ca611771565b73ffffffffffffffffffffffffffffffffffffffff1663a123c33e6000808673ffffffffffffffffffffffffffffffffffffffff1673ffffffffffffffffffffffffffffffffffffffff168152602001908152602001600020600001848154811061044857610448613a85565b60026108617f1b30fe15febd596dffd21d4da0657732eea42b4b5a9789e3e6daab3d570999d75490565b03610898576040517ff320323600000000000000000000000000000000000000000000000000000000815260040160405180910390fd5b60027f1b30fe15febd596dffd21d4da0657732eea42b4b5a9789e3e6daab3d570999d7558281146108f5576040517f90fb223000000000000000000000000000000000000000000000000000000000815260040160405180910390fd5b60005b838110156109975761098585858381811061091557610915613a85565b905060200201602081019061092a91906136a4565b84848481811061093c5761093c613a85565b905060200281019061094e9190613af3565b808060200260200160405190810160405280939291908181526020018383602002808284376000920191909152506119ad92505050565b8061098f81613b8a565b9150506108f8565b5060017f1b30fe15febd596dffd21d4da0657732eea42b4b5a9789e3e6daab3d570999d7555b50505050565b6109cb611771565b6040517f7fd2919200000000000000000000000000000000000000000000000000000000815233600482015273ffffffffffffffffffffffffffffffffffffffff9190911690637fd2919290602401602060405180830381865afa158015610a37573d6000803e3d6000fd5b505050506040513d601f19601f82011682018060405250810190610a5b9190613ad1565b610a93576040517f4d53256500000000000000000000000000000000000000000000000000000000815233600482015260240161058c565b336000818152602081905260408120610aad908385611c71565b905060005b81518110156109bd57610ade83838381518110610ad157610ad1613a85565b6020026020010151611e85565b80610ae881613b8a565b915050610ab2565b610af8611771565b73ffffffffffffffffffffffffffffffffffffffff16635c975abb6040518163ffffffff1660e01b8152600401602060405180830381865afa158015610b42573d6000803e3d6000fd5b505050506040513d601f19601f82011682018060405250810190610b669190613ad1565b15610b9d576040517feced32bc00000000000000000000000000000000000000000000000000000000815260040160405180910390fd5b60005b818110156105b0576000838383818110610bbc57610bbc613a85565b9050602002016020810190610bd191906136a4565b73ffffffffffffffffffffffffffffffffffffffff811660009081526001602052604081208054919055909150610c95610c09611771565b73ffffffffffffffffffffffffffffffffffffffff166361d027b36040518163ffffffff1660e01b8152600401602060405180830381865afa158015610c53573d6000803e3d6000fd5b505050506040513d601f19601f82011682018060405250810190610c779190613ab4565b73ffffffffffffffffffffffffffffffffffffffff84169083611fb3565b8173ffffffffffffffffffffffffffffffffffffffff167f10df095d1434aed409b2f33d2a6a8456f8b0824633cc12a1b43032085aadc41d82604051610cdd91815260200190565b60405180910390a250508080610cf290613b8a565b915050610ba0565b600180610d257f5db5abc19987c2b3729df7961b62b6bb0bae886dd47e3ce25bb3a3af34c6d80b5490565b10610d5f576040517f1e7a9d950000000000000000000000000000000000000000000000000000000081526004810182905260240161058c565b610d887f5db5abc19987c2b3729df7961b62b6bb0bae886dd47e3ce25bb3a3af34c6d80b829055565b60017fad57d7911b7e3d6c3c79a68ba909a7f4ba41f9485e5207b12dee0d0c6af5398c55610db582611fd4565b610dbd6120b4565b60007fad57d7911b7e3d6c3c79a68ba909a7f4ba41f9485e5207b12dee0d0c6af5398c556040518181527fbe9b076dc5b65990cca9dd9d7366682482e7817a6f6bc7f4faf4dc32af497f329060200160405180910390a15050565b60006002610e447f1b30fe15febd596dffd21d4da0657732eea42b4b5a9789e3e6daab3d570999d75490565b03610e7b576040517ff320323600000000000000000000000000000000000000000000000000000000815260040160405180910390fd5b60027f1b30fe15febd596dffd21d4da0657732eea42b4b5a9789e3e6daab3d570999d75582610ea8611771565b6040517f7fd2919200000000000000000000000000000000000000000000000000000000815273ffffffffffffffffffffffffffffffffffffffff83811660048301529190911690637fd2919290602401602060405180830381865afa158015610f16573d6000803e3d6000fd5b505050506040513d601f19601f82011682018060405250810190610f3a9190613ad1565b610f88576040517f4d53256500000000000000000000000000000000000000000000000000000000815273ffffffffffffffffffffffffffffffffffffffff8216600482015260240161058c565b610f90611771565b73ffffffffffffffffffffffffffffffffffffffff16635c975abb6040518163ffffffff1660e01b8152600401602060405180830381865afa158015610fda573d6000803e3d6000fd5b505050506040513d601f19601f82011682018060405250810190610ffe9190613ad1565b15611035576040517feced32bc00000000000000000000000000000000000000000000000000000000815260040160405180910390fd5b823561103f611771565b73ffffffffffffffffffffffffffffffffffffffff1663a123c33e826040518263ffffffff1660e01b815260040161107991815260200190565b602060405180830381865afa158015611096573d6000803e3d6000fd5b505050506040513d601f19601f820116820180604052508101906110ba9190613ab4565b73ffffffffffffffffffffffffffffffffffffffff163373ffffffffffffffffffffffffffffffffffffffff1614611121576040517f48f62f3c0000000000000000000000000000000000000000000000000000000081526004810182905260240161058c565b600061112b611771565b90508435158015906111cd57506040517f7d254e6600000000000000000000000000000000000000000000000000000000815273ffffffffffffffffffffffffffffffffffffffff8781166004830152821690637d254e6690602401602060405180830381865afa1580156111a4573d6000803e3d6000fd5b505050506040513d601f19601f820116820180604052508101906111c89190613bc2565b853514155b1561121c576040517fe264a52400000000000000000000000000000000000000000000000000000000815273ffffffffffffffffffffffffffffffffffffffff8716600482015260240161058c565b8073ffffffffffffffffffffffffffffffffffffffff16637d49c1b76040518163ffffffff1660e01b8152600401602060405180830381865afa158015611267573d6000803e3d6000fd5b505050506040513d601f19601f8201168201806040525081019061128b9190613bc2565b6112948761075a565b106112cb576040517f1651519200000000000000000000000000000000000000000000000000000000815260040160405180910390fd5b6112e26112dd36879003870187613c51565b612140565b60008061136b6112f736899003890189613c51565b8473ffffffffffffffffffffffffffffffffffffffff16633ceda0116040518163ffffffff1660e01b8152600401602060405180830381865afa158015611342573d6000803e3d6000fd5b505050506040513d601f19601f820116820180604052508101906113669190613bc2565b6121d0565b608082015173ffffffffffffffffffffffffffffffffffffffff1660009081526001602052604090205491935091506113a4908261222f565b608083015173ffffffffffffffffffffffffffffffffffffffff908116600090815260016020908152604080832094909455918b16815290819052206113ea908361223b565b955061142c3361140a611405368b90038b0160208c01613cf4565b6122f5565b608085015173ffffffffffffffffffffffffffffffffffffffff169190612309565b858873ffffffffffffffffffffffffffffffffffffffff167fee8233a38e17998eb73ba822048e13762f2b68729ef94c45133866ee75754dc68484604051611475929190613d10565b60405180910390a350505050506103cb60017f1b30fe15febd596dffd21d4da0657732eea42b4b5a9789e3e6daab3d570999d76119a990919063ffffffff16565b60026114e07f1b30fe15febd596dffd21d4da0657732eea42b4b5a9789e3e6daab3d570999d75490565b03611517576040517ff320323600000000000000000000000000000000000000000000000000000000815260040160405180910390fd5b60027f1b30fe15febd596dffd21d4da0657732eea42b4b5a9789e3e6daab3d570999d75573ffffffffffffffffffffffffffffffffffffffff82166000908152602081905260409020548290829081106115bc576040517fd063582900000000000000000000000000000000000000000000000000000000815273ffffffffffffffffffffffffffffffffffffffff831660048201526024810182905260440161058c565b6115c4611771565b73ffffffffffffffffffffffffffffffffffffffff16635c975abb6040518163ffffffff1660e01b8152600401602060405180830381865afa15801561160e573d6000803e3d6000fd5b505050506040513d601f19601f820116820180604052508101906116329190613ad1565b15611669576040517feced32bc00000000000000000000000000000000000000000000000000000000815260040160405180910390fd5b838361167582826107c0565b73ffffffffffffffffffffffffffffffffffffffff163373ffffffffffffffffffffffffffffffffffffffff16146116f8576040517fa17e375200000000000000000000000000000000000000000000000000000000815273ffffffffffffffffffffffffffffffffffffffff831660048201526024810182905260440161058c565b73ffffffffffffffffffffffffffffffffffffffff8616600090815260208190526040812061172890888861232b565b90506117348782611e85565b505050505061176d60017f1b30fe15febd596dffd21d4da0657732eea42b4b5a9789e3e6daab3d570999d76119a990919063ffffffff16565b5050565b600061179b7f0e555410d8128dff796eab5d29b97dd593ce9cab44a71b64c08244579ea605335490565b905090565b73ffffffffffffffffffffffffffffffffffffffff821660009081526005850160205260409020548454815b818110156118185773ffffffffffffffffffffffffffffffffffffffff851660009081526004880160205260409020611805908261241b565b508061181081613b8a565b9150506117cc565b5073ffffffffffffffffffffffffffffffffffffffff84166000908152600587016020908152604080832084905560048901909152812061185890612427565b905060005b815181101561199f57600082828151811061187a5761187a613a85565b6020026020010151905060008960010160008381526020019081526020016000209050611933898b60000184815481106118b6576118b6613a85565b60009182526020918290206040805160a0810182526006909302909101805483528151808301835260018201548152600282015481860152938301939093526003830154908201526004820154606082015260059091015473ffffffffffffffffffffffffffffffffffffffff1660808201528391908b8b612434565b61194060028b01836124bb565b15801561195257506003810154875110155b1561198a5773ffffffffffffffffffffffffffffffffffffffff8816600090815260048b016020526040902061198890836124d3565b505b5050808061199790613b8a565b91505061185d565b5050505050505050565b9055565b816119b6611771565b6040517f7fd2919200000000000000000000000000000000000000000000000000000000815273ffffffffffffffffffffffffffffffffffffffff83811660048301529190911690637fd2919290602401602060405180830381865afa158015611a24573d6000803e3d6000fd5b505050506040513d601f19601f82011682018060405250810190611a489190613ad1565b611a96576040517f4d53256500000000000000000000000000000000000000000000000000000000815273ffffffffffffffffffffffffffffffffffffffff8216600482015260240161058c565b611a9e611771565b73ffffffffffffffffffffffffffffffffffffffff16635c975abb6040518163ffffffff1660e01b8152600401602060405180830381865afa158015611ae8573d6000803e3d6000fd5b505050506040513d601f19601f82011682018060405250810190611b0c9190613ad1565b15611b43576040517feced32bc00000000000000000000000000000000000000000000000000000000815260040160405180910390fd5b6040517ff667f897000000000000000000000000000000000000000000000000000000008152336004820181905290849073ffffffffffffffffffffffffffffffffffffffff82169063f667f89790602401600060405180830381600087803b158015611baf57600080fd5b505af1158015611bc3573d6000803e3d6000fd5b5050505060005b8451811015611c0857611bf686868381518110611be957611be9613a85565b60200260200101516124df565b80611c0081613b8a565b915050611bca565b505050505050565b60006103cb82600201612612565b6000611c2b848390541190565b611c37575060006104b9565b506000818152600184016020908152604080832073ffffffffffffffffffffffffffffffffffffffff861684529091529020549392505050565b60606000611c8185600201612427565b9050805167ffffffffffffffff811115611c9d57611c9d6136ed565b604051908082528060200260200182016040528015611cf957816020015b611ce66040518060800160405280600081526020016000815260200160008152602001600081525090565b815260200190600190039081611cbb5790505b50915060005b8151811015611e7c576000828281518110611d1c57611d1c613a85565b602002602001015190506000876000018281548110611d3d57611d3d613a85565b600091825260208083206040805160a08101825260069094029091018054845281518083018352600180830154825260028084015483870152868601929092526003830154868501526004830154606087015260059092015473ffffffffffffffffffffffffffffffffffffffff166080860152878652908d019092528320908101549193509190158015611dda57506020880151604084015111155b15611ded57611dea8a858a61261c565b90505b60008083600301546000148015611e0f575060208a0151611e0f908690612639565b15611e2557611e1f8c8c88612659565b90925090505b604051806080016040528087815260200184815260200183815260200182815250898881518110611e5857611e58613a85565b60200260200101819052505050505050508080611e7490613b8a565b915050611cff565b50509392505050565b8051606082015115611eef57611eef611e9e84836103d1565b606084015173ffffffffffffffffffffffffffffffffffffffff86166000908152602081905260409020611ed29085612715565b73ffffffffffffffffffffffffffffffffffffffff169190611fb3565b602082015115611f4f57808373ffffffffffffffffffffffffffffffffffffffff167f1239d8c1165187259e281474a9ae5bb87fabb197873589de0a2645ae5e2261da8460200151604051611f4691815260200190565b60405180910390a35b6040820151156105b057808373ffffffffffffffffffffffffffffffffffffffff167fc590246f839a70d2279ef40b9e46b50bb20789c016f823abca87b69963f225848460400151604051611fa691815260200190565b60405180910390a3505050565b6105b073ffffffffffffffffffffffffffffffffffffffff8416838361275d565b303b1515801561200357507fad57d7911b7e3d6c3c79a68ba909a7f4ba41f9485e5207b12dee0d0c6af5398c54155b1561203a576040517f689f12a400000000000000000000000000000000000000000000000000000000815260040160405180910390fd5b73ffffffffffffffffffffffffffffffffffffffff81163b612088576040517f14878b6900000000000000000000000000000000000000000000000000000000815260040160405180910390fd5b6120b17f0e555410d8128dff796eab5d29b97dd593ce9cab44a71b64c08244579ea60533829055565b50565b303b151580156120e357507fad57d7911b7e3d6c3c79a68ba909a7f4ba41f9485e5207b12dee0d0c6af5398c54155b1561211a576040517f689f12a400000000000000000000000000000000000000000000000000000000815260040160405180910390fd5b60017f1b30fe15febd596dffd21d4da0657732eea42b4b5a9789e3e6daab3d570999d755565b6040810151421061217d576040517f0a5af16500000000000000000000000000000000000000000000000000000000815260040160405180910390fd5b620151808160600151108061219957506303c267008160600151115b156120b1576040517f72cd3d6300000000000000000000000000000000000000000000000000000000815260040160405180910390fd5b6121d8613622565b6000806121fb6121f0670de0b6b3a764000086612831565b60208701519061283d565b9050600061221961140583886020015161288e90919063ffffffff16565b60208701929092525084925090505b9250929050565b60006104b98284613d79565b815460018082018455600084815260208082208551600686029091019081558582015180518286015582015160028201556040808701516003830155606087015160048301556080870151600590920180547fffffffffffffffffffffffff00000000000000000000000000000000000000001673ffffffffffffffffffffffffffffffffffffffff909316929092179091558483529286019052206122e190836128dc565b6122ee600284018261241b565b5092915050565b602081015181516000916103cb919061222f565b6105b073ffffffffffffffffffffffffffffffffffffffff84168330846128f5565b6123566040518060800160405280600081526020016000815260200160008152602001600081525090565b6000828152600185016020526040812060028101549091036123f1576123eb85848673ffffffffffffffffffffffffffffffffffffffff16639d888e866040518163ffffffff1660e01b8152600401606060405180830381865afa1580156123c2573d6000803e3d6000fd5b505050506040513d601f19601f820116820180604052508101906123e69190613d91565b61261c565b60208301525b806003015460000361241357612408858585612659565b606084015260408301525b509392505050565b60006104b98383612953565b606060006104b9836129a2565b600061244386868686866129fe565b73ffffffffffffffffffffffffffffffffffffffff8416600090815260208890526040902054909150612476908261222f565b73ffffffffffffffffffffffffffffffffffffffff841660009081526020889052604090205560018601546124ab9082612831565b8660010181905550505050505050565b600081815260018301602052604081205415156104b9565b60006104b98383612cff565b73ffffffffffffffffffffffffffffffffffffffff8216600090815260208190526040902054829082908110612560576040517fd063582900000000000000000000000000000000000000000000000000000000815273ffffffffffffffffffffffffffffffffffffffff831660048201526024810182905260440161058c565b73ffffffffffffffffffffffffffffffffffffffff8416600090815260208190526040812090612591823387612df2565b90506125a23382611ed28589612715565b843373ffffffffffffffffffffffffffffffffffffffff168773ffffffffffffffffffffffffffffffffffffffff167f865ca08d59f5cb456e85cd2f7ef63664ea4f73327414e9d8152c4158b0e946458460405161260291815260200190565b60405180910390a4505050505050565b60006103cb825490565b8051600083815260018501602052604090206002018190556104b9565b60008260600151836040015161264f9190613d79565b9091101592915050565b6000806126fa8486600001858154811061267557612675613a85565b600091825260208083206040805160a081018252600690940290910180548452815180830183526001808301548252600283015482860152858501919091526003820154858401526004820154606086015260059091015473ffffffffffffffffffffffffffffffffffffffff1660808501528985528b019091529091209190612e2e565b909250905061270c60028601846124d3565b50935093915050565b600082600001828154811061272c5761272c613a85565b600091825260209091206006909102016005015473ffffffffffffffffffffffffffffffffffffffff169392505050565b60405173ffffffffffffffffffffffffffffffffffffffff83166024820152604481018290526105b09084907fa9059cbb00000000000000000000000000000000000000000000000000000000906064015b604080517fffffffffffffffffffffffffffffffffffffffffffffffffffffffffffffffe08184030181529190526020810180517bffffffffffffffffffffffffffffffffffffffffffffffffffffffff167fffffffff0000000000000000000000000000000000000000000000000000000090931692909217909152613026565b60006104b98284613e14565b604080518082019091526000808252602082015260408051808201909152835181906128699085613132565b815260200161288584866020015161313290919063ffffffff16565b90529392505050565b6040805180820190915260008082526020820152604080518082019091528251845182916128bc9190612831565b81526020016128858460200151866020015161283190919063ffffffff16565b6128e981602001516122f5565b82600101819055505050565b60405173ffffffffffffffffffffffffffffffffffffffff808516602483015283166044820152606481018290526109bd9085907f23b872dd00000000000000000000000000000000000000000000000000000000906084016127af565b600081815260018301602052604081205461299a575081546001818101845560008481526020808220909301849055845484825282860190935260409020919091556103cb565b5060006103cb565b6060816000018054806020026020016040519081016040528092919081815260200182805480156129f257602002820191906000526020600020905b8154815260200190600101908083116129de575b50505050509050919050565b60008060008760020154600014612a19578760020154612a1c565b83515b600389015415612a30578860030154612a52565b7fffffffffffffffffffffffffffffffffffffffffffffffffffffffffffffffff5b6040517f8e480b2000000000000000000000000000000000000000000000000000000000815273ffffffffffffffffffffffffffffffffffffffff8881166004830152929450909250600091612b01918491612afc9187918d1690638e480b2090602401602060405180830381865afa158015612ad3573d6000803e3d6000fd5b505050506040513d601f19601f82011682018060405250810190612af79190613bc2565b613151565b613168565b90506000612b13838760000151613168565b90506000612c298a73ffffffffffffffffffffffffffffffffffffffff1663476fa96d856040518263ffffffff1660e01b8152600401612b5591815260200190565b6040805180830381865afa158015612b71573d6000803e3d6000fd5b505050506040513d601f19601f82011682018060405250810190612b959190613e2b565b6040517f476fa96d0000000000000000000000000000000000000000000000000000000081526004810185905273ffffffffffffffffffffffffffffffffffffffff8d169063476fa96d906024016040805180830381865afa158015612bff573d6000803e3d6000fd5b505050506040513d601f19601f82011682018060405250810190612c239190613e2b565b90613177565b6040517fb7648fb900000000000000000000000000000000000000000000000000000000815273ffffffffffffffffffffffffffffffffffffffff8a81166004830152919250600091612cca9184918e169063b7648fb9906024016040805180830381865afa158015612ca0573d6000803e3d6000fd5b505050506040513d601f19601f82011682018060405250810190612cc49190613e2b565b906131c5565b9050612cef612cea612ce583612cdf8e613219565b90613240565b61328e565b6132a2565b9c9b505050505050505050505050565b60008181526001830160205260408120548015612de8576000612d23600183613e14565b8554909150600090612d3790600190613e14565b9050818114612d9c576000866000018281548110612d5757612d57613a85565b9060005260206000200154905080876000018481548110612d7a57612d7a613a85565b6000918252602080832090910192909255918252600188019052604090208390555b8554869080612dad57612dad613e5d565b6001900381819060005260206000200160009055905585600101600086815260200190815260200160002060009055600193505050506103cb565b60009150506103cb565b6000818152600184016020908152604080832073ffffffffffffffffffffffffffffffffffffffff8616845290915281208054908290556107b8565b600080600085600201549050612e89818673ffffffffffffffffffffffffffffffffffffffff1663c07f47d46040518163ffffffff1660e01b8152600401602060405180830381865afa158015612ad3573d6000803e3d6000fd5b600387018190556040517f7ece075d0000000000000000000000000000000000000000000000000000000081526004810183905290935060009073ffffffffffffffffffffffffffffffffffffffff871690637ece075d90602401606060405180830381865afa158015612f01573d6000803e3d6000fd5b505050506040513d601f19601f82011682018060405250810190612f259190613d91565b6040517f7ece075d0000000000000000000000000000000000000000000000000000000081526004810186905290915060009073ffffffffffffffffffffffffffffffffffffffff881690637ece075d90602401606060405180830381865afa158015612f96573d6000803e3d6000fd5b505050506040513d601f19601f82011682018060405250810190612fba9190613d91565b9050600082602001518260200151612fd29190613e14565b8760600151612fe19190613e14565b9050613000818860600151612ff98a602001516122f5565b91906132e2565b60018a01549095506130129086612831565b896001018190555050505050935093915050565b6000613088826040518060400160405280602081526020017f5361666545524332303a206c6f772d6c6576656c2063616c6c206661696c65648152508573ffffffffffffffffffffffffffffffffffffffff166132ef9092919063ffffffff16565b8051909150156105b057808060200190518101906130a69190613ad1565b6105b0576040517f08c379a000000000000000000000000000000000000000000000000000000000815260206004820152602a60248201527f5361666545524332303a204552433230206f7065726174696f6e20646964206e60448201527f6f74207375636365656400000000000000000000000000000000000000000000606482015260840161058c565b6000670de0b6b3a76400006131478385613e8c565b6104b99190613ef8565b60008183101561316157816104b9565b5090919050565b600081831061316157816104b9565b6040805180820190915260008082526020820152604080518082019091528251845182916131a591906132fe565b8152602001612885846020015186602001516132fe90919063ffffffff16565b604080518082019091526000808252602082015260405180604001604052806131ff84600001516131f9876000015161330a565b90613369565b815260200161288584602001516131f9876020015161330a565b6040805180820190915260008082526020820152606082015160208301516103cb91613388565b60408051808201909152600080825260208201526040805180820190915282518451829161326e9190613369565b81526020016128858460200151866020015161336990919063ffffffff16565b602081015181516000916103cb91906133ed565b600081818112156103cb576040517f501f289e0000000000000000000000000000000000000000000000000000000081526004810182905260240161058c565b60006107b88484846133f9565b60606107b88484600085613410565b60006104b98284613f0c565b6000817f7fffffffffffffffffffffffffffffffffffffffffffffffffffffffffffffff8111156103cb576040517ea07eb50000000000000000000000000000000000000000000000000000000081526004810182905260240161058c565b6000670de0b6b3a764000061337e8385613f80565b6104b9919061403c565b604080518082019091526000808252602082015260405180604001604052806133cc6133bb6133b6866135a6565b61330a565b86516133c69061330a565b906135ba565b81526020016128856133e06133b6866135a6565b6133c6876020015161330a565b60006104b982846140a4565b6000816134068486613e8c565b6107b89190613ef8565b6060824710156134a2576040517f08c379a000000000000000000000000000000000000000000000000000000000815260206004820152602660248201527f416464726573733a20696e73756666696369656e742062616c616e636520666f60448201527f722063616c6c0000000000000000000000000000000000000000000000000000606482015260840161058c565b73ffffffffffffffffffffffffffffffffffffffff85163b613520576040517f08c379a000000000000000000000000000000000000000000000000000000000815260206004820152601d60248201527f416464726573733a2063616c6c20746f206e6f6e2d636f6e7472616374000000604482015260640161058c565b6000808673ffffffffffffffffffffffffffffffffffffffff1685876040516135499190614144565b60006040518083038185875af1925050503d8060008114613586576040519150601f19603f3d011682016040523d82523d6000602084013e61358b565b606091505b509150915061359b8282866135cf565b979650505050505050565b60006103cb670de0b6b3a764000083613e8c565b60008161337e670de0b6b3a764000085613f80565b606083156135de5750816104b9565b8251156135ee5782518084602001fd5b816040517f08c379a000000000000000000000000000000000000000000000000000000000815260040161058c9190614160565b6040518060a0016040528060008152602001613651604051806040016040528060008152602001600081525090565b81526020016000815260200160008152602001600073ffffffffffffffffffffffffffffffffffffffff1681525090565b73ffffffffffffffffffffffffffffffffffffffff811681146120b157600080fd5b6000602082840312156136b657600080fd5b81356104b981613682565b600080604083850312156136d457600080fd5b82356136df81613682565b946020939093013593505050565b7f4e487b7100000000000000000000000000000000000000000000000000000000600052604160045260246000fd5b6040805190810167ffffffffffffffff81118282101715613766577f4e487b7100000000000000000000000000000000000000000000000000000000600052604160045260246000fd5b60405290565b60006060828403121561377e57600080fd5b6040516060810181811067ffffffffffffffff821117156137c8577f4e487b7100000000000000000000000000000000000000000000000000000000600052604160045260246000fd5b80604052508091508235815260208301356020820152604083013560408201525092915050565b6000806080838503121561380257600080fd5b823561380d81613682565b915061381c846020850161376c565b90509250929050565b60c081016103cb8284805182526020810151805160208401526020810151604084015250604081015160608301526060810151608083015273ffffffffffffffffffffffffffffffffffffffff60808201511660a08301525050565b60008083601f84011261389357600080fd5b50813567ffffffffffffffff8111156138ab57600080fd5b6020830191508360208260051b850101111561222857600080fd5b6000806000604084860312156138db57600080fd5b83356138e681613682565b9250602084013567ffffffffffffffff81111561390257600080fd5b61390e86828701613881565b9497909650939450505050565b60008060006060848603121561393057600080fd5b833561393b81613682565b9250602084013561394b81613682565b929592945050506040919091013590565b6000806000806040858703121561397257600080fd5b843567ffffffffffffffff8082111561398a57600080fd5b61399688838901613881565b909650945060208701359150808211156139af57600080fd5b506139bc87828801613881565b95989497509550505050565b6000606082840312156139da57600080fd5b6104b9838361376c565b600080602083850312156139f757600080fd5b823567ffffffffffffffff811115613a0e57600080fd5b613a1a85828601613881565b90969095509350505050565b60008082840360e0811215613a3a57600080fd5b8335613a4581613682565b925060c07fffffffffffffffffffffffffffffffffffffffffffffffffffffffffffffffe082011215613a7757600080fd5b506020830190509250929050565b7f4e487b7100000000000000000000000000000000000000000000000000000000600052603260045260246000fd5b600060208284031215613ac657600080fd5b81516104b981613682565b600060208284031215613ae357600080fd5b815180151581146104b957600080fd5b60008083357fffffffffffffffffffffffffffffffffffffffffffffffffffffffffffffffe1843603018112613b2857600080fd5b83018035915067ffffffffffffffff821115613b4357600080fd5b6020019150600581901b360382131561222857600080fd5b7f4e487b7100000000000000000000000000000000000000000000000000000000600052601160045260246000fd5b60007fffffffffffffffffffffffffffffffffffffffffffffffffffffffffffffffff8203613bbb57613bbb613b5b565b5060010190565b600060208284031215613bd457600080fd5b5051919050565b600060408284031215613bed57600080fd5b6040516040810181811067ffffffffffffffff82111715613c37577f4e487b7100000000000000000000000000000000000000000000000000000000600052604160045260246000fd5b604052823581526020928301359281019290925250919050565b600060c08284031215613c6357600080fd5b60405160a0810181811067ffffffffffffffff82111715613cad577f4e487b7100000000000000000000000000000000000000000000000000000000600052604160045260246000fd5b60405282358152613cc18460208501613bdb565b6020820152606083013560408201526080830135606082015260a0830135613ce881613682565b60808201529392505050565b600060408284031215613d0657600080fd5b6104b98383613bdb565b60e08101613d6c8285805182526020810151805160208401526020810151604084015250604081015160608301526060810151608083015273ffffffffffffffffffffffffffffffffffffffff60808201511660a08301525050565b8260c08301529392505050565b60008219821115613d8c57613d8c613b5b565b500190565b600060608284031215613da357600080fd5b6040516060810181811067ffffffffffffffff82111715613ded577f4e487b7100000000000000000000000000000000000000000000000000000000600052604160045260246000fd5b80604052508251815260208301516020820152604083015160408201528091505092915050565b600082821015613e2657613e26613b5b565b500390565b600060408284031215613e3d57600080fd5b613e4561371c565b82518152602083015160208201528091505092915050565b7f4e487b7100000000000000000000000000000000000000000000000000000000600052603160045260246000fd5b6000817fffffffffffffffffffffffffffffffffffffffffffffffffffffffffffffffff0483118215151615613ec457613ec4613b5b565b500290565b7f4e487b7100000000000000000000000000000000000000000000000000000000600052601260045260246000fd5b600082613f0757613f07613ec9565b500490565b6000808312837f800000000000000000000000000000000000000000000000000000000000000001831281151615613f4657613f46613b5b565b837f7fffffffffffffffffffffffffffffffffffffffffffffffffffffffffffffff018313811615613f7a57613f7a613b5b565b50500390565b60007f7fffffffffffffffffffffffffffffffffffffffffffffffffffffffffffffff600084136000841385830485118282161615613fc157613fc1613b5b565b7f80000000000000000000000000000000000000000000000000000000000000006000871286820588128184161615613ffc57613ffc613b5b565b6000871292508782058712848416161561401857614018613b5b565b8785058712818416161561402e5761402e613b5b565b505050929093029392505050565b60008261404b5761404b613ec9565b7fffffffffffffffffffffffffffffffffffffffffffffffffffffffffffffffff83147f80000000000000000000000000000000000000000000000000000000000000008314161561409f5761409f613b5b565b500590565b6000808212827f7fffffffffffffffffffffffffffffffffffffffffffffffffffffffffffffff038413811516156140de576140de613b5b565b827f800000000000000000000000000000000000000000000000000000000000000003841281161561411257614112613b5b565b50500190565b60005b8381101561413357818101518382015260200161411b565b838111156109bd5750506000910152565b60008251614156818460208701614118565b9190910192915050565b602081526000825180602084015261417f816040850160208701614118565b601f017fffffffffffffffffffffffffffffffffffffffffffffffffffffffffffffffe016919091016040019291505056fea2646970667358221220831c6b889a16c321a2b85f3e8d7e805b9de07b7c96d87d8c2eeb97c9c669aa1264736f6c634300080f0033",
  "devdoc": {
    "kind": "dev",
    "methods": {
      "active(address)": {
        "params": {
          "product": "Product to check for"
        },
        "returns": {
          "_0": "Number of active programs"
        }
      },
      "available(address,uint256)": {
        "params": {
          "product": "Product to return for",
          "programId": "Program to return for"
        },
        "returns": {
          "_0": "Available rewards for `programId`"
        }
      },
      "claim(address,uint256[])": {
        "params": {
          "product": "Product to claim rewards for",
          "programIds": "Programs to claim rewards for"
        }
      },
      "claim(address[],uint256[][])": {
        "params": {
          "products": "Products to claim rewards for",
          "programIds": "Programs to claim rewards for"
        }
      },
      "claimFee(address[])": {
        "params": {
          "tokens": "Tokens to claim fees for"
        }
      },
      "complete(address,uint256)": {
        "details": "Must be called as the program owner",
        "params": {
          "product": "Product that the program is running on",
          "programId": "Program to complete early"
        }
      },
      "count(address)": {
        "params": {
          "product": "Product to check for"
        },
        "returns": {
          "_0": "Number of programs (inactive or active)"
        }
      },
      "create(address,(uint256,(uint256,uint256),uint256,uint256,address))": {
        "details": "Must be called as the product or protocol owner",
        "params": {
          "product": "The product to create the new program on",
          "programInfo": "Parameters for the new program"
        },
        "returns": {
          "programId": "New program's ID"
        }
      },
      "initialize(address)": {
        "details": "Must be called atomically as part of the upgradeable proxy deployment to      avoid front-running",
        "params": {
          "controller_": "Factory contract address"
        }
      },
      "owner(address,uint256)": {
        "params": {
          "product": "Product to return for",
          "programId": "Program to return for"
        },
        "returns": {
          "_0": "The owner of `programId`"
        }
      },
      "programInfos(address,uint256)": {
        "params": {
          "product": "Product to return for",
          "programId": "Program to return for"
        },
        "returns": {
          "_0": "Program info"
        }
      },
      "sync((uint256,uint256,int256))": {
        "details": "Called every settle() from each product",
        "params": {
          "currentOracleVersion": "The preloaded current oracle version"
        }
      },
      "syncAccount(address,(uint256,uint256,int256))": {
        "details": "Called immediately proceeding a position update in the corresponding product",
        "params": {
          "account": "Account to sync",
          "currentOracleVersion": "The preloaded current oracle version"
        }
      },
      "treasury(address,uint256)": {
        "params": {
          "product": "Product to return for",
          "programId": "Program to return for"
        },
        "returns": {
          "_0": "The treasury of `programId`"
        }
      },
      "unclaimed(address,address,uint256)": {
        "params": {
          "account": "Account to return for",
          "product": "Product to return for",
          "programId": "Program to return for"
        },
        "returns": {
          "_0": "`account`'s total unclaimed rewards for `programId`"
        }
      },
      "versionComplete(address,uint256)": {
        "params": {
          "product": "Product to return for",
          "programId": "Program to return for"
        },
        "returns": {
          "_0": "The version completed for `programId`"
        }
      },
      "versionStarted(address,uint256)": {
        "params": {
          "product": "Product to return for",
          "programId": "Program to return for"
        },
        "returns": {
          "_0": "The version started for `programId`"
        }
      }
    },
    "stateVariables": {
      "_products": {
        "details": "Product management state"
      },
      "fees": {
        "details": "Fees that have been collected, but remain unclaimed"
      }
    },
    "title": "Incentivizer",
    "version": 1
  },
  "userdoc": {
    "kind": "user",
    "methods": {
      "active(address)": {
        "notice": "Returns the quantity of active programs for a given product"
      },
      "available(address,uint256)": {
        "notice": "Returns available rewards for a specific program"
      },
      "claim(address,uint256[])": {
        "notice": "Claims all of `msg.sender`'s rewards for `product` programs"
      },
      "claim(address[],uint256[][])": {
        "notice": "Claims all of `msg.sender`'s rewards for a specific program"
      },
      "claimFee(address[])": {
        "notice": "Claims all `tokens` fees to the protocol treasury"
      },
      "complete(address,uint256)": {
        "notice": "Completes an in-progress program early"
      },
      "count(address)": {
        "notice": "Returns the quantity of programs for a given product"
      },
      "create(address,(uint256,(uint256,uint256),uint256,uint256,address))": {
        "notice": "Creates a new incentive program"
      },
      "initialize(address)": {
        "notice": "Initializes the contract state"
      },
      "owner(address,uint256)": {
        "notice": "Returns the owner of a specific program"
      },
      "programInfos(address,uint256)": {
        "notice": "Returns program info for program `programId`"
      },
      "sync((uint256,uint256,int256))": {
        "notice": "Starts and completes programs as they become available"
      },
      "syncAccount(address,(uint256,uint256,int256))": {
        "notice": "Settles unsettled balance for `account`"
      },
      "treasury(address,uint256)": {
        "notice": "Returns the treasury of a specific program"
      },
      "unclaimed(address,address,uint256)": {
        "notice": "Returns `account`'s total unclaimed rewards for a specific program"
      },
      "versionComplete(address,uint256)": {
        "notice": "Returns the version completed for a specific program"
      },
      "versionStarted(address,uint256)": {
        "notice": "Returns the version started for a specific program"
      }
    },
    "notice": "Manages logic and state for all incentive programs in the protocol.",
    "version": 1
  },
  "storageLayout": {
    "storage": [
      {
        "astId": 12696,
        "contract": "contracts/incentivizer/Incentivizer.sol:Incentivizer",
        "label": "_products",
        "offset": 0,
        "slot": "0",
        "type": "t_mapping(t_contract(IProduct)16058,t_struct(ProductManager)13513_storage)"
      },
      {
        "astId": 12703,
        "contract": "contracts/incentivizer/Incentivizer.sol:Incentivizer",
        "label": "fees",
        "offset": 0,
        "slot": "1",
        "type": "t_mapping(t_userDefinedValueType(Token18)4011,t_userDefinedValueType(UFixed18)3224)"
      }
    ],
    "types": {
      "t_address": {
        "encoding": "inplace",
        "label": "address",
        "numberOfBytes": "20"
      },
      "t_array(t_bytes32)dyn_storage": {
        "base": "t_bytes32",
        "encoding": "dynamic_array",
        "label": "bytes32[]",
        "numberOfBytes": "32"
      },
      "t_array(t_struct(ProgramInfo)17434_storage)dyn_storage": {
        "base": "t_struct(ProgramInfo)17434_storage",
        "encoding": "dynamic_array",
        "label": "struct ProgramInfo[]",
        "numberOfBytes": "32"
      },
      "t_bytes32": {
        "encoding": "inplace",
        "label": "bytes32",
        "numberOfBytes": "32"
      },
      "t_contract(IProduct)16058": {
        "encoding": "inplace",
        "label": "contract IProduct",
        "numberOfBytes": "20"
      },
      "t_mapping(t_address,t_struct(UintSet)10257_storage)": {
        "encoding": "mapping",
        "key": "t_address",
        "label": "mapping(address => struct EnumerableSet.UintSet)",
        "numberOfBytes": "32",
        "value": "t_struct(UintSet)10257_storage"
      },
      "t_mapping(t_address,t_uint256)": {
        "encoding": "mapping",
        "key": "t_address",
        "label": "mapping(address => uint256)",
        "numberOfBytes": "32",
        "value": "t_uint256"
      },
      "t_mapping(t_address,t_userDefinedValueType(UFixed18)3224)": {
        "encoding": "mapping",
        "key": "t_address",
        "label": "mapping(address => UFixed18)",
        "numberOfBytes": "32",
        "value": "t_userDefinedValueType(UFixed18)3224"
      },
      "t_mapping(t_bytes32,t_uint256)": {
        "encoding": "mapping",
        "key": "t_bytes32",
        "label": "mapping(bytes32 => uint256)",
        "numberOfBytes": "32",
        "value": "t_uint256"
      },
      "t_mapping(t_contract(IProduct)16058,t_struct(ProductManager)13513_storage)": {
        "encoding": "mapping",
        "key": "t_contract(IProduct)16058",
        "label": "mapping(contract IProduct => struct ProductManager)",
        "numberOfBytes": "32",
        "value": "t_struct(ProductManager)13513_storage"
      },
      "t_mapping(t_uint256,t_struct(Program)14108_storage)": {
        "encoding": "mapping",
        "key": "t_uint256",
        "label": "mapping(uint256 => struct Program)",
        "numberOfBytes": "32",
        "value": "t_struct(Program)14108_storage"
      },
      "t_mapping(t_userDefinedValueType(Token18)4011,t_userDefinedValueType(UFixed18)3224)": {
        "encoding": "mapping",
        "key": "t_userDefinedValueType(Token18)4011",
        "label": "mapping(Token18 => UFixed18)",
        "numberOfBytes": "32",
        "value": "t_userDefinedValueType(UFixed18)3224"
      },
      "t_struct(Position)16613_storage": {
        "encoding": "inplace",
        "label": "struct Position",
        "members": [
          {
            "astId": 16608,
            "contract": "contracts/incentivizer/Incentivizer.sol:Incentivizer",
            "label": "maker",
            "offset": 0,
            "slot": "0",
            "type": "t_userDefinedValueType(UFixed18)3224"
          },
          {
            "astId": 16612,
            "contract": "contracts/incentivizer/Incentivizer.sol:Incentivizer",
            "label": "taker",
            "offset": 0,
            "slot": "1",
            "type": "t_userDefinedValueType(UFixed18)3224"
          }
        ],
        "numberOfBytes": "64"
      },
      "t_struct(ProductManager)13513_storage": {
        "encoding": "inplace",
        "label": "struct ProductManager",
        "members": [
          {
            "astId": 13491,
            "contract": "contracts/incentivizer/Incentivizer.sol:Incentivizer",
            "label": "programInfos",
            "offset": 0,
            "slot": "0",
            "type": "t_array(t_struct(ProgramInfo)17434_storage)dyn_storage"
          },
          {
            "astId": 13497,
            "contract": "contracts/incentivizer/Incentivizer.sol:Incentivizer",
            "label": "programs",
            "offset": 0,
            "slot": "1",
            "type": "t_mapping(t_uint256,t_struct(Program)14108_storage)"
          },
          {
            "astId": 13501,
            "contract": "contracts/incentivizer/Incentivizer.sol:Incentivizer",
            "label": "activePrograms",
            "offset": 0,
            "slot": "2",
            "type": "t_struct(UintSet)10257_storage"
          },
          {
            "astId": 13507,
            "contract": "contracts/incentivizer/Incentivizer.sol:Incentivizer",
            "label": "activeProgramsFor",
            "offset": 0,
            "slot": "4",
            "type": "t_mapping(t_address,t_struct(UintSet)10257_storage)"
          },
          {
            "astId": 13512,
            "contract": "contracts/incentivizer/Incentivizer.sol:Incentivizer",
            "label": "nextProgramFor",
            "offset": 0,
            "slot": "5",
            "type": "t_mapping(t_address,t_uint256)"
          }
        ],
        "numberOfBytes": "192"
      },
      "t_struct(Program)14108_storage": {
        "encoding": "inplace",
        "label": "struct Program",
        "members": [
          {
            "astId": 14097,
            "contract": "contracts/incentivizer/Incentivizer.sol:Incentivizer",
            "label": "settled",
            "offset": 0,
            "slot": "0",
            "type": "t_mapping(t_address,t_userDefinedValueType(UFixed18)3224)"
          },
          {
            "astId": 14101,
            "contract": "contracts/incentivizer/Incentivizer.sol:Incentivizer",
            "label": "available",
            "offset": 0,
            "slot": "1",
            "type": "t_userDefinedValueType(UFixed18)3224"
          },
          {
            "astId": 14104,
            "contract": "contracts/incentivizer/Incentivizer.sol:Incentivizer",
            "label": "versionStarted",
            "offset": 0,
            "slot": "2",
            "type": "t_uint256"
          },
          {
            "astId": 14107,
            "contract": "contracts/incentivizer/Incentivizer.sol:Incentivizer",
            "label": "versionComplete",
            "offset": 0,
            "slot": "3",
            "type": "t_uint256"
          }
        ],
        "numberOfBytes": "128"
      },
      "t_struct(ProgramInfo)17434_storage": {
        "encoding": "inplace",
        "label": "struct ProgramInfo",
        "members": [
          {
            "astId": 17419,
            "contract": "contracts/incentivizer/Incentivizer.sol:Incentivizer",
            "label": "coordinatorId",
            "offset": 0,
            "slot": "0",
            "type": "t_uint256"
          },
          {
            "astId": 17423,
            "contract": "contracts/incentivizer/Incentivizer.sol:Incentivizer",
            "label": "amount",
            "offset": 0,
            "slot": "1",
            "type": "t_struct(Position)16613_storage"
          },
          {
            "astId": 17426,
            "contract": "contracts/incentivizer/Incentivizer.sol:Incentivizer",
            "label": "start",
            "offset": 0,
            "slot": "3",
            "type": "t_uint256"
          },
          {
            "astId": 17429,
            "contract": "contracts/incentivizer/Incentivizer.sol:Incentivizer",
            "label": "duration",
            "offset": 0,
            "slot": "4",
            "type": "t_uint256"
          },
          {
            "astId": 17433,
            "contract": "contracts/incentivizer/Incentivizer.sol:Incentivizer",
            "label": "token",
            "offset": 0,
            "slot": "5",
            "type": "t_userDefinedValueType(Token18)4011"
          }
        ],
        "numberOfBytes": "192"
      },
      "t_struct(Set)9799_storage": {
        "encoding": "inplace",
        "label": "struct EnumerableSet.Set",
        "members": [
          {
            "astId": 9794,
            "contract": "contracts/incentivizer/Incentivizer.sol:Incentivizer",
            "label": "_values",
            "offset": 0,
            "slot": "0",
            "type": "t_array(t_bytes32)dyn_storage"
          },
          {
            "astId": 9798,
            "contract": "contracts/incentivizer/Incentivizer.sol:Incentivizer",
            "label": "_indexes",
            "offset": 0,
            "slot": "1",
            "type": "t_mapping(t_bytes32,t_uint256)"
          }
        ],
        "numberOfBytes": "64"
      },
      "t_struct(UintSet)10257_storage": {
        "encoding": "inplace",
        "label": "struct EnumerableSet.UintSet",
        "members": [
          {
            "astId": 10256,
            "contract": "contracts/incentivizer/Incentivizer.sol:Incentivizer",
            "label": "_inner",
            "offset": 0,
            "slot": "0",
            "type": "t_struct(Set)9799_storage"
          }
        ],
        "numberOfBytes": "64"
      },
      "t_uint256": {
        "encoding": "inplace",
        "label": "uint256",
        "numberOfBytes": "32"
      },
      "t_userDefinedValueType(Token18)4011": {
        "encoding": "inplace",
        "label": "Token18",
        "numberOfBytes": "20"
      },
      "t_userDefinedValueType(UFixed18)3224": {
        "encoding": "inplace",
        "label": "UFixed18",
        "numberOfBytes": "32"
      }
    }
  }
}