{
  "address": "0x00421c265Bc4bB4Bf769aB3816990424dDC8A4fE",
  "abi": [
    {
      "inputs": [
        {
          "internalType": "contract IController",
          "name": "_controller",
          "type": "address"
        }
      ],
      "stateMutability": "nonpayable",
      "type": "constructor"
    },
    {
      "inputs": [
        {
          "internalType": "contract IProduct",
          "name": "product",
          "type": "address"
        }
      ],
      "name": "collateral",
      "outputs": [
        {
          "internalType": "UFixed18",
          "name": "",
          "type": "uint256"
        }
      ],
      "stateMutability": "nonpayable",
      "type": "function"
    },
    {
      "inputs": [
        {
          "internalType": "address",
          "name": "account",
          "type": "address"
        },
        {
          "internalType": "contract IProduct",
          "name": "product",
          "type": "address"
        }
      ],
      "name": "collateral",
      "outputs": [
        {
          "internalType": "UFixed18",
          "name": "",
          "type": "uint256"
        }
      ],
      "stateMutability": "nonpayable",
      "type": "function"
    },
    {
      "inputs": [],
      "name": "collateral",
      "outputs": [
        {
          "internalType": "contract ICollateral",
          "name": "",
          "type": "address"
        }
      ],
      "stateMutability": "view",
      "type": "function"
    },
    {
      "inputs": [],
      "name": "controller",
      "outputs": [
        {
          "internalType": "contract IController",
          "name": "",
          "type": "address"
        }
      ],
      "stateMutability": "view",
      "type": "function"
    },
    {
      "inputs": [
        {
          "internalType": "contract IProduct",
          "name": "product",
          "type": "address"
        }
      ],
      "name": "dailyRate",
      "outputs": [
        {
          "internalType": "Fixed18",
          "name": "",
          "type": "int256"
        }
      ],
      "stateMutability": "nonpayable",
      "type": "function"
    },
    {
      "inputs": [
        {
          "internalType": "address",
          "name": "account",
          "type": "address"
        },
        {
          "internalType": "contract IProduct[]",
          "name": "products",
          "type": "address[]"
        }
      ],
      "name": "fees",
      "outputs": [
        {
          "internalType": "UFixed18",
          "name": "",
          "type": "uint256"
        }
      ],
      "stateMutability": "nonpayable",
      "type": "function"
    },
    {
      "inputs": [
        {
          "internalType": "contract IProduct",
          "name": "product",
          "type": "address"
        }
      ],
      "name": "fees",
      "outputs": [
        {
          "internalType": "UFixed18",
          "name": "protocolFees",
          "type": "uint256"
        },
        {
          "internalType": "UFixed18",
          "name": "productFees",
          "type": "uint256"
        }
      ],
      "stateMutability": "nonpayable",
      "type": "function"
    },
    {
      "inputs": [
        {
          "internalType": "contract IProduct",
          "name": "product",
          "type": "address"
        }
      ],
      "name": "globalPosition",
      "outputs": [
        {
          "components": [
            {
              "internalType": "uint256",
              "name": "oracleVersion",
              "type": "uint256"
            },
            {
              "components": [
                {
                  "internalType": "UFixed18",
                  "name": "maker",
                  "type": "uint256"
                },
                {
                  "internalType": "UFixed18",
                  "name": "taker",
                  "type": "uint256"
                }
              ],
              "internalType": "struct Position",
              "name": "openPosition",
              "type": "tuple"
            },
            {
              "components": [
                {
                  "internalType": "UFixed18",
                  "name": "maker",
                  "type": "uint256"
                },
                {
                  "internalType": "UFixed18",
                  "name": "taker",
                  "type": "uint256"
                }
              ],
              "internalType": "struct Position",
              "name": "closePosition",
              "type": "tuple"
            }
          ],
          "internalType": "struct PrePosition",
          "name": "",
          "type": "tuple"
        },
        {
          "components": [
            {
              "internalType": "UFixed18",
              "name": "maker",
              "type": "uint256"
            },
            {
              "internalType": "UFixed18",
              "name": "taker",
              "type": "uint256"
            }
          ],
          "internalType": "struct Position",
          "name": "",
          "type": "tuple"
        }
      ],
      "stateMutability": "nonpayable",
      "type": "function"
    },
    {
      "inputs": [
        {
          "internalType": "address",
          "name": "account",
          "type": "address"
        },
        {
          "internalType": "contract IProduct",
          "name": "product",
          "type": "address"
        }
      ],
      "name": "liquidatable",
      "outputs": [
        {
          "internalType": "bool",
          "name": "",
          "type": "bool"
        }
      ],
      "stateMutability": "nonpayable",
      "type": "function"
    },
    {
      "inputs": [
        {
          "internalType": "address",
          "name": "account",
          "type": "address"
        },
        {
          "internalType": "contract IProduct",
          "name": "product",
          "type": "address"
        }
      ],
      "name": "maintenance",
      "outputs": [
        {
          "internalType": "UFixed18",
          "name": "",
          "type": "uint256"
        }
      ],
      "stateMutability": "nonpayable",
      "type": "function"
    },
    {
      "inputs": [
        {
          "internalType": "address",
          "name": "account",
          "type": "address"
        },
        {
          "internalType": "contract IProduct",
          "name": "product",
          "type": "address"
        },
        {
          "internalType": "UFixed18",
          "name": "positionSize",
          "type": "uint256"
        }
      ],
      "name": "maintenanceRequired",
      "outputs": [
        {
          "internalType": "UFixed18",
          "name": "",
          "type": "uint256"
        }
      ],
      "stateMutability": "nonpayable",
      "type": "function"
    },
    {
      "inputs": [
        {
          "internalType": "contract IProduct",
          "name": "product",
          "type": "address"
        }
      ],
      "name": "name",
      "outputs": [
        {
          "internalType": "string",
          "name": "",
          "type": "string"
        }
      ],
      "stateMutability": "view",
      "type": "function"
    },
    {
      "inputs": [
        {
          "internalType": "address",
          "name": "account",
          "type": "address"
        },
        {
          "internalType": "contract IProduct",
          "name": "product",
          "type": "address"
        }
      ],
      "name": "openInterest",
      "outputs": [
        {
          "components": [
            {
              "internalType": "UFixed18",
              "name": "maker",
              "type": "uint256"
            },
            {
              "internalType": "UFixed18",
              "name": "taker",
              "type": "uint256"
            }
          ],
          "internalType": "struct Position",
          "name": "",
          "type": "tuple"
        }
      ],
      "stateMutability": "nonpayable",
      "type": "function"
    },
    {
      "inputs": [
        {
          "internalType": "contract IProduct",
          "name": "product",
          "type": "address"
        }
      ],
      "name": "openInterest",
      "outputs": [
        {
          "components": [
            {
              "internalType": "UFixed18",
              "name": "maker",
              "type": "uint256"
            },
            {
              "internalType": "UFixed18",
              "name": "taker",
              "type": "uint256"
            }
          ],
          "internalType": "struct Position",
          "name": "",
          "type": "tuple"
        }
      ],
      "stateMutability": "nonpayable",
      "type": "function"
    },
    {
      "inputs": [
        {
          "internalType": "contract IProduct",
          "name": "product",
          "type": "address"
        }
      ],
      "name": "position",
      "outputs": [
        {
          "components": [
            {
              "internalType": "UFixed18",
              "name": "maker",
              "type": "uint256"
            },
            {
              "internalType": "UFixed18",
              "name": "taker",
              "type": "uint256"
            }
          ],
          "internalType": "struct Position",
          "name": "",
          "type": "tuple"
        }
      ],
      "stateMutability": "nonpayable",
      "type": "function"
    },
    {
      "inputs": [
        {
          "internalType": "address",
          "name": "account",
          "type": "address"
        },
        {
          "internalType": "contract IProduct",
          "name": "product",
          "type": "address"
        }
      ],
      "name": "position",
      "outputs": [
        {
          "components": [
            {
              "internalType": "UFixed18",
              "name": "maker",
              "type": "uint256"
            },
            {
              "internalType": "UFixed18",
              "name": "taker",
              "type": "uint256"
            }
          ],
          "internalType": "struct Position",
          "name": "",
          "type": "tuple"
        }
      ],
      "stateMutability": "nonpayable",
      "type": "function"
    },
    {
      "inputs": [
        {
          "internalType": "contract IProduct",
          "name": "product",
          "type": "address"
        }
      ],
      "name": "pre",
      "outputs": [
        {
          "components": [
            {
              "internalType": "uint256",
              "name": "oracleVersion",
              "type": "uint256"
            },
            {
              "components": [
                {
                  "internalType": "UFixed18",
                  "name": "maker",
                  "type": "uint256"
                },
                {
                  "internalType": "UFixed18",
                  "name": "taker",
                  "type": "uint256"
                }
              ],
              "internalType": "struct Position",
              "name": "openPosition",
              "type": "tuple"
            },
            {
              "components": [
                {
                  "internalType": "UFixed18",
                  "name": "maker",
                  "type": "uint256"
                },
                {
                  "internalType": "UFixed18",
                  "name": "taker",
                  "type": "uint256"
                }
              ],
              "internalType": "struct Position",
              "name": "closePosition",
              "type": "tuple"
            }
          ],
          "internalType": "struct PrePosition",
          "name": "",
          "type": "tuple"
        }
      ],
      "stateMutability": "nonpayable",
      "type": "function"
    },
    {
      "inputs": [
        {
          "internalType": "address",
          "name": "account",
          "type": "address"
        },
        {
          "internalType": "contract IProduct",
          "name": "product",
          "type": "address"
        }
      ],
      "name": "pre",
      "outputs": [
        {
          "components": [
            {
              "internalType": "uint256",
              "name": "oracleVersion",
              "type": "uint256"
            },
            {
              "components": [
                {
                  "internalType": "UFixed18",
                  "name": "maker",
                  "type": "uint256"
                },
                {
                  "internalType": "UFixed18",
                  "name": "taker",
                  "type": "uint256"
                }
              ],
              "internalType": "struct Position",
              "name": "openPosition",
              "type": "tuple"
            },
            {
              "components": [
                {
                  "internalType": "UFixed18",
                  "name": "maker",
                  "type": "uint256"
                },
                {
                  "internalType": "UFixed18",
                  "name": "taker",
                  "type": "uint256"
                }
              ],
              "internalType": "struct Position",
              "name": "closePosition",
              "type": "tuple"
            }
          ],
          "internalType": "struct PrePosition",
          "name": "",
          "type": "tuple"
        }
      ],
      "stateMutability": "nonpayable",
      "type": "function"
    },
    {
      "inputs": [
        {
          "internalType": "contract IProduct",
          "name": "product",
          "type": "address"
        }
      ],
      "name": "price",
      "outputs": [
        {
          "internalType": "Fixed18",
          "name": "",
          "type": "int256"
        }
      ],
      "stateMutability": "nonpayable",
      "type": "function"
    },
    {
      "inputs": [
        {
          "internalType": "contract IProduct",
          "name": "product",
          "type": "address"
        }
      ],
      "name": "rate",
      "outputs": [
        {
          "internalType": "Fixed18",
          "name": "",
          "type": "int256"
        }
      ],
      "stateMutability": "nonpayable",
      "type": "function"
    },
    {
      "inputs": [
        {
          "internalType": "contract IProduct",
          "name": "product",
          "type": "address"
        }
      ],
      "name": "shortfall",
      "outputs": [
        {
          "internalType": "UFixed18",
          "name": "",
          "type": "uint256"
        }
      ],
      "stateMutability": "nonpayable",
      "type": "function"
    },
    {
      "inputs": [
        {
          "internalType": "contract IProduct",
          "name": "product",
          "type": "address"
        }
      ],
      "name": "symbol",
      "outputs": [
        {
          "internalType": "string",
          "name": "",
          "type": "string"
        }
      ],
      "stateMutability": "view",
      "type": "function"
    },
    {
      "inputs": [
        {
          "internalType": "address",
          "name": "account",
          "type": "address"
        },
        {
          "internalType": "contract IProduct",
          "name": "product",
          "type": "address"
        }
      ],
      "name": "unclaimedIncentiveRewards",
      "outputs": [
        {
          "internalType": "Token18[]",
          "name": "tokens",
          "type": "address[]"
        },
        {
          "internalType": "UFixed18[]",
          "name": "amounts",
          "type": "uint256[]"
        }
      ],
      "stateMutability": "nonpayable",
      "type": "function"
    },
    {
      "inputs": [
        {
          "internalType": "address",
          "name": "account",
          "type": "address"
        },
        {
          "internalType": "contract IProduct",
          "name": "product",
          "type": "address"
        },
        {
          "internalType": "uint256[]",
          "name": "programIds",
          "type": "uint256[]"
        }
      ],
      "name": "unclaimedIncentiveRewards",
      "outputs": [
        {
          "internalType": "Token18[]",
          "name": "tokens",
          "type": "address[]"
        },
        {
          "internalType": "UFixed18[]",
          "name": "amounts",
          "type": "uint256[]"
        }
      ],
      "stateMutability": "nonpayable",
      "type": "function"
    },
    {
      "inputs": [
        {
          "internalType": "address",
          "name": "account",
          "type": "address"
        },
        {
          "internalType": "contract IProduct",
          "name": "product",
          "type": "address"
        }
      ],
      "name": "userPosition",
      "outputs": [
        {
          "components": [
            {
              "internalType": "uint256",
              "name": "oracleVersion",
              "type": "uint256"
            },
            {
              "components": [
                {
                  "internalType": "UFixed18",
                  "name": "maker",
                  "type": "uint256"
                },
                {
                  "internalType": "UFixed18",
                  "name": "taker",
                  "type": "uint256"
                }
              ],
              "internalType": "struct Position",
              "name": "openPosition",
              "type": "tuple"
            },
            {
              "components": [
                {
                  "internalType": "UFixed18",
                  "name": "maker",
                  "type": "uint256"
                },
                {
                  "internalType": "UFixed18",
                  "name": "taker",
                  "type": "uint256"
                }
              ],
              "internalType": "struct Position",
              "name": "closePosition",
              "type": "tuple"
            }
          ],
          "internalType": "struct PrePosition",
          "name": "",
          "type": "tuple"
        },
        {
          "components": [
            {
              "internalType": "UFixed18",
              "name": "maker",
              "type": "uint256"
            },
            {
              "internalType": "UFixed18",
              "name": "taker",
              "type": "uint256"
            }
          ],
          "internalType": "struct Position",
          "name": "",
          "type": "tuple"
        }
      ],
      "stateMutability": "nonpayable",
      "type": "function"
    }
  ],
  "transactionHash": "0xe3bb446733a4a857d2430c9eb4cc6e5b38bb4ba2d55481faad1e0bd585c78580",
  "args": [
    "0x48d6deEE7c550442761A2F6Cde692373228530DC"
  ],
  "numDeployments": 1,
  "solcInputHash": "65527db1409d6958fd38b19b43619005",
  "bytecode": "0x60a06040523480156200001157600080fd5b5060405162002ef038038062002ef0833981016040819052620000349162000046565b6001600160a01b031660805262000078565b6000602082840312156200005957600080fd5b81516001600160a01b03811681146200007157600080fd5b9392505050565b608051612e39620000b7600039600081816103c601528181610d4801528181611a1601528181611ddc0152818161211d01526121db0152612e396000f3fe608060405234801561001057600080fd5b50600436106101a35760003560e01c8063a86e3576116100ee578063d8dfeb4511610097578063edd8ca7b11610071578063edd8ca7b146103ae578063f77c4791146103c1578063f8083f56146103e8578063faaebd21146103fb57600080fd5b8063d8dfeb4514610368578063db2ef22114610388578063e9c6b4c11461039b57600080fd5b8063b7648fb9116100c8578063b7648fb914610322578063b7a98f9714610342578063cc218ece1461035557600080fd5b8063a86e3576146102e9578063aea91078146102fc578063b4d6f7811461030f57600080fd5b80636878353e116101505780638e0769241161012a5780638e076924146102b05780639be2a567146102c3578063a5fdc5de146102d657600080fd5b80636878353e146102595780637e64cc131461026c57806382df39de1461028d57600080fd5b80631e0c6fb9116101815780631e0c6fb91461021357806337e710ac14610233578063540027e61461024657600080fd5b806301984892146101a8578063036790c0146101d15780630ba9d8ca146101f2575b600080fd5b6101bb6101b636600461265c565b610423565b6040516101c891906126a9565b60405180910390f35b6101e46101df36600461265c565b6104f2565b6040516101c89291906126dc565b61020561020036600461265c565b6105d7565b6040519081526020016101c8565b61022661022136600461265c565b610710565b6040516101c89190612723565b610205610241366004612759565b6107d5565b61020561025436600461265c565b61099f565b6101e4610267366004612759565b610ae5565b61027f61027a366004612759565b610c91565b6040516101c8929190612792565b6102a061029b366004612759565b61106c565b60405190151581526020016101c8565b6102056102be366004612816565b6111b3565b6102266102d1366004612759565b611360565b6102056102e436600461265c565b611482565b6101bb6102f736600461265c565b611566565b61020561030a36600461265c565b611607565b61020561031d36600461265c565b611671565b61033561033036600461265c565b611718565b6040516101c89190612857565b610335610350366004612759565b611789565b610205610363366004612759565b6118cb565b610370611a12565b6040516001600160a01b0390911681526020016101c8565b6102056103963660046128b5565b611a9b565b6103356103a9366004612759565b611b78565b6103356103bc36600461265c565b611ca5565b6103707f000000000000000000000000000000000000000000000000000000000000000081565b61027f6103f636600461297c565b611d25565b61040e61040936600461265c565b6120c2565b604080519283526020830191909152016101c8565b6060816001600160a01b0316639d8870a76040518163ffffffff1660e01b8152600401602060405180830381865afa158015610463573d6000803e3d6000fd5b505050506040513d601f19601f820116820180604052508101906104879190612a11565b6001600160a01b03166306fdde036040518163ffffffff1660e01b8152600401600060405180830381865afa1580156104c4573d6000803e3d6000fd5b505050506040513d6000823e601f3d908101601f191682016040526104ec9190810190612a2e565b92915050565b6104fa6125ee565b604080518082019091526000808252602082015282806001600160a01b03166311da60b46040518163ffffffff1660e01b8152600401600060405180830381600087803b15801561054a57600080fd5b505af115801561055e573d6000803e3d6000fd5b50505050836001600160a01b03166359ea287d6040518163ffffffff1660e01b815260040160a060405180830381865afa1580156105a0573d6000803e3d6000fd5b505050506040513d601f19601f820116820180604052508101906105c49190612b11565b6105cd8561233c565b9250925050915091565b600081806001600160a01b03166311da60b46040518163ffffffff1660e01b8152600401600060405180830381600087803b15801561061557600080fd5b505af1158015610629573d6000803e3d6000fd5b5050505060006106388461233c565b9050836001600160a01b0316639d8870a76040518163ffffffff1660e01b8152600401602060405180830381865afa158015610678573d6000803e3d6000fd5b505050506040513d601f19601f8201168201806040525081019061069c9190612a11565b6001600160a01b03166360ec91d6826040518263ffffffff1660e01b81526004016106c79190612857565b602060405180830381865afa1580156106e4573d6000803e3d6000fd5b505050506040513d601f19601f820116820180604052508101906107089190612b78565b949350505050565b6107186125ee565b81806001600160a01b03166311da60b46040518163ffffffff1660e01b8152600401600060405180830381600087803b15801561075457600080fd5b505af1158015610768573d6000803e3d6000fd5b50505050826001600160a01b03166359ea287d6040518163ffffffff1660e01b815260040160a060405180830381865afa1580156107aa573d6000803e3d6000fd5b505050506040513d601f19601f820116820180604052508101906107ce9190612b11565b9392505050565b60008282806001600160a01b03166311da60b46040518163ffffffff1660e01b8152600401600060405180830381600087803b15801561081457600080fd5b505af1158015610828573d6000803e3d6000fd5b505060405163f667f89760e01b81526001600160a01b0385811660048301528416925063f667f8979150602401600060405180830381600087803b15801561086f57600080fd5b505af1158015610883573d6000803e3d6000fd5b50506040517f916890240000000000000000000000000000000000000000000000000000000081526001600160a01b038881166004830152610996935087169150639168902490602401602060405180830381865afa1580156108ea573d6000803e3d6000fd5b505050506040513d601f19601f8201168201806040525081019061090e9190612b78565b6040517fab582f290000000000000000000000000000000000000000000000000000000081526001600160a01b03888116600483015287169063ab582f2990602401602060405180830381865afa15801561096d573d6000803e3d6000fd5b505050506040513d601f19601f820116820180604052508101906109919190612b78565b61241f565b95945050505050565b600081806001600160a01b03166311da60b46040518163ffffffff1660e01b8152600401600060405180830381600087803b1580156109dd57600080fd5b505af11580156109f1573d6000803e3d6000fd5b505050506000610a008461233c565b9050610708610a116201518061242b565b856001600160a01b0316639d8870a76040518163ffffffff1660e01b8152600401602060405180830381865afa158015610a4f573d6000803e3d6000fd5b505050506040513d601f19601f82011682018060405250810190610a739190612a11565b6001600160a01b03166360ec91d6846040518263ffffffff1660e01b8152600401610a9e9190612857565b602060405180830381865afa158015610abb573d6000803e3d6000fd5b505050506040513d601f19601f82011682018060405250810190610adf9190612b78565b9061243f565b610aed6125ee565b60408051808201909152600080825260208201528383806001600160a01b03166311da60b46040518163ffffffff1660e01b8152600401600060405180830381600087803b158015610b3e57600080fd5b505af1158015610b52573d6000803e3d6000fd5b505060405163f667f89760e01b81526001600160a01b0385811660048301528416925063f667f8979150602401600060405180830381600087803b158015610b9957600080fd5b505af1158015610bad573d6000803e3d6000fd5b5050604051631e0c6fb960e01b81526001600160a01b03898116600483015288169250631e0c6fb9915060240160a060405180830381865afa158015610bf7573d6000803e3d6000fd5b505050506040513d601f19601f82011682018060405250810190610c1b9190612b11565b60405163b7648fb960e01b81526001600160a01b03888116600483015287169063b7648fb9906024016040805180830381865afa158015610c60573d6000803e3d6000fd5b505050506040513d601f19601f82011682018060405250810190610c849190612b91565b9350935050509250929050565b6060808383806001600160a01b03166311da60b46040518163ffffffff1660e01b8152600401600060405180830381600087803b158015610cd157600080fd5b505af1158015610ce5573d6000803e3d6000fd5b505060405163f667f89760e01b81526001600160a01b0385811660048301528416925063f667f8979150602401600060405180830381600087803b158015610d2c57600080fd5b505af1158015610d40573d6000803e3d6000fd5b5050505060007f00000000000000000000000000000000000000000000000000000000000000006001600160a01b0316636fc6407c6040518163ffffffff1660e01b8152600401602060405180830381865afa158015610da4573d6000803e3d6000fd5b505050506040513d601f19601f82011682018060405250810190610dc89190612a11565b6040517f05d85eda0000000000000000000000000000000000000000000000000000000081526001600160a01b0388811660048301529192506000918316906305d85eda90602401602060405180830381865afa158015610e2d573d6000803e3d6000fd5b505050506040513d601f19601f82011682018060405250810190610e519190612b78565b90508067ffffffffffffffff811115610e6c57610e6c61286e565b604051908082528060200260200182016040528015610e95578160200160208202803683370190505b5095508067ffffffffffffffff811115610eb157610eb161286e565b604051908082528060200260200182016040528015610eda578160200160208202803683370190505b50945060005b81811015611060576040517f2c3e50e50000000000000000000000000000000000000000000000000000000081526001600160a01b0389811660048301526024820183905260009190851690632c3e50e59060440160c060405180830381865afa158015610f52573d6000803e3d6000fd5b505050506040513d601f19601f82011682018060405250810190610f769190612bad565b90508060800151888381518110610f8f57610f8f612c29565b6001600160a01b0392831660209182029290920101526040517f66f8162e0000000000000000000000000000000000000000000000000000000081528a821660048201528b8216602482015260448101849052908516906366f8162e90606401602060405180830381865afa15801561100c573d6000803e3d6000fd5b505050506040513d601f19601f820116820180604052508101906110309190612b78565b87838151811061104257611042612c29565b6020908102919091010152508061105881612c55565b915050610ee0565b50505050509250929050565b60008282806001600160a01b03166311da60b46040518163ffffffff1660e01b8152600401600060405180830381600087803b1580156110ab57600080fd5b505af11580156110bf573d6000803e3d6000fd5b505060405163f667f89760e01b81526001600160a01b0385811660048301528416925063f667f8979150602401600060405180830381600087803b15801561110657600080fd5b505af115801561111a573d6000803e3d6000fd5b50505050611126611a12565b6040517f82df39de0000000000000000000000000000000000000000000000000000000081526001600160a01b038781166004830152868116602483015291909116906382df39de90604401602060405180830381865afa15801561118f573d6000803e3d6000fd5b505050506040513d601f19601f820116820180604052508101906109969190612c6e565b60008383806001600160a01b03166311da60b46040518163ffffffff1660e01b8152600401600060405180830381600087803b1580156111f257600080fd5b505af1158015611206573d6000803e3d6000fd5b505060405163f667f89760e01b81526001600160a01b0385811660048301528416925063f667f8979150602401600060405180830381600087803b15801561124d57600080fd5b505af1158015611261573d6000803e3d6000fd5b50505050600061128661127f6112768861245e565b60400151612545565b8690612550565b9050611355866001600160a01b0316639d8870a76040518163ffffffff1660e01b8152600401602060405180830381865afa1580156112c9573d6000803e3d6000fd5b505050506040513d601f19601f820116820180604052508101906112ed9190612a11565b6001600160a01b0316636c376cc56040518163ffffffff1660e01b8152600401602060405180830381865afa15801561132a573d6000803e3d6000fd5b505050506040513d601f19601f8201168201806040525081019061134e9190612b78565b8290612550565b979650505050505050565b6113686125ee565b8282806001600160a01b03166311da60b46040518163ffffffff1660e01b8152600401600060405180830381600087803b1580156113a557600080fd5b505af11580156113b9573d6000803e3d6000fd5b505060405163f667f89760e01b81526001600160a01b0385811660048301528416925063f667f8979150602401600060405180830381600087803b15801561140057600080fd5b505af1158015611414573d6000803e3d6000fd5b5050604051631e0c6fb960e01b81526001600160a01b03888116600483015287169250631e0c6fb9915060240160a060405180830381865afa15801561145e573d6000803e3d6000fd5b505050506040513d601f19601f820116820180604052508101906109969190612b11565b600081806001600160a01b03166311da60b46040518163ffffffff1660e01b8152600401600060405180830381600087803b1580156114c057600080fd5b505af11580156114d4573d6000803e3d6000fd5b505050506114e0611a12565b6040517fa5fdc5de0000000000000000000000000000000000000000000000000000000081526001600160a01b038581166004830152919091169063a5fdc5de906024015b602060405180830381865afa158015611542573d6000803e3d6000fd5b505050506040513d601f19601f820116820180604052508101906107ce9190612b78565b6060816001600160a01b0316639d8870a76040518163ffffffff1660e01b8152600401602060405180830381865afa1580156115a6573d6000803e3d6000fd5b505050506040513d601f19601f820116820180604052508101906115ca9190612a11565b6001600160a01b03166395d89b416040518163ffffffff1660e01b8152600401600060405180830381865afa1580156104c4573d6000803e3d6000fd5b600081806001600160a01b03166311da60b46040518163ffffffff1660e01b8152600401600060405180830381600087803b15801561164557600080fd5b505af1158015611659573d6000803e3d6000fd5b505050506116668361245e565b604001519392505050565b600081806001600160a01b03166311da60b46040518163ffffffff1660e01b8152600401600060405180830381600087803b1580156116af57600080fd5b505af11580156116c3573d6000803e3d6000fd5b505050506116cf611a12565b6040517fb4d6f7810000000000000000000000000000000000000000000000000000000081526001600160a01b038581166004830152919091169063b4d6f78190602401611525565b604080518082019091526000808252602082015281806001600160a01b03166311da60b46040518163ffffffff1660e01b8152600401600060405180830381600087803b15801561176857600080fd5b505af115801561177c573d6000803e3d6000fd5b505050506107ce8361233c565b60408051808201909152600080825260208201528282806001600160a01b03166311da60b46040518163ffffffff1660e01b8152600401600060405180830381600087803b1580156117da57600080fd5b505af11580156117ee573d6000803e3d6000fd5b505060405163f667f89760e01b81526001600160a01b0385811660048301528416925063f667f8979150602401600060405180830381600087803b15801561183557600080fd5b505af1158015611849573d6000803e3d6000fd5b5050505061099661185c6112768661245e565b60405163b7648fb960e01b81526001600160a01b03888116600483015287169063b7648fb9906024016040805180830381865afa1580156118a1573d6000803e3d6000fd5b505050506040513d601f19601f820116820180604052508101906118c59190612b91565b9061256f565b60008282806001600160a01b03166311da60b46040518163ffffffff1660e01b8152600401600060405180830381600087803b15801561190a57600080fd5b505af115801561191e573d6000803e3d6000fd5b505060405163f667f89760e01b81526001600160a01b0385811660048301528416925063f667f8979150602401600060405180830381600087803b15801561196557600080fd5b505af1158015611979573d6000803e3d6000fd5b50505050611985611a12565b6040517fcc218ece0000000000000000000000000000000000000000000000000000000081526001600160a01b0387811660048301528681166024830152919091169063cc218ece90604401602060405180830381865afa1580156119ee573d6000803e3d6000fd5b505050506040513d601f19601f820116820180604052508101906109969190612b78565b60007f00000000000000000000000000000000000000000000000000000000000000006001600160a01b031663d8dfeb456040518163ffffffff1660e01b8152600401602060405180830381865afa158015611a72573d6000803e3d6000fd5b505050506040513d601f19601f82011682018060405250810190611a969190612a11565b905090565b6000805b8251811015611b2757828181518110611aba57611aba612c29565b60200260200101516001600160a01b03166311da60b46040518163ffffffff1660e01b8152600401600060405180830381600087803b158015611afc57600080fd5b505af1158015611b10573d6000803e3d6000fd5b505050508080611b1f90612c55565b915050611a9f565b50611b30611a12565b60405163faaebd2160e01b81526001600160a01b038581166004830152919091169063faaebd2190602401602060405180830381865afa158015611542573d6000803e3d6000fd5b60408051808201909152600080825260208201528282806001600160a01b03166311da60b46040518163ffffffff1660e01b8152600401600060405180830381600087803b158015611bc957600080fd5b505af1158015611bdd573d6000803e3d6000fd5b505060405163f667f89760e01b81526001600160a01b0385811660048301528416925063f667f8979150602401600060405180830381600087803b158015611c2457600080fd5b505af1158015611c38573d6000803e3d6000fd5b505060405163b7648fb960e01b81526001600160a01b0388811660048301528716925063b7648fb991506024016040805180830381865afa158015611c81573d6000803e3d6000fd5b505050506040513d601f19601f820116820180604052508101906109969190612b91565b604080518082019091526000808252602082015281806001600160a01b03166311da60b46040518163ffffffff1660e01b8152600401600060405180830381600087803b158015611cf557600080fd5b505af1158015611d09573d6000803e3d6000fd5b505050506107ce611d1c6112768561245e565b6118c58561233c565b6060808585806001600160a01b03166311da60b46040518163ffffffff1660e01b8152600401600060405180830381600087803b158015611d6557600080fd5b505af1158015611d79573d6000803e3d6000fd5b505060405163f667f89760e01b81526001600160a01b0385811660048301528416925063f667f8979150602401600060405180830381600087803b158015611dc057600080fd5b505af1158015611dd4573d6000803e3d6000fd5b5050505060007f00000000000000000000000000000000000000000000000000000000000000006001600160a01b0316636fc6407c6040518163ffffffff1660e01b8152600401602060405180830381865afa158015611e38573d6000803e3d6000fd5b505050506040513d601f19601f82011682018060405250810190611e5c9190612a11565b90508567ffffffffffffffff811115611e7757611e7761286e565b604051908082528060200260200182016040528015611ea0578160200160208202803683370190505b5094508567ffffffffffffffff811115611ebc57611ebc61286e565b604051908082528060200260200182016040528015611ee5578160200160208202803683370190505b50935060005b868110156120b5576000826001600160a01b0316632c3e50e58b8b8b86818110611f1757611f17612c29565b6040517fffffffff0000000000000000000000000000000000000000000000000000000060e087901b1681526001600160a01b039094166004850152602002919091013560248301525060440160c060405180830381865afa158015611f81573d6000803e3d6000fd5b505050506040513d601f19601f82011682018060405250810190611fa59190612bad565b90508060800151878381518110611fbe57611fbe612c29565b6001600160a01b03928316602091820292909201015283166366f8162e8b8d8c8c87818110611fef57611fef612c29565b6040517fffffffff0000000000000000000000000000000000000000000000000000000060e088901b1681526001600160a01b03958616600482015294909316602485015250602090910201356044820152606401602060405180830381865afa158015612061573d6000803e3d6000fd5b505050506040513d601f19601f820116820180604052508101906120859190612b78565b86838151811061209757612097612c29565b602090810291909101015250806120ad81612c55565b915050611eeb565b5050505094509492505050565b60008082806001600160a01b03166311da60b46040518163ffffffff1660e01b8152600401600060405180830381600087803b15801561210157600080fd5b505af1158015612115573d6000803e3d6000fd5b5050505060007f00000000000000000000000000000000000000000000000000000000000000006001600160a01b03166361d027b36040518163ffffffff1660e01b8152600401602060405180830381865afa158015612179573d6000803e3d6000fd5b505050506040513d601f19601f8201168201806040525081019061219d9190612a11565b6040517f2d809cb60000000000000000000000000000000000000000000000000000000081526001600160a01b0387811660048301529192506000917f00000000000000000000000000000000000000000000000000000000000000001690632d809cb690602401602060405180830381865afa158015612222573d6000803e3d6000fd5b505050506040513d601f19601f820116820180604052508101906122469190612a11565b9050612250611a12565b60405163faaebd2160e01b81526001600160a01b038481166004830152919091169063faaebd2190602401602060405180830381865afa158015612298573d6000803e3d6000fd5b505050506040513d601f19601f820116820180604052508101906122bc9190612b78565b94506122c6611a12565b60405163faaebd2160e01b81526001600160a01b038381166004830152919091169063faaebd2190602401602060405180830381865afa15801561230e573d6000803e3d6000fd5b505050506040513d601f19601f820116820180604052508101906123329190612b78565b9350505050915091565b6040805180820190915260008082526020820152816001600160a01b0316639a427d03836001600160a01b031663c07f47d46040518163ffffffff1660e01b8152600401602060405180830381865afa15801561239d573d6000803e3d6000fd5b505050506040513d601f19601f820116820180604052508101906123c19190612b78565b6040518263ffffffff1660e01b81526004016123df91815260200190565b6040805180830381865afa1580156123fb573d6000803e3d6000fd5b505050506040513d601f19601f820116820180604052508101906104ec9190612b91565b60006107ce83836125c0565b60006104ec670de0b6b3a764000083612c90565b6000670de0b6b3a76400006124548385612c90565b6107ce9190612d46565b61248260405180606001604052806000815260200160008152602001600081525090565b816001600160a01b0316639d8870a76040518163ffffffff1660e01b8152600401602060405180830381865afa1580156124c0573d6000803e3d6000fd5b505050506040513d601f19601f820116820180604052508101906124e49190612a11565b6001600160a01b0316639d888e866040518163ffffffff1660e01b8152600401606060405180830381865afa158015612521573d6000803e3d6000fd5b505050506040513d601f19601f820116820180604052508101906104ec9190612d74565b60006104ec826125d7565b6000670de0b6b3a76400006125658385612dd0565b6107ce9190612def565b6040805180820190915260008082526020820152604080518082019091528351819061259b9085612550565b81526020016125b784866020015161255090919063ffffffff16565b90529392505050565b6000818310156125d057816107ce565b5090919050565b6000808212156125ea57816000036104ec565b5090565b60405180606001604052806000815260200161261d604051806040016040528060008152602001600081525090565b815260200161263f604051806040016040528060008152602001600081525090565b905290565b6001600160a01b038116811461265957600080fd5b50565b60006020828403121561266e57600080fd5b81356107ce81612644565b60005b8381101561269457818101518382015260200161267c565b838111156126a3576000848401525b50505050565b60208152600082518060208401526126c8816040850160208701612679565b601f01601f19169190910160400192915050565b82518152602080840151805182840152810151604080840191909152840151805160608401520151608082015260e08101825160a0830152602083015160c08301526107ce565b81518152602080830151805182840152810151604080840191909152830151805160608401520151608082015260a081016104ec565b6000806040838503121561276c57600080fd5b823561277781612644565b9150602083013561278781612644565b809150509250929050565b604080825283519082018190526000906020906060840190828701845b828110156127d45781516001600160a01b0316845292840192908401906001016127af565b5050508381038285015284518082528583019183019060005b81811015612809578351835292840192918401916001016127ed565b5090979650505050505050565b60008060006060848603121561282b57600080fd5b833561283681612644565b9250602084013561284681612644565b929592945050506040919091013590565b8151815260208083015190820152604081016104ec565b634e487b7160e01b600052604160045260246000fd5b604051601f8201601f1916810167ffffffffffffffff811182821017156128ad576128ad61286e565b604052919050565b600080604083850312156128c857600080fd5b82356128d381612644565b915060208381013567ffffffffffffffff808211156128f157600080fd5b818601915086601f83011261290557600080fd5b8135818111156129175761291761286e565b8060051b9150612928848301612884565b818152918301840191848101908984111561294257600080fd5b938501935b8385101561296c578435925061295c83612644565b8282529385019390850190612947565b8096505050505050509250929050565b6000806000806060858703121561299257600080fd5b843561299d81612644565b935060208501356129ad81612644565b9250604085013567ffffffffffffffff808211156129ca57600080fd5b818701915087601f8301126129de57600080fd5b8135818111156129ed57600080fd5b8860208260051b8501011115612a0257600080fd5b95989497505060200194505050565b600060208284031215612a2357600080fd5b81516107ce81612644565b600060208284031215612a4057600080fd5b815167ffffffffffffffff80821115612a5857600080fd5b818401915084601f830112612a6c57600080fd5b815181811115612a7e57612a7e61286e565b612a91601f8201601f1916602001612884565b9150808252856020828501011115612aa857600080fd5b612ab9816020840160208601612679565b50949350505050565b600060408284031215612ad457600080fd5b6040516040810181811067ffffffffffffffff82111715612af757612af761286e565b604052825181526020928301519281019290925250919050565b600060a08284031215612b2357600080fd5b6040516060810181811067ffffffffffffffff82111715612b4657612b4661286e565b60405282518152612b5a8460208501612ac2565b6020820152612b6c8460608501612ac2565b60408201529392505050565b600060208284031215612b8a57600080fd5b5051919050565b600060408284031215612ba357600080fd5b6107ce8383612ac2565b600060c08284031215612bbf57600080fd5b60405160a0810181811067ffffffffffffffff82111715612be257612be261286e565b60405282518152612bf68460208501612ac2565b6020820152606083015160408201526080830151606082015260a0830151612c1d81612644565b60808201529392505050565b634e487b7160e01b600052603260045260246000fd5b634e487b7160e01b600052601160045260246000fd5b600060018201612c6757612c67612c3f565b5060010190565b600060208284031215612c8057600080fd5b815180151581146107ce57600080fd5b60007f7fffffffffffffffffffffffffffffffffffffffffffffffffffffffffffffff600084136000841385830485118282161615612cd157612cd1612c3f565b600160ff1b6000871286820588128184161615612cf057612cf0612c3f565b60008712925087820587128484161615612d0c57612d0c612c3f565b87850587128184161615612d2257612d22612c3f565b505050929093029392505050565b634e487b7160e01b600052601260045260246000fd5b600082612d5557612d55612d30565b600160ff1b821460001984141615612d6f57612d6f612c3f565b500590565b600060608284031215612d8657600080fd5b6040516060810181811067ffffffffffffffff82111715612da957612da961286e565b80604052508251815260208301516020820152604083015160408201528091505092915050565b6000816000190483118215151615612dea57612dea612c3f565b500290565b600082612dfe57612dfe612d30565b50049056fea264697066735822122027fb876eb78cc31d629bf2efd5464bb0e09e3215606aab72e087e3fc39a738f964736f6c634300080e0033",
  "devdoc": {
    "kind": "dev",
    "methods": {},
    "version": 1
  },
  "userdoc": {
    "kind": "user",
    "methods": {},
    "version": 1
  },
  "storageLayout": {
    "storage": [],
    "types": null
  }
}