{
  "address": "0x5e679c2a3e95c8e814509b0f8c5c5cfa7Ca4F6aE",
  "abi": [
    {
      "inputs": [
        {
          "internalType": "contract IController",
          "name": "_controller",
          "type": "address"
        }
      ],
      "stateMutability": "nonpayable",
      "type": "constructor"
    },
    {
      "inputs": [
        {
          "internalType": "contract IProduct",
          "name": "product",
          "type": "address"
        }
      ],
      "name": "collateral",
      "outputs": [
        {
          "internalType": "UFixed18",
          "name": "",
          "type": "uint256"
        }
      ],
      "stateMutability": "nonpayable",
      "type": "function"
    },
    {
      "inputs": [
        {
          "internalType": "address",
          "name": "account",
          "type": "address"
        },
        {
          "internalType": "contract IProduct",
          "name": "product",
          "type": "address"
        }
      ],
      "name": "collateral",
      "outputs": [
        {
          "internalType": "UFixed18",
          "name": "",
          "type": "uint256"
        }
      ],
      "stateMutability": "nonpayable",
      "type": "function"
    },
    {
      "inputs": [],
      "name": "collateral",
      "outputs": [
        {
          "internalType": "contract ICollateral",
          "name": "",
          "type": "address"
        }
      ],
      "stateMutability": "view",
      "type": "function"
    },
    {
      "inputs": [],
      "name": "controller",
      "outputs": [
        {
          "internalType": "contract IController",
          "name": "",
          "type": "address"
        }
      ],
      "stateMutability": "view",
      "type": "function"
    },
    {
      "inputs": [
        {
          "internalType": "contract IProduct",
          "name": "product",
          "type": "address"
        }
      ],
      "name": "dailyRate",
      "outputs": [
        {
          "internalType": "Fixed18",
          "name": "",
          "type": "int256"
        }
      ],
      "stateMutability": "nonpayable",
      "type": "function"
    },
    {
      "inputs": [
        {
          "internalType": "address",
          "name": "account",
          "type": "address"
        },
        {
          "internalType": "contract IProduct[]",
          "name": "products",
          "type": "address[]"
        }
      ],
      "name": "fees",
      "outputs": [
        {
          "internalType": "UFixed18",
          "name": "",
          "type": "uint256"
        }
      ],
      "stateMutability": "nonpayable",
      "type": "function"
    },
    {
      "inputs": [
        {
          "internalType": "contract IProduct",
          "name": "product",
          "type": "address"
        }
      ],
      "name": "fees",
      "outputs": [
        {
          "internalType": "UFixed18",
          "name": "protocolFees",
          "type": "uint256"
        },
        {
          "internalType": "UFixed18",
          "name": "productFees",
          "type": "uint256"
        }
      ],
      "stateMutability": "nonpayable",
      "type": "function"
    },
    {
      "inputs": [
        {
          "internalType": "contract IProduct",
          "name": "product",
          "type": "address"
        }
      ],
      "name": "globalPosition",
      "outputs": [
        {
          "components": [
            {
              "internalType": "uint256",
              "name": "oracleVersion",
              "type": "uint256"
            },
            {
              "components": [
                {
                  "internalType": "UFixed18",
                  "name": "maker",
                  "type": "uint256"
                },
                {
                  "internalType": "UFixed18",
                  "name": "taker",
                  "type": "uint256"
                }
              ],
              "internalType": "struct Position",
              "name": "openPosition",
              "type": "tuple"
            },
            {
              "components": [
                {
                  "internalType": "UFixed18",
                  "name": "maker",
                  "type": "uint256"
                },
                {
                  "internalType": "UFixed18",
                  "name": "taker",
                  "type": "uint256"
                }
              ],
              "internalType": "struct Position",
              "name": "closePosition",
              "type": "tuple"
            }
          ],
          "internalType": "struct PrePosition",
          "name": "",
          "type": "tuple"
        },
        {
          "components": [
            {
              "internalType": "UFixed18",
              "name": "maker",
              "type": "uint256"
            },
            {
              "internalType": "UFixed18",
              "name": "taker",
              "type": "uint256"
            }
          ],
          "internalType": "struct Position",
          "name": "",
          "type": "tuple"
        }
      ],
      "stateMutability": "nonpayable",
      "type": "function"
    },
    {
      "inputs": [
        {
          "internalType": "address",
          "name": "account",
          "type": "address"
        },
        {
          "internalType": "contract IProduct",
          "name": "product",
          "type": "address"
        }
      ],
      "name": "liquidatable",
      "outputs": [
        {
          "internalType": "bool",
          "name": "",
          "type": "bool"
        }
      ],
      "stateMutability": "nonpayable",
      "type": "function"
    },
    {
      "inputs": [
        {
          "internalType": "address",
          "name": "account",
          "type": "address"
        },
        {
          "internalType": "contract IProduct",
          "name": "product",
          "type": "address"
        }
      ],
      "name": "maintenance",
      "outputs": [
        {
          "internalType": "UFixed18",
          "name": "",
          "type": "uint256"
        }
      ],
      "stateMutability": "nonpayable",
      "type": "function"
    },
    {
      "inputs": [
        {
          "internalType": "address",
          "name": "account",
          "type": "address"
        },
        {
          "internalType": "contract IProduct",
          "name": "product",
          "type": "address"
        },
        {
          "internalType": "UFixed18",
          "name": "positionSize",
          "type": "uint256"
        }
      ],
      "name": "maintenanceRequired",
      "outputs": [
        {
          "internalType": "UFixed18",
          "name": "",
          "type": "uint256"
        }
      ],
      "stateMutability": "nonpayable",
      "type": "function"
    },
    {
      "inputs": [
        {
          "internalType": "contract IProduct",
          "name": "product",
          "type": "address"
        }
      ],
      "name": "name",
      "outputs": [
        {
          "internalType": "string",
          "name": "",
          "type": "string"
        }
      ],
      "stateMutability": "view",
      "type": "function"
    },
    {
      "inputs": [
        {
          "internalType": "address",
          "name": "account",
          "type": "address"
        },
        {
          "internalType": "contract IProduct",
          "name": "product",
          "type": "address"
        }
      ],
      "name": "openInterest",
      "outputs": [
        {
          "components": [
            {
              "internalType": "UFixed18",
              "name": "maker",
              "type": "uint256"
            },
            {
              "internalType": "UFixed18",
              "name": "taker",
              "type": "uint256"
            }
          ],
          "internalType": "struct Position",
          "name": "",
          "type": "tuple"
        }
      ],
      "stateMutability": "nonpayable",
      "type": "function"
    },
    {
      "inputs": [
        {
          "internalType": "contract IProduct",
          "name": "product",
          "type": "address"
        }
      ],
      "name": "openInterest",
      "outputs": [
        {
          "components": [
            {
              "internalType": "UFixed18",
              "name": "maker",
              "type": "uint256"
            },
            {
              "internalType": "UFixed18",
              "name": "taker",
              "type": "uint256"
            }
          ],
          "internalType": "struct Position",
          "name": "",
          "type": "tuple"
        }
      ],
      "stateMutability": "nonpayable",
      "type": "function"
    },
    {
      "inputs": [
        {
          "internalType": "contract IProduct",
          "name": "product",
          "type": "address"
        }
      ],
      "name": "position",
      "outputs": [
        {
          "components": [
            {
              "internalType": "UFixed18",
              "name": "maker",
              "type": "uint256"
            },
            {
              "internalType": "UFixed18",
              "name": "taker",
              "type": "uint256"
            }
          ],
          "internalType": "struct Position",
          "name": "",
          "type": "tuple"
        }
      ],
      "stateMutability": "nonpayable",
      "type": "function"
    },
    {
      "inputs": [
        {
          "internalType": "address",
          "name": "account",
          "type": "address"
        },
        {
          "internalType": "contract IProduct",
          "name": "product",
          "type": "address"
        }
      ],
      "name": "position",
      "outputs": [
        {
          "components": [
            {
              "internalType": "UFixed18",
              "name": "maker",
              "type": "uint256"
            },
            {
              "internalType": "UFixed18",
              "name": "taker",
              "type": "uint256"
            }
          ],
          "internalType": "struct Position",
          "name": "",
          "type": "tuple"
        }
      ],
      "stateMutability": "nonpayable",
      "type": "function"
    },
    {
      "inputs": [
        {
          "internalType": "contract IProduct",
          "name": "product",
          "type": "address"
        }
      ],
      "name": "pre",
      "outputs": [
        {
          "components": [
            {
              "internalType": "uint256",
              "name": "oracleVersion",
              "type": "uint256"
            },
            {
              "components": [
                {
                  "internalType": "UFixed18",
                  "name": "maker",
                  "type": "uint256"
                },
                {
                  "internalType": "UFixed18",
                  "name": "taker",
                  "type": "uint256"
                }
              ],
              "internalType": "struct Position",
              "name": "openPosition",
              "type": "tuple"
            },
            {
              "components": [
                {
                  "internalType": "UFixed18",
                  "name": "maker",
                  "type": "uint256"
                },
                {
                  "internalType": "UFixed18",
                  "name": "taker",
                  "type": "uint256"
                }
              ],
              "internalType": "struct Position",
              "name": "closePosition",
              "type": "tuple"
            }
          ],
          "internalType": "struct PrePosition",
          "name": "",
          "type": "tuple"
        }
      ],
      "stateMutability": "nonpayable",
      "type": "function"
    },
    {
      "inputs": [
        {
          "internalType": "address",
          "name": "account",
          "type": "address"
        },
        {
          "internalType": "contract IProduct",
          "name": "product",
          "type": "address"
        }
      ],
      "name": "pre",
      "outputs": [
        {
          "components": [
            {
              "internalType": "uint256",
              "name": "oracleVersion",
              "type": "uint256"
            },
            {
              "components": [
                {
                  "internalType": "UFixed18",
                  "name": "maker",
                  "type": "uint256"
                },
                {
                  "internalType": "UFixed18",
                  "name": "taker",
                  "type": "uint256"
                }
              ],
              "internalType": "struct Position",
              "name": "openPosition",
              "type": "tuple"
            },
            {
              "components": [
                {
                  "internalType": "UFixed18",
                  "name": "maker",
                  "type": "uint256"
                },
                {
                  "internalType": "UFixed18",
                  "name": "taker",
                  "type": "uint256"
                }
              ],
              "internalType": "struct Position",
              "name": "closePosition",
              "type": "tuple"
            }
          ],
          "internalType": "struct PrePosition",
          "name": "",
          "type": "tuple"
        }
      ],
      "stateMutability": "nonpayable",
      "type": "function"
    },
    {
      "inputs": [
        {
          "internalType": "contract IProduct",
          "name": "product",
          "type": "address"
        }
      ],
      "name": "price",
      "outputs": [
        {
          "internalType": "Fixed18",
          "name": "",
          "type": "int256"
        }
      ],
      "stateMutability": "nonpayable",
      "type": "function"
    },
    {
      "inputs": [
        {
          "internalType": "contract IProduct",
          "name": "product",
          "type": "address"
        },
        {
          "internalType": "uint256",
          "name": "version",
          "type": "uint256"
        }
      ],
      "name": "priceAtVersion",
      "outputs": [
        {
          "internalType": "Fixed18",
          "name": "",
          "type": "int256"
        }
      ],
      "stateMutability": "nonpayable",
      "type": "function"
    },
    {
      "inputs": [
        {
          "internalType": "contract IProduct",
          "name": "product",
          "type": "address"
        }
      ],
      "name": "rate",
      "outputs": [
        {
          "internalType": "Fixed18",
          "name": "",
          "type": "int256"
        }
      ],
      "stateMutability": "nonpayable",
      "type": "function"
    },
    {
      "inputs": [
        {
          "internalType": "contract IProduct",
          "name": "product",
          "type": "address"
        }
      ],
      "name": "shortfall",
      "outputs": [
        {
          "internalType": "UFixed18",
          "name": "",
          "type": "uint256"
        }
      ],
      "stateMutability": "nonpayable",
      "type": "function"
    },
    {
      "inputs": [
        {
          "internalType": "contract IProduct",
          "name": "product",
          "type": "address"
        }
      ],
      "name": "symbol",
      "outputs": [
        {
          "internalType": "string",
          "name": "",
          "type": "string"
        }
      ],
      "stateMutability": "view",
      "type": "function"
    },
    {
      "inputs": [
        {
          "internalType": "address",
          "name": "account",
          "type": "address"
        },
        {
          "internalType": "contract IProduct",
          "name": "product",
          "type": "address"
        }
      ],
      "name": "unclaimedIncentiveRewards",
      "outputs": [
        {
          "internalType": "Token18[]",
          "name": "tokens",
          "type": "address[]"
        },
        {
          "internalType": "UFixed18[]",
          "name": "amounts",
          "type": "uint256[]"
        }
      ],
      "stateMutability": "nonpayable",
      "type": "function"
    },
    {
      "inputs": [
        {
          "internalType": "address",
          "name": "account",
          "type": "address"
        },
        {
          "internalType": "contract IProduct",
          "name": "product",
          "type": "address"
        },
        {
          "internalType": "uint256[]",
          "name": "programIds",
          "type": "uint256[]"
        }
      ],
      "name": "unclaimedIncentiveRewards",
      "outputs": [
        {
          "internalType": "Token18[]",
          "name": "tokens",
          "type": "address[]"
        },
        {
          "internalType": "UFixed18[]",
          "name": "amounts",
          "type": "uint256[]"
        }
      ],
      "stateMutability": "nonpayable",
      "type": "function"
    },
    {
      "inputs": [
        {
          "internalType": "address",
          "name": "account",
          "type": "address"
        },
        {
          "internalType": "contract IProduct",
          "name": "product",
          "type": "address"
        }
      ],
      "name": "userPosition",
      "outputs": [
        {
          "components": [
            {
              "internalType": "uint256",
              "name": "oracleVersion",
              "type": "uint256"
            },
            {
              "components": [
                {
                  "internalType": "UFixed18",
                  "name": "maker",
                  "type": "uint256"
                },
                {
                  "internalType": "UFixed18",
                  "name": "taker",
                  "type": "uint256"
                }
              ],
              "internalType": "struct Position",
              "name": "openPosition",
              "type": "tuple"
            },
            {
              "components": [
                {
                  "internalType": "UFixed18",
                  "name": "maker",
                  "type": "uint256"
                },
                {
                  "internalType": "UFixed18",
                  "name": "taker",
                  "type": "uint256"
                }
              ],
              "internalType": "struct Position",
              "name": "closePosition",
              "type": "tuple"
            }
          ],
          "internalType": "struct PrePosition",
          "name": "",
          "type": "tuple"
        },
        {
          "components": [
            {
              "internalType": "UFixed18",
              "name": "maker",
              "type": "uint256"
            },
            {
              "internalType": "UFixed18",
              "name": "taker",
              "type": "uint256"
            }
          ],
          "internalType": "struct Position",
          "name": "",
          "type": "tuple"
        }
      ],
      "stateMutability": "nonpayable",
      "type": "function"
    }
  ],
  "transactionHash": "0x9ff01eda190b9bfe3e4dacf69a770a6b789bb58449e589298278c2d02fa391b0",
  "args": [
    "0x1927DE7c9765Ae74050D1d0aa8BB0e93D737F579"
  ],
  "numDeployments": 1,
  "solcInputHash": "9ec7860e75dc1d06fa99c459c5b65009",
  "bytecode": "0x60a06040523480156200001157600080fd5b5060405162003c7638038062003c768339818101604052810190620000379190620000f0565b8073ffffffffffffffffffffffffffffffffffffffff1660808173ffffffffffffffffffffffffffffffffffffffff16815250505062000122565b600080fd5b600073ffffffffffffffffffffffffffffffffffffffff82169050919050565b6000620000a48262000077565b9050919050565b6000620000b88262000097565b9050919050565b620000ca81620000ab565b8114620000d657600080fd5b50565b600081519050620000ea81620000bf565b92915050565b60006020828403121562000109576200010862000072565b5b60006200011984828501620000d9565b91505092915050565b608051613b156200016160003960008181610e2d01528181611ad501528181611e2901528181611ebf0152818161222201526122b50152613b156000f3fe608060405234801561001057600080fd5b50600436106101ae5760003560e01c8063aea91078116100ee578063d8dfeb4511610097578063edd8ca7b11610071578063edd8ca7b146105c4578063f77c4791146105f4578063f8083f5614610612578063faaebd2114610643576101ae565b8063d8dfeb4514610546578063db2ef22114610564578063e9c6b4c114610594576101ae565b8063b7a98f97116100c8578063b7a98f97146104b6578063cc218ece146104e6578063d45cae8214610516576101ae565b8063aea9107814610426578063b4d6f78114610456578063b7648fb914610486576101ae565b80636878353e1161015b5780638e076924116101355780638e076924146103665780639be2a56714610396578063a5fdc5de146103c6578063a86e3576146103f6576101ae565b80636878353e146102d45780637e64cc131461030557806382df39de14610336576101ae565b80631e0c6fb91161018c5780631e0c6fb91461024457806337e710ac14610274578063540027e6146102a4576101ae565b806301984892146101b3578063036790c0146101e35780630ba9d8ca14610214575b600080fd5b6101cd60048036038101906101c891906127d9565b610674565b6040516101da919061289f565b60405180910390f35b6101fd60048036038101906101f891906127d9565b6106f1565b60405161020b9291906129b5565b60405180910390f35b61022e600480360381019061022991906127d9565b6107e4565b60405161023b9190612a19565b60405180910390f35b61025e600480360381019061025991906127d9565b6108d7565b60405161026b9190612a34565b60405180910390f35b61028e60048036038101906102899190612a7b565b6109b7565b60405161029b9190612aca565b60405180910390f35b6102be60048036038101906102b991906127d9565b610b2c565b6040516102cb9190612a19565b60405180910390f35b6102ee60048036038101906102e99190612a7b565b610c3c565b6040516102fc9291906129b5565b60405180910390f35b61031f600480360381019061031a9190612a7b565b610db9565b60405161032d929190612c98565b60405180910390f35b610350600480360381019061034b9190612a7b565b61116a565b60405161035d9190612cea565b60405180910390f35b610380600480360381019061037b9190612d31565b611266565b60405161038d9190612aca565b60405180910390f35b6103b060048036038101906103ab9190612a7b565b61138d565b6040516103bd9190612a34565b60405180910390f35b6103e060048036038101906103db91906127d9565b611486565b6040516103ed9190612aca565b60405180910390f35b610410600480360381019061040b91906127d9565b611572565b60405161041d919061289f565b60405180910390f35b610440600480360381019061043b91906127d9565b6115ef565b60405161044d9190612a19565b60405180910390f35b610470600480360381019061046b91906127d9565b611667565b60405161047d9190612aca565b60405180910390f35b6104a0600480360381019061049b91906127d9565b611753565b6040516104ad9190612d84565b60405180910390f35b6104d060048036038101906104cb9190612a7b565b6117cd565b6040516104dd9190612d84565b60405180910390f35b61050060048036038101906104fb9190612a7b565b6118eb565b60405161050d9190612aca565b60405180910390f35b610530600480360381019061052b9190612dcb565b6119e7565b60405161053d9190612a19565b60405180910390f35b61054e611ad1565b60405161055b9190612e2c565b60405180910390f35b61057e60048036038101906105799190612f8f565b611b67565b60405161058b9190612aca565b60405180910390f35b6105ae60048036038101906105a99190612a7b565b611c8f565b6040516105bb9190612d84565b60405180910390f35b6105de60048036038101906105d991906127d9565b611d87565b6040516105eb9190612d84565b60405180910390f35b6105fc611e27565b604051610609919061300c565b60405180910390f35b61062c60048036038101906106279190613082565b611e4b565b60405161063a929190612c98565b60405180910390f35b61065d600480360381019061065891906127d9565b6121ba565b60405161066b9291906130f6565b60405180910390f35b60608173ffffffffffffffffffffffffffffffffffffffff166306fdde036040518163ffffffff1660e01b8152600401600060405180830381865afa1580156106c1573d6000803e3d6000fd5b505050506040513d6000823e3d601f19601f820116820180604052508101906106ea91906131c5565b9050919050565b6106f96126ed565b61070161271a565b828073ffffffffffffffffffffffffffffffffffffffff166311da60b46040518163ffffffff1660e01b8152600401600060405180830381600087803b15801561074a57600080fd5b505af115801561075e573d6000803e3d6000fd5b505050508373ffffffffffffffffffffffffffffffffffffffff166359ea287d6040518163ffffffff1660e01b815260040160a060405180830381865afa1580156107ad573d6000803e3d6000fd5b505050506040513d601f19601f820116820180604052508101906107d191906132f1565b6107da8561245d565b9250925050915091565b6000818073ffffffffffffffffffffffffffffffffffffffff166311da60b46040518163ffffffff1660e01b8152600401600060405180830381600087803b15801561082f57600080fd5b505af1158015610843573d6000803e3d6000fd5b5050505060006108528461245d565b90508373ffffffffffffffffffffffffffffffffffffffff166360ec91d6826040518263ffffffff1660e01b815260040161088d9190612d84565b602060405180830381865afa1580156108aa573d6000803e3d6000fd5b505050506040513d601f19601f820116820180604052508101906108ce919061334a565b92505050919050565b6108df6126ed565b818073ffffffffffffffffffffffffffffffffffffffff166311da60b46040518163ffffffff1660e01b8152600401600060405180830381600087803b15801561092857600080fd5b505af115801561093c573d6000803e3d6000fd5b505050508273ffffffffffffffffffffffffffffffffffffffff166359ea287d6040518163ffffffff1660e01b815260040160a060405180830381865afa15801561098b573d6000803e3d6000fd5b505050506040513d601f19601f820116820180604052508101906109af91906132f1565b915050919050565b600082828073ffffffffffffffffffffffffffffffffffffffff1663f667f897836040518263ffffffff1660e01b81526004016109f49190613386565b600060405180830381600087803b158015610a0e57600080fd5b505af1158015610a22573d6000803e3d6000fd5b50505050610b228473ffffffffffffffffffffffffffffffffffffffff166391689024876040518263ffffffff1660e01b8152600401610a629190613386565b602060405180830381865afa158015610a7f573d6000803e3d6000fd5b505050506040513d601f19601f82011682018060405250810190610aa391906133a1565b8573ffffffffffffffffffffffffffffffffffffffff1663ab582f29886040518263ffffffff1660e01b8152600401610adc9190613386565b602060405180830381865afa158015610af9573d6000803e3d6000fd5b505050506040513d601f19601f82011682018060405250810190610b1d91906133a1565b612553565b9250505092915050565b6000818073ffffffffffffffffffffffffffffffffffffffff166311da60b46040518163ffffffff1660e01b8152600401600060405180830381600087803b158015610b7757600080fd5b505af1158015610b8b573d6000803e3d6000fd5b505050506000610b9a8461245d565b9050610c33610bab62015180612567565b8573ffffffffffffffffffffffffffffffffffffffff166360ec91d6846040518263ffffffff1660e01b8152600401610be49190612d84565b602060405180830381865afa158015610c01573d6000803e3d6000fd5b505050506040513d601f19601f82011682018060405250810190610c25919061334a565b61258490919063ffffffff16565b92505050919050565b610c446126ed565b610c4c61271a565b83838073ffffffffffffffffffffffffffffffffffffffff1663f667f897836040518263ffffffff1660e01b8152600401610c879190613386565b600060405180830381600087803b158015610ca157600080fd5b505af1158015610cb5573d6000803e3d6000fd5b505050508473ffffffffffffffffffffffffffffffffffffffff16631e0c6fb9876040518263ffffffff1660e01b8152600401610cf29190613386565b60a060405180830381865afa158015610d0f573d6000803e3d6000fd5b505050506040513d601f19601f82011682018060405250810190610d3391906132f1565b8573ffffffffffffffffffffffffffffffffffffffff1663b7648fb9886040518263ffffffff1660e01b8152600401610d6c9190613386565b6040805180830381865afa158015610d88573d6000803e3d6000fd5b505050506040513d601f19601f82011682018060405250810190610dac91906133ce565b9350935050509250929050565b60608083838073ffffffffffffffffffffffffffffffffffffffff1663f667f897836040518263ffffffff1660e01b8152600401610df79190613386565b600060405180830381600087803b158015610e1157600080fd5b505af1158015610e25573d6000803e3d6000fd5b5050505060007f000000000000000000000000000000000000000000000000000000000000000073ffffffffffffffffffffffffffffffffffffffff16636fc6407c6040518163ffffffff1660e01b8152600401602060405180830381865afa158015610e96573d6000803e3d6000fd5b505050506040513d601f19601f82011682018060405250810190610eba9190613439565b905060008173ffffffffffffffffffffffffffffffffffffffff166305d85eda886040518263ffffffff1660e01b8152600401610ef79190613487565b602060405180830381865afa158015610f14573d6000803e3d6000fd5b505050506040513d601f19601f82011682018060405250810190610f3891906134a2565b90508067ffffffffffffffff811115610f5457610f53612e4c565b5b604051908082528060200260200182016040528015610f825781602001602082028036833780820191505090505b5095508067ffffffffffffffff811115610f9f57610f9e612e4c565b5b604051908082528060200260200182016040528015610fcd5781602001602082028036833780820191505090505b50945060005b8181101561115e5760008373ffffffffffffffffffffffffffffffffffffffff16632c3e50e58a846040518363ffffffff1660e01b81526004016110189291906134de565b60c060405180830381865afa158015611035573d6000803e3d6000fd5b505050506040513d601f19601f8201168201806040525081019061105991906135bf565b90508060800151888381518110611073576110726135ec565b5b602002602001019073ffffffffffffffffffffffffffffffffffffffff16908173ffffffffffffffffffffffffffffffffffffffff16815250508373ffffffffffffffffffffffffffffffffffffffff166366f8162e8a8c856040518463ffffffff1660e01b81526004016110ea9392919061361b565b602060405180830381865afa158015611107573d6000803e3d6000fd5b505050506040513d601f19601f8201168201806040525081019061112b91906133a1565b87838151811061113e5761113d6135ec565b5b60200260200101818152505050808061115690613681565b915050610fd3565b50505050509250929050565b600082828073ffffffffffffffffffffffffffffffffffffffff1663f667f897836040518263ffffffff1660e01b81526004016111a79190613386565b600060405180830381600087803b1580156111c157600080fd5b505af11580156111d5573d6000803e3d6000fd5b505050506111e1611ad1565b73ffffffffffffffffffffffffffffffffffffffff166382df39de86866040518363ffffffff1660e01b815260040161121b9291906136c9565b602060405180830381865afa158015611238573d6000803e3d6000fd5b505050506040513d601f19601f8201168201806040525081019061125c919061371e565b9250505092915050565b600083838073ffffffffffffffffffffffffffffffffffffffff1663f667f897836040518263ffffffff1660e01b81526004016112a39190613386565b600060405180830381600087803b1580156112bd57600080fd5b505af11580156112d1573d6000803e3d6000fd5b5050505060006112fe6112ef6112e6886125ad565b6040015161262b565b8661263d90919063ffffffff16565b90506113818673ffffffffffffffffffffffffffffffffffffffff16636c376cc56040518163ffffffff1660e01b8152600401602060405180830381865afa15801561134e573d6000803e3d6000fd5b505050506040513d601f19601f8201168201806040525081019061137291906133a1565b8261263d90919063ffffffff16565b93505050509392505050565b6113956126ed565b82828073ffffffffffffffffffffffffffffffffffffffff1663f667f897836040518263ffffffff1660e01b81526004016113d09190613386565b600060405180830381600087803b1580156113ea57600080fd5b505af11580156113fe573d6000803e3d6000fd5b505050508373ffffffffffffffffffffffffffffffffffffffff16631e0c6fb9866040518263ffffffff1660e01b815260040161143b9190613386565b60a060405180830381865afa158015611458573d6000803e3d6000fd5b505050506040513d601f19601f8201168201806040525081019061147c91906132f1565b9250505092915050565b6000818073ffffffffffffffffffffffffffffffffffffffff166311da60b46040518163ffffffff1660e01b8152600401600060405180830381600087803b1580156114d157600080fd5b505af11580156114e5573d6000803e3d6000fd5b505050506114f1611ad1565b73ffffffffffffffffffffffffffffffffffffffff1663a5fdc5de846040518263ffffffff1660e01b81526004016115299190613487565b602060405180830381865afa158015611546573d6000803e3d6000fd5b505050506040513d601f19601f8201168201806040525081019061156a91906133a1565b915050919050565b60608173ffffffffffffffffffffffffffffffffffffffff166395d89b416040518163ffffffff1660e01b8152600401600060405180830381865afa1580156115bf573d6000803e3d6000fd5b505050506040513d6000823e3d601f19601f820116820180604052508101906115e891906131c5565b9050919050565b6000818073ffffffffffffffffffffffffffffffffffffffff166311da60b46040518163ffffffff1660e01b8152600401600060405180830381600087803b15801561163a57600080fd5b505af115801561164e573d6000803e3d6000fd5b5050505061165b836125ad565b60400151915050919050565b6000818073ffffffffffffffffffffffffffffffffffffffff166311da60b46040518163ffffffff1660e01b8152600401600060405180830381600087803b1580156116b257600080fd5b505af11580156116c6573d6000803e3d6000fd5b505050506116d2611ad1565b73ffffffffffffffffffffffffffffffffffffffff1663b4d6f781846040518263ffffffff1660e01b815260040161170a9190613487565b602060405180830381865afa158015611727573d6000803e3d6000fd5b505050506040513d601f19601f8201168201806040525081019061174b91906133a1565b915050919050565b61175b61271a565b818073ffffffffffffffffffffffffffffffffffffffff166311da60b46040518163ffffffff1660e01b8152600401600060405180830381600087803b1580156117a457600080fd5b505af11580156117b8573d6000803e3d6000fd5b505050506117c58361245d565b915050919050565b6117d561271a565b82828073ffffffffffffffffffffffffffffffffffffffff1663f667f897836040518263ffffffff1660e01b81526004016118109190613386565b600060405180830381600087803b15801561182a57600080fd5b505af115801561183e573d6000803e3d6000fd5b505050506118e161185a611851866125ad565b6040015161262b565b8573ffffffffffffffffffffffffffffffffffffffff1663b7648fb9886040518263ffffffff1660e01b81526004016118939190613386565b6040805180830381865afa1580156118af573d6000803e3d6000fd5b505050506040513d601f19601f820116820180604052508101906118d391906133ce565b61266690919063ffffffff16565b9250505092915050565b600082828073ffffffffffffffffffffffffffffffffffffffff1663f667f897836040518263ffffffff1660e01b81526004016119289190613386565b600060405180830381600087803b15801561194257600080fd5b505af1158015611956573d6000803e3d6000fd5b50505050611962611ad1565b73ffffffffffffffffffffffffffffffffffffffff1663cc218ece86866040518363ffffffff1660e01b815260040161199c9291906136c9565b602060405180830381865afa1580156119b9573d6000803e3d6000fd5b505050506040513d601f19601f820116820180604052508101906119dd91906133a1565b9250505092915050565b6000828073ffffffffffffffffffffffffffffffffffffffff166311da60b46040518163ffffffff1660e01b8152600401600060405180830381600087803b158015611a3257600080fd5b505af1158015611a46573d6000803e3d6000fd5b505050508373ffffffffffffffffffffffffffffffffffffffff16637ece075d846040518263ffffffff1660e01b8152600401611a83919061374b565b606060405180830381865afa158015611aa0573d6000803e3d6000fd5b505050506040513d601f19601f82011682018060405250810190611ac491906137ca565b6040015191505092915050565b60007f000000000000000000000000000000000000000000000000000000000000000073ffffffffffffffffffffffffffffffffffffffff1663d8dfeb456040518163ffffffff1660e01b8152600401602060405180830381865afa158015611b3e573d6000803e3d6000fd5b505050506040513d601f19601f82011682018060405250810190611b629190613835565b905090565b600080600090505b8251811015611c0557828181518110611b8b57611b8a6135ec565b5b602002602001015173ffffffffffffffffffffffffffffffffffffffff166311da60b46040518163ffffffff1660e01b8152600401600060405180830381600087803b158015611bda57600080fd5b505af1158015611bee573d6000803e3d6000fd5b505050508080611bfd90613681565b915050611b6f565b50611c0e611ad1565b73ffffffffffffffffffffffffffffffffffffffff1663faaebd21846040518263ffffffff1660e01b8152600401611c469190613386565b602060405180830381865afa158015611c63573d6000803e3d6000fd5b505050506040513d601f19601f82011682018060405250810190611c8791906133a1565b905092915050565b611c9761271a565b82828073ffffffffffffffffffffffffffffffffffffffff1663f667f897836040518263ffffffff1660e01b8152600401611cd29190613386565b600060405180830381600087803b158015611cec57600080fd5b505af1158015611d00573d6000803e3d6000fd5b505050508373ffffffffffffffffffffffffffffffffffffffff1663b7648fb9866040518263ffffffff1660e01b8152600401611d3d9190613386565b6040805180830381865afa158015611d59573d6000803e3d6000fd5b505050506040513d601f19601f82011682018060405250810190611d7d91906133ce565b9250505092915050565b611d8f61271a565b818073ffffffffffffffffffffffffffffffffffffffff166311da60b46040518163ffffffff1660e01b8152600401600060405180830381600087803b158015611dd857600080fd5b505af1158015611dec573d6000803e3d6000fd5b50505050611e1f611e08611dff856125ad565b6040015161262b565b611e118561245d565b61266690919063ffffffff16565b915050919050565b7f000000000000000000000000000000000000000000000000000000000000000081565b60608085858073ffffffffffffffffffffffffffffffffffffffff1663f667f897836040518263ffffffff1660e01b8152600401611e899190613386565b600060405180830381600087803b158015611ea357600080fd5b505af1158015611eb7573d6000803e3d6000fd5b5050505060007f000000000000000000000000000000000000000000000000000000000000000073ffffffffffffffffffffffffffffffffffffffff16636fc6407c6040518163ffffffff1660e01b8152600401602060405180830381865afa158015611f28573d6000803e3d6000fd5b505050506040513d601f19601f82011682018060405250810190611f4c9190613439565b90508686905067ffffffffffffffff811115611f6b57611f6a612e4c565b5b604051908082528060200260200182016040528015611f995781602001602082028036833780820191505090505b5094508686905067ffffffffffffffff811115611fb957611fb8612e4c565b5b604051908082528060200260200182016040528015611fe75781602001602082028036833780820191505090505b50935060005b878790508110156121ad5760008273ffffffffffffffffffffffffffffffffffffffff16632c3e50e58b8b8b8681811061202a576120296135ec565b5b905060200201356040518363ffffffff1660e01b815260040161204e9291906134de565b60c060405180830381865afa15801561206b573d6000803e3d6000fd5b505050506040513d601f19601f8201168201806040525081019061208f91906135bf565b905080608001518783815181106120a9576120a86135ec565b5b602002602001019073ffffffffffffffffffffffffffffffffffffffff16908173ffffffffffffffffffffffffffffffffffffffff16815250508273ffffffffffffffffffffffffffffffffffffffff166366f8162e8b8d8c8c87818110612114576121136135ec565b5b905060200201356040518463ffffffff1660e01b81526004016121399392919061361b565b602060405180830381865afa158015612156573d6000803e3d6000fd5b505050506040513d601f19601f8201168201806040525081019061217a91906133a1565b86838151811061218d5761218c6135ec565b5b6020026020010181815250505080806121a590613681565b915050611fed565b5050505094509492505050565b600080828073ffffffffffffffffffffffffffffffffffffffff166311da60b46040518163ffffffff1660e01b8152600401600060405180830381600087803b15801561220657600080fd5b505af115801561221a573d6000803e3d6000fd5b5050505060007f000000000000000000000000000000000000000000000000000000000000000073ffffffffffffffffffffffffffffffffffffffff166361d027b36040518163ffffffff1660e01b8152600401602060405180830381865afa15801561228b573d6000803e3d6000fd5b505050506040513d601f19601f820116820180604052508101906122af9190613877565b905060007f000000000000000000000000000000000000000000000000000000000000000073ffffffffffffffffffffffffffffffffffffffff16632d809cb6876040518263ffffffff1660e01b815260040161230c9190613487565b602060405180830381865afa158015612329573d6000803e3d6000fd5b505050506040513d601f19601f8201168201806040525081019061234d9190613877565b9050612357611ad1565b73ffffffffffffffffffffffffffffffffffffffff1663faaebd21836040518263ffffffff1660e01b815260040161238f9190613386565b602060405180830381865afa1580156123ac573d6000803e3d6000fd5b505050506040513d601f19601f820116820180604052508101906123d091906133a1565b94506123da611ad1565b73ffffffffffffffffffffffffffffffffffffffff1663faaebd21826040518263ffffffff1660e01b81526004016124129190613386565b602060405180830381865afa15801561242f573d6000803e3d6000fd5b505050506040513d601f19601f8201168201806040525081019061245391906133a1565b9350505050915091565b61246561271a565b8173ffffffffffffffffffffffffffffffffffffffff16639a427d038373ffffffffffffffffffffffffffffffffffffffff1663c07f47d46040518163ffffffff1660e01b8152600401602060405180830381865afa1580156124cc573d6000803e3d6000fd5b505050506040513d601f19601f820116820180604052508101906124f091906134a2565b6040518263ffffffff1660e01b815260040161250c919061374b565b6040805180830381865afa158015612528573d6000803e3d6000fd5b505050506040513d601f19601f8201168201806040525081019061254c91906133ce565b9050919050565b600061255f83836126b7565b905092915050565b6000670de0b6b3a76400008261257d91906138a4565b9050919050565b6000670de0b6b3a7640000828461259b91906138a4565b6125a591906139ea565b905092915050565b6125b5612734565b8173ffffffffffffffffffffffffffffffffffffffff16639d888e866040518163ffffffff1660e01b8152600401606060405180830381865afa158015612600573d6000803e3d6000fd5b505050506040513d601f19601f8201168201806040525081019061262491906137ca565b9050919050565b6000612636826126d1565b9050919050565b6000670de0b6b3a764000082846126549190613a54565b61265e9190613aae565b905092915050565b61266e61271a565b604051806040016040528061269084866000015161263d90919063ffffffff16565b81526020016126ac84866020015161263d90919063ffffffff16565b815250905092915050565b6000818310156126c757816126c9565b825b905092915050565b6000808212156126e457816000036126e6565b815b9050919050565b60405180606001604052806000815260200161270761271a565b815260200161271461271a565b81525090565b604051806040016040528060008152602001600081525090565b60405180606001604052806000815260200160008152602001600081525090565b6000604051905090565b600080fd5b600080fd5b600073ffffffffffffffffffffffffffffffffffffffff82169050919050565b600061279482612769565b9050919050565b60006127a682612789565b9050919050565b6127b68161279b565b81146127c157600080fd5b50565b6000813590506127d3816127ad565b92915050565b6000602082840312156127ef576127ee61275f565b5b60006127fd848285016127c4565b91505092915050565b600081519050919050565b600082825260208201905092915050565b60005b83811015612840578082015181840152602081019050612825565b8381111561284f576000848401525b50505050565b6000601f19601f8301169050919050565b600061287182612806565b61287b8185612811565b935061288b818560208601612822565b61289481612855565b840191505092915050565b600060208201905081810360008301526128b98184612866565b905092915050565b6000819050919050565b6128d4816128c1565b82525050565b6000819050919050565b60006128ff6128fa6128f5846128c1565b6128da565b6128c1565b9050919050565b61290f816128e4565b82525050565b60408201600082015161292b6000850182612906565b50602082015161293e6020850182612906565b50505050565b60a08201600082015161295a60008501826128cb565b50602082015161296d6020850182612915565b5060408201516129806060850182612915565b50505050565b60408201600082015161299c6000850182612906565b5060208201516129af6020850182612906565b50505050565b600060e0820190506129ca6000830185612944565b6129d760a0830184612986565b9392505050565b6000819050919050565b6000612a036129fe6129f9846129de565b6128da565b6129de565b9050919050565b612a13816129e8565b82525050565b6000602082019050612a2e6000830184612a0a565b92915050565b600060a082019050612a496000830184612944565b92915050565b612a5881612789565b8114612a6357600080fd5b50565b600081359050612a7581612a4f565b92915050565b60008060408385031215612a9257612a9161275f565b5b6000612aa085828601612a66565b9250506020612ab1858286016127c4565b9150509250929050565b612ac4816128e4565b82525050565b6000602082019050612adf6000830184612abb565b92915050565b600081519050919050565b600082825260208201905092915050565b6000819050602082019050919050565b6000612b2c612b27612b2284612769565b6128da565b612769565b9050919050565b6000612b3e82612b11565b9050919050565b6000612b5082612b33565b9050919050565b612b6081612b45565b82525050565b6000612b728383612b57565b60208301905092915050565b6000602082019050919050565b6000612b9682612ae5565b612ba08185612af0565b9350612bab83612b01565b8060005b83811015612bdc578151612bc38882612b66565b9750612bce83612b7e565b925050600181019050612baf565b5085935050505092915050565b600081519050919050565b600082825260208201905092915050565b6000819050602082019050919050565b6000612c218383612906565b60208301905092915050565b6000602082019050919050565b6000612c4582612be9565b612c4f8185612bf4565b9350612c5a83612c05565b8060005b83811015612c8b578151612c728882612c15565b9750612c7d83612c2d565b925050600181019050612c5e565b5085935050505092915050565b60006040820190508181036000830152612cb28185612b8b565b90508181036020830152612cc68184612c3a565b90509392505050565b60008115159050919050565b612ce481612ccf565b82525050565b6000602082019050612cff6000830184612cdb565b92915050565b612d0e816128c1565b8114612d1957600080fd5b50565b600081359050612d2b81612d05565b92915050565b600080600060608486031215612d4a57612d4961275f565b5b6000612d5886828701612a66565b9350506020612d69868287016127c4565b9250506040612d7a86828701612d1c565b9150509250925092565b6000604082019050612d996000830184612986565b92915050565b612da8816128c1565b8114612db357600080fd5b50565b600081359050612dc581612d9f565b92915050565b60008060408385031215612de257612de161275f565b5b6000612df0858286016127c4565b9250506020612e0185828601612db6565b9150509250929050565b6000612e1682612b33565b9050919050565b612e2681612e0b565b82525050565b6000602082019050612e416000830184612e1d565b92915050565b600080fd5b7f4e487b7100000000000000000000000000000000000000000000000000000000600052604160045260246000fd5b612e8482612855565b810181811067ffffffffffffffff82111715612ea357612ea2612e4c565b5b80604052505050565b6000612eb6612755565b9050612ec28282612e7b565b919050565b600067ffffffffffffffff821115612ee257612ee1612e4c565b5b602082029050602081019050919050565b600080fd5b6000612f0b612f0684612ec7565b612eac565b90508083825260208201905060208402830185811115612f2e57612f2d612ef3565b5b835b81811015612f575780612f4388826127c4565b845260208401935050602081019050612f30565b5050509392505050565b600082601f830112612f7657612f75612e47565b5b8135612f86848260208601612ef8565b91505092915050565b60008060408385031215612fa657612fa561275f565b5b6000612fb485828601612a66565b925050602083013567ffffffffffffffff811115612fd557612fd4612764565b5b612fe185828601612f61565b9150509250929050565b6000612ff682612b33565b9050919050565b61300681612feb565b82525050565b60006020820190506130216000830184612ffd565b92915050565b600080fd5b60008083601f84011261304257613041612e47565b5b8235905067ffffffffffffffff81111561305f5761305e613027565b5b60208301915083602082028301111561307b5761307a612ef3565b5b9250929050565b6000806000806060858703121561309c5761309b61275f565b5b60006130aa87828801612a66565b94505060206130bb878288016127c4565b935050604085013567ffffffffffffffff8111156130dc576130db612764565b5b6130e88782880161302c565b925092505092959194509250565b600060408201905061310b6000830185612abb565b6131186020830184612abb565b9392505050565b600080fd5b600067ffffffffffffffff82111561313f5761313e612e4c565b5b61314882612855565b9050602081019050919050565b600061316861316384613124565b612eac565b9050828152602081018484840111156131845761318361311f565b5b61318f848285612822565b509392505050565b600082601f8301126131ac576131ab612e47565b5b81516131bc848260208601613155565b91505092915050565b6000602082840312156131db576131da61275f565b5b600082015167ffffffffffffffff8111156131f9576131f8612764565b5b61320584828501613197565b91505092915050565b600080fd5b60008151905061322281612d9f565b92915050565b60008151905061323781612d05565b92915050565b6000604082840312156132535761325261320e565b5b61325d6040612eac565b9050600061326d84828501613228565b600083015250602061328184828501613228565b60208301525092915050565b600060a082840312156132a3576132a261320e565b5b6132ad6060612eac565b905060006132bd84828501613213565b60008301525060206132d18482850161323d565b60208301525060606132e58482850161323d565b60408301525092915050565b600060a082840312156133075761330661275f565b5b60006133158482850161328d565b91505092915050565b613327816129de565b811461333257600080fd5b50565b6000815190506133448161331e565b92915050565b6000602082840312156133605761335f61275f565b5b600061336e84828501613335565b91505092915050565b61338081612789565b82525050565b600060208201905061339b6000830184613377565b92915050565b6000602082840312156133b7576133b661275f565b5b60006133c584828501613228565b91505092915050565b6000604082840312156133e4576133e361275f565b5b60006133f28482850161323d565b91505092915050565b600061340682612789565b9050919050565b613416816133fb565b811461342157600080fd5b50565b6000815190506134338161340d565b92915050565b60006020828403121561344f5761344e61275f565b5b600061345d84828501613424565b91505092915050565b600061347182612b33565b9050919050565b61348181613466565b82525050565b600060208201905061349c6000830184613478565b92915050565b6000602082840312156134b8576134b761275f565b5b60006134c684828501613213565b91505092915050565b6134d8816128c1565b82525050565b60006040820190506134f36000830185613478565b61350060208301846134cf565b9392505050565b61351081612789565b811461351b57600080fd5b50565b60008151905061352d81613507565b92915050565b600060c082840312156135495761354861320e565b5b61355360a0612eac565b9050600061356384828501613213565b60008301525060206135778482850161323d565b602083015250606061358b84828501613213565b604083015250608061359f84828501613213565b60608301525060a06135b38482850161351e565b60808301525092915050565b600060c082840312156135d5576135d461275f565b5b60006135e384828501613533565b91505092915050565b7f4e487b7100000000000000000000000000000000000000000000000000000000600052603260045260246000fd5b60006060820190506136306000830186613478565b61363d6020830185613377565b61364a60408301846134cf565b949350505050565b7f4e487b7100000000000000000000000000000000000000000000000000000000600052601160045260246000fd5b600061368c826128c1565b91507fffffffffffffffffffffffffffffffffffffffffffffffffffffffffffffffff82036136be576136bd613652565b5b600182019050919050565b60006040820190506136de6000830185613377565b6136eb6020830184613478565b9392505050565b6136fb81612ccf565b811461370657600080fd5b50565b600081519050613718816136f2565b92915050565b6000602082840312156137345761373361275f565b5b600061374284828501613709565b91505092915050565b600060208201905061376060008301846134cf565b92915050565b60006060828403121561377c5761377b61320e565b5b6137866060612eac565b9050600061379684828501613213565b60008301525060206137aa84828501613213565b60208301525060406137be84828501613335565b60408301525092915050565b6000606082840312156137e0576137df61275f565b5b60006137ee84828501613766565b91505092915050565b600061380282612789565b9050919050565b613812816137f7565b811461381d57600080fd5b50565b60008151905061382f81613809565b92915050565b60006020828403121561384b5761384a61275f565b5b600061385984828501613820565b91505092915050565b60008151905061387181612a4f565b92915050565b60006020828403121561388d5761388c61275f565b5b600061389b84828501613862565b91505092915050565b60006138af826129de565b91506138ba836129de565b9250827f7fffffffffffffffffffffffffffffffffffffffffffffffffffffffffffffff04821160008413600084131616156138f9576138f8613652565b5b817f8000000000000000000000000000000000000000000000000000000000000000058312600084126000841316161561393657613935613652565b5b827f8000000000000000000000000000000000000000000000000000000000000000058212600084136000841216161561397357613972613652565b5b827f7fffffffffffffffffffffffffffffffffffffffffffffffffffffffffffffff05821260008412600084121616156139b0576139af613652565b5b828202905092915050565b7f4e487b7100000000000000000000000000000000000000000000000000000000600052601260045260246000fd5b60006139f5826129de565b9150613a00836129de565b925082613a1057613a0f6139bb565b5b600160000383147f800000000000000000000000000000000000000000000000000000000000000083141615613a4957613a48613652565b5b828205905092915050565b6000613a5f826128c1565b9150613a6a836128c1565b9250817fffffffffffffffffffffffffffffffffffffffffffffffffffffffffffffffff0483118215151615613aa357613aa2613652565b5b828202905092915050565b6000613ab9826128c1565b9150613ac4836128c1565b925082613ad457613ad36139bb565b5b82820490509291505056fea264697066735822122020dc16c3e2df0de0dba1d4789fa6e497a54a8ad96d0f6da7dcec12edbe93cb7464736f6c634300080f0033",
  "devdoc": {
    "kind": "dev",
    "methods": {
      "collateral()": {
        "returns": {
          "_0": "Protocol collateral address"
        }
      },
      "collateral(address)": {
        "params": {
          "product": "Product address"
        },
        "returns": {
          "_0": "Total collateral for product"
        }
      },
      "collateral(address,address)": {
        "params": {
          "account": "Account address",
          "product": "Product address"
        },
        "returns": {
          "_0": "User deposited collateral for product"
        }
      },
      "constructor": {
        "params": {
          "_controller": "Protocol controller address"
        }
      },
      "dailyRate(address)": {
        "params": {
          "product": "Product address"
        },
        "returns": {
          "_0": "Product current funding extrapolated to a daily rate"
        }
      },
      "fees(address)": {
        "params": {
          "product": "Product address"
        },
        "returns": {
          "productFees": "fees accrued by the product owner",
          "protocolFees": "fees accrued by the protocol"
        }
      },
      "fees(address,address[])": {
        "params": {
          "account": "Account address",
          "products": "Product addresses"
        },
        "returns": {
          "_0": "sum of all fees accrued by the account"
        }
      },
      "globalPosition(address)": {
        "params": {
          "product": "Product address"
        },
        "returns": {
          "_0": "Product pre-position",
          "_1": "Product position"
        }
      },
      "liquidatable(address,address)": {
        "params": {
          "account": "Account address",
          "product": "Product address"
        },
        "returns": {
          "_0": "Whether or not the user's position eligible to be liquidated"
        }
      },
      "maintenance(address,address)": {
        "params": {
          "account": "Account address",
          "product": "Product address"
        },
        "returns": {
          "_0": "Maximum of user maintenance, and maintenanceNext"
        }
      },
      "maintenanceRequired(address,address,uint256)": {
        "params": {
          "account": "Account address",
          "positionSize": "size of position for maintenance calculation",
          "product": "Product address"
        },
        "returns": {
          "_0": "Maintenance required for position in product"
        }
      },
      "name(address)": {
        "params": {
          "product": "Product address"
        },
        "returns": {
          "_0": "Name of the product"
        }
      },
      "openInterest(address)": {
        "params": {
          "product": "Product address"
        },
        "returns": {
          "_0": "Product maker and taker position multiplied by latest price after settle"
        }
      },
      "openInterest(address,address)": {
        "params": {
          "account": "Account address",
          "product": "Product address"
        },
        "returns": {
          "_0": "User's maker or taker position multiplied by latest price after settle"
        }
      },
      "position(address)": {
        "params": {
          "product": "Product address"
        },
        "returns": {
          "_0": "product position"
        }
      },
      "position(address,address)": {
        "params": {
          "account": "Account address",
          "product": "Product address"
        },
        "returns": {
          "_0": "User position"
        }
      },
      "pre(address)": {
        "params": {
          "product": "Product address"
        },
        "returns": {
          "_0": "Product pre-position"
        }
      },
      "pre(address,address)": {
        "params": {
          "account": "Account address",
          "product": "Product address"
        },
        "returns": {
          "_0": "User pre-position"
        }
      },
      "price(address)": {
        "params": {
          "product": "Product address"
        },
        "returns": {
          "_0": "Product latest price"
        }
      },
      "priceAtVersion(address,uint256)": {
        "params": {
          "product": "Product address",
          "version": "Oracle version"
        },
        "returns": {
          "_0": "Product price at specified version"
        }
      },
      "rate(address)": {
        "params": {
          "product": "Product address"
        },
        "returns": {
          "_0": "Product current funding rate"
        }
      },
      "shortfall(address)": {
        "params": {
          "product": "Product address"
        },
        "returns": {
          "_0": "Total shortfall for product"
        }
      },
      "symbol(address)": {
        "params": {
          "product": "Product address"
        },
        "returns": {
          "_0": "Symbol of the product"
        }
      },
      "unclaimedIncentiveRewards(address,address)": {
        "params": {
          "account": "Account address",
          "product": "Product address"
        },
        "returns": {
          "amounts": "Token amounts of unclaimed incentive rewards for given product",
          "tokens": "Token addresses of unclaimed incentive rewards for given product"
        }
      },
      "unclaimedIncentiveRewards(address,address,uint256[])": {
        "params": {
          "account": "Account address",
          "product": "Product address",
          "programIds": "Program IDs to query"
        },
        "returns": {
          "amounts": "Token amounts of unclaimed incentive rewards for given program IDs",
          "tokens": "Token addresses of unclaimed incentive rewards for given program IDs"
        }
      },
      "userPosition(address,address)": {
        "params": {
          "account": "Account address",
          "product": "Product address"
        },
        "returns": {
          "_0": "User pre-position",
          "_1": "User position"
        }
      }
    },
    "stateVariables": {
      "controller": {
        "return": "Protocol controller",
        "returns": {
          "_0": "Protocol controller"
        }
      }
    },
    "title": "Lens contract to conveniently pull protocol data",
    "version": 1
  },
  "userdoc": {
    "kind": "user",
    "methods": {
      "collateral()": {
        "notice": "Protocol collateral address"
      },
      "collateral(address)": {
        "notice": "Product total collateral amount after settle"
      },
      "collateral(address,address)": {
        "notice": "User collateral amount for product after settle"
      },
      "controller()": {
        "notice": "Protocol controller"
      },
      "dailyRate(address)": {
        "notice": "Product funding extrapolated to a daily rate after settle"
      },
      "fees(address)": {
        "notice": "Fees accumulated by product and protocol treasuries after settle"
      },
      "fees(address,address[])": {
        "notice": "Fees accumulated by treasury after settle"
      },
      "globalPosition(address)": {
        "notice": "Product pre-position and position after settle"
      },
      "liquidatable(address,address)": {
        "notice": "User liquidatble status for product after settle"
      },
      "maintenance(address,address)": {
        "notice": "User maintenance amount for product after settle"
      },
      "maintenanceRequired(address,address,uint256)": {
        "notice": "User's maintenance required for position size in product after settle"
      },
      "name(address)": {
        "notice": "Returns the name of the provided `product`"
      },
      "openInterest(address)": {
        "notice": "Product total open interest after settle"
      },
      "openInterest(address,address)": {
        "notice": "User's open interest in product after settle"
      },
      "position(address)": {
        "notice": "Product position after settle"
      },
      "position(address,address)": {
        "notice": "User position for product after settle"
      },
      "pre(address)": {
        "notice": "Product pre position after settle"
      },
      "pre(address,address)": {
        "notice": "User pre position for product after settle"
      },
      "price(address)": {
        "notice": "Current price of product after settle"
      },
      "priceAtVersion(address,uint256)": {
        "notice": "Current price of product at specified version after settle"
      },
      "rate(address)": {
        "notice": "Product funding rate after settle"
      },
      "shortfall(address)": {
        "notice": "Product total shortfall amount after settle"
      },
      "symbol(address)": {
        "notice": "Returns the symbol of the provided `product`"
      },
      "unclaimedIncentiveRewards(address,address)": {
        "notice": "User's unclaimed rewards for all programs for product after settle"
      },
      "unclaimedIncentiveRewards(address,address,uint256[])": {
        "notice": "User's unclaimed rewards for provided programs for product after settle"
      },
      "userPosition(address,address)": {
        "notice": "User pre-position and position for product after settle"
      }
    },
    "notice": "All functions should be called using `callStatic`",
    "version": 1
  },
  "storageLayout": {
    "storage": [],
    "types": null
  }
}