{
  "address": "0x68f680607a5c32cab860f84f5f5e9f9497f66535",
  "abi": [
    {
      "inputs": [
        {
          "internalType": "contract IController",
          "name": "_controller",
          "type": "address"
        }
      ],
      "stateMutability": "nonpayable",
      "type": "constructor"
    },
    {
      "inputs": [
        {
          "internalType": "contract IProduct",
          "name": "product",
          "type": "address"
        },
        {
          "internalType": "uint256[]",
          "name": "versions",
          "type": "uint256[]"
        }
      ],
      "name": "atVersions",
      "outputs": [
        {
          "components": [
            {
              "internalType": "uint256",
              "name": "version",
              "type": "uint256"
            },
            {
              "internalType": "uint256",
              "name": "timestamp",
              "type": "uint256"
            },
            {
              "internalType": "Fixed18",
              "name": "price",
              "type": "int256"
            }
          ],
          "internalType": "struct IOracleProvider.OracleVersion[]",
          "name": "prices",
          "type": "tuple[]"
        }
      ],
      "stateMutability": "nonpayable",
      "type": "function"
    },
    {
      "inputs": [
        {
          "internalType": "contract IProduct",
          "name": "product",
          "type": "address"
        }
      ],
      "name": "collateral",
      "outputs": [
        {
          "internalType": "UFixed18",
          "name": "",
          "type": "uint256"
        }
      ],
      "stateMutability": "nonpayable",
      "type": "function"
    },
    {
      "inputs": [
        {
          "internalType": "address",
          "name": "account",
          "type": "address"
        },
        {
          "internalType": "contract IProduct",
          "name": "product",
          "type": "address"
        }
      ],
      "name": "collateral",
      "outputs": [
        {
          "internalType": "UFixed18",
          "name": "",
          "type": "uint256"
        }
      ],
      "stateMutability": "nonpayable",
      "type": "function"
    },
    {
      "inputs": [],
      "name": "collateral",
      "outputs": [
        {
          "internalType": "contract ICollateral",
          "name": "",
          "type": "address"
        }
      ],
      "stateMutability": "view",
      "type": "function"
    },
    {
      "inputs": [],
      "name": "controller",
      "outputs": [
        {
          "internalType": "contract IController",
          "name": "",
          "type": "address"
        }
      ],
      "stateMutability": "view",
      "type": "function"
    },
    {
      "inputs": [
        {
          "internalType": "contract IProduct",
          "name": "product",
          "type": "address"
        }
      ],
      "name": "dailyRate",
      "outputs": [
        {
          "internalType": "Fixed18",
          "name": "",
          "type": "int256"
        }
      ],
      "stateMutability": "nonpayable",
      "type": "function"
    },
    {
      "inputs": [
        {
          "internalType": "address",
          "name": "account",
          "type": "address"
        },
        {
          "internalType": "contract IProduct",
          "name": "product",
          "type": "address"
        }
      ],
      "name": "exposure",
      "outputs": [
        {
          "internalType": "UFixed18",
          "name": "",
          "type": "uint256"
        }
      ],
      "stateMutability": "nonpayable",
      "type": "function"
    },
    {
      "inputs": [
        {
          "internalType": "address",
          "name": "account",
          "type": "address"
        },
        {
          "internalType": "contract IProduct",
          "name": "product",
          "type": "address"
        }
      ],
      "name": "fees",
      "outputs": [
        {
          "internalType": "UFixed18",
          "name": "",
          "type": "uint256"
        }
      ],
      "stateMutability": "nonpayable",
      "type": "function"
    },
    {
      "inputs": [
        {
          "internalType": "contract IProduct",
          "name": "product",
          "type": "address"
        }
      ],
      "name": "fees",
      "outputs": [
        {
          "internalType": "UFixed18",
          "name": "protocolFees",
          "type": "uint256"
        },
        {
          "internalType": "UFixed18",
          "name": "productFees",
          "type": "uint256"
        }
      ],
      "stateMutability": "nonpayable",
      "type": "function"
    },
    {
      "inputs": [
        {
          "internalType": "contract IProduct",
          "name": "product",
          "type": "address"
        }
      ],
      "name": "globalPosition",
      "outputs": [
        {
          "components": [
            {
              "internalType": "uint256",
              "name": "oracleVersion",
              "type": "uint256"
            },
            {
              "components": [
                {
                  "internalType": "UFixed18",
                  "name": "maker",
                  "type": "uint256"
                },
                {
                  "internalType": "UFixed18",
                  "name": "taker",
                  "type": "uint256"
                }
              ],
              "internalType": "struct Position",
              "name": "openPosition",
              "type": "tuple"
            },
            {
              "components": [
                {
                  "internalType": "UFixed18",
                  "name": "maker",
                  "type": "uint256"
                },
                {
                  "internalType": "UFixed18",
                  "name": "taker",
                  "type": "uint256"
                }
              ],
              "internalType": "struct Position",
              "name": "closePosition",
              "type": "tuple"
            }
          ],
          "internalType": "struct PrePosition",
          "name": "",
          "type": "tuple"
        },
        {
          "components": [
            {
              "internalType": "UFixed18",
              "name": "maker",
              "type": "uint256"
            },
            {
              "internalType": "UFixed18",
              "name": "taker",
              "type": "uint256"
            }
          ],
          "internalType": "struct Position",
          "name": "",
          "type": "tuple"
        }
      ],
      "stateMutability": "nonpayable",
      "type": "function"
    },
    {
      "inputs": [
        {
          "internalType": "contract IProduct",
          "name": "product",
          "type": "address"
        }
      ],
      "name": "info",
      "outputs": [
        {
          "components": [
            {
              "internalType": "string",
              "name": "name",
              "type": "string"
            },
            {
              "internalType": "string",
              "name": "symbol",
              "type": "string"
            },
            {
              "components": [
                {
                  "internalType": "enum PayoffDefinitionLib.PayoffType",
                  "name": "payoffType",
                  "type": "uint8"
                },
                {
                  "internalType": "enum PayoffDefinitionLib.PayoffDirection",
                  "name": "payoffDirection",
                  "type": "uint8"
                },
                {
                  "internalType": "bytes30",
                  "name": "data",
                  "type": "bytes30"
                }
              ],
              "internalType": "struct PayoffDefinition",
              "name": "payoffDefinition",
              "type": "tuple"
            },
            {
              "internalType": "contract IOracleProvider",
              "name": "oracle",
              "type": "address"
            },
            {
              "internalType": "UFixed18",
              "name": "maintenance",
              "type": "uint256"
            },
            {
              "internalType": "UFixed18",
              "name": "fundingFee",
              "type": "uint256"
            },
            {
              "internalType": "UFixed18",
              "name": "makerFee",
              "type": "uint256"
            },
            {
              "internalType": "UFixed18",
              "name": "takerFee",
              "type": "uint256"
            },
            {
              "internalType": "UFixed18",
              "name": "makerLimit",
              "type": "uint256"
            },
            {
              "components": [
                {
                  "internalType": "PackedFixed18",
                  "name": "minRate",
                  "type": "int128"
                },
                {
                  "internalType": "PackedFixed18",
                  "name": "maxRate",
                  "type": "int128"
                },
                {
                  "internalType": "PackedFixed18",
                  "name": "targetRate",
                  "type": "int128"
                },
                {
                  "internalType": "PackedUFixed18",
                  "name": "targetUtilization",
                  "type": "uint128"
                }
              ],
              "internalType": "struct JumpRateUtilizationCurve",
              "name": "utilizationCurve",
              "type": "tuple"
            }
          ],
          "internalType": "struct IProduct.ProductInfo",
          "name": "_info",
          "type": "tuple"
        }
      ],
      "stateMutability": "view",
      "type": "function"
    },
    {
      "inputs": [
        {
          "internalType": "contract IProduct",
          "name": "product",
          "type": "address"
        }
      ],
      "name": "latestVersion",
      "outputs": [
        {
          "components": [
            {
              "internalType": "uint256",
              "name": "version",
              "type": "uint256"
            },
            {
              "internalType": "uint256",
              "name": "timestamp",
              "type": "uint256"
            },
            {
              "internalType": "Fixed18",
              "name": "price",
              "type": "int256"
            }
          ],
          "internalType": "struct IOracleProvider.OracleVersion",
          "name": "",
          "type": "tuple"
        }
      ],
      "stateMutability": "nonpayable",
      "type": "function"
    },
    {
      "inputs": [
        {
          "internalType": "address",
          "name": "account",
          "type": "address"
        },
        {
          "internalType": "contract IProduct",
          "name": "product",
          "type": "address"
        }
      ],
      "name": "liquidatable",
      "outputs": [
        {
          "internalType": "bool",
          "name": "",
          "type": "bool"
        }
      ],
      "stateMutability": "nonpayable",
      "type": "function"
    },
    {
      "inputs": [
        {
          "internalType": "address",
          "name": "account",
          "type": "address"
        },
        {
          "internalType": "contract IProduct",
          "name": "product",
          "type": "address"
        }
      ],
      "name": "maintenance",
      "outputs": [
        {
          "internalType": "UFixed18",
          "name": "",
          "type": "uint256"
        }
      ],
      "stateMutability": "nonpayable",
      "type": "function"
    },
    {
      "inputs": [
        {
          "internalType": "address",
          "name": "account",
          "type": "address"
        },
        {
          "internalType": "contract IProduct",
          "name": "product",
          "type": "address"
        },
        {
          "internalType": "UFixed18",
          "name": "positionSize",
          "type": "uint256"
        }
      ],
      "name": "maintenanceRequired",
      "outputs": [
        {
          "internalType": "UFixed18",
          "name": "",
          "type": "uint256"
        }
      ],
      "stateMutability": "nonpayable",
      "type": "function"
    },
    {
      "inputs": [
        {
          "internalType": "contract IProduct",
          "name": "product",
          "type": "address"
        }
      ],
      "name": "name",
      "outputs": [
        {
          "internalType": "string",
          "name": "",
          "type": "string"
        }
      ],
      "stateMutability": "view",
      "type": "function"
    },
    {
      "inputs": [
        {
          "internalType": "address",
          "name": "account",
          "type": "address"
        },
        {
          "internalType": "contract IProduct",
          "name": "product",
          "type": "address"
        }
      ],
      "name": "openInterest",
      "outputs": [
        {
          "components": [
            {
              "internalType": "UFixed18",
              "name": "maker",
              "type": "uint256"
            },
            {
              "internalType": "UFixed18",
              "name": "taker",
              "type": "uint256"
            }
          ],
          "internalType": "struct Position",
          "name": "",
          "type": "tuple"
        }
      ],
      "stateMutability": "nonpayable",
      "type": "function"
    },
    {
      "inputs": [
        {
          "internalType": "contract IProduct",
          "name": "product",
          "type": "address"
        }
      ],
      "name": "openInterest",
      "outputs": [
        {
          "components": [
            {
              "internalType": "UFixed18",
              "name": "maker",
              "type": "uint256"
            },
            {
              "internalType": "UFixed18",
              "name": "taker",
              "type": "uint256"
            }
          ],
          "internalType": "struct Position",
          "name": "",
          "type": "tuple"
        }
      ],
      "stateMutability": "nonpayable",
      "type": "function"
    },
    {
      "inputs": [
        {
          "internalType": "contract IProduct",
          "name": "product",
          "type": "address"
        }
      ],
      "name": "position",
      "outputs": [
        {
          "components": [
            {
              "internalType": "UFixed18",
              "name": "maker",
              "type": "uint256"
            },
            {
              "internalType": "UFixed18",
              "name": "taker",
              "type": "uint256"
            }
          ],
          "internalType": "struct Position",
          "name": "",
          "type": "tuple"
        }
      ],
      "stateMutability": "nonpayable",
      "type": "function"
    },
    {
      "inputs": [
        {
          "internalType": "address",
          "name": "account",
          "type": "address"
        },
        {
          "internalType": "contract IProduct",
          "name": "product",
          "type": "address"
        }
      ],
      "name": "position",
      "outputs": [
        {
          "components": [
            {
              "internalType": "UFixed18",
              "name": "maker",
              "type": "uint256"
            },
            {
              "internalType": "UFixed18",
              "name": "taker",
              "type": "uint256"
            }
          ],
          "internalType": "struct Position",
          "name": "",
          "type": "tuple"
        }
      ],
      "stateMutability": "nonpayable",
      "type": "function"
    },
    {
      "inputs": [
        {
          "internalType": "contract IProduct",
          "name": "product",
          "type": "address"
        }
      ],
      "name": "pre",
      "outputs": [
        {
          "components": [
            {
              "internalType": "uint256",
              "name": "oracleVersion",
              "type": "uint256"
            },
            {
              "components": [
                {
                  "internalType": "UFixed18",
                  "name": "maker",
                  "type": "uint256"
                },
                {
                  "internalType": "UFixed18",
                  "name": "taker",
                  "type": "uint256"
                }
              ],
              "internalType": "struct Position",
              "name": "openPosition",
              "type": "tuple"
            },
            {
              "components": [
                {
                  "internalType": "UFixed18",
                  "name": "maker",
                  "type": "uint256"
                },
                {
                  "internalType": "UFixed18",
                  "name": "taker",
                  "type": "uint256"
                }
              ],
              "internalType": "struct Position",
              "name": "closePosition",
              "type": "tuple"
            }
          ],
          "internalType": "struct PrePosition",
          "name": "",
          "type": "tuple"
        }
      ],
      "stateMutability": "nonpayable",
      "type": "function"
    },
    {
      "inputs": [
        {
          "internalType": "address",
          "name": "account",
          "type": "address"
        },
        {
          "internalType": "contract IProduct",
          "name": "product",
          "type": "address"
        }
      ],
      "name": "pre",
      "outputs": [
        {
          "components": [
            {
              "internalType": "uint256",
              "name": "oracleVersion",
              "type": "uint256"
            },
            {
              "components": [
                {
                  "internalType": "UFixed18",
                  "name": "maker",
                  "type": "uint256"
                },
                {
                  "internalType": "UFixed18",
                  "name": "taker",
                  "type": "uint256"
                }
              ],
              "internalType": "struct Position",
              "name": "openPosition",
              "type": "tuple"
            },
            {
              "components": [
                {
                  "internalType": "UFixed18",
                  "name": "maker",
                  "type": "uint256"
                },
                {
                  "internalType": "UFixed18",
                  "name": "taker",
                  "type": "uint256"
                }
              ],
              "internalType": "struct Position",
              "name": "closePosition",
              "type": "tuple"
            }
          ],
          "internalType": "struct PrePosition",
          "name": "",
          "type": "tuple"
        }
      ],
      "stateMutability": "nonpayable",
      "type": "function"
    },
    {
      "inputs": [
        {
          "internalType": "contract IProduct",
          "name": "product",
          "type": "address"
        }
      ],
      "name": "rate",
      "outputs": [
        {
          "internalType": "Fixed18",
          "name": "",
          "type": "int256"
        }
      ],
      "stateMutability": "nonpayable",
      "type": "function"
    },
    {
      "inputs": [
        {
          "internalType": "contract IProduct",
          "name": "product",
          "type": "address"
        }
      ],
      "name": "shortfall",
      "outputs": [
        {
          "internalType": "UFixed18",
          "name": "",
          "type": "uint256"
        }
      ],
      "stateMutability": "nonpayable",
      "type": "function"
    },
    {
      "inputs": [
        {
          "internalType": "address",
          "name": "account",
          "type": "address"
        },
        {
          "internalType": "contract IProduct",
          "name": "product",
          "type": "address"
        }
      ],
      "name": "snapshot",
      "outputs": [
        {
          "components": [
            {
              "internalType": "address",
              "name": "productAddress",
              "type": "address"
            },
            {
              "internalType": "address",
              "name": "userAddress",
              "type": "address"
            },
            {
              "internalType": "UFixed18",
              "name": "collateral",
              "type": "uint256"
            },
            {
              "internalType": "UFixed18",
              "name": "maintenance",
              "type": "uint256"
            },
            {
              "components": [
                {
                  "internalType": "uint256",
                  "name": "oracleVersion",
                  "type": "uint256"
                },
                {
                  "components": [
                    {
                      "internalType": "UFixed18",
                      "name": "maker",
                      "type": "uint256"
                    },
                    {
                      "internalType": "UFixed18",
                      "name": "taker",
                      "type": "uint256"
                    }
                  ],
                  "internalType": "struct Position",
                  "name": "openPosition",
                  "type": "tuple"
                },
                {
                  "components": [
                    {
                      "internalType": "UFixed18",
                      "name": "maker",
                      "type": "uint256"
                    },
                    {
                      "internalType": "UFixed18",
                      "name": "taker",
                      "type": "uint256"
                    }
                  ],
                  "internalType": "struct Position",
                  "name": "closePosition",
                  "type": "tuple"
                }
              ],
              "internalType": "struct PrePosition",
              "name": "pre",
              "type": "tuple"
            },
            {
              "components": [
                {
                  "internalType": "UFixed18",
                  "name": "maker",
                  "type": "uint256"
                },
                {
                  "internalType": "UFixed18",
                  "name": "taker",
                  "type": "uint256"
                }
              ],
              "internalType": "struct Position",
              "name": "position",
              "type": "tuple"
            },
            {
              "internalType": "bool",
              "name": "liquidatable",
              "type": "bool"
            },
            {
              "components": [
                {
                  "internalType": "UFixed18",
                  "name": "maker",
                  "type": "uint256"
                },
                {
                  "internalType": "UFixed18",
                  "name": "taker",
                  "type": "uint256"
                }
              ],
              "internalType": "struct Position",
              "name": "openInterest",
              "type": "tuple"
            },
            {
              "internalType": "UFixed18",
              "name": "fees",
              "type": "uint256"
            },
            {
              "internalType": "UFixed18",
              "name": "exposure",
              "type": "uint256"
            }
          ],
          "internalType": "struct IPerennialLens.UserProductSnapshot",
          "name": "",
          "type": "tuple"
        }
      ],
      "stateMutability": "nonpayable",
      "type": "function"
    },
    {
      "inputs": [
        {
          "internalType": "contract IProduct",
          "name": "product",
          "type": "address"
        }
      ],
      "name": "snapshot",
      "outputs": [
        {
          "components": [
            {
              "components": [
                {
                  "internalType": "string",
                  "name": "name",
                  "type": "string"
                },
                {
                  "internalType": "string",
                  "name": "symbol",
                  "type": "string"
                },
                {
                  "components": [
                    {
                      "internalType": "enum PayoffDefinitionLib.PayoffType",
                      "name": "payoffType",
                      "type": "uint8"
                    },
                    {
                      "internalType": "enum PayoffDefinitionLib.PayoffDirection",
                      "name": "payoffDirection",
                      "type": "uint8"
                    },
                    {
                      "internalType": "bytes30",
                      "name": "data",
                      "type": "bytes30"
                    }
                  ],
                  "internalType": "struct PayoffDefinition",
                  "name": "payoffDefinition",
                  "type": "tuple"
                },
                {
                  "internalType": "contract IOracleProvider",
                  "name": "oracle",
                  "type": "address"
                },
                {
                  "internalType": "UFixed18",
                  "name": "maintenance",
                  "type": "uint256"
                },
                {
                  "internalType": "UFixed18",
                  "name": "fundingFee",
                  "type": "uint256"
                },
                {
                  "internalType": "UFixed18",
                  "name": "makerFee",
                  "type": "uint256"
                },
                {
                  "internalType": "UFixed18",
                  "name": "takerFee",
                  "type": "uint256"
                },
                {
                  "internalType": "UFixed18",
                  "name": "makerLimit",
                  "type": "uint256"
                },
                {
                  "components": [
                    {
                      "internalType": "PackedFixed18",
                      "name": "minRate",
                      "type": "int128"
                    },
                    {
                      "internalType": "PackedFixed18",
                      "name": "maxRate",
                      "type": "int128"
                    },
                    {
                      "internalType": "PackedFixed18",
                      "name": "targetRate",
                      "type": "int128"
                    },
                    {
                      "internalType": "PackedUFixed18",
                      "name": "targetUtilization",
                      "type": "uint128"
                    }
                  ],
                  "internalType": "struct JumpRateUtilizationCurve",
                  "name": "utilizationCurve",
                  "type": "tuple"
                }
              ],
              "internalType": "struct IProduct.ProductInfo",
              "name": "productInfo",
              "type": "tuple"
            },
            {
              "internalType": "address",
              "name": "productAddress",
              "type": "address"
            },
            {
              "internalType": "Fixed18",
              "name": "rate",
              "type": "int256"
            },
            {
              "internalType": "Fixed18",
              "name": "dailyRate",
              "type": "int256"
            },
            {
              "components": [
                {
                  "internalType": "uint256",
                  "name": "version",
                  "type": "uint256"
                },
                {
                  "internalType": "uint256",
                  "name": "timestamp",
                  "type": "uint256"
                },
                {
                  "internalType": "Fixed18",
                  "name": "price",
                  "type": "int256"
                }
              ],
              "internalType": "struct IOracleProvider.OracleVersion",
              "name": "latestVersion",
              "type": "tuple"
            },
            {
              "internalType": "UFixed18",
              "name": "maintenance",
              "type": "uint256"
            },
            {
              "internalType": "UFixed18",
              "name": "collateral",
              "type": "uint256"
            },
            {
              "internalType": "UFixed18",
              "name": "shortfall",
              "type": "uint256"
            },
            {
              "components": [
                {
                  "internalType": "uint256",
                  "name": "oracleVersion",
                  "type": "uint256"
                },
                {
                  "components": [
                    {
                      "internalType": "UFixed18",
                      "name": "maker",
                      "type": "uint256"
                    },
                    {
                      "internalType": "UFixed18",
                      "name": "taker",
                      "type": "uint256"
                    }
                  ],
                  "internalType": "struct Position",
                  "name": "openPosition",
                  "type": "tuple"
                },
                {
                  "components": [
                    {
                      "internalType": "UFixed18",
                      "name": "maker",
                      "type": "uint256"
                    },
                    {
                      "internalType": "UFixed18",
                      "name": "taker",
                      "type": "uint256"
                    }
                  ],
                  "internalType": "struct Position",
                  "name": "closePosition",
                  "type": "tuple"
                }
              ],
              "internalType": "struct PrePosition",
              "name": "pre",
              "type": "tuple"
            },
            {
              "components": [
                {
                  "internalType": "UFixed18",
                  "name": "maker",
                  "type": "uint256"
                },
                {
                  "internalType": "UFixed18",
                  "name": "taker",
                  "type": "uint256"
                }
              ],
              "internalType": "struct Position",
              "name": "position",
              "type": "tuple"
            },
            {
              "internalType": "UFixed18",
              "name": "productFee",
              "type": "uint256"
            },
            {
              "internalType": "UFixed18",
              "name": "protocolFee",
              "type": "uint256"
            },
            {
              "components": [
                {
                  "internalType": "UFixed18",
                  "name": "maker",
                  "type": "uint256"
                },
                {
                  "internalType": "UFixed18",
                  "name": "taker",
                  "type": "uint256"
                }
              ],
              "internalType": "struct Position",
              "name": "openInterest",
              "type": "tuple"
            }
          ],
          "internalType": "struct IPerennialLens.ProductSnapshot",
          "name": "",
          "type": "tuple"
        }
      ],
      "stateMutability": "nonpayable",
      "type": "function"
    },
    {
      "inputs": [
        {
          "internalType": "address",
          "name": "account",
          "type": "address"
        },
        {
          "internalType": "contract IProduct[]",
          "name": "productAddresses",
          "type": "address[]"
        }
      ],
      "name": "snapshots",
      "outputs": [
        {
          "components": [
            {
              "internalType": "address",
              "name": "productAddress",
              "type": "address"
            },
            {
              "internalType": "address",
              "name": "userAddress",
              "type": "address"
            },
            {
              "internalType": "UFixed18",
              "name": "collateral",
              "type": "uint256"
            },
            {
              "internalType": "UFixed18",
              "name": "maintenance",
              "type": "uint256"
            },
            {
              "components": [
                {
                  "internalType": "uint256",
                  "name": "oracleVersion",
                  "type": "uint256"
                },
                {
                  "components": [
                    {
                      "internalType": "UFixed18",
                      "name": "maker",
                      "type": "uint256"
                    },
                    {
                      "internalType": "UFixed18",
                      "name": "taker",
                      "type": "uint256"
                    }
                  ],
                  "internalType": "struct Position",
                  "name": "openPosition",
                  "type": "tuple"
                },
                {
                  "components": [
                    {
                      "internalType": "UFixed18",
                      "name": "maker",
                      "type": "uint256"
                    },
                    {
                      "internalType": "UFixed18",
                      "name": "taker",
                      "type": "uint256"
                    }
                  ],
                  "internalType": "struct Position",
                  "name": "closePosition",
                  "type": "tuple"
                }
              ],
              "internalType": "struct PrePosition",
              "name": "pre",
              "type": "tuple"
            },
            {
              "components": [
                {
                  "internalType": "UFixed18",
                  "name": "maker",
                  "type": "uint256"
                },
                {
                  "internalType": "UFixed18",
                  "name": "taker",
                  "type": "uint256"
                }
              ],
              "internalType": "struct Position",
              "name": "position",
              "type": "tuple"
            },
            {
              "internalType": "bool",
              "name": "liquidatable",
              "type": "bool"
            },
            {
              "components": [
                {
                  "internalType": "UFixed18",
                  "name": "maker",
                  "type": "uint256"
                },
                {
                  "internalType": "UFixed18",
                  "name": "taker",
                  "type": "uint256"
                }
              ],
              "internalType": "struct Position",
              "name": "openInterest",
              "type": "tuple"
            },
            {
              "internalType": "UFixed18",
              "name": "fees",
              "type": "uint256"
            },
            {
              "internalType": "UFixed18",
              "name": "exposure",
              "type": "uint256"
            }
          ],
          "internalType": "struct IPerennialLens.UserProductSnapshot[]",
          "name": "",
          "type": "tuple[]"
        }
      ],
      "stateMutability": "nonpayable",
      "type": "function"
    },
    {
      "inputs": [
        {
          "internalType": "contract IProduct[]",
          "name": "productAddresses",
          "type": "address[]"
        }
      ],
      "name": "snapshots",
      "outputs": [
        {
          "components": [
            {
              "components": [
                {
                  "internalType": "string",
                  "name": "name",
                  "type": "string"
                },
                {
                  "internalType": "string",
                  "name": "symbol",
                  "type": "string"
                },
                {
                  "components": [
                    {
                      "internalType": "enum PayoffDefinitionLib.PayoffType",
                      "name": "payoffType",
                      "type": "uint8"
                    },
                    {
                      "internalType": "enum PayoffDefinitionLib.PayoffDirection",
                      "name": "payoffDirection",
                      "type": "uint8"
                    },
                    {
                      "internalType": "bytes30",
                      "name": "data",
                      "type": "bytes30"
                    }
                  ],
                  "internalType": "struct PayoffDefinition",
                  "name": "payoffDefinition",
                  "type": "tuple"
                },
                {
                  "internalType": "contract IOracleProvider",
                  "name": "oracle",
                  "type": "address"
                },
                {
                  "internalType": "UFixed18",
                  "name": "maintenance",
                  "type": "uint256"
                },
                {
                  "internalType": "UFixed18",
                  "name": "fundingFee",
                  "type": "uint256"
                },
                {
                  "internalType": "UFixed18",
                  "name": "makerFee",
                  "type": "uint256"
                },
                {
                  "internalType": "UFixed18",
                  "name": "takerFee",
                  "type": "uint256"
                },
                {
                  "internalType": "UFixed18",
                  "name": "makerLimit",
                  "type": "uint256"
                },
                {
                  "components": [
                    {
                      "internalType": "PackedFixed18",
                      "name": "minRate",
                      "type": "int128"
                    },
                    {
                      "internalType": "PackedFixed18",
                      "name": "maxRate",
                      "type": "int128"
                    },
                    {
                      "internalType": "PackedFixed18",
                      "name": "targetRate",
                      "type": "int128"
                    },
                    {
                      "internalType": "PackedUFixed18",
                      "name": "targetUtilization",
                      "type": "uint128"
                    }
                  ],
                  "internalType": "struct JumpRateUtilizationCurve",
                  "name": "utilizationCurve",
                  "type": "tuple"
                }
              ],
              "internalType": "struct IProduct.ProductInfo",
              "name": "productInfo",
              "type": "tuple"
            },
            {
              "internalType": "address",
              "name": "productAddress",
              "type": "address"
            },
            {
              "internalType": "Fixed18",
              "name": "rate",
              "type": "int256"
            },
            {
              "internalType": "Fixed18",
              "name": "dailyRate",
              "type": "int256"
            },
            {
              "components": [
                {
                  "internalType": "uint256",
                  "name": "version",
                  "type": "uint256"
                },
                {
                  "internalType": "uint256",
                  "name": "timestamp",
                  "type": "uint256"
                },
                {
                  "internalType": "Fixed18",
                  "name": "price",
                  "type": "int256"
                }
              ],
              "internalType": "struct IOracleProvider.OracleVersion",
              "name": "latestVersion",
              "type": "tuple"
            },
            {
              "internalType": "UFixed18",
              "name": "maintenance",
              "type": "uint256"
            },
            {
              "internalType": "UFixed18",
              "name": "collateral",
              "type": "uint256"
            },
            {
              "internalType": "UFixed18",
              "name": "shortfall",
              "type": "uint256"
            },
            {
              "components": [
                {
                  "internalType": "uint256",
                  "name": "oracleVersion",
                  "type": "uint256"
                },
                {
                  "components": [
                    {
                      "internalType": "UFixed18",
                      "name": "maker",
                      "type": "uint256"
                    },
                    {
                      "internalType": "UFixed18",
                      "name": "taker",
                      "type": "uint256"
                    }
                  ],
                  "internalType": "struct Position",
                  "name": "openPosition",
                  "type": "tuple"
                },
                {
                  "components": [
                    {
                      "internalType": "UFixed18",
                      "name": "maker",
                      "type": "uint256"
                    },
                    {
                      "internalType": "UFixed18",
                      "name": "taker",
                      "type": "uint256"
                    }
                  ],
                  "internalType": "struct Position",
                  "name": "closePosition",
                  "type": "tuple"
                }
              ],
              "internalType": "struct PrePosition",
              "name": "pre",
              "type": "tuple"
            },
            {
              "components": [
                {
                  "internalType": "UFixed18",
                  "name": "maker",
                  "type": "uint256"
                },
                {
                  "internalType": "UFixed18",
                  "name": "taker",
                  "type": "uint256"
                }
              ],
              "internalType": "struct Position",
              "name": "position",
              "type": "tuple"
            },
            {
              "internalType": "UFixed18",
              "name": "productFee",
              "type": "uint256"
            },
            {
              "internalType": "UFixed18",
              "name": "protocolFee",
              "type": "uint256"
            },
            {
              "components": [
                {
                  "internalType": "UFixed18",
                  "name": "maker",
                  "type": "uint256"
                },
                {
                  "internalType": "UFixed18",
                  "name": "taker",
                  "type": "uint256"
                }
              ],
              "internalType": "struct Position",
              "name": "openInterest",
              "type": "tuple"
            }
          ],
          "internalType": "struct IPerennialLens.ProductSnapshot[]",
          "name": "",
          "type": "tuple[]"
        }
      ],
      "stateMutability": "nonpayable",
      "type": "function"
    },
    {
      "inputs": [
        {
          "internalType": "contract IProduct",
          "name": "product",
          "type": "address"
        }
      ],
      "name": "symbol",
      "outputs": [
        {
          "internalType": "string",
          "name": "",
          "type": "string"
        }
      ],
      "stateMutability": "view",
      "type": "function"
    },
    {
      "inputs": [
        {
          "internalType": "address",
          "name": "account",
          "type": "address"
        },
        {
          "internalType": "contract IProduct",
          "name": "product",
          "type": "address"
        }
      ],
      "name": "unclaimedIncentiveRewards",
      "outputs": [
        {
          "internalType": "Token18[]",
          "name": "tokens",
          "type": "address[]"
        },
        {
          "internalType": "UFixed18[]",
          "name": "amounts",
          "type": "uint256[]"
        }
      ],
      "stateMutability": "nonpayable",
      "type": "function"
    },
    {
      "inputs": [
        {
          "internalType": "address",
          "name": "account",
          "type": "address"
        },
        {
          "internalType": "contract IProduct",
          "name": "product",
          "type": "address"
        },
        {
          "internalType": "uint256[]",
          "name": "programIds",
          "type": "uint256[]"
        }
      ],
      "name": "unclaimedIncentiveRewards",
      "outputs": [
        {
          "internalType": "Token18[]",
          "name": "tokens",
          "type": "address[]"
        },
        {
          "internalType": "UFixed18[]",
          "name": "amounts",
          "type": "uint256[]"
        }
      ],
      "stateMutability": "nonpayable",
      "type": "function"
    },
    {
      "inputs": [
        {
          "internalType": "address",
          "name": "account",
          "type": "address"
        },
        {
          "internalType": "contract IProduct",
          "name": "product",
          "type": "address"
        }
      ],
      "name": "userPosition",
      "outputs": [
        {
          "components": [
            {
              "internalType": "uint256",
              "name": "oracleVersion",
              "type": "uint256"
            },
            {
              "components": [
                {
                  "internalType": "UFixed18",
                  "name": "maker",
                  "type": "uint256"
                },
                {
                  "internalType": "UFixed18",
                  "name": "taker",
                  "type": "uint256"
                }
              ],
              "internalType": "struct Position",
              "name": "openPosition",
              "type": "tuple"
            },
            {
              "components": [
                {
                  "internalType": "UFixed18",
                  "name": "maker",
                  "type": "uint256"
                },
                {
                  "internalType": "UFixed18",
                  "name": "taker",
                  "type": "uint256"
                }
              ],
              "internalType": "struct Position",
              "name": "closePosition",
              "type": "tuple"
            }
          ],
          "internalType": "struct PrePosition",
          "name": "",
          "type": "tuple"
        },
        {
          "components": [
            {
              "internalType": "UFixed18",
              "name": "maker",
              "type": "uint256"
            },
            {
              "internalType": "UFixed18",
              "name": "taker",
              "type": "uint256"
            }
          ],
          "internalType": "struct Position",
          "name": "",
          "type": "tuple"
        }
      ],
      "stateMutability": "nonpayable",
      "type": "function"
    }
  ],
  "transactionHash": "0x7686b4197e3701f8e94e7cdb7a29a5ab4cf2b4ffb261c7768f3a65a27101bf85",
  "args": [
    "0x1927DE7c9765Ae74050D1d0aa8BB0e93D737F579"
  ],
  "numDeployments": 1,
  "solcInputHash": "dd0d601ac153d6a2cb60f335fa990f18",
  "bytecode": "0x60a06040523480156200001157600080fd5b5060405162005c2138038062005c218339818101604052810190620000379190620000f0565b8073ffffffffffffffffffffffffffffffffffffffff1660808173ffffffffffffffffffffffffffffffffffffffff16815250505062000122565b600080fd5b600073ffffffffffffffffffffffffffffffffffffffff82169050919050565b6000620000a48262000077565b9050919050565b6000620000b88262000097565b9050919050565b620000ca81620000ab565b8114620000d657600080fd5b50565b600081519050620000ea81620000bf565b92915050565b60006020828403121562000109576200010862000072565b5b60006200011984828501620000d9565b91505092915050565b608051615ac062000161600039600081816119e50152818161283d01528181612a6901528181612aff01528181612e620152612ef50152615ac06000f3fe608060405234801561001057600080fd5b50600436106101f05760003560e01c80638f5edc081161010f578063b7a98f97116100a2578063edd8ca7b11610071578063edd8ca7b14610726578063f77c479114610756578063f8083f5614610774578063faaebd21146107a5576101f0565b8063b7a98f9714610678578063cc218ece146106a8578063d8dfeb45146106d8578063e9c6b4c1146106f6576101f0565b8063a5fdc5de116100de578063a5fdc5de146105b8578063a86e3576146105e8578063b4d6f78114610618578063b7648fb914610648576101f0565b80638f5edc08146104f85780639b9ac2cb146105285780639bc02857146105585780639be2a56714610588576101f0565b806337e710ac116101875780637e64cc13116101565780637e64cc131461043757806382df39de146104685780638e076924146104985780638e480b20146104c8576101f0565b806337e710ac14610376578063540027e6146103a65780636878353e146103d65780636efef08514610407576101f0565b80631e0c6fb9116101c35780631e0c6fb9146102b6578063204e94b0146102e6578063237e5899146103165780632651216014610346576101f0565b806301984892146101f5578063036790c0146102255780630aae7a6b146102565780630ba9d8ca14610286575b600080fd5b61020f600480360381019061020a919061377d565b6107d6565b60405161021c9190613843565b60405180910390f35b61023f600480360381019061023a919061377d565b610853565b60405161024d929190613959565b60405180910390f35b610270600480360381019061026b919061377d565b610946565b60405161027d9190613d20565b60405180910390f35b6102a0600480360381019061029b919061377d565b610d63565b6040516102ad9190613d7d565b60405180910390f35b6102d060048036038101906102cb919061377d565b610e56565b6040516102dd9190613d98565b60405180910390f35b61030060048036038101906102fb9190613ddf565b610f36565b60405161030d9190613f5a565b60405180910390f35b610330600480360381019061032b9190613ddf565b6110cc565b60405161033d9190613f85565b60405180910390f35b610360600480360381019061035b919061377d565b6111e9565b60405161036d91906141ef565b60405180910390f35b610390600480360381019061038b9190613ddf565b6113dc565b60405161039d9190613f85565b60405180910390f35b6103c060048036038101906103bb919061377d565b611551565b6040516103cd9190613d7d565b60405180910390f35b6103f060048036038101906103eb9190613ddf565b611661565b6040516103fe929190613959565b60405180910390f35b610421600480360381019061041c9190614385565b6117de565b60405161042e9190614490565b60405180910390f35b610451600480360381019061044c9190613ddf565b611971565b60405161045f929190614631565b60405180910390f35b610482600480360381019061047d9190613ddf565b611d22565b60405161048f9190614677565b60405180910390f35b6104b260048036038101906104ad91906146be565b611e1e565b6040516104bf9190613f85565b60405180910390f35b6104e260048036038101906104dd919061377d565b611f45565b6040516104ef9190614753565b60405180910390f35b610512600480360381019061050d9190614831565b611fbf565b60405161051f9190614a0c565b60405180910390f35b610542600480360381019061053d9190613ddf565b612086565b60405161054f9190613f85565b60405180910390f35b610572600480360381019061056d9190614a89565b612180565b60405161057f9190614cb3565b60405180910390f35b6105a2600480360381019061059d9190613ddf565b612257565b6040516105af9190613d98565b60405180910390f35b6105d260048036038101906105cd919061377d565b612350565b6040516105df9190613f85565b60405180910390f35b61060260048036038101906105fd919061377d565b61243c565b60405161060f9190613843565b60405180910390f35b610632600480360381019061062d919061377d565b6124b9565b60405161063f9190613f85565b60405180910390f35b610662600480360381019061065d919061377d565b6125a5565b60405161066f9190614cd5565b60405180910390f35b610692600480360381019061068d9190613ddf565b61261f565b60405161069f9190614cd5565b60405180910390f35b6106c260048036038101906106bd9190613ddf565b61273d565b6040516106cf9190613f85565b60405180910390f35b6106e0612839565b6040516106ed9190614d11565b60405180910390f35b610710600480360381019061070b9190613ddf565b6128cf565b60405161071d9190614cd5565b60405180910390f35b610740600480360381019061073b919061377d565b6129c7565b60405161074d9190614cd5565b60405180910390f35b61075e612a67565b60405161076b9190614d4d565b60405180910390f35b61078e60048036038101906107899190614dbe565b612a8b565b60405161079c929190614631565b60405180910390f35b6107bf60048036038101906107ba919061377d565b612dfa565b6040516107cd929190614e32565b60405180910390f35b60608173ffffffffffffffffffffffffffffffffffffffff166306fdde036040518163ffffffff1660e01b8152600401600060405180830381865afa158015610823573d6000803e3d6000fd5b505050506040513d6000823e3d601f19601f8201168201806040525081019061084c9190614f01565b9050919050565b61085b613460565b61086361348d565b828073ffffffffffffffffffffffffffffffffffffffff166311da60b46040518163ffffffff1660e01b8152600401600060405180830381600087803b1580156108ac57600080fd5b505af11580156108c0573d6000803e3d6000fd5b505050508373ffffffffffffffffffffffffffffffffffffffff166359ea287d6040518163ffffffff1660e01b815260040160a060405180830381865afa15801561090f573d6000803e3d6000fd5b505050506040513d601f19601f82011682018060405250810190610933919061502d565b61093c8561309d565b9250925050915091565b61094e6134a7565b610957826107d6565b81600001819052506109688261243c565b81602001819052508173ffffffffffffffffffffffffffffffffffffffff166305d5c1cb6040518163ffffffff1660e01b8152600401606060405180830381865afa1580156109bb573d6000803e3d6000fd5b505050506040513d601f19601f820116820180604052508101906109df9190615134565b81604001819052508173ffffffffffffffffffffffffffffffffffffffff16637dc0d1d06040518163ffffffff1660e01b8152600401602060405180830381865afa158015610a32573d6000803e3d6000fd5b505050506040513d601f19601f82011682018060405250810190610a56919061519f565b816060019073ffffffffffffffffffffffffffffffffffffffff16908173ffffffffffffffffffffffffffffffffffffffff16815250508173ffffffffffffffffffffffffffffffffffffffff16636c376cc56040518163ffffffff1660e01b8152600401602060405180830381865afa158015610ad8573d6000803e3d6000fd5b505050506040513d601f19601f82011682018060405250810190610afc91906151cc565b8160800181815250508173ffffffffffffffffffffffffffffffffffffffff16635d16e1206040518163ffffffff1660e01b8152600401602060405180830381865afa158015610b50573d6000803e3d6000fd5b505050506040513d601f19601f82011682018060405250810190610b7491906151cc565b8160a00181815250508173ffffffffffffffffffffffffffffffffffffffff1663fc741c7c6040518163ffffffff1660e01b8152600401602060405180830381865afa158015610bc8573d6000803e3d6000fd5b505050506040513d601f19601f82011682018060405250810190610bec91906151cc565b8160c00181815250508173ffffffffffffffffffffffffffffffffffffffff166343f0179b6040518163ffffffff1660e01b8152600401602060405180830381865afa158015610c40573d6000803e3d6000fd5b505050506040513d601f19601f82011682018060405250810190610c6491906151cc565b8160e00181815250508173ffffffffffffffffffffffffffffffffffffffff1663193775676040518163ffffffff1660e01b8152600401602060405180830381865afa158015610cb8573d6000803e3d6000fd5b505050506040513d601f19601f82011682018060405250810190610cdc91906151cc565b816101000181815250508173ffffffffffffffffffffffffffffffffffffffff1663a12e1b336040518163ffffffff1660e01b8152600401608060405180830381865afa158015610d31573d6000803e3d6000fd5b505050506040513d601f19601f82011682018060405250810190610d5591906152c9565b816101200181905250919050565b6000818073ffffffffffffffffffffffffffffffffffffffff166311da60b46040518163ffffffff1660e01b8152600401600060405180830381600087803b158015610dae57600080fd5b505af1158015610dc2573d6000803e3d6000fd5b505050506000610dd18461309d565b90508373ffffffffffffffffffffffffffffffffffffffff166360ec91d6826040518263ffffffff1660e01b8152600401610e0c9190614cd5565b602060405180830381865afa158015610e29573d6000803e3d6000fd5b505050506040513d601f19601f82011682018060405250810190610e4d9190615322565b92505050919050565b610e5e613460565b818073ffffffffffffffffffffffffffffffffffffffff166311da60b46040518163ffffffff1660e01b8152600401600060405180830381600087803b158015610ea757600080fd5b505af1158015610ebb573d6000803e3d6000fd5b505050508273ffffffffffffffffffffffffffffffffffffffff166359ea287d6040518163ffffffff1660e01b815260040160a060405180830381865afa158015610f0a573d6000803e3d6000fd5b505050506040513d601f19601f82011682018060405250810190610f2e919061502d565b915050919050565b610f3e61351c565b82828073ffffffffffffffffffffffffffffffffffffffff1663f667f897836040518263ffffffff1660e01b8152600401610f79919061535e565b600060405180830381600087803b158015610f9357600080fd5b505af1158015610fa7573d6000803e3d6000fd5b50505050610fb361351c565b84816000019073ffffffffffffffffffffffffffffffffffffffff16908173ffffffffffffffffffffffffffffffffffffffff168152505085816020019073ffffffffffffffffffffffffffffffffffffffff16908173ffffffffffffffffffffffffffffffffffffffff168152505061102d868661273d565b81604001818152505061104086866113dc565b8160600181815250506110538686612257565b816080018190525061106586866128cf565b8160a001819052506110778686611d22565b8160c0019015159081151581525050611090868661261f565b8160e001819052506110a28686612086565b816101000181815250506110b686866110cc565b8161012001818152505080935050505092915050565b600082828073ffffffffffffffffffffffffffffffffffffffff1663f667f897836040518263ffffffff1660e01b8152600401611109919061535e565b600060405180830381600087803b15801561112357600080fd5b505af1158015611137573d6000803e3d6000fd5b50505050600061114685610853565b9150506111616000826000015161319390919063ffffffff16565b156111705760009350506111e1565b600061118d826000015183602001516131aa90919063ffffffff16565b9050600061119b888861261f565b90506111db6111b8600083600001516131d390919063ffffffff16565b6111c65781602001516111cc565b81600001515b836131f890919063ffffffff16565b95505050505b505092915050565b6111f16135af565b818073ffffffffffffffffffffffffffffffffffffffff166311da60b46040518163ffffffff1660e01b8152600401600060405180830381600087803b15801561123a57600080fd5b505af115801561124e573d6000803e3d6000fd5b5050505061125a6135af565b61126384610946565b816000018190525083816020019073ffffffffffffffffffffffffffffffffffffffff16908173ffffffffffffffffffffffffffffffffffffffff16815250506112ac84610d63565b8160400181815250506112be84611551565b8160600181815250506112d084611f45565b81608001819052508373ffffffffffffffffffffffffffffffffffffffff16636c376cc56040518163ffffffff1660e01b8152600401602060405180830381865afa158015611323573d6000803e3d6000fd5b505050506040513d601f19601f8201168201806040525081019061134791906151cc565b8160a001818152505061135984612350565b8160c001818152505061136b846124b9565b8160e001818152505061137d84610e56565b81610100018190525061138f846125a5565b8161012001819052506000806113a486612dfa565b91509150818361014001818152505080836101600181815250506113c7866129c7565b83610180018190525082945050505050919050565b600082828073ffffffffffffffffffffffffffffffffffffffff1663f667f897836040518263ffffffff1660e01b8152600401611419919061535e565b600060405180830381600087803b15801561143357600080fd5b505af1158015611447573d6000803e3d6000fd5b505050506115478473ffffffffffffffffffffffffffffffffffffffff166391689024876040518263ffffffff1660e01b8152600401611487919061535e565b602060405180830381865afa1580156114a4573d6000803e3d6000fd5b505050506040513d601f19601f820116820180604052508101906114c891906151cc565b8573ffffffffffffffffffffffffffffffffffffffff1663ab582f29886040518263ffffffff1660e01b8152600401611501919061535e565b602060405180830381865afa15801561151e573d6000803e3d6000fd5b505050506040513d601f19601f8201168201806040525081019061154291906151cc565b613221565b9250505092915050565b6000818073ffffffffffffffffffffffffffffffffffffffff166311da60b46040518163ffffffff1660e01b8152600401600060405180830381600087803b15801561159c57600080fd5b505af11580156115b0573d6000803e3d6000fd5b5050505060006115bf8461309d565b90506116586115d062015180613235565b8573ffffffffffffffffffffffffffffffffffffffff166360ec91d6846040518263ffffffff1660e01b81526004016116099190614cd5565b602060405180830381865afa158015611626573d6000803e3d6000fd5b505050506040513d601f19601f8201168201806040525081019061164a9190615322565b61325290919063ffffffff16565b92505050919050565b611669613460565b61167161348d565b83838073ffffffffffffffffffffffffffffffffffffffff1663f667f897836040518263ffffffff1660e01b81526004016116ac919061535e565b600060405180830381600087803b1580156116c657600080fd5b505af11580156116da573d6000803e3d6000fd5b505050508473ffffffffffffffffffffffffffffffffffffffff16631e0c6fb9876040518263ffffffff1660e01b8152600401611717919061535e565b60a060405180830381865afa158015611734573d6000803e3d6000fd5b505050506040513d601f19601f82011682018060405250810190611758919061502d565b8573ffffffffffffffffffffffffffffffffffffffff1663b7648fb9886040518263ffffffff1660e01b8152600401611791919061535e565b6040805180830381865afa1580156117ad573d6000803e3d6000fd5b505050506040513d601f19601f820116820180604052508101906117d19190615379565b9350935050509250929050565b6060828073ffffffffffffffffffffffffffffffffffffffff166311da60b46040518163ffffffff1660e01b8152600401600060405180830381600087803b15801561182957600080fd5b505af115801561183d573d6000803e3d6000fd5b50505050825167ffffffffffffffff81111561185c5761185b614216565b5b60405190808252806020026020018201604052801561189557816020015b61188261364b565b81526020019060019003908161187a5790505b50915060005b8351811015611969578473ffffffffffffffffffffffffffffffffffffffff16637ece075d8583815181106118d3576118d26153a6565b5b60200260200101516040518263ffffffff1660e01b81526004016118f791906153e4565b606060405180830381865afa158015611914573d6000803e3d6000fd5b505050506040513d601f19601f820116820180604052508101906119389190615463565b83828151811061194b5761194a6153a6565b5b60200260200101819052508080611961906154bf565b91505061189b565b505092915050565b60608083838073ffffffffffffffffffffffffffffffffffffffff1663f667f897836040518263ffffffff1660e01b81526004016119af919061535e565b600060405180830381600087803b1580156119c957600080fd5b505af11580156119dd573d6000803e3d6000fd5b5050505060007f000000000000000000000000000000000000000000000000000000000000000073ffffffffffffffffffffffffffffffffffffffff16636fc6407c6040518163ffffffff1660e01b8152600401602060405180830381865afa158015611a4e573d6000803e3d6000fd5b505050506040513d601f19601f82011682018060405250810190611a729190615545565b905060008173ffffffffffffffffffffffffffffffffffffffff166305d85eda886040518263ffffffff1660e01b8152600401611aaf9190615593565b602060405180830381865afa158015611acc573d6000803e3d6000fd5b505050506040513d601f19601f82011682018060405250810190611af091906155ae565b90508067ffffffffffffffff811115611b0c57611b0b614216565b5b604051908082528060200260200182016040528015611b3a5781602001602082028036833780820191505090505b5095508067ffffffffffffffff811115611b5757611b56614216565b5b604051908082528060200260200182016040528015611b855781602001602082028036833780820191505090505b50945060005b81811015611d165760008373ffffffffffffffffffffffffffffffffffffffff16632c3e50e58a846040518363ffffffff1660e01b8152600401611bd09291906155db565b60c060405180830381865afa158015611bed573d6000803e3d6000fd5b505050506040513d601f19601f82011682018060405250810190611c1191906156bc565b90508060800151888381518110611c2b57611c2a6153a6565b5b602002602001019073ffffffffffffffffffffffffffffffffffffffff16908173ffffffffffffffffffffffffffffffffffffffff16815250508373ffffffffffffffffffffffffffffffffffffffff166366f8162e8a8c856040518463ffffffff1660e01b8152600401611ca2939291906156e9565b602060405180830381865afa158015611cbf573d6000803e3d6000fd5b505050506040513d601f19601f82011682018060405250810190611ce391906151cc565b878381518110611cf657611cf56153a6565b5b602002602001018181525050508080611d0e906154bf565b915050611b8b565b50505050509250929050565b600082828073ffffffffffffffffffffffffffffffffffffffff1663f667f897836040518263ffffffff1660e01b8152600401611d5f919061535e565b600060405180830381600087803b158015611d7957600080fd5b505af1158015611d8d573d6000803e3d6000fd5b50505050611d99612839565b73ffffffffffffffffffffffffffffffffffffffff166382df39de86866040518363ffffffff1660e01b8152600401611dd3929190615720565b602060405180830381865afa158015611df0573d6000803e3d6000fd5b505050506040513d601f19601f82011682018060405250810190611e149190615775565b9250505092915050565b600083838073ffffffffffffffffffffffffffffffffffffffff1663f667f897836040518263ffffffff1660e01b8152600401611e5b919061535e565b600060405180830381600087803b158015611e7557600080fd5b505af1158015611e89573d6000803e3d6000fd5b505050506000611eb6611ea7611e9e8861327b565b60400151613372565b866131f890919063ffffffff16565b9050611f398673ffffffffffffffffffffffffffffffffffffffff16636c376cc56040518163ffffffff1660e01b8152600401602060405180830381865afa158015611f06573d6000803e3d6000fd5b505050506040513d601f19601f82011682018060405250810190611f2a91906151cc565b826131f890919063ffffffff16565b93505050509392505050565b611f4d61364b565b818073ffffffffffffffffffffffffffffffffffffffff166311da60b46040518163ffffffff1660e01b8152600401600060405180830381600087803b158015611f9657600080fd5b505af1158015611faa573d6000803e3d6000fd5b50505050611fb78361327b565b915050919050565b60606000825167ffffffffffffffff811115611fde57611fdd614216565b5b60405190808252806020026020018201604052801561201757816020015b61200461351c565b815260200190600190039081611ffc5790505b50905060005b835181101561207b5761204a8585838151811061203d5761203c6153a6565b5b6020026020010151610f36565b82828151811061205d5761205c6153a6565b5b60200260200101819052508080612073906154bf565b91505061201d565b508091505092915050565b600082828073ffffffffffffffffffffffffffffffffffffffff1663f667f897836040518263ffffffff1660e01b81526004016120c3919061535e565b600060405180830381600087803b1580156120dd57600080fd5b505af11580156120f1573d6000803e3d6000fd5b505050506120fd612839565b73ffffffffffffffffffffffffffffffffffffffff1663faaebd21866040518263ffffffff1660e01b8152600401612135919061535e565b602060405180830381865afa158015612152573d6000803e3d6000fd5b505050506040513d601f19601f8201168201806040525081019061217691906151cc565b9250505092915050565b606060008383905067ffffffffffffffff8111156121a1576121a0614216565b5b6040519080825280602002602001820160405280156121da57816020015b6121c76135af565b8152602001906001900390816121bf5790505b50905060005b8484905081101561224c5761221b858583818110612201576122006153a6565b5b9050602002016020810190612216919061377d565b6111e9565b82828151811061222e5761222d6153a6565b5b60200260200101819052508080612244906154bf565b9150506121e0565b508091505092915050565b61225f613460565b82828073ffffffffffffffffffffffffffffffffffffffff1663f667f897836040518263ffffffff1660e01b815260040161229a919061535e565b600060405180830381600087803b1580156122b457600080fd5b505af11580156122c8573d6000803e3d6000fd5b505050508373ffffffffffffffffffffffffffffffffffffffff16631e0c6fb9866040518263ffffffff1660e01b8152600401612305919061535e565b60a060405180830381865afa158015612322573d6000803e3d6000fd5b505050506040513d601f19601f82011682018060405250810190612346919061502d565b9250505092915050565b6000818073ffffffffffffffffffffffffffffffffffffffff166311da60b46040518163ffffffff1660e01b8152600401600060405180830381600087803b15801561239b57600080fd5b505af11580156123af573d6000803e3d6000fd5b505050506123bb612839565b73ffffffffffffffffffffffffffffffffffffffff1663a5fdc5de846040518263ffffffff1660e01b81526004016123f39190615593565b602060405180830381865afa158015612410573d6000803e3d6000fd5b505050506040513d601f19601f8201168201806040525081019061243491906151cc565b915050919050565b60608173ffffffffffffffffffffffffffffffffffffffff166395d89b416040518163ffffffff1660e01b8152600401600060405180830381865afa158015612489573d6000803e3d6000fd5b505050506040513d6000823e3d601f19601f820116820180604052508101906124b29190614f01565b9050919050565b6000818073ffffffffffffffffffffffffffffffffffffffff166311da60b46040518163ffffffff1660e01b8152600401600060405180830381600087803b15801561250457600080fd5b505af1158015612518573d6000803e3d6000fd5b50505050612524612839565b73ffffffffffffffffffffffffffffffffffffffff1663b4d6f781846040518263ffffffff1660e01b815260040161255c9190615593565b602060405180830381865afa158015612579573d6000803e3d6000fd5b505050506040513d601f19601f8201168201806040525081019061259d91906151cc565b915050919050565b6125ad61348d565b818073ffffffffffffffffffffffffffffffffffffffff166311da60b46040518163ffffffff1660e01b8152600401600060405180830381600087803b1580156125f657600080fd5b505af115801561260a573d6000803e3d6000fd5b505050506126178361309d565b915050919050565b61262761348d565b82828073ffffffffffffffffffffffffffffffffffffffff1663f667f897836040518263ffffffff1660e01b8152600401612662919061535e565b600060405180830381600087803b15801561267c57600080fd5b505af1158015612690573d6000803e3d6000fd5b505050506127336126ac6126a38661327b565b60400151613372565b8573ffffffffffffffffffffffffffffffffffffffff1663b7648fb9886040518263ffffffff1660e01b81526004016126e5919061535e565b6040805180830381865afa158015612701573d6000803e3d6000fd5b505050506040513d601f19601f820116820180604052508101906127259190615379565b61338490919063ffffffff16565b9250505092915050565b600082828073ffffffffffffffffffffffffffffffffffffffff1663f667f897836040518263ffffffff1660e01b815260040161277a919061535e565b600060405180830381600087803b15801561279457600080fd5b505af11580156127a8573d6000803e3d6000fd5b505050506127b4612839565b73ffffffffffffffffffffffffffffffffffffffff1663cc218ece86866040518363ffffffff1660e01b81526004016127ee929190615720565b602060405180830381865afa15801561280b573d6000803e3d6000fd5b505050506040513d601f19601f8201168201806040525081019061282f91906151cc565b9250505092915050565b60007f000000000000000000000000000000000000000000000000000000000000000073ffffffffffffffffffffffffffffffffffffffff1663d8dfeb456040518163ffffffff1660e01b8152600401602060405180830381865afa1580156128a6573d6000803e3d6000fd5b505050506040513d601f19601f820116820180604052508101906128ca91906157e0565b905090565b6128d761348d565b82828073ffffffffffffffffffffffffffffffffffffffff1663f667f897836040518263ffffffff1660e01b8152600401612912919061535e565b600060405180830381600087803b15801561292c57600080fd5b505af1158015612940573d6000803e3d6000fd5b505050508373ffffffffffffffffffffffffffffffffffffffff1663b7648fb9866040518263ffffffff1660e01b815260040161297d919061535e565b6040805180830381865afa158015612999573d6000803e3d6000fd5b505050506040513d601f19601f820116820180604052508101906129bd9190615379565b9250505092915050565b6129cf61348d565b818073ffffffffffffffffffffffffffffffffffffffff166311da60b46040518163ffffffff1660e01b8152600401600060405180830381600087803b158015612a1857600080fd5b505af1158015612a2c573d6000803e3d6000fd5b50505050612a5f612a48612a3f8561327b565b60400151613372565b612a518561309d565b61338490919063ffffffff16565b915050919050565b7f000000000000000000000000000000000000000000000000000000000000000081565b60608085858073ffffffffffffffffffffffffffffffffffffffff1663f667f897836040518263ffffffff1660e01b8152600401612ac9919061535e565b600060405180830381600087803b158015612ae357600080fd5b505af1158015612af7573d6000803e3d6000fd5b5050505060007f000000000000000000000000000000000000000000000000000000000000000073ffffffffffffffffffffffffffffffffffffffff16636fc6407c6040518163ffffffff1660e01b8152600401602060405180830381865afa158015612b68573d6000803e3d6000fd5b505050506040513d601f19601f82011682018060405250810190612b8c9190615545565b90508686905067ffffffffffffffff811115612bab57612baa614216565b5b604051908082528060200260200182016040528015612bd95781602001602082028036833780820191505090505b5094508686905067ffffffffffffffff811115612bf957612bf8614216565b5b604051908082528060200260200182016040528015612c275781602001602082028036833780820191505090505b50935060005b87879050811015612ded5760008273ffffffffffffffffffffffffffffffffffffffff16632c3e50e58b8b8b86818110612c6a57612c696153a6565b5b905060200201356040518363ffffffff1660e01b8152600401612c8e9291906155db565b60c060405180830381865afa158015612cab573d6000803e3d6000fd5b505050506040513d601f19601f82011682018060405250810190612ccf91906156bc565b90508060800151878381518110612ce957612ce86153a6565b5b602002602001019073ffffffffffffffffffffffffffffffffffffffff16908173ffffffffffffffffffffffffffffffffffffffff16815250508273ffffffffffffffffffffffffffffffffffffffff166366f8162e8b8d8c8c87818110612d5457612d536153a6565b5b905060200201356040518463ffffffff1660e01b8152600401612d79939291906156e9565b602060405180830381865afa158015612d96573d6000803e3d6000fd5b505050506040513d601f19601f82011682018060405250810190612dba91906151cc565b868381518110612dcd57612dcc6153a6565b5b602002602001018181525050508080612de5906154bf565b915050612c2d565b5050505094509492505050565b600080828073ffffffffffffffffffffffffffffffffffffffff166311da60b46040518163ffffffff1660e01b8152600401600060405180830381600087803b158015612e4657600080fd5b505af1158015612e5a573d6000803e3d6000fd5b5050505060007f000000000000000000000000000000000000000000000000000000000000000073ffffffffffffffffffffffffffffffffffffffff166361d027b36040518163ffffffff1660e01b8152600401602060405180830381865afa158015612ecb573d6000803e3d6000fd5b505050506040513d601f19601f82011682018060405250810190612eef9190615822565b905060007f000000000000000000000000000000000000000000000000000000000000000073ffffffffffffffffffffffffffffffffffffffff16632d809cb6876040518263ffffffff1660e01b8152600401612f4c9190615593565b602060405180830381865afa158015612f69573d6000803e3d6000fd5b505050506040513d601f19601f82011682018060405250810190612f8d9190615822565b9050612f97612839565b73ffffffffffffffffffffffffffffffffffffffff1663faaebd21836040518263ffffffff1660e01b8152600401612fcf919061535e565b602060405180830381865afa158015612fec573d6000803e3d6000fd5b505050506040513d601f19601f8201168201806040525081019061301091906151cc565b945061301a612839565b73ffffffffffffffffffffffffffffffffffffffff1663faaebd21826040518263ffffffff1660e01b8152600401613052919061535e565b602060405180830381865afa15801561306f573d6000803e3d6000fd5b505050506040513d601f19601f8201168201806040525081019061309391906151cc565b9350505050915091565b6130a561348d565b8173ffffffffffffffffffffffffffffffffffffffff16639a427d038373ffffffffffffffffffffffffffffffffffffffff1663c07f47d46040518163ffffffff1660e01b8152600401602060405180830381865afa15801561310c573d6000803e3d6000fd5b505050506040513d601f19601f8201168201806040525081019061313091906155ae565b6040518263ffffffff1660e01b815260040161314c91906153e4565b6040805180830381865afa158015613168573d6000803e3d6000fd5b505050506040513d601f19601f8201168201806040525081019061318c9190615379565b9050919050565b600060016131a184846133d5565b14905092915050565b600081670de0b6b3a7640000846131c1919061584f565b6131cb91906158d8565b905092915050565b60006131df8383613413565b806131f057506131ef8383613193565b5b905092915050565b6000670de0b6b3a7640000828461320f919061584f565b61321991906158d8565b905092915050565b600061322d838361342a565b905092915050565b6000670de0b6b3a76400008261324b9190615909565b9050919050565b6000670de0b6b3a764000082846132699190615909565b6132739190615a20565b905092915050565b61328361364b565b8173ffffffffffffffffffffffffffffffffffffffff16637ece075d8373ffffffffffffffffffffffffffffffffffffffff1663c07f47d46040518163ffffffff1660e01b8152600401602060405180830381865afa1580156132ea573d6000803e3d6000fd5b505050506040513d601f19601f8201168201806040525081019061330e91906155ae565b6040518263ffffffff1660e01b815260040161332a91906153e4565b606060405180830381865afa158015613347573d6000803e3d6000fd5b505050506040513d601f19601f8201168201806040525081019061336b9190615463565b9050919050565b600061337d82613444565b9050919050565b61338c61348d565b60405180604001604052806133ae8486600001516131f890919063ffffffff16565b81526020016133ca8486602001516131f890919063ffffffff16565b815250905092915050565b6000806000848491509150808211156133f35760029250505061340d565b808210156134065760009250505061340d565b6001925050505b92915050565b6000600261342184846133d5565b14905092915050565b60008183101561343a578161343c565b825b905092915050565b6000808212156134575781600003613459565b815b9050919050565b60405180606001604052806000815260200161347a61348d565b815260200161348761348d565b81525090565b604051806040016040528060008152602001600081525090565b60405180610140016040528060608152602001606081526020016134c961366c565b8152602001600073ffffffffffffffffffffffffffffffffffffffff16815260200160008152602001600081526020016000815260200160008152602001600081526020016135166136b6565b81525090565b604051806101400160405280600073ffffffffffffffffffffffffffffffffffffffff168152602001600073ffffffffffffffffffffffffffffffffffffffff1681526020016000815260200160008152602001613578613460565b815260200161358561348d565b815260200160001515815260200161359b61348d565b815260200160008152602001600081525090565b604051806101a001604052806135c36134a7565b8152602001600073ffffffffffffffffffffffffffffffffffffffff16815260200160008152602001600081526020016135fb61364b565b815260200160008152602001600081526020016000815260200161361d613460565b815260200161362a61348d565b8152602001600081526020016000815260200161364561348d565b81525090565b60405180606001604052806000815260200160008152602001600081525090565b60405180606001604052806000600181111561368b5761368a6139cc565b5b8152602001600060018111156136a4576136a36139cc565b5b8152602001600061ffff191681525090565b60405180608001604052806000600f0b81526020016000600f0b81526020016000600f0b815260200160006fffffffffffffffffffffffffffffffff1681525090565b6000604051905090565b600080fd5b600080fd5b600073ffffffffffffffffffffffffffffffffffffffff82169050919050565b60006137388261370d565b9050919050565b600061374a8261372d565b9050919050565b61375a8161373f565b811461376557600080fd5b50565b60008135905061377781613751565b92915050565b60006020828403121561379357613792613703565b5b60006137a184828501613768565b91505092915050565b600081519050919050565b600082825260208201905092915050565b60005b838110156137e45780820151818401526020810190506137c9565b838111156137f3576000848401525b50505050565b6000601f19601f8301169050919050565b6000613815826137aa565b61381f81856137b5565b935061382f8185602086016137c6565b613838816137f9565b840191505092915050565b6000602082019050818103600083015261385d818461380a565b905092915050565b6000819050919050565b61387881613865565b82525050565b6000819050919050565b60006138a361389e61389984613865565b61387e565b613865565b9050919050565b6138b381613888565b82525050565b6040820160008201516138cf60008501826138aa565b5060208201516138e260208501826138aa565b50505050565b60a0820160008201516138fe600085018261386f565b50602082015161391160208501826138b9565b50604082015161392460608501826138b9565b50505050565b60408201600082015161394060008501826138aa565b50602082015161395360208501826138aa565b50505050565b600060e08201905061396e60008301856138e8565b61397b60a083018461392a565b9392505050565b600082825260208201905092915050565b600061399e826137aa565b6139a88185613982565b93506139b88185602086016137c6565b6139c1816137f9565b840191505092915050565b7f4e487b7100000000000000000000000000000000000000000000000000000000600052602160045260246000fd5b60028110613a0c57613a0b6139cc565b5b50565b6000819050613a1d826139fb565b919050565b6000613a2d82613a0f565b9050919050565b613a3d81613a22565b82525050565b60028110613a5457613a536139cc565b5b50565b6000819050613a6582613a43565b919050565b6000613a7582613a57565b9050919050565b613a8581613a6a565b82525050565b60007fffffffffffffffffffffffffffffffffffffffffffffffffffffffffffff000082169050919050565b613ac081613a8b565b82525050565b606082016000820151613adc6000850182613a34565b506020820151613aef6020850182613a7c565b506040820151613b026040850182613ab7565b50505050565b6000613b23613b1e613b198461370d565b61387e565b61370d565b9050919050565b6000613b3582613b08565b9050919050565b6000613b4782613b2a565b9050919050565b613b5781613b3c565b82525050565b600081600f0b9050919050565b6000613b85613b80613b7b84613b5d565b61387e565b613b5d565b9050919050565b613b9581613b6a565b82525050565b60006fffffffffffffffffffffffffffffffff82169050919050565b6000613bd2613bcd613bc884613b9b565b61387e565b613b9b565b9050919050565b613be281613bb7565b82525050565b608082016000820151613bfe6000850182613b8c565b506020820151613c116020850182613b8c565b506040820151613c246040850182613b8c565b506060820151613c376060850182613bd9565b50505050565b60006101e0830160008301518482036000860152613c5b8282613993565b91505060208301518482036020860152613c758282613993565b9150506040830151613c8a6040860182613ac6565b506060830151613c9d60a0860182613b4e565b506080830151613cb060c08601826138aa565b5060a0830151613cc360e08601826138aa565b5060c0830151613cd76101008601826138aa565b5060e0830151613ceb6101208601826138aa565b50610100830151613d006101408601826138aa565b50610120830151613d15610160860182613be8565b508091505092915050565b60006020820190508181036000830152613d3a8184613c3d565b905092915050565b6000819050919050565b6000613d67613d62613d5d84613d42565b61387e565b613d42565b9050919050565b613d7781613d4c565b82525050565b6000602082019050613d926000830184613d6e565b92915050565b600060a082019050613dad60008301846138e8565b92915050565b613dbc8161372d565b8114613dc757600080fd5b50565b600081359050613dd981613db3565b92915050565b60008060408385031215613df657613df5613703565b5b6000613e0485828601613dca565b9250506020613e1585828601613768565b9150509250929050565b613e288161372d565b82525050565b60a082016000820151613e44600085018261386f565b506020820151613e5760208501826138b9565b506040820151613e6a60608501826138b9565b50505050565b60008115159050919050565b613e8581613e70565b82525050565b61020082016000820151613ea26000850182613e1f565b506020820151613eb56020850182613e1f565b506040820151613ec860408501826138aa565b506060820151613edb60608501826138aa565b506080820151613eee6080850182613e2e565b5060a0820151613f026101208501826138b9565b5060c0820151613f16610160850182613e7c565b5060e0820151613f2a6101808501826138b9565b50610100820151613f3f6101c08501826138aa565b50610120820151613f546101e08501826138aa565b50505050565b600061020082019050613f706000830184613e8b565b92915050565b613f7f81613888565b82525050565b6000602082019050613f9a6000830184613f76565b92915050565b60006101e0830160008301518482036000860152613fbe8282613993565b91505060208301518482036020860152613fd88282613993565b9150506040830151613fed6040860182613ac6565b50606083015161400060a0860182613b4e565b50608083015161401360c08601826138aa565b5060a083015161402660e08601826138aa565b5060c083015161403a6101008601826138aa565b5060e083015161404e6101208601826138aa565b506101008301516140636101408601826138aa565b50610120830151614078610160860182613be8565b508091505092915050565b61408c81613d4c565b82525050565b6060820160008201516140a8600085018261386f565b5060208201516140bb602085018261386f565b5060408201516140ce6040850182614083565b50505050565b60006102a08301600083015184820360008601526140f28282613fa0565b91505060208301516141076020860182613e1f565b50604083015161411a6040860182614083565b50606083015161412d6060860182614083565b5060808301516141406080860182614092565b5060a083015161415360e08601826138aa565b5060c08301516141676101008601826138aa565b5060e083015161417b6101208601826138aa565b50610100830151614190610140860182613e2e565b506101208301516141a56101e08601826138b9565b506101408301516141ba6102208601826138aa565b506101608301516141cf6102408601826138aa565b506101808301516141e46102608601826138b9565b508091505092915050565b6000602082019050818103600083015261420981846140d4565b905092915050565b600080fd5b7f4e487b7100000000000000000000000000000000000000000000000000000000600052604160045260246000fd5b61424e826137f9565b810181811067ffffffffffffffff8211171561426d5761426c614216565b5b80604052505050565b60006142806136f9565b905061428c8282614245565b919050565b600067ffffffffffffffff8211156142ac576142ab614216565b5b602082029050602081019050919050565b600080fd5b6142cb81613865565b81146142d657600080fd5b50565b6000813590506142e8816142c2565b92915050565b60006143016142fc84614291565b614276565b90508083825260208201905060208402830185811115614324576143236142bd565b5b835b8181101561434d578061433988826142d9565b845260208401935050602081019050614326565b5050509392505050565b600082601f83011261436c5761436b614211565b5b813561437c8482602086016142ee565b91505092915050565b6000806040838503121561439c5761439b613703565b5b60006143aa85828601613768565b925050602083013567ffffffffffffffff8111156143cb576143ca613708565b5b6143d785828601614357565b9150509250929050565b600081519050919050565b600082825260208201905092915050565b6000819050602082019050919050565b60006144198383614092565b60608301905092915050565b6000602082019050919050565b600061443d826143e1565b61444781856143ec565b9350614452836143fd565b8060005b8381101561448357815161446a888261440d565b975061447583614425565b925050600181019050614456565b5085935050505092915050565b600060208201905081810360008301526144aa8184614432565b905092915050565b600081519050919050565b600082825260208201905092915050565b6000819050602082019050919050565b60006144e982613b2a565b9050919050565b6144f9816144de565b82525050565b600061450b83836144f0565b60208301905092915050565b6000602082019050919050565b600061452f826144b2565b61453981856144bd565b9350614544836144ce565b8060005b8381101561457557815161455c88826144ff565b975061456783614517565b925050600181019050614548565b5085935050505092915050565b600081519050919050565b600082825260208201905092915050565b6000819050602082019050919050565b60006145ba83836138aa565b60208301905092915050565b6000602082019050919050565b60006145de82614582565b6145e8818561458d565b93506145f38361459e565b8060005b8381101561462457815161460b88826145ae565b9750614616836145c6565b9250506001810190506145f7565b5085935050505092915050565b6000604082019050818103600083015261464b8185614524565b9050818103602083015261465f81846145d3565b90509392505050565b61467181613e70565b82525050565b600060208201905061468c6000830184614668565b92915050565b61469b81613865565b81146146a657600080fd5b50565b6000813590506146b881614692565b92915050565b6000806000606084860312156146d7576146d6613703565b5b60006146e586828701613dca565b93505060206146f686828701613768565b9250506040614707868287016146a9565b9150509250925092565b606082016000820151614727600085018261386f565b50602082015161473a602085018261386f565b50604082015161474d6040850182614083565b50505050565b60006060820190506147686000830184614711565b92915050565b600067ffffffffffffffff82111561478957614788614216565b5b602082029050602081019050919050565b60006147ad6147a88461476e565b614276565b905080838252602082019050602084028301858111156147d0576147cf6142bd565b5b835b818110156147f957806147e58882613768565b8452602084019350506020810190506147d2565b5050509392505050565b600082601f83011261481857614817614211565b5b813561482884826020860161479a565b91505092915050565b6000806040838503121561484857614847613703565b5b600061485685828601613dca565b925050602083013567ffffffffffffffff81111561487757614876613708565b5b61488385828601614803565b9150509250929050565b600081519050919050565b600082825260208201905092915050565b6000819050602082019050919050565b610200820160008201516148d06000850182613e1f565b5060208201516148e36020850182613e1f565b5060408201516148f660408501826138aa565b50606082015161490960608501826138aa565b50608082015161491c6080850182613e2e565b5060a08201516149306101208501826138b9565b5060c0820151614944610160850182613e7c565b5060e08201516149586101808501826138b9565b5061010082015161496d6101c08501826138aa565b506101208201516149826101e08501826138aa565b50505050565b600061499483836148b9565b6102008301905092915050565b6000602082019050919050565b60006149b98261488d565b6149c38185614898565b93506149ce836148a9565b8060005b838110156149ff5781516149e68882614988565b97506149f1836149a1565b9250506001810190506149d2565b5085935050505092915050565b60006020820190508181036000830152614a2681846149ae565b905092915050565b600080fd5b60008083601f840112614a4957614a48614211565b5b8235905067ffffffffffffffff811115614a6657614a65614a2e565b5b602083019150836020820283011115614a8257614a816142bd565b5b9250929050565b60008060208385031215614aa057614a9f613703565b5b600083013567ffffffffffffffff811115614abe57614abd613708565b5b614aca85828601614a33565b92509250509250929050565b600081519050919050565b600082825260208201905092915050565b6000819050602082019050919050565b60006102a0830160008301518482036000860152614b208282613fa0565b9150506020830151614b356020860182613e1f565b506040830151614b486040860182614083565b506060830151614b5b6060860182614083565b506080830151614b6e6080860182614092565b5060a0830151614b8160e08601826138aa565b5060c0830151614b956101008601826138aa565b5060e0830151614ba96101208601826138aa565b50610100830151614bbe610140860182613e2e565b50610120830151614bd36101e08601826138b9565b50610140830151614be86102208601826138aa565b50610160830151614bfd6102408601826138aa565b50610180830151614c126102608601826138b9565b508091505092915050565b6000614c298383614b02565b905092915050565b6000602082019050919050565b6000614c4982614ad6565b614c538185614ae1565b935083602082028501614c6585614af2565b8060005b85811015614ca15784840389528151614c828582614c1d565b9450614c8d83614c31565b925060208a01995050600181019050614c69565b50829750879550505050505092915050565b60006020820190508181036000830152614ccd8184614c3e565b905092915050565b6000604082019050614cea600083018461392a565b92915050565b6000614cfb82613b2a565b9050919050565b614d0b81614cf0565b82525050565b6000602082019050614d266000830184614d02565b92915050565b6000614d3782613b2a565b9050919050565b614d4781614d2c565b82525050565b6000602082019050614d626000830184614d3e565b92915050565b60008083601f840112614d7e57614d7d614211565b5b8235905067ffffffffffffffff811115614d9b57614d9a614a2e565b5b602083019150836020820283011115614db757614db66142bd565b5b9250929050565b60008060008060608587031215614dd857614dd7613703565b5b6000614de687828801613dca565b9450506020614df787828801613768565b935050604085013567ffffffffffffffff811115614e1857614e17613708565b5b614e2487828801614d68565b925092505092959194509250565b6000604082019050614e476000830185613f76565b614e546020830184613f76565b9392505050565b600080fd5b600067ffffffffffffffff821115614e7b57614e7a614216565b5b614e84826137f9565b9050602081019050919050565b6000614ea4614e9f84614e60565b614276565b905082815260208101848484011115614ec057614ebf614e5b565b5b614ecb8482856137c6565b509392505050565b600082601f830112614ee857614ee7614211565b5b8151614ef8848260208601614e91565b91505092915050565b600060208284031215614f1757614f16613703565b5b600082015167ffffffffffffffff811115614f3557614f34613708565b5b614f4184828501614ed3565b91505092915050565b600080fd5b600081519050614f5e816142c2565b92915050565b600081519050614f7381614692565b92915050565b600060408284031215614f8f57614f8e614f4a565b5b614f996040614276565b90506000614fa984828501614f64565b6000830152506020614fbd84828501614f64565b60208301525092915050565b600060a08284031215614fdf57614fde614f4a565b5b614fe96060614276565b90506000614ff984828501614f4f565b600083015250602061500d84828501614f79565b602083015250606061502184828501614f79565b60408301525092915050565b600060a0828403121561504357615042613703565b5b600061505184828501614fc9565b91505092915050565b6002811061506757600080fd5b50565b6000815190506150798161505a565b92915050565b6002811061508c57600080fd5b50565b60008151905061509e8161507f565b92915050565b6150ad81613a8b565b81146150b857600080fd5b50565b6000815190506150ca816150a4565b92915050565b6000606082840312156150e6576150e5614f4a565b5b6150f06060614276565b905060006151008482850161506a565b60008301525060206151148482850161508f565b6020830152506040615128848285016150bb565b60408301525092915050565b60006060828403121561514a57615149613703565b5b6000615158848285016150d0565b91505092915050565b600061516c8261372d565b9050919050565b61517c81615161565b811461518757600080fd5b50565b60008151905061519981615173565b92915050565b6000602082840312156151b5576151b4613703565b5b60006151c38482850161518a565b91505092915050565b6000602082840312156151e2576151e1613703565b5b60006151f084828501614f64565b91505092915050565b61520281613b5d565b811461520d57600080fd5b50565b60008151905061521f816151f9565b92915050565b61522e81613b9b565b811461523957600080fd5b50565b60008151905061524b81615225565b92915050565b60006080828403121561526757615266614f4a565b5b6152716080614276565b9050600061528184828501615210565b600083015250602061529584828501615210565b60208301525060406152a984828501615210565b60408301525060606152bd8482850161523c565b60608301525092915050565b6000608082840312156152df576152de613703565b5b60006152ed84828501615251565b91505092915050565b6152ff81613d42565b811461530a57600080fd5b50565b60008151905061531c816152f6565b92915050565b60006020828403121561533857615337613703565b5b60006153468482850161530d565b91505092915050565b6153588161372d565b82525050565b6000602082019050615373600083018461534f565b92915050565b60006040828403121561538f5761538e613703565b5b600061539d84828501614f79565b91505092915050565b7f4e487b7100000000000000000000000000000000000000000000000000000000600052603260045260246000fd5b6153de81613865565b82525050565b60006020820190506153f960008301846153d5565b92915050565b60006060828403121561541557615414614f4a565b5b61541f6060614276565b9050600061542f84828501614f4f565b600083015250602061544384828501614f4f565b60208301525060406154578482850161530d565b60408301525092915050565b60006060828403121561547957615478613703565b5b6000615487848285016153ff565b91505092915050565b7f4e487b7100000000000000000000000000000000000000000000000000000000600052601160045260246000fd5b60006154ca82613865565b91507fffffffffffffffffffffffffffffffffffffffffffffffffffffffffffffffff82036154fc576154fb615490565b5b600182019050919050565b60006155128261372d565b9050919050565b61552281615507565b811461552d57600080fd5b50565b60008151905061553f81615519565b92915050565b60006020828403121561555b5761555a613703565b5b600061556984828501615530565b91505092915050565b600061557d82613b2a565b9050919050565b61558d81615572565b82525050565b60006020820190506155a86000830184615584565b92915050565b6000602082840312156155c4576155c3613703565b5b60006155d284828501614f4f565b91505092915050565b60006040820190506155f06000830185615584565b6155fd60208301846153d5565b9392505050565b61560d8161372d565b811461561857600080fd5b50565b60008151905061562a81615604565b92915050565b600060c0828403121561564657615645614f4a565b5b61565060a0614276565b9050600061566084828501614f4f565b600083015250602061567484828501614f79565b602083015250606061568884828501614f4f565b604083015250608061569c84828501614f4f565b60608301525060a06156b08482850161561b565b60808301525092915050565b600060c082840312156156d2576156d1613703565b5b60006156e084828501615630565b91505092915050565b60006060820190506156fe6000830186615584565b61570b602083018561534f565b61571860408301846153d5565b949350505050565b6000604082019050615735600083018561534f565b6157426020830184615584565b9392505050565b61575281613e70565b811461575d57600080fd5b50565b60008151905061576f81615749565b92915050565b60006020828403121561578b5761578a613703565b5b600061579984828501615760565b91505092915050565b60006157ad8261372d565b9050919050565b6157bd816157a2565b81146157c857600080fd5b50565b6000815190506157da816157b4565b92915050565b6000602082840312156157f6576157f5613703565b5b6000615804848285016157cb565b91505092915050565b60008151905061581c81613db3565b92915050565b60006020828403121561583857615837613703565b5b60006158468482850161580d565b91505092915050565b600061585a82613865565b915061586583613865565b9250817fffffffffffffffffffffffffffffffffffffffffffffffffffffffffffffffff048311821515161561589e5761589d615490565b5b828202905092915050565b7f4e487b7100000000000000000000000000000000000000000000000000000000600052601260045260246000fd5b60006158e382613865565b91506158ee83613865565b9250826158fe576158fd6158a9565b5b828204905092915050565b600061591482613d42565b915061591f83613d42565b9250827f7fffffffffffffffffffffffffffffffffffffffffffffffffffffffffffffff048211600084136000841316161561595e5761595d615490565b5b817f8000000000000000000000000000000000000000000000000000000000000000058312600084126000841316161561599b5761599a615490565b5b827f800000000000000000000000000000000000000000000000000000000000000005821260008413600084121616156159d8576159d7615490565b5b827f7fffffffffffffffffffffffffffffffffffffffffffffffffffffffffffffff0582126000841260008412161615615a1557615a14615490565b5b828202905092915050565b6000615a2b82613d42565b9150615a3683613d42565b925082615a4657615a456158a9565b5b600160000383147f800000000000000000000000000000000000000000000000000000000000000083141615615a7f57615a7e615490565b5b82820590509291505056fea2646970667358221220195f94ca767948f43d04a0096e9d565da07128258dcdbae7f9d10bffa6dac5df64736f6c634300080f0033",
  "devdoc": {
    "kind": "dev",
    "methods": {
      "atVersions(address,uint256[])": {
        "params": {
          "product": "Product address",
          "versions": "Oracle versions to query"
        },
        "returns": {
          "prices": "Product prices at specified versions"
        }
      },
      "collateral()": {
        "returns": {
          "_0": "Protocol collateral address"
        }
      },
      "collateral(address)": {
        "params": {
          "product": "Product address"
        },
        "returns": {
          "_0": "Total collateral for product"
        }
      },
      "collateral(address,address)": {
        "params": {
          "account": "Account address",
          "product": "Product address"
        },
        "returns": {
          "_0": "User deposited collateral for product"
        }
      },
      "constructor": {
        "params": {
          "_controller": "Protocol controller address"
        }
      },
      "dailyRate(address)": {
        "params": {
          "product": "Product address"
        },
        "returns": {
          "_0": "Product current funding extrapolated to a daily rate"
        }
      },
      "exposure(address,address)": {
        "params": {
          "account": "Account address",
          "product": "Product address"
        },
        "returns": {
          "_0": "User's exposure (openInterest * utilization) after settle"
        }
      },
      "fees(address)": {
        "params": {
          "product": "Product address"
        },
        "returns": {
          "productFees": "fees accrued by the product owner",
          "protocolFees": "fees accrued by the protocol"
        }
      },
      "fees(address,address)": {
        "params": {
          "account": "Account address",
          "product": "Product address"
        },
        "returns": {
          "_0": "sum of all fees accrued by the account"
        }
      },
      "globalPosition(address)": {
        "params": {
          "product": "Product address"
        },
        "returns": {
          "_0": "Product pre-position",
          "_1": "Product position"
        }
      },
      "info(address)": {
        "params": {
          "product": "Product address"
        },
        "returns": {
          "_info": "of the product"
        }
      },
      "latestVersion(address)": {
        "params": {
          "product": "Product address"
        },
        "returns": {
          "_0": "Product latest price"
        }
      },
      "liquidatable(address,address)": {
        "params": {
          "account": "Account address",
          "product": "Product address"
        },
        "returns": {
          "_0": "Whether or not the user's position eligible to be liquidated"
        }
      },
      "maintenance(address,address)": {
        "params": {
          "account": "Account address",
          "product": "Product address"
        },
        "returns": {
          "_0": "Maximum of user maintenance, and maintenanceNext"
        }
      },
      "maintenanceRequired(address,address,uint256)": {
        "params": {
          "account": "Account address",
          "positionSize": "size of position for maintenance calculation",
          "product": "Product address"
        },
        "returns": {
          "_0": "Maintenance required for position in product"
        }
      },
      "name(address)": {
        "params": {
          "product": "Product address"
        },
        "returns": {
          "_0": "Name of the product"
        }
      },
      "openInterest(address)": {
        "params": {
          "product": "Product address"
        },
        "returns": {
          "_0": "Product maker and taker position multiplied by latest price after settle"
        }
      },
      "openInterest(address,address)": {
        "params": {
          "account": "Account address",
          "product": "Product address"
        },
        "returns": {
          "_0": "User's maker or taker position multiplied by latest price after settle"
        }
      },
      "position(address)": {
        "params": {
          "product": "Product address"
        },
        "returns": {
          "_0": "product position"
        }
      },
      "position(address,address)": {
        "params": {
          "account": "Account address",
          "product": "Product address"
        },
        "returns": {
          "_0": "User position"
        }
      },
      "pre(address)": {
        "params": {
          "product": "Product address"
        },
        "returns": {
          "_0": "Product pre-position"
        }
      },
      "pre(address,address)": {
        "params": {
          "account": "Account address",
          "product": "Product address"
        },
        "returns": {
          "_0": "User pre-position"
        }
      },
      "rate(address)": {
        "params": {
          "product": "Product address"
        },
        "returns": {
          "_0": "Product current funding rate"
        }
      },
      "shortfall(address)": {
        "params": {
          "product": "Product address"
        },
        "returns": {
          "_0": "Total shortfall for product"
        }
      },
      "snapshot(address)": {
        "params": {
          "product": "Product address"
        },
        "returns": {
          "_0": "Snapshot for the product after settle"
        }
      },
      "snapshot(address,address)": {
        "params": {
          "account": "User addresses",
          "product": "Product address"
        },
        "returns": {
          "_0": "UserSnapshot for the product after settle"
        }
      },
      "snapshots(address,address[])": {
        "params": {
          "account": "User addresses",
          "productAddresses": "Product addresses"
        },
        "returns": {
          "_0": "UserSnapshot for each product after settle"
        }
      },
      "snapshots(address[])": {
        "params": {
          "productAddresses": "Product addresses"
        },
        "returns": {
          "_0": "Snapshot for each product after settle"
        }
      },
      "symbol(address)": {
        "params": {
          "product": "Product address"
        },
        "returns": {
          "_0": "Symbol of the product"
        }
      },
      "unclaimedIncentiveRewards(address,address)": {
        "params": {
          "account": "Account address",
          "product": "Product address"
        },
        "returns": {
          "amounts": "Token amounts of unclaimed incentive rewards for given product",
          "tokens": "Token addresses of unclaimed incentive rewards for given product"
        }
      },
      "unclaimedIncentiveRewards(address,address,uint256[])": {
        "params": {
          "account": "Account address",
          "product": "Product address",
          "programIds": "Program IDs to query"
        },
        "returns": {
          "amounts": "Token amounts of unclaimed incentive rewards for given program IDs",
          "tokens": "Token addresses of unclaimed incentive rewards for given program IDs"
        }
      },
      "userPosition(address,address)": {
        "params": {
          "account": "Account address",
          "product": "Product address"
        },
        "returns": {
          "_0": "User pre-position",
          "_1": "User position"
        }
      }
    },
    "stateVariables": {
      "controller": {
        "return": "Protocol controller",
        "returns": {
          "_0": "Protocol controller"
        }
      }
    },
    "title": "Lens contract to conveniently pull protocol data",
    "version": 1
  },
  "userdoc": {
    "kind": "user",
    "methods": {
      "atVersions(address,uint256[])": {
        "notice": "Prices of product at specified versions after settle"
      },
      "collateral()": {
        "notice": "Protocol collateral address"
      },
      "collateral(address)": {
        "notice": "Product total collateral amount after settle"
      },
      "collateral(address,address)": {
        "notice": "User collateral amount for product after settle"
      },
      "controller()": {
        "notice": "Protocol controller"
      },
      "dailyRate(address)": {
        "notice": "Product funding extrapolated to a daily rate after settle"
      },
      "exposure(address,address)": {
        "notice": "User's exposure in product after settle"
      },
      "fees(address)": {
        "notice": "Fees accumulated by product and protocol treasuries after settle"
      },
      "fees(address,address)": {
        "notice": "Fees accumulated by account after settle"
      },
      "globalPosition(address)": {
        "notice": "Product pre-position and position after settle"
      },
      "info(address)": {
        "notice": "Returns the info of the provided `product`"
      },
      "latestVersion(address)": {
        "notice": "Current price of product after settle"
      },
      "liquidatable(address,address)": {
        "notice": "User liquidatble status for product after settle"
      },
      "maintenance(address,address)": {
        "notice": "User maintenance amount for product after settle"
      },
      "maintenanceRequired(address,address,uint256)": {
        "notice": "User's maintenance required for position size in product after settle"
      },
      "name(address)": {
        "notice": "Returns the name of the provided `product`"
      },
      "openInterest(address)": {
        "notice": "Product total open interest after settle"
      },
      "openInterest(address,address)": {
        "notice": "User's open interest in product after settle"
      },
      "position(address)": {
        "notice": "Product position after settle"
      },
      "position(address,address)": {
        "notice": "User position for product after settle"
      },
      "pre(address)": {
        "notice": "Product pre position after settle"
      },
      "pre(address,address)": {
        "notice": "User pre position for product after settle"
      },
      "rate(address)": {
        "notice": "Product funding rate after settle"
      },
      "shortfall(address)": {
        "notice": "Product total shortfall amount after settle"
      },
      "snapshot(address)": {
        "notice": "Returns the snapshot of the provided `product`"
      },
      "snapshot(address,address)": {
        "notice": "Returns the user snapshot for the provided `product`"
      },
      "snapshots(address,address[])": {
        "notice": "Returns the user snapshots for the provided `productAddresses`"
      },
      "snapshots(address[])": {
        "notice": "Returns the snapshots of the provided `productAddresses`"
      },
      "symbol(address)": {
        "notice": "Returns the symbol of the provided `product`"
      },
      "unclaimedIncentiveRewards(address,address)": {
        "notice": "User's unclaimed rewards for all programs for product after settle"
      },
      "unclaimedIncentiveRewards(address,address,uint256[])": {
        "notice": "User's unclaimed rewards for provided programs for product after settle"
      },
      "userPosition(address,address)": {
        "notice": "User pre-position and position for product after settle"
      }
    },
    "notice": "All functions should be called using `callStatic`",
    "version": 1
  },
  "storageLayout": {
    "storage": [],
    "types": null
  }
}