{
  "address": "0xCe2a0EC283be5AB085F57f4d398E0922BE0F7254",
  "abi": [
    {
      "inputs": [
        {
          "internalType": "contract IController",
          "name": "_controller",
          "type": "address"
        }
      ],
      "stateMutability": "nonpayable",
      "type": "constructor"
    },
    {
      "inputs": [
        {
          "internalType": "contract IProduct",
          "name": "product",
          "type": "address"
        },
        {
          "internalType": "uint256[]",
          "name": "versions",
          "type": "uint256[]"
        }
      ],
      "name": "atVersions",
      "outputs": [
        {
          "components": [
            {
              "internalType": "uint256",
              "name": "version",
              "type": "uint256"
            },
            {
              "internalType": "uint256",
              "name": "timestamp",
              "type": "uint256"
            },
            {
              "internalType": "Fixed18",
              "name": "price",
              "type": "int256"
            }
          ],
          "internalType": "struct IOracleProvider.OracleVersion[]",
          "name": "prices",
          "type": "tuple[]"
        }
      ],
      "stateMutability": "nonpayable",
      "type": "function"
    },
    {
      "inputs": [
        {
          "internalType": "contract IProduct",
          "name": "product",
          "type": "address"
        }
      ],
      "name": "collateral",
      "outputs": [
        {
          "internalType": "UFixed18",
          "name": "",
          "type": "uint256"
        }
      ],
      "stateMutability": "nonpayable",
      "type": "function"
    },
    {
      "inputs": [
        {
          "internalType": "address",
          "name": "account",
          "type": "address"
        },
        {
          "internalType": "contract IProduct",
          "name": "product",
          "type": "address"
        }
      ],
      "name": "collateral",
      "outputs": [
        {
          "internalType": "UFixed18",
          "name": "",
          "type": "uint256"
        }
      ],
      "stateMutability": "nonpayable",
      "type": "function"
    },
    {
      "inputs": [],
      "name": "collateral",
      "outputs": [
        {
          "internalType": "contract ICollateral",
          "name": "",
          "type": "address"
        }
      ],
      "stateMutability": "view",
      "type": "function"
    },
    {
      "inputs": [],
      "name": "controller",
      "outputs": [
        {
          "internalType": "contract IController",
          "name": "",
          "type": "address"
        }
      ],
      "stateMutability": "view",
      "type": "function"
    },
    {
      "inputs": [
        {
          "internalType": "contract IProduct",
          "name": "product",
          "type": "address"
        }
      ],
      "name": "dailyRate",
      "outputs": [
        {
          "internalType": "Fixed18",
          "name": "",
          "type": "int256"
        }
      ],
      "stateMutability": "nonpayable",
      "type": "function"
    },
    {
      "inputs": [
        {
          "internalType": "address",
          "name": "account",
          "type": "address"
        },
        {
          "internalType": "contract IProduct",
          "name": "product",
          "type": "address"
        }
      ],
      "name": "exposure",
      "outputs": [
        {
          "internalType": "UFixed18",
          "name": "",
          "type": "uint256"
        }
      ],
      "stateMutability": "nonpayable",
      "type": "function"
    },
    {
      "inputs": [
        {
          "internalType": "address",
          "name": "account",
          "type": "address"
        },
        {
          "internalType": "contract IProduct",
          "name": "product",
          "type": "address"
        }
      ],
      "name": "fees",
      "outputs": [
        {
          "internalType": "UFixed18",
          "name": "",
          "type": "uint256"
        }
      ],
      "stateMutability": "nonpayable",
      "type": "function"
    },
    {
      "inputs": [
        {
          "internalType": "contract IProduct",
          "name": "product",
          "type": "address"
        }
      ],
      "name": "fees",
      "outputs": [
        {
          "internalType": "UFixed18",
          "name": "protocolFees",
          "type": "uint256"
        },
        {
          "internalType": "UFixed18",
          "name": "productFees",
          "type": "uint256"
        }
      ],
      "stateMutability": "nonpayable",
      "type": "function"
    },
    {
      "inputs": [
        {
          "internalType": "contract IProduct",
          "name": "product",
          "type": "address"
        }
      ],
      "name": "globalPosition",
      "outputs": [
        {
          "components": [
            {
              "internalType": "uint256",
              "name": "oracleVersion",
              "type": "uint256"
            },
            {
              "components": [
                {
                  "internalType": "UFixed18",
                  "name": "maker",
                  "type": "uint256"
                },
                {
                  "internalType": "UFixed18",
                  "name": "taker",
                  "type": "uint256"
                }
              ],
              "internalType": "struct Position",
              "name": "openPosition",
              "type": "tuple"
            },
            {
              "components": [
                {
                  "internalType": "UFixed18",
                  "name": "maker",
                  "type": "uint256"
                },
                {
                  "internalType": "UFixed18",
                  "name": "taker",
                  "type": "uint256"
                }
              ],
              "internalType": "struct Position",
              "name": "closePosition",
              "type": "tuple"
            }
          ],
          "internalType": "struct PrePosition",
          "name": "",
          "type": "tuple"
        },
        {
          "components": [
            {
              "internalType": "UFixed18",
              "name": "maker",
              "type": "uint256"
            },
            {
              "internalType": "UFixed18",
              "name": "taker",
              "type": "uint256"
            }
          ],
          "internalType": "struct Position",
          "name": "",
          "type": "tuple"
        }
      ],
      "stateMutability": "nonpayable",
      "type": "function"
    },
    {
      "inputs": [
        {
          "internalType": "contract IProduct",
          "name": "product",
          "type": "address"
        }
      ],
      "name": "info",
      "outputs": [
        {
          "components": [
            {
              "internalType": "string",
              "name": "name",
              "type": "string"
            },
            {
              "internalType": "string",
              "name": "symbol",
              "type": "string"
            },
            {
              "components": [
                {
                  "internalType": "enum PayoffDefinitionLib.PayoffType",
                  "name": "payoffType",
                  "type": "uint8"
                },
                {
                  "internalType": "enum PayoffDefinitionLib.PayoffDirection",
                  "name": "payoffDirection",
                  "type": "uint8"
                },
                {
                  "internalType": "bytes30",
                  "name": "data",
                  "type": "bytes30"
                }
              ],
              "internalType": "struct PayoffDefinition",
              "name": "payoffDefinition",
              "type": "tuple"
            },
            {
              "internalType": "contract IOracleProvider",
              "name": "oracle",
              "type": "address"
            },
            {
              "internalType": "UFixed18",
              "name": "maintenance",
              "type": "uint256"
            },
            {
              "internalType": "UFixed18",
              "name": "fundingFee",
              "type": "uint256"
            },
            {
              "internalType": "UFixed18",
              "name": "makerFee",
              "type": "uint256"
            },
            {
              "internalType": "UFixed18",
              "name": "takerFee",
              "type": "uint256"
            },
            {
              "internalType": "UFixed18",
              "name": "makerLimit",
              "type": "uint256"
            },
            {
              "components": [
                {
                  "internalType": "PackedFixed18",
                  "name": "minRate",
                  "type": "int128"
                },
                {
                  "internalType": "PackedFixed18",
                  "name": "maxRate",
                  "type": "int128"
                },
                {
                  "internalType": "PackedFixed18",
                  "name": "targetRate",
                  "type": "int128"
                },
                {
                  "internalType": "PackedUFixed18",
                  "name": "targetUtilization",
                  "type": "uint128"
                }
              ],
              "internalType": "struct JumpRateUtilizationCurve",
              "name": "utilizationCurve",
              "type": "tuple"
            }
          ],
          "internalType": "struct IProduct.ProductInfo",
          "name": "_info",
          "type": "tuple"
        }
      ],
      "stateMutability": "view",
      "type": "function"
    },
    {
      "inputs": [
        {
          "internalType": "contract IProduct",
          "name": "product",
          "type": "address"
        }
      ],
      "name": "latestVersion",
      "outputs": [
        {
          "components": [
            {
              "internalType": "uint256",
              "name": "version",
              "type": "uint256"
            },
            {
              "internalType": "uint256",
              "name": "timestamp",
              "type": "uint256"
            },
            {
              "internalType": "Fixed18",
              "name": "price",
              "type": "int256"
            }
          ],
          "internalType": "struct IOracleProvider.OracleVersion",
          "name": "",
          "type": "tuple"
        }
      ],
      "stateMutability": "nonpayable",
      "type": "function"
    },
    {
      "inputs": [
        {
          "internalType": "address",
          "name": "account",
          "type": "address"
        },
        {
          "internalType": "contract IProduct",
          "name": "product",
          "type": "address"
        }
      ],
      "name": "liquidatable",
      "outputs": [
        {
          "internalType": "bool",
          "name": "",
          "type": "bool"
        }
      ],
      "stateMutability": "nonpayable",
      "type": "function"
    },
    {
      "inputs": [
        {
          "internalType": "address",
          "name": "account",
          "type": "address"
        },
        {
          "internalType": "contract IProduct",
          "name": "product",
          "type": "address"
        }
      ],
      "name": "liquidating",
      "outputs": [
        {
          "internalType": "bool",
          "name": "",
          "type": "bool"
        }
      ],
      "stateMutability": "nonpayable",
      "type": "function"
    },
    {
      "inputs": [
        {
          "internalType": "address",
          "name": "account",
          "type": "address"
        },
        {
          "internalType": "contract IProduct",
          "name": "product",
          "type": "address"
        }
      ],
      "name": "maintenance",
      "outputs": [
        {
          "internalType": "UFixed18",
          "name": "",
          "type": "uint256"
        }
      ],
      "stateMutability": "nonpayable",
      "type": "function"
    },
    {
      "inputs": [
        {
          "internalType": "address",
          "name": "account",
          "type": "address"
        },
        {
          "internalType": "contract IProduct",
          "name": "product",
          "type": "address"
        },
        {
          "internalType": "UFixed18",
          "name": "positionSize",
          "type": "uint256"
        }
      ],
      "name": "maintenanceRequired",
      "outputs": [
        {
          "internalType": "UFixed18",
          "name": "",
          "type": "uint256"
        }
      ],
      "stateMutability": "nonpayable",
      "type": "function"
    },
    {
      "inputs": [
        {
          "internalType": "contract IProduct",
          "name": "product",
          "type": "address"
        }
      ],
      "name": "name",
      "outputs": [
        {
          "internalType": "string",
          "name": "",
          "type": "string"
        }
      ],
      "stateMutability": "view",
      "type": "function"
    },
    {
      "inputs": [
        {
          "internalType": "address",
          "name": "account",
          "type": "address"
        },
        {
          "internalType": "contract IProduct",
          "name": "product",
          "type": "address"
        }
      ],
      "name": "openInterest",
      "outputs": [
        {
          "components": [
            {
              "internalType": "UFixed18",
              "name": "maker",
              "type": "uint256"
            },
            {
              "internalType": "UFixed18",
              "name": "taker",
              "type": "uint256"
            }
          ],
          "internalType": "struct Position",
          "name": "",
          "type": "tuple"
        }
      ],
      "stateMutability": "nonpayable",
      "type": "function"
    },
    {
      "inputs": [
        {
          "internalType": "contract IProduct",
          "name": "product",
          "type": "address"
        }
      ],
      "name": "openInterest",
      "outputs": [
        {
          "components": [
            {
              "internalType": "UFixed18",
              "name": "maker",
              "type": "uint256"
            },
            {
              "internalType": "UFixed18",
              "name": "taker",
              "type": "uint256"
            }
          ],
          "internalType": "struct Position",
          "name": "",
          "type": "tuple"
        }
      ],
      "stateMutability": "nonpayable",
      "type": "function"
    },
    {
      "inputs": [
        {
          "internalType": "contract IProduct",
          "name": "product",
          "type": "address"
        }
      ],
      "name": "position",
      "outputs": [
        {
          "components": [
            {
              "internalType": "UFixed18",
              "name": "maker",
              "type": "uint256"
            },
            {
              "internalType": "UFixed18",
              "name": "taker",
              "type": "uint256"
            }
          ],
          "internalType": "struct Position",
          "name": "",
          "type": "tuple"
        }
      ],
      "stateMutability": "nonpayable",
      "type": "function"
    },
    {
      "inputs": [
        {
          "internalType": "address",
          "name": "account",
          "type": "address"
        },
        {
          "internalType": "contract IProduct",
          "name": "product",
          "type": "address"
        }
      ],
      "name": "position",
      "outputs": [
        {
          "components": [
            {
              "internalType": "UFixed18",
              "name": "maker",
              "type": "uint256"
            },
            {
              "internalType": "UFixed18",
              "name": "taker",
              "type": "uint256"
            }
          ],
          "internalType": "struct Position",
          "name": "",
          "type": "tuple"
        }
      ],
      "stateMutability": "nonpayable",
      "type": "function"
    },
    {
      "inputs": [
        {
          "internalType": "contract IProduct",
          "name": "product",
          "type": "address"
        }
      ],
      "name": "pre",
      "outputs": [
        {
          "components": [
            {
              "internalType": "uint256",
              "name": "oracleVersion",
              "type": "uint256"
            },
            {
              "components": [
                {
                  "internalType": "UFixed18",
                  "name": "maker",
                  "type": "uint256"
                },
                {
                  "internalType": "UFixed18",
                  "name": "taker",
                  "type": "uint256"
                }
              ],
              "internalType": "struct Position",
              "name": "openPosition",
              "type": "tuple"
            },
            {
              "components": [
                {
                  "internalType": "UFixed18",
                  "name": "maker",
                  "type": "uint256"
                },
                {
                  "internalType": "UFixed18",
                  "name": "taker",
                  "type": "uint256"
                }
              ],
              "internalType": "struct Position",
              "name": "closePosition",
              "type": "tuple"
            }
          ],
          "internalType": "struct PrePosition",
          "name": "",
          "type": "tuple"
        }
      ],
      "stateMutability": "nonpayable",
      "type": "function"
    },
    {
      "inputs": [
        {
          "internalType": "address",
          "name": "account",
          "type": "address"
        },
        {
          "internalType": "contract IProduct",
          "name": "product",
          "type": "address"
        }
      ],
      "name": "pre",
      "outputs": [
        {
          "components": [
            {
              "internalType": "uint256",
              "name": "oracleVersion",
              "type": "uint256"
            },
            {
              "components": [
                {
                  "internalType": "UFixed18",
                  "name": "maker",
                  "type": "uint256"
                },
                {
                  "internalType": "UFixed18",
                  "name": "taker",
                  "type": "uint256"
                }
              ],
              "internalType": "struct Position",
              "name": "openPosition",
              "type": "tuple"
            },
            {
              "components": [
                {
                  "internalType": "UFixed18",
                  "name": "maker",
                  "type": "uint256"
                },
                {
                  "internalType": "UFixed18",
                  "name": "taker",
                  "type": "uint256"
                }
              ],
              "internalType": "struct Position",
              "name": "closePosition",
              "type": "tuple"
            }
          ],
          "internalType": "struct PrePosition",
          "name": "",
          "type": "tuple"
        }
      ],
      "stateMutability": "nonpayable",
      "type": "function"
    },
    {
      "inputs": [
        {
          "internalType": "contract IProduct",
          "name": "product",
          "type": "address"
        }
      ],
      "name": "rate",
      "outputs": [
        {
          "internalType": "Fixed18",
          "name": "",
          "type": "int256"
        }
      ],
      "stateMutability": "nonpayable",
      "type": "function"
    },
    {
      "inputs": [
        {
          "internalType": "contract IProduct",
          "name": "product",
          "type": "address"
        }
      ],
      "name": "shortfall",
      "outputs": [
        {
          "internalType": "UFixed18",
          "name": "",
          "type": "uint256"
        }
      ],
      "stateMutability": "nonpayable",
      "type": "function"
    },
    {
      "inputs": [
        {
          "internalType": "address",
          "name": "account",
          "type": "address"
        },
        {
          "internalType": "contract IProduct",
          "name": "product",
          "type": "address"
        }
      ],
      "name": "snapshot",
      "outputs": [
        {
          "components": [
            {
              "internalType": "address",
              "name": "productAddress",
              "type": "address"
            },
            {
              "internalType": "address",
              "name": "userAddress",
              "type": "address"
            },
            {
              "internalType": "UFixed18",
              "name": "collateral",
              "type": "uint256"
            },
            {
              "internalType": "UFixed18",
              "name": "maintenance",
              "type": "uint256"
            },
            {
              "components": [
                {
                  "internalType": "uint256",
                  "name": "oracleVersion",
                  "type": "uint256"
                },
                {
                  "components": [
                    {
                      "internalType": "UFixed18",
                      "name": "maker",
                      "type": "uint256"
                    },
                    {
                      "internalType": "UFixed18",
                      "name": "taker",
                      "type": "uint256"
                    }
                  ],
                  "internalType": "struct Position",
                  "name": "openPosition",
                  "type": "tuple"
                },
                {
                  "components": [
                    {
                      "internalType": "UFixed18",
                      "name": "maker",
                      "type": "uint256"
                    },
                    {
                      "internalType": "UFixed18",
                      "name": "taker",
                      "type": "uint256"
                    }
                  ],
                  "internalType": "struct Position",
                  "name": "closePosition",
                  "type": "tuple"
                }
              ],
              "internalType": "struct PrePosition",
              "name": "pre",
              "type": "tuple"
            },
            {
              "components": [
                {
                  "internalType": "UFixed18",
                  "name": "maker",
                  "type": "uint256"
                },
                {
                  "internalType": "UFixed18",
                  "name": "taker",
                  "type": "uint256"
                }
              ],
              "internalType": "struct Position",
              "name": "position",
              "type": "tuple"
            },
            {
              "internalType": "bool",
              "name": "liquidatable",
              "type": "bool"
            },
            {
              "internalType": "bool",
              "name": "liquidating",
              "type": "bool"
            },
            {
              "components": [
                {
                  "internalType": "UFixed18",
                  "name": "maker",
                  "type": "uint256"
                },
                {
                  "internalType": "UFixed18",
                  "name": "taker",
                  "type": "uint256"
                }
              ],
              "internalType": "struct Position",
              "name": "openInterest",
              "type": "tuple"
            },
            {
              "internalType": "UFixed18",
              "name": "fees",
              "type": "uint256"
            },
            {
              "internalType": "UFixed18",
              "name": "exposure",
              "type": "uint256"
            }
          ],
          "internalType": "struct IPerennialLens.UserProductSnapshot",
          "name": "_snapshot",
          "type": "tuple"
        }
      ],
      "stateMutability": "nonpayable",
      "type": "function"
    },
    {
      "inputs": [
        {
          "internalType": "contract IProduct",
          "name": "product",
          "type": "address"
        }
      ],
      "name": "snapshot",
      "outputs": [
        {
          "components": [
            {
              "components": [
                {
                  "internalType": "string",
                  "name": "name",
                  "type": "string"
                },
                {
                  "internalType": "string",
                  "name": "symbol",
                  "type": "string"
                },
                {
                  "components": [
                    {
                      "internalType": "enum PayoffDefinitionLib.PayoffType",
                      "name": "payoffType",
                      "type": "uint8"
                    },
                    {
                      "internalType": "enum PayoffDefinitionLib.PayoffDirection",
                      "name": "payoffDirection",
                      "type": "uint8"
                    },
                    {
                      "internalType": "bytes30",
                      "name": "data",
                      "type": "bytes30"
                    }
                  ],
                  "internalType": "struct PayoffDefinition",
                  "name": "payoffDefinition",
                  "type": "tuple"
                },
                {
                  "internalType": "contract IOracleProvider",
                  "name": "oracle",
                  "type": "address"
                },
                {
                  "internalType": "UFixed18",
                  "name": "maintenance",
                  "type": "uint256"
                },
                {
                  "internalType": "UFixed18",
                  "name": "fundingFee",
                  "type": "uint256"
                },
                {
                  "internalType": "UFixed18",
                  "name": "makerFee",
                  "type": "uint256"
                },
                {
                  "internalType": "UFixed18",
                  "name": "takerFee",
                  "type": "uint256"
                },
                {
                  "internalType": "UFixed18",
                  "name": "makerLimit",
                  "type": "uint256"
                },
                {
                  "components": [
                    {
                      "internalType": "PackedFixed18",
                      "name": "minRate",
                      "type": "int128"
                    },
                    {
                      "internalType": "PackedFixed18",
                      "name": "maxRate",
                      "type": "int128"
                    },
                    {
                      "internalType": "PackedFixed18",
                      "name": "targetRate",
                      "type": "int128"
                    },
                    {
                      "internalType": "PackedUFixed18",
                      "name": "targetUtilization",
                      "type": "uint128"
                    }
                  ],
                  "internalType": "struct JumpRateUtilizationCurve",
                  "name": "utilizationCurve",
                  "type": "tuple"
                }
              ],
              "internalType": "struct IProduct.ProductInfo",
              "name": "productInfo",
              "type": "tuple"
            },
            {
              "internalType": "address",
              "name": "productAddress",
              "type": "address"
            },
            {
              "internalType": "Fixed18",
              "name": "rate",
              "type": "int256"
            },
            {
              "internalType": "Fixed18",
              "name": "dailyRate",
              "type": "int256"
            },
            {
              "components": [
                {
                  "internalType": "uint256",
                  "name": "version",
                  "type": "uint256"
                },
                {
                  "internalType": "uint256",
                  "name": "timestamp",
                  "type": "uint256"
                },
                {
                  "internalType": "Fixed18",
                  "name": "price",
                  "type": "int256"
                }
              ],
              "internalType": "struct IOracleProvider.OracleVersion",
              "name": "latestVersion",
              "type": "tuple"
            },
            {
              "internalType": "UFixed18",
              "name": "maintenance",
              "type": "uint256"
            },
            {
              "internalType": "UFixed18",
              "name": "collateral",
              "type": "uint256"
            },
            {
              "internalType": "UFixed18",
              "name": "shortfall",
              "type": "uint256"
            },
            {
              "components": [
                {
                  "internalType": "uint256",
                  "name": "oracleVersion",
                  "type": "uint256"
                },
                {
                  "components": [
                    {
                      "internalType": "UFixed18",
                      "name": "maker",
                      "type": "uint256"
                    },
                    {
                      "internalType": "UFixed18",
                      "name": "taker",
                      "type": "uint256"
                    }
                  ],
                  "internalType": "struct Position",
                  "name": "openPosition",
                  "type": "tuple"
                },
                {
                  "components": [
                    {
                      "internalType": "UFixed18",
                      "name": "maker",
                      "type": "uint256"
                    },
                    {
                      "internalType": "UFixed18",
                      "name": "taker",
                      "type": "uint256"
                    }
                  ],
                  "internalType": "struct Position",
                  "name": "closePosition",
                  "type": "tuple"
                }
              ],
              "internalType": "struct PrePosition",
              "name": "pre",
              "type": "tuple"
            },
            {
              "components": [
                {
                  "internalType": "UFixed18",
                  "name": "maker",
                  "type": "uint256"
                },
                {
                  "internalType": "UFixed18",
                  "name": "taker",
                  "type": "uint256"
                }
              ],
              "internalType": "struct Position",
              "name": "position",
              "type": "tuple"
            },
            {
              "internalType": "UFixed18",
              "name": "productFee",
              "type": "uint256"
            },
            {
              "internalType": "UFixed18",
              "name": "protocolFee",
              "type": "uint256"
            },
            {
              "components": [
                {
                  "internalType": "UFixed18",
                  "name": "maker",
                  "type": "uint256"
                },
                {
                  "internalType": "UFixed18",
                  "name": "taker",
                  "type": "uint256"
                }
              ],
              "internalType": "struct Position",
              "name": "openInterest",
              "type": "tuple"
            }
          ],
          "internalType": "struct IPerennialLens.ProductSnapshot",
          "name": "_snapshot",
          "type": "tuple"
        }
      ],
      "stateMutability": "nonpayable",
      "type": "function"
    },
    {
      "inputs": [
        {
          "internalType": "address",
          "name": "account",
          "type": "address"
        },
        {
          "internalType": "contract IProduct[]",
          "name": "productAddresses",
          "type": "address[]"
        }
      ],
      "name": "snapshots",
      "outputs": [
        {
          "components": [
            {
              "internalType": "address",
              "name": "productAddress",
              "type": "address"
            },
            {
              "internalType": "address",
              "name": "userAddress",
              "type": "address"
            },
            {
              "internalType": "UFixed18",
              "name": "collateral",
              "type": "uint256"
            },
            {
              "internalType": "UFixed18",
              "name": "maintenance",
              "type": "uint256"
            },
            {
              "components": [
                {
                  "internalType": "uint256",
                  "name": "oracleVersion",
                  "type": "uint256"
                },
                {
                  "components": [
                    {
                      "internalType": "UFixed18",
                      "name": "maker",
                      "type": "uint256"
                    },
                    {
                      "internalType": "UFixed18",
                      "name": "taker",
                      "type": "uint256"
                    }
                  ],
                  "internalType": "struct Position",
                  "name": "openPosition",
                  "type": "tuple"
                },
                {
                  "components": [
                    {
                      "internalType": "UFixed18",
                      "name": "maker",
                      "type": "uint256"
                    },
                    {
                      "internalType": "UFixed18",
                      "name": "taker",
                      "type": "uint256"
                    }
                  ],
                  "internalType": "struct Position",
                  "name": "closePosition",
                  "type": "tuple"
                }
              ],
              "internalType": "struct PrePosition",
              "name": "pre",
              "type": "tuple"
            },
            {
              "components": [
                {
                  "internalType": "UFixed18",
                  "name": "maker",
                  "type": "uint256"
                },
                {
                  "internalType": "UFixed18",
                  "name": "taker",
                  "type": "uint256"
                }
              ],
              "internalType": "struct Position",
              "name": "position",
              "type": "tuple"
            },
            {
              "internalType": "bool",
              "name": "liquidatable",
              "type": "bool"
            },
            {
              "internalType": "bool",
              "name": "liquidating",
              "type": "bool"
            },
            {
              "components": [
                {
                  "internalType": "UFixed18",
                  "name": "maker",
                  "type": "uint256"
                },
                {
                  "internalType": "UFixed18",
                  "name": "taker",
                  "type": "uint256"
                }
              ],
              "internalType": "struct Position",
              "name": "openInterest",
              "type": "tuple"
            },
            {
              "internalType": "UFixed18",
              "name": "fees",
              "type": "uint256"
            },
            {
              "internalType": "UFixed18",
              "name": "exposure",
              "type": "uint256"
            }
          ],
          "internalType": "struct IPerennialLens.UserProductSnapshot[]",
          "name": "_snapshots",
          "type": "tuple[]"
        }
      ],
      "stateMutability": "nonpayable",
      "type": "function"
    },
    {
      "inputs": [
        {
          "internalType": "contract IProduct[]",
          "name": "productAddresses",
          "type": "address[]"
        }
      ],
      "name": "snapshots",
      "outputs": [
        {
          "components": [
            {
              "components": [
                {
                  "internalType": "string",
                  "name": "name",
                  "type": "string"
                },
                {
                  "internalType": "string",
                  "name": "symbol",
                  "type": "string"
                },
                {
                  "components": [
                    {
                      "internalType": "enum PayoffDefinitionLib.PayoffType",
                      "name": "payoffType",
                      "type": "uint8"
                    },
                    {
                      "internalType": "enum PayoffDefinitionLib.PayoffDirection",
                      "name": "payoffDirection",
                      "type": "uint8"
                    },
                    {
                      "internalType": "bytes30",
                      "name": "data",
                      "type": "bytes30"
                    }
                  ],
                  "internalType": "struct PayoffDefinition",
                  "name": "payoffDefinition",
                  "type": "tuple"
                },
                {
                  "internalType": "contract IOracleProvider",
                  "name": "oracle",
                  "type": "address"
                },
                {
                  "internalType": "UFixed18",
                  "name": "maintenance",
                  "type": "uint256"
                },
                {
                  "internalType": "UFixed18",
                  "name": "fundingFee",
                  "type": "uint256"
                },
                {
                  "internalType": "UFixed18",
                  "name": "makerFee",
                  "type": "uint256"
                },
                {
                  "internalType": "UFixed18",
                  "name": "takerFee",
                  "type": "uint256"
                },
                {
                  "internalType": "UFixed18",
                  "name": "makerLimit",
                  "type": "uint256"
                },
                {
                  "components": [
                    {
                      "internalType": "PackedFixed18",
                      "name": "minRate",
                      "type": "int128"
                    },
                    {
                      "internalType": "PackedFixed18",
                      "name": "maxRate",
                      "type": "int128"
                    },
                    {
                      "internalType": "PackedFixed18",
                      "name": "targetRate",
                      "type": "int128"
                    },
                    {
                      "internalType": "PackedUFixed18",
                      "name": "targetUtilization",
                      "type": "uint128"
                    }
                  ],
                  "internalType": "struct JumpRateUtilizationCurve",
                  "name": "utilizationCurve",
                  "type": "tuple"
                }
              ],
              "internalType": "struct IProduct.ProductInfo",
              "name": "productInfo",
              "type": "tuple"
            },
            {
              "internalType": "address",
              "name": "productAddress",
              "type": "address"
            },
            {
              "internalType": "Fixed18",
              "name": "rate",
              "type": "int256"
            },
            {
              "internalType": "Fixed18",
              "name": "dailyRate",
              "type": "int256"
            },
            {
              "components": [
                {
                  "internalType": "uint256",
                  "name": "version",
                  "type": "uint256"
                },
                {
                  "internalType": "uint256",
                  "name": "timestamp",
                  "type": "uint256"
                },
                {
                  "internalType": "Fixed18",
                  "name": "price",
                  "type": "int256"
                }
              ],
              "internalType": "struct IOracleProvider.OracleVersion",
              "name": "latestVersion",
              "type": "tuple"
            },
            {
              "internalType": "UFixed18",
              "name": "maintenance",
              "type": "uint256"
            },
            {
              "internalType": "UFixed18",
              "name": "collateral",
              "type": "uint256"
            },
            {
              "internalType": "UFixed18",
              "name": "shortfall",
              "type": "uint256"
            },
            {
              "components": [
                {
                  "internalType": "uint256",
                  "name": "oracleVersion",
                  "type": "uint256"
                },
                {
                  "components": [
                    {
                      "internalType": "UFixed18",
                      "name": "maker",
                      "type": "uint256"
                    },
                    {
                      "internalType": "UFixed18",
                      "name": "taker",
                      "type": "uint256"
                    }
                  ],
                  "internalType": "struct Position",
                  "name": "openPosition",
                  "type": "tuple"
                },
                {
                  "components": [
                    {
                      "internalType": "UFixed18",
                      "name": "maker",
                      "type": "uint256"
                    },
                    {
                      "internalType": "UFixed18",
                      "name": "taker",
                      "type": "uint256"
                    }
                  ],
                  "internalType": "struct Position",
                  "name": "closePosition",
                  "type": "tuple"
                }
              ],
              "internalType": "struct PrePosition",
              "name": "pre",
              "type": "tuple"
            },
            {
              "components": [
                {
                  "internalType": "UFixed18",
                  "name": "maker",
                  "type": "uint256"
                },
                {
                  "internalType": "UFixed18",
                  "name": "taker",
                  "type": "uint256"
                }
              ],
              "internalType": "struct Position",
              "name": "position",
              "type": "tuple"
            },
            {
              "internalType": "UFixed18",
              "name": "productFee",
              "type": "uint256"
            },
            {
              "internalType": "UFixed18",
              "name": "protocolFee",
              "type": "uint256"
            },
            {
              "components": [
                {
                  "internalType": "UFixed18",
                  "name": "maker",
                  "type": "uint256"
                },
                {
                  "internalType": "UFixed18",
                  "name": "taker",
                  "type": "uint256"
                }
              ],
              "internalType": "struct Position",
              "name": "openInterest",
              "type": "tuple"
            }
          ],
          "internalType": "struct IPerennialLens.ProductSnapshot[]",
          "name": "_snapshots",
          "type": "tuple[]"
        }
      ],
      "stateMutability": "nonpayable",
      "type": "function"
    },
    {
      "inputs": [
        {
          "internalType": "contract IProduct",
          "name": "product",
          "type": "address"
        }
      ],
      "name": "symbol",
      "outputs": [
        {
          "internalType": "string",
          "name": "",
          "type": "string"
        }
      ],
      "stateMutability": "view",
      "type": "function"
    },
    {
      "inputs": [
        {
          "internalType": "address",
          "name": "account",
          "type": "address"
        },
        {
          "internalType": "contract IProduct",
          "name": "product",
          "type": "address"
        }
      ],
      "name": "unclaimedIncentiveRewards",
      "outputs": [
        {
          "internalType": "Token18[]",
          "name": "tokens",
          "type": "address[]"
        },
        {
          "internalType": "UFixed18[]",
          "name": "amounts",
          "type": "uint256[]"
        }
      ],
      "stateMutability": "nonpayable",
      "type": "function"
    },
    {
      "inputs": [
        {
          "internalType": "address",
          "name": "account",
          "type": "address"
        },
        {
          "internalType": "contract IProduct",
          "name": "product",
          "type": "address"
        },
        {
          "internalType": "uint256[]",
          "name": "programIds",
          "type": "uint256[]"
        }
      ],
      "name": "unclaimedIncentiveRewards",
      "outputs": [
        {
          "internalType": "Token18[]",
          "name": "tokens",
          "type": "address[]"
        },
        {
          "internalType": "UFixed18[]",
          "name": "amounts",
          "type": "uint256[]"
        }
      ],
      "stateMutability": "nonpayable",
      "type": "function"
    },
    {
      "inputs": [
        {
          "internalType": "address",
          "name": "account",
          "type": "address"
        },
        {
          "internalType": "contract IProduct",
          "name": "product",
          "type": "address"
        }
      ],
      "name": "userPosition",
      "outputs": [
        {
          "components": [
            {
              "internalType": "uint256",
              "name": "oracleVersion",
              "type": "uint256"
            },
            {
              "components": [
                {
                  "internalType": "UFixed18",
                  "name": "maker",
                  "type": "uint256"
                },
                {
                  "internalType": "UFixed18",
                  "name": "taker",
                  "type": "uint256"
                }
              ],
              "internalType": "struct Position",
              "name": "openPosition",
              "type": "tuple"
            },
            {
              "components": [
                {
                  "internalType": "UFixed18",
                  "name": "maker",
                  "type": "uint256"
                },
                {
                  "internalType": "UFixed18",
                  "name": "taker",
                  "type": "uint256"
                }
              ],
              "internalType": "struct Position",
              "name": "closePosition",
              "type": "tuple"
            }
          ],
          "internalType": "struct PrePosition",
          "name": "",
          "type": "tuple"
        },
        {
          "components": [
            {
              "internalType": "UFixed18",
              "name": "maker",
              "type": "uint256"
            },
            {
              "internalType": "UFixed18",
              "name": "taker",
              "type": "uint256"
            }
          ],
          "internalType": "struct Position",
          "name": "",
          "type": "tuple"
        }
      ],
      "stateMutability": "nonpayable",
      "type": "function"
    }
  ],
  "transactionHash": "0x9ad7b0b825fbc79c082f3dead380bb63ca7113803df5a8db98567efbc3814770",
  "args": [
    "0x1927DE7c9765Ae74050D1d0aa8BB0e93D737F579"
  ],
  "numDeployments": 1,
  "solcInputHash": "dd0d601ac153d6a2cb60f335fa990f18",
  "bytecode": "0x60a06040523480156200001157600080fd5b5060405162005d6738038062005d678339818101604052810190620000379190620000f0565b8073ffffffffffffffffffffffffffffffffffffffff1660808173ffffffffffffffffffffffffffffffffffffffff16815250505062000122565b600080fd5b600073ffffffffffffffffffffffffffffffffffffffff82169050919050565b6000620000a48262000077565b9050919050565b6000620000b88262000097565b9050919050565b620000ca81620000ab565b8114620000d657600080fd5b50565b600081519050620000ea81620000bf565b92915050565b60006020828403121562000109576200010862000072565b5b60006200011984828501620000d9565b91505092915050565b608051615c066200016160003960008181611a360152818161288201528181612ba101528181612c3701528181612f9a015261302d0152615c066000f3fe608060405234801561001057600080fd5b506004361061020b5760003560e01c80638f5edc081161012a578063b7a98f97116100bd578063edd8ca7b1161008c578063f77c479111610071578063f77c4791146107a1578063f8083f56146107bf578063faaebd21146107f05761020b565b8063edd8ca7b14610741578063f5c06e1b146107715761020b565b8063b7a98f9714610693578063cc218ece146106c3578063d8dfeb45146106f3578063e9c6b4c1146107115761020b565b8063a5fdc5de116100f9578063a5fdc5de146105d3578063a86e357614610603578063b4d6f78114610633578063b7648fb9146106635761020b565b80638f5edc08146105135780639b9ac2cb146105435780639bc02857146105735780639be2a567146105a35761020b565b806337e710ac116101a25780637e64cc13116101715780637e64cc131461045257806382df39de146104835780638e076924146104b35780638e480b20146104e35761020b565b806337e710ac14610391578063540027e6146103c15780636878353e146103f15780636efef085146104225761020b565b80631e0c6fb9116101de5780631e0c6fb9146102d1578063204e94b014610301578063237e58991461033157806326512160146103615761020b565b80630198489214610210578063036790c0146102405780630aae7a6b146102715780630ba9d8ca146102a1575b600080fd5b61022a60048036038101906102259190613899565b610821565b604051610237919061395f565b60405180910390f35b61025a60048036038101906102559190613899565b61089e565b604051610268929190613a75565b60405180910390f35b61028b60048036038101906102869190613899565b610991565b6040516102989190613e3c565b60405180910390f35b6102bb60048036038101906102b69190613899565b610dae565b6040516102c89190613e99565b60405180910390f35b6102eb60048036038101906102e69190613899565b610ea1565b6040516102f89190613eb4565b60405180910390f35b61031b60048036038101906103169190613efb565b610f81565b604051610328919061408b565b60405180910390f35b61034b60048036038101906103469190613efb565b611125565b60405161035891906140b6565b60405180910390f35b61037b60048036038101906103769190613899565b611246565b6040516103889190614320565b60405180910390f35b6103ab60048036038101906103a69190613efb565b61142d565b6040516103b891906140b6565b60405180910390f35b6103db60048036038101906103d69190613899565b6115a2565b6040516103e89190613e99565b60405180910390f35b61040b60048036038101906104069190613efb565b6116b2565b604051610419929190613a75565b60405180910390f35b61043c600480360381019061043791906144b6565b61182f565b60405161044991906145c1565b60405180910390f35b61046c60048036038101906104679190613efb565b6119c2565b60405161047a929190614762565b60405180910390f35b61049d60048036038101906104989190613efb565b611d73565b6040516104aa91906147a8565b60405180910390f35b6104cd60048036038101906104c891906147ef565b611e6f565b6040516104da91906140b6565b60405180910390f35b6104fd60048036038101906104f89190613899565b611f96565b60405161050a9190614884565b60405180910390f35b61052d60048036038101906105289190614962565b612010565b60405161053a9190614b52565b60405180910390f35b61055d60048036038101906105589190613efb565b6120d1565b60405161056a91906140b6565b60405180910390f35b61058d60048036038101906105889190614bcf565b6121cb565b60405161059a9190614df9565b60405180910390f35b6105bd60048036038101906105b89190613efb565b61229c565b6040516105ca9190613eb4565b60405180910390f35b6105ed60048036038101906105e89190613899565b612395565b6040516105fa91906140b6565b60405180910390f35b61061d60048036038101906106189190613899565b612481565b60405161062a919061395f565b60405180910390f35b61064d60048036038101906106489190613899565b6124fe565b60405161065a91906140b6565b60405180910390f35b61067d60048036038101906106789190613899565b6125ea565b60405161068a9190614e1b565b60405180910390f35b6106ad60048036038101906106a89190613efb565b612664565b6040516106ba9190614e1b565b60405180910390f35b6106dd60048036038101906106d89190613efb565b612782565b6040516106ea91906140b6565b60405180910390f35b6106fb61287e565b6040516107089190614e57565b60405180910390f35b61072b60048036038101906107269190613efb565b612914565b6040516107389190614e1b565b60405180910390f35b61075b60048036038101906107569190613899565b612a0c565b6040516107689190614e1b565b60405180910390f35b61078b60048036038101906107869190613efb565b612aac565b60405161079891906147a8565b60405180910390f35b6107a9612b9f565b6040516107b69190614e93565b60405180910390f35b6107d960048036038101906107d49190614f04565b612bc3565b6040516107e7929190614762565b60405180910390f35b61080a60048036038101906108059190613899565b612f32565b604051610818929190614f78565b60405180910390f35b60608173ffffffffffffffffffffffffffffffffffffffff166306fdde036040518163ffffffff1660e01b8152600401600060405180830381865afa15801561086e573d6000803e3d6000fd5b505050506040513d6000823e3d601f19601f820116820180604052508101906108979190615047565b9050919050565b6108a6613573565b6108ae6135a0565b828073ffffffffffffffffffffffffffffffffffffffff166311da60b46040518163ffffffff1660e01b8152600401600060405180830381600087803b1580156108f757600080fd5b505af115801561090b573d6000803e3d6000fd5b505050508373ffffffffffffffffffffffffffffffffffffffff166359ea287d6040518163ffffffff1660e01b815260040160a060405180830381865afa15801561095a573d6000803e3d6000fd5b505050506040513d601f19601f8201168201806040525081019061097e9190615173565b610987856131d5565b9250925050915091565b6109996135ba565b6109a282610821565b81600001819052506109b382612481565b81602001819052508173ffffffffffffffffffffffffffffffffffffffff166305d5c1cb6040518163ffffffff1660e01b8152600401606060405180830381865afa158015610a06573d6000803e3d6000fd5b505050506040513d601f19601f82011682018060405250810190610a2a919061527a565b81604001819052508173ffffffffffffffffffffffffffffffffffffffff16637dc0d1d06040518163ffffffff1660e01b8152600401602060405180830381865afa158015610a7d573d6000803e3d6000fd5b505050506040513d601f19601f82011682018060405250810190610aa191906152e5565b816060019073ffffffffffffffffffffffffffffffffffffffff16908173ffffffffffffffffffffffffffffffffffffffff16815250508173ffffffffffffffffffffffffffffffffffffffff16636c376cc56040518163ffffffff1660e01b8152600401602060405180830381865afa158015610b23573d6000803e3d6000fd5b505050506040513d601f19601f82011682018060405250810190610b479190615312565b8160800181815250508173ffffffffffffffffffffffffffffffffffffffff16635d16e1206040518163ffffffff1660e01b8152600401602060405180830381865afa158015610b9b573d6000803e3d6000fd5b505050506040513d601f19601f82011682018060405250810190610bbf9190615312565b8160a00181815250508173ffffffffffffffffffffffffffffffffffffffff1663fc741c7c6040518163ffffffff1660e01b8152600401602060405180830381865afa158015610c13573d6000803e3d6000fd5b505050506040513d601f19601f82011682018060405250810190610c379190615312565b8160c00181815250508173ffffffffffffffffffffffffffffffffffffffff166343f0179b6040518163ffffffff1660e01b8152600401602060405180830381865afa158015610c8b573d6000803e3d6000fd5b505050506040513d601f19601f82011682018060405250810190610caf9190615312565b8160e00181815250508173ffffffffffffffffffffffffffffffffffffffff1663193775676040518163ffffffff1660e01b8152600401602060405180830381865afa158015610d03573d6000803e3d6000fd5b505050506040513d601f19601f82011682018060405250810190610d279190615312565b816101000181815250508173ffffffffffffffffffffffffffffffffffffffff1663a12e1b336040518163ffffffff1660e01b8152600401608060405180830381865afa158015610d7c573d6000803e3d6000fd5b505050506040513d601f19601f82011682018060405250810190610da0919061540f565b816101200181905250919050565b6000818073ffffffffffffffffffffffffffffffffffffffff166311da60b46040518163ffffffff1660e01b8152600401600060405180830381600087803b158015610df957600080fd5b505af1158015610e0d573d6000803e3d6000fd5b505050506000610e1c846131d5565b90508373ffffffffffffffffffffffffffffffffffffffff166360ec91d6826040518263ffffffff1660e01b8152600401610e579190614e1b565b602060405180830381865afa158015610e74573d6000803e3d6000fd5b505050506040513d601f19601f82011682018060405250810190610e989190615468565b92505050919050565b610ea9613573565b818073ffffffffffffffffffffffffffffffffffffffff166311da60b46040518163ffffffff1660e01b8152600401600060405180830381600087803b158015610ef257600080fd5b505af1158015610f06573d6000803e3d6000fd5b505050508273ffffffffffffffffffffffffffffffffffffffff166359ea287d6040518163ffffffff1660e01b815260040160a060405180830381865afa158015610f55573d6000803e3d6000fd5b505050506040513d601f19601f82011682018060405250810190610f799190615173565b915050919050565b610f8961362f565b82828073ffffffffffffffffffffffffffffffffffffffff1663f667f897836040518263ffffffff1660e01b8152600401610fc491906154a4565b600060405180830381600087803b158015610fde57600080fd5b505af1158015610ff2573d6000803e3d6000fd5b5050505083836000019073ffffffffffffffffffffffffffffffffffffffff16908173ffffffffffffffffffffffffffffffffffffffff168152505084836020019073ffffffffffffffffffffffffffffffffffffffff16908173ffffffffffffffffffffffffffffffffffffffff16815250506110708585612782565b836040018181525050611083858561142d565b836060018181525050611096858561229c565b83608001819052506110a88585612914565b8360a001819052506110ba8585611d73565b8360c00190151590811515815250506110d38585612aac565b8360e00190151590811515815250506110ec8585612664565b8361010001819052506110ff85856120d1565b836101200181815250506111138585611125565b83610140018181525050505092915050565b600082828073ffffffffffffffffffffffffffffffffffffffff1663f667f897836040518263ffffffff1660e01b815260040161116291906154a4565b600060405180830381600087803b15801561117c57600080fd5b505af1158015611190573d6000803e3d6000fd5b5050505060006111a08686612664565b90506111ba600082602001516132cb90919063ffffffff16565b156111cc57806020015193505061123e565b60006111d78661089e565b9150506111f2600082600001516132e290919063ffffffff16565b156112025760009450505061123e565b600061121f826000015183602001516132f990919063ffffffff16565b905061123883600001518261332290919063ffffffff16565b95505050505b505092915050565b61124e6136cb565b818073ffffffffffffffffffffffffffffffffffffffff166311da60b46040518163ffffffff1660e01b8152600401600060405180830381600087803b15801561129757600080fd5b505af11580156112ab573d6000803e3d6000fd5b505050506112b883610991565b826000018190525082826020019073ffffffffffffffffffffffffffffffffffffffff16908173ffffffffffffffffffffffffffffffffffffffff168152505061130183610dae565b826040018181525050611313836115a2565b82606001818152505061132583611f96565b82608001819052508273ffffffffffffffffffffffffffffffffffffffff16636c376cc56040518163ffffffff1660e01b8152600401602060405180830381865afa158015611378573d6000803e3d6000fd5b505050506040513d601f19601f8201168201806040525081019061139c9190615312565b8260a00181815250506113ae83612395565b8260c00181815250506113c0836124fe565b8260e00181815250506113d283610ea1565b8261010001819052506113e4836125ea565b8261012001819052506000806113f985612f32565b915091508184610140018181525050808461016001818152505061141c85612a0c565b846101800181905250505050919050565b600082828073ffffffffffffffffffffffffffffffffffffffff1663f667f897836040518263ffffffff1660e01b815260040161146a91906154a4565b600060405180830381600087803b15801561148457600080fd5b505af1158015611498573d6000803e3d6000fd5b505050506115988473ffffffffffffffffffffffffffffffffffffffff166391689024876040518263ffffffff1660e01b81526004016114d891906154a4565b602060405180830381865afa1580156114f5573d6000803e3d6000fd5b505050506040513d601f19601f820116820180604052508101906115199190615312565b8573ffffffffffffffffffffffffffffffffffffffff1663ab582f29886040518263ffffffff1660e01b815260040161155291906154a4565b602060405180830381865afa15801561156f573d6000803e3d6000fd5b505050506040513d601f19601f820116820180604052508101906115939190615312565b61334b565b9250505092915050565b6000818073ffffffffffffffffffffffffffffffffffffffff166311da60b46040518163ffffffff1660e01b8152600401600060405180830381600087803b1580156115ed57600080fd5b505af1158015611601573d6000803e3d6000fd5b505050506000611610846131d5565b90506116a96116216201518061335f565b8573ffffffffffffffffffffffffffffffffffffffff166360ec91d6846040518263ffffffff1660e01b815260040161165a9190614e1b565b602060405180830381865afa158015611677573d6000803e3d6000fd5b505050506040513d601f19601f8201168201806040525081019061169b9190615468565b61337c90919063ffffffff16565b92505050919050565b6116ba613573565b6116c26135a0565b83838073ffffffffffffffffffffffffffffffffffffffff1663f667f897836040518263ffffffff1660e01b81526004016116fd91906154a4565b600060405180830381600087803b15801561171757600080fd5b505af115801561172b573d6000803e3d6000fd5b505050508473ffffffffffffffffffffffffffffffffffffffff16631e0c6fb9876040518263ffffffff1660e01b815260040161176891906154a4565b60a060405180830381865afa158015611785573d6000803e3d6000fd5b505050506040513d601f19601f820116820180604052508101906117a99190615173565b8573ffffffffffffffffffffffffffffffffffffffff1663b7648fb9886040518263ffffffff1660e01b81526004016117e291906154a4565b6040805180830381865afa1580156117fe573d6000803e3d6000fd5b505050506040513d601f19601f8201168201806040525081019061182291906154bf565b9350935050509250929050565b6060828073ffffffffffffffffffffffffffffffffffffffff166311da60b46040518163ffffffff1660e01b8152600401600060405180830381600087803b15801561187a57600080fd5b505af115801561188e573d6000803e3d6000fd5b50505050825167ffffffffffffffff8111156118ad576118ac614347565b5b6040519080825280602002602001820160405280156118e657816020015b6118d3613767565b8152602001906001900390816118cb5790505b50915060005b83518110156119ba578473ffffffffffffffffffffffffffffffffffffffff16637ece075d858381518110611924576119236154ec565b5b60200260200101516040518263ffffffff1660e01b8152600401611948919061552a565b606060405180830381865afa158015611965573d6000803e3d6000fd5b505050506040513d601f19601f8201168201806040525081019061198991906155a9565b83828151811061199c5761199b6154ec565b5b602002602001018190525080806119b290615605565b9150506118ec565b505092915050565b60608083838073ffffffffffffffffffffffffffffffffffffffff1663f667f897836040518263ffffffff1660e01b8152600401611a0091906154a4565b600060405180830381600087803b158015611a1a57600080fd5b505af1158015611a2e573d6000803e3d6000fd5b5050505060007f000000000000000000000000000000000000000000000000000000000000000073ffffffffffffffffffffffffffffffffffffffff16636fc6407c6040518163ffffffff1660e01b8152600401602060405180830381865afa158015611a9f573d6000803e3d6000fd5b505050506040513d601f19601f82011682018060405250810190611ac3919061568b565b905060008173ffffffffffffffffffffffffffffffffffffffff166305d85eda886040518263ffffffff1660e01b8152600401611b0091906156d9565b602060405180830381865afa158015611b1d573d6000803e3d6000fd5b505050506040513d601f19601f82011682018060405250810190611b4191906156f4565b90508067ffffffffffffffff811115611b5d57611b5c614347565b5b604051908082528060200260200182016040528015611b8b5781602001602082028036833780820191505090505b5095508067ffffffffffffffff811115611ba857611ba7614347565b5b604051908082528060200260200182016040528015611bd65781602001602082028036833780820191505090505b50945060005b81811015611d675760008373ffffffffffffffffffffffffffffffffffffffff16632c3e50e58a846040518363ffffffff1660e01b8152600401611c21929190615721565b60c060405180830381865afa158015611c3e573d6000803e3d6000fd5b505050506040513d601f19601f82011682018060405250810190611c629190615802565b90508060800151888381518110611c7c57611c7b6154ec565b5b602002602001019073ffffffffffffffffffffffffffffffffffffffff16908173ffffffffffffffffffffffffffffffffffffffff16815250508373ffffffffffffffffffffffffffffffffffffffff166366f8162e8a8c856040518463ffffffff1660e01b8152600401611cf39392919061582f565b602060405180830381865afa158015611d10573d6000803e3d6000fd5b505050506040513d601f19601f82011682018060405250810190611d349190615312565b878381518110611d4757611d466154ec565b5b602002602001018181525050508080611d5f90615605565b915050611bdc565b50505050509250929050565b600082828073ffffffffffffffffffffffffffffffffffffffff1663f667f897836040518263ffffffff1660e01b8152600401611db091906154a4565b600060405180830381600087803b158015611dca57600080fd5b505af1158015611dde573d6000803e3d6000fd5b50505050611dea61287e565b73ffffffffffffffffffffffffffffffffffffffff166382df39de86866040518363ffffffff1660e01b8152600401611e24929190615866565b602060405180830381865afa158015611e41573d6000803e3d6000fd5b505050506040513d601f19601f82011682018060405250810190611e6591906158bb565b9250505092915050565b600083838073ffffffffffffffffffffffffffffffffffffffff1663f667f897836040518263ffffffff1660e01b8152600401611eac91906154a4565b600060405180830381600087803b158015611ec657600080fd5b505af1158015611eda573d6000803e3d6000fd5b505050506000611f07611ef8611eef886133a5565b6040015161349c565b8661332290919063ffffffff16565b9050611f8a8673ffffffffffffffffffffffffffffffffffffffff16636c376cc56040518163ffffffff1660e01b8152600401602060405180830381865afa158015611f57573d6000803e3d6000fd5b505050506040513d601f19601f82011682018060405250810190611f7b9190615312565b8261332290919063ffffffff16565b93505050509392505050565b611f9e613767565b818073ffffffffffffffffffffffffffffffffffffffff166311da60b46040518163ffffffff1660e01b8152600401600060405180830381600087803b158015611fe757600080fd5b505af1158015611ffb573d6000803e3d6000fd5b50505050612008836133a5565b915050919050565b6060815167ffffffffffffffff81111561202d5761202c614347565b5b60405190808252806020026020018201604052801561206657816020015b61205361362f565b81526020019060019003908161204b5790505b50905060005b82518110156120ca576120998484838151811061208c5761208b6154ec565b5b6020026020010151610f81565b8282815181106120ac576120ab6154ec565b5b602002602001018190525080806120c290615605565b91505061206c565b5092915050565b600082828073ffffffffffffffffffffffffffffffffffffffff1663f667f897836040518263ffffffff1660e01b815260040161210e91906154a4565b600060405180830381600087803b15801561212857600080fd5b505af115801561213c573d6000803e3d6000fd5b5050505061214861287e565b73ffffffffffffffffffffffffffffffffffffffff1663faaebd21866040518263ffffffff1660e01b815260040161218091906154a4565b602060405180830381865afa15801561219d573d6000803e3d6000fd5b505050506040513d601f19601f820116820180604052508101906121c19190615312565b9250505092915050565b60608282905067ffffffffffffffff8111156121ea576121e9614347565b5b60405190808252806020026020018201604052801561222357816020015b6122106136cb565b8152602001906001900390816122085790505b50905060005b838390508110156122955761226484848381811061224a576122496154ec565b5b905060200201602081019061225f9190613899565b611246565b828281518110612277576122766154ec565b5b6020026020010181905250808061228d90615605565b915050612229565b5092915050565b6122a4613573565b82828073ffffffffffffffffffffffffffffffffffffffff1663f667f897836040518263ffffffff1660e01b81526004016122df91906154a4565b600060405180830381600087803b1580156122f957600080fd5b505af115801561230d573d6000803e3d6000fd5b505050508373ffffffffffffffffffffffffffffffffffffffff16631e0c6fb9866040518263ffffffff1660e01b815260040161234a91906154a4565b60a060405180830381865afa158015612367573d6000803e3d6000fd5b505050506040513d601f19601f8201168201806040525081019061238b9190615173565b9250505092915050565b6000818073ffffffffffffffffffffffffffffffffffffffff166311da60b46040518163ffffffff1660e01b8152600401600060405180830381600087803b1580156123e057600080fd5b505af11580156123f4573d6000803e3d6000fd5b5050505061240061287e565b73ffffffffffffffffffffffffffffffffffffffff1663a5fdc5de846040518263ffffffff1660e01b815260040161243891906156d9565b602060405180830381865afa158015612455573d6000803e3d6000fd5b505050506040513d601f19601f820116820180604052508101906124799190615312565b915050919050565b60608173ffffffffffffffffffffffffffffffffffffffff166395d89b416040518163ffffffff1660e01b8152600401600060405180830381865afa1580156124ce573d6000803e3d6000fd5b505050506040513d6000823e3d601f19601f820116820180604052508101906124f79190615047565b9050919050565b6000818073ffffffffffffffffffffffffffffffffffffffff166311da60b46040518163ffffffff1660e01b8152600401600060405180830381600087803b15801561254957600080fd5b505af115801561255d573d6000803e3d6000fd5b5050505061256961287e565b73ffffffffffffffffffffffffffffffffffffffff1663b4d6f781846040518263ffffffff1660e01b81526004016125a191906156d9565b602060405180830381865afa1580156125be573d6000803e3d6000fd5b505050506040513d601f19601f820116820180604052508101906125e29190615312565b915050919050565b6125f26135a0565b818073ffffffffffffffffffffffffffffffffffffffff166311da60b46040518163ffffffff1660e01b8152600401600060405180830381600087803b15801561263b57600080fd5b505af115801561264f573d6000803e3d6000fd5b5050505061265c836131d5565b915050919050565b61266c6135a0565b82828073ffffffffffffffffffffffffffffffffffffffff1663f667f897836040518263ffffffff1660e01b81526004016126a791906154a4565b600060405180830381600087803b1580156126c157600080fd5b505af11580156126d5573d6000803e3d6000fd5b505050506127786126f16126e8866133a5565b6040015161349c565b8573ffffffffffffffffffffffffffffffffffffffff1663b7648fb9886040518263ffffffff1660e01b815260040161272a91906154a4565b6040805180830381865afa158015612746573d6000803e3d6000fd5b505050506040513d601f19601f8201168201806040525081019061276a91906154bf565b6134ae90919063ffffffff16565b9250505092915050565b600082828073ffffffffffffffffffffffffffffffffffffffff1663f667f897836040518263ffffffff1660e01b81526004016127bf91906154a4565b600060405180830381600087803b1580156127d957600080fd5b505af11580156127ed573d6000803e3d6000fd5b505050506127f961287e565b73ffffffffffffffffffffffffffffffffffffffff1663cc218ece86866040518363ffffffff1660e01b8152600401612833929190615866565b602060405180830381865afa158015612850573d6000803e3d6000fd5b505050506040513d601f19601f820116820180604052508101906128749190615312565b9250505092915050565b60007f000000000000000000000000000000000000000000000000000000000000000073ffffffffffffffffffffffffffffffffffffffff1663d8dfeb456040518163ffffffff1660e01b8152600401602060405180830381865afa1580156128eb573d6000803e3d6000fd5b505050506040513d601f19601f8201168201806040525081019061290f9190615926565b905090565b61291c6135a0565b82828073ffffffffffffffffffffffffffffffffffffffff1663f667f897836040518263ffffffff1660e01b815260040161295791906154a4565b600060405180830381600087803b15801561297157600080fd5b505af1158015612985573d6000803e3d6000fd5b505050508373ffffffffffffffffffffffffffffffffffffffff1663b7648fb9866040518263ffffffff1660e01b81526004016129c291906154a4565b6040805180830381865afa1580156129de573d6000803e3d6000fd5b505050506040513d601f19601f82011682018060405250810190612a0291906154bf565b9250505092915050565b612a146135a0565b818073ffffffffffffffffffffffffffffffffffffffff166311da60b46040518163ffffffff1660e01b8152600401600060405180830381600087803b158015612a5d57600080fd5b505af1158015612a71573d6000803e3d6000fd5b50505050612aa4612a8d612a84856133a5565b6040015161349c565b612a96856131d5565b6134ae90919063ffffffff16565b915050919050565b600082828073ffffffffffffffffffffffffffffffffffffffff1663f667f897836040518263ffffffff1660e01b8152600401612ae991906154a4565b600060405180830381600087803b158015612b0357600080fd5b505af1158015612b17573d6000803e3d6000fd5b505050508373ffffffffffffffffffffffffffffffffffffffff166358ca6f98866040518263ffffffff1660e01b8152600401612b5491906154a4565b602060405180830381865afa158015612b71573d6000803e3d6000fd5b505050506040513d601f19601f82011682018060405250810190612b9591906158bb565b9250505092915050565b7f000000000000000000000000000000000000000000000000000000000000000081565b60608085858073ffffffffffffffffffffffffffffffffffffffff1663f667f897836040518263ffffffff1660e01b8152600401612c0191906154a4565b600060405180830381600087803b158015612c1b57600080fd5b505af1158015612c2f573d6000803e3d6000fd5b5050505060007f000000000000000000000000000000000000000000000000000000000000000073ffffffffffffffffffffffffffffffffffffffff16636fc6407c6040518163ffffffff1660e01b8152600401602060405180830381865afa158015612ca0573d6000803e3d6000fd5b505050506040513d601f19601f82011682018060405250810190612cc4919061568b565b90508686905067ffffffffffffffff811115612ce357612ce2614347565b5b604051908082528060200260200182016040528015612d115781602001602082028036833780820191505090505b5094508686905067ffffffffffffffff811115612d3157612d30614347565b5b604051908082528060200260200182016040528015612d5f5781602001602082028036833780820191505090505b50935060005b87879050811015612f255760008273ffffffffffffffffffffffffffffffffffffffff16632c3e50e58b8b8b86818110612da257612da16154ec565b5b905060200201356040518363ffffffff1660e01b8152600401612dc6929190615721565b60c060405180830381865afa158015612de3573d6000803e3d6000fd5b505050506040513d601f19601f82011682018060405250810190612e079190615802565b90508060800151878381518110612e2157612e206154ec565b5b602002602001019073ffffffffffffffffffffffffffffffffffffffff16908173ffffffffffffffffffffffffffffffffffffffff16815250508273ffffffffffffffffffffffffffffffffffffffff166366f8162e8b8d8c8c87818110612e8c57612e8b6154ec565b5b905060200201356040518463ffffffff1660e01b8152600401612eb19392919061582f565b602060405180830381865afa158015612ece573d6000803e3d6000fd5b505050506040513d601f19601f82011682018060405250810190612ef29190615312565b868381518110612f0557612f046154ec565b5b602002602001018181525050508080612f1d90615605565b915050612d65565b5050505094509492505050565b600080828073ffffffffffffffffffffffffffffffffffffffff166311da60b46040518163ffffffff1660e01b8152600401600060405180830381600087803b158015612f7e57600080fd5b505af1158015612f92573d6000803e3d6000fd5b5050505060007f000000000000000000000000000000000000000000000000000000000000000073ffffffffffffffffffffffffffffffffffffffff166361d027b36040518163ffffffff1660e01b8152600401602060405180830381865afa158015613003573d6000803e3d6000fd5b505050506040513d601f19601f820116820180604052508101906130279190615968565b905060007f000000000000000000000000000000000000000000000000000000000000000073ffffffffffffffffffffffffffffffffffffffff16632d809cb6876040518263ffffffff1660e01b815260040161308491906156d9565b602060405180830381865afa1580156130a1573d6000803e3d6000fd5b505050506040513d601f19601f820116820180604052508101906130c59190615968565b90506130cf61287e565b73ffffffffffffffffffffffffffffffffffffffff1663faaebd21836040518263ffffffff1660e01b815260040161310791906154a4565b602060405180830381865afa158015613124573d6000803e3d6000fd5b505050506040513d601f19601f820116820180604052508101906131489190615312565b945061315261287e565b73ffffffffffffffffffffffffffffffffffffffff1663faaebd21826040518263ffffffff1660e01b815260040161318a91906154a4565b602060405180830381865afa1580156131a7573d6000803e3d6000fd5b505050506040513d601f19601f820116820180604052508101906131cb9190615312565b9350505050915091565b6131dd6135a0565b8173ffffffffffffffffffffffffffffffffffffffff16639a427d038373ffffffffffffffffffffffffffffffffffffffff1663c07f47d46040518163ffffffff1660e01b8152600401602060405180830381865afa158015613244573d6000803e3d6000fd5b505050506040513d601f19601f8201168201806040525081019061326891906156f4565b6040518263ffffffff1660e01b8152600401613284919061552a565b6040805180830381865afa1580156132a0573d6000803e3d6000fd5b505050506040513d601f19601f820116820180604052508101906132c491906154bf565b9050919050565b600060026132d984846134ff565b14905092915050565b600060016132f084846134ff565b14905092915050565b600081670de0b6b3a7640000846133109190615995565b61331a9190615a1e565b905092915050565b6000670de0b6b3a764000082846133399190615995565b6133439190615a1e565b905092915050565b6000613357838361353d565b905092915050565b6000670de0b6b3a7640000826133759190615a4f565b9050919050565b6000670de0b6b3a764000082846133939190615a4f565b61339d9190615b66565b905092915050565b6133ad613767565b8173ffffffffffffffffffffffffffffffffffffffff16637ece075d8373ffffffffffffffffffffffffffffffffffffffff1663c07f47d46040518163ffffffff1660e01b8152600401602060405180830381865afa158015613414573d6000803e3d6000fd5b505050506040513d601f19601f8201168201806040525081019061343891906156f4565b6040518263ffffffff1660e01b8152600401613454919061552a565b606060405180830381865afa158015613471573d6000803e3d6000fd5b505050506040513d601f19601f8201168201806040525081019061349591906155a9565b9050919050565b60006134a782613557565b9050919050565b6134b66135a0565b60405180604001604052806134d884866000015161332290919063ffffffff16565b81526020016134f484866020015161332290919063ffffffff16565b815250905092915050565b60008060008484915091508082111561351d57600292505050613537565b8082101561353057600092505050613537565b6001925050505b92915050565b60008183101561354d578161354f565b825b905092915050565b60008082121561356a578160000361356c565b815b9050919050565b60405180606001604052806000815260200161358d6135a0565b815260200161359a6135a0565b81525090565b604051806040016040528060008152602001600081525090565b60405180610140016040528060608152602001606081526020016135dc613788565b8152602001600073ffffffffffffffffffffffffffffffffffffffff16815260200160008152602001600081526020016000815260200160008152602001600081526020016136296137d2565b81525090565b604051806101600160405280600073ffffffffffffffffffffffffffffffffffffffff168152602001600073ffffffffffffffffffffffffffffffffffffffff168152602001600081526020016000815260200161368b613573565b81526020016136986135a0565b81526020016000151581526020016000151581526020016136b76135a0565b815260200160008152602001600081525090565b604051806101a001604052806136df6135ba565b8152602001600073ffffffffffffffffffffffffffffffffffffffff1681526020016000815260200160008152602001613717613767565b8152602001600081526020016000815260200160008152602001613739613573565b81526020016137466135a0565b815260200160008152602001600081526020016137616135a0565b81525090565b60405180606001604052806000815260200160008152602001600081525090565b6040518060600160405280600060018111156137a7576137a6613ae8565b5b8152602001600060018111156137c0576137bf613ae8565b5b8152602001600061ffff191681525090565b60405180608001604052806000600f0b81526020016000600f0b81526020016000600f0b815260200160006fffffffffffffffffffffffffffffffff1681525090565b6000604051905090565b600080fd5b600080fd5b600073ffffffffffffffffffffffffffffffffffffffff82169050919050565b600061385482613829565b9050919050565b600061386682613849565b9050919050565b6138768161385b565b811461388157600080fd5b50565b6000813590506138938161386d565b92915050565b6000602082840312156138af576138ae61381f565b5b60006138bd84828501613884565b91505092915050565b600081519050919050565b600082825260208201905092915050565b60005b838110156139005780820151818401526020810190506138e5565b8381111561390f576000848401525b50505050565b6000601f19601f8301169050919050565b6000613931826138c6565b61393b81856138d1565b935061394b8185602086016138e2565b61395481613915565b840191505092915050565b600060208201905081810360008301526139798184613926565b905092915050565b6000819050919050565b61399481613981565b82525050565b6000819050919050565b60006139bf6139ba6139b584613981565b61399a565b613981565b9050919050565b6139cf816139a4565b82525050565b6040820160008201516139eb60008501826139c6565b5060208201516139fe60208501826139c6565b50505050565b60a082016000820151613a1a600085018261398b565b506020820151613a2d60208501826139d5565b506040820151613a4060608501826139d5565b50505050565b604082016000820151613a5c60008501826139c6565b506020820151613a6f60208501826139c6565b50505050565b600060e082019050613a8a6000830185613a04565b613a9760a0830184613a46565b9392505050565b600082825260208201905092915050565b6000613aba826138c6565b613ac48185613a9e565b9350613ad48185602086016138e2565b613add81613915565b840191505092915050565b7f4e487b7100000000000000000000000000000000000000000000000000000000600052602160045260246000fd5b60028110613b2857613b27613ae8565b5b50565b6000819050613b3982613b17565b919050565b6000613b4982613b2b565b9050919050565b613b5981613b3e565b82525050565b60028110613b7057613b6f613ae8565b5b50565b6000819050613b8182613b5f565b919050565b6000613b9182613b73565b9050919050565b613ba181613b86565b82525050565b60007fffffffffffffffffffffffffffffffffffffffffffffffffffffffffffff000082169050919050565b613bdc81613ba7565b82525050565b606082016000820151613bf86000850182613b50565b506020820151613c0b6020850182613b98565b506040820151613c1e6040850182613bd3565b50505050565b6000613c3f613c3a613c3584613829565b61399a565b613829565b9050919050565b6000613c5182613c24565b9050919050565b6000613c6382613c46565b9050919050565b613c7381613c58565b82525050565b600081600f0b9050919050565b6000613ca1613c9c613c9784613c79565b61399a565b613c79565b9050919050565b613cb181613c86565b82525050565b60006fffffffffffffffffffffffffffffffff82169050919050565b6000613cee613ce9613ce484613cb7565b61399a565b613cb7565b9050919050565b613cfe81613cd3565b82525050565b608082016000820151613d1a6000850182613ca8565b506020820151613d2d6020850182613ca8565b506040820151613d406040850182613ca8565b506060820151613d536060850182613cf5565b50505050565b60006101e0830160008301518482036000860152613d778282613aaf565b91505060208301518482036020860152613d918282613aaf565b9150506040830151613da66040860182613be2565b506060830151613db960a0860182613c6a565b506080830151613dcc60c08601826139c6565b5060a0830151613ddf60e08601826139c6565b5060c0830151613df36101008601826139c6565b5060e0830151613e076101208601826139c6565b50610100830151613e1c6101408601826139c6565b50610120830151613e31610160860182613d04565b508091505092915050565b60006020820190508181036000830152613e568184613d59565b905092915050565b6000819050919050565b6000613e83613e7e613e7984613e5e565b61399a565b613e5e565b9050919050565b613e9381613e68565b82525050565b6000602082019050613eae6000830184613e8a565b92915050565b600060a082019050613ec96000830184613a04565b92915050565b613ed881613849565b8114613ee357600080fd5b50565b600081359050613ef581613ecf565b92915050565b60008060408385031215613f1257613f1161381f565b5b6000613f2085828601613ee6565b9250506020613f3185828601613884565b9150509250929050565b613f4481613849565b82525050565b60a082016000820151613f60600085018261398b565b506020820151613f7360208501826139d5565b506040820151613f8660608501826139d5565b50505050565b60008115159050919050565b613fa181613f8c565b82525050565b61022082016000820151613fbe6000850182613f3b565b506020820151613fd16020850182613f3b565b506040820151613fe460408501826139c6565b506060820151613ff760608501826139c6565b50608082015161400a6080850182613f4a565b5060a082015161401e6101208501826139d5565b5060c0820151614032610160850182613f98565b5060e0820151614046610180850182613f98565b5061010082015161405b6101a08501826139d5565b506101208201516140706101e08501826139c6565b506101408201516140856102008501826139c6565b50505050565b6000610220820190506140a16000830184613fa7565b92915050565b6140b0816139a4565b82525050565b60006020820190506140cb60008301846140a7565b92915050565b60006101e08301600083015184820360008601526140ef8282613aaf565b915050602083015184820360208601526141098282613aaf565b915050604083015161411e6040860182613be2565b50606083015161413160a0860182613c6a565b50608083015161414460c08601826139c6565b5060a083015161415760e08601826139c6565b5060c083015161416b6101008601826139c6565b5060e083015161417f6101208601826139c6565b506101008301516141946101408601826139c6565b506101208301516141a9610160860182613d04565b508091505092915050565b6141bd81613e68565b82525050565b6060820160008201516141d9600085018261398b565b5060208201516141ec602085018261398b565b5060408201516141ff60408501826141b4565b50505050565b60006102a083016000830151848203600086015261422382826140d1565b91505060208301516142386020860182613f3b565b50604083015161424b60408601826141b4565b50606083015161425e60608601826141b4565b50608083015161427160808601826141c3565b5060a083015161428460e08601826139c6565b5060c08301516142986101008601826139c6565b5060e08301516142ac6101208601826139c6565b506101008301516142c1610140860182613f4a565b506101208301516142d66101e08601826139d5565b506101408301516142eb6102208601826139c6565b506101608301516143006102408601826139c6565b506101808301516143156102608601826139d5565b508091505092915050565b6000602082019050818103600083015261433a8184614205565b905092915050565b600080fd5b7f4e487b7100000000000000000000000000000000000000000000000000000000600052604160045260246000fd5b61437f82613915565b810181811067ffffffffffffffff8211171561439e5761439d614347565b5b80604052505050565b60006143b1613815565b90506143bd8282614376565b919050565b600067ffffffffffffffff8211156143dd576143dc614347565b5b602082029050602081019050919050565b600080fd5b6143fc81613981565b811461440757600080fd5b50565b600081359050614419816143f3565b92915050565b600061443261442d846143c2565b6143a7565b90508083825260208201905060208402830185811115614455576144546143ee565b5b835b8181101561447e578061446a888261440a565b845260208401935050602081019050614457565b5050509392505050565b600082601f83011261449d5761449c614342565b5b81356144ad84826020860161441f565b91505092915050565b600080604083850312156144cd576144cc61381f565b5b60006144db85828601613884565b925050602083013567ffffffffffffffff8111156144fc576144fb613824565b5b61450885828601614488565b9150509250929050565b600081519050919050565b600082825260208201905092915050565b6000819050602082019050919050565b600061454a83836141c3565b60608301905092915050565b6000602082019050919050565b600061456e82614512565b614578818561451d565b93506145838361452e565b8060005b838110156145b457815161459b888261453e565b97506145a683614556565b925050600181019050614587565b5085935050505092915050565b600060208201905081810360008301526145db8184614563565b905092915050565b600081519050919050565b600082825260208201905092915050565b6000819050602082019050919050565b600061461a82613c46565b9050919050565b61462a8161460f565b82525050565b600061463c8383614621565b60208301905092915050565b6000602082019050919050565b6000614660826145e3565b61466a81856145ee565b9350614675836145ff565b8060005b838110156146a657815161468d8882614630565b975061469883614648565b925050600181019050614679565b5085935050505092915050565b600081519050919050565b600082825260208201905092915050565b6000819050602082019050919050565b60006146eb83836139c6565b60208301905092915050565b6000602082019050919050565b600061470f826146b3565b61471981856146be565b9350614724836146cf565b8060005b8381101561475557815161473c88826146df565b9750614747836146f7565b925050600181019050614728565b5085935050505092915050565b6000604082019050818103600083015261477c8185614655565b905081810360208301526147908184614704565b90509392505050565b6147a281613f8c565b82525050565b60006020820190506147bd6000830184614799565b92915050565b6147cc81613981565b81146147d757600080fd5b50565b6000813590506147e9816147c3565b92915050565b6000806000606084860312156148085761480761381f565b5b600061481686828701613ee6565b935050602061482786828701613884565b9250506040614838868287016147da565b9150509250925092565b606082016000820151614858600085018261398b565b50602082015161486b602085018261398b565b50604082015161487e60408501826141b4565b50505050565b60006060820190506148996000830184614842565b92915050565b600067ffffffffffffffff8211156148ba576148b9614347565b5b602082029050602081019050919050565b60006148de6148d98461489f565b6143a7565b90508083825260208201905060208402830185811115614901576149006143ee565b5b835b8181101561492a57806149168882613884565b845260208401935050602081019050614903565b5050509392505050565b600082601f83011261494957614948614342565b5b81356149598482602086016148cb565b91505092915050565b600080604083850312156149795761497861381f565b5b600061498785828601613ee6565b925050602083013567ffffffffffffffff8111156149a8576149a7613824565b5b6149b485828601614934565b9150509250929050565b600081519050919050565b600082825260208201905092915050565b6000819050602082019050919050565b61022082016000820151614a016000850182613f3b565b506020820151614a146020850182613f3b565b506040820151614a2760408501826139c6565b506060820151614a3a60608501826139c6565b506080820151614a4d6080850182613f4a565b5060a0820151614a616101208501826139d5565b5060c0820151614a75610160850182613f98565b5060e0820151614a89610180850182613f98565b50610100820151614a9e6101a08501826139d5565b50610120820151614ab36101e08501826139c6565b50610140820151614ac86102008501826139c6565b50505050565b6000614ada83836149ea565b6102208301905092915050565b6000602082019050919050565b6000614aff826149be565b614b0981856149c9565b9350614b14836149da565b8060005b83811015614b45578151614b2c8882614ace565b9750614b3783614ae7565b925050600181019050614b18565b5085935050505092915050565b60006020820190508181036000830152614b6c8184614af4565b905092915050565b600080fd5b60008083601f840112614b8f57614b8e614342565b5b8235905067ffffffffffffffff811115614bac57614bab614b74565b5b602083019150836020820283011115614bc857614bc76143ee565b5b9250929050565b60008060208385031215614be657614be561381f565b5b600083013567ffffffffffffffff811115614c0457614c03613824565b5b614c1085828601614b79565b92509250509250929050565b600081519050919050565b600082825260208201905092915050565b6000819050602082019050919050565b60006102a0830160008301518482036000860152614c6682826140d1565b9150506020830151614c7b6020860182613f3b565b506040830151614c8e60408601826141b4565b506060830151614ca160608601826141b4565b506080830151614cb460808601826141c3565b5060a0830151614cc760e08601826139c6565b5060c0830151614cdb6101008601826139c6565b5060e0830151614cef6101208601826139c6565b50610100830151614d04610140860182613f4a565b50610120830151614d196101e08601826139d5565b50610140830151614d2e6102208601826139c6565b50610160830151614d436102408601826139c6565b50610180830151614d586102608601826139d5565b508091505092915050565b6000614d6f8383614c48565b905092915050565b6000602082019050919050565b6000614d8f82614c1c565b614d998185614c27565b935083602082028501614dab85614c38565b8060005b85811015614de75784840389528151614dc88582614d63565b9450614dd383614d77565b925060208a01995050600181019050614daf565b50829750879550505050505092915050565b60006020820190508181036000830152614e138184614d84565b905092915050565b6000604082019050614e306000830184613a46565b92915050565b6000614e4182613c46565b9050919050565b614e5181614e36565b82525050565b6000602082019050614e6c6000830184614e48565b92915050565b6000614e7d82613c46565b9050919050565b614e8d81614e72565b82525050565b6000602082019050614ea86000830184614e84565b92915050565b60008083601f840112614ec457614ec3614342565b5b8235905067ffffffffffffffff811115614ee157614ee0614b74565b5b602083019150836020820283011115614efd57614efc6143ee565b5b9250929050565b60008060008060608587031215614f1e57614f1d61381f565b5b6000614f2c87828801613ee6565b9450506020614f3d87828801613884565b935050604085013567ffffffffffffffff811115614f5e57614f5d613824565b5b614f6a87828801614eae565b925092505092959194509250565b6000604082019050614f8d60008301856140a7565b614f9a60208301846140a7565b9392505050565b600080fd5b600067ffffffffffffffff821115614fc157614fc0614347565b5b614fca82613915565b9050602081019050919050565b6000614fea614fe584614fa6565b6143a7565b90508281526020810184848401111561500657615005614fa1565b5b6150118482856138e2565b509392505050565b600082601f83011261502e5761502d614342565b5b815161503e848260208601614fd7565b91505092915050565b60006020828403121561505d5761505c61381f565b5b600082015167ffffffffffffffff81111561507b5761507a613824565b5b61508784828501615019565b91505092915050565b600080fd5b6000815190506150a4816143f3565b92915050565b6000815190506150b9816147c3565b92915050565b6000604082840312156150d5576150d4615090565b5b6150df60406143a7565b905060006150ef848285016150aa565b6000830152506020615103848285016150aa565b60208301525092915050565b600060a0828403121561512557615124615090565b5b61512f60606143a7565b9050600061513f84828501615095565b6000830152506020615153848285016150bf565b6020830152506060615167848285016150bf565b60408301525092915050565b600060a082840312156151895761518861381f565b5b60006151978482850161510f565b91505092915050565b600281106151ad57600080fd5b50565b6000815190506151bf816151a0565b92915050565b600281106151d257600080fd5b50565b6000815190506151e4816151c5565b92915050565b6151f381613ba7565b81146151fe57600080fd5b50565b600081519050615210816151ea565b92915050565b60006060828403121561522c5761522b615090565b5b61523660606143a7565b90506000615246848285016151b0565b600083015250602061525a848285016151d5565b602083015250604061526e84828501615201565b60408301525092915050565b6000606082840312156152905761528f61381f565b5b600061529e84828501615216565b91505092915050565b60006152b282613849565b9050919050565b6152c2816152a7565b81146152cd57600080fd5b50565b6000815190506152df816152b9565b92915050565b6000602082840312156152fb576152fa61381f565b5b6000615309848285016152d0565b91505092915050565b6000602082840312156153285761532761381f565b5b6000615336848285016150aa565b91505092915050565b61534881613c79565b811461535357600080fd5b50565b6000815190506153658161533f565b92915050565b61537481613cb7565b811461537f57600080fd5b50565b6000815190506153918161536b565b92915050565b6000608082840312156153ad576153ac615090565b5b6153b760806143a7565b905060006153c784828501615356565b60008301525060206153db84828501615356565b60208301525060406153ef84828501615356565b604083015250606061540384828501615382565b60608301525092915050565b6000608082840312156154255761542461381f565b5b600061543384828501615397565b91505092915050565b61544581613e5e565b811461545057600080fd5b50565b6000815190506154628161543c565b92915050565b60006020828403121561547e5761547d61381f565b5b600061548c84828501615453565b91505092915050565b61549e81613849565b82525050565b60006020820190506154b96000830184615495565b92915050565b6000604082840312156154d5576154d461381f565b5b60006154e3848285016150bf565b91505092915050565b7f4e487b7100000000000000000000000000000000000000000000000000000000600052603260045260246000fd5b61552481613981565b82525050565b600060208201905061553f600083018461551b565b92915050565b60006060828403121561555b5761555a615090565b5b61556560606143a7565b9050600061557584828501615095565b600083015250602061558984828501615095565b602083015250604061559d84828501615453565b60408301525092915050565b6000606082840312156155bf576155be61381f565b5b60006155cd84828501615545565b91505092915050565b7f4e487b7100000000000000000000000000000000000000000000000000000000600052601160045260246000fd5b600061561082613981565b91507fffffffffffffffffffffffffffffffffffffffffffffffffffffffffffffffff8203615642576156416155d6565b5b600182019050919050565b600061565882613849565b9050919050565b6156688161564d565b811461567357600080fd5b50565b6000815190506156858161565f565b92915050565b6000602082840312156156a1576156a061381f565b5b60006156af84828501615676565b91505092915050565b60006156c382613c46565b9050919050565b6156d3816156b8565b82525050565b60006020820190506156ee60008301846156ca565b92915050565b60006020828403121561570a5761570961381f565b5b600061571884828501615095565b91505092915050565b600060408201905061573660008301856156ca565b615743602083018461551b565b9392505050565b61575381613849565b811461575e57600080fd5b50565b6000815190506157708161574a565b92915050565b600060c0828403121561578c5761578b615090565b5b61579660a06143a7565b905060006157a684828501615095565b60008301525060206157ba848285016150bf565b60208301525060606157ce84828501615095565b60408301525060806157e284828501615095565b60608301525060a06157f684828501615761565b60808301525092915050565b600060c082840312156158185761581761381f565b5b600061582684828501615776565b91505092915050565b600060608201905061584460008301866156ca565b6158516020830185615495565b61585e604083018461551b565b949350505050565b600060408201905061587b6000830185615495565b61588860208301846156ca565b9392505050565b61589881613f8c565b81146158a357600080fd5b50565b6000815190506158b58161588f565b92915050565b6000602082840312156158d1576158d061381f565b5b60006158df848285016158a6565b91505092915050565b60006158f382613849565b9050919050565b615903816158e8565b811461590e57600080fd5b50565b600081519050615920816158fa565b92915050565b60006020828403121561593c5761593b61381f565b5b600061594a84828501615911565b91505092915050565b60008151905061596281613ecf565b92915050565b60006020828403121561597e5761597d61381f565b5b600061598c84828501615953565b91505092915050565b60006159a082613981565b91506159ab83613981565b9250817fffffffffffffffffffffffffffffffffffffffffffffffffffffffffffffffff04831182151516156159e4576159e36155d6565b5b828202905092915050565b7f4e487b7100000000000000000000000000000000000000000000000000000000600052601260045260246000fd5b6000615a2982613981565b9150615a3483613981565b925082615a4457615a436159ef565b5b828204905092915050565b6000615a5a82613e5e565b9150615a6583613e5e565b9250827f7fffffffffffffffffffffffffffffffffffffffffffffffffffffffffffffff0482116000841360008413161615615aa457615aa36155d6565b5b817f80000000000000000000000000000000000000000000000000000000000000000583126000841260008413161615615ae157615ae06155d6565b5b827f80000000000000000000000000000000000000000000000000000000000000000582126000841360008412161615615b1e57615b1d6155d6565b5b827f7fffffffffffffffffffffffffffffffffffffffffffffffffffffffffffffff0582126000841260008412161615615b5b57615b5a6155d6565b5b828202905092915050565b6000615b7182613e5e565b9150615b7c83613e5e565b925082615b8c57615b8b6159ef565b5b600160000383147f800000000000000000000000000000000000000000000000000000000000000083141615615bc557615bc46155d6565b5b82820590509291505056fea2646970667358221220e650dd4b391677aa40c90d4f7f374c06bf08ad9fbde8ed1f78d106103771142064736f6c634300080f0033",
  "devdoc": {
    "kind": "dev",
    "methods": {
      "atVersions(address,uint256[])": {
        "params": {
          "product": "Product address",
          "versions": "Oracle versions to query"
        },
        "returns": {
          "prices": "Product prices at specified versions"
        }
      },
      "collateral()": {
        "returns": {
          "_0": "Protocol collateral address"
        }
      },
      "collateral(address)": {
        "params": {
          "product": "Product address"
        },
        "returns": {
          "_0": "Total collateral for product"
        }
      },
      "collateral(address,address)": {
        "params": {
          "account": "Account address",
          "product": "Product address"
        },
        "returns": {
          "_0": "User deposited collateral for product"
        }
      },
      "constructor": {
        "params": {
          "_controller": "Protocol controller address"
        }
      },
      "dailyRate(address)": {
        "params": {
          "product": "Product address"
        },
        "returns": {
          "_0": "Product current funding extrapolated to a daily rate"
        }
      },
      "exposure(address,address)": {
        "params": {
          "account": "Account address",
          "product": "Product address"
        },
        "returns": {
          "_0": "User's exposure (openInterest * utilization) after settle"
        }
      },
      "fees(address)": {
        "params": {
          "product": "Product address"
        },
        "returns": {
          "productFees": "fees accrued by the product owner",
          "protocolFees": "fees accrued by the protocol"
        }
      },
      "fees(address,address)": {
        "params": {
          "account": "Account address",
          "product": "Product address"
        },
        "returns": {
          "_0": "sum of all fees accrued by the account"
        }
      },
      "globalPosition(address)": {
        "params": {
          "product": "Product address"
        },
        "returns": {
          "_0": "Product pre-position",
          "_1": "Product position"
        }
      },
      "info(address)": {
        "params": {
          "product": "Product address"
        },
        "returns": {
          "_info": "of the product"
        }
      },
      "latestVersion(address)": {
        "params": {
          "product": "Product address"
        },
        "returns": {
          "_0": "Product latest price"
        }
      },
      "liquidatable(address,address)": {
        "params": {
          "account": "Account address",
          "product": "Product address"
        },
        "returns": {
          "_0": "Whether or not the user's position eligible to be liquidated"
        }
      },
      "maintenance(address,address)": {
        "params": {
          "account": "Account address",
          "product": "Product address"
        },
        "returns": {
          "_0": "Maximum of user maintenance, and maintenanceNext"
        }
      },
      "maintenanceRequired(address,address,uint256)": {
        "params": {
          "account": "Account address",
          "positionSize": "size of position for maintenance calculation",
          "product": "Product address"
        },
        "returns": {
          "_0": "Maintenance required for position in product"
        }
      },
      "name(address)": {
        "params": {
          "product": "Product address"
        },
        "returns": {
          "_0": "Name of the product"
        }
      },
      "openInterest(address)": {
        "params": {
          "product": "Product address"
        },
        "returns": {
          "_0": "Product maker and taker position multiplied by latest price after settle"
        }
      },
      "openInterest(address,address)": {
        "params": {
          "account": "Account address",
          "product": "Product address"
        },
        "returns": {
          "_0": "User's maker or taker position multiplied by latest price after settle"
        }
      },
      "position(address)": {
        "params": {
          "product": "Product address"
        },
        "returns": {
          "_0": "product position"
        }
      },
      "position(address,address)": {
        "params": {
          "account": "Account address",
          "product": "Product address"
        },
        "returns": {
          "_0": "User position"
        }
      },
      "pre(address)": {
        "params": {
          "product": "Product address"
        },
        "returns": {
          "_0": "Product pre-position"
        }
      },
      "pre(address,address)": {
        "params": {
          "account": "Account address",
          "product": "Product address"
        },
        "returns": {
          "_0": "User pre-position"
        }
      },
      "rate(address)": {
        "params": {
          "product": "Product address"
        },
        "returns": {
          "_0": "Product current funding rate"
        }
      },
      "shortfall(address)": {
        "params": {
          "product": "Product address"
        },
        "returns": {
          "_0": "Total shortfall for product"
        }
      },
      "snapshot(address)": {
        "params": {
          "product": "Product address"
        },
        "returns": {
          "_0": "Snapshot for the product after settle"
        }
      },
      "snapshot(address,address)": {
        "params": {
          "account": "User addresses",
          "product": "Product address"
        },
        "returns": {
          "_0": "UserSnapshot for the product after settle"
        }
      },
      "snapshots(address,address[])": {
        "params": {
          "account": "User addresses",
          "productAddresses": "Product addresses"
        },
        "returns": {
          "_0": "UserSnapshot for each product after settle"
        }
      },
      "snapshots(address[])": {
        "params": {
          "productAddresses": "Product addresses"
        },
        "returns": {
          "_0": "Snapshot for each product after settle"
        }
      },
      "symbol(address)": {
        "params": {
          "product": "Product address"
        },
        "returns": {
          "_0": "Symbol of the product"
        }
      },
      "unclaimedIncentiveRewards(address,address)": {
        "params": {
          "account": "Account address",
          "product": "Product address"
        },
        "returns": {
          "amounts": "Token amounts of unclaimed incentive rewards for given product",
          "tokens": "Token addresses of unclaimed incentive rewards for given product"
        }
      },
      "unclaimedIncentiveRewards(address,address,uint256[])": {
        "params": {
          "account": "Account address",
          "product": "Product address",
          "programIds": "Program IDs to query"
        },
        "returns": {
          "amounts": "Token amounts of unclaimed incentive rewards for given program IDs",
          "tokens": "Token addresses of unclaimed incentive rewards for given program IDs"
        }
      },
      "userPosition(address,address)": {
        "params": {
          "account": "Account address",
          "product": "Product address"
        },
        "returns": {
          "_0": "User pre-position",
          "_1": "User position"
        }
      }
    },
    "stateVariables": {
      "controller": {
        "return": "Protocol controller",
        "returns": {
          "_0": "Protocol controller"
        }
      }
    },
    "title": "Lens contract to conveniently pull protocol data",
    "version": 1
  },
  "userdoc": {
    "kind": "user",
    "methods": {
      "atVersions(address,uint256[])": {
        "notice": "Prices of product at specified versions after settle"
      },
      "collateral()": {
        "notice": "Protocol collateral address"
      },
      "collateral(address)": {
        "notice": "Product total collateral amount after settle"
      },
      "collateral(address,address)": {
        "notice": "User collateral amount for product after settle"
      },
      "controller()": {
        "notice": "Protocol controller"
      },
      "dailyRate(address)": {
        "notice": "Product funding extrapolated to a daily rate after settle"
      },
      "exposure(address,address)": {
        "notice": "User's exposure in product after settle"
      },
      "fees(address)": {
        "notice": "Fees accumulated by product and protocol treasuries after settle"
      },
      "fees(address,address)": {
        "notice": "Fees accumulated by account after settle"
      },
      "globalPosition(address)": {
        "notice": "Product pre-position and position after settle"
      },
      "info(address)": {
        "notice": "Returns the info of the provided `product`"
      },
      "latestVersion(address)": {
        "notice": "Current price of product after settle"
      },
      "liquidatable(address,address)": {
        "notice": "User liquidatble status for product after settle"
      },
      "maintenance(address,address)": {
        "notice": "User maintenance amount for product after settle"
      },
      "maintenanceRequired(address,address,uint256)": {
        "notice": "User's maintenance required for position size in product after settle"
      },
      "name(address)": {
        "notice": "Returns the name of the provided `product`"
      },
      "openInterest(address)": {
        "notice": "Product total open interest after settle"
      },
      "openInterest(address,address)": {
        "notice": "User's open interest in product after settle"
      },
      "position(address)": {
        "notice": "Product position after settle"
      },
      "position(address,address)": {
        "notice": "User position for product after settle"
      },
      "pre(address)": {
        "notice": "Product pre position after settle"
      },
      "pre(address,address)": {
        "notice": "User pre position for product after settle"
      },
      "rate(address)": {
        "notice": "Product funding rate after settle"
      },
      "shortfall(address)": {
        "notice": "Product total shortfall amount after settle"
      },
      "snapshot(address)": {
        "notice": "Returns the snapshot of the provided `product`"
      },
      "snapshot(address,address)": {
        "notice": "Returns the user snapshot for the provided `product`"
      },
      "snapshots(address,address[])": {
        "notice": "Returns the user snapshots for the provided `productAddresses`"
      },
      "snapshots(address[])": {
        "notice": "Returns the snapshots of the provided `productAddresses`"
      },
      "symbol(address)": {
        "notice": "Returns the symbol of the provided `product`"
      },
      "unclaimedIncentiveRewards(address,address)": {
        "notice": "User's unclaimed rewards for all programs for product after settle"
      },
      "unclaimedIncentiveRewards(address,address,uint256[])": {
        "notice": "User's unclaimed rewards for provided programs for product after settle"
      },
      "userPosition(address,address)": {
        "notice": "User pre-position and position for product after settle"
      }
    },
    "notice": "All functions should be called using `callStatic`",
    "version": 1
  },
  "storageLayout": {
    "storage": [],
    "types": null
  }
}