{
  "address": "0xCa4df162701eA1219B7B8747e4178CCca9EafAeF",
  "abi": [
    {
      "inputs": [
        {
          "internalType": "contract IController",
          "name": "_controller",
          "type": "address"
        }
      ],
      "stateMutability": "nonpayable",
      "type": "constructor"
    },
    {
      "inputs": [
        {
          "internalType": "contract IProduct",
          "name": "product",
          "type": "address"
        }
      ],
      "name": "collateral",
      "outputs": [
        {
          "internalType": "UFixed18",
          "name": "",
          "type": "uint256"
        }
      ],
      "stateMutability": "nonpayable",
      "type": "function"
    },
    {
      "inputs": [
        {
          "internalType": "address",
          "name": "account",
          "type": "address"
        },
        {
          "internalType": "contract IProduct",
          "name": "product",
          "type": "address"
        }
      ],
      "name": "collateral",
      "outputs": [
        {
          "internalType": "UFixed18",
          "name": "",
          "type": "uint256"
        }
      ],
      "stateMutability": "nonpayable",
      "type": "function"
    },
    {
      "inputs": [],
      "name": "collateral",
      "outputs": [
        {
          "internalType": "contract ICollateral",
          "name": "",
          "type": "address"
        }
      ],
      "stateMutability": "view",
      "type": "function"
    },
    {
      "inputs": [],
      "name": "controller",
      "outputs": [
        {
          "internalType": "contract IController",
          "name": "",
          "type": "address"
        }
      ],
      "stateMutability": "view",
      "type": "function"
    },
    {
      "inputs": [
        {
          "internalType": "contract IProduct",
          "name": "product",
          "type": "address"
        }
      ],
      "name": "dailyRate",
      "outputs": [
        {
          "internalType": "Fixed18",
          "name": "",
          "type": "int256"
        }
      ],
      "stateMutability": "nonpayable",
      "type": "function"
    },
    {
      "inputs": [
        {
          "internalType": "address",
          "name": "account",
          "type": "address"
        },
        {
          "internalType": "contract IProduct[]",
          "name": "products",
          "type": "address[]"
        }
      ],
      "name": "fees",
      "outputs": [
        {
          "internalType": "UFixed18",
          "name": "",
          "type": "uint256"
        }
      ],
      "stateMutability": "nonpayable",
      "type": "function"
    },
    {
      "inputs": [
        {
          "internalType": "contract IProduct",
          "name": "product",
          "type": "address"
        }
      ],
      "name": "fees",
      "outputs": [
        {
          "internalType": "UFixed18",
          "name": "protocolFees",
          "type": "uint256"
        },
        {
          "internalType": "UFixed18",
          "name": "productFees",
          "type": "uint256"
        }
      ],
      "stateMutability": "nonpayable",
      "type": "function"
    },
    {
      "inputs": [
        {
          "internalType": "contract IProduct",
          "name": "product",
          "type": "address"
        }
      ],
      "name": "globalPosition",
      "outputs": [
        {
          "components": [
            {
              "internalType": "uint256",
              "name": "oracleVersion",
              "type": "uint256"
            },
            {
              "components": [
                {
                  "internalType": "UFixed18",
                  "name": "maker",
                  "type": "uint256"
                },
                {
                  "internalType": "UFixed18",
                  "name": "taker",
                  "type": "uint256"
                }
              ],
              "internalType": "struct Position",
              "name": "openPosition",
              "type": "tuple"
            },
            {
              "components": [
                {
                  "internalType": "UFixed18",
                  "name": "maker",
                  "type": "uint256"
                },
                {
                  "internalType": "UFixed18",
                  "name": "taker",
                  "type": "uint256"
                }
              ],
              "internalType": "struct Position",
              "name": "closePosition",
              "type": "tuple"
            }
          ],
          "internalType": "struct PrePosition",
          "name": "",
          "type": "tuple"
        },
        {
          "components": [
            {
              "internalType": "UFixed18",
              "name": "maker",
              "type": "uint256"
            },
            {
              "internalType": "UFixed18",
              "name": "taker",
              "type": "uint256"
            }
          ],
          "internalType": "struct Position",
          "name": "",
          "type": "tuple"
        }
      ],
      "stateMutability": "nonpayable",
      "type": "function"
    },
    {
      "inputs": [
        {
          "internalType": "address",
          "name": "account",
          "type": "address"
        },
        {
          "internalType": "contract IProduct",
          "name": "product",
          "type": "address"
        }
      ],
      "name": "liquidatable",
      "outputs": [
        {
          "internalType": "bool",
          "name": "",
          "type": "bool"
        }
      ],
      "stateMutability": "nonpayable",
      "type": "function"
    },
    {
      "inputs": [
        {
          "internalType": "address",
          "name": "account",
          "type": "address"
        },
        {
          "internalType": "contract IProduct",
          "name": "product",
          "type": "address"
        }
      ],
      "name": "maintenance",
      "outputs": [
        {
          "internalType": "UFixed18",
          "name": "",
          "type": "uint256"
        }
      ],
      "stateMutability": "nonpayable",
      "type": "function"
    },
    {
      "inputs": [
        {
          "internalType": "address",
          "name": "account",
          "type": "address"
        },
        {
          "internalType": "contract IProduct",
          "name": "product",
          "type": "address"
        },
        {
          "internalType": "UFixed18",
          "name": "positionSize",
          "type": "uint256"
        }
      ],
      "name": "maintenanceRequired",
      "outputs": [
        {
          "internalType": "UFixed18",
          "name": "",
          "type": "uint256"
        }
      ],
      "stateMutability": "nonpayable",
      "type": "function"
    },
    {
      "inputs": [
        {
          "internalType": "contract IProduct",
          "name": "product",
          "type": "address"
        }
      ],
      "name": "name",
      "outputs": [
        {
          "internalType": "string",
          "name": "",
          "type": "string"
        }
      ],
      "stateMutability": "view",
      "type": "function"
    },
    {
      "inputs": [
        {
          "internalType": "address",
          "name": "account",
          "type": "address"
        },
        {
          "internalType": "contract IProduct",
          "name": "product",
          "type": "address"
        }
      ],
      "name": "openInterest",
      "outputs": [
        {
          "components": [
            {
              "internalType": "UFixed18",
              "name": "maker",
              "type": "uint256"
            },
            {
              "internalType": "UFixed18",
              "name": "taker",
              "type": "uint256"
            }
          ],
          "internalType": "struct Position",
          "name": "",
          "type": "tuple"
        }
      ],
      "stateMutability": "nonpayable",
      "type": "function"
    },
    {
      "inputs": [
        {
          "internalType": "contract IProduct",
          "name": "product",
          "type": "address"
        }
      ],
      "name": "openInterest",
      "outputs": [
        {
          "components": [
            {
              "internalType": "UFixed18",
              "name": "maker",
              "type": "uint256"
            },
            {
              "internalType": "UFixed18",
              "name": "taker",
              "type": "uint256"
            }
          ],
          "internalType": "struct Position",
          "name": "",
          "type": "tuple"
        }
      ],
      "stateMutability": "nonpayable",
      "type": "function"
    },
    {
      "inputs": [
        {
          "internalType": "contract IProduct",
          "name": "product",
          "type": "address"
        }
      ],
      "name": "position",
      "outputs": [
        {
          "components": [
            {
              "internalType": "UFixed18",
              "name": "maker",
              "type": "uint256"
            },
            {
              "internalType": "UFixed18",
              "name": "taker",
              "type": "uint256"
            }
          ],
          "internalType": "struct Position",
          "name": "",
          "type": "tuple"
        }
      ],
      "stateMutability": "nonpayable",
      "type": "function"
    },
    {
      "inputs": [
        {
          "internalType": "address",
          "name": "account",
          "type": "address"
        },
        {
          "internalType": "contract IProduct",
          "name": "product",
          "type": "address"
        }
      ],
      "name": "position",
      "outputs": [
        {
          "components": [
            {
              "internalType": "UFixed18",
              "name": "maker",
              "type": "uint256"
            },
            {
              "internalType": "UFixed18",
              "name": "taker",
              "type": "uint256"
            }
          ],
          "internalType": "struct Position",
          "name": "",
          "type": "tuple"
        }
      ],
      "stateMutability": "nonpayable",
      "type": "function"
    },
    {
      "inputs": [
        {
          "internalType": "contract IProduct",
          "name": "product",
          "type": "address"
        }
      ],
      "name": "pre",
      "outputs": [
        {
          "components": [
            {
              "internalType": "uint256",
              "name": "oracleVersion",
              "type": "uint256"
            },
            {
              "components": [
                {
                  "internalType": "UFixed18",
                  "name": "maker",
                  "type": "uint256"
                },
                {
                  "internalType": "UFixed18",
                  "name": "taker",
                  "type": "uint256"
                }
              ],
              "internalType": "struct Position",
              "name": "openPosition",
              "type": "tuple"
            },
            {
              "components": [
                {
                  "internalType": "UFixed18",
                  "name": "maker",
                  "type": "uint256"
                },
                {
                  "internalType": "UFixed18",
                  "name": "taker",
                  "type": "uint256"
                }
              ],
              "internalType": "struct Position",
              "name": "closePosition",
              "type": "tuple"
            }
          ],
          "internalType": "struct PrePosition",
          "name": "",
          "type": "tuple"
        }
      ],
      "stateMutability": "nonpayable",
      "type": "function"
    },
    {
      "inputs": [
        {
          "internalType": "address",
          "name": "account",
          "type": "address"
        },
        {
          "internalType": "contract IProduct",
          "name": "product",
          "type": "address"
        }
      ],
      "name": "pre",
      "outputs": [
        {
          "components": [
            {
              "internalType": "uint256",
              "name": "oracleVersion",
              "type": "uint256"
            },
            {
              "components": [
                {
                  "internalType": "UFixed18",
                  "name": "maker",
                  "type": "uint256"
                },
                {
                  "internalType": "UFixed18",
                  "name": "taker",
                  "type": "uint256"
                }
              ],
              "internalType": "struct Position",
              "name": "openPosition",
              "type": "tuple"
            },
            {
              "components": [
                {
                  "internalType": "UFixed18",
                  "name": "maker",
                  "type": "uint256"
                },
                {
                  "internalType": "UFixed18",
                  "name": "taker",
                  "type": "uint256"
                }
              ],
              "internalType": "struct Position",
              "name": "closePosition",
              "type": "tuple"
            }
          ],
          "internalType": "struct PrePosition",
          "name": "",
          "type": "tuple"
        }
      ],
      "stateMutability": "nonpayable",
      "type": "function"
    },
    {
      "inputs": [
        {
          "internalType": "contract IProduct",
          "name": "product",
          "type": "address"
        }
      ],
      "name": "price",
      "outputs": [
        {
          "internalType": "Fixed18",
          "name": "",
          "type": "int256"
        }
      ],
      "stateMutability": "nonpayable",
      "type": "function"
    },
    {
      "inputs": [
        {
          "internalType": "contract IProduct",
          "name": "product",
          "type": "address"
        }
      ],
      "name": "rate",
      "outputs": [
        {
          "internalType": "Fixed18",
          "name": "",
          "type": "int256"
        }
      ],
      "stateMutability": "nonpayable",
      "type": "function"
    },
    {
      "inputs": [
        {
          "internalType": "contract IProduct",
          "name": "product",
          "type": "address"
        }
      ],
      "name": "shortfall",
      "outputs": [
        {
          "internalType": "UFixed18",
          "name": "",
          "type": "uint256"
        }
      ],
      "stateMutability": "nonpayable",
      "type": "function"
    },
    {
      "inputs": [
        {
          "internalType": "contract IProduct",
          "name": "product",
          "type": "address"
        }
      ],
      "name": "symbol",
      "outputs": [
        {
          "internalType": "string",
          "name": "",
          "type": "string"
        }
      ],
      "stateMutability": "view",
      "type": "function"
    },
    {
      "inputs": [
        {
          "internalType": "address",
          "name": "account",
          "type": "address"
        },
        {
          "internalType": "contract IProduct",
          "name": "product",
          "type": "address"
        }
      ],
      "name": "userPosition",
      "outputs": [
        {
          "components": [
            {
              "internalType": "uint256",
              "name": "oracleVersion",
              "type": "uint256"
            },
            {
              "components": [
                {
                  "internalType": "UFixed18",
                  "name": "maker",
                  "type": "uint256"
                },
                {
                  "internalType": "UFixed18",
                  "name": "taker",
                  "type": "uint256"
                }
              ],
              "internalType": "struct Position",
              "name": "openPosition",
              "type": "tuple"
            },
            {
              "components": [
                {
                  "internalType": "UFixed18",
                  "name": "maker",
                  "type": "uint256"
                },
                {
                  "internalType": "UFixed18",
                  "name": "taker",
                  "type": "uint256"
                }
              ],
              "internalType": "struct Position",
              "name": "closePosition",
              "type": "tuple"
            }
          ],
          "internalType": "struct PrePosition",
          "name": "",
          "type": "tuple"
        },
        {
          "components": [
            {
              "internalType": "UFixed18",
              "name": "maker",
              "type": "uint256"
            },
            {
              "internalType": "UFixed18",
              "name": "taker",
              "type": "uint256"
            }
          ],
          "internalType": "struct Position",
          "name": "",
          "type": "tuple"
        }
      ],
      "stateMutability": "nonpayable",
      "type": "function"
    }
  ],
  "transactionHash": "0xb466b8762f11032373adb6f0cb6ea29117bea4504c00f8a118301aa836c73250",
  "args": [
    "0x77fC5A75Bf3Ea7c72f658c97E159EeabC055bea4"
  ],
  "numDeployments": 1,
  "solcInputHash": "669da26b2049a035994bb66b35ec132a",
  "bytecode": "0x60a06040523480156200001157600080fd5b506040516200258b3803806200258b833981016040819052620000349162000046565b6001600160a01b031660805262000078565b6000602082840312156200005957600080fd5b81516001600160a01b03811681146200007157600080fd5b9392505050565b6080516124e2620000a96000396000818161038f015281816115f10152818161195b0152611a1901526124e26000f3fe608060405234801561001057600080fd5b506004361061018d5760003560e01c8063a86e3576116100e3578063d8dfeb451161008c578063edd8ca7b11610066578063edd8ca7b14610377578063f77c47911461038a578063faaebd21146103b157600080fd5b8063d8dfeb4514610331578063db2ef22114610351578063e9c6b4c11461036457600080fd5b8063b7648fb9116100bd578063b7648fb9146102eb578063b7a98f971461030b578063cc218ece1461031e57600080fd5b8063a86e3576146102b2578063aea91078146102c5578063b4d6f781146102d857600080fd5b8063540027e6116101455780638e0769241161011f5780638e076924146102795780639be2a5671461028c578063a5fdc5de1461029f57600080fd5b8063540027e6146102305780636878353e1461024357806382df39de1461025657600080fd5b80630ba9d8ca116101765780630ba9d8ca146101dc5780631e0c6fb9146101fd57806337e710ac1461021d57600080fd5b80630198489214610192578063036790c0146101bb575b600080fd5b6101a56101a0366004611e9a565b6103d9565b6040516101b29190611ee7565b60405180910390f35b6101ce6101c9366004611e9a565b6104a8565b6040516101b2929190611f1a565b6101ef6101ea366004611e9a565b61058d565b6040519081526020016101b2565b61021061020b366004611e9a565b6106c6565b6040516101b29190611f61565b6101ef61022b366004611f97565b61078b565b6101ef61023e366004611e9a565b610955565b6101ce610251366004611f97565b610a9b565b610269610264366004611f97565b610c47565b60405190151581526020016101b2565b6101ef610287366004611fd0565b610d8e565b61021061029a366004611f97565b610f3b565b6101ef6102ad366004611e9a565b61105d565b6101a56102c0366004611e9a565b611141565b6101ef6102d3366004611e9a565b6111e2565b6101ef6102e6366004611e9a565b61124c565b6102fe6102f9366004611e9a565b6112f3565b6040516101b29190612011565b6102fe610319366004611f97565b611364565b6101ef61032c366004611f97565b6114a6565b6103396115ed565b6040516001600160a01b0390911681526020016101b2565b6101ef61035f36600461206f565b611676565b6102fe610372366004611f97565b611753565b6102fe610385366004611e9a565b611880565b6103397f000000000000000000000000000000000000000000000000000000000000000081565b6103c46103bf366004611e9a565b611900565b604080519283526020830191909152016101b2565b6060816001600160a01b0316639d8870a76040518163ffffffff1660e01b8152600401602060405180830381865afa158015610419573d6000803e3d6000fd5b505050506040513d601f19601f8201168201806040525081019061043d9190612136565b6001600160a01b03166306fdde036040518163ffffffff1660e01b8152600401600060405180830381865afa15801561047a573d6000803e3d6000fd5b505050506040513d6000823e601f3d908101601f191682016040526104a29190810190612153565b92915050565b6104b0611e2c565b604080518082019091526000808252602082015282806001600160a01b03166311da60b46040518163ffffffff1660e01b8152600401600060405180830381600087803b15801561050057600080fd5b505af1158015610514573d6000803e3d6000fd5b50505050836001600160a01b03166359ea287d6040518163ffffffff1660e01b815260040160a060405180830381865afa158015610556573d6000803e3d6000fd5b505050506040513d601f19601f8201168201806040525081019061057a9190612236565b61058385611b7a565b9250925050915091565b600081806001600160a01b03166311da60b46040518163ffffffff1660e01b8152600401600060405180830381600087803b1580156105cb57600080fd5b505af11580156105df573d6000803e3d6000fd5b5050505060006105ee84611b7a565b9050836001600160a01b0316639d8870a76040518163ffffffff1660e01b8152600401602060405180830381865afa15801561062e573d6000803e3d6000fd5b505050506040513d601f19601f820116820180604052508101906106529190612136565b6001600160a01b03166360ec91d6826040518263ffffffff1660e01b815260040161067d9190612011565b602060405180830381865afa15801561069a573d6000803e3d6000fd5b505050506040513d601f19601f820116820180604052508101906106be919061229d565b949350505050565b6106ce611e2c565b81806001600160a01b03166311da60b46040518163ffffffff1660e01b8152600401600060405180830381600087803b15801561070a57600080fd5b505af115801561071e573d6000803e3d6000fd5b50505050826001600160a01b03166359ea287d6040518163ffffffff1660e01b815260040160a060405180830381865afa158015610760573d6000803e3d6000fd5b505050506040513d601f19601f820116820180604052508101906107849190612236565b9392505050565b60008282806001600160a01b03166311da60b46040518163ffffffff1660e01b8152600401600060405180830381600087803b1580156107ca57600080fd5b505af11580156107de573d6000803e3d6000fd5b505060405163f667f89760e01b81526001600160a01b0385811660048301528416925063f667f8979150602401600060405180830381600087803b15801561082557600080fd5b505af1158015610839573d6000803e3d6000fd5b50506040517f916890240000000000000000000000000000000000000000000000000000000081526001600160a01b03888116600483015261094c935087169150639168902490602401602060405180830381865afa1580156108a0573d6000803e3d6000fd5b505050506040513d601f19601f820116820180604052508101906108c4919061229d565b6040517fab582f290000000000000000000000000000000000000000000000000000000081526001600160a01b03888116600483015287169063ab582f2990602401602060405180830381865afa158015610923573d6000803e3d6000fd5b505050506040513d601f19601f82011682018060405250810190610947919061229d565b611c5d565b95945050505050565b600081806001600160a01b03166311da60b46040518163ffffffff1660e01b8152600401600060405180830381600087803b15801561099357600080fd5b505af11580156109a7573d6000803e3d6000fd5b5050505060006109b684611b7a565b90506106be6109c762015180611c69565b856001600160a01b0316639d8870a76040518163ffffffff1660e01b8152600401602060405180830381865afa158015610a05573d6000803e3d6000fd5b505050506040513d601f19601f82011682018060405250810190610a299190612136565b6001600160a01b03166360ec91d6846040518263ffffffff1660e01b8152600401610a549190612011565b602060405180830381865afa158015610a71573d6000803e3d6000fd5b505050506040513d601f19601f82011682018060405250810190610a95919061229d565b90611c7d565b610aa3611e2c565b60408051808201909152600080825260208201528383806001600160a01b03166311da60b46040518163ffffffff1660e01b8152600401600060405180830381600087803b158015610af457600080fd5b505af1158015610b08573d6000803e3d6000fd5b505060405163f667f89760e01b81526001600160a01b0385811660048301528416925063f667f8979150602401600060405180830381600087803b158015610b4f57600080fd5b505af1158015610b63573d6000803e3d6000fd5b5050604051631e0c6fb960e01b81526001600160a01b03898116600483015288169250631e0c6fb9915060240160a060405180830381865afa158015610bad573d6000803e3d6000fd5b505050506040513d601f19601f82011682018060405250810190610bd19190612236565b60405163b7648fb960e01b81526001600160a01b03888116600483015287169063b7648fb9906024016040805180830381865afa158015610c16573d6000803e3d6000fd5b505050506040513d601f19601f82011682018060405250810190610c3a91906122b6565b9350935050509250929050565b60008282806001600160a01b03166311da60b46040518163ffffffff1660e01b8152600401600060405180830381600087803b158015610c8657600080fd5b505af1158015610c9a573d6000803e3d6000fd5b505060405163f667f89760e01b81526001600160a01b0385811660048301528416925063f667f8979150602401600060405180830381600087803b158015610ce157600080fd5b505af1158015610cf5573d6000803e3d6000fd5b50505050610d016115ed565b6040517f82df39de0000000000000000000000000000000000000000000000000000000081526001600160a01b038781166004830152868116602483015291909116906382df39de90604401602060405180830381865afa158015610d6a573d6000803e3d6000fd5b505050506040513d601f19601f8201168201806040525081019061094c91906122d2565b60008383806001600160a01b03166311da60b46040518163ffffffff1660e01b8152600401600060405180830381600087803b158015610dcd57600080fd5b505af1158015610de1573d6000803e3d6000fd5b505060405163f667f89760e01b81526001600160a01b0385811660048301528416925063f667f8979150602401600060405180830381600087803b158015610e2857600080fd5b505af1158015610e3c573d6000803e3d6000fd5b505050506000610e61610e5a610e5188611c9c565b60400151611d83565b8690611d8e565b9050610f30866001600160a01b0316639d8870a76040518163ffffffff1660e01b8152600401602060405180830381865afa158015610ea4573d6000803e3d6000fd5b505050506040513d601f19601f82011682018060405250810190610ec89190612136565b6001600160a01b0316636c376cc56040518163ffffffff1660e01b8152600401602060405180830381865afa158015610f05573d6000803e3d6000fd5b505050506040513d601f19601f82011682018060405250810190610f29919061229d565b8290611d8e565b979650505050505050565b610f43611e2c565b8282806001600160a01b03166311da60b46040518163ffffffff1660e01b8152600401600060405180830381600087803b158015610f8057600080fd5b505af1158015610f94573d6000803e3d6000fd5b505060405163f667f89760e01b81526001600160a01b0385811660048301528416925063f667f8979150602401600060405180830381600087803b158015610fdb57600080fd5b505af1158015610fef573d6000803e3d6000fd5b5050604051631e0c6fb960e01b81526001600160a01b03888116600483015287169250631e0c6fb9915060240160a060405180830381865afa158015611039573d6000803e3d6000fd5b505050506040513d601f19601f8201168201806040525081019061094c9190612236565b600081806001600160a01b03166311da60b46040518163ffffffff1660e01b8152600401600060405180830381600087803b15801561109b57600080fd5b505af11580156110af573d6000803e3d6000fd5b505050506110bb6115ed565b6040517fa5fdc5de0000000000000000000000000000000000000000000000000000000081526001600160a01b038581166004830152919091169063a5fdc5de906024015b602060405180830381865afa15801561111d573d6000803e3d6000fd5b505050506040513d601f19601f82011682018060405250810190610784919061229d565b6060816001600160a01b0316639d8870a76040518163ffffffff1660e01b8152600401602060405180830381865afa158015611181573d6000803e3d6000fd5b505050506040513d601f19601f820116820180604052508101906111a59190612136565b6001600160a01b03166395d89b416040518163ffffffff1660e01b8152600401600060405180830381865afa15801561047a573d6000803e3d6000fd5b600081806001600160a01b03166311da60b46040518163ffffffff1660e01b8152600401600060405180830381600087803b15801561122057600080fd5b505af1158015611234573d6000803e3d6000fd5b5050505061124183611c9c565b604001519392505050565b600081806001600160a01b03166311da60b46040518163ffffffff1660e01b8152600401600060405180830381600087803b15801561128a57600080fd5b505af115801561129e573d6000803e3d6000fd5b505050506112aa6115ed565b6040517fb4d6f7810000000000000000000000000000000000000000000000000000000081526001600160a01b038581166004830152919091169063b4d6f78190602401611100565b604080518082019091526000808252602082015281806001600160a01b03166311da60b46040518163ffffffff1660e01b8152600401600060405180830381600087803b15801561134357600080fd5b505af1158015611357573d6000803e3d6000fd5b5050505061078483611b7a565b60408051808201909152600080825260208201528282806001600160a01b03166311da60b46040518163ffffffff1660e01b8152600401600060405180830381600087803b1580156113b557600080fd5b505af11580156113c9573d6000803e3d6000fd5b505060405163f667f89760e01b81526001600160a01b0385811660048301528416925063f667f8979150602401600060405180830381600087803b15801561141057600080fd5b505af1158015611424573d6000803e3d6000fd5b5050505061094c611437610e5186611c9c565b60405163b7648fb960e01b81526001600160a01b03888116600483015287169063b7648fb9906024016040805180830381865afa15801561147c573d6000803e3d6000fd5b505050506040513d601f19601f820116820180604052508101906114a091906122b6565b90611dad565b60008282806001600160a01b03166311da60b46040518163ffffffff1660e01b8152600401600060405180830381600087803b1580156114e557600080fd5b505af11580156114f9573d6000803e3d6000fd5b505060405163f667f89760e01b81526001600160a01b0385811660048301528416925063f667f8979150602401600060405180830381600087803b15801561154057600080fd5b505af1158015611554573d6000803e3d6000fd5b505050506115606115ed565b6040517fcc218ece0000000000000000000000000000000000000000000000000000000081526001600160a01b0387811660048301528681166024830152919091169063cc218ece90604401602060405180830381865afa1580156115c9573d6000803e3d6000fd5b505050506040513d601f19601f8201168201806040525081019061094c919061229d565b60007f00000000000000000000000000000000000000000000000000000000000000006001600160a01b031663d8dfeb456040518163ffffffff1660e01b8152600401602060405180830381865afa15801561164d573d6000803e3d6000fd5b505050506040513d601f19601f820116820180604052508101906116719190612136565b905090565b6000805b825181101561170257828181518110611695576116956122f4565b60200260200101516001600160a01b03166311da60b46040518163ffffffff1660e01b8152600401600060405180830381600087803b1580156116d757600080fd5b505af11580156116eb573d6000803e3d6000fd5b5050505080806116fa90612320565b91505061167a565b5061170b6115ed565b60405163faaebd2160e01b81526001600160a01b038581166004830152919091169063faaebd2190602401602060405180830381865afa15801561111d573d6000803e3d6000fd5b60408051808201909152600080825260208201528282806001600160a01b03166311da60b46040518163ffffffff1660e01b8152600401600060405180830381600087803b1580156117a457600080fd5b505af11580156117b8573d6000803e3d6000fd5b505060405163f667f89760e01b81526001600160a01b0385811660048301528416925063f667f8979150602401600060405180830381600087803b1580156117ff57600080fd5b505af1158015611813573d6000803e3d6000fd5b505060405163b7648fb960e01b81526001600160a01b0388811660048301528716925063b7648fb991506024016040805180830381865afa15801561185c573d6000803e3d6000fd5b505050506040513d601f19601f8201168201806040525081019061094c91906122b6565b604080518082019091526000808252602082015281806001600160a01b03166311da60b46040518163ffffffff1660e01b8152600401600060405180830381600087803b1580156118d057600080fd5b505af11580156118e4573d6000803e3d6000fd5b505050506107846118f7610e5185611c9c565b6114a085611b7a565b60008082806001600160a01b03166311da60b46040518163ffffffff1660e01b8152600401600060405180830381600087803b15801561193f57600080fd5b505af1158015611953573d6000803e3d6000fd5b5050505060007f00000000000000000000000000000000000000000000000000000000000000006001600160a01b03166361d027b36040518163ffffffff1660e01b8152600401602060405180830381865afa1580156119b7573d6000803e3d6000fd5b505050506040513d601f19601f820116820180604052508101906119db9190612136565b6040517f2d809cb60000000000000000000000000000000000000000000000000000000081526001600160a01b0387811660048301529192506000917f00000000000000000000000000000000000000000000000000000000000000001690632d809cb690602401602060405180830381865afa158015611a60573d6000803e3d6000fd5b505050506040513d601f19601f82011682018060405250810190611a849190612136565b9050611a8e6115ed565b60405163faaebd2160e01b81526001600160a01b038481166004830152919091169063faaebd2190602401602060405180830381865afa158015611ad6573d6000803e3d6000fd5b505050506040513d601f19601f82011682018060405250810190611afa919061229d565b9450611b046115ed565b60405163faaebd2160e01b81526001600160a01b038381166004830152919091169063faaebd2190602401602060405180830381865afa158015611b4c573d6000803e3d6000fd5b505050506040513d601f19601f82011682018060405250810190611b70919061229d565b9350505050915091565b6040805180820190915260008082526020820152816001600160a01b0316639a427d03836001600160a01b031663c07f47d46040518163ffffffff1660e01b8152600401602060405180830381865afa158015611bdb573d6000803e3d6000fd5b505050506040513d601f19601f82011682018060405250810190611bff919061229d565b6040518263ffffffff1660e01b8152600401611c1d91815260200190565b6040805180830381865afa158015611c39573d6000803e3d6000fd5b505050506040513d601f19601f820116820180604052508101906104a291906122b6565b60006107848383611dfe565b60006104a2670de0b6b3a764000083612339565b6000670de0b6b3a7640000611c928385612339565b61078491906123ef565b611cc060405180606001604052806000815260200160008152602001600081525090565b816001600160a01b0316639d8870a76040518163ffffffff1660e01b8152600401602060405180830381865afa158015611cfe573d6000803e3d6000fd5b505050506040513d601f19601f82011682018060405250810190611d229190612136565b6001600160a01b0316639d888e866040518163ffffffff1660e01b8152600401606060405180830381865afa158015611d5f573d6000803e3d6000fd5b505050506040513d601f19601f820116820180604052508101906104a2919061241d565b60006104a282611e15565b6000670de0b6b3a7640000611da38385612479565b6107849190612498565b60408051808201909152600080825260208201526040805180820190915283518190611dd99085611d8e565b8152602001611df5848660200151611d8e90919063ffffffff16565b90529392505050565b600081831015611e0e5781610784565b5090919050565b600080821215611e2857816000036104a2565b5090565b604051806060016040528060008152602001611e5b604051806040016040528060008152602001600081525090565b8152602001611e7d604051806040016040528060008152602001600081525090565b905290565b6001600160a01b0381168114611e9757600080fd5b50565b600060208284031215611eac57600080fd5b813561078481611e82565b60005b83811015611ed2578181015183820152602001611eba565b83811115611ee1576000848401525b50505050565b6020815260008251806020840152611f06816040850160208701611eb7565b601f01601f19169190910160400192915050565b82518152602080840151805182840152810151604080840191909152840151805160608401520151608082015260e08101825160a0830152602083015160c0830152610784565b81518152602080830151805182840152810151604080840191909152830151805160608401520151608082015260a081016104a2565b60008060408385031215611faa57600080fd5b8235611fb581611e82565b91506020830135611fc581611e82565b809150509250929050565b600080600060608486031215611fe557600080fd5b8335611ff081611e82565b9250602084013561200081611e82565b929592945050506040919091013590565b8151815260208083015190820152604081016104a2565b634e487b7160e01b600052604160045260246000fd5b604051601f8201601f1916810167ffffffffffffffff8111828210171561206757612067612028565b604052919050565b6000806040838503121561208257600080fd5b823561208d81611e82565b915060208381013567ffffffffffffffff808211156120ab57600080fd5b818601915086601f8301126120bf57600080fd5b8135818111156120d1576120d1612028565b8060051b91506120e284830161203e565b81815291830184019184810190898411156120fc57600080fd5b938501935b83851015612126578435925061211683611e82565b8282529385019390850190612101565b8096505050505050509250929050565b60006020828403121561214857600080fd5b815161078481611e82565b60006020828403121561216557600080fd5b815167ffffffffffffffff8082111561217d57600080fd5b818401915084601f83011261219157600080fd5b8151818111156121a3576121a3612028565b6121b6601f8201601f191660200161203e565b91508082528560208285010111156121cd57600080fd5b6121de816020840160208601611eb7565b50949350505050565b6000604082840312156121f957600080fd5b6040516040810181811067ffffffffffffffff8211171561221c5761221c612028565b604052825181526020928301519281019290925250919050565b600060a0828403121561224857600080fd5b6040516060810181811067ffffffffffffffff8211171561226b5761226b612028565b6040528251815261227f84602085016121e7565b602082015261229184606085016121e7565b60408201529392505050565b6000602082840312156122af57600080fd5b5051919050565b6000604082840312156122c857600080fd5b61078483836121e7565b6000602082840312156122e457600080fd5b8151801515811461078457600080fd5b634e487b7160e01b600052603260045260246000fd5b634e487b7160e01b600052601160045260246000fd5b6000600182016123325761233261230a565b5060010190565b60007f7fffffffffffffffffffffffffffffffffffffffffffffffffffffffffffffff60008413600084138583048511828216161561237a5761237a61230a565b600160ff1b60008712868205881281841616156123995761239961230a565b600087129250878205871284841616156123b5576123b561230a565b878505871281841616156123cb576123cb61230a565b505050929093029392505050565b634e487b7160e01b600052601260045260246000fd5b6000826123fe576123fe6123d9565b600160ff1b8214600019841416156124185761241861230a565b500590565b60006060828403121561242f57600080fd5b6040516060810181811067ffffffffffffffff8211171561245257612452612028565b80604052508251815260208301516020820152604083015160408201528091505092915050565b60008160001904831182151516156124935761249361230a565b500290565b6000826124a7576124a76123d9565b50049056fea26469706673582212205a43ec37ce449862b09340a1371441b72c0de2498799b5e4dd18cf0f3f8db99464736f6c634300080d0033",
  "devdoc": {
    "kind": "dev",
    "methods": {},
    "version": 1
  },
  "userdoc": {
    "kind": "user",
    "methods": {},
    "version": 1
  },
  "storageLayout": {
    "storage": [],
    "types": null
  }
}