{
  "address": "0xB7B82132D5941e8Ddb69fF9034B5A9FDa9Bd39e0",
  "abi": [
    {
      "inputs": [
        {
          "internalType": "contract IController",
          "name": "_controller",
          "type": "address"
        }
      ],
      "stateMutability": "nonpayable",
      "type": "constructor"
    },
    {
      "inputs": [
        {
          "internalType": "contract IProduct",
          "name": "product",
          "type": "address"
        }
      ],
      "name": "collateral",
      "outputs": [
        {
          "internalType": "UFixed18",
          "name": "",
          "type": "uint256"
        }
      ],
      "stateMutability": "nonpayable",
      "type": "function"
    },
    {
      "inputs": [
        {
          "internalType": "address",
          "name": "account",
          "type": "address"
        },
        {
          "internalType": "contract IProduct",
          "name": "product",
          "type": "address"
        }
      ],
      "name": "collateral",
      "outputs": [
        {
          "internalType": "UFixed18",
          "name": "",
          "type": "uint256"
        }
      ],
      "stateMutability": "nonpayable",
      "type": "function"
    },
    {
      "inputs": [],
      "name": "collateral",
      "outputs": [
        {
          "internalType": "contract ICollateral",
          "name": "",
          "type": "address"
        }
      ],
      "stateMutability": "view",
      "type": "function"
    },
    {
      "inputs": [],
      "name": "controller",
      "outputs": [
        {
          "internalType": "contract IController",
          "name": "",
          "type": "address"
        }
      ],
      "stateMutability": "view",
      "type": "function"
    },
    {
      "inputs": [
        {
          "internalType": "contract IProduct",
          "name": "product",
          "type": "address"
        }
      ],
      "name": "dailyRate",
      "outputs": [
        {
          "internalType": "Fixed18",
          "name": "",
          "type": "int256"
        }
      ],
      "stateMutability": "nonpayable",
      "type": "function"
    },
    {
      "inputs": [
        {
          "internalType": "address",
          "name": "account",
          "type": "address"
        },
        {
          "internalType": "contract IProduct[]",
          "name": "products",
          "type": "address[]"
        }
      ],
      "name": "fees",
      "outputs": [
        {
          "internalType": "UFixed18",
          "name": "",
          "type": "uint256"
        }
      ],
      "stateMutability": "nonpayable",
      "type": "function"
    },
    {
      "inputs": [
        {
          "internalType": "contract IProduct",
          "name": "product",
          "type": "address"
        }
      ],
      "name": "fees",
      "outputs": [
        {
          "internalType": "UFixed18",
          "name": "protocolFees",
          "type": "uint256"
        },
        {
          "internalType": "UFixed18",
          "name": "productFees",
          "type": "uint256"
        }
      ],
      "stateMutability": "nonpayable",
      "type": "function"
    },
    {
      "inputs": [
        {
          "internalType": "contract IProduct",
          "name": "product",
          "type": "address"
        }
      ],
      "name": "globalPosition",
      "outputs": [
        {
          "components": [
            {
              "internalType": "uint256",
              "name": "oracleVersion",
              "type": "uint256"
            },
            {
              "components": [
                {
                  "internalType": "UFixed18",
                  "name": "maker",
                  "type": "uint256"
                },
                {
                  "internalType": "UFixed18",
                  "name": "taker",
                  "type": "uint256"
                }
              ],
              "internalType": "struct Position",
              "name": "openPosition",
              "type": "tuple"
            },
            {
              "components": [
                {
                  "internalType": "UFixed18",
                  "name": "maker",
                  "type": "uint256"
                },
                {
                  "internalType": "UFixed18",
                  "name": "taker",
                  "type": "uint256"
                }
              ],
              "internalType": "struct Position",
              "name": "closePosition",
              "type": "tuple"
            }
          ],
          "internalType": "struct PrePosition",
          "name": "",
          "type": "tuple"
        },
        {
          "components": [
            {
              "internalType": "UFixed18",
              "name": "maker",
              "type": "uint256"
            },
            {
              "internalType": "UFixed18",
              "name": "taker",
              "type": "uint256"
            }
          ],
          "internalType": "struct Position",
          "name": "",
          "type": "tuple"
        }
      ],
      "stateMutability": "nonpayable",
      "type": "function"
    },
    {
      "inputs": [
        {
          "internalType": "address",
          "name": "account",
          "type": "address"
        },
        {
          "internalType": "contract IProduct",
          "name": "product",
          "type": "address"
        }
      ],
      "name": "liquidatable",
      "outputs": [
        {
          "internalType": "bool",
          "name": "",
          "type": "bool"
        }
      ],
      "stateMutability": "nonpayable",
      "type": "function"
    },
    {
      "inputs": [
        {
          "internalType": "address",
          "name": "account",
          "type": "address"
        },
        {
          "internalType": "contract IProduct",
          "name": "product",
          "type": "address"
        }
      ],
      "name": "maintenance",
      "outputs": [
        {
          "internalType": "UFixed18",
          "name": "",
          "type": "uint256"
        }
      ],
      "stateMutability": "nonpayable",
      "type": "function"
    },
    {
      "inputs": [
        {
          "internalType": "address",
          "name": "account",
          "type": "address"
        },
        {
          "internalType": "contract IProduct",
          "name": "product",
          "type": "address"
        },
        {
          "internalType": "UFixed18",
          "name": "positionSize",
          "type": "uint256"
        }
      ],
      "name": "maintenanceRequired",
      "outputs": [
        {
          "internalType": "UFixed18",
          "name": "",
          "type": "uint256"
        }
      ],
      "stateMutability": "nonpayable",
      "type": "function"
    },
    {
      "inputs": [
        {
          "internalType": "contract IProduct",
          "name": "product",
          "type": "address"
        }
      ],
      "name": "name",
      "outputs": [
        {
          "internalType": "string",
          "name": "",
          "type": "string"
        }
      ],
      "stateMutability": "view",
      "type": "function"
    },
    {
      "inputs": [
        {
          "internalType": "address",
          "name": "account",
          "type": "address"
        },
        {
          "internalType": "contract IProduct",
          "name": "product",
          "type": "address"
        }
      ],
      "name": "openInterest",
      "outputs": [
        {
          "components": [
            {
              "internalType": "UFixed18",
              "name": "maker",
              "type": "uint256"
            },
            {
              "internalType": "UFixed18",
              "name": "taker",
              "type": "uint256"
            }
          ],
          "internalType": "struct Position",
          "name": "",
          "type": "tuple"
        }
      ],
      "stateMutability": "nonpayable",
      "type": "function"
    },
    {
      "inputs": [
        {
          "internalType": "contract IProduct",
          "name": "product",
          "type": "address"
        }
      ],
      "name": "openInterest",
      "outputs": [
        {
          "components": [
            {
              "internalType": "UFixed18",
              "name": "maker",
              "type": "uint256"
            },
            {
              "internalType": "UFixed18",
              "name": "taker",
              "type": "uint256"
            }
          ],
          "internalType": "struct Position",
          "name": "",
          "type": "tuple"
        }
      ],
      "stateMutability": "nonpayable",
      "type": "function"
    },
    {
      "inputs": [
        {
          "internalType": "contract IProduct",
          "name": "product",
          "type": "address"
        }
      ],
      "name": "position",
      "outputs": [
        {
          "components": [
            {
              "internalType": "UFixed18",
              "name": "maker",
              "type": "uint256"
            },
            {
              "internalType": "UFixed18",
              "name": "taker",
              "type": "uint256"
            }
          ],
          "internalType": "struct Position",
          "name": "",
          "type": "tuple"
        }
      ],
      "stateMutability": "nonpayable",
      "type": "function"
    },
    {
      "inputs": [
        {
          "internalType": "address",
          "name": "account",
          "type": "address"
        },
        {
          "internalType": "contract IProduct",
          "name": "product",
          "type": "address"
        }
      ],
      "name": "position",
      "outputs": [
        {
          "components": [
            {
              "internalType": "UFixed18",
              "name": "maker",
              "type": "uint256"
            },
            {
              "internalType": "UFixed18",
              "name": "taker",
              "type": "uint256"
            }
          ],
          "internalType": "struct Position",
          "name": "",
          "type": "tuple"
        }
      ],
      "stateMutability": "nonpayable",
      "type": "function"
    },
    {
      "inputs": [
        {
          "internalType": "contract IProduct",
          "name": "product",
          "type": "address"
        }
      ],
      "name": "pre",
      "outputs": [
        {
          "components": [
            {
              "internalType": "uint256",
              "name": "oracleVersion",
              "type": "uint256"
            },
            {
              "components": [
                {
                  "internalType": "UFixed18",
                  "name": "maker",
                  "type": "uint256"
                },
                {
                  "internalType": "UFixed18",
                  "name": "taker",
                  "type": "uint256"
                }
              ],
              "internalType": "struct Position",
              "name": "openPosition",
              "type": "tuple"
            },
            {
              "components": [
                {
                  "internalType": "UFixed18",
                  "name": "maker",
                  "type": "uint256"
                },
                {
                  "internalType": "UFixed18",
                  "name": "taker",
                  "type": "uint256"
                }
              ],
              "internalType": "struct Position",
              "name": "closePosition",
              "type": "tuple"
            }
          ],
          "internalType": "struct PrePosition",
          "name": "",
          "type": "tuple"
        }
      ],
      "stateMutability": "nonpayable",
      "type": "function"
    },
    {
      "inputs": [
        {
          "internalType": "address",
          "name": "account",
          "type": "address"
        },
        {
          "internalType": "contract IProduct",
          "name": "product",
          "type": "address"
        }
      ],
      "name": "pre",
      "outputs": [
        {
          "components": [
            {
              "internalType": "uint256",
              "name": "oracleVersion",
              "type": "uint256"
            },
            {
              "components": [
                {
                  "internalType": "UFixed18",
                  "name": "maker",
                  "type": "uint256"
                },
                {
                  "internalType": "UFixed18",
                  "name": "taker",
                  "type": "uint256"
                }
              ],
              "internalType": "struct Position",
              "name": "openPosition",
              "type": "tuple"
            },
            {
              "components": [
                {
                  "internalType": "UFixed18",
                  "name": "maker",
                  "type": "uint256"
                },
                {
                  "internalType": "UFixed18",
                  "name": "taker",
                  "type": "uint256"
                }
              ],
              "internalType": "struct Position",
              "name": "closePosition",
              "type": "tuple"
            }
          ],
          "internalType": "struct PrePosition",
          "name": "",
          "type": "tuple"
        }
      ],
      "stateMutability": "nonpayable",
      "type": "function"
    },
    {
      "inputs": [
        {
          "internalType": "contract IProduct",
          "name": "product",
          "type": "address"
        }
      ],
      "name": "price",
      "outputs": [
        {
          "internalType": "Fixed18",
          "name": "",
          "type": "int256"
        }
      ],
      "stateMutability": "nonpayable",
      "type": "function"
    },
    {
      "inputs": [
        {
          "internalType": "contract IProduct",
          "name": "product",
          "type": "address"
        },
        {
          "internalType": "uint256",
          "name": "version",
          "type": "uint256"
        }
      ],
      "name": "priceAtVersion",
      "outputs": [
        {
          "internalType": "Fixed18",
          "name": "",
          "type": "int256"
        }
      ],
      "stateMutability": "nonpayable",
      "type": "function"
    },
    {
      "inputs": [
        {
          "internalType": "contract IProduct",
          "name": "product",
          "type": "address"
        },
        {
          "internalType": "uint256[]",
          "name": "versions",
          "type": "uint256[]"
        }
      ],
      "name": "pricesAtVersions",
      "outputs": [
        {
          "internalType": "Fixed18[]",
          "name": "prices",
          "type": "int256[]"
        }
      ],
      "stateMutability": "nonpayable",
      "type": "function"
    },
    {
      "inputs": [
        {
          "internalType": "contract IProduct",
          "name": "product",
          "type": "address"
        }
      ],
      "name": "rate",
      "outputs": [
        {
          "internalType": "Fixed18",
          "name": "",
          "type": "int256"
        }
      ],
      "stateMutability": "nonpayable",
      "type": "function"
    },
    {
      "inputs": [
        {
          "internalType": "contract IProduct",
          "name": "product",
          "type": "address"
        }
      ],
      "name": "shortfall",
      "outputs": [
        {
          "internalType": "UFixed18",
          "name": "",
          "type": "uint256"
        }
      ],
      "stateMutability": "nonpayable",
      "type": "function"
    },
    {
      "inputs": [
        {
          "internalType": "contract IProduct",
          "name": "product",
          "type": "address"
        }
      ],
      "name": "symbol",
      "outputs": [
        {
          "internalType": "string",
          "name": "",
          "type": "string"
        }
      ],
      "stateMutability": "view",
      "type": "function"
    },
    {
      "inputs": [
        {
          "internalType": "address",
          "name": "account",
          "type": "address"
        },
        {
          "internalType": "contract IProduct",
          "name": "product",
          "type": "address"
        }
      ],
      "name": "unclaimedIncentiveRewards",
      "outputs": [
        {
          "internalType": "Token18[]",
          "name": "tokens",
          "type": "address[]"
        },
        {
          "internalType": "UFixed18[]",
          "name": "amounts",
          "type": "uint256[]"
        }
      ],
      "stateMutability": "nonpayable",
      "type": "function"
    },
    {
      "inputs": [
        {
          "internalType": "address",
          "name": "account",
          "type": "address"
        },
        {
          "internalType": "contract IProduct",
          "name": "product",
          "type": "address"
        },
        {
          "internalType": "uint256[]",
          "name": "programIds",
          "type": "uint256[]"
        }
      ],
      "name": "unclaimedIncentiveRewards",
      "outputs": [
        {
          "internalType": "Token18[]",
          "name": "tokens",
          "type": "address[]"
        },
        {
          "internalType": "UFixed18[]",
          "name": "amounts",
          "type": "uint256[]"
        }
      ],
      "stateMutability": "nonpayable",
      "type": "function"
    },
    {
      "inputs": [
        {
          "internalType": "address",
          "name": "account",
          "type": "address"
        },
        {
          "internalType": "contract IProduct",
          "name": "product",
          "type": "address"
        }
      ],
      "name": "userPosition",
      "outputs": [
        {
          "components": [
            {
              "internalType": "uint256",
              "name": "oracleVersion",
              "type": "uint256"
            },
            {
              "components": [
                {
                  "internalType": "UFixed18",
                  "name": "maker",
                  "type": "uint256"
                },
                {
                  "internalType": "UFixed18",
                  "name": "taker",
                  "type": "uint256"
                }
              ],
              "internalType": "struct Position",
              "name": "openPosition",
              "type": "tuple"
            },
            {
              "components": [
                {
                  "internalType": "UFixed18",
                  "name": "maker",
                  "type": "uint256"
                },
                {
                  "internalType": "UFixed18",
                  "name": "taker",
                  "type": "uint256"
                }
              ],
              "internalType": "struct Position",
              "name": "closePosition",
              "type": "tuple"
            }
          ],
          "internalType": "struct PrePosition",
          "name": "",
          "type": "tuple"
        },
        {
          "components": [
            {
              "internalType": "UFixed18",
              "name": "maker",
              "type": "uint256"
            },
            {
              "internalType": "UFixed18",
              "name": "taker",
              "type": "uint256"
            }
          ],
          "internalType": "struct Position",
          "name": "",
          "type": "tuple"
        }
      ],
      "stateMutability": "nonpayable",
      "type": "function"
    }
  ],
  "transactionHash": "0x7bb920241c36a5d6d6aa62c67f6e8aaf9f41ae216350b6780297c272a702029b",
  "args": [
    "0x1927DE7c9765Ae74050D1d0aa8BB0e93D737F579"
  ],
  "numDeployments": 1,
  "solcInputHash": "e484d2e5fa479b8a786df3b9532acd09",
  "bytecode": "0x60a06040523480156200001157600080fd5b506040516200403d3803806200403d8339818101604052810190620000379190620000f0565b8073ffffffffffffffffffffffffffffffffffffffff1660808173ffffffffffffffffffffffffffffffffffffffff16815250505062000122565b600080fd5b600073ffffffffffffffffffffffffffffffffffffffff82169050919050565b6000620000a48262000077565b9050919050565b6000620000b88262000097565b9050919050565b620000ca81620000ab565b8114620000d657600080fd5b50565b600081519050620000ea81620000bf565b92915050565b60006020828403121562000109576200010862000072565b5b60006200011984828501620000d9565b91505092915050565b608051613edc6200016160003960008181610e6801528181611b1001528181611ff101528181612087015281816123ea015261247d0152613edc6000f3fe608060405234801561001057600080fd5b50600436106101b95760003560e01c8063aea91078116100f9578063db2ef22111610097578063f1c1918911610071578063f1c19189146105ff578063f77c47911461062f578063f8083f561461064d578063faaebd211461067e576101b9565b8063db2ef2211461056f578063e9c6b4c11461059f578063edd8ca7b146105cf576101b9565b8063b7a98f97116100d3578063b7a98f97146104c1578063cc218ece146104f1578063d45cae8214610521578063d8dfeb4514610551576101b9565b8063aea9107814610431578063b4d6f78114610461578063b7648fb914610491576101b9565b80636878353e116101665780638e076924116101405780638e076924146103715780639be2a567146103a1578063a5fdc5de146103d1578063a86e357614610401576101b9565b80636878353e146102df5780637e64cc131461031057806382df39de14610341576101b9565b80631e0c6fb9116101975780631e0c6fb91461024f57806337e710ac1461027f578063540027e6146102af576101b9565b806301984892146101be578063036790c0146101ee5780630ba9d8ca1461021f575b600080fd5b6101d860048036038101906101d391906129a1565b6106af565b6040516101e59190612a67565b60405180910390f35b610208600480360381019061020391906129a1565b61072c565b604051610216929190612b7d565b60405180910390f35b610239600480360381019061023491906129a1565b61081f565b6040516102469190612be1565b60405180910390f35b610269600480360381019061026491906129a1565b610912565b6040516102769190612bfc565b60405180910390f35b61029960048036038101906102949190612c43565b6109f2565b6040516102a69190612c92565b60405180910390f35b6102c960048036038101906102c491906129a1565b610b67565b6040516102d69190612be1565b60405180910390f35b6102f960048036038101906102f49190612c43565b610c77565b604051610307929190612b7d565b60405180910390f35b61032a60048036038101906103259190612c43565b610df4565b604051610338929190612e60565b60405180910390f35b61035b60048036038101906103569190612c43565b6111a5565b6040516103689190612eb2565b60405180910390f35b61038b60048036038101906103869190612ef9565b6112a1565b6040516103989190612c92565b60405180910390f35b6103bb60048036038101906103b69190612c43565b6113c8565b6040516103c89190612bfc565b60405180910390f35b6103eb60048036038101906103e691906129a1565b6114c1565b6040516103f89190612c92565b60405180910390f35b61041b600480360381019061041691906129a1565b6115ad565b6040516104289190612a67565b60405180910390f35b61044b600480360381019061044691906129a1565b61162a565b6040516104589190612be1565b60405180910390f35b61047b600480360381019061047691906129a1565b6116a2565b6040516104889190612c92565b60405180910390f35b6104ab60048036038101906104a691906129a1565b61178e565b6040516104b89190612f4c565b60405180910390f35b6104db60048036038101906104d69190612c43565b611808565b6040516104e89190612f4c565b60405180910390f35b61050b60048036038101906105069190612c43565b611926565b6040516105189190612c92565b60405180910390f35b61053b60048036038101906105369190612f93565b611a22565b6040516105489190612be1565b60405180910390f35b610559611b0c565b6040516105669190612ff4565b60405180910390f35b61058960048036038101906105849190613157565b611ba2565b6040516105969190612c92565b60405180910390f35b6105b960048036038101906105b49190612c43565b611cca565b6040516105c69190612f4c565b60405180910390f35b6105e960048036038101906105e491906129a1565b611dc2565b6040516105f69190612f4c565b60405180910390f35b61061960048036038101906106149190613276565b611e62565b6040516106269190613390565b60405180910390f35b610637611fef565b60405161064491906133d3565b60405180910390f35b61066760048036038101906106629190613449565b612013565b604051610675929190612e60565b60405180910390f35b610698600480360381019061069391906129a1565b612382565b6040516106a69291906134bd565b60405180910390f35b60608173ffffffffffffffffffffffffffffffffffffffff166306fdde036040518163ffffffff1660e01b8152600401600060405180830381865afa1580156106fc573d6000803e3d6000fd5b505050506040513d6000823e3d601f19601f82011682018060405250810190610725919061358c565b9050919050565b6107346128b5565b61073c6128e2565b828073ffffffffffffffffffffffffffffffffffffffff166311da60b46040518163ffffffff1660e01b8152600401600060405180830381600087803b15801561078557600080fd5b505af1158015610799573d6000803e3d6000fd5b505050508373ffffffffffffffffffffffffffffffffffffffff166359ea287d6040518163ffffffff1660e01b815260040160a060405180830381865afa1580156107e8573d6000803e3d6000fd5b505050506040513d601f19601f8201168201806040525081019061080c91906136b8565b61081585612625565b9250925050915091565b6000818073ffffffffffffffffffffffffffffffffffffffff166311da60b46040518163ffffffff1660e01b8152600401600060405180830381600087803b15801561086a57600080fd5b505af115801561087e573d6000803e3d6000fd5b50505050600061088d84612625565b90508373ffffffffffffffffffffffffffffffffffffffff166360ec91d6826040518263ffffffff1660e01b81526004016108c89190612f4c565b602060405180830381865afa1580156108e5573d6000803e3d6000fd5b505050506040513d601f19601f820116820180604052508101906109099190613711565b92505050919050565b61091a6128b5565b818073ffffffffffffffffffffffffffffffffffffffff166311da60b46040518163ffffffff1660e01b8152600401600060405180830381600087803b15801561096357600080fd5b505af1158015610977573d6000803e3d6000fd5b505050508273ffffffffffffffffffffffffffffffffffffffff166359ea287d6040518163ffffffff1660e01b815260040160a060405180830381865afa1580156109c6573d6000803e3d6000fd5b505050506040513d601f19601f820116820180604052508101906109ea91906136b8565b915050919050565b600082828073ffffffffffffffffffffffffffffffffffffffff1663f667f897836040518263ffffffff1660e01b8152600401610a2f919061374d565b600060405180830381600087803b158015610a4957600080fd5b505af1158015610a5d573d6000803e3d6000fd5b50505050610b5d8473ffffffffffffffffffffffffffffffffffffffff166391689024876040518263ffffffff1660e01b8152600401610a9d919061374d565b602060405180830381865afa158015610aba573d6000803e3d6000fd5b505050506040513d601f19601f82011682018060405250810190610ade9190613768565b8573ffffffffffffffffffffffffffffffffffffffff1663ab582f29886040518263ffffffff1660e01b8152600401610b17919061374d565b602060405180830381865afa158015610b34573d6000803e3d6000fd5b505050506040513d601f19601f82011682018060405250810190610b589190613768565b61271b565b9250505092915050565b6000818073ffffffffffffffffffffffffffffffffffffffff166311da60b46040518163ffffffff1660e01b8152600401600060405180830381600087803b158015610bb257600080fd5b505af1158015610bc6573d6000803e3d6000fd5b505050506000610bd584612625565b9050610c6e610be66201518061272f565b8573ffffffffffffffffffffffffffffffffffffffff166360ec91d6846040518263ffffffff1660e01b8152600401610c1f9190612f4c565b602060405180830381865afa158015610c3c573d6000803e3d6000fd5b505050506040513d601f19601f82011682018060405250810190610c609190613711565b61274c90919063ffffffff16565b92505050919050565b610c7f6128b5565b610c876128e2565b83838073ffffffffffffffffffffffffffffffffffffffff1663f667f897836040518263ffffffff1660e01b8152600401610cc2919061374d565b600060405180830381600087803b158015610cdc57600080fd5b505af1158015610cf0573d6000803e3d6000fd5b505050508473ffffffffffffffffffffffffffffffffffffffff16631e0c6fb9876040518263ffffffff1660e01b8152600401610d2d919061374d565b60a060405180830381865afa158015610d4a573d6000803e3d6000fd5b505050506040513d601f19601f82011682018060405250810190610d6e91906136b8565b8573ffffffffffffffffffffffffffffffffffffffff1663b7648fb9886040518263ffffffff1660e01b8152600401610da7919061374d565b6040805180830381865afa158015610dc3573d6000803e3d6000fd5b505050506040513d601f19601f82011682018060405250810190610de79190613795565b9350935050509250929050565b60608083838073ffffffffffffffffffffffffffffffffffffffff1663f667f897836040518263ffffffff1660e01b8152600401610e32919061374d565b600060405180830381600087803b158015610e4c57600080fd5b505af1158015610e60573d6000803e3d6000fd5b5050505060007f000000000000000000000000000000000000000000000000000000000000000073ffffffffffffffffffffffffffffffffffffffff16636fc6407c6040518163ffffffff1660e01b8152600401602060405180830381865afa158015610ed1573d6000803e3d6000fd5b505050506040513d601f19601f82011682018060405250810190610ef59190613800565b905060008173ffffffffffffffffffffffffffffffffffffffff166305d85eda886040518263ffffffff1660e01b8152600401610f32919061384e565b602060405180830381865afa158015610f4f573d6000803e3d6000fd5b505050506040513d601f19601f82011682018060405250810190610f739190613869565b90508067ffffffffffffffff811115610f8f57610f8e613014565b5b604051908082528060200260200182016040528015610fbd5781602001602082028036833780820191505090505b5095508067ffffffffffffffff811115610fda57610fd9613014565b5b6040519080825280602002602001820160405280156110085781602001602082028036833780820191505090505b50945060005b818110156111995760008373ffffffffffffffffffffffffffffffffffffffff16632c3e50e58a846040518363ffffffff1660e01b81526004016110539291906138a5565b60c060405180830381865afa158015611070573d6000803e3d6000fd5b505050506040513d601f19601f820116820180604052508101906110949190613986565b905080608001518883815181106110ae576110ad6139b3565b5b602002602001019073ffffffffffffffffffffffffffffffffffffffff16908173ffffffffffffffffffffffffffffffffffffffff16815250508373ffffffffffffffffffffffffffffffffffffffff166366f8162e8a8c856040518463ffffffff1660e01b8152600401611125939291906139e2565b602060405180830381865afa158015611142573d6000803e3d6000fd5b505050506040513d601f19601f820116820180604052508101906111669190613768565b878381518110611179576111786139b3565b5b60200260200101818152505050808061119190613a48565b91505061100e565b50505050509250929050565b600082828073ffffffffffffffffffffffffffffffffffffffff1663f667f897836040518263ffffffff1660e01b81526004016111e2919061374d565b600060405180830381600087803b1580156111fc57600080fd5b505af1158015611210573d6000803e3d6000fd5b5050505061121c611b0c565b73ffffffffffffffffffffffffffffffffffffffff166382df39de86866040518363ffffffff1660e01b8152600401611256929190613a90565b602060405180830381865afa158015611273573d6000803e3d6000fd5b505050506040513d601f19601f820116820180604052508101906112979190613ae5565b9250505092915050565b600083838073ffffffffffffffffffffffffffffffffffffffff1663f667f897836040518263ffffffff1660e01b81526004016112de919061374d565b600060405180830381600087803b1580156112f857600080fd5b505af115801561130c573d6000803e3d6000fd5b50505050600061133961132a61132188612775565b604001516127f3565b8661280590919063ffffffff16565b90506113bc8673ffffffffffffffffffffffffffffffffffffffff16636c376cc56040518163ffffffff1660e01b8152600401602060405180830381865afa158015611389573d6000803e3d6000fd5b505050506040513d601f19601f820116820180604052508101906113ad9190613768565b8261280590919063ffffffff16565b93505050509392505050565b6113d06128b5565b82828073ffffffffffffffffffffffffffffffffffffffff1663f667f897836040518263ffffffff1660e01b815260040161140b919061374d565b600060405180830381600087803b15801561142557600080fd5b505af1158015611439573d6000803e3d6000fd5b505050508373ffffffffffffffffffffffffffffffffffffffff16631e0c6fb9866040518263ffffffff1660e01b8152600401611476919061374d565b60a060405180830381865afa158015611493573d6000803e3d6000fd5b505050506040513d601f19601f820116820180604052508101906114b791906136b8565b9250505092915050565b6000818073ffffffffffffffffffffffffffffffffffffffff166311da60b46040518163ffffffff1660e01b8152600401600060405180830381600087803b15801561150c57600080fd5b505af1158015611520573d6000803e3d6000fd5b5050505061152c611b0c565b73ffffffffffffffffffffffffffffffffffffffff1663a5fdc5de846040518263ffffffff1660e01b8152600401611564919061384e565b602060405180830381865afa158015611581573d6000803e3d6000fd5b505050506040513d601f19601f820116820180604052508101906115a59190613768565b915050919050565b60608173ffffffffffffffffffffffffffffffffffffffff166395d89b416040518163ffffffff1660e01b8152600401600060405180830381865afa1580156115fa573d6000803e3d6000fd5b505050506040513d6000823e3d601f19601f82011682018060405250810190611623919061358c565b9050919050565b6000818073ffffffffffffffffffffffffffffffffffffffff166311da60b46040518163ffffffff1660e01b8152600401600060405180830381600087803b15801561167557600080fd5b505af1158015611689573d6000803e3d6000fd5b5050505061169683612775565b60400151915050919050565b6000818073ffffffffffffffffffffffffffffffffffffffff166311da60b46040518163ffffffff1660e01b8152600401600060405180830381600087803b1580156116ed57600080fd5b505af1158015611701573d6000803e3d6000fd5b5050505061170d611b0c565b73ffffffffffffffffffffffffffffffffffffffff1663b4d6f781846040518263ffffffff1660e01b8152600401611745919061384e565b602060405180830381865afa158015611762573d6000803e3d6000fd5b505050506040513d601f19601f820116820180604052508101906117869190613768565b915050919050565b6117966128e2565b818073ffffffffffffffffffffffffffffffffffffffff166311da60b46040518163ffffffff1660e01b8152600401600060405180830381600087803b1580156117df57600080fd5b505af11580156117f3573d6000803e3d6000fd5b5050505061180083612625565b915050919050565b6118106128e2565b82828073ffffffffffffffffffffffffffffffffffffffff1663f667f897836040518263ffffffff1660e01b815260040161184b919061374d565b600060405180830381600087803b15801561186557600080fd5b505af1158015611879573d6000803e3d6000fd5b5050505061191c61189561188c86612775565b604001516127f3565b8573ffffffffffffffffffffffffffffffffffffffff1663b7648fb9886040518263ffffffff1660e01b81526004016118ce919061374d565b6040805180830381865afa1580156118ea573d6000803e3d6000fd5b505050506040513d601f19601f8201168201806040525081019061190e9190613795565b61282e90919063ffffffff16565b9250505092915050565b600082828073ffffffffffffffffffffffffffffffffffffffff1663f667f897836040518263ffffffff1660e01b8152600401611963919061374d565b600060405180830381600087803b15801561197d57600080fd5b505af1158015611991573d6000803e3d6000fd5b5050505061199d611b0c565b73ffffffffffffffffffffffffffffffffffffffff1663cc218ece86866040518363ffffffff1660e01b81526004016119d7929190613a90565b602060405180830381865afa1580156119f4573d6000803e3d6000fd5b505050506040513d601f19601f82011682018060405250810190611a189190613768565b9250505092915050565b6000828073ffffffffffffffffffffffffffffffffffffffff166311da60b46040518163ffffffff1660e01b8152600401600060405180830381600087803b158015611a6d57600080fd5b505af1158015611a81573d6000803e3d6000fd5b505050508373ffffffffffffffffffffffffffffffffffffffff16637ece075d846040518263ffffffff1660e01b8152600401611abe9190613b12565b606060405180830381865afa158015611adb573d6000803e3d6000fd5b505050506040513d601f19601f82011682018060405250810190611aff9190613b91565b6040015191505092915050565b60007f000000000000000000000000000000000000000000000000000000000000000073ffffffffffffffffffffffffffffffffffffffff1663d8dfeb456040518163ffffffff1660e01b8152600401602060405180830381865afa158015611b79573d6000803e3d6000fd5b505050506040513d601f19601f82011682018060405250810190611b9d9190613bfc565b905090565b600080600090505b8251811015611c4057828181518110611bc657611bc56139b3565b5b602002602001015173ffffffffffffffffffffffffffffffffffffffff166311da60b46040518163ffffffff1660e01b8152600401600060405180830381600087803b158015611c1557600080fd5b505af1158015611c29573d6000803e3d6000fd5b505050508080611c3890613a48565b915050611baa565b50611c49611b0c565b73ffffffffffffffffffffffffffffffffffffffff1663faaebd21846040518263ffffffff1660e01b8152600401611c81919061374d565b602060405180830381865afa158015611c9e573d6000803e3d6000fd5b505050506040513d601f19601f82011682018060405250810190611cc29190613768565b905092915050565b611cd26128e2565b82828073ffffffffffffffffffffffffffffffffffffffff1663f667f897836040518263ffffffff1660e01b8152600401611d0d919061374d565b600060405180830381600087803b158015611d2757600080fd5b505af1158015611d3b573d6000803e3d6000fd5b505050508373ffffffffffffffffffffffffffffffffffffffff1663b7648fb9866040518263ffffffff1660e01b8152600401611d78919061374d565b6040805180830381865afa158015611d94573d6000803e3d6000fd5b505050506040513d601f19601f82011682018060405250810190611db89190613795565b9250505092915050565b611dca6128e2565b818073ffffffffffffffffffffffffffffffffffffffff166311da60b46040518163ffffffff1660e01b8152600401600060405180830381600087803b158015611e1357600080fd5b505af1158015611e27573d6000803e3d6000fd5b50505050611e5a611e43611e3a85612775565b604001516127f3565b611e4c85612625565b61282e90919063ffffffff16565b915050919050565b6060828073ffffffffffffffffffffffffffffffffffffffff166311da60b46040518163ffffffff1660e01b8152600401600060405180830381600087803b158015611ead57600080fd5b505af1158015611ec1573d6000803e3d6000fd5b50505050825167ffffffffffffffff811115611ee057611edf613014565b5b604051908082528060200260200182016040528015611f0e5781602001602082028036833780820191505090505b50915060005b8351811015611fe7578473ffffffffffffffffffffffffffffffffffffffff16637ece075d858381518110611f4c57611f4b6139b3565b5b60200260200101516040518263ffffffff1660e01b8152600401611f709190613b12565b606060405180830381865afa158015611f8d573d6000803e3d6000fd5b505050506040513d601f19601f82011682018060405250810190611fb19190613b91565b60400151838281518110611fc857611fc76139b3565b5b6020026020010181815250508080611fdf90613a48565b915050611f14565b505092915050565b7f000000000000000000000000000000000000000000000000000000000000000081565b60608085858073ffffffffffffffffffffffffffffffffffffffff1663f667f897836040518263ffffffff1660e01b8152600401612051919061374d565b600060405180830381600087803b15801561206b57600080fd5b505af115801561207f573d6000803e3d6000fd5b5050505060007f000000000000000000000000000000000000000000000000000000000000000073ffffffffffffffffffffffffffffffffffffffff16636fc6407c6040518163ffffffff1660e01b8152600401602060405180830381865afa1580156120f0573d6000803e3d6000fd5b505050506040513d601f19601f820116820180604052508101906121149190613800565b90508686905067ffffffffffffffff81111561213357612132613014565b5b6040519080825280602002602001820160405280156121615781602001602082028036833780820191505090505b5094508686905067ffffffffffffffff81111561218157612180613014565b5b6040519080825280602002602001820160405280156121af5781602001602082028036833780820191505090505b50935060005b878790508110156123755760008273ffffffffffffffffffffffffffffffffffffffff16632c3e50e58b8b8b868181106121f2576121f16139b3565b5b905060200201356040518363ffffffff1660e01b81526004016122169291906138a5565b60c060405180830381865afa158015612233573d6000803e3d6000fd5b505050506040513d601f19601f820116820180604052508101906122579190613986565b90508060800151878381518110612271576122706139b3565b5b602002602001019073ffffffffffffffffffffffffffffffffffffffff16908173ffffffffffffffffffffffffffffffffffffffff16815250508273ffffffffffffffffffffffffffffffffffffffff166366f8162e8b8d8c8c878181106122dc576122db6139b3565b5b905060200201356040518463ffffffff1660e01b8152600401612301939291906139e2565b602060405180830381865afa15801561231e573d6000803e3d6000fd5b505050506040513d601f19601f820116820180604052508101906123429190613768565b868381518110612355576123546139b3565b5b60200260200101818152505050808061236d90613a48565b9150506121b5565b5050505094509492505050565b600080828073ffffffffffffffffffffffffffffffffffffffff166311da60b46040518163ffffffff1660e01b8152600401600060405180830381600087803b1580156123ce57600080fd5b505af11580156123e2573d6000803e3d6000fd5b5050505060007f000000000000000000000000000000000000000000000000000000000000000073ffffffffffffffffffffffffffffffffffffffff166361d027b36040518163ffffffff1660e01b8152600401602060405180830381865afa158015612453573d6000803e3d6000fd5b505050506040513d601f19601f820116820180604052508101906124779190613c3e565b905060007f000000000000000000000000000000000000000000000000000000000000000073ffffffffffffffffffffffffffffffffffffffff16632d809cb6876040518263ffffffff1660e01b81526004016124d4919061384e565b602060405180830381865afa1580156124f1573d6000803e3d6000fd5b505050506040513d601f19601f820116820180604052508101906125159190613c3e565b905061251f611b0c565b73ffffffffffffffffffffffffffffffffffffffff1663faaebd21836040518263ffffffff1660e01b8152600401612557919061374d565b602060405180830381865afa158015612574573d6000803e3d6000fd5b505050506040513d601f19601f820116820180604052508101906125989190613768565b94506125a2611b0c565b73ffffffffffffffffffffffffffffffffffffffff1663faaebd21826040518263ffffffff1660e01b81526004016125da919061374d565b602060405180830381865afa1580156125f7573d6000803e3d6000fd5b505050506040513d601f19601f8201168201806040525081019061261b9190613768565b9350505050915091565b61262d6128e2565b8173ffffffffffffffffffffffffffffffffffffffff16639a427d038373ffffffffffffffffffffffffffffffffffffffff1663c07f47d46040518163ffffffff1660e01b8152600401602060405180830381865afa158015612694573d6000803e3d6000fd5b505050506040513d601f19601f820116820180604052508101906126b89190613869565b6040518263ffffffff1660e01b81526004016126d49190613b12565b6040805180830381865afa1580156126f0573d6000803e3d6000fd5b505050506040513d601f19601f820116820180604052508101906127149190613795565b9050919050565b6000612727838361287f565b905092915050565b6000670de0b6b3a7640000826127459190613c6b565b9050919050565b6000670de0b6b3a764000082846127639190613c6b565b61276d9190613db1565b905092915050565b61277d6128fc565b8173ffffffffffffffffffffffffffffffffffffffff16639d888e866040518163ffffffff1660e01b8152600401606060405180830381865afa1580156127c8573d6000803e3d6000fd5b505050506040513d601f19601f820116820180604052508101906127ec9190613b91565b9050919050565b60006127fe82612899565b9050919050565b6000670de0b6b3a7640000828461281c9190613e1b565b6128269190613e75565b905092915050565b6128366128e2565b604051806040016040528061285884866000015161280590919063ffffffff16565b815260200161287484866020015161280590919063ffffffff16565b815250905092915050565b60008183101561288f5781612891565b825b905092915050565b6000808212156128ac57816000036128ae565b815b9050919050565b6040518060600160405280600081526020016128cf6128e2565b81526020016128dc6128e2565b81525090565b604051806040016040528060008152602001600081525090565b60405180606001604052806000815260200160008152602001600081525090565b6000604051905090565b600080fd5b600080fd5b600073ffffffffffffffffffffffffffffffffffffffff82169050919050565b600061295c82612931565b9050919050565b600061296e82612951565b9050919050565b61297e81612963565b811461298957600080fd5b50565b60008135905061299b81612975565b92915050565b6000602082840312156129b7576129b6612927565b5b60006129c58482850161298c565b91505092915050565b600081519050919050565b600082825260208201905092915050565b60005b83811015612a085780820151818401526020810190506129ed565b83811115612a17576000848401525b50505050565b6000601f19601f8301169050919050565b6000612a39826129ce565b612a4381856129d9565b9350612a538185602086016129ea565b612a5c81612a1d565b840191505092915050565b60006020820190508181036000830152612a818184612a2e565b905092915050565b6000819050919050565b612a9c81612a89565b82525050565b6000819050919050565b6000612ac7612ac2612abd84612a89565b612aa2565b612a89565b9050919050565b612ad781612aac565b82525050565b604082016000820151612af36000850182612ace565b506020820151612b066020850182612ace565b50505050565b60a082016000820151612b226000850182612a93565b506020820151612b356020850182612add565b506040820151612b486060850182612add565b50505050565b604082016000820151612b646000850182612ace565b506020820151612b776020850182612ace565b50505050565b600060e082019050612b926000830185612b0c565b612b9f60a0830184612b4e565b9392505050565b6000819050919050565b6000612bcb612bc6612bc184612ba6565b612aa2565b612ba6565b9050919050565b612bdb81612bb0565b82525050565b6000602082019050612bf66000830184612bd2565b92915050565b600060a082019050612c116000830184612b0c565b92915050565b612c2081612951565b8114612c2b57600080fd5b50565b600081359050612c3d81612c17565b92915050565b60008060408385031215612c5a57612c59612927565b5b6000612c6885828601612c2e565b9250506020612c798582860161298c565b9150509250929050565b612c8c81612aac565b82525050565b6000602082019050612ca76000830184612c83565b92915050565b600081519050919050565b600082825260208201905092915050565b6000819050602082019050919050565b6000612cf4612cef612cea84612931565b612aa2565b612931565b9050919050565b6000612d0682612cd9565b9050919050565b6000612d1882612cfb565b9050919050565b612d2881612d0d565b82525050565b6000612d3a8383612d1f565b60208301905092915050565b6000602082019050919050565b6000612d5e82612cad565b612d688185612cb8565b9350612d7383612cc9565b8060005b83811015612da4578151612d8b8882612d2e565b9750612d9683612d46565b925050600181019050612d77565b5085935050505092915050565b600081519050919050565b600082825260208201905092915050565b6000819050602082019050919050565b6000612de98383612ace565b60208301905092915050565b6000602082019050919050565b6000612e0d82612db1565b612e178185612dbc565b9350612e2283612dcd565b8060005b83811015612e53578151612e3a8882612ddd565b9750612e4583612df5565b925050600181019050612e26565b5085935050505092915050565b60006040820190508181036000830152612e7a8185612d53565b90508181036020830152612e8e8184612e02565b90509392505050565b60008115159050919050565b612eac81612e97565b82525050565b6000602082019050612ec76000830184612ea3565b92915050565b612ed681612a89565b8114612ee157600080fd5b50565b600081359050612ef381612ecd565b92915050565b600080600060608486031215612f1257612f11612927565b5b6000612f2086828701612c2e565b9350506020612f318682870161298c565b9250506040612f4286828701612ee4565b9150509250925092565b6000604082019050612f616000830184612b4e565b92915050565b612f7081612a89565b8114612f7b57600080fd5b50565b600081359050612f8d81612f67565b92915050565b60008060408385031215612faa57612fa9612927565b5b6000612fb88582860161298c565b9250506020612fc985828601612f7e565b9150509250929050565b6000612fde82612cfb565b9050919050565b612fee81612fd3565b82525050565b60006020820190506130096000830184612fe5565b92915050565b600080fd5b7f4e487b7100000000000000000000000000000000000000000000000000000000600052604160045260246000fd5b61304c82612a1d565b810181811067ffffffffffffffff8211171561306b5761306a613014565b5b80604052505050565b600061307e61291d565b905061308a8282613043565b919050565b600067ffffffffffffffff8211156130aa576130a9613014565b5b602082029050602081019050919050565b600080fd5b60006130d36130ce8461308f565b613074565b905080838252602082019050602084028301858111156130f6576130f56130bb565b5b835b8181101561311f578061310b888261298c565b8452602084019350506020810190506130f8565b5050509392505050565b600082601f83011261313e5761313d61300f565b5b813561314e8482602086016130c0565b91505092915050565b6000806040838503121561316e5761316d612927565b5b600061317c85828601612c2e565b925050602083013567ffffffffffffffff81111561319d5761319c61292c565b5b6131a985828601613129565b9150509250929050565b600067ffffffffffffffff8211156131ce576131cd613014565b5b602082029050602081019050919050565b60006131f26131ed846131b3565b613074565b90508083825260208201905060208402830185811115613215576132146130bb565b5b835b8181101561323e578061322a8882612f7e565b845260208401935050602081019050613217565b5050509392505050565b600082601f83011261325d5761325c61300f565b5b813561326d8482602086016131df565b91505092915050565b6000806040838503121561328d5761328c612927565b5b600061329b8582860161298c565b925050602083013567ffffffffffffffff8111156132bc576132bb61292c565b5b6132c885828601613248565b9150509250929050565b600081519050919050565b600082825260208201905092915050565b6000819050602082019050919050565b61330781612bb0565b82525050565b600061331983836132fe565b60208301905092915050565b6000602082019050919050565b600061333d826132d2565b61334781856132dd565b9350613352836132ee565b8060005b8381101561338357815161336a888261330d565b975061337583613325565b925050600181019050613356565b5085935050505092915050565b600060208201905081810360008301526133aa8184613332565b905092915050565b60006133bd82612cfb565b9050919050565b6133cd816133b2565b82525050565b60006020820190506133e860008301846133c4565b92915050565b600080fd5b60008083601f8401126134095761340861300f565b5b8235905067ffffffffffffffff811115613426576134256133ee565b5b602083019150836020820283011115613442576134416130bb565b5b9250929050565b6000806000806060858703121561346357613462612927565b5b600061347187828801612c2e565b94505060206134828782880161298c565b935050604085013567ffffffffffffffff8111156134a3576134a261292c565b5b6134af878288016133f3565b925092505092959194509250565b60006040820190506134d26000830185612c83565b6134df6020830184612c83565b9392505050565b600080fd5b600067ffffffffffffffff82111561350657613505613014565b5b61350f82612a1d565b9050602081019050919050565b600061352f61352a846134eb565b613074565b90508281526020810184848401111561354b5761354a6134e6565b5b6135568482856129ea565b509392505050565b600082601f8301126135735761357261300f565b5b815161358384826020860161351c565b91505092915050565b6000602082840312156135a2576135a1612927565b5b600082015167ffffffffffffffff8111156135c0576135bf61292c565b5b6135cc8482850161355e565b91505092915050565b600080fd5b6000815190506135e981612f67565b92915050565b6000815190506135fe81612ecd565b92915050565b60006040828403121561361a576136196135d5565b5b6136246040613074565b90506000613634848285016135ef565b6000830152506020613648848285016135ef565b60208301525092915050565b600060a0828403121561366a576136696135d5565b5b6136746060613074565b90506000613684848285016135da565b600083015250602061369884828501613604565b60208301525060606136ac84828501613604565b60408301525092915050565b600060a082840312156136ce576136cd612927565b5b60006136dc84828501613654565b91505092915050565b6136ee81612ba6565b81146136f957600080fd5b50565b60008151905061370b816136e5565b92915050565b60006020828403121561372757613726612927565b5b6000613735848285016136fc565b91505092915050565b61374781612951565b82525050565b6000602082019050613762600083018461373e565b92915050565b60006020828403121561377e5761377d612927565b5b600061378c848285016135ef565b91505092915050565b6000604082840312156137ab576137aa612927565b5b60006137b984828501613604565b91505092915050565b60006137cd82612951565b9050919050565b6137dd816137c2565b81146137e857600080fd5b50565b6000815190506137fa816137d4565b92915050565b60006020828403121561381657613815612927565b5b6000613824848285016137eb565b91505092915050565b600061383882612cfb565b9050919050565b6138488161382d565b82525050565b6000602082019050613863600083018461383f565b92915050565b60006020828403121561387f5761387e612927565b5b600061388d848285016135da565b91505092915050565b61389f81612a89565b82525050565b60006040820190506138ba600083018561383f565b6138c76020830184613896565b9392505050565b6138d781612951565b81146138e257600080fd5b50565b6000815190506138f4816138ce565b92915050565b600060c082840312156139105761390f6135d5565b5b61391a60a0613074565b9050600061392a848285016135da565b600083015250602061393e84828501613604565b6020830152506060613952848285016135da565b6040830152506080613966848285016135da565b60608301525060a061397a848285016138e5565b60808301525092915050565b600060c0828403121561399c5761399b612927565b5b60006139aa848285016138fa565b91505092915050565b7f4e487b7100000000000000000000000000000000000000000000000000000000600052603260045260246000fd5b60006060820190506139f7600083018661383f565b613a04602083018561373e565b613a116040830184613896565b949350505050565b7f4e487b7100000000000000000000000000000000000000000000000000000000600052601160045260246000fd5b6000613a5382612a89565b91507fffffffffffffffffffffffffffffffffffffffffffffffffffffffffffffffff8203613a8557613a84613a19565b5b600182019050919050565b6000604082019050613aa5600083018561373e565b613ab2602083018461383f565b9392505050565b613ac281612e97565b8114613acd57600080fd5b50565b600081519050613adf81613ab9565b92915050565b600060208284031215613afb57613afa612927565b5b6000613b0984828501613ad0565b91505092915050565b6000602082019050613b276000830184613896565b92915050565b600060608284031215613b4357613b426135d5565b5b613b4d6060613074565b90506000613b5d848285016135da565b6000830152506020613b71848285016135da565b6020830152506040613b85848285016136fc565b60408301525092915050565b600060608284031215613ba757613ba6612927565b5b6000613bb584828501613b2d565b91505092915050565b6000613bc982612951565b9050919050565b613bd981613bbe565b8114613be457600080fd5b50565b600081519050613bf681613bd0565b92915050565b600060208284031215613c1257613c11612927565b5b6000613c2084828501613be7565b91505092915050565b600081519050613c3881612c17565b92915050565b600060208284031215613c5457613c53612927565b5b6000613c6284828501613c29565b91505092915050565b6000613c7682612ba6565b9150613c8183612ba6565b9250827f7fffffffffffffffffffffffffffffffffffffffffffffffffffffffffffffff0482116000841360008413161615613cc057613cbf613a19565b5b817f80000000000000000000000000000000000000000000000000000000000000000583126000841260008413161615613cfd57613cfc613a19565b5b827f80000000000000000000000000000000000000000000000000000000000000000582126000841360008412161615613d3a57613d39613a19565b5b827f7fffffffffffffffffffffffffffffffffffffffffffffffffffffffffffffff0582126000841260008412161615613d7757613d76613a19565b5b828202905092915050565b7f4e487b7100000000000000000000000000000000000000000000000000000000600052601260045260246000fd5b6000613dbc82612ba6565b9150613dc783612ba6565b925082613dd757613dd6613d82565b5b600160000383147f800000000000000000000000000000000000000000000000000000000000000083141615613e1057613e0f613a19565b5b828205905092915050565b6000613e2682612a89565b9150613e3183612a89565b9250817fffffffffffffffffffffffffffffffffffffffffffffffffffffffffffffffff0483118215151615613e6a57613e69613a19565b5b828202905092915050565b6000613e8082612a89565b9150613e8b83612a89565b925082613e9b57613e9a613d82565b5b82820490509291505056fea2646970667358221220b4d33bc057198b3e7b8c21cde192b54367a6047677dbdb805d160d33a7a755a864736f6c634300080f0033",
  "devdoc": {
    "kind": "dev",
    "methods": {
      "collateral()": {
        "returns": {
          "_0": "Protocol collateral address"
        }
      },
      "collateral(address)": {
        "params": {
          "product": "Product address"
        },
        "returns": {
          "_0": "Total collateral for product"
        }
      },
      "collateral(address,address)": {
        "params": {
          "account": "Account address",
          "product": "Product address"
        },
        "returns": {
          "_0": "User deposited collateral for product"
        }
      },
      "constructor": {
        "params": {
          "_controller": "Protocol controller address"
        }
      },
      "dailyRate(address)": {
        "params": {
          "product": "Product address"
        },
        "returns": {
          "_0": "Product current funding extrapolated to a daily rate"
        }
      },
      "fees(address)": {
        "params": {
          "product": "Product address"
        },
        "returns": {
          "productFees": "fees accrued by the product owner",
          "protocolFees": "fees accrued by the protocol"
        }
      },
      "fees(address,address[])": {
        "params": {
          "account": "Account address",
          "products": "Product addresses"
        },
        "returns": {
          "_0": "sum of all fees accrued by the account"
        }
      },
      "globalPosition(address)": {
        "params": {
          "product": "Product address"
        },
        "returns": {
          "_0": "Product pre-position",
          "_1": "Product position"
        }
      },
      "liquidatable(address,address)": {
        "params": {
          "account": "Account address",
          "product": "Product address"
        },
        "returns": {
          "_0": "Whether or not the user's position eligible to be liquidated"
        }
      },
      "maintenance(address,address)": {
        "params": {
          "account": "Account address",
          "product": "Product address"
        },
        "returns": {
          "_0": "Maximum of user maintenance, and maintenanceNext"
        }
      },
      "maintenanceRequired(address,address,uint256)": {
        "params": {
          "account": "Account address",
          "positionSize": "size of position for maintenance calculation",
          "product": "Product address"
        },
        "returns": {
          "_0": "Maintenance required for position in product"
        }
      },
      "name(address)": {
        "params": {
          "product": "Product address"
        },
        "returns": {
          "_0": "Name of the product"
        }
      },
      "openInterest(address)": {
        "params": {
          "product": "Product address"
        },
        "returns": {
          "_0": "Product maker and taker position multiplied by latest price after settle"
        }
      },
      "openInterest(address,address)": {
        "params": {
          "account": "Account address",
          "product": "Product address"
        },
        "returns": {
          "_0": "User's maker or taker position multiplied by latest price after settle"
        }
      },
      "position(address)": {
        "params": {
          "product": "Product address"
        },
        "returns": {
          "_0": "product position"
        }
      },
      "position(address,address)": {
        "params": {
          "account": "Account address",
          "product": "Product address"
        },
        "returns": {
          "_0": "User position"
        }
      },
      "pre(address)": {
        "params": {
          "product": "Product address"
        },
        "returns": {
          "_0": "Product pre-position"
        }
      },
      "pre(address,address)": {
        "params": {
          "account": "Account address",
          "product": "Product address"
        },
        "returns": {
          "_0": "User pre-position"
        }
      },
      "price(address)": {
        "params": {
          "product": "Product address"
        },
        "returns": {
          "_0": "Product latest price"
        }
      },
      "priceAtVersion(address,uint256)": {
        "params": {
          "product": "Product address",
          "version": "Oracle version"
        },
        "returns": {
          "_0": "Product price at specified version"
        }
      },
      "pricesAtVersions(address,uint256[])": {
        "params": {
          "product": "Product address",
          "versions": "Oracle versions to query"
        },
        "returns": {
          "prices": "Product prices at specified versions"
        }
      },
      "rate(address)": {
        "params": {
          "product": "Product address"
        },
        "returns": {
          "_0": "Product current funding rate"
        }
      },
      "shortfall(address)": {
        "params": {
          "product": "Product address"
        },
        "returns": {
          "_0": "Total shortfall for product"
        }
      },
      "symbol(address)": {
        "params": {
          "product": "Product address"
        },
        "returns": {
          "_0": "Symbol of the product"
        }
      },
      "unclaimedIncentiveRewards(address,address)": {
        "params": {
          "account": "Account address",
          "product": "Product address"
        },
        "returns": {
          "amounts": "Token amounts of unclaimed incentive rewards for given product",
          "tokens": "Token addresses of unclaimed incentive rewards for given product"
        }
      },
      "unclaimedIncentiveRewards(address,address,uint256[])": {
        "params": {
          "account": "Account address",
          "product": "Product address",
          "programIds": "Program IDs to query"
        },
        "returns": {
          "amounts": "Token amounts of unclaimed incentive rewards for given program IDs",
          "tokens": "Token addresses of unclaimed incentive rewards for given program IDs"
        }
      },
      "userPosition(address,address)": {
        "params": {
          "account": "Account address",
          "product": "Product address"
        },
        "returns": {
          "_0": "User pre-position",
          "_1": "User position"
        }
      }
    },
    "stateVariables": {
      "controller": {
        "return": "Protocol controller",
        "returns": {
          "_0": "Protocol controller"
        }
      }
    },
    "title": "Lens contract to conveniently pull protocol data",
    "version": 1
  },
  "userdoc": {
    "kind": "user",
    "methods": {
      "collateral()": {
        "notice": "Protocol collateral address"
      },
      "collateral(address)": {
        "notice": "Product total collateral amount after settle"
      },
      "collateral(address,address)": {
        "notice": "User collateral amount for product after settle"
      },
      "controller()": {
        "notice": "Protocol controller"
      },
      "dailyRate(address)": {
        "notice": "Product funding extrapolated to a daily rate after settle"
      },
      "fees(address)": {
        "notice": "Fees accumulated by product and protocol treasuries after settle"
      },
      "fees(address,address[])": {
        "notice": "Fees accumulated by treasury after settle"
      },
      "globalPosition(address)": {
        "notice": "Product pre-position and position after settle"
      },
      "liquidatable(address,address)": {
        "notice": "User liquidatble status for product after settle"
      },
      "maintenance(address,address)": {
        "notice": "User maintenance amount for product after settle"
      },
      "maintenanceRequired(address,address,uint256)": {
        "notice": "User's maintenance required for position size in product after settle"
      },
      "name(address)": {
        "notice": "Returns the name of the provided `product`"
      },
      "openInterest(address)": {
        "notice": "Product total open interest after settle"
      },
      "openInterest(address,address)": {
        "notice": "User's open interest in product after settle"
      },
      "position(address)": {
        "notice": "Product position after settle"
      },
      "position(address,address)": {
        "notice": "User position for product after settle"
      },
      "pre(address)": {
        "notice": "Product pre position after settle"
      },
      "pre(address,address)": {
        "notice": "User pre position for product after settle"
      },
      "price(address)": {
        "notice": "Current price of product after settle"
      },
      "priceAtVersion(address,uint256)": {
        "notice": "Current price of product at specified version after settle"
      },
      "pricesAtVersions(address,uint256[])": {
        "notice": "Prices of product at specified versions after settle"
      },
      "rate(address)": {
        "notice": "Product funding rate after settle"
      },
      "shortfall(address)": {
        "notice": "Product total shortfall amount after settle"
      },
      "symbol(address)": {
        "notice": "Returns the symbol of the provided `product`"
      },
      "unclaimedIncentiveRewards(address,address)": {
        "notice": "User's unclaimed rewards for all programs for product after settle"
      },
      "unclaimedIncentiveRewards(address,address,uint256[])": {
        "notice": "User's unclaimed rewards for provided programs for product after settle"
      },
      "userPosition(address,address)": {
        "notice": "User pre-position and position for product after settle"
      }
    },
    "notice": "All functions should be called using `callStatic`",
    "version": 1
  },
  "storageLayout": {
    "storage": [],
    "types": null
  }
}