{
  "address": "0x35e5B1F1166A4712f6ffB2dAa0FF191B9582Ccca",
  "abi": [
    {
      "inputs": [],
      "name": "AlreadyInitializedError",
      "type": "error"
    },
    {
      "inputs": [
        {
          "internalType": "uint256",
          "name": "value",
          "type": "uint256"
        }
      ],
      "name": "Fixed18OverflowError",
      "type": "error"
    },
    {
      "inputs": [
        {
          "internalType": "int256",
          "name": "value",
          "type": "int256"
        }
      ],
      "name": "Fixed18PackingOverflowError",
      "type": "error"
    },
    {
      "inputs": [
        {
          "internalType": "int256",
          "name": "value",
          "type": "int256"
        }
      ],
      "name": "Fixed18PackingUnderflowError",
      "type": "error"
    },
    {
      "inputs": [],
      "name": "InvalidControllerError",
      "type": "error"
    },
    {
      "inputs": [
        {
          "internalType": "address",
          "name": "sender",
          "type": "address"
        }
      ],
      "name": "NotCollateralError",
      "type": "error"
    },
    {
      "inputs": [
        {
          "internalType": "address",
          "name": "sender",
          "type": "address"
        }
      ],
      "name": "NotOwnerError",
      "type": "error"
    },
    {
      "inputs": [
        {
          "internalType": "address",
          "name": "sender",
          "type": "address"
        }
      ],
      "name": "NotProductError",
      "type": "error"
    },
    {
      "inputs": [
        {
          "internalType": "address",
          "name": "sender",
          "type": "address"
        },
        {
          "internalType": "contract IProduct",
          "name": "product",
          "type": "address"
        }
      ],
      "name": "NotProductOwnerError",
      "type": "error"
    },
    {
      "inputs": [],
      "name": "PausedError",
      "type": "error"
    },
    {
      "inputs": [],
      "name": "ProductDoubleSidedError",
      "type": "error"
    },
    {
      "inputs": [],
      "name": "ProductInLiquidationError",
      "type": "error"
    },
    {
      "inputs": [],
      "name": "ProductInsufficientCollateralError",
      "type": "error"
    },
    {
      "inputs": [
        {
          "internalType": "UFixed18",
          "name": "socializationFactor",
          "type": "uint256"
        }
      ],
      "name": "ProductInsufficientLiquidityError",
      "type": "error"
    },
    {
      "inputs": [],
      "name": "ProductMakerOverLimitError",
      "type": "error"
    },
    {
      "inputs": [],
      "name": "ProductOracleBootstrappingError",
      "type": "error"
    },
    {
      "inputs": [],
      "name": "ProductOverClosedError",
      "type": "error"
    },
    {
      "inputs": [
        {
          "internalType": "uint256",
          "name": "value",
          "type": "uint256"
        }
      ],
      "name": "UFixed18PackingOverflowError",
      "type": "error"
    },
    {
      "inputs": [
        {
          "internalType": "uint256",
          "name": "version",
          "type": "uint256"
        }
      ],
      "name": "UInitializableAlreadyInitializedError",
      "type": "error"
    },
    {
      "inputs": [],
      "name": "UInitializableNotInitializingError",
      "type": "error"
    },
    {
      "inputs": [],
      "name": "UInitializableZeroVersionError",
      "type": "error"
    },
    {
      "inputs": [],
      "name": "UReentrancyGuardReentrantCallError",
      "type": "error"
    },
    {
      "anonymous": false,
      "inputs": [
        {
          "indexed": true,
          "internalType": "address",
          "name": "account",
          "type": "address"
        },
        {
          "indexed": false,
          "internalType": "uint256",
          "name": "preVersion",
          "type": "uint256"
        },
        {
          "indexed": false,
          "internalType": "uint256",
          "name": "toVersion",
          "type": "uint256"
        }
      ],
      "name": "AccountSettle",
      "type": "event"
    },
    {
      "anonymous": false,
      "inputs": [
        {
          "indexed": true,
          "internalType": "address",
          "name": "account",
          "type": "address"
        },
        {
          "indexed": false,
          "internalType": "UFixed18",
          "name": "amount",
          "type": "uint256"
        }
      ],
      "name": "MakeClosed",
      "type": "event"
    },
    {
      "anonymous": false,
      "inputs": [
        {
          "indexed": true,
          "internalType": "address",
          "name": "account",
          "type": "address"
        },
        {
          "indexed": false,
          "internalType": "UFixed18",
          "name": "amount",
          "type": "uint256"
        }
      ],
      "name": "MakeOpened",
      "type": "event"
    },
    {
      "anonymous": false,
      "inputs": [
        {
          "indexed": false,
          "internalType": "uint256",
          "name": "preVersion",
          "type": "uint256"
        },
        {
          "indexed": false,
          "internalType": "uint256",
          "name": "toVersion",
          "type": "uint256"
        }
      ],
      "name": "Settle",
      "type": "event"
    },
    {
      "anonymous": false,
      "inputs": [
        {
          "indexed": true,
          "internalType": "address",
          "name": "account",
          "type": "address"
        },
        {
          "indexed": false,
          "internalType": "UFixed18",
          "name": "amount",
          "type": "uint256"
        }
      ],
      "name": "TakeClosed",
      "type": "event"
    },
    {
      "anonymous": false,
      "inputs": [
        {
          "indexed": true,
          "internalType": "address",
          "name": "account",
          "type": "address"
        },
        {
          "indexed": false,
          "internalType": "UFixed18",
          "name": "amount",
          "type": "uint256"
        }
      ],
      "name": "TakeOpened",
      "type": "event"
    },
    {
      "inputs": [
        {
          "internalType": "address",
          "name": "account",
          "type": "address"
        }
      ],
      "name": "closeAll",
      "outputs": [],
      "stateMutability": "nonpayable",
      "type": "function"
    },
    {
      "inputs": [
        {
          "internalType": "UFixed18",
          "name": "amount",
          "type": "uint256"
        }
      ],
      "name": "closeMake",
      "outputs": [],
      "stateMutability": "nonpayable",
      "type": "function"
    },
    {
      "inputs": [
        {
          "internalType": "UFixed18",
          "name": "amount",
          "type": "uint256"
        }
      ],
      "name": "closeTake",
      "outputs": [],
      "stateMutability": "nonpayable",
      "type": "function"
    },
    {
      "inputs": [],
      "name": "controller",
      "outputs": [
        {
          "internalType": "contract IController",
          "name": "",
          "type": "address"
        }
      ],
      "stateMutability": "view",
      "type": "function"
    },
    {
      "inputs": [
        {
          "internalType": "contract IProductProvider",
          "name": "productProvider_",
          "type": "address"
        }
      ],
      "name": "initialize",
      "outputs": [],
      "stateMutability": "nonpayable",
      "type": "function"
    },
    {
      "inputs": [
        {
          "internalType": "address",
          "name": "account",
          "type": "address"
        }
      ],
      "name": "isClosed",
      "outputs": [
        {
          "internalType": "bool",
          "name": "",
          "type": "bool"
        }
      ],
      "stateMutability": "view",
      "type": "function"
    },
    {
      "inputs": [
        {
          "internalType": "address",
          "name": "account",
          "type": "address"
        }
      ],
      "name": "isLiquidating",
      "outputs": [
        {
          "internalType": "bool",
          "name": "",
          "type": "bool"
        }
      ],
      "stateMutability": "view",
      "type": "function"
    },
    {
      "inputs": [
        {
          "internalType": "address",
          "name": "account",
          "type": "address"
        }
      ],
      "name": "latestVersion",
      "outputs": [
        {
          "internalType": "uint256",
          "name": "",
          "type": "uint256"
        }
      ],
      "stateMutability": "view",
      "type": "function"
    },
    {
      "inputs": [],
      "name": "latestVersion",
      "outputs": [
        {
          "internalType": "uint256",
          "name": "",
          "type": "uint256"
        }
      ],
      "stateMutability": "view",
      "type": "function"
    },
    {
      "inputs": [
        {
          "internalType": "address",
          "name": "account",
          "type": "address"
        }
      ],
      "name": "maintenance",
      "outputs": [
        {
          "internalType": "UFixed18",
          "name": "",
          "type": "uint256"
        }
      ],
      "stateMutability": "view",
      "type": "function"
    },
    {
      "inputs": [
        {
          "internalType": "address",
          "name": "account",
          "type": "address"
        }
      ],
      "name": "maintenanceNext",
      "outputs": [
        {
          "internalType": "UFixed18",
          "name": "",
          "type": "uint256"
        }
      ],
      "stateMutability": "view",
      "type": "function"
    },
    {
      "inputs": [
        {
          "internalType": "UFixed18",
          "name": "amount",
          "type": "uint256"
        }
      ],
      "name": "openMake",
      "outputs": [],
      "stateMutability": "nonpayable",
      "type": "function"
    },
    {
      "inputs": [
        {
          "internalType": "UFixed18",
          "name": "amount",
          "type": "uint256"
        }
      ],
      "name": "openTake",
      "outputs": [],
      "stateMutability": "nonpayable",
      "type": "function"
    },
    {
      "inputs": [
        {
          "internalType": "address",
          "name": "account",
          "type": "address"
        }
      ],
      "name": "position",
      "outputs": [
        {
          "components": [
            {
              "internalType": "UFixed18",
              "name": "maker",
              "type": "uint256"
            },
            {
              "internalType": "UFixed18",
              "name": "taker",
              "type": "uint256"
            }
          ],
          "internalType": "struct Position",
          "name": "",
          "type": "tuple"
        }
      ],
      "stateMutability": "view",
      "type": "function"
    },
    {
      "inputs": [
        {
          "internalType": "uint256",
          "name": "oracleVersion",
          "type": "uint256"
        }
      ],
      "name": "positionAtVersion",
      "outputs": [
        {
          "components": [
            {
              "internalType": "UFixed18",
              "name": "maker",
              "type": "uint256"
            },
            {
              "internalType": "UFixed18",
              "name": "taker",
              "type": "uint256"
            }
          ],
          "internalType": "struct Position",
          "name": "",
          "type": "tuple"
        }
      ],
      "stateMutability": "view",
      "type": "function"
    },
    {
      "inputs": [
        {
          "internalType": "address",
          "name": "account",
          "type": "address"
        }
      ],
      "name": "pre",
      "outputs": [
        {
          "components": [
            {
              "internalType": "uint256",
              "name": "oracleVersion",
              "type": "uint256"
            },
            {
              "components": [
                {
                  "internalType": "UFixed18",
                  "name": "maker",
                  "type": "uint256"
                },
                {
                  "internalType": "UFixed18",
                  "name": "taker",
                  "type": "uint256"
                }
              ],
              "internalType": "struct Position",
              "name": "openPosition",
              "type": "tuple"
            },
            {
              "components": [
                {
                  "internalType": "UFixed18",
                  "name": "maker",
                  "type": "uint256"
                },
                {
                  "internalType": "UFixed18",
                  "name": "taker",
                  "type": "uint256"
                }
              ],
              "internalType": "struct Position",
              "name": "closePosition",
              "type": "tuple"
            }
          ],
          "internalType": "struct PrePosition",
          "name": "",
          "type": "tuple"
        }
      ],
      "stateMutability": "view",
      "type": "function"
    },
    {
      "inputs": [],
      "name": "pre",
      "outputs": [
        {
          "components": [
            {
              "internalType": "uint256",
              "name": "oracleVersion",
              "type": "uint256"
            },
            {
              "components": [
                {
                  "internalType": "UFixed18",
                  "name": "maker",
                  "type": "uint256"
                },
                {
                  "internalType": "UFixed18",
                  "name": "taker",
                  "type": "uint256"
                }
              ],
              "internalType": "struct Position",
              "name": "openPosition",
              "type": "tuple"
            },
            {
              "components": [
                {
                  "internalType": "UFixed18",
                  "name": "maker",
                  "type": "uint256"
                },
                {
                  "internalType": "UFixed18",
                  "name": "taker",
                  "type": "uint256"
                }
              ],
              "internalType": "struct Position",
              "name": "closePosition",
              "type": "tuple"
            }
          ],
          "internalType": "struct PrePosition",
          "name": "",
          "type": "tuple"
        }
      ],
      "stateMutability": "view",
      "type": "function"
    },
    {
      "inputs": [],
      "name": "productProvider",
      "outputs": [
        {
          "internalType": "contract IProductProvider",
          "name": "",
          "type": "address"
        }
      ],
      "stateMutability": "view",
      "type": "function"
    },
    {
      "inputs": [],
      "name": "settle",
      "outputs": [],
      "stateMutability": "nonpayable",
      "type": "function"
    },
    {
      "inputs": [
        {
          "internalType": "address",
          "name": "account",
          "type": "address"
        }
      ],
      "name": "settleAccount",
      "outputs": [],
      "stateMutability": "nonpayable",
      "type": "function"
    },
    {
      "inputs": [
        {
          "internalType": "uint256",
          "name": "oracleVersion",
          "type": "uint256"
        }
      ],
      "name": "shareAtVersion",
      "outputs": [
        {
          "components": [
            {
              "internalType": "Fixed18",
              "name": "maker",
              "type": "int256"
            },
            {
              "internalType": "Fixed18",
              "name": "taker",
              "type": "int256"
            }
          ],
          "internalType": "struct Accumulator",
          "name": "",
          "type": "tuple"
        }
      ],
      "stateMutability": "view",
      "type": "function"
    },
    {
      "inputs": [
        {
          "internalType": "uint256",
          "name": "oracleVersion",
          "type": "uint256"
        }
      ],
      "name": "valueAtVersion",
      "outputs": [
        {
          "components": [
            {
              "internalType": "Fixed18",
              "name": "maker",
              "type": "int256"
            },
            {
              "internalType": "Fixed18",
              "name": "taker",
              "type": "int256"
            }
          ],
          "internalType": "struct Accumulator",
          "name": "",
          "type": "tuple"
        }
      ],
      "stateMutability": "view",
      "type": "function"
    }
  ],
  "transactionHash": "0x8dc2ca3206d6da610aa127f3ee34c268445b0c93ec592e9e3c95709b3b71430c",
  "args": [],
  "numDeployments": 1,
  "solcInputHash": "669da26b2049a035994bb66b35ec132a",
  "bytecode": "0x608060405234801561001057600080fd5b50613aca806100206000396000f3fe608060405234801561001057600080fd5b50600436106101825760003560e01c806391689024116100d8578063c07f47d41161008c578063f667f89711610066578063f667f897146103e0578063f6b32008146103f3578063f77c47911461040657600080fd5b8063c07f47d4146103b2578063c4d66de8146103ba578063d7d7d6b8146103cd57600080fd5b80639d8870a7116100bd5780639d8870a71461031f578063ab582f291461034a578063b7648fb91461035d57600080fd5b806391689024146102ec5780639a427d03146102ff57600080fd5b806359218fe91161013a57806373b88f3b1161011457806373b88f3b1461028f57806376f37001146102a25780638e480b20146102b557600080fd5b806359218fe91461026157806359ea287d146102745780636943b0171461027c57600080fd5b806320fe9c3c1161016b57806320fe9c3c146101e1578063476fa96d1461020f57806358ca6f981461022257600080fd5b806311da60b4146101875780631e0c6fb914610191575b600080fd5b61018f61040e565b005b6101a461019f3660046137a4565b610507565b60408051825181526020808401518051828401528101518284015292909101518051606083015290910151608082015260a0015b60405180910390f35b6101f46101ef3660046137c1565b61057a565b604080518251815260209283015192810192909252016101d8565b6101f461021d3660046137c1565b61059f565b6102516102303660046137a4565b6001600160a01b031660009081526001602052604090206007015460ff1690565b60405190151581526020016101d8565b61018f61026f3660046137c1565b6105be565b6101a4610810565b61025161028a3660046137a4565b610867565b61018f61029d3660046137c1565b610905565b61018f6102b03660046137c1565b610c37565b6102de6102c33660046137a4565b6001600160a01b031660009081526009602052604090205490565b6040519081526020016101d8565b6102de6102fa3660046137a4565b610db5565b61031261030d3660046137c1565b610ddb565b6040516101d891906137da565b600054610332906001600160a01b031681565b6040516001600160a01b0390911681526020016101d8565b6102de6103583660046137a4565b610dfa565b61031261036b3660046137a4565b6040805180820190915260008082526020820152506001600160a01b0316600090815260016020818152604092839020835180850190945280548452909101549082015290565b6002546102de565b61018f6103c83660046137a4565b610e20565b61018f6103db3660046137c1565b610f42565b61018f6103ee3660046137a4565b6113eb565b61018f6104013660046137a4565b611561565b6103326116e3565b6002610426600080516020613a758339815191525490565b0361044457604051637990191b60e11b815260040160405180910390fd5b6002600080516020613a75833981519152553061045f6116e3565b604051630b92054b60e21b81526001600160a01b0383811660048301529190911690632e48152c90602401602060405180830381865afa1580156104a7573d6000803e3d6000fd5b505050506040513d601f19601f820116820180604052508101906104cb91906137f1565b156104e957604051633b3b4caf60e21b815260040160405180910390fd5b6104f1611716565b50506001600080516020613a7583398151915255565b61050f613739565b506001600160a01b03166000908152600160209081526040918290208251606081018452600282015481528351808501855260038301548152600483015481850152818401528351808501855260058301548152600690920154928201929092529181019190915290565b6040805180820190915260008082526020820152610599600a83611b30565b92915050565b6040805180820190915260008082526020820152610599600a83611b82565b60026105d6600080516020613a758339815191525490565b036105f457604051637990191b60e11b815260040160405180910390fd5b6002600080516020613a75833981519152553061060f6116e3565b604051630b92054b60e21b81526001600160a01b0383811660048301529190911690632e48152c90602401602060405180830381865afa158015610657573d6000803e3d6000fd5b505050506040513d601f19601f8201168201806040525081019061067b91906137f1565b1561069957604051633b3b4caf60e21b815260040160405180910390fd5b3360006106a4611716565b90506106b08282611bcd565b3360009081526001602052604090206007015460ff16156106e457604051636830d4d760e01b815260040160405180910390fd5b6106ee3385611f99565b33600090815260016020526040902061070690612093565b1561072457604051633975ab9360e01b815260040160405180910390fd5b604080516060810182526004548152815180830183526005548152600654602082810191909152808301919091528251808401845260075481526008549181019190915291810191909152600090610786906107806002612102565b90612124565b9050600061079382612153565b90506107a781670de0b6b3a764000061219c565b156107e6576040517fd8b8b951000000000000000000000000000000000000000000000000000000008152600481018290526024015b60405180910390fd5b505050505061080d6001600080516020613a7583398151915261171290919063ffffffff16565b50565b610818613739565b5060408051606081018252600454815281518083018352600554815260065460208281019190915280830191909152825180840184526007548152600854918101919091529181019190915290565b6001600160a01b0381166000908152600160208181526040808420815160a08101835281546060808301918252958301546080830152815282519485018352600282015485528251808401845260038301548152600483015481860152858501528251808401845260058301548152600683015481860152858401529283019390935260079092015460ff16151591810191909152610599906121b0565b600261091d600080516020613a758339815191525490565b0361093b57604051637990191b60e11b815260040160405180910390fd5b6002600080516020613a7583398151915255306109566116e3565b604051630b92054b60e21b81526001600160a01b0383811660048301529190911690632e48152c90602401602060405180830381865afa15801561099e573d6000803e3d6000fd5b505050506040513d601f19601f820116820180604052508101906109c291906137f1565b156109e057604051633b3b4caf60e21b815260040160405180910390fd5b3360006109eb611716565b90506109f78282611bcd565b3360009081526001602052604090206007015460ff1615610a2b57604051636830d4d760e01b815260040160405180910390fd5b60008060009054906101000a90046001600160a01b03166001600160a01b0316639d888e866040518163ffffffff1660e01b8152600401606060405180830381865afa158015610a7f573d6000803e3d6000fd5b505050506040513d601f19601f82011682018060405250810190610aa39190613813565b8051336000908152600160205260409020919250610ac59160020190876121d1565b8051610ad490600490876121d1565b60405185815233907fa49f7f671e5a8fa84972aea8267de5edd22e571e230370e9aab63198ed7ec8769060200160405180910390a250610b126116e3565b6001600160a01b031663d8dfeb456040518163ffffffff1660e01b8152600401602060405180830381865afa158015610b4f573d6000803e3d6000fd5b505050506040513d601f19601f82011682018060405250810190610b73919061387d565b6040516301c8232360e71b81523360048201523060248201526001600160a01b03919091169063e411918090604401602060405180830381865afa158015610bbf573d6000803e3d6000fd5b505050506040513d601f19601f82011682018060405250810190610be391906137f1565b15610c01576040516324a21d2960e01b815260040160405180910390fd5b336000908152600160205260409020610c19906121f6565b15610724576040516390898fd160e01b815260040160405180910390fd5b6002610c4f600080516020613a758339815191525490565b03610c6d57604051637990191b60e11b815260040160405180910390fd5b6002600080516020613a758339815191525530610c886116e3565b604051630b92054b60e21b81526001600160a01b0383811660048301529190911690632e48152c90602401602060405180830381865afa158015610cd0573d6000803e3d6000fd5b505050506040513d601f19601f82011682018060405250810190610cf491906137f1565b15610d1257604051633b3b4caf60e21b815260040160405180910390fd5b336000610d1d611716565b9050610d298282611bcd565b3360009081526001602052604090206007015460ff1615610d5d57604051636830d4d760e01b815260040160405180910390fd5b610d673385612258565b336000908152600160205260409020610d7f90612093565b15610d9d57604051633975ab9360e01b815260040160405180910390fd5b50506001600080516020613a75833981519152555050565b600080546001600160a01b03838116835260016020526040832061059992909116612345565b604080518082019091526000808252602082015261059960028361237f565b600080546001600160a01b038381168352600160205260408320610599929091166123cf565b600180610e4b7f5db5abc19987c2b3729df7961b62b6bb0bae886dd47e3ce25bb3a3af34c6d80b5490565b10610e85576040517f1e7a9d95000000000000000000000000000000000000000000000000000000008152600481018290526024016107dd565b610eae7f5db5abc19987c2b3729df7961b62b6bb0bae886dd47e3ce25bb3a3af34c6d80b829055565b60017fad57d7911b7e3d6c3c79a68ba909a7f4ba41f9485e5207b12dee0d0c6af5398c55610edb3361244a565b610ee3612501565b600080547fffffffffffffffffffffffff0000000000000000000000000000000000000000166001600160a01b038416178155610f3e907fad57d7911b7e3d6c3c79a68ba909a7f4ba41f9485e5207b12dee0d0c6af5398c55565b5050565b6002610f5a600080516020613a758339815191525490565b03610f7857604051637990191b60e11b815260040160405180910390fd5b6002600080516020613a758339815191525530610f936116e3565b604051630b92054b60e21b81526001600160a01b0383811660048301529190911690632e48152c90602401602060405180830381865afa158015610fdb573d6000803e3d6000fd5b505050506040513d601f19601f82011682018060405250810190610fff91906137f1565b1561101d57604051633b3b4caf60e21b815260040160405180910390fd5b336000611028611716565b90506110348282611bcd565b600254600003611070576040517fc25d67ab00000000000000000000000000000000000000000000000000000000815260040160405180910390fd5b3360009081526001602052604090206007015460ff16156110a457604051636830d4d760e01b815260040160405180910390fd5b60008060009054906101000a90046001600160a01b03166001600160a01b0316639d888e866040518163ffffffff1660e01b8152600401606060405180830381865afa1580156110f8573d6000803e3d6000fd5b505050506040513d601f19601f8201168201806040525081019061111c9190613813565b805133600090815260016020526040902091925061113e916002019087612562565b805161114d9060049087612562565b60405185815233907f240d2eb7d93fbde0cc714cce7b10e79ddfdd3b20a9ee97a1bd1876eea2c05cba9060200160405180910390a25061118b6116e3565b6001600160a01b031663d8dfeb456040518163ffffffff1660e01b8152600401602060405180830381865afa1580156111c8573d6000803e3d6000fd5b505050506040513d601f19601f820116820180604052508101906111ec919061387d565b6040516301c8232360e71b81523360048201523060248201526001600160a01b03919091169063e411918090604401602060405180830381865afa158015611238573d6000803e3d6000fd5b505050506040513d601f19601f8201168201806040525081019061125c91906137f1565b1561127a576040516324a21d2960e01b815260040160405180910390fd5b336000908152600160205260409020611292906121f6565b156112b0576040516390898fd160e01b815260040160405180910390fd5b60408051606081018252600454815281518083018352600554815260065460208281019190915280830191909152825180840184526007548152600854918101919091529181019190915260009061130c906107806002612102565b905061138e60008054906101000a90046001600160a01b03166001600160a01b031663193775676040518163ffffffff1660e01b8152600401602060405180830381865afa158015611362573d6000803e3d6000fd5b505050506040513d601f19601f82011682018060405250810190611386919061389a565b825190612582565b156113c5576040517fcefd0e5e00000000000000000000000000000000000000000000000000000000815260040160405180910390fd5b5050505061080d6001600080516020613a7583398151915261171290919063ffffffff16565b6002611403600080516020613a758339815191525490565b0361142157604051637990191b60e11b815260040160405180910390fd5b6002600080516020613a75833981519152553061143c6116e3565b604051630b92054b60e21b81526001600160a01b0383811660048301529190911690632e48152c90602401602060405180830381865afa158015611484573d6000803e3d6000fd5b505050506040513d601f19601f820116820180604052508101906114a891906137f1565b156114c657604051633b3b4caf60e21b815260040160405180910390fd5b60008060009054906101000a90046001600160a01b03166001600160a01b0316639d888e866040518163ffffffff1660e01b8152600401606060405180830381865afa15801561151a573d6000803e3d6000fd5b505050506040513d601f19601f8201168201806040525081019061153e9190613813565b905061154a8382611bcd565b50506001600080516020613a758339815191525550565b6115696116e3565b6001600160a01b031663d8dfeb456040518163ffffffff1660e01b8152600401602060405180830381865afa1580156115a6573d6000803e3d6000fd5b505050506040513d601f19601f820116820180604052508101906115ca919061387d565b6001600160a01b0316336001600160a01b031614611616576040517fd8df98e70000000000000000000000000000000000000000000000000000000081523360048201526024016107dd565b806000611621611716565b905061162d8282611bcd565b6001600160a01b038316600090815260016020818152604080842081516060810183526002820154815282518084018452600383015481526004830154818601528185015282518084018452600583015481526006830154818601528184015282518084019093528154835293810154928201929092529092916116b19190612124565b90506116c1858260000151611f99565b6116cf858260200151612258565b50600701805460ff19166001179055505050565b600061170d7f0e555410d8128dff796eab5d29b97dd593ce9cab44a71b64c08244579ea605335490565b905090565b9055565b61173a60405180606001604052806000815260200160008152602001600081525090565b6000805481906001600160a01b03166117516116e3565b91509150816001600160a01b031663fff6cae96040518163ffffffff1660e01b81526004016060604051808303816000875af1158015611795573d6000803e3d6000fd5b505050506040513d601f19601f820116820180604052508101906117b99190613813565b925060006117c660025490565b845190915081036117d75750505090565b604051637ece075d60e01b8152600481018290526000906001600160a01b03851690637ece075d90602401606060405180830381865afa15801561181f573d6000803e3d6000fd5b505050506040513d601f19601f820116820180604052508101906118439190613813565b855190915060009061185790600490612598565b90506000866000015182146118d457604051637ece075d60e01b8152600481018390526001600160a01b03871690637ece075d90602401606060405180830381865afa1580156118ab573d6000803e3d6000fd5b505050506040513d601f19601f820116820180604052508101906118cf9190613813565b6118d6565b865b9050846001600160a01b0316636fc6407c6040518163ffffffff1660e01b8152600401602060405180830381865afa158015611916573d6000803e3d6000fd5b505050506040513d601f19601f8201168201806040525081019061193a919061387d565b604080517fa55ff01d0000000000000000000000000000000000000000000000000000000081528951600482015260208a015160248201529089015160448201526001600160a01b03919091169063a55ff01d90606401600060405180830381600087803b1580156119ab57600080fd5b505af11580156119bf573d6000803e3d6000fd5b50600092506119e291506119db9050600a6002898b89886125ce565b82906126ca565b90506119f36119db600289856126d6565b8851835191925014611a2257611a126119db600a6002898b878e6125ce565b9050611a206002888a6126d6565b505b856001600160a01b031663d8dfeb456040518163ffffffff1660e01b8152600401602060405180830381865afa158015611a60573d6000803e3d6000fd5b505050506040513d601f19601f82011682018060405250810190611a84919061387d565b6001600160a01b0316637f3dd53b826040518263ffffffff1660e01b8152600401611ab191815260200190565b600060405180830381600087803b158015611acb57600080fd5b505af1158015611adf573d6000803e3d6000fd5b505083518a516040517f88a84ea6dd274b386afd27dbbe11b6192b25017f5e60bb8c4053dfddb45c294d9450611b1e9350918252602082015260400190565b60405180910390a15050505050505090565b604080518082019091526000808252602082015260008281526020848152604091829020825180840190935254600f81810b8452600160801b909104900b90820152611b7b906127c7565b9392505050565b6040805180820182526000808252602080830182905284825260018601815290839020835180850190945254600f81810b8552600160801b909104900b9083015290611b7b906127c7565b6000805481906001600160a01b0316611be46116e3565b915091506000611c09856001600160a01b031660009081526009602052604090205490565b84519091508103611c1b575050505050565b83516001600160a01b03861660009081526001602052604081209091611c449160020190612598565b9050600085600001518214611cc157604051637ece075d60e01b8152600481018390526001600160a01b03861690637ece075d90602401606060405180830381865afa158015611c98573d6000803e3d6000fd5b505050506040513d601f19601f82011682018060405250810190611cbc9190613813565b611cc3565b855b6001600160a01b0388166000908152600160209081526040808320845160099093529083209394509192611d0e92611d0792611d029291600a91612803565b61286c565b829061287c565b9050846001600160a01b0316636fc6407c6040518163ffffffff1660e01b8152600401602060405180830381865afa158015611d4e573d6000803e3d6000fd5b505050506040513d601f19601f82011682018060405250810190611d72919061387d565b6040517f759386430000000000000000000000000000000000000000000000000000000081526001600160a01b038a811660048301529190911690637593864390602401600060405180830381600087803b158015611dd057600080fd5b505af1158015611de4573d6000803e3d6000fd5b5050506001600160a01b0389166000908152600160205260409020611e1f9150611e1890611e13908986612888565b612942565b8290612988565b8751835191925014611e67576001600160a01b03881660009081526001602090815260408083208a5160099093529220611e6492611d0792611d029291600a91612803565b90505b846001600160a01b031663d8dfeb456040518163ffffffff1660e01b8152600401602060405180830381865afa158015611ea5573d6000803e3d6000fd5b505050506040513d601f19601f82011682018060405250810190611ec9919061387d565b6040517fc9cb48de0000000000000000000000000000000000000000000000000000000081526001600160a01b038a8116600483015260248201849052919091169063c9cb48de90604401600060405180830381600087803b158015611f2e57600080fd5b505af1158015611f42573d6000803e3d6000fd5b5050835189516040805192835260208301919091526001600160a01b038c1693507f9d7055d24918d8c2fd08660a27bf31d4086fa71a51cd07874276470223aa480f92500160405180910390a25050505050505050565b60008060009054906101000a90046001600160a01b03166001600160a01b0316639d888e866040518163ffffffff1660e01b8152600401606060405180830381865afa158015611fed573d6000803e3d6000fd5b505050506040513d601f19601f820116820180604052508101906120119190613813565b80516001600160a01b038516600090815260016020526040902091925061203c916002019084612994565b805161204b9060049084612994565b826001600160a01b03167f8e1fbd36184b75559e6a6304fbfcc7ffac60d82cb29da4425f0a11a5cdd42ca58360405161208691815260200190565b60405180910390a2505050565b60408051808201825260038301548152600483015460208083019190915282518084019093528354835260018401549083015260009182916120d591906129b4565b805160058501549192506120e99190612582565b80611b7b575060208101516006840154611b7b91612582565b604080518082019091526000808252602082015261059982836000015461237f565b6040805180820190915260008082526020820152611b7b6121498484602001516129b4565b8360400151612a0b565b600061216182602001511590565b61218d576020820151825161218891670de0b6b3a76400009161218391612a59565b612a78565b610599565b670de0b6b3a764000092915050565b60006121a88383612a84565b159392505050565b60006121bf8260200151612ab9565b80156105995750815161059990612ad8565b60028301546121e090826126ca565b60028401558183556121f183612af0565b505050565b8054600090819015801561220c57506003830154155b801561221a57506005830154155b600184015490915060009015801561223457506004840154155b801561224257506006840154155b905081158015612250575080155b949350505050565b60008060009054906101000a90046001600160a01b03166001600160a01b0316639d888e866040518163ffffffff1660e01b8152600401606060405180830381865afa1580156122ac573d6000803e3d6000fd5b505050506040513d601f19601f820116820180604052508101906122d09190613813565b80516001600160a01b03851660009081526001602052604090209192506122fb916002019084612b4c565b805161230a9060049084612b4c565b826001600160a01b03167f39a4b498dc11e06b5d7ea3357b7a41d54905a72816c498299a0d67a7ba20db418360405161208691815260200190565b600782015460009060ff161561235d57506000610599565b604080518082019091528354815260018401546020820152611b7b9083612b6c565b60408051808201825260008082526020808301829052848252600186018152908390208351808501909452546001600160801b038082168552600160801b909104169083015290611b7b90612c6e565b60408051606081018252600284015481528151808301835260038501548152600485015460208281019190915280830191909152825180840184526005860154815260068601548183015282840152825180840190935284548352600185015490830152600091611b7b916124449190612124565b83612b6c565b303b1515801561247957507fad57d7911b7e3d6c3c79a68ba909a7f4ba41f9485e5207b12dee0d0c6af5398c54155b1561249757604051631a27c4a960e21b815260040160405180910390fd5b6001600160a01b0381163b6124d8576040517f14878b6900000000000000000000000000000000000000000000000000000000815260040160405180910390fd5b61080d7f0e555410d8128dff796eab5d29b97dd593ce9cab44a71b64c08244579ea60533829055565b303b1515801561253057507fad57d7911b7e3d6c3c79a68ba909a7f4ba41f9485e5207b12dee0d0c6af5398c54155b1561254e57604051631a27c4a960e21b815260040160405180910390fd5b6001600080516020613a7583398151915255565b600183015461257190826126ca565b60018401558183556121f183612cb2565b600061258e8383612a84565b6002149392505050565b815460009081906125aa9060016138c9565b9050806001036125bd5782915050610599565b82811115611b7b5782915050610599565b60006125ed604051806040016040528060008152602001600081525090565b6125fa8787878787612d0e565b92509050600061260b888686612f35565b9050600061261a898787613034565b905061264061263b83612635866126358f8c60000151611b30565b906130ce565b61311c565b8551600090815260208c81526040909120825192909101516001600160801b03908116600160801b02921691909117905585516126889061263b908390612635908e90611b82565b945160009081526001909a0160209081526040909a20855195909a01516001600160801b03908116600160801b02951694909417909855509695505050505050565b6000611b7b82846138c9565b6040805160608101825260028501548152815180830183526003860154815260048601546020828101919091528083019190915282518084018452600587015481526006870154918101919091529181019190915260009081908190819061274b9087876127438b612102565b929190613168565b92509250925061275a836131be565b855160009081526001890160209081526040909120825192909101516001600160801b03908116600160801b0292169190911790558451875580156127bd5760006002880181905560038801819055600488018190556005880181905560068801555b5095945050505050565b60408051808201909152600080825260208201526040805180820190915282518190600f0b8152602084810151910190600f0b5b905292915050565b6040805180820190915260008082526020820152845460009061283b9061282b908790611b30565b6128358786611b30565b90613216565b6040805180820190915285548152600186015460208201529091506128609082613264565b92909555509392505050565b6020810151815160009161059991905b6000611b7b82846138e1565b6040805160608101825260028501548152815180830183526003860154815260048601546020828101919091528083019190915282518084018452600587015481526006870154818301528284015282518084019093528554835260018601549083015260009182916128fd91908686613168565b82518855602090920151600188015592509050801561293a5760006002860181905560038601819055600486018190556005860181905560068601555b509392505050565b6000816001600160ff1b03811115610599576040517ea07eb5000000000000000000000000000000000000000000000000000000008152600481018290526024016107dd565b6000611b7b8284613920565b60038301546129a390826126ca565b60038401558183556121f183612cb2565b6040805180820190915260008082526020820152604080518082019091528251845182916129e291906126ca565b8152602001612a02846020015186602001516126ca90919063ffffffff16565b90529392505050565b604080518082019091526000808252602082015260408051808201909152825184518291612a3991906132b2565b8152602001612a02846020015186602001516132b290919063ffffffff16565b600081612a6e670de0b6b3a76400008561395f565b611b7b9190613994565b6000611b7b83836132be565b6000828280821115612a9b57600292505050610599565b80821015612aae57600092505050610599565b506001949350505050565b6000612ac88260200151612ad8565b8015610599575061059982604001515b80516000901580156105995750602082015115610599565b60048101546002820154612b0391612582565b15612b2a5760048101546002820154612b1b916132b2565b60028201556000600482015550565b60028101546004820154612b3d916132b2565b60048201556000600282015550565b6004830154612b5b90826126ca565b60048401558183556121f183612af0565b600080826001600160a01b0316639d888e866040518163ffffffff1660e01b8152600401606060405180830381865afa158015612bad573d6000803e3d6000fd5b505050506040513d601f19601f82011682018060405250810190612bd19190613813565b6040015190506000612bf7612bf283612bec611e13896132d4565b906132e8565b613307565b9050612c65846001600160a01b0316636c376cc56040518163ffffffff1660e01b8152600401602060405180830381865afa158015612c3a573d6000803e3d6000fd5b505050506040513d601f19601f82011682018060405250810190612c5e919061389a565b8290613312565b95945050505050565b604080518082019091526000808252602082015260408051808201909152825181906001600160801b031681526020848101519101906001600160801b03166127fb565b60038101546001820154612cc591612582565b15612cec5760038101546001820154612cdd916132b2565b60018201556000600382015550565b60018101546003820154612cff916132b2565b60038201556000600182015550565b6040805180820190915260008082526020820152600080612d2e88612102565b9050612d3c81602001511590565b15612d6457604051806040016040528060008152602001600081525060009250925050612f2b565b8051612d8d57604051806040016040528060008152602001600081525060009250925050612f2b565b600085602001518560200151612da391906139a8565b90506000612dbf612bf28860400151612bec8660200151612942565b90506000612dd6612dcf85612153565b8390613312565b90506000612e6f612de9611e1386613327565b6040517f60ec91d60000000000000000000000000000000000000000000000000000000081526001600160a01b038d16906360ec91d690612e2e908a906004016137da565b602060405180830381865afa158015612e4b573d6000803e3d6000fd5b505050506040513d601f19601f82011682018060405250810190612bec919061389a565b90506000612e86612e7f84612942565b83906132e8565b9050612ead612e9e6001600160a01b038d168e61333b565b612ea783613307565b90613312565b96506000612ed5612ebd8361341c565b612ed08a612eca86613307565b906132b2565b613448565b9050612eee612ee78860000151612942565b8290613489565b8952612f1e612f07670de0b6b3a76400006000196139bf565b612bec612f178a60200151612942565b8490613489565b60208a0152505050505050505b9550959350505050565b60408051808201909152600080825260208201526000612f5485612102565b9050612f6281602001511590565b15612f825750506040805180820190915260008082526020820152611b7b565b8051612fa35750506040805180820190915260008082526020820152611b7b565b6000612fc08560400151856040015161298890919063ffffffff16565b90506000612fd4612e7f8460200151612942565b90506000612fe7612e7f611e1386612153565b9050613010613000670de0b6b3a76400006000196139bf565b612bec612f178760000151612942565b8552602084015161302490612ee790612942565b6020860152505050509392505050565b6040805180820190915260008082526020820152600061305385612102565b905060008460200151846020015161306b91906139a8565b8251909150156130945761308f611e13836000015161308984613327565b90612a59565b613097565b60005b83526020820151156130bc576130b7611e13836020015161308984613327565b6130bf565b60005b60208401525090949350505050565b6040805180820190915260008082526020820152604080518082019091528251845182916130fc919061287c565b8152602001612a028460200151866020015161287c90919063ffffffff16565b60408051808201909152600080825260208201526040518060400160405280613148846000015161349e565b600f0b815260200161315d846020015161349e565b600f0b905292915050565b6040805180820190915260008082526020820152600080613189868561354b565b61319657866000806131ae565b6131a08787612124565b6131ab878787613567565b60015b9250925092509450945094915050565b604080518082019091526000808252602082015260405180604001604052806131ea8460000151613603565b6001600160801b031681526020016132058460200151613603565b6001600160801b0316905292915050565b6040805180820190915260008082526020820152604080518082019091528251845182916132449190612988565b8152602001612a028460200151866020015161298890919063ffffffff16565b604080518082019091526000808252602082015260405180604001604052806132988460000151612bec8760000151612942565b8152602001612a028460200151612bec8760200151612942565b6000611b7b82846139a8565b60008183106132cd5781611b7b565b5090919050565b60006105998260000151836020015161364a565b6000670de0b6b3a76400006132fd83856139bf565b611b7b9190613a46565b600061059982613656565b6000670de0b6b3a7640000612a6e838561395f565b6000610599670de0b6b3a76400008361395f565b6000611b7b670de0b6b3a7640000613416846001600160a01b031663e975c0c36040518163ffffffff1660e01b8152600401602060405180830381865afa15801561338a573d6000803e3d6000fd5b505050506040513d601f19601f820116820180604052508101906133ae919061389a565b866001600160a01b0316635d16e1206040518163ffffffff1660e01b8152600401602060405180830381865afa1580156133ec573d6000803e3d6000fd5b505050506040513d601f19601f82011682018060405250810190613410919061389a565b9061364a565b90612a78565b60008082131561342e57506001919050565b60008212156134405750600019919050565b506000919050565b6000808313156134625761345b82612942565b9050610599565b60008312156134805761347482612942565b61345b906000196139bf565b50600092915050565b6000816132fd670de0b6b3a7640000856139bf565b6000816f7fffffffffffffffffffffffffffffff8113156134ee576040517f59aeb746000000000000000000000000000000000000000000000000000000008152600481018290526024016107dd565b7fffffffffffffffffffffffffffffffff80000000000000000000000000000000811215610599576040517f4e02165d000000000000000000000000000000000000000000000000000000008152600481018290526024016107dd565b600061355683612ab9565b158015611b7b575050905190511190565b600080613585856040015186602001516129b490919063ffffffff16565b90506000806135a2612bf28660400151612bec8660000151612942565b6135ba612bf28760400151612bec8760200151612942565b915091506135f86135d6612dcf886001600160a01b031661366d565b6135f26135eb896001600160a01b03166136dd565b8590613312565b906126ca565b979650505050505050565b6000816001600160801b03811115610599576040517f53851291000000000000000000000000000000000000000000000000000000008152600481018290526024016107dd565b6000611b7b8383613729565b6000808212156136695781600003610599565b5090565b6000610599670de0b6b3a7640000836001600160a01b03166343f0179b6040518163ffffffff1660e01b8152600401602060405180830381865afa1580156136b9573d6000803e3d6000fd5b505050506040513d601f19601f82011682018060405250810190613416919061389a565b6000610599670de0b6b3a7640000836001600160a01b031663fc741c7c6040518163ffffffff1660e01b8152600401602060405180830381865afa1580156136b9573d6000803e3d6000fd5b6000818310156132cd5781611b7b565b604051806060016040528060008152602001613768604051806040016040528060008152602001600081525090565b815260200161378a604051806040016040528060008152602001600081525090565b905290565b6001600160a01b038116811461080d57600080fd5b6000602082840312156137b657600080fd5b8135611b7b8161378f565b6000602082840312156137d357600080fd5b5035919050565b815181526020808301519082015260408101610599565b60006020828403121561380357600080fd5b81518015158114611b7b57600080fd5b60006060828403121561382557600080fd5b6040516060810181811067ffffffffffffffff8211171561385657634e487b7160e01b600052604160045260246000fd5b80604052508251815260208301516020820152604083015160408201528091505092915050565b60006020828403121561388f57600080fd5b8151611b7b8161378f565b6000602082840312156138ac57600080fd5b5051919050565b634e487b7160e01b600052601160045260246000fd5b600082198211156138dc576138dc6138b3565b500190565b6000808212826001600160ff1b0303841381151615613902576139026138b3565b82600160ff1b03841281161561391a5761391a6138b3565b50500190565b600080831283600160ff1b0183128115161561393e5761393e6138b3565b836001600160ff1b03018313811615613959576139596138b3565b50500390565b6000816000190483118215151615613979576139796138b3565b500290565b634e487b7160e01b600052601260045260246000fd5b6000826139a3576139a361397e565b500490565b6000828210156139ba576139ba6138b3565b500390565b60006001600160ff1b036000841360008413858304851182821616156139e7576139e76138b3565b600160ff1b6000871286820588128184161615613a0657613a066138b3565b60008712925087820587128484161615613a2257613a226138b3565b87850587128184161615613a3857613a386138b3565b505050929093029392505050565b600082613a5557613a5561397e565b600160ff1b821460001984141615613a6f57613a6f6138b3565b50059056fe1b30fe15febd596dffd21d4da0657732eea42b4b5a9789e3e6daab3d570999d7a264697066735822122090c23ce478cbfbd6b80f7370a1c59ae55213aeb3ce51cb11fddb801555f19b3964736f6c634300080d0033",
  "devdoc": {
    "details": "Cloned by the Controller contract to launch new product markets.",
    "kind": "dev",
    "methods": {
      "closeAll(address)": {
        "details": "Only callable by the Collateral contract as part of the liquidation flow",
        "params": {
          "account": "Account to close out"
        }
      },
      "closeMake(uint256)": {
        "params": {
          "amount": "Amount of the position to close"
        }
      },
      "closeTake(uint256)": {
        "params": {
          "amount": "Amount of the position to close"
        }
      },
      "initialize(address)": {
        "params": {
          "productProvider_": "Product provider contract address"
        }
      },
      "isClosed(address)": {
        "params": {
          "account": "Account to return for"
        },
        "returns": {
          "_0": "The the account is closed"
        }
      },
      "isLiquidating(address)": {
        "params": {
          "account": "Account to return for"
        },
        "returns": {
          "_0": "Whether the account is in liquidation"
        }
      },
      "latestVersion()": {
        "returns": {
          "_0": "Latest settled oracle version of the product"
        }
      },
      "latestVersion(address)": {
        "params": {
          "account": "Account to return for"
        },
        "returns": {
          "_0": "Latest settled oracle version of the account"
        }
      },
      "maintenance(address)": {
        "params": {
          "account": "Account to return for"
        },
        "returns": {
          "_0": "The current maintenance requirement"
        }
      },
      "maintenanceNext(address)": {
        "details": "Assumes no price change and no funding, used to protect user from over-opening",
        "params": {
          "account": "Account to return for"
        },
        "returns": {
          "_0": "The next maintenance requirement"
        }
      },
      "openMake(uint256)": {
        "params": {
          "amount": "Amount of the position to open"
        }
      },
      "openTake(uint256)": {
        "params": {
          "amount": "Amount of the position to open"
        }
      },
      "position(address)": {
        "params": {
          "account": "Account to return for"
        },
        "returns": {
          "_0": "Current position of the account"
        }
      },
      "positionAtVersion(uint256)": {
        "details": "Only valid for the version at which a global settlement occurred",
        "params": {
          "oracleVersion": "Oracle version to return for"
        },
        "returns": {
          "_0": "Global position at oracle version"
        }
      },
      "pre()": {
        "returns": {
          "_0": "Global pending-settlement position"
        }
      },
      "pre(address)": {
        "params": {
          "account": "Account to return for"
        },
        "returns": {
          "_0": "Current pre-position of the account"
        }
      },
      "settleAccount(address)": {
        "params": {
          "account": "Account to settle"
        }
      },
      "shareAtVersion(uint256)": {
        "details": "Only valid for the version at which a global settlement occurred",
        "params": {
          "oracleVersion": "Oracle version to return for"
        },
        "returns": {
          "_0": "Global accumulator share at oracle version"
        }
      },
      "valueAtVersion(uint256)": {
        "details": "Only valid for the version at which a global settlement occurred",
        "params": {
          "oracleVersion": "Oracle version to return for"
        },
        "returns": {
          "_0": "Global accumulator value at oracle version"
        }
      }
    },
    "stateVariables": {
      "_accumulator": {
        "details": "The global accumulator state for the product"
      },
      "_accumulators": {
        "details": "The individual accumulator state for each account"
      },
      "_position": {
        "details": "The global position state for the product"
      },
      "_positions": {
        "details": "The individual position state for each account"
      },
      "productProvider": {
        "details": "The parameter provider of the product market"
      }
    },
    "title": "Product",
    "version": 1
  },
  "userdoc": {
    "kind": "user",
    "methods": {
      "closeAll(address)": {
        "notice": "Closes all open and pending positions, locking for liquidation"
      },
      "closeMake(uint256)": {
        "notice": "Closes a maker position for `msg.sender`"
      },
      "closeTake(uint256)": {
        "notice": "Closes a taker position for `msg.sender`"
      },
      "initialize(address)": {
        "notice": "Initializes the contract state"
      },
      "isClosed(address)": {
        "notice": "Returns whether `account` has a completely zero'd position"
      },
      "isLiquidating(address)": {
        "notice": "Returns whether `account` is currently locked for an in-progress liquidation"
      },
      "latestVersion()": {
        "notice": "Returns the global latest settled oracle version"
      },
      "latestVersion(address)": {
        "notice": "Returns `account`'s latest settled oracle version"
      },
      "maintenance(address)": {
        "notice": "Returns the maintenance requirement for `account`"
      },
      "maintenanceNext(address)": {
        "notice": "Returns the maintenance requirement for `account` after next settlement"
      },
      "openMake(uint256)": {
        "notice": "Opens a maker position for `msg.sender`"
      },
      "openTake(uint256)": {
        "notice": "Opens a taker position for `msg.sender`"
      },
      "position(address)": {
        "notice": "Returns `account`'s current position"
      },
      "positionAtVersion(uint256)": {
        "notice": "Returns the global position at oracleVersion `oracleVersion`"
      },
      "pre()": {
        "notice": "Returns the current global pending-settlement position"
      },
      "pre(address)": {
        "notice": "Returns `account`'s current pending-settlement position"
      },
      "settle()": {
        "notice": "Surfaces global settlement externally"
      },
      "settleAccount(address)": {
        "notice": "Surfaces account settlement externally"
      },
      "shareAtVersion(uint256)": {
        "notice": "Returns the global accumulator share at oracleVersion `oracleVersion`"
      },
      "valueAtVersion(uint256)": {
        "notice": "Returns the global accumulator value at oracleVersion `oracleVersion`"
      }
    },
    "notice": "Manages logic and state for a single product market.",
    "version": 1
  },
  "storageLayout": {
    "storage": [
      {
        "astId": 16192,
        "contract": "contracts/product/Product.sol:Product",
        "label": "productProvider",
        "offset": 0,
        "slot": "0",
        "type": "t_contract(IProductProvider)13704"
      },
      {
        "astId": 16198,
        "contract": "contracts/product/Product.sol:Product",
        "label": "_positions",
        "offset": 0,
        "slot": "1",
        "type": "t_mapping(t_address,t_struct(AccountPosition)17852_storage)"
      },
      {
        "astId": 16202,
        "contract": "contracts/product/Product.sol:Product",
        "label": "_position",
        "offset": 0,
        "slot": "2",
        "type": "t_struct(VersionedPosition)18131_storage"
      },
      {
        "astId": 16208,
        "contract": "contracts/product/Product.sol:Product",
        "label": "_accumulators",
        "offset": 0,
        "slot": "9",
        "type": "t_mapping(t_address,t_struct(AccountAccumulator)17245_storage)"
      },
      {
        "astId": 16212,
        "contract": "contracts/product/Product.sol:Product",
        "label": "_accumulator",
        "offset": 0,
        "slot": "10",
        "type": "t_struct(VersionedAccumulator)17317_storage"
      }
    ],
    "types": {
      "t_address": {
        "encoding": "inplace",
        "label": "address",
        "numberOfBytes": "20"
      },
      "t_bool": {
        "encoding": "inplace",
        "label": "bool",
        "numberOfBytes": "1"
      },
      "t_contract(IProductProvider)13704": {
        "encoding": "inplace",
        "label": "contract IProductProvider",
        "numberOfBytes": "20"
      },
      "t_mapping(t_address,t_struct(AccountAccumulator)17245_storage)": {
        "encoding": "mapping",
        "key": "t_address",
        "label": "mapping(address => struct AccountAccumulator)",
        "numberOfBytes": "32",
        "value": "t_struct(AccountAccumulator)17245_storage"
      },
      "t_mapping(t_address,t_struct(AccountPosition)17852_storage)": {
        "encoding": "mapping",
        "key": "t_address",
        "label": "mapping(address => struct AccountPosition)",
        "numberOfBytes": "32",
        "value": "t_struct(AccountPosition)17852_storage"
      },
      "t_mapping(t_uint256,t_struct(PackedAccumulator)13863_storage)": {
        "encoding": "mapping",
        "key": "t_uint256",
        "label": "mapping(uint256 => struct PackedAccumulator)",
        "numberOfBytes": "32",
        "value": "t_struct(PackedAccumulator)13863_storage"
      },
      "t_mapping(t_uint256,t_struct(PackedPosition)13904_storage)": {
        "encoding": "mapping",
        "key": "t_uint256",
        "label": "mapping(uint256 => struct PackedPosition)",
        "numberOfBytes": "32",
        "value": "t_struct(PackedPosition)13904_storage"
      },
      "t_struct(AccountAccumulator)17245_storage": {
        "encoding": "inplace",
        "label": "struct AccountAccumulator",
        "members": [
          {
            "astId": 17244,
            "contract": "contracts/product/Product.sol:Product",
            "label": "latestVersion",
            "offset": 0,
            "slot": "0",
            "type": "t_uint256"
          }
        ],
        "numberOfBytes": "32"
      },
      "t_struct(AccountPosition)17852_storage": {
        "encoding": "inplace",
        "label": "struct AccountPosition",
        "members": [
          {
            "astId": 17844,
            "contract": "contracts/product/Product.sol:Product",
            "label": "position",
            "offset": 0,
            "slot": "0",
            "type": "t_struct(Position)13948_storage"
          },
          {
            "astId": 17848,
            "contract": "contracts/product/Product.sol:Product",
            "label": "pre",
            "offset": 0,
            "slot": "2",
            "type": "t_struct(PrePosition)14314_storage"
          },
          {
            "astId": 17851,
            "contract": "contracts/product/Product.sol:Product",
            "label": "liquidation",
            "offset": 0,
            "slot": "7",
            "type": "t_bool"
          }
        ],
        "numberOfBytes": "256"
      },
      "t_struct(PackedAccumulator)13863_storage": {
        "encoding": "inplace",
        "label": "struct PackedAccumulator",
        "members": [
          {
            "astId": 13858,
            "contract": "contracts/product/Product.sol:Product",
            "label": "maker",
            "offset": 0,
            "slot": "0",
            "type": "t_userDefinedValueType(PackedFixed18)1786"
          },
          {
            "astId": 13862,
            "contract": "contracts/product/Product.sol:Product",
            "label": "taker",
            "offset": 16,
            "slot": "0",
            "type": "t_userDefinedValueType(PackedFixed18)1786"
          }
        ],
        "numberOfBytes": "32"
      },
      "t_struct(PackedPosition)13904_storage": {
        "encoding": "inplace",
        "label": "struct PackedPosition",
        "members": [
          {
            "astId": 13899,
            "contract": "contracts/product/Product.sol:Product",
            "label": "maker",
            "offset": 0,
            "slot": "0",
            "type": "t_userDefinedValueType(PackedUFixed18)1841"
          },
          {
            "astId": 13903,
            "contract": "contracts/product/Product.sol:Product",
            "label": "taker",
            "offset": 16,
            "slot": "0",
            "type": "t_userDefinedValueType(PackedUFixed18)1841"
          }
        ],
        "numberOfBytes": "32"
      },
      "t_struct(Position)13948_storage": {
        "encoding": "inplace",
        "label": "struct Position",
        "members": [
          {
            "astId": 13943,
            "contract": "contracts/product/Product.sol:Product",
            "label": "maker",
            "offset": 0,
            "slot": "0",
            "type": "t_userDefinedValueType(UFixed18)1887"
          },
          {
            "astId": 13947,
            "contract": "contracts/product/Product.sol:Product",
            "label": "taker",
            "offset": 0,
            "slot": "1",
            "type": "t_userDefinedValueType(UFixed18)1887"
          }
        ],
        "numberOfBytes": "64"
      },
      "t_struct(PrePosition)14314_storage": {
        "encoding": "inplace",
        "label": "struct PrePosition",
        "members": [
          {
            "astId": 14305,
            "contract": "contracts/product/Product.sol:Product",
            "label": "oracleVersion",
            "offset": 0,
            "slot": "0",
            "type": "t_uint256"
          },
          {
            "astId": 14309,
            "contract": "contracts/product/Product.sol:Product",
            "label": "openPosition",
            "offset": 0,
            "slot": "1",
            "type": "t_struct(Position)13948_storage"
          },
          {
            "astId": 14313,
            "contract": "contracts/product/Product.sol:Product",
            "label": "closePosition",
            "offset": 0,
            "slot": "3",
            "type": "t_struct(Position)13948_storage"
          }
        ],
        "numberOfBytes": "160"
      },
      "t_struct(VersionedAccumulator)17317_storage": {
        "encoding": "inplace",
        "label": "struct VersionedAccumulator",
        "members": [
          {
            "astId": 17310,
            "contract": "contracts/product/Product.sol:Product",
            "label": "_valueAtVersion",
            "offset": 0,
            "slot": "0",
            "type": "t_mapping(t_uint256,t_struct(PackedAccumulator)13863_storage)"
          },
          {
            "astId": 17316,
            "contract": "contracts/product/Product.sol:Product",
            "label": "_shareAtVersion",
            "offset": 0,
            "slot": "1",
            "type": "t_mapping(t_uint256,t_struct(PackedAccumulator)13863_storage)"
          }
        ],
        "numberOfBytes": "64"
      },
      "t_struct(VersionedPosition)18131_storage": {
        "encoding": "inplace",
        "label": "struct VersionedPosition",
        "members": [
          {
            "astId": 18120,
            "contract": "contracts/product/Product.sol:Product",
            "label": "latestVersion",
            "offset": 0,
            "slot": "0",
            "type": "t_uint256"
          },
          {
            "astId": 18126,
            "contract": "contracts/product/Product.sol:Product",
            "label": "_positionAtVersion",
            "offset": 0,
            "slot": "1",
            "type": "t_mapping(t_uint256,t_struct(PackedPosition)13904_storage)"
          },
          {
            "astId": 18130,
            "contract": "contracts/product/Product.sol:Product",
            "label": "pre",
            "offset": 0,
            "slot": "2",
            "type": "t_struct(PrePosition)14314_storage"
          }
        ],
        "numberOfBytes": "224"
      },
      "t_uint256": {
        "encoding": "inplace",
        "label": "uint256",
        "numberOfBytes": "32"
      },
      "t_userDefinedValueType(PackedFixed18)1786": {
        "encoding": "inplace",
        "label": "PackedFixed18",
        "numberOfBytes": "16"
      },
      "t_userDefinedValueType(PackedUFixed18)1841": {
        "encoding": "inplace",
        "label": "PackedUFixed18",
        "numberOfBytes": "16"
      },
      "t_userDefinedValueType(UFixed18)1887": {
        "encoding": "inplace",
        "label": "UFixed18",
        "numberOfBytes": "32"
      }
    }
  }
}