{
  "address": "0x841d7C994aC0Bb17CcD65a021E686e3cFafE2118",
  "abi": [
    {
      "inputs": [
        {
          "internalType": "contract AggregatorV3Interface",
          "name": "feed_",
          "type": "address"
        },
        {
          "internalType": "uint80",
          "name": "versionOffset_",
          "type": "uint80"
        }
      ],
      "stateMutability": "nonpayable",
      "type": "constructor"
    },
    {
      "inputs": [],
      "name": "InvalidOracleVersion",
      "type": "error"
    },
    {
      "inputs": [
        {
          "internalType": "uint256",
          "name": "version",
          "type": "uint256"
        }
      ],
      "name": "atVersion",
      "outputs": [
        {
          "components": [
            {
              "internalType": "uint256",
              "name": "version",
              "type": "uint256"
            },
            {
              "internalType": "uint256",
              "name": "timestamp",
              "type": "uint256"
            },
            {
              "internalType": "Fixed18",
              "name": "price",
              "type": "int256"
            }
          ],
          "internalType": "struct IOracleProvider.OracleVersion",
          "name": "oracleVersion",
          "type": "tuple"
        }
      ],
      "stateMutability": "view",
      "type": "function"
    },
    {
      "inputs": [],
      "name": "currentVersion",
      "outputs": [
        {
          "components": [
            {
              "internalType": "uint256",
              "name": "version",
              "type": "uint256"
            },
            {
              "internalType": "uint256",
              "name": "timestamp",
              "type": "uint256"
            },
            {
              "internalType": "Fixed18",
              "name": "price",
              "type": "int256"
            }
          ],
          "internalType": "struct IOracleProvider.OracleVersion",
          "name": "oracleVersion",
          "type": "tuple"
        }
      ],
      "stateMutability": "view",
      "type": "function"
    },
    {
      "inputs": [],
      "name": "feed",
      "outputs": [
        {
          "internalType": "contract AggregatorV3Interface",
          "name": "",
          "type": "address"
        }
      ],
      "stateMutability": "view",
      "type": "function"
    },
    {
      "inputs": [],
      "name": "sync",
      "outputs": [
        {
          "components": [
            {
              "internalType": "uint256",
              "name": "version",
              "type": "uint256"
            },
            {
              "internalType": "uint256",
              "name": "timestamp",
              "type": "uint256"
            },
            {
              "internalType": "Fixed18",
              "name": "price",
              "type": "int256"
            }
          ],
          "internalType": "struct IOracleProvider.OracleVersion",
          "name": "",
          "type": "tuple"
        }
      ],
      "stateMutability": "view",
      "type": "function"
    }
  ],
  "transactionHash": "0xe2fd6cc811bf537b22a8e9416f2dc86c83572004a1b12a2b5468b09995b96672",
  "args": [
    "0xC5B29989e47bb0a17B0870b027BE26522d654BF5",
    0
  ],
  "numDeployments": 1,
  "solcInputHash": "d753301a02ca3e68421ba2571509a425",
  "bytecode": "0x60e06040523480156200001157600080fd5b50604051620010fd380380620010fd833981810160405281019062000037919062000264565b8173ffffffffffffffffffffffffffffffffffffffff1660808173ffffffffffffffffffffffffffffffffffffffff16815250508069ffffffffffffffffffff1660c08169ffffffffffffffffffff1681525050620001208273ffffffffffffffffffffffffffffffffffffffff1663313ce5676040518163ffffffff1660e01b8152600401602060405180830381865afa158015620000db573d6000803e3d6000fd5b505050506040513d601f19601f82011682018060405250810190620001019190620002e9565b600a6200010f9190620004a8565b6200012f60201b620003b41760201c565b60a081815250505050620005a2565b60007f7fffffffffffffffffffffffffffffffffffffffffffffffffffffffffffffff82111562000197576040517f08c379a00000000000000000000000000000000000000000000000000000000081526004016200018e9062000580565b60405180910390fd5b819050919050565b600080fd5b600073ffffffffffffffffffffffffffffffffffffffff82169050919050565b6000620001d182620001a4565b9050919050565b6000620001e582620001c4565b9050919050565b620001f781620001d8565b81146200020357600080fd5b50565b6000815190506200021781620001ec565b92915050565b600069ffffffffffffffffffff82169050919050565b6200023e816200021d565b81146200024a57600080fd5b50565b6000815190506200025e8162000233565b92915050565b600080604083850312156200027e576200027d6200019f565b5b60006200028e8582860162000206565b9250506020620002a1858286016200024d565b9150509250929050565b600060ff82169050919050565b620002c381620002ab565b8114620002cf57600080fd5b50565b600081519050620002e381620002b8565b92915050565b6000602082840312156200030257620003016200019f565b5b60006200031284828501620002d2565b91505092915050565b7f4e487b7100000000000000000000000000000000000000000000000000000000600052601160045260246000fd5b60008160011c9050919050565b6000808291508390505b6001851115620003a9578086048111156200038157620003806200031b565b5b6001851615620003915780820291505b8081029050620003a1856200034a565b945062000361565b94509492505050565b600082620003c4576001905062000497565b81620003d4576000905062000497565b8160018114620003ed5760028114620003f8576200042e565b600191505062000497565b60ff8411156200040d576200040c6200031b565b5b8360020a9150848211156200042757620004266200031b565b5b5062000497565b5060208310610133831016604e8410600b8410161715620004685782820a9050838111156200046257620004616200031b565b5b62000497565b62000477848484600162000357565b925090508184048111156200049157620004906200031b565b5b81810290505b9392505050565b6000819050919050565b6000620004b5826200049e565b9150620004c283620002ab565b9250620004f17fffffffffffffffffffffffffffffffffffffffffffffffffffffffffffffffff8484620003b2565b905092915050565b600082825260208201905092915050565b7f53616665436173743a2076616c756520646f65736e27742066697420696e206160008201527f6e20696e74323536000000000000000000000000000000000000000000000000602082015250565b600062000568602883620004f9565b915062000575826200050a565b604082019050919050565b600060208201905081810360008301526200059b8162000559565b9050919050565b60805160a05160c051610b10620005ed6000396000818161010b01526104640152600061043101526000818160dd0152818161019001528181610255015261030c0152610b106000f3fe608060405234801561001057600080fd5b506004361061004c5760003560e01c806337a7b7d8146100515780637ece075d1461006f5780639d888e861461009f578063fff6cae9146100bd575b600080fd5b6100596100db565b604051610066919061057c565b60405180910390f35b610089600480360381019061008491906105d2565b6100ff565b604051610096919061068b565b60405180910390f35b6100a7610246565b6040516100b4919061068b565b60405180910390f35b6100c56102fd565b6040516100d2919061068b565b60405180910390f35b7f000000000000000000000000000000000000000000000000000000000000000081565b6101076104dc565b60007f000000000000000000000000000000000000000000000000000000000000000069ffffffffffffffffffff168361014191906106d5565b905069ffffffffffffffffffff8016811115610189576040517f69d4c15400000000000000000000000000000000000000000000000000000000815260040160405180910390fd5b60008060007f000000000000000000000000000000000000000000000000000000000000000073ffffffffffffffffffffffffffffffffffffffff16639a6fc8f5856040518263ffffffff1660e01b81526004016101e79190610750565b60a060405180830381865afa158015610204573d6000803e3d6000fd5b505050506040513d601f19601f8201168201806040525081019061022891906107d8565b509350509250925061023b838383610421565b945050505050919050565b61024e6104dc565b60008060007f000000000000000000000000000000000000000000000000000000000000000073ffffffffffffffffffffffffffffffffffffffff1663feaf968c6040518163ffffffff1660e01b815260040160a060405180830381865afa1580156102be573d6000803e3d6000fd5b505050506040513d601f19601f820116820180604052508101906102e291906107d8565b50935050925092506102f5838383610421565b935050505090565b6103056104dc565b60008060007f000000000000000000000000000000000000000000000000000000000000000073ffffffffffffffffffffffffffffffffffffffff1663feaf968c6040518163ffffffff1660e01b815260040160a060405180830381865afa158015610375573d6000803e3d6000fd5b505050506040513d601f19601f8201168201806040525081019061039991906107d8565b50935050925092506103ac838383610421565b935050505090565b60007f7fffffffffffffffffffffffffffffffffffffffffffffffffffffffffffffff821115610419576040517f08c379a0000000000000000000000000000000000000000000000000000000008152600401610410906108d6565b60405180910390fd5b819050919050565b6104296104dc565b6000610455847f00000000000000000000000000000000000000000000000000000000000000006104b3565b905060405180606001604052807f00000000000000000000000000000000000000000000000000000000000000008761048e91906108f6565b69ffffffffffffffffffff168152602001848152602001828152509150509392505050565b600081670de0b6b3a7640000846104ca919061092a565b6104d49190610a70565b905092915050565b60405180606001604052806000815260200160008152602001600081525090565b600073ffffffffffffffffffffffffffffffffffffffff82169050919050565b6000819050919050565b600061054261053d610538846104fd565b61051d565b6104fd565b9050919050565b600061055482610527565b9050919050565b600061056682610549565b9050919050565b6105768161055b565b82525050565b6000602082019050610591600083018461056d565b92915050565b600080fd5b6000819050919050565b6105af8161059c565b81146105ba57600080fd5b50565b6000813590506105cc816105a6565b92915050565b6000602082840312156105e8576105e7610597565b5b60006105f6848285016105bd565b91505092915050565b6106088161059c565b82525050565b6000819050919050565b600061063361062e6106298461060e565b61051d565b61060e565b9050919050565b61064381610618565b82525050565b60608201600082015161065f60008501826105ff565b50602082015161067260208501826105ff565b506040820151610685604085018261063a565b50505050565b60006060820190506106a06000830184610649565b92915050565b7f4e487b7100000000000000000000000000000000000000000000000000000000600052601160045260246000fd5b60006106e08261059c565b91506106eb8361059c565b9250827fffffffffffffffffffffffffffffffffffffffffffffffffffffffffffffffff038211156107205761071f6106a6565b5b828201905092915050565b600069ffffffffffffffffffff82169050919050565b61074a8161072b565b82525050565b60006020820190506107656000830184610741565b92915050565b6107748161072b565b811461077f57600080fd5b50565b6000815190506107918161076b565b92915050565b6107a08161060e565b81146107ab57600080fd5b50565b6000815190506107bd81610797565b92915050565b6000815190506107d2816105a6565b92915050565b600080600080600060a086880312156107f4576107f3610597565b5b600061080288828901610782565b9550506020610813888289016107ae565b9450506040610824888289016107c3565b9350506060610835888289016107c3565b925050608061084688828901610782565b9150509295509295909350565b600082825260208201905092915050565b7f53616665436173743a2076616c756520646f65736e27742066697420696e206160008201527f6e20696e74323536000000000000000000000000000000000000000000000000602082015250565b60006108c0602883610853565b91506108cb82610864565b604082019050919050565b600060208201905081810360008301526108ef816108b3565b9050919050565b60006109018261072b565b915061090c8361072b565b92508282101561091f5761091e6106a6565b5b828203905092915050565b60006109358261060e565b91506109408361060e565b9250827f7fffffffffffffffffffffffffffffffffffffffffffffffffffffffffffffff048211600084136000841316161561097f5761097e6106a6565b5b817f800000000000000000000000000000000000000000000000000000000000000005831260008412600084131616156109bc576109bb6106a6565b5b827f800000000000000000000000000000000000000000000000000000000000000005821260008413600084121616156109f9576109f86106a6565b5b827f7fffffffffffffffffffffffffffffffffffffffffffffffffffffffffffffff0582126000841260008412161615610a3657610a356106a6565b5b828202905092915050565b7f4e487b7100000000000000000000000000000000000000000000000000000000600052601260045260246000fd5b6000610a7b8261060e565b9150610a868361060e565b925082610a9657610a95610a41565b5b600160000383147f800000000000000000000000000000000000000000000000000000000000000083141615610acf57610ace6106a6565b5b82820590509291505056fea2646970667358221220cfce715e143f4ba5df5c7ada8098872d2a7c3660125e85c2a07721d61ea81ae464736f6c634300080e0033",
  "devdoc": {
    "details": "This is a naive implementation which pushes all validation to the underlying. No staleness checks are possible This oracle should not be used for regular Chainlink Data Feeds",
    "kind": "dev",
    "methods": {
      "atVersion(uint256)": {
        "details": "Converts the passed in version to a roundID by adding _versionOffset",
        "params": {
          "version": "The version of which to lookup"
        },
        "returns": {
          "oracleVersion": "Oracle version at version `version`"
        }
      },
      "constructor": {
        "params": {
          "feed_": "Reservoir price feed",
          "versionOffset_": "Version offset from source round ID"
        }
      },
      "currentVersion()": {
        "returns": {
          "oracleVersion": "Current oracle version"
        }
      },
      "sync()": {
        "returns": {
          "_0": "The current oracle version after sync"
        }
      }
    },
    "stateVariables": {
      "_decimalOffset": {
        "details": "Decimal offset used to normalize chainlink price to 18 decimals"
      },
      "_versionOffset": {
        "details": "Which underlying round to consider version 0: version = roundId - _versionOffset"
      },
      "feed": {
        "details": "Chainlink price feed to read from"
      }
    },
    "title": "ReservoirFeedOracle",
    "version": 1
  },
  "userdoc": {
    "kind": "user",
    "methods": {
      "atVersion(uint256)": {
        "notice": "Returns the oracle version specified"
      },
      "constructor": {
        "notice": "Initializes the contract state"
      },
      "currentVersion()": {
        "notice": "Returns the current oracle version"
      },
      "sync()": {
        "notice": "Checks for a new price. Does not perform staleness validation as the underlying oracle does not support this."
      }
    },
    "notice": "Reservoir implementation of the IOracle interface, using Reservoir's AggregatorV3Interface adaptors",
    "version": 1
  },
  "storageLayout": {
    "storage": [],
    "types": null
  }
}