{
  "address": "0x93cE20Db473DD918D662F098819f63Bc91cf9041",
  "abi": [
    {
      "inputs": [
        {
          "internalType": "contract IOracleProvider",
          "name": "oracle_",
          "type": "address"
        },
        {
          "internalType": "UFixed18",
          "name": "maintenance_",
          "type": "uint256"
        },
        {
          "internalType": "UFixed18",
          "name": "fundingFee_",
          "type": "uint256"
        },
        {
          "internalType": "UFixed18",
          "name": "makerFee_",
          "type": "uint256"
        },
        {
          "internalType": "UFixed18",
          "name": "takerFee_",
          "type": "uint256"
        },
        {
          "internalType": "UFixed18",
          "name": "makerLimit_",
          "type": "uint256"
        },
        {
          "components": [
            {
              "internalType": "PackedFixed18",
              "name": "minRate",
              "type": "int128"
            },
            {
              "internalType": "PackedFixed18",
              "name": "maxRate",
              "type": "int128"
            },
            {
              "internalType": "PackedFixed18",
              "name": "targetRate",
              "type": "int128"
            },
            {
              "internalType": "PackedUFixed18",
              "name": "targetUtilization",
              "type": "uint128"
            }
          ],
          "internalType": "struct JumpRateUtilizationCurve",
          "name": "utilizationCurve_",
          "type": "tuple"
        }
      ],
      "stateMutability": "nonpayable",
      "type": "constructor"
    },
    {
      "inputs": [],
      "name": "CurveMathOutOfBoundsError",
      "type": "error"
    },
    {
      "inputs": [
        {
          "internalType": "uint256",
          "name": "value",
          "type": "uint256"
        }
      ],
      "name": "Fixed18OverflowError",
      "type": "error"
    },
    {
      "inputs": [
        {
          "internalType": "uint256",
          "name": "oracleVersion",
          "type": "uint256"
        }
      ],
      "name": "atVersion",
      "outputs": [
        {
          "components": [
            {
              "internalType": "uint256",
              "name": "version",
              "type": "uint256"
            },
            {
              "internalType": "uint256",
              "name": "timestamp",
              "type": "uint256"
            },
            {
              "internalType": "Fixed18",
              "name": "price",
              "type": "int256"
            }
          ],
          "internalType": "struct IOracleProvider.OracleVersion",
          "name": "",
          "type": "tuple"
        }
      ],
      "stateMutability": "view",
      "type": "function"
    },
    {
      "inputs": [],
      "name": "currentVersion",
      "outputs": [
        {
          "components": [
            {
              "internalType": "uint256",
              "name": "version",
              "type": "uint256"
            },
            {
              "internalType": "uint256",
              "name": "timestamp",
              "type": "uint256"
            },
            {
              "internalType": "Fixed18",
              "name": "price",
              "type": "int256"
            }
          ],
          "internalType": "struct IOracleProvider.OracleVersion",
          "name": "",
          "type": "tuple"
        }
      ],
      "stateMutability": "view",
      "type": "function"
    },
    {
      "inputs": [],
      "name": "fundingFee",
      "outputs": [
        {
          "internalType": "UFixed18",
          "name": "",
          "type": "uint256"
        }
      ],
      "stateMutability": "view",
      "type": "function"
    },
    {
      "inputs": [],
      "name": "maintenance",
      "outputs": [
        {
          "internalType": "UFixed18",
          "name": "",
          "type": "uint256"
        }
      ],
      "stateMutability": "view",
      "type": "function"
    },
    {
      "inputs": [],
      "name": "makerFee",
      "outputs": [
        {
          "internalType": "UFixed18",
          "name": "",
          "type": "uint256"
        }
      ],
      "stateMutability": "view",
      "type": "function"
    },
    {
      "inputs": [],
      "name": "makerLimit",
      "outputs": [
        {
          "internalType": "UFixed18",
          "name": "",
          "type": "uint256"
        }
      ],
      "stateMutability": "view",
      "type": "function"
    },
    {
      "inputs": [],
      "name": "name",
      "outputs": [
        {
          "internalType": "string",
          "name": "",
          "type": "string"
        }
      ],
      "stateMutability": "view",
      "type": "function"
    },
    {
      "inputs": [],
      "name": "oracle",
      "outputs": [
        {
          "internalType": "contract IOracleProvider",
          "name": "",
          "type": "address"
        }
      ],
      "stateMutability": "view",
      "type": "function"
    },
    {
      "inputs": [
        {
          "components": [
            {
              "internalType": "UFixed18",
              "name": "maker",
              "type": "uint256"
            },
            {
              "internalType": "UFixed18",
              "name": "taker",
              "type": "uint256"
            }
          ],
          "internalType": "struct Position",
          "name": "position",
          "type": "tuple"
        }
      ],
      "name": "rate",
      "outputs": [
        {
          "internalType": "Fixed18",
          "name": "",
          "type": "int256"
        }
      ],
      "stateMutability": "view",
      "type": "function"
    },
    {
      "inputs": [],
      "name": "symbol",
      "outputs": [
        {
          "internalType": "string",
          "name": "",
          "type": "string"
        }
      ],
      "stateMutability": "view",
      "type": "function"
    },
    {
      "inputs": [],
      "name": "sync",
      "outputs": [
        {
          "components": [
            {
              "internalType": "uint256",
              "name": "version",
              "type": "uint256"
            },
            {
              "internalType": "uint256",
              "name": "timestamp",
              "type": "uint256"
            },
            {
              "internalType": "Fixed18",
              "name": "price",
              "type": "int256"
            }
          ],
          "internalType": "struct IOracleProvider.OracleVersion",
          "name": "",
          "type": "tuple"
        }
      ],
      "stateMutability": "nonpayable",
      "type": "function"
    },
    {
      "inputs": [],
      "name": "takerFee",
      "outputs": [
        {
          "internalType": "UFixed18",
          "name": "",
          "type": "uint256"
        }
      ],
      "stateMutability": "view",
      "type": "function"
    },
    {
      "inputs": [],
      "name": "utilizationCurve",
      "outputs": [
        {
          "components": [
            {
              "internalType": "PackedFixed18",
              "name": "minRate",
              "type": "int128"
            },
            {
              "internalType": "PackedFixed18",
              "name": "maxRate",
              "type": "int128"
            },
            {
              "internalType": "PackedFixed18",
              "name": "targetRate",
              "type": "int128"
            },
            {
              "internalType": "PackedUFixed18",
              "name": "targetUtilization",
              "type": "uint128"
            }
          ],
          "internalType": "struct JumpRateUtilizationCurve",
          "name": "",
          "type": "tuple"
        }
      ],
      "stateMutability": "view",
      "type": "function"
    }
  ],
  "transactionHash": "0x794330e107f529d9a5e22c361411bfc328b9a256ac14c8e6b782114dd4d63942",
  "args": [
    "0x841d7C994aC0Bb17CcD65a021E686e3cFafE2118",
    "300000000000000000",
    "100000000000000000",
    0,
    0,
    "2500000000000000000000",
    {
      "minRate": "40000000000000000",
      "maxRate": "16250000000000000000",
      "targetRate": "1560000000000000000",
      "targetUtilization": "800000000000000000"
    }
  ],
  "numDeployments": 1,
  "solcInputHash": "0334c7e1f902ac6804eb90efb3472ddf",
  "bytecode": "0x6101c06040523480156200001257600080fd5b5060405162001a7138038062001a71833981810160405281019062000038919062000388565b85858585858b868060000151600f0b608081600f0b815250508060200151600f0b60a081600f0b815250508060400151600f0b60c081600f0b8152505080606001516fffffffffffffffffffffffffffffffff1660e0816fffffffffffffffffffffffffffffffff1681525050508073ffffffffffffffffffffffffffffffffffffffff166101008173ffffffffffffffffffffffffffffffffffffffff168152505050846101208181525050836101408181525050826101608181525050816101808181525050806101a081815250505050505050505050505050506200043c565b6000604051905090565b600080fd5b600073ffffffffffffffffffffffffffffffffffffffff82169050919050565b600062000157826200012a565b9050919050565b60006200016b826200014a565b9050919050565b6200017d816200015e565b81146200018957600080fd5b50565b6000815190506200019d8162000172565b92915050565b6000819050919050565b620001b881620001a3565b8114620001c457600080fd5b50565b600081519050620001d881620001ad565b92915050565b600080fd5b6000601f19601f8301169050919050565b7f4e487b7100000000000000000000000000000000000000000000000000000000600052604160045260246000fd5b6200022e82620001e3565b810181811067ffffffffffffffff8211171562000250576200024f620001f4565b5b80604052505050565b6000620002656200011b565b905062000273828262000223565b919050565b600081600f0b9050919050565b620002908162000278565b81146200029c57600080fd5b50565b600081519050620002b08162000285565b92915050565b60006fffffffffffffffffffffffffffffffff82169050919050565b620002dd81620002b6565b8114620002e957600080fd5b50565b600081519050620002fd81620002d2565b92915050565b6000608082840312156200031c576200031b620001de565b5b62000328608062000259565b905060006200033a848285016200029f565b600083015250602062000350848285016200029f565b602083015250604062000366848285016200029f565b60408301525060606200037c84828501620002ec565b60608301525092915050565b6000806000806000806000610140888a031215620003ab57620003aa62000125565b5b6000620003bb8a828b016200018c565b9750506020620003ce8a828b01620001c7565b9650506040620003e18a828b01620001c7565b9550506060620003f48a828b01620001c7565b9450506080620004078a828b01620001c7565b93505060a06200041a8a828b01620001c7565b92505060c06200042d8a828b0162000303565b91505092959891949750929550565b60805160a05160c05160e05161010051610120516101405161016051610180516101a0516115b9620004b860003960006102c9015260006102ed015260006105e2015260006103110152600061038a01526000610765015260006105a70152600061057e015260006105550152600061052c01526115b96000f3fe608060405234801561001057600080fd5b50600436106100df5760003560e01c80637dc0d1d01161008c5780639d888e86116100665780639d888e8614610216578063a12e1b3314610234578063fc741c7c14610252578063fff6cae914610270576100df565b80637dc0d1d0146101aa5780637ece075d146101c857806395d89b41146101f8576100df565b80635d16e120116100bd5780635d16e1201461013e57806360ec91d61461015c5780636c376cc51461018c576100df565b806306fdde03146100e4578063193775671461010257806343f0179b14610120575b600080fd5b6100ec61028e565b6040516100f99190610c52565b60405180910390f35b61010a6102c7565b6040516101179190610cb9565b60405180910390f35b6101286102eb565b6040516101359190610cb9565b60405180910390f35b61014661030f565b6040516101539190610cb9565b60405180910390f35b61017660048036038101906101719190610ddf565b610333565b6040516101839190610e47565b60405180910390f35b610194610388565b6040516101a19190610cb9565b60405180910390f35b6101b26103ac565b6040516101bf9190610ed7565b60405180910390f35b6101e260048036038101906101dd9190610f1e565b6103bb565b6040516101ef9190610fab565b60405180910390f35b610200610453565b60405161020d9190610c52565b60405180910390f35b61021e61048c565b60405161022b9190610fab565b60405180910390f35b61023c610517565b60405161024991906110a6565b60405180910390f35b61025a6105e0565b6040516102679190610cb9565b60405180910390f35b610278610604565b6040516102859190610fab565b60405180910390f35b6040518060400160405280600a81526020017f466c6f6f7220424159430000000000000000000000000000000000000000000081525081565b7f000000000000000000000000000000000000000000000000000000000000000081565b7f000000000000000000000000000000000000000000000000000000000000000081565b7f000000000000000000000000000000000000000000000000000000000000000081565b6000806103518360000151846020015161069190919063ffffffff16565b9050600061035e826106f8565b905061037f6103706301e1338061071b565b8261073890919063ffffffff16565b92505050919050565b7f000000000000000000000000000000000000000000000000000000000000000081565b60006103b6610761565b905090565b6103c3610b55565b61044c6103ce610761565b73ffffffffffffffffffffffffffffffffffffffff16637ece075d846040518263ffffffff1660e01b815260040161040691906110d0565b606060405180830381865afa158015610423573d6000803e3d6000fd5b505050506040513d601f19601f820116820180604052508101906104479190611190565b610789565b9050919050565b6040518060400160405280600581526020017f664241594300000000000000000000000000000000000000000000000000000081525081565b610494610b55565b61051261049f610761565b73ffffffffffffffffffffffffffffffffffffffff16639d888e866040518163ffffffff1660e01b8152600401606060405180830381865afa1580156104e9573d6000803e3d6000fd5b505050506040513d601f19601f8201168201806040525081019061050d9190611190565b610789565b905090565b61051f610b76565b60405180608001604052807f0000000000000000000000000000000000000000000000000000000000000000600f0b81526020017f0000000000000000000000000000000000000000000000000000000000000000600f0b81526020017f0000000000000000000000000000000000000000000000000000000000000000600f0b81526020017f00000000000000000000000000000000000000000000000000000000000000006fffffffffffffffffffffffffffffffff16815250905090565b7f000000000000000000000000000000000000000000000000000000000000000081565b61060c610b55565b61068c610617610761565b73ffffffffffffffffffffffffffffffffffffffff1663fff6cae96040518163ffffffff1660e01b81526004016060604051808303816000875af1158015610663573d6000803e3d6000fd5b505050506040513d601f19601f820116820180604052508101906106879190611190565b610789565b905090565b600061069c826107c7565b156106e5576106aa836107c7565b6106d4577fffffffffffffffffffffffffffffffffffffffffffffffffffffffffffffffff6106de565b670de0b6b3a76400005b90506106f2565b6106ef83836107d3565b90505b92915050565b600061071482610706610517565b6107fc90919063ffffffff16565b9050919050565b6000670de0b6b3a76400008261073191906111ec565b9050919050565b600081670de0b6b3a76400008461074f91906111ec565b6107599190611332565b905092915050565b60007f0000000000000000000000000000000000000000000000000000000000000000905090565b610791610b55565b604051806060016040528083600001518152602001836020015181526020016107bd84604001516108e1565b8152509050919050565b60008082149050919050565b600081670de0b6b3a7640000846107ea919061139c565b6107f491906113f6565b905092915050565b60008061081e84606001516fffffffffffffffffffffffffffffffff166108eb565b9050610833818461090790919063ffffffff16565b1561086c57610864600061084d8660000151600f0b61091d565b8361085e8860400151600f0b61091d565b8761092a565b9150506108db565b610887670de0b6b3a76400008461090790919063ffffffff16565b156108c7576108bf816108a08660400151600f0b61091d565b670de0b6b3a76400006108b98860200151600f0b61091d565b8761092a565b9150506108db565b6108d78460200151600f0b61091d565b9150505b92915050565b6000819050919050565b6000816fffffffffffffffffffffffffffffffff169050919050565b6000806109148484610a22565b14905092915050565b600081600f0b9050919050565b600061093f868361090790919063ffffffff16565b8061095957506109588483610a6090919063ffffffff16565b5b15610990576040517f0db0f7cb00000000000000000000000000000000000000000000000000000000815260040160405180910390fd5b60006109a58786610a7790919063ffffffff16565b905060006109bc8786610a8d90919063ffffffff16565b905060006109e5836109d78b88610a7790919063ffffffff16565b6107d390919063ffffffff16565b9050610a1488610a066109f784610aa3565b85610b1690919063ffffffff16565b610b3f90919063ffffffff16565b935050505095945050505050565b600080600084849150915080821115610a4057600292505050610a5a565b80821015610a5357600092505050610a5a565b6001925050505b92915050565b60006002610a6e8484610a22565b14905092915050565b60008183610a859190611427565b905092915050565b60008183610a9b919061145b565b905092915050565b6000808290507f7fffffffffffffffffffffffffffffffffffffffffffffffffffffffffffffff811115610b0d57806040517ea07eb5000000000000000000000000000000000000000000000000000000008152600401610b0491906110d0565b60405180910390fd5b80915050919050565b6000670de0b6b3a76400008284610b2d91906111ec565b610b379190611332565b905092915050565b60008183610b4d91906114ef565b905092915050565b60405180606001604052806000815260200160008152602001600081525090565b60405180608001604052806000600f0b81526020016000600f0b81526020016000600f0b815260200160006fffffffffffffffffffffffffffffffff1681525090565b600081519050919050565b600082825260208201905092915050565b60005b83811015610bf3578082015181840152602081019050610bd8565b83811115610c02576000848401525b50505050565b6000601f19601f8301169050919050565b6000610c2482610bb9565b610c2e8185610bc4565b9350610c3e818560208601610bd5565b610c4781610c08565b840191505092915050565b60006020820190508181036000830152610c6c8184610c19565b905092915050565b6000819050919050565b6000819050919050565b6000610ca3610c9e610c9984610c74565b610c7e565b610c74565b9050919050565b610cb381610c88565b82525050565b6000602082019050610cce6000830184610caa565b92915050565b6000604051905090565b600080fd5b600080fd5b7f4e487b7100000000000000000000000000000000000000000000000000000000600052604160045260246000fd5b610d2082610c08565b810181811067ffffffffffffffff82111715610d3f57610d3e610ce8565b5b80604052505050565b6000610d52610cd4565b9050610d5e8282610d17565b919050565b610d6c81610c74565b8114610d7757600080fd5b50565b600081359050610d8981610d63565b92915050565b600060408284031215610da557610da4610ce3565b5b610daf6040610d48565b90506000610dbf84828501610d7a565b6000830152506020610dd384828501610d7a565b60208301525092915050565b600060408284031215610df557610df4610cde565b5b6000610e0384828501610d8f565b91505092915050565b6000819050919050565b6000610e31610e2c610e2784610e0c565b610c7e565b610e0c565b9050919050565b610e4181610e16565b82525050565b6000602082019050610e5c6000830184610e38565b92915050565b600073ffffffffffffffffffffffffffffffffffffffff82169050919050565b6000610e9d610e98610e9384610e62565b610c7e565b610e62565b9050919050565b6000610eaf82610e82565b9050919050565b6000610ec182610ea4565b9050919050565b610ed181610eb6565b82525050565b6000602082019050610eec6000830184610ec8565b92915050565b610efb81610c74565b8114610f0657600080fd5b50565b600081359050610f1881610ef2565b92915050565b600060208284031215610f3457610f33610cde565b5b6000610f4284828501610f09565b91505092915050565b610f5481610c74565b82525050565b610f6381610e16565b82525050565b606082016000820151610f7f6000850182610f4b565b506020820151610f926020850182610f4b565b506040820151610fa56040850182610f5a565b50505050565b6000606082019050610fc06000830184610f69565b92915050565b600081600f0b9050919050565b6000610fee610fe9610fe484610fc6565b610c7e565b610fc6565b9050919050565b610ffe81610fd3565b82525050565b60006fffffffffffffffffffffffffffffffff82169050919050565b600061103b61103661103184611004565b610c7e565b611004565b9050919050565b61104b81611020565b82525050565b6080820160008201516110676000850182610ff5565b50602082015161107a6020850182610ff5565b50604082015161108d6040850182610ff5565b5060608201516110a06060850182611042565b50505050565b60006080820190506110bb6000830184611051565b92915050565b6110ca81610c74565b82525050565b60006020820190506110e560008301846110c1565b92915050565b6000815190506110fa81610ef2565b92915050565b61110981610e0c565b811461111457600080fd5b50565b60008151905061112681611100565b92915050565b60006060828403121561114257611141610ce3565b5b61114c6060610d48565b9050600061115c848285016110eb565b6000830152506020611170848285016110eb565b602083015250604061118484828501611117565b60408301525092915050565b6000606082840312156111a6576111a5610cde565b5b60006111b48482850161112c565b91505092915050565b7f4e487b7100000000000000000000000000000000000000000000000000000000600052601160045260246000fd5b60006111f782610e0c565b915061120283610e0c565b9250827f7fffffffffffffffffffffffffffffffffffffffffffffffffffffffffffffff0482116000841360008413161615611241576112406111bd565b5b817f8000000000000000000000000000000000000000000000000000000000000000058312600084126000841316161561127e5761127d6111bd565b5b827f800000000000000000000000000000000000000000000000000000000000000005821260008413600084121616156112bb576112ba6111bd565b5b827f7fffffffffffffffffffffffffffffffffffffffffffffffffffffffffffffff05821260008412600084121616156112f8576112f76111bd565b5b828202905092915050565b7f4e487b7100000000000000000000000000000000000000000000000000000000600052601260045260246000fd5b600061133d82610e0c565b915061134883610e0c565b92508261135857611357611303565b5b600160000383147f800000000000000000000000000000000000000000000000000000000000000083141615611391576113906111bd565b5b828205905092915050565b60006113a782610c74565b91506113b283610c74565b9250817fffffffffffffffffffffffffffffffffffffffffffffffffffffffffffffffff04831182151516156113eb576113ea6111bd565b5b828202905092915050565b600061140182610c74565b915061140c83610c74565b92508261141c5761141b611303565b5b828204905092915050565b600061143282610c74565b915061143d83610c74565b9250828210156114505761144f6111bd565b5b828203905092915050565b600061146682610e0c565b915061147183610e0c565b9250827f8000000000000000000000000000000000000000000000000000000000000000018212600084121516156114ac576114ab6111bd565b5b827f7fffffffffffffffffffffffffffffffffffffffffffffffffffffffffffffff0182136000841216156114e4576114e36111bd565b5b828203905092915050565b60006114fa82610e0c565b915061150583610e0c565b9250817f7fffffffffffffffffffffffffffffffffffffffffffffffffffffffffffffff038313600083121516156115405761153f6111bd565b5b817f8000000000000000000000000000000000000000000000000000000000000000038312600083121615611578576115776111bd565b5b82820190509291505056fea2646970667358221220625a4868d42cc65a7a710c5488975f9a22eeaf1db1396c0b617c4478a657da2464736f6c634300080e0033",
  "devdoc": {
    "kind": "dev",
    "methods": {
      "atVersion(uint256)": {
        "params": {
          "oracleVersion": "Oracle version to return for"
        },
        "returns": {
          "_0": "Oracle version at `oracleVersion` with price transformed by payoff function"
        }
      },
      "currentVersion()": {
        "returns": {
          "_0": "Current oracle version"
        }
      },
      "oracle()": {
        "returns": {
          "_0": "Oracle contract address"
        }
      },
      "rate((uint256,uint256))": {
        "details": "Handles 0-maker/taker edge cases",
        "params": {
          "position": "Position to base utilization on"
        },
        "returns": {
          "_0": "The per-second rate"
        }
      },
      "utilizationCurve()": {
        "returns": {
          "_0": "Current utilization curve parameter set"
        }
      }
    },
    "version": 1
  },
  "userdoc": {
    "kind": "user",
    "methods": {
      "atVersion(uint256)": {
        "notice": "Returns the oracle version at `oracleVersion`"
      },
      "currentVersion()": {
        "notice": "Returns the current oracle version"
      },
      "oracle()": {
        "notice": "Returns the oracle contract address"
      },
      "rate((uint256,uint256))": {
        "notice": "Returns The per-second rate based on the provided `position`"
      },
      "sync()": {
        "notice": "Pass-through hook to call sync() on the oracle provider"
      },
      "utilizationCurve()": {
        "notice": "Returns the utilization curve parameter set"
      }
    },
    "version": 1
  },
  "storageLayout": {
    "storage": [],
    "types": null
  }
}