{
  "address": "0xDe63b17DE09Fba6f463a3810450cE54FAeD1e8D0",
  "abi": [
    {
      "inputs": [],
      "name": "CurveMathOutOfBoundsError",
      "type": "error"
    },
    {
      "inputs": [
        {
          "internalType": "uint256",
          "name": "value",
          "type": "uint256"
        }
      ],
      "name": "Fixed18OverflowError",
      "type": "error"
    },
    {
      "inputs": [
        {
          "internalType": "uint256",
          "name": "version",
          "type": "uint256"
        }
      ],
      "name": "UInitializableAlreadyInitializedError",
      "type": "error"
    },
    {
      "inputs": [],
      "name": "UInitializableNotInitializingError",
      "type": "error"
    },
    {
      "inputs": [],
      "name": "UInitializableZeroVersionError",
      "type": "error"
    },
    {
      "inputs": [
        {
          "internalType": "address",
          "name": "sender",
          "type": "address"
        }
      ],
      "name": "UOwnableNotOwnerError",
      "type": "error"
    },
    {
      "inputs": [
        {
          "internalType": "address",
          "name": "sender",
          "type": "address"
        }
      ],
      "name": "UOwnableNotPendingOwnerError",
      "type": "error"
    },
    {
      "anonymous": false,
      "inputs": [
        {
          "indexed": false,
          "internalType": "UFixed18",
          "name": "newFundingFee",
          "type": "uint256"
        }
      ],
      "name": "FundingFeeUpdated",
      "type": "event"
    },
    {
      "anonymous": false,
      "inputs": [
        {
          "indexed": false,
          "internalType": "Fixed18",
          "name": "minRate",
          "type": "int256"
        },
        {
          "indexed": false,
          "internalType": "Fixed18",
          "name": "maxRate",
          "type": "int256"
        },
        {
          "indexed": false,
          "internalType": "Fixed18",
          "name": "targetRate",
          "type": "int256"
        },
        {
          "indexed": false,
          "internalType": "UFixed18",
          "name": "targetUtilization",
          "type": "uint256"
        }
      ],
      "name": "JumpRateUtilizationCurveUpdated",
      "type": "event"
    },
    {
      "anonymous": false,
      "inputs": [
        {
          "indexed": false,
          "internalType": "UFixed18",
          "name": "newMaintenance",
          "type": "uint256"
        }
      ],
      "name": "MaintenanceUpdated",
      "type": "event"
    },
    {
      "anonymous": false,
      "inputs": [
        {
          "indexed": false,
          "internalType": "UFixed18",
          "name": "newMakerFee",
          "type": "uint256"
        }
      ],
      "name": "MakerFeeUpdated",
      "type": "event"
    },
    {
      "anonymous": false,
      "inputs": [
        {
          "indexed": false,
          "internalType": "UFixed18",
          "name": "newMakerLimit",
          "type": "uint256"
        }
      ],
      "name": "MakerLimitUpdated",
      "type": "event"
    },
    {
      "anonymous": false,
      "inputs": [
        {
          "indexed": false,
          "internalType": "contract IOracleProvider",
          "name": "newOracle",
          "type": "address"
        }
      ],
      "name": "OracleUpdated",
      "type": "event"
    },
    {
      "anonymous": false,
      "inputs": [
        {
          "indexed": true,
          "internalType": "address",
          "name": "newOwner",
          "type": "address"
        }
      ],
      "name": "OwnerUpdated",
      "type": "event"
    },
    {
      "anonymous": false,
      "inputs": [
        {
          "indexed": true,
          "internalType": "address",
          "name": "newPendingOwner",
          "type": "address"
        }
      ],
      "name": "PendingOwnerUpdated",
      "type": "event"
    },
    {
      "anonymous": false,
      "inputs": [
        {
          "indexed": false,
          "internalType": "UFixed18",
          "name": "newTakerFee",
          "type": "uint256"
        }
      ],
      "name": "TakerFeeUpdated",
      "type": "event"
    },
    {
      "inputs": [],
      "name": "acceptOwner",
      "outputs": [],
      "stateMutability": "nonpayable",
      "type": "function"
    },
    {
      "inputs": [
        {
          "internalType": "uint256",
          "name": "oracleVersion",
          "type": "uint256"
        }
      ],
      "name": "atVersion",
      "outputs": [
        {
          "components": [
            {
              "internalType": "uint256",
              "name": "version",
              "type": "uint256"
            },
            {
              "internalType": "uint256",
              "name": "timestamp",
              "type": "uint256"
            },
            {
              "internalType": "Fixed18",
              "name": "price",
              "type": "int256"
            }
          ],
          "internalType": "struct IOracleProvider.OracleVersion",
          "name": "",
          "type": "tuple"
        }
      ],
      "stateMutability": "view",
      "type": "function"
    },
    {
      "inputs": [],
      "name": "currentVersion",
      "outputs": [
        {
          "components": [
            {
              "internalType": "uint256",
              "name": "version",
              "type": "uint256"
            },
            {
              "internalType": "uint256",
              "name": "timestamp",
              "type": "uint256"
            },
            {
              "internalType": "Fixed18",
              "name": "price",
              "type": "int256"
            }
          ],
          "internalType": "struct IOracleProvider.OracleVersion",
          "name": "",
          "type": "tuple"
        }
      ],
      "stateMutability": "view",
      "type": "function"
    },
    {
      "inputs": [],
      "name": "fundingFee",
      "outputs": [
        {
          "internalType": "UFixed18",
          "name": "",
          "type": "uint256"
        }
      ],
      "stateMutability": "view",
      "type": "function"
    },
    {
      "inputs": [
        {
          "internalType": "contract IOracleProvider",
          "name": "oracle_",
          "type": "address"
        },
        {
          "internalType": "UFixed18",
          "name": "maintenance_",
          "type": "uint256"
        },
        {
          "internalType": "UFixed18",
          "name": "fundingFee_",
          "type": "uint256"
        },
        {
          "internalType": "UFixed18",
          "name": "makerFee_",
          "type": "uint256"
        },
        {
          "internalType": "UFixed18",
          "name": "takerFee_",
          "type": "uint256"
        },
        {
          "internalType": "UFixed18",
          "name": "makerLimit_",
          "type": "uint256"
        },
        {
          "components": [
            {
              "internalType": "PackedFixed18",
              "name": "minRate",
              "type": "int128"
            },
            {
              "internalType": "PackedFixed18",
              "name": "maxRate",
              "type": "int128"
            },
            {
              "internalType": "PackedFixed18",
              "name": "targetRate",
              "type": "int128"
            },
            {
              "internalType": "PackedUFixed18",
              "name": "targetUtilization",
              "type": "uint128"
            }
          ],
          "internalType": "struct JumpRateUtilizationCurve",
          "name": "utilizationCurve_",
          "type": "tuple"
        }
      ],
      "name": "initialize",
      "outputs": [],
      "stateMutability": "nonpayable",
      "type": "function"
    },
    {
      "inputs": [],
      "name": "maintenance",
      "outputs": [
        {
          "internalType": "UFixed18",
          "name": "",
          "type": "uint256"
        }
      ],
      "stateMutability": "view",
      "type": "function"
    },
    {
      "inputs": [],
      "name": "makerFee",
      "outputs": [
        {
          "internalType": "UFixed18",
          "name": "",
          "type": "uint256"
        }
      ],
      "stateMutability": "view",
      "type": "function"
    },
    {
      "inputs": [],
      "name": "makerLimit",
      "outputs": [
        {
          "internalType": "UFixed18",
          "name": "",
          "type": "uint256"
        }
      ],
      "stateMutability": "view",
      "type": "function"
    },
    {
      "inputs": [],
      "name": "name",
      "outputs": [
        {
          "internalType": "string",
          "name": "",
          "type": "string"
        }
      ],
      "stateMutability": "view",
      "type": "function"
    },
    {
      "inputs": [],
      "name": "oracle",
      "outputs": [
        {
          "internalType": "contract IOracleProvider",
          "name": "",
          "type": "address"
        }
      ],
      "stateMutability": "view",
      "type": "function"
    },
    {
      "inputs": [],
      "name": "owner",
      "outputs": [
        {
          "internalType": "address",
          "name": "",
          "type": "address"
        }
      ],
      "stateMutability": "view",
      "type": "function"
    },
    {
      "inputs": [],
      "name": "pendingOwner",
      "outputs": [
        {
          "internalType": "address",
          "name": "",
          "type": "address"
        }
      ],
      "stateMutability": "view",
      "type": "function"
    },
    {
      "inputs": [
        {
          "components": [
            {
              "internalType": "UFixed18",
              "name": "maker",
              "type": "uint256"
            },
            {
              "internalType": "UFixed18",
              "name": "taker",
              "type": "uint256"
            }
          ],
          "internalType": "struct Position",
          "name": "position",
          "type": "tuple"
        }
      ],
      "name": "rate",
      "outputs": [
        {
          "internalType": "Fixed18",
          "name": "",
          "type": "int256"
        }
      ],
      "stateMutability": "view",
      "type": "function"
    },
    {
      "inputs": [],
      "name": "symbol",
      "outputs": [
        {
          "internalType": "string",
          "name": "",
          "type": "string"
        }
      ],
      "stateMutability": "view",
      "type": "function"
    },
    {
      "inputs": [],
      "name": "sync",
      "outputs": [
        {
          "components": [
            {
              "internalType": "uint256",
              "name": "version",
              "type": "uint256"
            },
            {
              "internalType": "uint256",
              "name": "timestamp",
              "type": "uint256"
            },
            {
              "internalType": "Fixed18",
              "name": "price",
              "type": "int256"
            }
          ],
          "internalType": "struct IOracleProvider.OracleVersion",
          "name": "",
          "type": "tuple"
        }
      ],
      "stateMutability": "nonpayable",
      "type": "function"
    },
    {
      "inputs": [],
      "name": "takerFee",
      "outputs": [
        {
          "internalType": "UFixed18",
          "name": "",
          "type": "uint256"
        }
      ],
      "stateMutability": "view",
      "type": "function"
    },
    {
      "inputs": [
        {
          "internalType": "UFixed18",
          "name": "newFundingFee",
          "type": "uint256"
        }
      ],
      "name": "updateFundingFee",
      "outputs": [],
      "stateMutability": "nonpayable",
      "type": "function"
    },
    {
      "inputs": [
        {
          "internalType": "UFixed18",
          "name": "newMaintenance",
          "type": "uint256"
        }
      ],
      "name": "updateMaintenance",
      "outputs": [],
      "stateMutability": "nonpayable",
      "type": "function"
    },
    {
      "inputs": [
        {
          "internalType": "UFixed18",
          "name": "newMakerFee",
          "type": "uint256"
        }
      ],
      "name": "updateMakerFee",
      "outputs": [],
      "stateMutability": "nonpayable",
      "type": "function"
    },
    {
      "inputs": [
        {
          "internalType": "UFixed18",
          "name": "newMakerLimit",
          "type": "uint256"
        }
      ],
      "name": "updateMakerLimit",
      "outputs": [],
      "stateMutability": "nonpayable",
      "type": "function"
    },
    {
      "inputs": [
        {
          "internalType": "contract IOracleProvider",
          "name": "newOracle",
          "type": "address"
        }
      ],
      "name": "updateOracle",
      "outputs": [],
      "stateMutability": "nonpayable",
      "type": "function"
    },
    {
      "inputs": [
        {
          "internalType": "address",
          "name": "newPendingOwner",
          "type": "address"
        }
      ],
      "name": "updatePendingOwner",
      "outputs": [],
      "stateMutability": "nonpayable",
      "type": "function"
    },
    {
      "inputs": [
        {
          "internalType": "UFixed18",
          "name": "newTakerFee",
          "type": "uint256"
        }
      ],
      "name": "updateTakerFee",
      "outputs": [],
      "stateMutability": "nonpayable",
      "type": "function"
    },
    {
      "inputs": [
        {
          "components": [
            {
              "internalType": "PackedFixed18",
              "name": "minRate",
              "type": "int128"
            },
            {
              "internalType": "PackedFixed18",
              "name": "maxRate",
              "type": "int128"
            },
            {
              "internalType": "PackedFixed18",
              "name": "targetRate",
              "type": "int128"
            },
            {
              "internalType": "PackedUFixed18",
              "name": "targetUtilization",
              "type": "uint128"
            }
          ],
          "internalType": "struct JumpRateUtilizationCurve",
          "name": "newUtilizationCurve",
          "type": "tuple"
        }
      ],
      "name": "updateUtilizationCurve",
      "outputs": [],
      "stateMutability": "nonpayable",
      "type": "function"
    },
    {
      "inputs": [],
      "name": "utilizationCurve",
      "outputs": [
        {
          "components": [
            {
              "internalType": "PackedFixed18",
              "name": "minRate",
              "type": "int128"
            },
            {
              "internalType": "PackedFixed18",
              "name": "maxRate",
              "type": "int128"
            },
            {
              "internalType": "PackedFixed18",
              "name": "targetRate",
              "type": "int128"
            },
            {
              "internalType": "PackedUFixed18",
              "name": "targetUtilization",
              "type": "uint128"
            }
          ],
          "internalType": "struct JumpRateUtilizationCurve",
          "name": "",
          "type": "tuple"
        }
      ],
      "stateMutability": "view",
      "type": "function"
    }
  ],
  "transactionHash": "0x5afb8837aad3a89c893d497f16fdde992971eed8dd44dcb74ba34fa41bd9b11d",
  "args": [],
  "numDeployments": 1,
  "solcInputHash": "15730301eafe294d7e1874e76da7ba93",
  "bytecode": "0x608060405234801561001057600080fd5b5061181b806100206000396000f3fe608060405234801561001057600080fd5b50600436106101a35760003560e01c80637eb0d6d9116100ee578063a12e1b3311610097578063e30c397811610071578063e30c3978146103e4578063ebbc4965146103ec578063fc741c7c146103f4578063fff6cae9146103fc57600080fd5b8063a12e1b3314610363578063b5ee6955146103be578063e1c3c98d146103d157600080fd5b80638da5cb5b116100c85780638da5cb5b1461031757806395d89b411461031f5780639d888e861461035b57600080fd5b80637eb0d6d9146102bc5780637ece075d146102cf5780638c94b48f1461030457600080fd5b806356bc1ad411610150578063611c71b41161012a578063611c71b4146102815780636c376cc5146102945780637dc0d1d01461029c57600080fd5b806356bc1ad4146102535780635d16e1201461026657806360ec91d61461026e57600080fd5b80631cb44dfc116101815780631cb44dfc146102255780633e17b8c71461023857806343f0179b1461024b57600080fd5b806306fdde03146101a8578063153261e5146101fa578063193775671461020f575b600080fd5b6101e46040518060400160405280600b81526020017f53686f727420457468657200000000000000000000000000000000000000000081525081565b6040516101f19190611395565b60405180910390f35b61020d6102083660046114a7565b610404565b005b610217610538565b6040519081526020016101f1565b61020d6102333660046114d8565b610567565b61020d6102463660046114f5565b6105fb565b610217610686565b61020d6102613660046114f5565b6106b0565b61021761073b565b61021761027c36600461150e565b610765565b61020d61028f3660046114f5565b6107a8565b610217610833565b6102a461085d565b6040516001600160a01b0390911681526020016101f1565b61020d6102ca36600461156b565b610867565b6102e26102dd3660046114f5565b61096e565b60408051825181526020808401519082015291810151908201526060016101f1565b61020d6103123660046114f5565b610a16565b6102a4610aa1565b6101e46040518060400160405280600481526020017f534554480000000000000000000000000000000000000000000000000000000081525081565b6102e2610acb565b61036b610b37565b6040516101f1919060006080820190508251600f0b82526020830151600f0b60208301526040830151600f0b60408301526fffffffffffffffffffffffffffffffff606084015116606083015292915050565b61020d6103cc3660046114d8565b610c04565b61020d6103df3660046114f5565b610c96565b6102a4610d21565b61020d610d4b565b610217610dbb565b6102e2610de5565b3361040d610aa1565b6001600160a01b03161461043b57604051634ca8691560e11b81523360048201526024015b60405180910390fd5b805160208201516fffffffffffffffffffffffffffffffff9182167001000000000000000000000000000000009183168202177f7a6aaae4f7839d658a30cd0e64ae48b0dde7e9a83128859908e3129cdbdb1fe85560408301516060840151908316921602177f7a6aaae4f7839d658a30cd0e64ae48b0dde7e9a83128859908e3129cdbdb1fe95580517f0887cb99bfd5017bb9e8282cc29d17176a4f1e542f869a03a5617919fb74620b90600f0b6020830151600f0b6040840151600f0b60608501516fffffffffffffffffffffffffffffffff166040805194855260208501939093529183015260608201526080015b60405180910390a150565b60006105627f66499988581640c7cae93f87f2f048e19a7345c5096fbc91d6ffdfc6152b01455490565b905090565b33610570610aa1565b6001600160a01b03161461059957604051634ca8691560e11b8152336004820152602401610432565b6105c27f81f668e4902872a0c115c05d56321b9a2bf9626c940e14153f9e3f7fee7abe16829055565b6040516001600160a01b03821681527f3df77beb5db05fcdd70a30fc8adf3f83f9501b68579455adbd100b81809403949060200161052d565b33610604610aa1565b6001600160a01b03161461062d57604051634ca8691560e11b8152336004820152602401610432565b6106567f537f6a645e279f60d7c7005c02ccdcd75970ae5069c4e78f176020253b587d34829055565b6040518181527f3ffba897342f8382491dd8984c684cc237d3c045298d4cec8ad0fd7262aa91f19060200161052d565b60006105627fcd66a60e98fe17d2cc994b54b6c5fb1e1b4aa6843ae87a412ec11acf86a46e635490565b336106b9610aa1565b6001600160a01b0316146106e257604051634ca8691560e11b8152336004820152602401610432565b61070b7ffbb4e0988e580aed3bfbf457568819fd2d0df674eefd28804c72bf31f3e93053829055565b6040518181527f5339371c8d31c4fb29fd4ad6b3bf89793839a3dfae45035ef23a635916dafc659060200161052d565b60006105627feca6f5954df40155adbea1325c6a086a55d263e9e0d1348fd20b2553b08174855490565b80516020820151600091829161077a91610e53565b9050600061078782610e83565b90506107a06107996301e13380610e97565b8290610eab565b949350505050565b336107b1610aa1565b6001600160a01b0316146107da57604051634ca8691560e11b8152336004820152602401610432565b6108037fcd66a60e98fe17d2cc994b54b6c5fb1e1b4aa6843ae87a412ec11acf86a46e63829055565b6040518181527f587b2c669227029fa59d08b2061678cdf5536e8709f7760940e5cf5f24336e469060200161052d565b60006105627ffbb4e0988e580aed3bfbf457568819fd2d0df674eefd28804c72bf31f3e930535490565b6000610562610ed1565b6001806108927f5db5abc19987c2b3729df7961b62b6bb0bae886dd47e3ce25bb3a3af34c6d80b5490565b106108cc576040517f1e7a9d9500000000000000000000000000000000000000000000000000000000815260048101829052602401610432565b6108f57f5db5abc19987c2b3729df7961b62b6bb0bae886dd47e3ce25bb3a3af34c6d80b829055565b60017fad57d7911b7e3d6c3c79a68ba909a7f4ba41f9485e5207b12dee0d0c6af5398c55610921610efb565b61092e8787878787610f51565b61093788610fd2565b6109408261102b565b60007fad57d7911b7e3d6c3c79a68ba909a7f4ba41f9485e5207b12dee0d0c6af5398c555050505050505050565b61099260405180606001604052806000815260200160008152602001600081525090565b610a1061099d610ed1565b6001600160a01b0316637ece075d846040518263ffffffff1660e01b81526004016109ca91815260200190565b606060405180830381865afa1580156109e7573d6000803e3d6000fd5b505050506040513d601f19601f82011682018060405250810190610a0b91906115d2565b611081565b92915050565b33610a1f610aa1565b6001600160a01b031614610a4857604051634ca8691560e11b8152336004820152602401610432565b610a717f66499988581640c7cae93f87f2f048e19a7345c5096fbc91d6ffdfc6152b0145829055565b6040518181527ff6bebbfbe342f87db90e223fb3dd70b26b082ed4266f1673b509dfeca0a7697a9060200161052d565b60006105627fd520c4fc3bfc097da8746a8578e9e0417f5acfdd84a1de38ed670148cc1a349d5490565b610aef60405180606001604052806000815260200160008152602001600081525090565b610562610afa610ed1565b6001600160a01b0316639d888e866040518163ffffffff1660e01b8152600401606060405180830381865afa1580156109e7573d6000803e3d6000fd5b6040805160808101825260008082526020820181905291810182905260608101919091526105627f7a6aaae4f7839d658a30cd0e64ae48b0dde7e9a83128859908e3129cdbdb1fe860408051608081018252600080825260208201819052918101829052606081019190915281604080516080810182528254600f81810b835270010000000000000000000000000000000091829004810b60208401526001909401549384900b9282019290925291046fffffffffffffffffffffffffffffffff16606082015292915050565b33610c0d610aa1565b6001600160a01b031614610c3657604051634ca8691560e11b8152336004820152602401610432565b610c5f7faabf80d370e1f8b862122cc5c4b30b4a8eb2d6b5dda0d437726c353765e1ed32829055565b6040516001600160a01b038216907f69f201bc2089b9be6195d876d97a0136b4cf56bbf8986a52dcb50697f7d1cac590600090a250565b33610c9f610aa1565b6001600160a01b031614610cc857604051634ca8691560e11b8152336004820152602401610432565b610cf17feca6f5954df40155adbea1325c6a086a55d263e9e0d1348fd20b2553b0817485829055565b6040518181527ffb8fb3fd721f9e0d7396f8475680125318fb14fffa561a1ab43dfa329f2fd98a9060200161052d565b60006105627faabf80d370e1f8b862122cc5c4b30b4a8eb2d6b5dda0d437726c353765e1ed325490565b610d53610d21565b6001600160a01b0316336001600160a01b031614610d9f576040517f14f8fce7000000000000000000000000000000000000000000000000000000008152336004820152602401610432565b610daf610daa610d21565b6110d9565b610db96000610c04565b565b60006105627f537f6a645e279f60d7c7005c02ccdcd75970ae5069c4e78f176020253b587d345490565b610e0960405180606001604052806000815260200160008152602001600081525090565b610562610e14610ed1565b6001600160a01b031663fff6cae96040518163ffffffff1660e01b81526004016060604051808303816000875af11580156109e7573d6000803e3d6000fd5b600081610e79578215610e6857600019610e72565b670de0b6b3a76400005b9050610a10565b610e728383611139565b6000610a1082610e91610b37565b90611158565b6000610a10670de0b6b3a764000083611652565b600081610ec0670de0b6b3a764000085611652565b610eca91906116ef565b9392505050565b60006105627f81f668e4902872a0c115c05d56321b9a2bf9626c940e14153f9e3f7fee7abe165490565b303b15158015610f2a57507fad57d7911b7e3d6c3c79a68ba909a7f4ba41f9485e5207b12dee0d0c6af5398c54155b15610f4857604051631a27c4a960e21b815260040160405180910390fd5b610db9336110d9565b303b15158015610f8057507fad57d7911b7e3d6c3c79a68ba909a7f4ba41f9485e5207b12dee0d0c6af5398c54155b15610f9e57604051631a27c4a960e21b815260040160405180910390fd5b610fa7856106b0565b610fb084610c96565b610fb9836105fb565b610fc2826107a8565b610fcb81610a16565b5050505050565b303b1515801561100157507fad57d7911b7e3d6c3c79a68ba909a7f4ba41f9485e5207b12dee0d0c6af5398c54155b1561101f57604051631a27c4a960e21b815260040160405180910390fd5b61102881610567565b50565b303b1515801561105a57507fad57d7911b7e3d6c3c79a68ba909a7f4ba41f9485e5207b12dee0d0c6af5398c54155b1561107857604051631a27c4a960e21b815260040160405180910390fd5b61102881610404565b6110a560405180606001604052806000815260200160008152602001600081525090565b604051806060016040528083600001518152602001836020015181526020016110d184604001516111ef565b905292915050565b6111027fd520c4fc3bfc097da8746a8578e9e0417f5acfdd84a1de38ed670148cc1a349d829055565b6040516001600160a01b038216907f4ffd725fc4a22075e9ec71c59edf9c38cdeb588a91b24fc5b61388c5be41282b90600090a250565b60008161114e670de0b6b3a76400008561171d565b610eca919061173c565b60608201516000906fffffffffffffffffffffffffffffffff1661117c8382611206565b156111a657835161119e90600090600f0b60408701518490600f0b5b8761121a565b915050610a10565b6111b883670de0b6b3a7640000611206565b156111e257604084015161119e908290600f0b6020870151670de0b6b3a764000090600f0b611198565b50505060200151600f0b90565b6000610a1082611200600019610e97565b906112cb565b600061121283836112e0565b159392505050565b60006112268287611206565b8061123657506112368285611315565b1561126d576040517f0db0f7cb00000000000000000000000000000000000000000000000000000000815260040160405180910390fd5b6000611279858861132b565b905060006112878588611337565b9050600061129f83611299878c61132b565b90611139565b90506112be886112b86112b184611343565b85906112cb565b90611389565b9998505050505050505050565b6000670de0b6b3a7640000610ec08385611652565b60008282808211156112f757600292505050610a10565b8082101561130a57600092505050610a10565b506001949350505050565b600061132183836112e0565b6002149392505050565b6000610eca8284611750565b6000610eca8284611767565b6000816001600160ff1b03811115610a10576040517ea07eb500000000000000000000000000000000000000000000000000000000815260048101829052602401610432565b6000610eca82846117a6565b600060208083528351808285015260005b818110156113c2578581018301518582016040015282016113a6565b818111156113d4576000604083870101525b50601f01601f1916929092016040019392505050565b8035600f81900b81146113fc57600080fd5b919050565b60006080828403121561141357600080fd5b6040516080810181811067ffffffffffffffff8211171561144457634e487b7160e01b600052604160045260246000fd5b604052905080611453836113ea565b8152611461602084016113ea565b6020820152611472604084016113ea565b604082015260608301356fffffffffffffffffffffffffffffffff8116811461149a57600080fd5b6060919091015292915050565b6000608082840312156114b957600080fd5b610eca8383611401565b6001600160a01b038116811461102857600080fd5b6000602082840312156114ea57600080fd5b8135610eca816114c3565b60006020828403121561150757600080fd5b5035919050565b60006040828403121561152057600080fd5b6040516040810181811067ffffffffffffffff8211171561155157634e487b7160e01b600052604160045260246000fd5b604052823581526020928301359281019290925250919050565b6000806000806000806000610140888a03121561158757600080fd5b8735611592816114c3565b96506020880135955060408801359450606088013593506080880135925060a088013591506115c48960c08a01611401565b905092959891949750929550565b6000606082840312156115e457600080fd5b6040516060810181811067ffffffffffffffff8211171561161557634e487b7160e01b600052604160045260246000fd5b80604052508251815260208301516020820152604083015160408201528091505092915050565b634e487b7160e01b600052601160045260246000fd5b60006001600160ff1b0360008413600084138583048511828216161561167a5761167a61163c565b600160ff1b60008712868205881281841616156116995761169961163c565b600087129250878205871284841616156116b5576116b561163c565b878505871281841616156116cb576116cb61163c565b505050929093029392505050565b634e487b7160e01b600052601260045260246000fd5b6000826116fe576116fe6116d9565b600160ff1b8214600019841416156117185761171861163c565b500590565b60008160001904831182151516156117375761173761163c565b500290565b60008261174b5761174b6116d9565b500490565b6000828210156117625761176261163c565b500390565b600080831283600160ff1b018312811516156117855761178561163c565b836001600160ff1b030183138116156117a0576117a061163c565b50500390565b6000808212826001600160ff1b03038413811516156117c7576117c761163c565b82600160ff1b0384128116156117df576117df61163c565b5050019056fea26469706673582212201cd0404d71c711ae86de23f36079297be48ae03503ce4c1a43bbc11983b9351464736f6c634300080e0033",
  "devdoc": {
    "kind": "dev",
    "methods": {
      "acceptOwner()": {
        "details": "Can only be called by the pending owner to ensure correctness"
      },
      "atVersion(uint256)": {
        "params": {
          "oracleVersion": "Oracle version to return for"
        },
        "returns": {
          "_0": "Oracle version at `oracleVersion` with price transformed by payoff function"
        }
      },
      "currentVersion()": {
        "returns": {
          "_0": "Current oracle version"
        }
      },
      "oracle()": {
        "returns": {
          "_0": "Oracle contract address"
        }
      },
      "rate((uint256,uint256))": {
        "details": "Handles 0-maker/taker edge cases",
        "params": {
          "position": "Position to base utilization on"
        },
        "returns": {
          "_0": "The per-second rate"
        }
      },
      "updateFundingFee(uint256)": {
        "params": {
          "newFundingFee": "new funding fee value"
        }
      },
      "updateMaintenance(uint256)": {
        "params": {
          "newMaintenance": "new maintenance value"
        }
      },
      "updateMakerFee(uint256)": {
        "params": {
          "newMakerFee": "new maker fee value"
        }
      },
      "updateMakerLimit(uint256)": {
        "params": {
          "newMakerLimit": "new maker limit value"
        }
      },
      "updateOracle(address)": {
        "params": {
          "newOracle": "new oracle address"
        }
      },
      "updatePendingOwner(address)": {
        "details": "Can only be called by the current owner      New owner does not take affect until that address calls `acceptOwner()`",
        "params": {
          "newPendingOwner": "New pending owner address"
        }
      },
      "updateTakerFee(uint256)": {
        "params": {
          "newTakerFee": "new taker fee value"
        }
      },
      "updateUtilizationCurve((int128,int128,int128,uint128))": {
        "params": {
          "newUtilizationCurve": "New curve parameter set"
        }
      }
    },
    "version": 1
  },
  "userdoc": {
    "kind": "user",
    "methods": {
      "acceptOwner()": {
        "notice": "Accepts and transfers the ownership of the contract to the pending owner"
      },
      "atVersion(uint256)": {
        "notice": "Returns the oracle version at `oracleVersion`"
      },
      "currentVersion()": {
        "notice": "Returns the current oracle version"
      },
      "oracle()": {
        "notice": "Returns the oracle contract address"
      },
      "rate((uint256,uint256))": {
        "notice": "Returns The per-second rate based on the provided `position`"
      },
      "sync()": {
        "notice": "Pass-through hook to call sync() on the oracle provider"
      },
      "updateFundingFee(uint256)": {
        "notice": "Updates the funding fee to `newFundingFee`"
      },
      "updateMaintenance(uint256)": {
        "notice": "Updates the maintenance to `newMaintenance`"
      },
      "updateMakerFee(uint256)": {
        "notice": "Updates the maker fee to `newMakerFee`"
      },
      "updateMakerLimit(uint256)": {
        "notice": "Updates the maker limit to `newMakerLimit`"
      },
      "updateOracle(address)": {
        "notice": "Updates the oracle address to `newOracle`"
      },
      "updatePendingOwner(address)": {
        "notice": "Updates the new pending owner"
      },
      "updateTakerFee(uint256)": {
        "notice": "Updates the taker fee to `newTakerFee`"
      },
      "updateUtilizationCurve((int128,int128,int128,uint128))": {
        "notice": "Allows the contract owner to update the curve parameters"
      }
    },
    "version": 1
  },
  "storageLayout": {
    "storage": [],
    "types": null
  }
}