{
  "address": "0xfC20BccA96BDE758E9C69151d99cEcfEAE3AB37E",
  "abi": [
    {
      "inputs": [
        {
          "internalType": "Token6",
          "name": "usdc_",
          "type": "address"
        },
        {
          "internalType": "Token18",
          "name": "dsu_",
          "type": "address"
        },
        {
          "internalType": "contract IBatcher",
          "name": "batcher_",
          "type": "address"
        },
        {
          "internalType": "contract ICollateral",
          "name": "collateral_",
          "type": "address"
        }
      ],
      "stateMutability": "nonpayable",
      "type": "constructor"
    },
    {
      "inputs": [],
      "name": "ForwarderNotContractAddressError",
      "type": "error"
    },
    {
      "anonymous": false,
      "inputs": [
        {
          "indexed": true,
          "internalType": "address",
          "name": "account",
          "type": "address"
        },
        {
          "indexed": true,
          "internalType": "contract IProduct",
          "name": "product",
          "type": "address"
        },
        {
          "indexed": false,
          "internalType": "UFixed18",
          "name": "amount",
          "type": "uint256"
        }
      ],
      "name": "WrapAndDeposit",
      "type": "event"
    },
    {
      "inputs": [],
      "name": "DSU",
      "outputs": [
        {
          "internalType": "Token18",
          "name": "",
          "type": "address"
        }
      ],
      "stateMutability": "view",
      "type": "function"
    },
    {
      "inputs": [],
      "name": "USDC",
      "outputs": [
        {
          "internalType": "Token6",
          "name": "",
          "type": "address"
        }
      ],
      "stateMutability": "view",
      "type": "function"
    },
    {
      "inputs": [],
      "name": "batcher",
      "outputs": [
        {
          "internalType": "contract IBatcher",
          "name": "",
          "type": "address"
        }
      ],
      "stateMutability": "view",
      "type": "function"
    },
    {
      "inputs": [],
      "name": "collateral",
      "outputs": [
        {
          "internalType": "contract ICollateral",
          "name": "",
          "type": "address"
        }
      ],
      "stateMutability": "view",
      "type": "function"
    },
    {
      "inputs": [
        {
          "internalType": "address",
          "name": "account",
          "type": "address"
        },
        {
          "internalType": "contract IProduct",
          "name": "product",
          "type": "address"
        },
        {
          "internalType": "UFixed18",
          "name": "amount",
          "type": "uint256"
        }
      ],
      "name": "wrapAndDeposit",
      "outputs": [],
      "stateMutability": "nonpayable",
      "type": "function"
    }
  ],
  "transactionHash": "0x4f810be2b2604db84b6762daad998e7b71210cf6ad79b3a843a0399b109fb523",
  "args": [
    "0xA0b86991c6218b36c1d19D4a2e9Eb0cE3606eB48",
    "0x605D26FBd5be761089281d5cec2Ce86eeA667109",
    "0x0B663CeaCEF01f2f88EB7451C70Aa069f19dB997",
    "0x2d264EBDb6632A06A1726193D4d37FeF1E5dbDcd"
  ],
  "numDeployments": 1,
  "solcInputHash": "43f6cf19a2aa111184cd0094b097bc92",
  "bytecode": "0x6101006040523480156200001257600080fd5b50604051620012ba380380620012ba83398101604081905262000035916200058a565b6200004b846200017160201b6200034b1760201c565b620000695760405163e5df3e0960e01b815260040160405180910390fd5b6200007f836200017160201b6200034b1760201c565b6200009d5760405163e5df3e0960e01b815260040160405180910390fd5b620000b3826200017160201b6200034b1760201c565b620000d15760405163e5df3e0960e01b815260040160405180910390fd5b620000e7816200017160201b6200034b1760201c565b620001055760405163e5df3e0960e01b815260040160405180910390fd5b6001600160a01b03848116608081905284821660a05283821660c081905291831660e052620001409162000180602090811b6200036717901c565b6200016760e05160a0516001600160a01b03166200018060201b620003671790919060201c565b50505050620006b6565b6001600160a01b03163b151590565b620001a781600019846001600160a01b0316620001ab60201b620003ac179092919060201c565b5050565b801580620002295750604051636eb1769f60e11b81523060048201526001600160a01b03838116602483015284169063dd62ed3e90604401602060405180830381865afa15801562000201573d6000803e3d6000fd5b505050506040513d601f19601f82011682018060405250810190620002279190620005f2565b155b620002a15760405162461bcd60e51b815260206004820152603660248201527f5361666545524332303a20617070726f76652066726f6d206e6f6e2d7a65726f60448201527f20746f206e6f6e2d7a65726f20616c6c6f77616e63650000000000000000000060648201526084015b60405180910390fd5b604080516001600160a01b038416602482015260448082018490528251808303909101815260649091019091526020810180516001600160e01b0390811663095ea7b360e01b17909152620002f9918591620002fe16565b505050565b60006200035a826040518060400160405280602081526020017f5361666545524332303a206c6f772d6c6576656c2063616c6c206661696c6564815250856001600160a01b0316620003dc60201b620005b6179092919060201c565b805190915015620002f957808060200190518101906200037b91906200060c565b620002f95760405162461bcd60e51b815260206004820152602a60248201527f5361666545524332303a204552433230206f7065726174696f6e20646964206e6044820152691bdd081cdd58d8d9595960b21b606482015260840162000298565b6060620003ed8484600085620003f7565b90505b9392505050565b6060824710156200045a5760405162461bcd60e51b815260206004820152602660248201527f416464726573733a20696e73756666696369656e742062616c616e636520666f6044820152651c8818d85b1b60d21b606482015260840162000298565b6001600160a01b0385163b620004b35760405162461bcd60e51b815260206004820152601d60248201527f416464726573733a2063616c6c20746f206e6f6e2d636f6e7472616374000000604482015260640162000298565b600080866001600160a01b03168587604051620004d1919062000663565b60006040518083038185875af1925050503d806000811462000510576040519150601f19603f3d011682016040523d82523d6000602084013e62000515565b606091505b5090925090506200052882828662000533565b979650505050505050565b6060831562000544575081620003f0565b825115620005555782518084602001fd5b8160405162461bcd60e51b815260040162000298919062000681565b6001600160a01b03811681146200058757600080fd5b50565b60008060008060808587031215620005a157600080fd5b8451620005ae8162000571565b6020860151909450620005c18162000571565b6040860151909350620005d48162000571565b6060860151909250620005e78162000571565b939692955090935050565b6000602082840312156200060557600080fd5b5051919050565b6000602082840312156200061f57600080fd5b81518015158114620003f057600080fd5b60005b838110156200064d57818101518382015260200162000633565b838111156200065d576000848401525b50505050565b600082516200067781846020870162000630565b9190910192915050565b6020815260008251806020840152620006a281604085016020870162000630565b601f01601f19169190910160400192915050565b60805160a05160c05160e051610bb862000702600039600081816101240152610281015260008181607101526101be0152600060fd01526000818160d601526101600152610bb86000f3fe608060405234801561001057600080fd5b50600436106100675760003560e01c806389a302711161005057806389a30271146100d1578063a2060bcf146100f8578063d8dfeb451461011f57600080fd5b8063025a3a291461006c57806344bc170a146100bc575b600080fd5b6100937f000000000000000000000000000000000000000000000000000000000000000081565b60405173ffffffffffffffffffffffffffffffffffffffff909116815260200160405180910390f35b6100cf6100ca3660046109d7565b610146565b005b6100937f000000000000000000000000000000000000000000000000000000000000000081565b6100937f000000000000000000000000000000000000000000000000000000000000000081565b6100937f000000000000000000000000000000000000000000000000000000000000000081565b61018973ffffffffffffffffffffffffffffffffffffffff7f000000000000000000000000000000000000000000000000000000000000000016338360016105cf565b6040517f13bac820000000000000000000000000000000000000000000000000000000008152600481018290523060248201527f000000000000000000000000000000000000000000000000000000000000000073ffffffffffffffffffffffffffffffffffffffff16906313bac82090604401600060405180830381600087803b15801561021757600080fd5b505af115801561022b573d6000803e3d6000fd5b50506040517ff213159c00000000000000000000000000000000000000000000000000000000815273ffffffffffffffffffffffffffffffffffffffff86811660048301528581166024830152604482018590527f000000000000000000000000000000000000000000000000000000000000000016925063f213159c9150606401600060405180830381600087803b1580156102c757600080fd5b505af11580156102db573d6000803e3d6000fd5b505050508173ffffffffffffffffffffffffffffffffffffffff168373ffffffffffffffffffffffffffffffffffffffff167f8e7ce60e353ab1a4cc59ca4782bdc69e0565713d1824dce27e0de2e362147ed08360405161033e91815260200190565b60405180910390a3505050565b73ffffffffffffffffffffffffffffffffffffffff163b151590565b6103a873ffffffffffffffffffffffffffffffffffffffff8316827fffffffffffffffffffffffffffffffffffffffffffffffffffffffffffffffff6103ac565b5050565b80158061044c57506040517fdd62ed3e00000000000000000000000000000000000000000000000000000000815230600482015273ffffffffffffffffffffffffffffffffffffffff838116602483015284169063dd62ed3e90604401602060405180830381865afa158015610426573d6000803e3d6000fd5b505050506040513d601f19601f8201168201806040525081019061044a9190610a18565b155b6104dd576040517f08c379a000000000000000000000000000000000000000000000000000000000815260206004820152603660248201527f5361666545524332303a20617070726f76652066726f6d206e6f6e2d7a65726f60448201527f20746f206e6f6e2d7a65726f20616c6c6f77616e63650000000000000000000060648201526084015b60405180910390fd5b60405173ffffffffffffffffffffffffffffffffffffffff83166024820152604481018290526105b19084907f095ea7b300000000000000000000000000000000000000000000000000000000906064015b604080517fffffffffffffffffffffffffffffffffffffffffffffffffffffffffffffffe08184030181529190526020810180517bffffffffffffffffffffffffffffffffffffffffffffffffffffffff167fffffffff0000000000000000000000000000000000000000000000000000000090931692909217909152610603565b505050565b60606105c5848460008561070f565b90505b9392505050565b6105fd83306105de85856108a5565b73ffffffffffffffffffffffffffffffffffffffff88169291906108cf565b50505050565b6000610665826040518060400160405280602081526020017f5361666545524332303a206c6f772d6c6576656c2063616c6c206661696c65648152508573ffffffffffffffffffffffffffffffffffffffff166105b69092919063ffffffff16565b8051909150156105b157808060200190518101906106839190610a31565b6105b1576040517f08c379a000000000000000000000000000000000000000000000000000000000815260206004820152602a60248201527f5361666545524332303a204552433230206f7065726174696f6e20646964206e60448201527f6f7420737563636565640000000000000000000000000000000000000000000060648201526084016104d4565b6060824710156107a1576040517f08c379a000000000000000000000000000000000000000000000000000000000815260206004820152602660248201527f416464726573733a20696e73756666696369656e742062616c616e636520666f60448201527f722063616c6c000000000000000000000000000000000000000000000000000060648201526084016104d4565b73ffffffffffffffffffffffffffffffffffffffff85163b61081f576040517f08c379a000000000000000000000000000000000000000000000000000000000815260206004820152601d60248201527f416464726573733a2063616c6c20746f206e6f6e2d636f6e747261637400000060448201526064016104d4565b6000808673ffffffffffffffffffffffffffffffffffffffff1685876040516108489190610a7f565b60006040518083038185875af1925050503d8060008114610885576040519150601f19603f3d011682016040523d82523d6000602084013e61088a565b606091505b509150915061089a82828661092d565b979650505050505050565b6000816108c0576108bb64e8d4a5100084610aca565b6105c8565b6105c88364e8d4a51000610980565b60405173ffffffffffffffffffffffffffffffffffffffff808516602483015283166044820152606481018290526105fd9085907f23b872dd000000000000000000000000000000000000000000000000000000009060840161052f565b6060831561093c5750816105c8565b82511561094c5782518084602001fd5b816040517f08c379a00000000000000000000000000000000000000000000000000000000081526004016104d49190610ade565b600061098c8284610b2f565b1561099857600161099b565b60005b60ff166109a88385610aca565b6105c89190610b43565b73ffffffffffffffffffffffffffffffffffffffff811681146109d457600080fd5b50565b6000806000606084860312156109ec57600080fd5b83356109f7816109b2565b92506020840135610a07816109b2565b929592945050506040919091013590565b600060208284031215610a2a57600080fd5b5051919050565b600060208284031215610a4357600080fd5b815180151581146105c857600080fd5b60005b83811015610a6e578181015183820152602001610a56565b838111156105fd5750506000910152565b60008251610a91818460208701610a53565b9190910192915050565b7f4e487b7100000000000000000000000000000000000000000000000000000000600052601260045260246000fd5b600082610ad957610ad9610a9b565b500490565b6020815260008251806020840152610afd816040850160208701610a53565b601f017fffffffffffffffffffffffffffffffffffffffffffffffffffffffffffffffe0169190910160400192915050565b600082610b3e57610b3e610a9b565b500690565b60008219821115610b7d577f4e487b7100000000000000000000000000000000000000000000000000000000600052601160045260246000fd5b50019056fea2646970667358221220ec9c4186939b8bfc3bd6ef92257a35503ebc51f749f10b706ec9c0022f7b049664736f6c634300080f0033",
  "devdoc": {
    "kind": "dev",
    "methods": {
      "constructor": {
        "params": {
          "batcher_": "The USDC-to-DSU batcher contract address",
          "collateral_": "The perennial collateral contract address",
          "dsu_": "The DSU token contract address",
          "usdc_": "The USDC token contract address"
        }
      },
      "wrapAndDeposit(address,address,uint256)": {
        "params": {
          "account": "Account to deposit the collateral for",
          "amount": "18 decimals-normalized stablecoin (USDC, DSU) value of collateral to deposit",
          "product": "Product to credit the collateral to"
        }
      }
    },
    "stateVariables": {
      "batcher": {
        "details": "Contract that wraps USDC to DSU"
      },
      "collateral": {
        "details": "Contract managing state for collateral accounts in the protocol"
      }
    },
    "title": "Forwarder",
    "version": 1
  },
  "userdoc": {
    "kind": "user",
    "methods": {
      "constructor": {
        "notice": "Initializes the contract state"
      },
      "wrapAndDeposit(address,address,uint256)": {
        "notice": "Pulls `amount` of USDC from `msg.sender`'s balance, wraps it as DSU, and deposits it as collateral to `account`'s `product` account"
      }
    },
    "notice": "Facilitates collateral deposits to the protocol where the amount is supplied         in USDC then wrapped as DSU before being deposited.",
    "version": 1
  },
  "storageLayout": {
    "storage": [],
    "types": null
  }
}