{
  "address": "0xa5492624F46F7ef346BfC46A0fB364eBa3b1f525",
  "abi": [
    {
      "inputs": [
        {
          "internalType": "uint256",
          "name": "value",
          "type": "uint256"
        }
      ],
      "name": "Fixed18OverflowError",
      "type": "error"
    },
    {
      "inputs": [],
      "name": "IncentivizerBatchClaimArgumentMismatchError",
      "type": "error"
    },
    {
      "inputs": [
        {
          "internalType": "contract IProduct",
          "name": "product",
          "type": "address"
        },
        {
          "internalType": "uint256",
          "name": "programId",
          "type": "uint256"
        }
      ],
      "name": "IncentivizerInvalidProgramError",
      "type": "error"
    },
    {
      "inputs": [
        {
          "internalType": "contract IProduct",
          "name": "product",
          "type": "address"
        }
      ],
      "name": "IncentivizerNotAllowedError",
      "type": "error"
    },
    {
      "inputs": [
        {
          "internalType": "contract IProduct",
          "name": "product",
          "type": "address"
        },
        {
          "internalType": "uint256",
          "name": "programId",
          "type": "uint256"
        }
      ],
      "name": "IncentivizerNotProgramOwnerError",
      "type": "error"
    },
    {
      "inputs": [],
      "name": "IncentivizerTooManyProgramsError",
      "type": "error"
    },
    {
      "inputs": [],
      "name": "InvalidControllerError",
      "type": "error"
    },
    {
      "inputs": [
        {
          "internalType": "address",
          "name": "account",
          "type": "address"
        },
        {
          "internalType": "address",
          "name": "operator",
          "type": "address"
        }
      ],
      "name": "NotAccountOrMultiInvokerError",
      "type": "error"
    },
    {
      "inputs": [],
      "name": "NotCollateralError",
      "type": "error"
    },
    {
      "inputs": [
        {
          "internalType": "uint256",
          "name": "coordinatorId",
          "type": "uint256"
        }
      ],
      "name": "NotOwnerError",
      "type": "error"
    },
    {
      "inputs": [
        {
          "internalType": "contract IProduct",
          "name": "product",
          "type": "address"
        }
      ],
      "name": "NotProductError",
      "type": "error"
    },
    {
      "inputs": [],
      "name": "PausedError",
      "type": "error"
    },
    {
      "inputs": [],
      "name": "ProgramInvalidDurationError",
      "type": "error"
    },
    {
      "inputs": [],
      "name": "ProgramInvalidStartError",
      "type": "error"
    },
    {
      "inputs": [
        {
          "internalType": "int256",
          "name": "value",
          "type": "int256"
        }
      ],
      "name": "UFixed18UnderflowError",
      "type": "error"
    },
    {
      "inputs": [
        {
          "internalType": "uint256",
          "name": "version",
          "type": "uint256"
        }
      ],
      "name": "UInitializableAlreadyInitializedError",
      "type": "error"
    },
    {
      "inputs": [],
      "name": "UInitializableNotInitializingError",
      "type": "error"
    },
    {
      "inputs": [],
      "name": "UInitializableZeroVersionError",
      "type": "error"
    },
    {
      "inputs": [],
      "name": "UReentrancyGuardReentrantCallError",
      "type": "error"
    },
    {
      "anonymous": false,
      "inputs": [
        {
          "indexed": true,
          "internalType": "contract IProduct",
          "name": "product",
          "type": "address"
        },
        {
          "indexed": true,
          "internalType": "address",
          "name": "account",
          "type": "address"
        },
        {
          "indexed": true,
          "internalType": "uint256",
          "name": "programId",
          "type": "uint256"
        },
        {
          "indexed": false,
          "internalType": "UFixed18",
          "name": "amount",
          "type": "uint256"
        }
      ],
      "name": "Claim",
      "type": "event"
    },
    {
      "anonymous": false,
      "inputs": [
        {
          "indexed": true,
          "internalType": "Token18",
          "name": "token",
          "type": "address"
        },
        {
          "indexed": false,
          "internalType": "UFixed18",
          "name": "amount",
          "type": "uint256"
        }
      ],
      "name": "FeeClaim",
      "type": "event"
    },
    {
      "anonymous": false,
      "inputs": [
        {
          "indexed": false,
          "internalType": "uint256",
          "name": "version",
          "type": "uint256"
        }
      ],
      "name": "Initialized",
      "type": "event"
    },
    {
      "anonymous": false,
      "inputs": [
        {
          "indexed": true,
          "internalType": "contract IProduct",
          "name": "product",
          "type": "address"
        },
        {
          "indexed": true,
          "internalType": "uint256",
          "name": "programId",
          "type": "uint256"
        },
        {
          "indexed": false,
          "internalType": "uint256",
          "name": "version",
          "type": "uint256"
        }
      ],
      "name": "ProgramComplete",
      "type": "event"
    },
    {
      "anonymous": false,
      "inputs": [
        {
          "indexed": true,
          "internalType": "contract IProduct",
          "name": "product",
          "type": "address"
        },
        {
          "indexed": true,
          "internalType": "uint256",
          "name": "programId",
          "type": "uint256"
        },
        {
          "components": [
            {
              "internalType": "uint256",
              "name": "coordinatorId",
              "type": "uint256"
            },
            {
              "components": [
                {
                  "internalType": "UFixed18",
                  "name": "maker",
                  "type": "uint256"
                },
                {
                  "internalType": "UFixed18",
                  "name": "taker",
                  "type": "uint256"
                }
              ],
              "internalType": "struct Position",
              "name": "amount",
              "type": "tuple"
            },
            {
              "internalType": "uint256",
              "name": "start",
              "type": "uint256"
            },
            {
              "internalType": "uint256",
              "name": "duration",
              "type": "uint256"
            },
            {
              "internalType": "Token18",
              "name": "token",
              "type": "address"
            }
          ],
          "indexed": false,
          "internalType": "struct ProgramInfo",
          "name": "programInfo",
          "type": "tuple"
        },
        {
          "indexed": false,
          "internalType": "UFixed18",
          "name": "programFeeAmount",
          "type": "uint256"
        }
      ],
      "name": "ProgramCreated",
      "type": "event"
    },
    {
      "anonymous": false,
      "inputs": [
        {
          "indexed": true,
          "internalType": "contract IProduct",
          "name": "product",
          "type": "address"
        },
        {
          "indexed": true,
          "internalType": "uint256",
          "name": "programId",
          "type": "uint256"
        },
        {
          "indexed": false,
          "internalType": "uint256",
          "name": "version",
          "type": "uint256"
        }
      ],
      "name": "ProgramStarted",
      "type": "event"
    },
    {
      "inputs": [
        {
          "internalType": "contract IProduct",
          "name": "product",
          "type": "address"
        }
      ],
      "name": "active",
      "outputs": [
        {
          "internalType": "uint256",
          "name": "",
          "type": "uint256"
        }
      ],
      "stateMutability": "view",
      "type": "function"
    },
    {
      "inputs": [
        {
          "internalType": "contract IProduct",
          "name": "product",
          "type": "address"
        },
        {
          "internalType": "uint256",
          "name": "programId",
          "type": "uint256"
        }
      ],
      "name": "available",
      "outputs": [
        {
          "internalType": "UFixed18",
          "name": "",
          "type": "uint256"
        }
      ],
      "stateMutability": "view",
      "type": "function"
    },
    {
      "inputs": [
        {
          "internalType": "contract IProduct",
          "name": "product",
          "type": "address"
        },
        {
          "internalType": "uint256[]",
          "name": "programIds",
          "type": "uint256[]"
        }
      ],
      "name": "claim",
      "outputs": [],
      "stateMutability": "nonpayable",
      "type": "function"
    },
    {
      "inputs": [
        {
          "internalType": "contract IProduct[]",
          "name": "products",
          "type": "address[]"
        },
        {
          "internalType": "uint256[][]",
          "name": "programIds",
          "type": "uint256[][]"
        }
      ],
      "name": "claim",
      "outputs": [],
      "stateMutability": "nonpayable",
      "type": "function"
    },
    {
      "inputs": [
        {
          "internalType": "Token18[]",
          "name": "tokens",
          "type": "address[]"
        }
      ],
      "name": "claimFee",
      "outputs": [],
      "stateMutability": "nonpayable",
      "type": "function"
    },
    {
      "inputs": [
        {
          "internalType": "address",
          "name": "account",
          "type": "address"
        },
        {
          "internalType": "contract IProduct",
          "name": "product",
          "type": "address"
        },
        {
          "internalType": "uint256[]",
          "name": "programIds",
          "type": "uint256[]"
        }
      ],
      "name": "claimFor",
      "outputs": [],
      "stateMutability": "nonpayable",
      "type": "function"
    },
    {
      "inputs": [
        {
          "internalType": "contract IProduct",
          "name": "product",
          "type": "address"
        },
        {
          "internalType": "uint256",
          "name": "programId",
          "type": "uint256"
        }
      ],
      "name": "complete",
      "outputs": [],
      "stateMutability": "nonpayable",
      "type": "function"
    },
    {
      "inputs": [],
      "name": "controller",
      "outputs": [
        {
          "internalType": "contract IController",
          "name": "",
          "type": "address"
        }
      ],
      "stateMutability": "view",
      "type": "function"
    },
    {
      "inputs": [
        {
          "internalType": "contract IProduct",
          "name": "product",
          "type": "address"
        }
      ],
      "name": "count",
      "outputs": [
        {
          "internalType": "uint256",
          "name": "",
          "type": "uint256"
        }
      ],
      "stateMutability": "view",
      "type": "function"
    },
    {
      "inputs": [
        {
          "internalType": "contract IProduct",
          "name": "product",
          "type": "address"
        },
        {
          "components": [
            {
              "internalType": "uint256",
              "name": "coordinatorId",
              "type": "uint256"
            },
            {
              "components": [
                {
                  "internalType": "UFixed18",
                  "name": "maker",
                  "type": "uint256"
                },
                {
                  "internalType": "UFixed18",
                  "name": "taker",
                  "type": "uint256"
                }
              ],
              "internalType": "struct Position",
              "name": "amount",
              "type": "tuple"
            },
            {
              "internalType": "uint256",
              "name": "start",
              "type": "uint256"
            },
            {
              "internalType": "uint256",
              "name": "duration",
              "type": "uint256"
            },
            {
              "internalType": "Token18",
              "name": "token",
              "type": "address"
            }
          ],
          "internalType": "struct ProgramInfo",
          "name": "programInfo",
          "type": "tuple"
        }
      ],
      "name": "create",
      "outputs": [
        {
          "internalType": "uint256",
          "name": "programId",
          "type": "uint256"
        }
      ],
      "stateMutability": "nonpayable",
      "type": "function"
    },
    {
      "inputs": [
        {
          "internalType": "Token18",
          "name": "",
          "type": "address"
        }
      ],
      "name": "fees",
      "outputs": [
        {
          "internalType": "UFixed18",
          "name": "",
          "type": "uint256"
        }
      ],
      "stateMutability": "view",
      "type": "function"
    },
    {
      "inputs": [
        {
          "internalType": "contract IController",
          "name": "controller_",
          "type": "address"
        }
      ],
      "name": "initialize",
      "outputs": [],
      "stateMutability": "nonpayable",
      "type": "function"
    },
    {
      "inputs": [
        {
          "internalType": "contract IProduct",
          "name": "product",
          "type": "address"
        },
        {
          "internalType": "uint256",
          "name": "programId",
          "type": "uint256"
        }
      ],
      "name": "owner",
      "outputs": [
        {
          "internalType": "address",
          "name": "",
          "type": "address"
        }
      ],
      "stateMutability": "view",
      "type": "function"
    },
    {
      "inputs": [
        {
          "internalType": "contract IProduct",
          "name": "product",
          "type": "address"
        },
        {
          "internalType": "uint256",
          "name": "programId",
          "type": "uint256"
        }
      ],
      "name": "programInfos",
      "outputs": [
        {
          "components": [
            {
              "internalType": "uint256",
              "name": "coordinatorId",
              "type": "uint256"
            },
            {
              "components": [
                {
                  "internalType": "UFixed18",
                  "name": "maker",
                  "type": "uint256"
                },
                {
                  "internalType": "UFixed18",
                  "name": "taker",
                  "type": "uint256"
                }
              ],
              "internalType": "struct Position",
              "name": "amount",
              "type": "tuple"
            },
            {
              "internalType": "uint256",
              "name": "start",
              "type": "uint256"
            },
            {
              "internalType": "uint256",
              "name": "duration",
              "type": "uint256"
            },
            {
              "internalType": "Token18",
              "name": "token",
              "type": "address"
            }
          ],
          "internalType": "struct ProgramInfo",
          "name": "",
          "type": "tuple"
        }
      ],
      "stateMutability": "view",
      "type": "function"
    },
    {
      "inputs": [
        {
          "components": [
            {
              "internalType": "uint256",
              "name": "version",
              "type": "uint256"
            },
            {
              "internalType": "uint256",
              "name": "timestamp",
              "type": "uint256"
            },
            {
              "internalType": "Fixed18",
              "name": "price",
              "type": "int256"
            }
          ],
          "internalType": "struct IOracleProvider.OracleVersion",
          "name": "currentOracleVersion",
          "type": "tuple"
        }
      ],
      "name": "sync",
      "outputs": [],
      "stateMutability": "nonpayable",
      "type": "function"
    },
    {
      "inputs": [
        {
          "internalType": "address",
          "name": "account",
          "type": "address"
        },
        {
          "components": [
            {
              "internalType": "uint256",
              "name": "version",
              "type": "uint256"
            },
            {
              "internalType": "uint256",
              "name": "timestamp",
              "type": "uint256"
            },
            {
              "internalType": "Fixed18",
              "name": "price",
              "type": "int256"
            }
          ],
          "internalType": "struct IOracleProvider.OracleVersion",
          "name": "currentOracleVersion",
          "type": "tuple"
        }
      ],
      "name": "syncAccount",
      "outputs": [],
      "stateMutability": "nonpayable",
      "type": "function"
    },
    {
      "inputs": [
        {
          "internalType": "contract IProduct",
          "name": "product",
          "type": "address"
        },
        {
          "internalType": "uint256",
          "name": "programId",
          "type": "uint256"
        }
      ],
      "name": "treasury",
      "outputs": [
        {
          "internalType": "address",
          "name": "",
          "type": "address"
        }
      ],
      "stateMutability": "view",
      "type": "function"
    },
    {
      "inputs": [
        {
          "internalType": "contract IProduct",
          "name": "product",
          "type": "address"
        },
        {
          "internalType": "address",
          "name": "account",
          "type": "address"
        },
        {
          "internalType": "uint256",
          "name": "programId",
          "type": "uint256"
        }
      ],
      "name": "unclaimed",
      "outputs": [
        {
          "internalType": "UFixed18",
          "name": "",
          "type": "uint256"
        }
      ],
      "stateMutability": "view",
      "type": "function"
    },
    {
      "inputs": [
        {
          "internalType": "contract IProduct",
          "name": "product",
          "type": "address"
        },
        {
          "internalType": "uint256",
          "name": "programId",
          "type": "uint256"
        }
      ],
      "name": "versionComplete",
      "outputs": [
        {
          "internalType": "uint256",
          "name": "",
          "type": "uint256"
        }
      ],
      "stateMutability": "view",
      "type": "function"
    },
    {
      "inputs": [
        {
          "internalType": "contract IProduct",
          "name": "product",
          "type": "address"
        },
        {
          "internalType": "uint256",
          "name": "programId",
          "type": "uint256"
        }
      ],
      "name": "versionStarted",
      "outputs": [
        {
          "internalType": "uint256",
          "name": "",
          "type": "uint256"
        }
      ],
      "stateMutability": "view",
      "type": "function"
    }
  ],
  "transactionHash": "0x0a1b0cb08660ced65fb133b7f4c85e1cc070ecb30d6ed424dfa5f95ef7470248",
  "args": [],
  "numDeployments": 1,
  "solcInputHash": "67765cb14648b58243a15d35477dbc39",
  "bytecode": "0x608060405234801561001057600080fd5b50615b6180620000216000396000f3fe608060405234801561001057600080fd5b506004361061016b5760003560e01c806370f3f08b116100cd578063d758869111610081578063f77c479111610066578063f77c479114610400578063f8724aba1461041e578063faaebd211461044e5761016b565b8063d7588691146103b4578063e1e5a82e146103e45761016b565b8063a55ff01d116100b2578063a55ff01d14610360578063b774b6011461037c578063c4d66de8146103985761016b565b806370f3f08b1461031457806390672ad8146103445761016b565b80632c3e50e5116101245780634ea71327116101095780634ea713271461028457806366f8162e146102b45780636da0d540146102e45761016b565b80632c3e50e51461023857806345718278146102685761016b565b8063095c824111610155578063095c8241146101bc578063144dcdd1146101ec5780631830349c1461021c5761016b565b80628240531461017057806305d85eda1461018c575b600080fd5b61018a60048036038101906101859190614521565b61047e565b005b6101a660048036038101906101a19190614595565b6106b9565b6040516101b391906145db565b60405180910390f35b6101d660048036038101906101d19190614622565b610707565b6040516101e391906145db565b60405180910390f35b61020660048036038101906102019190614622565b610767565b6040516102139190614671565b60405180910390f35b610236600480360381019061023191906147b7565b610856565b005b610252600480360381019061024d9190614622565b610976565b60405161025f919061492d565b60405180910390f35b610282600480360381019061027d9190614948565b610a8e565b005b61029e60048036038101906102999190614595565b610ba9565b6040516102ab91906145db565b60405180910390f35b6102ce60048036038101906102c991906149a8565b610bf8565b6040516102db9190614a0a565b60405180910390f35b6102fe60048036038101906102f99190614622565b610c55565b60405161030b9190614671565b60405180910390f35b61032e60048036038101906103299190614622565b610d44565b60405161033b91906145db565b60405180910390f35b61035e60048036038101906103599190614ad1565b610da4565b005b61037a60048036038101906103759190614b52565b610f6b565b005b61039660048036038101906103919190614bd5565b6110d1565b005b6103b260048036038101906103ad9190614c60565b611349565b005b6103ce60048036038101906103c99190614cb1565b6114d8565b6040516103db91906145db565b60405180910390f35b6103fe60048036038101906103f99190614622565b611bd5565b005b610408611ec7565b6040516104159190614d12565b60405180910390f35b61043860048036038101906104339190614622565b611ef7565b6040516104459190614a0a565b60405180910390f35b61046860048036038101906104639190614d59565b611f57565b6040516104759190614a0a565b60405180910390f35b60026104a97f1b30fe15febd596dffd21d4da0657732eea42b4b5a9789e3e6daab3d570999d7611f6f565b036104e0576040517ff320323600000000000000000000000000000000000000000000000000000000815260040160405180910390fd5b61051460027f1b30fe15febd596dffd21d4da0657732eea42b4b5a9789e3e6daab3d570999d7611f7a90919063ffffffff16565b838073ffffffffffffffffffffffffffffffffffffffff163373ffffffffffffffffffffffffffffffffffffffff1614806105ef5750610552611ec7565b73ffffffffffffffffffffffffffffffffffffffff1663479e58f06040518163ffffffff1660e01b8152600401602060405180830381865afa15801561059c573d6000803e3d6000fd5b505050506040513d601f19601f820116820180604052508101906105c09190614dc4565b73ffffffffffffffffffffffffffffffffffffffff163373ffffffffffffffffffffffffffffffffffffffff16145b6106325780336040517f6dc3a3c3000000000000000000000000000000000000000000000000000000008152600401610629929190614df1565b60405180910390fd5b61067e8585858580806020026020016040519081016040528093929190818152602001838360200280828437600081840152601f19601f82011690508083019250505050505050611f81565b506106b360017f1b30fe15febd596dffd21d4da0657732eea42b4b5a9789e3e6daab3d570999d7611f7a90919063ffffffff16565b50505050565b60008060008373ffffffffffffffffffffffffffffffffffffffff1673ffffffffffffffffffffffffffffffffffffffff168152602001908152602001600020600001805490509050919050565b60008060008473ffffffffffffffffffffffffffffffffffffffff1673ffffffffffffffffffffffffffffffffffffffff168152602001908152602001600020600101600083815260200190815260200160002060020154905092915050565b6000610771611ec7565b73ffffffffffffffffffffffffffffffffffffffff16634c5430a06000808673ffffffffffffffffffffffffffffffffffffffff1673ffffffffffffffffffffffffffffffffffffffff16815260200190815260200160002060000184815481106107df576107de614e1a565b5b9060005260206000209060060201600001546040518263ffffffff1660e01b815260040161080d91906145db565b602060405180830381865afa15801561082a573d6000803e3d6000fd5b505050506040513d601f19601f8201168201806040525081019061084e9190614e5e565b905092915050565b61085e611ec7565b73ffffffffffffffffffffffffffffffffffffffff16637fd29192336040518263ffffffff1660e01b81526004016108969190614eac565b602060405180830381865afa1580156108b3573d6000803e3d6000fd5b505050506040513d601f19601f820116820180604052508101906108d79190614eff565b61091857336040517f4d53256500000000000000000000000000000000000000000000000000000000815260040161090f9190614eac565b60405180910390fd5b60003390506109718184846000808673ffffffffffffffffffffffffffffffffffffffff1673ffffffffffffffffffffffffffffffffffffffff1681526020019081526020016000206121ab909392919063ffffffff16565b505050565b61097e614365565b6000808473ffffffffffffffffffffffffffffffffffffffff1673ffffffffffffffffffffffffffffffffffffffff16815260200190815260200160002060000182815481106109d1576109d0614e1a565b5b90600052602060002090600602016040518060a0016040529081600082015481526020016001820160405180604001604052908160008201548152602001600182015481525050815260200160038201548152602001600482015481526020016005820160009054906101000a900473ffffffffffffffffffffffffffffffffffffffff1673ffffffffffffffffffffffffffffffffffffffff1673ffffffffffffffffffffffffffffffffffffffff1681525050905092915050565b6002610ab97f1b30fe15febd596dffd21d4da0657732eea42b4b5a9789e3e6daab3d570999d7611f6f565b03610af0576040517ff320323600000000000000000000000000000000000000000000000000000000815260040160405180910390fd5b610b2460027f1b30fe15febd596dffd21d4da0657732eea42b4b5a9789e3e6daab3d570999d7611f7a90919063ffffffff16565b610b703384848480806020026020016040519081016040528093929190818152602001838360200280828437600081840152601f19601f82011690508083019250505050505050611f81565b610ba460017f1b30fe15febd596dffd21d4da0657732eea42b4b5a9789e3e6daab3d570999d7611f7a90919063ffffffff16565b505050565b6000610bf16000808473ffffffffffffffffffffffffffffffffffffffff1673ffffffffffffffffffffffffffffffffffffffff1681526020019081526020016000206124d1565b9050919050565b6000610c4c83836000808873ffffffffffffffffffffffffffffffffffffffff1673ffffffffffffffffffffffffffffffffffffffff1681526020019081526020016000206124e69092919063ffffffff16565b90509392505050565b6000610c5f611ec7565b73ffffffffffffffffffffffffffffffffffffffff1663a123c33e6000808673ffffffffffffffffffffffffffffffffffffffff1673ffffffffffffffffffffffffffffffffffffffff1681526020019081526020016000206000018481548110610ccd57610ccc614e1a565b5b9060005260206000209060060201600001546040518263ffffffff1660e01b8152600401610cfb91906145db565b602060405180830381865afa158015610d18573d6000803e3d6000fd5b505050506040513d601f19601f82011682018060405250810190610d3c9190614e5e565b905092915050565b60008060008473ffffffffffffffffffffffffffffffffffffffff1673ffffffffffffffffffffffffffffffffffffffff168152602001908152602001600020600101600083815260200190815260200160002060030154905092915050565b6002610dcf7f1b30fe15febd596dffd21d4da0657732eea42b4b5a9789e3e6daab3d570999d7611f6f565b03610e06576040517ff320323600000000000000000000000000000000000000000000000000000000815260040160405180910390fd5b610e3a60027f1b30fe15febd596dffd21d4da0657732eea42b4b5a9789e3e6daab3d570999d7611f7a90919063ffffffff16565b818190508484905014610e79576040517f90fb223000000000000000000000000000000000000000000000000000000000815260040160405180910390fd5b60005b84849050811015610f3057610f1d33868684818110610e9e57610e9d614e1a565b5b9050602002016020810190610eb39190614595565b858585818110610ec657610ec5614e1a565b5b9050602002810190610ed89190614f3b565b80806020026020016040519081016040528093929190818152602001838360200280828437600081840152601f19601f82011690508083019250505050505050611f81565b8080610f2890614fcd565b915050610e7c565b50610f6560017f1b30fe15febd596dffd21d4da0657732eea42b4b5a9789e3e6daab3d570999d7611f7a90919063ffffffff16565b50505050565b610f73611ec7565b73ffffffffffffffffffffffffffffffffffffffff16637fd29192336040518263ffffffff1660e01b8152600401610fab9190614eac565b602060405180830381865afa158015610fc8573d6000803e3d6000fd5b505050506040513d601f19601f82011682018060405250810190610fec9190614eff565b61102d57336040517f4d5325650000000000000000000000000000000000000000000000000000000081526004016110249190614eac565b60405180910390fd5b6000339050600061108682846000808673ffffffffffffffffffffffffffffffffffffffff1673ffffffffffffffffffffffffffffffffffffffff16815260200190815260200160002061255f9092919063ffffffff16565b905060005b81518110156110cb576110b8838383815181106110ab576110aa614e1a565b5b60200260200101516127ba565b80806110c390614fcd565b91505061108b565b50505050565b6110d9611ec7565b73ffffffffffffffffffffffffffffffffffffffff16635c975abb6040518163ffffffff1660e01b8152600401602060405180830381865afa158015611123573d6000803e3d6000fd5b505050506040513d601f19601f820116820180604052508101906111479190614eff565b1561117e576040517feced32bc00000000000000000000000000000000000000000000000000000000815260040160405180910390fd5b60005b828290508110156113445760008383838181106111a1576111a0614e1a565b5b90506020020160208101906111b69190614d59565b90506000600160008373ffffffffffffffffffffffffffffffffffffffff1673ffffffffffffffffffffffffffffffffffffffff1681526020019081526020016000205490506000600160008473ffffffffffffffffffffffffffffffffffffffff1673ffffffffffffffffffffffffffffffffffffffff168152602001908152602001600020819055506112e161124c611ec7565b73ffffffffffffffffffffffffffffffffffffffff166361d027b36040518163ffffffff1660e01b8152600401602060405180830381865afa158015611296573d6000803e3d6000fd5b505050506040513d601f19601f820116820180604052508101906112ba9190614e5e565b828473ffffffffffffffffffffffffffffffffffffffff166129219092919063ffffffff16565b8173ffffffffffffffffffffffffffffffffffffffff167f10df095d1434aed409b2f33d2a6a8456f8b0824633cc12a1b43032085aadc41d826040516113279190614a0a565b60405180910390a25050808061133c90614fcd565b915050611181565b505050565b600160008103611385576040517fb66146bd00000000000000000000000000000000000000000000000000000000815260040160405180910390fd5b806113af7f5db5abc19987c2b3729df7961b62b6bb0bae886dd47e3ce25bb3a3af34c6d80b611f6f565b106113f157806040517f1e7a9d950000000000000000000000000000000000000000000000000000000081526004016113e891906145db565b60405180910390fd5b611424817f5db5abc19987c2b3729df7961b62b6bb0bae886dd47e3ce25bb3a3af34c6d80b611f7a90919063ffffffff16565b61145860017fad57d7911b7e3d6c3c79a68ba909a7f4ba41f9485e5207b12dee0d0c6af5398c61295190919063ffffffff16565b61146182612958565b611469612a3f565b61149d60007fad57d7911b7e3d6c3c79a68ba909a7f4ba41f9485e5207b12dee0d0c6af5398c61295190919063ffffffff16565b7fbe9b076dc5b65990cca9dd9d7366682482e7817a6f6bc7f4faf4dc32af497f32816040516114cc91906145db565b60405180910390a15050565b600060026115057f1b30fe15febd596dffd21d4da0657732eea42b4b5a9789e3e6daab3d570999d7611f6f565b0361153c576040517ff320323600000000000000000000000000000000000000000000000000000000815260040160405180910390fd5b61157060027f1b30fe15febd596dffd21d4da0657732eea42b4b5a9789e3e6daab3d570999d7611f7a90919063ffffffff16565b82611579611ec7565b73ffffffffffffffffffffffffffffffffffffffff16637fd29192826040518263ffffffff1660e01b81526004016115b19190614eac565b602060405180830381865afa1580156115ce573d6000803e3d6000fd5b505050506040513d601f19601f820116820180604052508101906115f29190614eff565b61163357806040517f4d53256500000000000000000000000000000000000000000000000000000000815260040161162a9190614eac565b60405180910390fd5b61163b611ec7565b73ffffffffffffffffffffffffffffffffffffffff16635c975abb6040518163ffffffff1660e01b8152600401602060405180830381865afa158015611685573d6000803e3d6000fd5b505050506040513d601f19601f820116820180604052508101906116a99190614eff565b156116e0576040517feced32bc00000000000000000000000000000000000000000000000000000000815260040160405180910390fd5b82600001356116ed611ec7565b73ffffffffffffffffffffffffffffffffffffffff1663a123c33e826040518263ffffffff1660e01b815260040161172591906145db565b602060405180830381865afa158015611742573d6000803e3d6000fd5b505050506040513d601f19601f820116820180604052508101906117669190614e5e565b73ffffffffffffffffffffffffffffffffffffffff163373ffffffffffffffffffffffffffffffffffffffff16146117d557806040517f48f62f3c0000000000000000000000000000000000000000000000000000000081526004016117cc91906145db565b60405180910390fd5b60006117df611ec7565b9050600085600001351415801561187357508073ffffffffffffffffffffffffffffffffffffffff16637d254e66876040518263ffffffff1660e01b815260040161182a9190614eac565b602060405180830381865afa158015611847573d6000803e3d6000fd5b505050506040513d601f19601f8201168201806040525081019061186b919061502a565b856000013514155b156118b557856040517fe264a5240000000000000000000000000000000000000000000000000000000081526004016118ac9190614eac565b60405180910390fd5b8073ffffffffffffffffffffffffffffffffffffffff16637d49c1b76040518163ffffffff1660e01b8152600401602060405180830381865afa158015611900573d6000803e3d6000fd5b505050506040513d601f19601f82011682018060405250810190611924919061502a565b61192d87610ba9565b10611964576040517f1651519200000000000000000000000000000000000000000000000000000000815260040160405180910390fd5b61197d85803603810190611978919061515f565b612ae7565b600080611a0887803603810190611994919061515f565b8473ffffffffffffffffffffffffffffffffffffffff16633ceda0116040518163ffffffff1660e01b8152600401602060405180830381865afa1580156119df573d6000803e3d6000fd5b505050506040513d601f19601f82011682018060405250810190611a0391906151a1565b612b7e565b91509150611a628160016000856080015173ffffffffffffffffffffffffffffffffffffffff1673ffffffffffffffffffffffffffffffffffffffff16815260200190815260200160002054612bf790919063ffffffff16565b60016000846080015173ffffffffffffffffffffffffffffffffffffffff1673ffffffffffffffffffffffffffffffffffffffff16815260200190815260200160002081905550611af9826000808b73ffffffffffffffffffffffffffffffffffffffff1673ffffffffffffffffffffffffffffffffffffffff168152602001908152602001600020612c0d90919063ffffffff16565b9550611b4533611b1b89602001803603810190611b1691906151ce565b612d11565b846080015173ffffffffffffffffffffffffffffffffffffffff16612d359092919063ffffffff16565b858873ffffffffffffffffffffffffffffffffffffffff167fee8233a38e17998eb73ba822048e13762f2b68729ef94c45133866ee75754dc68484604051611b8e9291906151fb565b60405180910390a35050505050611bcf60017f1b30fe15febd596dffd21d4da0657732eea42b4b5a9789e3e6daab3d570999d7611f7a90919063ffffffff16565b92915050565b6002611c007f1b30fe15febd596dffd21d4da0657732eea42b4b5a9789e3e6daab3d570999d7611f6f565b03611c37576040517ff320323600000000000000000000000000000000000000000000000000000000815260040160405180910390fd5b611c6b60027f1b30fe15febd596dffd21d4da0657732eea42b4b5a9789e3e6daab3d570999d7611f7a90919063ffffffff16565b8181611cbd816000808573ffffffffffffffffffffffffffffffffffffffff1673ffffffffffffffffffffffffffffffffffffffff168152602001908152602001600020612d6790919063ffffffff16565b611d005781816040517fd0635829000000000000000000000000000000000000000000000000000000008152600401611cf7929190615224565b60405180910390fd5b611d08611ec7565b73ffffffffffffffffffffffffffffffffffffffff16635c975abb6040518163ffffffff1660e01b8152600401602060405180830381865afa158015611d52573d6000803e3d6000fd5b505050506040513d601f19601f82011682018060405250810190611d769190614eff565b15611dad576040517feced32bc00000000000000000000000000000000000000000000000000000000815260040160405180910390fd5b8383611db98282610c55565b73ffffffffffffffffffffffffffffffffffffffff163373ffffffffffffffffffffffffffffffffffffffff1614611e2a5781816040517fa17e3752000000000000000000000000000000000000000000000000000000008152600401611e21929190615224565b60405180910390fd5b6000611e7e87876000808b73ffffffffffffffffffffffffffffffffffffffff1673ffffffffffffffffffffffffffffffffffffffff168152602001908152602001600020612d7b9092919063ffffffff16565b9050611e8a87826127ba565b5050505050611ec360017f1b30fe15febd596dffd21d4da0657732eea42b4b5a9789e3e6daab3d570999d7611f7a90919063ffffffff16565b5050565b6000611ef27f0e555410d8128dff796eab5d29b97dd593ce9cab44a71b64c08244579ea60533612e5d565b905090565b60008060008473ffffffffffffffffffffffffffffffffffffffff1673ffffffffffffffffffffffffffffffffffffffff168152602001908152602001600020600101600083815260200190815260200160002060010154905092915050565b60016020528060005260406000206000915090505481565b600081549050919050565b8082555050565b81611f8a611ec7565b73ffffffffffffffffffffffffffffffffffffffff16637fd29192826040518263ffffffff1660e01b8152600401611fc29190614eac565b602060405180830381865afa158015611fdf573d6000803e3d6000fd5b505050506040513d601f19601f820116820180604052508101906120039190614eff565b61204457806040517f4d53256500000000000000000000000000000000000000000000000000000000815260040161203b9190614eac565b60405180910390fd5b61204c611ec7565b73ffffffffffffffffffffffffffffffffffffffff16635c975abb6040518163ffffffff1660e01b8152600401602060405180830381865afa158015612096573d6000803e3d6000fd5b505050506040513d601f19601f820116820180604052508101906120ba9190614eff565b156120f1576040517feced32bc00000000000000000000000000000000000000000000000000000000815260040160405180910390fd5b83838073ffffffffffffffffffffffffffffffffffffffff1663f667f897836040518263ffffffff1660e01b815260040161212c9190614671565b600060405180830381600087803b15801561214657600080fd5b505af115801561215a573d6000803e3d6000fd5b5050505060005b84518110156121a25761218f878787848151811061218257612181614e1a565b5b6020026020010151612e68565b808061219a90614fcd565b915050612161565b50505050505050565b60008460050160008473ffffffffffffffffffffffffffffffffffffffff1673ffffffffffffffffffffffffffffffffffffffff16815260200190815260200160002054905060008560000180549050905060008290505b818110156122725761225e818860040160008873ffffffffffffffffffffffffffffffffffffffff1673ffffffffffffffffffffffffffffffffffffffff16815260200190815260200160002061300490919063ffffffff16565b50808061226a90614fcd565b915050612203565b50808660050160008673ffffffffffffffffffffffffffffffffffffffff1673ffffffffffffffffffffffffffffffffffffffff1681526020019081526020016000208190555060006123048760040160008773ffffffffffffffffffffffffffffffffffffffff1673ffffffffffffffffffffffffffffffffffffffff16815260200190815260200160002061301e565b905060005b81518110156124c757600082828151811061232757612326614e1a565b5b602002602001015190506000896001016000838152602001908152602001600020905061242d898b600001848154811061236457612363614e1a565b5b90600052602060002090600602016040518060a0016040529081600082015481526020016001820160405180604001604052908160008201548152602001600182015481525050815260200160038201548152602001600482015481526020016005820160009054906101000a900473ffffffffffffffffffffffffffffffffffffffff1673ffffffffffffffffffffffffffffffffffffffff1673ffffffffffffffffffffffffffffffffffffffff16815250508a8a8561303f90949392919063ffffffff16565b612443828b60020161311090919063ffffffff16565b15801561245857508060030154876000015110155b156124b2576124b0828b60040160008b73ffffffffffffffffffffffffffffffffffffffff1673ffffffffffffffffffffffffffffffffffffffff16815260200190815260200160002061312a90919063ffffffff16565b505b505080806124bf90614fcd565b915050612309565b5050505050505050565b60006124df82600201613144565b9050919050565b60006124f28483612d67565b6124ff5760009050612558565b83600101600083815260200190815260200160002060000160008473ffffffffffffffffffffffffffffffffffffffff1673ffffffffffffffffffffffffffffffffffffffff1681526020019081526020016000205490505b9392505050565b6060600061256f8560020161301e565b9050805167ffffffffffffffff81111561258c5761258b6146a2565b5b6040519080825280602002602001820160405280156125c557816020015b6125b26143b0565b8152602001906001900390816125aa5790505b50915060005b81518110156127b15760008282815181106125e9576125e8614e1a565b5b60200260200101519050600087600001828154811061260b5761260a614e1a565b5b90600052602060002090600602016040518060a0016040529081600082015481526020016001820160405180604001604052908160008201548152602001600182015481525050815260200160038201548152602001600482015481526020016005820160009054906101000a900473ffffffffffffffffffffffffffffffffffffffff1673ffffffffffffffffffffffffffffffffffffffff1673ffffffffffffffffffffffffffffffffffffffff16815250509050600088600101600084815260200190815260200160002090506000808260020154148015612703575061270288602001518461315990919063ffffffff16565b5b15612716576127138a858a61316b565b90505b60008060008460030154148015612740575061273f8a60200151866131a690919063ffffffff16565b5b15612759576127508c8c886131c7565b80925081935050505b60405180608001604052808781526020018481526020018381526020018281525089888151811061278d5761278c614e1a565b5b602002602001018190525050505050505080806127a990614fcd565b9150506125cb565b50509392505050565b6000816000015190506127d082606001516132e4565b61285c5761285b6127e18483610767565b8360600151612836846000808973ffffffffffffffffffffffffffffffffffffffff1673ffffffffffffffffffffffffffffffffffffffff1681526020019081526020016000206132f090919063ffffffff16565b73ffffffffffffffffffffffffffffffffffffffff166129219092919063ffffffff16565b5b60008260200151146128bc57808373ffffffffffffffffffffffffffffffffffffffff167f1239d8c1165187259e281474a9ae5bb87fabb197873589de0a2645ae5e2261da84602001516040516128b391906145db565b60405180910390a35b600082604001511461291c57808373ffffffffffffffffffffffffffffffffffffffff167fc590246f839a70d2279ef40b9e46b50bb20789c016f823abca87b69963f22584846040015160405161291391906145db565b60405180910390a35b505050565b61294c82828573ffffffffffffffffffffffffffffffffffffffff166133429092919063ffffffff16565b505050565b8082555050565b6129606133c8565b15801561299357506129917fad57d7911b7e3d6c3c79a68ba909a7f4ba41f9485e5207b12dee0d0c6af5398c6133d9565b155b156129ca576040517f689f12a400000000000000000000000000000000000000000000000000000000815260040160405180910390fd5b6129d3816133e4565b612a09576040517f14878b6900000000000000000000000000000000000000000000000000000000815260040160405180910390fd5b612a3c817f0e555410d8128dff796eab5d29b97dd593ce9cab44a71b64c08244579ea6053361340790919063ffffffff16565b50565b612a476133c8565b158015612a7a5750612a787fad57d7911b7e3d6c3c79a68ba909a7f4ba41f9485e5207b12dee0d0c6af5398c6133d9565b155b15612ab1576040517f689f12a400000000000000000000000000000000000000000000000000000000815260040160405180910390fd5b612ae560017f1b30fe15febd596dffd21d4da0657732eea42b4b5a9789e3e6daab3d570999d7611f7a90919063ffffffff16565b565b612af18142613159565b15612b28576040517f0a5af16500000000000000000000000000000000000000000000000000000000815260040160405180910390fd5b6201518081606001511080612b4457506303c267008160600151115b15612b7b576040517f72cd3d6300000000000000000000000000000000000000000000000000000000815260040160405180910390fd5b50565b612b86614365565b600080612bba612ba785670de0b6b3a764000061340e90919063ffffffff16565b866020015161342490919063ffffffff16565b90506000612bdd612bd883886020015161347590919063ffffffff16565b612d11565b905081866020018190525085819350935050509250929050565b60008183612c05919061524d565b905092915050565b600082600001805490509050826000018290806001815401808255809150506001900390600052602060002090600602016000909190919091506000820151816000015560208201518160010160008201518160000155602082015181600101555050604082015181600301556060820151816004015560808201518160050160006101000a81548173ffffffffffffffffffffffffffffffffffffffff021916908373ffffffffffffffffffffffffffffffffffffffff1602179055505050612cf4828460010160008481526020019081526020016000206134ce90919063ffffffff16565b612d0a818460020161300490919063ffffffff16565b5092915050565b6000612d2e82602001518360000151612bf790919063ffffffff16565b9050919050565b612d628230838673ffffffffffffffffffffffffffffffffffffffff166134e7909392919063ffffffff16565b505050565b600082600001805490508210905092915050565b612d836143b0565b600084600101600084815260200190815260200160002090506000816002015403612e2b57612e2185848673ffffffffffffffffffffffffffffffffffffffff16639d888e866040518163ffffffff1660e01b8152600401606060405180830381865afa158015612df8573d6000803e3d6000fd5b505050506040513d601f19601f82011682018060405250810190612e1c919061531c565b61316b565b8260200181815250505b6000816003015403612e5557612e428585856131c7565b8360400184606001828152508281525050505b509392505050565b600081549050919050565b8181612eba816000808573ffffffffffffffffffffffffffffffffffffffff1673ffffffffffffffffffffffffffffffffffffffff168152602001908152602001600020612d6790919063ffffffff16565b612efd5781816040517fd0635829000000000000000000000000000000000000000000000000000000008152600401612ef4929190615224565b60405180910390fd5b60008060008673ffffffffffffffffffffffffffffffffffffffff1673ffffffffffffffffffffffffffffffffffffffff16815260200190815260200160002090506000612f568786846135709092919063ffffffff16565b9050612f958782612f7088866132f090919063ffffffff16565b73ffffffffffffffffffffffffffffffffffffffff166129219092919063ffffffff16565b848773ffffffffffffffffffffffffffffffffffffffff168773ffffffffffffffffffffffffffffffffffffffff167f865ca08d59f5cb456e85cd2f7ef63664ea4f73327414e9d8152c4158b0e9464584604051612ff39190614a0a565b60405180910390a450505050505050565b6000613016836000018360001b6135a2565b905092915050565b6060600061302e83600001613612565b905060608190508092505050919050565b600061304e868686868661366e565b90506130a4818760000160008673ffffffffffffffffffffffffffffffffffffffff1673ffffffffffffffffffffffffffffffffffffffff16815260200190815260200160002054612bf790919063ffffffff16565b8660000160008573ffffffffffffffffffffffffffffffffffffffff1673ffffffffffffffffffffffffffffffffffffffff1681526020019081526020016000208190555061310081876001015461340e90919063ffffffff16565b8660010181905550505050505050565b6000613122836000018360001b61393e565b905092915050565b600061313c836000018360001b613961565b905092915050565b600061315282600001613a75565b9050919050565b60008260400151821015905092915050565b60008160000151905061319f8260000151856001016000868152602001908152602001600020613a8690919063ffffffff16565b9392505050565b6000826060015183604001516131bc919061524d565b821015905092915050565b6000806132bd848660000185815481106131e4576131e3614e1a565b5b90600052602060002090600602016040518060a0016040529081600082015481526020016001820160405180604001604052908160008201548152602001600182015481525050815260200160038201548152602001600482015481526020016005820160009054906101000a900473ffffffffffffffffffffffffffffffffffffffff1673ffffffffffffffffffffffffffffffffffffffff1673ffffffffffffffffffffffffffffffffffffffff1681525050876001016000878152602001908152602001600020613a939092919063ffffffff16565b80925081935050506132db838660020161312a90919063ffffffff16565b50935093915050565b60008082149050919050565b600082600001828154811061330857613307614e1a565b5b906000526020600020906006020160050160009054906101000a900473ffffffffffffffffffffffffffffffffffffffff16905092915050565b6133c38363a9059cbb60e01b8484604051602401613361929190615349565b604051602081830303815290604052907bffffffffffffffffffffffffffffffffffffffffffffffffffffffff19166020820180517bffffffffffffffffffffffffffffffffffffffffffffffffffffffff8381831617835250505050613c97565b505050565b60006133d3306133e4565b15905090565b600081549050919050565b6000808273ffffffffffffffffffffffffffffffffffffffff163b119050919050565b8082555050565b6000818361341c9190615372565b905092915050565b61342c6143d8565b604051806040016040528061344e848660000151613d5e90919063ffffffff16565b815260200161346a848660200151613d5e90919063ffffffff16565b815250905092915050565b61347d6143d8565b60405180604001604052806134a38460000151866000015161340e90919063ffffffff16565b81526020016134c38460200151866020015161340e90919063ffffffff16565b815250905092915050565b6134db8160200151612d11565b82600101819055505050565b61356a846323b872dd60e01b858585604051602401613508939291906153a6565b604051602081830303815290604052907bffffffffffffffffffffffffffffffffffffffffffffffffffffffff19166020820180517bffffffffffffffffffffffffffffffffffffffffffffffffffffffff8381831617835250505050613c97565b50505050565b600061359983856001016000858152602001908152602001600020613d8790919063ffffffff16565b90509392505050565b60006135ae838361393e565b61360757826000018290806001815401808255809150506001900390600052602060002001600090919091909150558260000180549050836001016000848152602001908152602001600020819055506001905061360c565b600090505b92915050565b60608160000180548060200260200160405190810160405280929190818152602001828054801561366257602002820191906000526020600020905b81548152602001906001019080831161364e575b50505050509050919050565b60008060008088600201541461368857876002015461368e565b83600001515b60008960030154146136a45788600301546136c6565b7fffffffffffffffffffffffffffffffffffffffffffffffffffffffffffffffff5b91509150600061375882613753858b73ffffffffffffffffffffffffffffffffffffffff16638e480b208b6040518263ffffffff1660e01b815260040161370d9190614671565b602060405180830381865afa15801561372a573d6000803e3d6000fd5b505050506040513d601f19601f8201168201806040525081019061374e919061502a565b613e1a565b613e34565b9050600061376a838760000151613e34565b905060006138718a73ffffffffffffffffffffffffffffffffffffffff1663476fa96d856040518263ffffffff1660e01b81526004016137aa91906145db565b6040805180830381865afa1580156137c6573d6000803e3d6000fd5b505050506040513d601f19601f820116820180604052508101906137ea919061542d565b8b73ffffffffffffffffffffffffffffffffffffffff1663476fa96d856040518263ffffffff1660e01b815260040161382391906145db565b6040805180830381865afa15801561383f573d6000803e3d6000fd5b505050506040513d601f19601f82011682018060405250810190613863919061542d565b613e4d90919063ffffffff16565b90506000613900828c73ffffffffffffffffffffffffffffffffffffffff1663b7648fb98c6040518263ffffffff1660e01b81526004016138b29190614671565b6040805180830381865afa1580156138ce573d6000803e3d6000fd5b505050506040513d601f19601f820116820180604052508101906138f291906154aa565b613ea690919063ffffffff16565b905061392d613928613923836139158e613f0f565b613f3990919063ffffffff16565b613f92565b613fb6565b965050505050505095945050505050565b600080836001016000848152602001908152602001600020541415905092915050565b60008083600101600084815260200190815260200160002054905060008114613a695760006001826139939190615372565b90506000600186600001805490506139ab9190615372565b9050818114613a1a5760008660000182815481106139cc576139cb614e1a565b5b90600052602060002001549050808760000184815481106139f0576139ef614e1a565b5b90600052602060002001819055508387600101600083815260200190815260200160002081905550505b85600001805480613a2e57613a2d6154d7565b5b600190038181906000526020600020016000905590558560010160008681526020019081526020016000206000905560019350505050613a6f565b60009150505b92915050565b600081600001805490509050919050565b8082600201819055505050565b600080600085600201549050613b17818673ffffffffffffffffffffffffffffffffffffffff1663c07f47d46040518163ffffffff1660e01b8152600401602060405180830381865afa158015613aee573d6000803e3d6000fd5b505050506040513d601f19601f82011682018060405250810190613b12919061502a565b613e1a565b925082866003018190555060008573ffffffffffffffffffffffffffffffffffffffff16637ece075d836040518263ffffffff1660e01b8152600401613b5d91906145db565b606060405180830381865afa158015613b7a573d6000803e3d6000fd5b505050506040513d601f19601f82011682018060405250810190613b9e919061531c565b905060008673ffffffffffffffffffffffffffffffffffffffff16637ece075d866040518263ffffffff1660e01b8152600401613bdb91906145db565b606060405180830381865afa158015613bf8573d6000803e3d6000fd5b505050506040513d601f19601f82011682018060405250810190613c1c919061531c565b9050600082602001518260200151613c349190615372565b8760600151613c439190615372565b9050613c6a818860600151613c5b8a60200151612d11565b61400b9092919063ffffffff16565b9450613c83858a6001015461340e90919063ffffffff16565b896001018190555050505050935093915050565b6000613cf9826040518060400160405280602081526020017f5361666545524332303a206c6f772d6c6576656c2063616c6c206661696c65648152508573ffffffffffffffffffffffffffffffffffffffff166140219092919063ffffffff16565b9050600081511115613d595780806020019051810190613d199190614eff565b613d58576040517f08c379a0000000000000000000000000000000000000000000000000000000008152600401613d4f90615589565b60405180910390fd5b5b505050565b6000670de0b6b3a76400008284613d7591906155a9565b613d7f9190615632565b905092915050565b60008260000160008373ffffffffffffffffffffffffffffffffffffffff1673ffffffffffffffffffffffffffffffffffffffff16815260200190815260200160002054905060008360000160008473ffffffffffffffffffffffffffffffffffffffff1673ffffffffffffffffffffffffffffffffffffffff1681526020019081526020016000208190555092915050565b600081831015613e2a5781613e2c565b825b905092915050565b6000818310613e435781613e45565b825b905092915050565b613e556143f2565b6040518060400160405280613e7b8460000151866000015161403990919063ffffffff16565b8152602001613e9b8460200151866020015161403990919063ffffffff16565b815250905092915050565b613eae6143f2565b6040518060400160405280613edc8460000151613ece876000015161404f565b6140c290919063ffffffff16565b8152602001613f048460200151613ef6876020015161404f565b6140c290919063ffffffff16565b815250905092915050565b613f176143f2565b613f32826060015183602001516140eb90919063ffffffff16565b9050919050565b613f416143f2565b6040518060400160405280613f67846000015186600001516140c290919063ffffffff16565b8152602001613f87846020015186602001516140c290919063ffffffff16565b815250905092915050565b6000613faf8260200151836000015161416c90919063ffffffff16565b9050919050565b600080829050600081121561400257806040517f501f289e000000000000000000000000000000000000000000000000000000008152600401613ff99190615672565b60405180910390fd5b80915050919050565b6000614018848484614182565b90509392505050565b606061403084846000856141a4565b90509392505050565b60008183614047919061568d565b905092915050565b6000808290507f7fffffffffffffffffffffffffffffffffffffffffffffffffffffffffffffff8111156140b957806040517ea07eb50000000000000000000000000000000000000000000000000000000081526004016140b091906145db565b60405180910390fd5b80915050919050565b6000670de0b6b3a764000082846140d99190615721565b6140e39190615838565b905092915050565b6140f36143f2565b604051806040016040528061412d61411261410d866142b8565b61404f565b61411f876000015161404f565b6142d590919063ffffffff16565b8152602001614161614146614141866142b8565b61404f565b614153876020015161404f565b6142d590919063ffffffff16565b815250905092915050565b6000818361417a91906158a2565b905092915050565b600081838561419191906155a9565b61419b9190615632565b90509392505050565b6060824710156141e9576040517f08c379a00000000000000000000000000000000000000000000000000000000081526004016141e0906159a8565b60405180910390fd5b6141f2856133e4565b614231576040517f08c379a000000000000000000000000000000000000000000000000000000000815260040161422890615a14565b60405180910390fd5b6000808673ffffffffffffffffffffffffffffffffffffffff16858760405161425a9190615aae565b60006040518083038185875af1925050503d8060008114614297576040519150601f19603f3d011682016040523d82523d6000602084013e61429c565b606091505b50915091506142ac8282866142fe565b92505050949350505050565b6000670de0b6b3a7640000826142ce91906155a9565b9050919050565b600081670de0b6b3a7640000846142ec9190615721565b6142f69190615838565b905092915050565b6060831561430e5782905061435e565b6000835111156143215782518084602001fd5b816040517f08c379a00000000000000000000000000000000000000000000000000000000081526004016143559190615b09565b60405180910390fd5b9392505050565b6040518060a001604052806000815260200161437f6143d8565b81526020016000815260200160008152602001600073ffffffffffffffffffffffffffffffffffffffff1681525090565b6040518060800160405280600081526020016000815260200160008152602001600081525090565b604051806040016040528060008152602001600081525090565b604051806040016040528060008152602001600081525090565b6000604051905090565b600080fd5b600080fd5b600073ffffffffffffffffffffffffffffffffffffffff82169050919050565b600061444b82614420565b9050919050565b61445b81614440565b811461446657600080fd5b50565b60008135905061447881614452565b92915050565b600061448982614440565b9050919050565b6144998161447e565b81146144a457600080fd5b50565b6000813590506144b681614490565b92915050565b600080fd5b600080fd5b600080fd5b60008083601f8401126144e1576144e06144bc565b5b8235905067ffffffffffffffff8111156144fe576144fd6144c1565b5b60208301915083602082028301111561451a576145196144c6565b5b9250929050565b6000806000806060858703121561453b5761453a614416565b5b600061454987828801614469565b945050602061455a878288016144a7565b935050604085013567ffffffffffffffff81111561457b5761457a61441b565b5b614587878288016144cb565b925092505092959194509250565b6000602082840312156145ab576145aa614416565b5b60006145b9848285016144a7565b91505092915050565b6000819050919050565b6145d5816145c2565b82525050565b60006020820190506145f060008301846145cc565b92915050565b6145ff816145c2565b811461460a57600080fd5b50565b60008135905061461c816145f6565b92915050565b6000806040838503121561463957614638614416565b5b6000614647858286016144a7565b92505060206146588582860161460d565b9150509250929050565b61466b81614440565b82525050565b60006020820190506146866000830184614662565b92915050565b600080fd5b6000601f19601f8301169050919050565b7f4e487b7100000000000000000000000000000000000000000000000000000000600052604160045260246000fd5b6146da82614691565b810181811067ffffffffffffffff821117156146f9576146f86146a2565b5b80604052505050565b600061470c61440c565b905061471882826146d1565b919050565b6000819050919050565b6147308161471d565b811461473b57600080fd5b50565b60008135905061474d81614727565b92915050565b6000606082840312156147695761476861468c565b5b6147736060614702565b905060006147838482850161460d565b60008301525060206147978482850161460d565b60208301525060406147ab8482850161473e565b60408301525092915050565b600080608083850312156147ce576147cd614416565b5b60006147dc85828601614469565b92505060206147ed85828601614753565b9150509250929050565b614800816145c2565b82525050565b6000819050919050565b600061482b614826614821846145c2565b614806565b6145c2565b9050919050565b61483b81614810565b82525050565b6040820160008201516148576000850182614832565b50602082015161486a6020850182614832565b50505050565b600061488b61488661488184614420565b614806565b614420565b9050919050565b600061489d82614870565b9050919050565b60006148af82614892565b9050919050565b6148bf816148a4565b82525050565b60c0820160008201516148db60008501826147f7565b5060208201516148ee6020850182614841565b50604082015161490160608501826147f7565b50606082015161491460808501826147f7565b50608082015161492760a08501826148b6565b50505050565b600060c08201905061494260008301846148c5565b92915050565b60008060006040848603121561496157614960614416565b5b600061496f868287016144a7565b935050602084013567ffffffffffffffff8111156149905761498f61441b565b5b61499c868287016144cb565b92509250509250925092565b6000806000606084860312156149c1576149c0614416565b5b60006149cf868287016144a7565b93505060206149e086828701614469565b92505060406149f18682870161460d565b9150509250925092565b614a0481614810565b82525050565b6000602082019050614a1f60008301846149fb565b92915050565b60008083601f840112614a3b57614a3a6144bc565b5b8235905067ffffffffffffffff811115614a5857614a576144c1565b5b602083019150836020820283011115614a7457614a736144c6565b5b9250929050565b60008083601f840112614a9157614a906144bc565b5b8235905067ffffffffffffffff811115614aae57614aad6144c1565b5b602083019150836020820283011115614aca57614ac96144c6565b5b9250929050565b60008060008060408587031215614aeb57614aea614416565b5b600085013567ffffffffffffffff811115614b0957614b0861441b565b5b614b1587828801614a25565b9450945050602085013567ffffffffffffffff811115614b3857614b3761441b565b5b614b4487828801614a7b565b925092505092959194509250565b600060608284031215614b6857614b67614416565b5b6000614b7684828501614753565b91505092915050565b60008083601f840112614b9557614b946144bc565b5b8235905067ffffffffffffffff811115614bb257614bb16144c1565b5b602083019150836020820283011115614bce57614bcd6144c6565b5b9250929050565b60008060208385031215614bec57614beb614416565b5b600083013567ffffffffffffffff811115614c0a57614c0961441b565b5b614c1685828601614b7f565b92509250509250929050565b6000614c2d82614440565b9050919050565b614c3d81614c22565b8114614c4857600080fd5b50565b600081359050614c5a81614c34565b92915050565b600060208284031215614c7657614c75614416565b5b6000614c8484828501614c4b565b91505092915050565b600080fd5b600060c08284031215614ca857614ca7614c8d565b5b81905092915050565b60008060e08385031215614cc857614cc7614416565b5b6000614cd6858286016144a7565b9250506020614ce785828601614c92565b9150509250929050565b6000614cfc82614892565b9050919050565b614d0c81614cf1565b82525050565b6000602082019050614d276000830184614d03565b92915050565b614d3681614440565b8114614d4157600080fd5b50565b600081359050614d5381614d2d565b92915050565b600060208284031215614d6f57614d6e614416565b5b6000614d7d84828501614d44565b91505092915050565b6000614d9182614440565b9050919050565b614da181614d86565b8114614dac57600080fd5b50565b600081519050614dbe81614d98565b92915050565b600060208284031215614dda57614dd9614416565b5b6000614de884828501614daf565b91505092915050565b6000604082019050614e066000830185614662565b614e136020830184614662565b9392505050565b7f4e487b7100000000000000000000000000000000000000000000000000000000600052603260045260246000fd5b600081519050614e5881614452565b92915050565b600060208284031215614e7457614e73614416565b5b6000614e8284828501614e49565b91505092915050565b6000614e9682614892565b9050919050565b614ea681614e8b565b82525050565b6000602082019050614ec16000830184614e9d565b92915050565b60008115159050919050565b614edc81614ec7565b8114614ee757600080fd5b50565b600081519050614ef981614ed3565b92915050565b600060208284031215614f1557614f14614416565b5b6000614f2384828501614eea565b91505092915050565b600080fd5b600080fd5b600080fd5b60008083356001602003843603038112614f5857614f57614f2c565b5b80840192508235915067ffffffffffffffff821115614f7a57614f79614f31565b5b602083019250602082023603831315614f9657614f95614f36565b5b509250929050565b7f4e487b7100000000000000000000000000000000000000000000000000000000600052601160045260246000fd5b6000614fd8826145c2565b91507fffffffffffffffffffffffffffffffffffffffffffffffffffffffffffffffff820361500a57615009614f9e565b5b600182019050919050565b600081519050615024816145f6565b92915050565b6000602082840312156150405761503f614416565b5b600061504e84828501615015565b91505092915050565b615060816145c2565b811461506b57600080fd5b50565b60008135905061507d81615057565b92915050565b6000604082840312156150995761509861468c565b5b6150a36040614702565b905060006150b38482850161506e565b60008301525060206150c78482850161506e565b60208301525092915050565b600060c082840312156150e9576150e861468c565b5b6150f360a0614702565b905060006151038482850161460d565b600083015250602061511784828501615083565b602083015250606061512b8482850161460d565b604083015250608061513f8482850161460d565b60608301525060a061515384828501614d44565b60808301525092915050565b600060c0828403121561517557615174614416565b5b6000615183848285016150d3565b91505092915050565b60008151905061519b81615057565b92915050565b6000602082840312156151b7576151b6614416565b5b60006151c58482850161518c565b91505092915050565b6000604082840312156151e4576151e3614416565b5b60006151f284828501615083565b91505092915050565b600060e08201905061521060008301856148c5565b61521d60c08301846149fb565b9392505050565b60006040820190506152396000830185614e9d565b61524660208301846145cc565b9392505050565b6000615258826145c2565b9150615263836145c2565b9250827fffffffffffffffffffffffffffffffffffffffffffffffffffffffffffffffff0382111561529857615297614f9e565b5b828201905092915050565b6000815190506152b281614727565b92915050565b6000606082840312156152ce576152cd61468c565b5b6152d86060614702565b905060006152e884828501615015565b60008301525060206152fc84828501615015565b6020830152506040615310848285016152a3565b60408301525092915050565b60006060828403121561533257615331614416565b5b6000615340848285016152b8565b91505092915050565b600060408201905061535e6000830185614662565b61536b60208301846145cc565b9392505050565b600061537d826145c2565b9150615388836145c2565b92508282101561539b5761539a614f9e565b5b828203905092915050565b60006060820190506153bb6000830186614662565b6153c86020830185614662565b6153d560408301846145cc565b949350505050565b6000604082840312156153f3576153f261468c565b5b6153fd6040614702565b9050600061540d848285016152a3565b6000830152506020615421848285016152a3565b60208301525092915050565b60006040828403121561544357615442614416565b5b6000615451848285016153dd565b91505092915050565b6000604082840312156154705761546f61468c565b5b61547a6040614702565b9050600061548a8482850161518c565b600083015250602061549e8482850161518c565b60208301525092915050565b6000604082840312156154c0576154bf614416565b5b60006154ce8482850161545a565b91505092915050565b7f4e487b7100000000000000000000000000000000000000000000000000000000600052603160045260246000fd5b600082825260208201905092915050565b7f5361666545524332303a204552433230206f7065726174696f6e20646964206e60008201527f6f74207375636365656400000000000000000000000000000000000000000000602082015250565b6000615573602a83615506565b915061557e82615517565b604082019050919050565b600060208201905081810360008301526155a281615566565b9050919050565b60006155b4826145c2565b91506155bf836145c2565b9250817fffffffffffffffffffffffffffffffffffffffffffffffffffffffffffffffff04831182151516156155f8576155f7614f9e565b5b828202905092915050565b7f4e487b7100000000000000000000000000000000000000000000000000000000600052601260045260246000fd5b600061563d826145c2565b9150615648836145c2565b92508261565857615657615603565b5b828204905092915050565b61566c8161471d565b82525050565b60006020820190506156876000830184615663565b92915050565b60006156988261471d565b91506156a38361471d565b9250827f8000000000000000000000000000000000000000000000000000000000000000018212600084121516156156de576156dd614f9e565b5b827f7fffffffffffffffffffffffffffffffffffffffffffffffffffffffffffffff01821360008412161561571657615715614f9e565b5b828203905092915050565b600061572c8261471d565b91506157378361471d565b9250827f7fffffffffffffffffffffffffffffffffffffffffffffffffffffffffffffff048211600084136000841316161561577657615775614f9e565b5b817f800000000000000000000000000000000000000000000000000000000000000005831260008412600084131616156157b3576157b2614f9e565b5b827f800000000000000000000000000000000000000000000000000000000000000005821260008413600084121616156157f0576157ef614f9e565b5b827f7fffffffffffffffffffffffffffffffffffffffffffffffffffffffffffffff058212600084126000841216161561582d5761582c614f9e565b5b828202905092915050565b60006158438261471d565b915061584e8361471d565b92508261585e5761585d615603565b5b600160000383147f80000000000000000000000000000000000000000000000000000000000000008314161561589757615896614f9e565b5b828205905092915050565b60006158ad8261471d565b91506158b88361471d565b9250817f7fffffffffffffffffffffffffffffffffffffffffffffffffffffffffffffff038313600083121516156158f3576158f2614f9e565b5b817f800000000000000000000000000000000000000000000000000000000000000003831260008312161561592b5761592a614f9e565b5b828201905092915050565b7f416464726573733a20696e73756666696369656e742062616c616e636520666f60008201527f722063616c6c0000000000000000000000000000000000000000000000000000602082015250565b6000615992602683615506565b915061599d82615936565b604082019050919050565b600060208201905081810360008301526159c181615985565b9050919050565b7f416464726573733a2063616c6c20746f206e6f6e2d636f6e7472616374000000600082015250565b60006159fe601d83615506565b9150615a09826159c8565b602082019050919050565b60006020820190508181036000830152615a2d816159f1565b9050919050565b600081519050919050565b600081905092915050565b60005b83811015615a68578082015181840152602081019050615a4d565b83811115615a77576000848401525b50505050565b6000615a8882615a34565b615a928185615a3f565b9350615aa2818560208601615a4a565b80840191505092915050565b6000615aba8284615a7d565b915081905092915050565b600081519050919050565b6000615adb82615ac5565b615ae58185615506565b9350615af5818560208601615a4a565b615afe81614691565b840191505092915050565b60006020820190508181036000830152615b238184615ad0565b90509291505056fea264697066735822122082e9e91072630c6aecaf2986f53f9f659c308576ffcec20b0a3728c7613a1bcd64736f6c634300080f0033",
  "devdoc": {
    "kind": "dev",
    "methods": {
      "active(address)": {
        "params": {
          "product": "Product to check for"
        },
        "returns": {
          "_0": "Number of active programs"
        }
      },
      "available(address,uint256)": {
        "params": {
          "product": "Product to return for",
          "programId": "Program to return for"
        },
        "returns": {
          "_0": "Available rewards for `programId`"
        }
      },
      "claim(address,uint256[])": {
        "params": {
          "product": "Product to claim rewards for",
          "programIds": "Programs to claim rewards for"
        }
      },
      "claim(address[],uint256[][])": {
        "params": {
          "products": "Products to claim rewards for",
          "programIds": "Programs to claim rewards for"
        }
      },
      "claimFee(address[])": {
        "params": {
          "tokens": "Tokens to claim fees for"
        }
      },
      "claimFor(address,address,uint256[])": {
        "params": {
          "account": "Account to claim rewards for",
          "product": "Product to claim rewards for",
          "programIds": "Programs to claim rewards for"
        }
      },
      "complete(address,uint256)": {
        "details": "Must be called as the program owner",
        "params": {
          "product": "Product that the program is running on",
          "programId": "Program to complete early"
        }
      },
      "count(address)": {
        "params": {
          "product": "Product to check for"
        },
        "returns": {
          "_0": "Number of programs (inactive or active)"
        }
      },
      "create(address,(uint256,(uint256,uint256),uint256,uint256,address))": {
        "details": "Must be called as the product or protocol owner",
        "params": {
          "product": "The product to create the new program on",
          "programInfo": "Parameters for the new program"
        },
        "returns": {
          "programId": "New program's ID"
        }
      },
      "initialize(address)": {
        "details": "Must be called atomically as part of the upgradeable proxy deployment to      avoid front-running",
        "params": {
          "controller_": "Factory contract address"
        }
      },
      "owner(address,uint256)": {
        "params": {
          "product": "Product to return for",
          "programId": "Program to return for"
        },
        "returns": {
          "_0": "The owner of `programId`"
        }
      },
      "programInfos(address,uint256)": {
        "params": {
          "product": "Product to return for",
          "programId": "Program to return for"
        },
        "returns": {
          "_0": "Program info"
        }
      },
      "sync((uint256,uint256,int256))": {
        "details": "Called every settle() from each product",
        "params": {
          "currentOracleVersion": "The preloaded current oracle version"
        }
      },
      "syncAccount(address,(uint256,uint256,int256))": {
        "details": "Called immediately proceeding a position update in the corresponding product",
        "params": {
          "account": "Account to sync",
          "currentOracleVersion": "The preloaded current oracle version"
        }
      },
      "treasury(address,uint256)": {
        "params": {
          "product": "Product to return for",
          "programId": "Program to return for"
        },
        "returns": {
          "_0": "The treasury of `programId`"
        }
      },
      "unclaimed(address,address,uint256)": {
        "params": {
          "account": "Account to return for",
          "product": "Product to return for",
          "programId": "Program to return for"
        },
        "returns": {
          "_0": "`account`'s total unclaimed rewards for `programId`"
        }
      },
      "versionComplete(address,uint256)": {
        "params": {
          "product": "Product to return for",
          "programId": "Program to return for"
        },
        "returns": {
          "_0": "The version completed for `programId`"
        }
      },
      "versionStarted(address,uint256)": {
        "params": {
          "product": "Product to return for",
          "programId": "Program to return for"
        },
        "returns": {
          "_0": "The version started for `programId`"
        }
      }
    },
    "stateVariables": {
      "_products": {
        "details": "Product management state"
      },
      "fees": {
        "details": "Fees that have been collected, but remain unclaimed"
      }
    },
    "title": "Incentivizer",
    "version": 1
  },
  "userdoc": {
    "kind": "user",
    "methods": {
      "active(address)": {
        "notice": "Returns the quantity of active programs for a given product"
      },
      "available(address,uint256)": {
        "notice": "Returns available rewards for a specific program"
      },
      "claim(address,uint256[])": {
        "notice": "Claims all of `msg.sender`'s rewards for `product` programs"
      },
      "claim(address[],uint256[][])": {
        "notice": "Claims all of `msg.sender`'s rewards for a specific program"
      },
      "claimFee(address[])": {
        "notice": "Claims all `tokens` fees to the protocol treasury"
      },
      "claimFor(address,address,uint256[])": {
        "notice": "Claims all of `account`'s rewards for `product` programs"
      },
      "complete(address,uint256)": {
        "notice": "Completes an in-progress program early"
      },
      "count(address)": {
        "notice": "Returns the quantity of programs for a given product"
      },
      "create(address,(uint256,(uint256,uint256),uint256,uint256,address))": {
        "notice": "Creates a new incentive program"
      },
      "initialize(address)": {
        "notice": "Initializes the contract state"
      },
      "owner(address,uint256)": {
        "notice": "Returns the owner of a specific program"
      },
      "programInfos(address,uint256)": {
        "notice": "Returns program info for program `programId`"
      },
      "sync((uint256,uint256,int256))": {
        "notice": "Starts and completes programs as they become available"
      },
      "syncAccount(address,(uint256,uint256,int256))": {
        "notice": "Settles unsettled balance for `account`"
      },
      "treasury(address,uint256)": {
        "notice": "Returns the treasury of a specific program"
      },
      "unclaimed(address,address,uint256)": {
        "notice": "Returns `account`'s total unclaimed rewards for a specific program"
      },
      "versionComplete(address,uint256)": {
        "notice": "Returns the version completed for a specific program"
      },
      "versionStarted(address,uint256)": {
        "notice": "Returns the version started for a specific program"
      }
    },
    "notice": "Manages logic and state for all incentive programs in the protocol.",
    "version": 1
  },
  "storageLayout": {
    "storage": [
      {
        "astId": 12843,
        "contract": "contracts/incentivizer/Incentivizer.sol:Incentivizer",
        "label": "_products",
        "offset": 0,
        "slot": "0",
        "type": "t_mapping(t_contract(IProduct)16614,t_struct(ProductManager)13689_storage)"
      },
      {
        "astId": 12850,
        "contract": "contracts/incentivizer/Incentivizer.sol:Incentivizer",
        "label": "fees",
        "offset": 0,
        "slot": "1",
        "type": "t_mapping(t_userDefinedValueType(Token18)4038,t_userDefinedValueType(UFixed18)3251)"
      }
    ],
    "types": {
      "t_address": {
        "encoding": "inplace",
        "label": "address",
        "numberOfBytes": "20"
      },
      "t_array(t_bytes32)dyn_storage": {
        "base": "t_bytes32",
        "encoding": "dynamic_array",
        "label": "bytes32[]",
        "numberOfBytes": "32"
      },
      "t_array(t_struct(ProgramInfo)18168_storage)dyn_storage": {
        "base": "t_struct(ProgramInfo)18168_storage",
        "encoding": "dynamic_array",
        "label": "struct ProgramInfo[]",
        "numberOfBytes": "32"
      },
      "t_bytes32": {
        "encoding": "inplace",
        "label": "bytes32",
        "numberOfBytes": "32"
      },
      "t_contract(IProduct)16614": {
        "encoding": "inplace",
        "label": "contract IProduct",
        "numberOfBytes": "20"
      },
      "t_mapping(t_address,t_struct(UintSet)10284_storage)": {
        "encoding": "mapping",
        "key": "t_address",
        "label": "mapping(address => struct EnumerableSet.UintSet)",
        "numberOfBytes": "32",
        "value": "t_struct(UintSet)10284_storage"
      },
      "t_mapping(t_address,t_uint256)": {
        "encoding": "mapping",
        "key": "t_address",
        "label": "mapping(address => uint256)",
        "numberOfBytes": "32",
        "value": "t_uint256"
      },
      "t_mapping(t_address,t_userDefinedValueType(UFixed18)3251)": {
        "encoding": "mapping",
        "key": "t_address",
        "label": "mapping(address => UFixed18)",
        "numberOfBytes": "32",
        "value": "t_userDefinedValueType(UFixed18)3251"
      },
      "t_mapping(t_bytes32,t_uint256)": {
        "encoding": "mapping",
        "key": "t_bytes32",
        "label": "mapping(bytes32 => uint256)",
        "numberOfBytes": "32",
        "value": "t_uint256"
      },
      "t_mapping(t_contract(IProduct)16614,t_struct(ProductManager)13689_storage)": {
        "encoding": "mapping",
        "key": "t_contract(IProduct)16614",
        "label": "mapping(contract IProduct => struct ProductManager)",
        "numberOfBytes": "32",
        "value": "t_struct(ProductManager)13689_storage"
      },
      "t_mapping(t_uint256,t_struct(Program)14284_storage)": {
        "encoding": "mapping",
        "key": "t_uint256",
        "label": "mapping(uint256 => struct Program)",
        "numberOfBytes": "32",
        "value": "t_struct(Program)14284_storage"
      },
      "t_mapping(t_userDefinedValueType(Token18)4038,t_userDefinedValueType(UFixed18)3251)": {
        "encoding": "mapping",
        "key": "t_userDefinedValueType(Token18)4038",
        "label": "mapping(Token18 => UFixed18)",
        "numberOfBytes": "32",
        "value": "t_userDefinedValueType(UFixed18)3251"
      },
      "t_struct(Position)17506_storage": {
        "encoding": "inplace",
        "label": "struct Position",
        "members": [
          {
            "astId": 17501,
            "contract": "contracts/incentivizer/Incentivizer.sol:Incentivizer",
            "label": "maker",
            "offset": 0,
            "slot": "0",
            "type": "t_userDefinedValueType(UFixed18)3251"
          },
          {
            "astId": 17505,
            "contract": "contracts/incentivizer/Incentivizer.sol:Incentivizer",
            "label": "taker",
            "offset": 0,
            "slot": "1",
            "type": "t_userDefinedValueType(UFixed18)3251"
          }
        ],
        "numberOfBytes": "64"
      },
      "t_struct(ProductManager)13689_storage": {
        "encoding": "inplace",
        "label": "struct ProductManager",
        "members": [
          {
            "astId": 13667,
            "contract": "contracts/incentivizer/Incentivizer.sol:Incentivizer",
            "label": "programInfos",
            "offset": 0,
            "slot": "0",
            "type": "t_array(t_struct(ProgramInfo)18168_storage)dyn_storage"
          },
          {
            "astId": 13673,
            "contract": "contracts/incentivizer/Incentivizer.sol:Incentivizer",
            "label": "programs",
            "offset": 0,
            "slot": "1",
            "type": "t_mapping(t_uint256,t_struct(Program)14284_storage)"
          },
          {
            "astId": 13677,
            "contract": "contracts/incentivizer/Incentivizer.sol:Incentivizer",
            "label": "activePrograms",
            "offset": 0,
            "slot": "2",
            "type": "t_struct(UintSet)10284_storage"
          },
          {
            "astId": 13683,
            "contract": "contracts/incentivizer/Incentivizer.sol:Incentivizer",
            "label": "activeProgramsFor",
            "offset": 0,
            "slot": "4",
            "type": "t_mapping(t_address,t_struct(UintSet)10284_storage)"
          },
          {
            "astId": 13688,
            "contract": "contracts/incentivizer/Incentivizer.sol:Incentivizer",
            "label": "nextProgramFor",
            "offset": 0,
            "slot": "5",
            "type": "t_mapping(t_address,t_uint256)"
          }
        ],
        "numberOfBytes": "192"
      },
      "t_struct(Program)14284_storage": {
        "encoding": "inplace",
        "label": "struct Program",
        "members": [
          {
            "astId": 14273,
            "contract": "contracts/incentivizer/Incentivizer.sol:Incentivizer",
            "label": "settled",
            "offset": 0,
            "slot": "0",
            "type": "t_mapping(t_address,t_userDefinedValueType(UFixed18)3251)"
          },
          {
            "astId": 14277,
            "contract": "contracts/incentivizer/Incentivizer.sol:Incentivizer",
            "label": "available",
            "offset": 0,
            "slot": "1",
            "type": "t_userDefinedValueType(UFixed18)3251"
          },
          {
            "astId": 14280,
            "contract": "contracts/incentivizer/Incentivizer.sol:Incentivizer",
            "label": "versionStarted",
            "offset": 0,
            "slot": "2",
            "type": "t_uint256"
          },
          {
            "astId": 14283,
            "contract": "contracts/incentivizer/Incentivizer.sol:Incentivizer",
            "label": "versionComplete",
            "offset": 0,
            "slot": "3",
            "type": "t_uint256"
          }
        ],
        "numberOfBytes": "128"
      },
      "t_struct(ProgramInfo)18168_storage": {
        "encoding": "inplace",
        "label": "struct ProgramInfo",
        "members": [
          {
            "astId": 18153,
            "contract": "contracts/incentivizer/Incentivizer.sol:Incentivizer",
            "label": "coordinatorId",
            "offset": 0,
            "slot": "0",
            "type": "t_uint256"
          },
          {
            "astId": 18157,
            "contract": "contracts/incentivizer/Incentivizer.sol:Incentivizer",
            "label": "amount",
            "offset": 0,
            "slot": "1",
            "type": "t_struct(Position)17506_storage"
          },
          {
            "astId": 18160,
            "contract": "contracts/incentivizer/Incentivizer.sol:Incentivizer",
            "label": "start",
            "offset": 0,
            "slot": "3",
            "type": "t_uint256"
          },
          {
            "astId": 18163,
            "contract": "contracts/incentivizer/Incentivizer.sol:Incentivizer",
            "label": "duration",
            "offset": 0,
            "slot": "4",
            "type": "t_uint256"
          },
          {
            "astId": 18167,
            "contract": "contracts/incentivizer/Incentivizer.sol:Incentivizer",
            "label": "token",
            "offset": 0,
            "slot": "5",
            "type": "t_userDefinedValueType(Token18)4038"
          }
        ],
        "numberOfBytes": "192"
      },
      "t_struct(Set)9826_storage": {
        "encoding": "inplace",
        "label": "struct EnumerableSet.Set",
        "members": [
          {
            "astId": 9821,
            "contract": "contracts/incentivizer/Incentivizer.sol:Incentivizer",
            "label": "_values",
            "offset": 0,
            "slot": "0",
            "type": "t_array(t_bytes32)dyn_storage"
          },
          {
            "astId": 9825,
            "contract": "contracts/incentivizer/Incentivizer.sol:Incentivizer",
            "label": "_indexes",
            "offset": 0,
            "slot": "1",
            "type": "t_mapping(t_bytes32,t_uint256)"
          }
        ],
        "numberOfBytes": "64"
      },
      "t_struct(UintSet)10284_storage": {
        "encoding": "inplace",
        "label": "struct EnumerableSet.UintSet",
        "members": [
          {
            "astId": 10283,
            "contract": "contracts/incentivizer/Incentivizer.sol:Incentivizer",
            "label": "_inner",
            "offset": 0,
            "slot": "0",
            "type": "t_struct(Set)9826_storage"
          }
        ],
        "numberOfBytes": "64"
      },
      "t_uint256": {
        "encoding": "inplace",
        "label": "uint256",
        "numberOfBytes": "32"
      },
      "t_userDefinedValueType(Token18)4038": {
        "encoding": "inplace",
        "label": "Token18",
        "numberOfBytes": "20"
      },
      "t_userDefinedValueType(UFixed18)3251": {
        "encoding": "inplace",
        "label": "UFixed18",
        "numberOfBytes": "32"
      }
    }
  }
}