{
  "address": "0x19890Cf5C9A0B8d2F71eB71347d126b6F7d78B76",
  "abi": [
    {
      "inputs": [
        {
          "internalType": "Token6",
          "name": "usdc_",
          "type": "address"
        },
        {
          "internalType": "contract Batcher",
          "name": "batcher_",
          "type": "address"
        },
        {
          "internalType": "contract IController",
          "name": "controller_",
          "type": "address"
        }
      ],
      "stateMutability": "nonpayable",
      "type": "constructor"
    },
    {
      "inputs": [
        {
          "internalType": "uint256",
          "name": "version",
          "type": "uint256"
        }
      ],
      "name": "UInitializableAlreadyInitializedError",
      "type": "error"
    },
    {
      "inputs": [],
      "name": "UInitializableNotInitializingError",
      "type": "error"
    },
    {
      "inputs": [],
      "name": "UInitializableZeroVersionError",
      "type": "error"
    },
    {
      "anonymous": false,
      "inputs": [
        {
          "indexed": false,
          "internalType": "uint256",
          "name": "version",
          "type": "uint256"
        }
      ],
      "name": "Initialized",
      "type": "event"
    },
    {
      "inputs": [],
      "name": "DSU",
      "outputs": [
        {
          "internalType": "Token18",
          "name": "",
          "type": "address"
        }
      ],
      "stateMutability": "view",
      "type": "function"
    },
    {
      "inputs": [],
      "name": "USDC",
      "outputs": [
        {
          "internalType": "Token6",
          "name": "",
          "type": "address"
        }
      ],
      "stateMutability": "view",
      "type": "function"
    },
    {
      "inputs": [],
      "name": "batcher",
      "outputs": [
        {
          "internalType": "contract Batcher",
          "name": "",
          "type": "address"
        }
      ],
      "stateMutability": "view",
      "type": "function"
    },
    {
      "inputs": [],
      "name": "collateral",
      "outputs": [
        {
          "internalType": "contract ICollateral",
          "name": "",
          "type": "address"
        }
      ],
      "stateMutability": "view",
      "type": "function"
    },
    {
      "inputs": [],
      "name": "controller",
      "outputs": [
        {
          "internalType": "contract IController",
          "name": "",
          "type": "address"
        }
      ],
      "stateMutability": "view",
      "type": "function"
    },
    {
      "inputs": [],
      "name": "initialize",
      "outputs": [],
      "stateMutability": "nonpayable",
      "type": "function"
    },
    {
      "inputs": [
        {
          "components": [
            {
              "internalType": "enum IMultiInvoker.PerennialAction",
              "name": "action",
              "type": "uint8"
            },
            {
              "internalType": "bytes",
              "name": "args",
              "type": "bytes"
            }
          ],
          "internalType": "struct IMultiInvoker.Invocation[]",
          "name": "invocations",
          "type": "tuple[]"
        }
      ],
      "name": "invoke",
      "outputs": [],
      "stateMutability": "nonpayable",
      "type": "function"
    },
    {
      "inputs": [],
      "name": "reserve",
      "outputs": [
        {
          "internalType": "contract IEmptySetReserve",
          "name": "",
          "type": "address"
        }
      ],
      "stateMutability": "view",
      "type": "function"
    }
  ],
  "transactionHash": "0xe770a6eddf195773acd4c9fef733c14c17253652b3d562682f3b8fcced2bd215",
  "args": [
    "0xA0b86991c6218b36c1d19D4a2e9Eb0cE3606eB48",
    "0x0B663CeaCEF01f2f88EB7451C70Aa069f19dB997",
    "0x9df509186b6d3b7D033359f94c8b1BB5544d51b3"
  ],
  "numDeployments": 1,
  "solcInputHash": "25fa6f9c517c512df75e1df50d46c02d",
  "bytecode": "0x6101406040523480156200001257600080fd5b5060405162002195380380620021958339810160408190526200003591620001d3565b6001600160a01b0380841660805282811660c052811660e08190526040805163d8dfeb4560e01b8152905163d8dfeb45916004808201926020929091908290030181865afa1580156200008c573d6000803e3d6000fd5b505050506040513d601f19601f82011682018060405250810190620000b2919062000227565b6001600160a01b031661010081905260408051637e062a3560e11b8152905163fc0c546a916004808201926020929091908290030181865afa158015620000fd573d6000803e3d6000fd5b505050506040513d601f19601f8201168201806040525081019062000123919062000227565b6001600160a01b031660a0816001600160a01b03168152505060c0516001600160a01b0316639d2cc4366040518163ffffffff1660e01b8152600401602060405180830381865afa1580156200017d573d6000803e3d6000fd5b505050506040513d601f19601f82011682018060405250810190620001a3919062000227565b6001600160a01b031661012052506200024e915050565b6001600160a01b0381168114620001d057600080fd5b50565b600080600060608486031215620001e957600080fd5b8351620001f681620001ba565b60208501519093506200020981620001ba565b60408501519092506200021c81620001ba565b809150509250925092565b6000602082840312156200023a57600080fd5b81516200024781620001ba565b9392505050565b60805160a05160c05160e0516101005161012051611e586200033d6000396000818161014d01528181610310015281816103d0015281816110680152611212015260008181610174015281816102b00152818161057301528181610b700152610d0e01526000818161019b01526108950152600081816092015281816103700152818161100901526111830152600081816101130152818161028e015281816102ee01528181610af501528181610c3801528181610fe7015261111001526000818160ec0152818161034e015281816103ae01528181610beb01528181610c83015261129d0152611e586000f3fe608060405234801561001057600080fd5b50600436106100885760003560e01c8063bdec4a271161005b578063bdec4a2714610135578063cd3293de14610148578063d8dfeb451461016f578063f77c47911461019657600080fd5b8063025a3a291461008d5780638129fc1c146100dd57806389a30271146100e7578063a2060bcf1461010e575b600080fd5b6100b47f000000000000000000000000000000000000000000000000000000000000000081565b60405173ffffffffffffffffffffffffffffffffffffffff909116815260200160405180910390f35b6100e56101bd565b005b6100b47f000000000000000000000000000000000000000000000000000000000000000081565b6100b47f000000000000000000000000000000000000000000000000000000000000000081565b6100e561014336600461181a565b61044e565b6100b47f000000000000000000000000000000000000000000000000000000000000000081565b6100b47f000000000000000000000000000000000000000000000000000000000000000081565b6100b47f000000000000000000000000000000000000000000000000000000000000000081565b6001806101e87f5db5abc19987c2b3729df7961b62b6bb0bae886dd47e3ce25bb3a3af34c6d80b5490565b10610227576040517f1e7a9d95000000000000000000000000000000000000000000000000000000008152600481018290526024015b60405180910390fd5b6102507f5db5abc19987c2b3729df7961b62b6bb0bae886dd47e3ce25bb3a3af34c6d80b829055565b60017fad57d7911b7e3d6c3c79a68ba909a7f4ba41f9485e5207b12dee0d0c6af5398c556102d473ffffffffffffffffffffffffffffffffffffffff7f0000000000000000000000000000000000000000000000000000000000000000167f0000000000000000000000000000000000000000000000000000000000000000610a96565b61033473ffffffffffffffffffffffffffffffffffffffff7f0000000000000000000000000000000000000000000000000000000000000000167f0000000000000000000000000000000000000000000000000000000000000000610a96565b61039473ffffffffffffffffffffffffffffffffffffffff7f0000000000000000000000000000000000000000000000000000000000000000167f0000000000000000000000000000000000000000000000000000000000000000610a96565b6103f473ffffffffffffffffffffffffffffffffffffffff7f0000000000000000000000000000000000000000000000000000000000000000167f0000000000000000000000000000000000000000000000000000000000000000610a96565b60007fad57d7911b7e3d6c3c79a68ba909a7f4ba41f9485e5207b12dee0d0c6af5398c556040518181527fbe9b076dc5b65990cca9dd9d7366682482e7817a6f6bc7f4faf4dc32af497f329060200160405180910390a150565b60005b81811015610a9157600083838381811061046d5761046d61188f565b905060200281019061047f91906118be565b610488906119a3565b905060018151600b81111561049f5761049f611a73565b036104da57600080600083602001518060200190518101906104c19190611ac7565b9250925092506104d2838383610adb565b505050610a7e565b60028151600b8111156104ef576104ef611a73565b036105d957600080600083602001518060200190518101906105119190611ac7565b6040517f2644131800000000000000000000000000000000000000000000000000000000815233600482015273ffffffffffffffffffffffffffffffffffffffff848116602483015283811660448301526064820183905293965091945092507f000000000000000000000000000000000000000000000000000000000000000090911690632644131890608401600060405180830381600087803b1580156105b957600080fd5b505af11580156105cd573d6000803e3d6000fd5b50505050505050610a7e565b60038151600b8111156105ee576105ee611a73565b036106a157600080826020015180602001905181019061060e9190611b0a565b6040517f9378bf7b00000000000000000000000000000000000000000000000000000000815233600482015260248101829052919350915073ffffffffffffffffffffffffffffffffffffffff831690639378bf7b906044015b600060405180830381600087803b15801561068257600080fd5b505af1158015610696573d6000803e3d6000fd5b505050505050610a7e565b60048151600b8111156106b6576106b6611a73565b036107345760008082602001518060200190518101906106d69190611b0a565b6040517f2131ea4a00000000000000000000000000000000000000000000000000000000815233600482015260248101829052919350915073ffffffffffffffffffffffffffffffffffffffff831690632131ea4a90604401610668565b60058151600b81111561074957610749611a73565b036107c75760008082602001518060200190518101906107699190611b0a565b6040517f2d2e52be00000000000000000000000000000000000000000000000000000000815233600482015260248101829052919350915073ffffffffffffffffffffffffffffffffffffffff831690632d2e52be90604401610668565b60068151600b8111156107dc576107dc611a73565b0361085a5760008082602001518060200190518101906107fc9190611b0a565b6040517fe503b00700000000000000000000000000000000000000000000000000000000815233600482015260248101829052919350915073ffffffffffffffffffffffffffffffffffffffff83169063e503b00790604401610668565b60078151600b81111561086f5761086f611a73565b0361095d57600080826020015180602001905181019061088f9190611b38565b915091507f000000000000000000000000000000000000000000000000000000000000000073ffffffffffffffffffffffffffffffffffffffff16636fc6407c6040518163ffffffff1660e01b8152600401602060405180830381865afa1580156108fe573d6000803e3d6000fd5b505050506040513d601f19601f820116820180604052508101906109229190611bf5565b73ffffffffffffffffffffffffffffffffffffffff16628240533384846040518463ffffffff1660e01b815260040161066893929190611c12565b60088151600b81111561097257610972611a73565b036109a75760008082602001518060200190518101906109929190611b0a565b915091506109a08282610bd1565b5050610a7e565b60098151600b8111156109bc576109bc611a73565b036109ea5760008082602001518060200190518101906109dc9190611b0a565b915091506109a08282610c1e565b600a8151600b8111156109ff576109ff611a73565b03610a325760008060008360200151806020019051810190610a219190611ac7565b9250925092506104d2838383610c69565b600b8151600b811115610a4757610a47611a73565b03610a7e5760008060008360200151806020019051810190610a699190611ac7565b925092509250610a7a838383610cb6565b5050505b5080610a8981611cb1565b915050610451565b505050565b610ad773ffffffffffffffffffffffffffffffffffffffff8316827fffffffffffffffffffffffffffffffffffffffffffffffffffffffffffffffff610d74565b5050565b610b1c73ffffffffffffffffffffffffffffffffffffffff7f0000000000000000000000000000000000000000000000000000000000000000163383610f74565b6040517ff213159c00000000000000000000000000000000000000000000000000000000815273ffffffffffffffffffffffffffffffffffffffff84811660048301528381166024830152604482018390527f0000000000000000000000000000000000000000000000000000000000000000169063f213159c90606401600060405180830381600087803b158015610bb457600080fd5b505af1158015610bc8573d6000803e3d6000fd5b50505050505050565b610c1473ffffffffffffffffffffffffffffffffffffffff7f00000000000000000000000000000000000000000000000000000000000000001633836001610f96565b610ad78282610fca565b610c5f73ffffffffffffffffffffffffffffffffffffffff7f0000000000000000000000000000000000000000000000000000000000000000163383610f74565b610ad782826111e3565b610cac73ffffffffffffffffffffffffffffffffffffffff7f00000000000000000000000000000000000000000000000000000000000000001633836001610f96565b610b1c3082610fca565b6040517f2644131800000000000000000000000000000000000000000000000000000000815233600482015230602482015273ffffffffffffffffffffffffffffffffffffffff8381166044830152606482018390527f00000000000000000000000000000000000000000000000000000000000000001690632644131890608401600060405180830381600087803b158015610d5257600080fd5b505af1158015610d66573d6000803e3d6000fd5b50505050610a9183826111e3565b801580610e1457506040517fdd62ed3e00000000000000000000000000000000000000000000000000000000815230600482015273ffffffffffffffffffffffffffffffffffffffff838116602483015284169063dd62ed3e90604401602060405180830381865afa158015610dee573d6000803e3d6000fd5b505050506040513d601f19601f82011682018060405250810190610e129190611ce9565b155b610ea0576040517f08c379a000000000000000000000000000000000000000000000000000000000815260206004820152603660248201527f5361666545524332303a20617070726f76652066726f6d206e6f6e2d7a65726f60448201527f20746f206e6f6e2d7a65726f20616c6c6f77616e636500000000000000000000606482015260840161021e565b60405173ffffffffffffffffffffffffffffffffffffffff8316602482015260448101829052610a919084907f095ea7b300000000000000000000000000000000000000000000000000000000906064015b604080517fffffffffffffffffffffffffffffffffffffffffffffffffffffffffffffffe08184030181529190526020810180517bffffffffffffffffffffffffffffffffffffffffffffffffffffffff167fffffffff00000000000000000000000000000000000000000000000000000000909316929092179091526112c6565b610a9173ffffffffffffffffffffffffffffffffffffffff84168330846113d2565b610fc48330610fa58585611430565b73ffffffffffffffffffffffffffffffffffffffff88169291906113d2565b50505050565b61103461102d73ffffffffffffffffffffffffffffffffffffffff7f0000000000000000000000000000000000000000000000000000000000000000167f0000000000000000000000000000000000000000000000000000000000000000611463565b82906114f7565b15611137576040517fa0712d68000000000000000000000000000000000000000000000000000000008152600481018290527f000000000000000000000000000000000000000000000000000000000000000073ffffffffffffffffffffffffffffffffffffffff169063a0712d6890602401600060405180830381600087803b1580156110c157600080fd5b505af11580156110d5573d6000803e3d6000fd5b5050505073ffffffffffffffffffffffffffffffffffffffff82163014610ad757610ad773ffffffffffffffffffffffffffffffffffffffff7f000000000000000000000000000000000000000000000000000000000000000016838361150d565b6040517f13bac8200000000000000000000000000000000000000000000000000000000081526004810182905273ffffffffffffffffffffffffffffffffffffffff83811660248301527f000000000000000000000000000000000000000000000000000000000000000016906313bac82090604401600060405180830381600087803b1580156111c757600080fd5b505af11580156111db573d6000803e3d6000fd5b505050505050565b6040517fdb006a75000000000000000000000000000000000000000000000000000000008152600481018290527f000000000000000000000000000000000000000000000000000000000000000073ffffffffffffffffffffffffffffffffffffffff169063db006a7590602401600060405180830381600087803b15801561126b57600080fd5b505af115801561127f573d6000803e3d6000fd5b50610ad792505073ffffffffffffffffffffffffffffffffffffffff7f0000000000000000000000000000000000000000000000000000000000000000169050838361152e565b6000611328826040518060400160405280602081526020017f5361666545524332303a206c6f772d6c6576656c2063616c6c206661696c65648152508573ffffffffffffffffffffffffffffffffffffffff1661155b9092919063ffffffff16565b805190915015610a9157808060200190518101906113469190611d02565b610a91576040517f08c379a000000000000000000000000000000000000000000000000000000000815260206004820152602a60248201527f5361666545524332303a204552433230206f7065726174696f6e20646964206e60448201527f6f74207375636365656400000000000000000000000000000000000000000000606482015260840161021e565b60405173ffffffffffffffffffffffffffffffffffffffff80851660248301528316604482015260648101829052610fc49085907f23b872dd0000000000000000000000000000000000000000000000000000000090608401610ef2565b60008161144b5761144664e8d4a5100084611d53565b61145a565b61145a8364e8d4a51000611574565b90505b92915050565b6040517f70a0823100000000000000000000000000000000000000000000000000000000815273ffffffffffffffffffffffffffffffffffffffff8281166004830152600091908416906370a0823190602401602060405180830381865afa1580156114d3573d6000803e3d6000fd5b505050506040513d601f19601f8201168201806040525081019061145a9190611ce9565b600061150383836115a6565b6002149392505050565b610a9173ffffffffffffffffffffffffffffffffffffffff841683836115db565b610a918261153d836000611430565b73ffffffffffffffffffffffffffffffffffffffff861691906115db565b606061156a8484600085611631565b90505b9392505050565b60006115808284611d67565b1561158c57600161158f565b60005b60ff1661159c8385611d53565b61145a9190611d7b565b60008282808211156115bd5760029250505061145d565b808210156115d05760009250505061145d565b506001949350505050565b60405173ffffffffffffffffffffffffffffffffffffffff8316602482015260448101829052610a919084907fa9059cbb0000000000000000000000000000000000000000000000000000000090606401610ef2565b6060824710156116c3576040517f08c379a000000000000000000000000000000000000000000000000000000000815260206004820152602660248201527f416464726573733a20696e73756666696369656e742062616c616e636520666f60448201527f722063616c6c0000000000000000000000000000000000000000000000000000606482015260840161021e565b73ffffffffffffffffffffffffffffffffffffffff85163b611741576040517f08c379a000000000000000000000000000000000000000000000000000000000815260206004820152601d60248201527f416464726573733a2063616c6c20746f206e6f6e2d636f6e7472616374000000604482015260640161021e565b6000808673ffffffffffffffffffffffffffffffffffffffff16858760405161176a9190611dbf565b60006040518083038185875af1925050503d80600081146117a7576040519150601f19603f3d011682016040523d82523d6000602084013e6117ac565b606091505b50915091506117bc8282866117c7565b979650505050505050565b606083156117d657508161156d565b8251156117e65782518084602001fd5b816040517f08c379a000000000000000000000000000000000000000000000000000000000815260040161021e9190611dd1565b6000806020838503121561182d57600080fd5b823567ffffffffffffffff8082111561184557600080fd5b818501915085601f83011261185957600080fd5b81358181111561186857600080fd5b8660208260051b850101111561187d57600080fd5b60209290920196919550909350505050565b7f4e487b7100000000000000000000000000000000000000000000000000000000600052603260045260246000fd5b600082357fffffffffffffffffffffffffffffffffffffffffffffffffffffffffffffffc18336030181126118f257600080fd5b9190910192915050565b7f4e487b7100000000000000000000000000000000000000000000000000000000600052604160045260246000fd5b6040805190810167ffffffffffffffff8111828210171561194e5761194e6118fc565b60405290565b604051601f82017fffffffffffffffffffffffffffffffffffffffffffffffffffffffffffffffe016810167ffffffffffffffff8111828210171561199b5761199b6118fc565b604052919050565b6000604082360312156119b557600080fd5b6119bd61192b565b8235600c81106119cc57600080fd5b815260208381013567ffffffffffffffff808211156119ea57600080fd5b9085019036601f8301126119fd57600080fd5b813581811115611a0f57611a0f6118fc565b611a3f847fffffffffffffffffffffffffffffffffffffffffffffffffffffffffffffffe0601f84011601611954565b91508082523684828501011115611a5557600080fd5b80848401858401376000908201840152918301919091525092915050565b7f4e487b7100000000000000000000000000000000000000000000000000000000600052602160045260246000fd5b73ffffffffffffffffffffffffffffffffffffffff81168114611ac457600080fd5b50565b600080600060608486031215611adc57600080fd5b8351611ae781611aa2565b6020850151909350611af881611aa2565b80925050604084015190509250925092565b60008060408385031215611b1d57600080fd5b8251611b2881611aa2565b6020939093015192949293505050565b60008060408385031215611b4b57600080fd5b8251611b5681611aa2565b8092505060208084015167ffffffffffffffff80821115611b7657600080fd5b818601915086601f830112611b8a57600080fd5b815181811115611b9c57611b9c6118fc565b8060051b9150611bad848301611954565b8181529183018401918481019089841115611bc757600080fd5b938501935b83851015611be557845182529385019390850190611bcc565b8096505050505050509250929050565b600060208284031215611c0757600080fd5b815161156d81611aa2565b60006060820173ffffffffffffffffffffffffffffffffffffffff8087168452602081871681860152606060408601528291508551808452608086019250818701935060005b81811015611c7457845184529382019392820192600101611c58565b509198975050505050505050565b7f4e487b7100000000000000000000000000000000000000000000000000000000600052601160045260246000fd5b60007fffffffffffffffffffffffffffffffffffffffffffffffffffffffffffffffff8203611ce257611ce2611c82565b5060010190565b600060208284031215611cfb57600080fd5b5051919050565b600060208284031215611d1457600080fd5b8151801515811461156d57600080fd5b7f4e487b7100000000000000000000000000000000000000000000000000000000600052601260045260246000fd5b600082611d6257611d62611d24565b500490565b600082611d7657611d76611d24565b500690565b60008219821115611d8e57611d8e611c82565b500190565b60005b83811015611dae578181015183820152602001611d96565b83811115610fc45750506000910152565b600082516118f2818460208701611d93565b6020815260008251806020840152611df0816040850160208701611d93565b601f017fffffffffffffffffffffffffffffffffffffffffffffffffffffffffffffffe016919091016040019291505056fea26469706673582212202a2dd0583db2a58250497c7a81401990b80aa9a1da312eeffb0238ed5f2ffc1364736f6c634300080f0033",
  "devdoc": {
    "kind": "dev",
    "methods": {
      "constructor": {
        "details": "Called at implementation instantiate and constant for that implementation.",
        "params": {
          "batcher_": "Protocol Batcher address",
          "controller_": "Protocol Controller address",
          "usdc_": "USDC stablecoin address"
        }
      },
      "initialize()": {
        "details": "Must be called atomically as part of the upgradeable proxy deployment to      avoid front-running"
      },
      "invoke((uint8,bytes)[])": {
        "params": {
          "invocations": "The list of invocations to execute in order"
        }
      }
    },
    "stateVariables": {
      "DSU": {
        "details": "DSU address"
      },
      "USDC": {
        "details": "USDC stablecoin address"
      },
      "batcher": {
        "details": "Batcher address"
      },
      "collateral": {
        "details": "Collateral address"
      },
      "controller": {
        "details": "Controller address"
      },
      "reserve": {
        "details": "Reserve address"
      }
    },
    "version": 1
  },
  "userdoc": {
    "kind": "user",
    "methods": {
      "constructor": {
        "notice": "Initializes the immutable contract state"
      },
      "initialize()": {
        "notice": "Initializes the contract state"
      },
      "invoke((uint8,bytes)[])": {
        "notice": "Executes a list of invocations in order"
      }
    },
    "version": 1
  },
  "storageLayout": {
    "storage": [],
    "types": null
  }
}