{
  "address": "0xAEf566ca7E84d1E736f999765a804687f39D9094",
  "abi": [
    {
      "inputs": [
        {
          "internalType": "contract IEmptySetReserve",
          "name": "reserve",
          "type": "address"
        },
        {
          "internalType": "Token18",
          "name": "dsu",
          "type": "address"
        },
        {
          "internalType": "Token6",
          "name": "usdc",
          "type": "address"
        }
      ],
      "stateMutability": "nonpayable",
      "type": "constructor"
    },
    {
      "inputs": [
        {
          "internalType": "UFixed18",
          "name": "oldBalance",
          "type": "uint256"
        },
        {
          "internalType": "UFixed18",
          "name": "newBalance",
          "type": "uint256"
        }
      ],
      "name": "BatcherBalanceMismatchError",
      "type": "error"
    },
    {
      "inputs": [],
      "name": "BatcherNotImplementedError",
      "type": "error"
    },
    {
      "inputs": [
        {
          "internalType": "UFixed18",
          "name": "amount",
          "type": "uint256"
        }
      ],
      "name": "TwoWayBatcherInvalidTokenAmount",
      "type": "error"
    },
    {
      "inputs": [
        {
          "internalType": "uint256",
          "name": "version",
          "type": "uint256"
        }
      ],
      "name": "UInitializableAlreadyInitializedError",
      "type": "error"
    },
    {
      "inputs": [],
      "name": "UInitializableNotInitializingError",
      "type": "error"
    },
    {
      "inputs": [],
      "name": "UInitializableZeroVersionError",
      "type": "error"
    },
    {
      "inputs": [
        {
          "internalType": "address",
          "name": "sender",
          "type": "address"
        }
      ],
      "name": "UOwnableNotOwnerError",
      "type": "error"
    },
    {
      "inputs": [
        {
          "internalType": "address",
          "name": "sender",
          "type": "address"
        }
      ],
      "name": "UOwnableNotPendingOwnerError",
      "type": "error"
    },
    {
      "inputs": [],
      "name": "UReentrancyGuardReentrantCallError",
      "type": "error"
    },
    {
      "anonymous": false,
      "inputs": [
        {
          "indexed": true,
          "internalType": "address",
          "name": "owner",
          "type": "address"
        },
        {
          "indexed": true,
          "internalType": "address",
          "name": "spender",
          "type": "address"
        },
        {
          "indexed": false,
          "internalType": "uint256",
          "name": "value",
          "type": "uint256"
        }
      ],
      "name": "Approval",
      "type": "event"
    },
    {
      "anonymous": false,
      "inputs": [
        {
          "indexed": false,
          "internalType": "UFixed18",
          "name": "amount",
          "type": "uint256"
        }
      ],
      "name": "Close",
      "type": "event"
    },
    {
      "anonymous": false,
      "inputs": [
        {
          "indexed": true,
          "internalType": "address",
          "name": "account",
          "type": "address"
        },
        {
          "indexed": false,
          "internalType": "UFixed18",
          "name": "amount",
          "type": "uint256"
        }
      ],
      "name": "Deposit",
      "type": "event"
    },
    {
      "anonymous": false,
      "inputs": [
        {
          "indexed": true,
          "internalType": "address",
          "name": "newOwner",
          "type": "address"
        }
      ],
      "name": "OwnerUpdated",
      "type": "event"
    },
    {
      "anonymous": false,
      "inputs": [
        {
          "indexed": true,
          "internalType": "address",
          "name": "newPendingOwner",
          "type": "address"
        }
      ],
      "name": "PendingOwnerUpdated",
      "type": "event"
    },
    {
      "anonymous": false,
      "inputs": [
        {
          "indexed": false,
          "internalType": "UFixed18",
          "name": "newMinted",
          "type": "uint256"
        },
        {
          "indexed": false,
          "internalType": "UFixed18",
          "name": "newRedeemed",
          "type": "uint256"
        }
      ],
      "name": "Rebalance",
      "type": "event"
    },
    {
      "anonymous": false,
      "inputs": [
        {
          "indexed": true,
          "internalType": "address",
          "name": "from",
          "type": "address"
        },
        {
          "indexed": true,
          "internalType": "address",
          "name": "to",
          "type": "address"
        },
        {
          "indexed": false,
          "internalType": "uint256",
          "name": "value",
          "type": "uint256"
        }
      ],
      "name": "Transfer",
      "type": "event"
    },
    {
      "anonymous": false,
      "inputs": [
        {
          "indexed": true,
          "internalType": "address",
          "name": "to",
          "type": "address"
        },
        {
          "indexed": false,
          "internalType": "UFixed18",
          "name": "amount",
          "type": "uint256"
        }
      ],
      "name": "Unwrap",
      "type": "event"
    },
    {
      "anonymous": false,
      "inputs": [
        {
          "indexed": true,
          "internalType": "address",
          "name": "account",
          "type": "address"
        },
        {
          "indexed": false,
          "internalType": "UFixed18",
          "name": "amount",
          "type": "uint256"
        }
      ],
      "name": "Withdraw",
      "type": "event"
    },
    {
      "anonymous": false,
      "inputs": [
        {
          "indexed": true,
          "internalType": "address",
          "name": "to",
          "type": "address"
        },
        {
          "indexed": false,
          "internalType": "UFixed18",
          "name": "amount",
          "type": "uint256"
        }
      ],
      "name": "Wrap",
      "type": "event"
    },
    {
      "inputs": [],
      "name": "DSU",
      "outputs": [
        {
          "internalType": "Token18",
          "name": "",
          "type": "address"
        }
      ],
      "stateMutability": "view",
      "type": "function"
    },
    {
      "inputs": [],
      "name": "RESERVE",
      "outputs": [
        {
          "internalType": "contract IEmptySetReserve",
          "name": "",
          "type": "address"
        }
      ],
      "stateMutability": "view",
      "type": "function"
    },
    {
      "inputs": [],
      "name": "USDC",
      "outputs": [
        {
          "internalType": "Token6",
          "name": "",
          "type": "address"
        }
      ],
      "stateMutability": "view",
      "type": "function"
    },
    {
      "inputs": [],
      "name": "acceptOwner",
      "outputs": [],
      "stateMutability": "nonpayable",
      "type": "function"
    },
    {
      "inputs": [
        {
          "internalType": "address",
          "name": "owner",
          "type": "address"
        },
        {
          "internalType": "address",
          "name": "spender",
          "type": "address"
        }
      ],
      "name": "allowance",
      "outputs": [
        {
          "internalType": "uint256",
          "name": "",
          "type": "uint256"
        }
      ],
      "stateMutability": "view",
      "type": "function"
    },
    {
      "inputs": [
        {
          "internalType": "address",
          "name": "spender",
          "type": "address"
        },
        {
          "internalType": "uint256",
          "name": "amount",
          "type": "uint256"
        }
      ],
      "name": "approve",
      "outputs": [
        {
          "internalType": "bool",
          "name": "",
          "type": "bool"
        }
      ],
      "stateMutability": "nonpayable",
      "type": "function"
    },
    {
      "inputs": [
        {
          "internalType": "address",
          "name": "account",
          "type": "address"
        }
      ],
      "name": "balanceOf",
      "outputs": [
        {
          "internalType": "uint256",
          "name": "",
          "type": "uint256"
        }
      ],
      "stateMutability": "view",
      "type": "function"
    },
    {
      "inputs": [],
      "name": "close",
      "outputs": [],
      "stateMutability": "nonpayable",
      "type": "function"
    },
    {
      "inputs": [],
      "name": "decimals",
      "outputs": [
        {
          "internalType": "uint8",
          "name": "",
          "type": "uint8"
        }
      ],
      "stateMutability": "view",
      "type": "function"
    },
    {
      "inputs": [
        {
          "internalType": "address",
          "name": "spender",
          "type": "address"
        },
        {
          "internalType": "uint256",
          "name": "subtractedValue",
          "type": "uint256"
        }
      ],
      "name": "decreaseAllowance",
      "outputs": [
        {
          "internalType": "bool",
          "name": "",
          "type": "bool"
        }
      ],
      "stateMutability": "nonpayable",
      "type": "function"
    },
    {
      "inputs": [
        {
          "internalType": "UFixed18",
          "name": "amount",
          "type": "uint256"
        }
      ],
      "name": "deposit",
      "outputs": [],
      "stateMutability": "nonpayable",
      "type": "function"
    },
    {
      "inputs": [
        {
          "internalType": "address",
          "name": "spender",
          "type": "address"
        },
        {
          "internalType": "uint256",
          "name": "addedValue",
          "type": "uint256"
        }
      ],
      "name": "increaseAllowance",
      "outputs": [
        {
          "internalType": "bool",
          "name": "",
          "type": "bool"
        }
      ],
      "stateMutability": "nonpayable",
      "type": "function"
    },
    {
      "inputs": [],
      "name": "name",
      "outputs": [
        {
          "internalType": "string",
          "name": "",
          "type": "string"
        }
      ],
      "stateMutability": "view",
      "type": "function"
    },
    {
      "inputs": [],
      "name": "owner",
      "outputs": [
        {
          "internalType": "address",
          "name": "",
          "type": "address"
        }
      ],
      "stateMutability": "view",
      "type": "function"
    },
    {
      "inputs": [],
      "name": "pendingOwner",
      "outputs": [
        {
          "internalType": "address",
          "name": "",
          "type": "address"
        }
      ],
      "stateMutability": "view",
      "type": "function"
    },
    {
      "inputs": [],
      "name": "rebalance",
      "outputs": [],
      "stateMutability": "nonpayable",
      "type": "function"
    },
    {
      "inputs": [],
      "name": "symbol",
      "outputs": [
        {
          "internalType": "string",
          "name": "",
          "type": "string"
        }
      ],
      "stateMutability": "view",
      "type": "function"
    },
    {
      "inputs": [],
      "name": "totalBalance",
      "outputs": [
        {
          "internalType": "UFixed18",
          "name": "",
          "type": "uint256"
        }
      ],
      "stateMutability": "view",
      "type": "function"
    },
    {
      "inputs": [],
      "name": "totalSupply",
      "outputs": [
        {
          "internalType": "uint256",
          "name": "",
          "type": "uint256"
        }
      ],
      "stateMutability": "view",
      "type": "function"
    },
    {
      "inputs": [
        {
          "internalType": "address",
          "name": "to",
          "type": "address"
        },
        {
          "internalType": "uint256",
          "name": "amount",
          "type": "uint256"
        }
      ],
      "name": "transfer",
      "outputs": [
        {
          "internalType": "bool",
          "name": "",
          "type": "bool"
        }
      ],
      "stateMutability": "nonpayable",
      "type": "function"
    },
    {
      "inputs": [
        {
          "internalType": "address",
          "name": "from",
          "type": "address"
        },
        {
          "internalType": "address",
          "name": "to",
          "type": "address"
        },
        {
          "internalType": "uint256",
          "name": "amount",
          "type": "uint256"
        }
      ],
      "name": "transferFrom",
      "outputs": [
        {
          "internalType": "bool",
          "name": "",
          "type": "bool"
        }
      ],
      "stateMutability": "nonpayable",
      "type": "function"
    },
    {
      "inputs": [
        {
          "internalType": "UFixed18",
          "name": "amount",
          "type": "uint256"
        },
        {
          "internalType": "address",
          "name": "to",
          "type": "address"
        }
      ],
      "name": "unwrap",
      "outputs": [],
      "stateMutability": "nonpayable",
      "type": "function"
    },
    {
      "inputs": [
        {
          "internalType": "address",
          "name": "newPendingOwner",
          "type": "address"
        }
      ],
      "name": "updatePendingOwner",
      "outputs": [],
      "stateMutability": "nonpayable",
      "type": "function"
    },
    {
      "inputs": [
        {
          "internalType": "UFixed18",
          "name": "amount",
          "type": "uint256"
        }
      ],
      "name": "withdraw",
      "outputs": [],
      "stateMutability": "nonpayable",
      "type": "function"
    },
    {
      "inputs": [
        {
          "internalType": "UFixed18",
          "name": "amount",
          "type": "uint256"
        },
        {
          "internalType": "address",
          "name": "to",
          "type": "address"
        }
      ],
      "name": "wrap",
      "outputs": [],
      "stateMutability": "nonpayable",
      "type": "function"
    }
  ],
  "transactionHash": "0x6ecfa5559892e108633a2436e224254f08796f6ec576a7c86a3796cefb0800ec",
  "args": [
    "0xD05aCe63789cCb35B9cE71d01e4d632a0486Da4B",
    "0x605D26FBd5be761089281d5cec2Ce86eeA667109",
    "0xA0b86991c6218b36c1d19D4a2e9Eb0cE3606eB48"
  ],
  "numDeployments": 1,
  "solcInputHash": "62a9b34cbe611ff71e4c0c87b96eb82b",
  "bytecode": "0x60e06040523480156200001157600080fd5b50604051620031f0380380620031f08339810160408190526200003491620006c4565b604080518082018252600f81526e10985d18da195c8811195c1bdcda5d608a1b602080830191909152825180840190935260048352630424445560e41b838201526001600160a01b03808716608081905281871660a081905291861660c052929392879287928792620000b092620010bf6200011a821b17901c565b620000d760805160c0516001600160a01b03166200011a60201b620010bf1790919060201c565b620000e162000145565b5060039150620000f490508382620007bc565b506004620001038282620007bc565b5062000111915050620001ab565b5050506200093f565b6200014181600019846001600160a01b03166200023f60201b62001104179092919060201c565b5050565b6200014f62000392565b1580156200017f57506200017d600080516020620031d0833981519152620003b060201b620013091760201c565b155b156200019e57604051631a27c4a960e21b815260040160405180910390fd5b620001a933620003b4565b565b620001b562000392565b158015620001e55750620001e3600080516020620031d0833981519152620003b060201b620013091760201c565b155b156200020457604051631a27c4a960e21b815260040160405180910390fd5b620001a960017f1b30fe15febd596dffd21d4da0657732eea42b4b5a9789e3e6daab3d570999d76200042560201b6200130d1790919060201c565b801580620002bd5750604051636eb1769f60e11b81523060048201526001600160a01b03838116602483015284169063dd62ed3e90604401602060405180830381865afa15801562000295573d6000803e3d6000fd5b505050506040513d601f19601f82011682018060405250810190620002bb919062000888565b155b620003355760405162461bcd60e51b815260206004820152603660248201527f5361666545524332303a20617070726f76652066726f6d206e6f6e2d7a65726f60448201527f20746f206e6f6e2d7a65726f20616c6c6f77616e63650000000000000000000060648201526084015b60405180910390fd5b604080516001600160a01b038416602482015260448082018490528251808303909101815260649091019091526020810180516001600160e01b0390811663095ea7b360e01b179091526200038d9185916200042916565b505050565b6000620003aa306200050760201b620013111760201c565b15905090565b5490565b620003ee817fd520c4fc3bfc097da8746a8578e9e0417f5acfdd84a1de38ed670148cc1a349d6200042560201b6200130d1790919060201c565b6040516001600160a01b038216907f4ffd725fc4a22075e9ec71c59edf9c38cdeb588a91b24fc5b61388c5be41282b90600090a250565b9055565b600062000485826040518060400160405280602081526020017f5361666545524332303a206c6f772d6c6576656c2063616c6c206661696c6564815250856001600160a01b03166200051660201b6200132d179092919060201c565b8051909150156200038d5780806020019051810190620004a69190620008a2565b6200038d5760405162461bcd60e51b815260206004820152602a60248201527f5361666545524332303a204552433230206f7065726174696f6e20646964206e6044820152691bdd081cdd58d8d9595960b21b60648201526084016200032c565b6001600160a01b03163b151590565b606062000527848460008562000531565b90505b9392505050565b606082471015620005945760405162461bcd60e51b815260206004820152602660248201527f416464726573733a20696e73756666696369656e742062616c616e636520666f6044820152651c8818d85b1b60d21b60648201526084016200032c565b6001600160a01b0385163b620005ed5760405162461bcd60e51b815260206004820152601d60248201527f416464726573733a2063616c6c20746f206e6f6e2d636f6e747261637400000060448201526064016200032c565b600080866001600160a01b031685876040516200060b9190620008ec565b60006040518083038185875af1925050503d80600081146200064a576040519150601f19603f3d011682016040523d82523d6000602084013e6200064f565b606091505b509092509050620006628282866200066d565b979650505050505050565b606083156200067e5750816200052a565b8251156200068f5782518084602001fd5b8160405162461bcd60e51b81526004016200032c91906200090a565b6001600160a01b0381168114620006c157600080fd5b50565b600080600060608486031215620006da57600080fd5b8351620006e781620006ab565b6020850151909350620006fa81620006ab565b60408501519092506200070d81620006ab565b809150509250925092565b634e487b7160e01b600052604160045260246000fd5b600181811c908216806200074357607f821691505b6020821081036200076457634e487b7160e01b600052602260045260246000fd5b50919050565b601f8211156200038d57600081815260208120601f850160051c81016020861015620007935750805b601f850160051c820191505b81811015620007b4578281556001016200079f565b505050505050565b81516001600160401b03811115620007d857620007d862000718565b620007f081620007e984546200072e565b846200076a565b602080601f8311600181146200082857600084156200080f5750858301515b600019600386901b1c1916600185901b178555620007b4565b600085815260208120601f198616915b82811015620008595788860151825594840194600190910190840162000838565b5085821015620008785787850151600019600388901b60f8161c191681555b5050505050600190811b01905550565b6000602082840312156200089b57600080fd5b5051919050565b600060208284031215620008b557600080fd5b815180151581146200052a57600080fd5b60005b83811015620008e3578181015183820152602001620008c9565b50506000910152565b6000825162000900818460208701620008c6565b9190910192915050565b60208152600082518060208401526200092b816040850160208701620008c6565b601f01601f19169190910160400192915050565b60805160a05160c0516127e3620009ed600039600081816102b60152818161062d015281816109e101528181610a9a01528181610d7901528181610fa6015281816115110152611bbe0152600081816103390152818161076401528181610ad901528181610b2801528181610db8015281816115540152611b7d015260008181610312015281816107eb015281816108a20152818161094e01528181611c390152611cdd01526127e36000f3fe608060405234801561001057600080fd5b50600436106101a35760003560e01c806389a30271116100ee578063a9059cbb11610097578063b6b55f2511610071578063b6b55f251461039c578063dd62ed3e146103af578063e30c3978146103f5578063ebbc4965146103fd57600080fd5b8063a9059cbb1461036e578063ad7a672f14610381578063b5ee69551461038957600080fd5b80639d2cc436116100c85780639d2cc4361461030d578063a2060bcf14610334578063a457c2d71461035b57600080fd5b806389a30271146102b15780638da5cb5b146102fd57806395d89b411461030557600080fd5b8063313ce5671161015057806370a082311161012a57806370a08231146102605780637647691d146102965780637d7c2a1c146102a957600080fd5b8063313ce56714610236578063395093511461024557806343d726d61461025857600080fd5b806318160ddd1161018157806318160ddd146101fe57806323b872dd146102105780632e1a7d4d1461022357600080fd5b806306fdde03146101a8578063095ea7b3146101c657806313bac820146101e9575b600080fd5b6101b0610405565b6040516101bd91906124d6565b60405180910390f35b6101d96101d4366004612550565b610497565b60405190151581526020016101bd565b6101fc6101f736600461257a565b6104b1565b005b6002545b6040519081526020016101bd565b6101d961021e3660046125a6565b61050f565b6101fc6102313660046125e2565b610535565b604051601281526020016101bd565b6101d9610253366004612550565b6106b1565b6101fc6106fd565b61020261026e3660046125fb565b73ffffffffffffffffffffffffffffffffffffffff1660009081526020819052604090205490565b6101fc6102a436600461257a565b610a40565b6101fc610a92565b6102d87f000000000000000000000000000000000000000000000000000000000000000081565b60405173ffffffffffffffffffffffffffffffffffffffff90911681526020016101bd565b6102d8610c47565b6101b0610c76565b6102d87f000000000000000000000000000000000000000000000000000000000000000081565b6102d87f000000000000000000000000000000000000000000000000000000000000000081565b6101d9610369366004612550565b610c85565b6101d961037c366004612550565b610d61565b610202610d6f565b6101fc6103973660046125fb565b610df8565b6101fc6103aa3660046125e2565b610ebd565b6102026103bd366004612616565b73ffffffffffffffffffffffffffffffffffffffff918216600090815260016020908152604080832093909416825291909152205490565b6102d861100b565b6101fc611035565b60606003805461041490612640565b80601f016020809104026020016040519081016040528092919081815260200182805461044090612640565b801561048d5780601f106104625761010080835404028352916020019161048d565b820191906000526020600020905b81548152906001019060200180831161047057829003601f168201915b5050505050905090565b6000336104a5818585611344565b60019150505b92915050565b6104bb82826114f7565b8073ffffffffffffffffffffffffffffffffffffffff167fb61d00fdfee32467c7d81db64c811ae60c104c346debf36a14afe84b8fce59e58360405161050391815260200190565b60405180910390a25050565b60003361051d85828561157b565b610528858585611652565b60019150505b9392505050565b600261055f7f1b30fe15febd596dffd21d4da0657732eea42b4b5a9789e3e6daab3d570999d75490565b03610596576040517ff320323600000000000000000000000000000000000000000000000000000000815260040160405180910390fd5b60027f1b30fe15febd596dffd21d4da0657732eea42b4b5a9789e3e6daab3d570999d7556105c381611905565b610601576040517fbfae1872000000000000000000000000000000000000000000000000000000008152600481018290526024015b60405180910390fd5b610609610a92565b610613338261191d565b61065473ffffffffffffffffffffffffffffffffffffffff7f0000000000000000000000000000000000000000000000000000000000000000163383611b0a565b60405181815233907f884edad9ce6fa2440d8a54cc123490eb96d2768479d49ff9c7366125a9424364906020015b60405180910390a260017f1b30fe15febd596dffd21d4da0657732eea42b4b5a9789e3e6daab3d570999d75550565b33600081815260016020908152604080832073ffffffffffffffffffffffffffffffffffffffff871684529091528120549091906104a590829086906106f89087906126c2565b611344565b33610706610c47565b73ffffffffffffffffffffffffffffffffffffffff1614610755576040517f9950d22a0000000000000000000000000000000000000000000000000000000081523360048201526024016105f8565b61075d611b37565b600061079e7f000000000000000000000000000000000000000000000000000000000000000073ffffffffffffffffffffffffffffffffffffffff16611b3f565b6040517f9b6c56ec00000000000000000000000000000000000000000000000000000000815230600482015290915060009061085c9073ffffffffffffffffffffffffffffffffffffffff7f00000000000000000000000000000000000000000000000000000000000000001690639b6c56ec90602401602060405180830381865afa158015610832573d6000803e3d6000fd5b505050506040513d601f19601f8201168201806040525081019061085691906126d5565b83611b4b565b9050600061086a8383611b57565b6040517f22867d78000000000000000000000000000000000000000000000000000000008152306004820152602481018490529091507f000000000000000000000000000000000000000000000000000000000000000073ffffffffffffffffffffffffffffffffffffffff16906322867d7890604401600060405180830381600087803b1580156108fb57600080fd5b505af115801561090f573d6000803e3d6000fd5b5050505061091b811590565b610a08576040517fdb006a75000000000000000000000000000000000000000000000000000000008152600481018290527f000000000000000000000000000000000000000000000000000000000000000073ffffffffffffffffffffffffffffffffffffffff169063db006a7590602401600060405180830381600087803b1580156109a757600080fd5b505af11580156109bb573d6000803e3d6000fd5b50505050610a086109ca610c47565b73ffffffffffffffffffffffffffffffffffffffff7f0000000000000000000000000000000000000000000000000000000000000000169083611b0a565b6040518381527fbf67515a38ee520223d32c1266d52101c30d936ed1f3e436c8caeb0a43cb06bf9060200160405180910390a1505050565b610a4a8282611b63565b8073ffffffffffffffffffffffffffffffffffffffff167f5dd085b6070b4cae004f84daafd199fd55b0bdfa11c3a802baffe89c2419d8c28360405161050391815260200190565b600080610ad47f000000000000000000000000000000000000000000000000000000000000000073ffffffffffffffffffffffffffffffffffffffff16611be5565b610b137f000000000000000000000000000000000000000000000000000000000000000073ffffffffffffffffffffffffffffffffffffffff16611b3f565b91509150610b218282611bf1565b6000610b627f000000000000000000000000000000000000000000000000000000000000000073ffffffffffffffffffffffffffffffffffffffff16611b3f565b9050600080610b718585611d0c565b610b79610d6f565b9092509050610b888282611d18565b15610bc9576040517fa4840ff900000000000000000000000000000000000000000000000000000000815260048101839052602481018290526044016105f8565b7f0b33d39bbef101ecc4f5ef04e6d3a125c9fb745a418dac380e2a9460f8200dc8610bf48486611d18565b610bff576000610c09565b610c098486611b57565b610c138686611d18565b610c1e576000610c28565b610c288686611b57565b6040805192835260208301919091520160405180910390a15050505050565b6000610c717fd520c4fc3bfc097da8746a8578e9e0417f5acfdd84a1de38ed670148cc1a349d5490565b905090565b60606004805461041490612640565b33600081815260016020908152604080832073ffffffffffffffffffffffffffffffffffffffff8716845290915281205490919083811015610d49576040517f08c379a000000000000000000000000000000000000000000000000000000000815260206004820152602560248201527f45524332303a2064656372656173656420616c6c6f77616e63652062656c6f7760448201527f207a65726f00000000000000000000000000000000000000000000000000000060648201526084016105f8565b610d568286868403611344565b506001949350505050565b6000336104a5818585611652565b6000610c71610db37f000000000000000000000000000000000000000000000000000000000000000073ffffffffffffffffffffffffffffffffffffffff16611be5565b610df27f000000000000000000000000000000000000000000000000000000000000000073ffffffffffffffffffffffffffffffffffffffff16611b3f565b90611d0c565b33610e01610c47565b73ffffffffffffffffffffffffffffffffffffffff1614610e50576040517f9950d22a0000000000000000000000000000000000000000000000000000000081523360048201526024016105f8565b610e797faabf80d370e1f8b862122cc5c4b30b4a8eb2d6b5dda0d437726c353765e1ed32829055565b60405173ffffffffffffffffffffffffffffffffffffffff8216907f69f201bc2089b9be6195d876d97a0136b4cf56bbf8986a52dcb50697f7d1cac590600090a250565b6002610ee77f1b30fe15febd596dffd21d4da0657732eea42b4b5a9789e3e6daab3d570999d75490565b03610f1e576040517ff320323600000000000000000000000000000000000000000000000000000000815260040160405180910390fd5b60027f1b30fe15febd596dffd21d4da0657732eea42b4b5a9789e3e6daab3d570999d755610f4b81611905565b610f84576040517fbfae1872000000000000000000000000000000000000000000000000000000008152600481018290526024016105f8565b610f8c610a92565b610fcf73ffffffffffffffffffffffffffffffffffffffff7f00000000000000000000000000000000000000000000000000000000000000001633836001611d2e565b610fd93382611d5c565b60405181815233907fe1fffcc4923d04b559f4d29a8bfc6cda04eb5b0d3c460751c2402c5c5cc9109c90602001610682565b6000610c717faabf80d370e1f8b862122cc5c4b30b4a8eb2d6b5dda0d437726c353765e1ed325490565b61103d61100b565b73ffffffffffffffffffffffffffffffffffffffff163373ffffffffffffffffffffffffffffffffffffffff16146110a3576040517f14f8fce70000000000000000000000000000000000000000000000000000000081523360048201526024016105f8565b6110b36110ae61100b565b611e7c565b6110bd6000610df8565b565b61110073ffffffffffffffffffffffffffffffffffffffff8316827fffffffffffffffffffffffffffffffffffffffffffffffffffffffffffffffff611104565b5050565b8015806111a457506040517fdd62ed3e00000000000000000000000000000000000000000000000000000000815230600482015273ffffffffffffffffffffffffffffffffffffffff838116602483015284169063dd62ed3e90604401602060405180830381865afa15801561117e573d6000803e3d6000fd5b505050506040513d601f19601f820116820180604052508101906111a291906126d5565b155b611230576040517f08c379a000000000000000000000000000000000000000000000000000000000815260206004820152603660248201527f5361666545524332303a20617070726f76652066726f6d206e6f6e2d7a65726f60448201527f20746f206e6f6e2d7a65726f20616c6c6f77616e63650000000000000000000060648201526084016105f8565b60405173ffffffffffffffffffffffffffffffffffffffff83166024820152604481018290526113049084907f095ea7b300000000000000000000000000000000000000000000000000000000906064015b604080517fffffffffffffffffffffffffffffffffffffffffffffffffffffffffffffffe08184030181529190526020810180517bffffffffffffffffffffffffffffffffffffffffffffffffffffffff167fffffffff0000000000000000000000000000000000000000000000000000000090931692909217909152611ee9565b505050565b5490565b9055565b73ffffffffffffffffffffffffffffffffffffffff163b151590565b606061133c8484600085611ff5565b949350505050565b73ffffffffffffffffffffffffffffffffffffffff83166113e6576040517f08c379a0000000000000000000000000000000000000000000000000000000008152602060048201526024808201527f45524332303a20617070726f76652066726f6d20746865207a65726f2061646460448201527f726573730000000000000000000000000000000000000000000000000000000060648201526084016105f8565b73ffffffffffffffffffffffffffffffffffffffff8216611489576040517f08c379a000000000000000000000000000000000000000000000000000000000815260206004820152602260248201527f45524332303a20617070726f766520746f20746865207a65726f20616464726560448201527f737300000000000000000000000000000000000000000000000000000000000060648201526084016105f8565b73ffffffffffffffffffffffffffffffffffffffff83811660008181526001602090815260408083209487168084529482529182902085905590518481527f8c5be1e5ebec7d5bd14f71427d1e84f3dd0314c0f7b2291e5b200ac8c7c3b925910160405180910390a3505050565b61153a73ffffffffffffffffffffffffffffffffffffffff7f00000000000000000000000000000000000000000000000000000000000000001633846001611d2e565b61110073ffffffffffffffffffffffffffffffffffffffff7f000000000000000000000000000000000000000000000000000000000000000016828461218b565b73ffffffffffffffffffffffffffffffffffffffff8381166000908152600160209081526040808320938616835292905220547fffffffffffffffffffffffffffffffffffffffffffffffffffffffffffffffff811461164c578181101561163f576040517f08c379a000000000000000000000000000000000000000000000000000000000815260206004820152601d60248201527f45524332303a20696e73756666696369656e7420616c6c6f77616e636500000060448201526064016105f8565b61164c8484848403611344565b50505050565b73ffffffffffffffffffffffffffffffffffffffff83166116f5576040517f08c379a000000000000000000000000000000000000000000000000000000000815260206004820152602560248201527f45524332303a207472616e736665722066726f6d20746865207a65726f20616460448201527f647265737300000000000000000000000000000000000000000000000000000060648201526084016105f8565b73ffffffffffffffffffffffffffffffffffffffff8216611798576040517f08c379a000000000000000000000000000000000000000000000000000000000815260206004820152602360248201527f45524332303a207472616e7366657220746f20746865207a65726f206164647260448201527f657373000000000000000000000000000000000000000000000000000000000060648201526084016105f8565b73ffffffffffffffffffffffffffffffffffffffff83166000908152602081905260409020548181101561184e576040517f08c379a000000000000000000000000000000000000000000000000000000000815260206004820152602660248201527f45524332303a207472616e7366657220616d6f756e742065786365656473206260448201527f616c616e6365000000000000000000000000000000000000000000000000000060648201526084016105f8565b73ffffffffffffffffffffffffffffffffffffffff8085166000908152602081905260408082208585039055918516815290812080548492906118929084906126c2565b925050819055508273ffffffffffffffffffffffffffffffffffffffff168473ffffffffffffffffffffffffffffffffffffffff167fddf252ad1be2c89b69c2b068fc378daa952ba7f163c4a11628f55a4df523b3ef846040516118f891815260200190565b60405180910390a361164c565b600061191664e8d4a510008361271d565b1592915050565b73ffffffffffffffffffffffffffffffffffffffff82166119c0576040517f08c379a000000000000000000000000000000000000000000000000000000000815260206004820152602160248201527f45524332303a206275726e2066726f6d20746865207a65726f2061646472657360448201527f730000000000000000000000000000000000000000000000000000000000000060648201526084016105f8565b73ffffffffffffffffffffffffffffffffffffffff821660009081526020819052604090205481811015611a76576040517f08c379a000000000000000000000000000000000000000000000000000000000815260206004820152602260248201527f45524332303a206275726e20616d6f756e7420657863656564732062616c616e60448201527f636500000000000000000000000000000000000000000000000000000000000060648201526084016105f8565b73ffffffffffffffffffffffffffffffffffffffff83166000908152602081905260408120838303905560028054849290611ab2908490612731565b909155505060405182815260009073ffffffffffffffffffffffffffffffffffffffff8516907fddf252ad1be2c89b69c2b068fc378daa952ba7f163c4a11628f55a4df523b3ef9060200160405180910390a3505050565b61130482611b198360006121ac565b73ffffffffffffffffffffffffffffffffffffffff861691906121d6565b6110bd610a92565b60006104ab823061222c565b600061052e83836122c0565b600061052e8284612731565b611ba473ffffffffffffffffffffffffffffffffffffffff7f00000000000000000000000000000000000000000000000000000000000000001633846122d6565b61110073ffffffffffffffffffffffffffffffffffffffff7f0000000000000000000000000000000000000000000000000000000000000000168284611b0a565b60006104ab82306122f8565b6000611bfc60025490565b90506000611c0a8483612394565b905080600103611c1a5750505050565b80600203611cbe5773ffffffffffffffffffffffffffffffffffffffff7f00000000000000000000000000000000000000000000000000000000000000001663a0712d68611c688685611b57565b6040518263ffffffff1660e01b8152600401611c8691815260200190565b600060405180830381600087803b158015611ca057600080fd5b505af1158015611cb4573d6000803e3d6000fd5b5050505050505050565b8060000361164c5773ffffffffffffffffffffffffffffffffffffffff7f00000000000000000000000000000000000000000000000000000000000000001663db006a75611c688487611b57565b600061052e82846126c2565b6000611d248383612394565b6002149392505050565b61164c8330611d3d85856121ac565b73ffffffffffffffffffffffffffffffffffffffff88169291906123be565b73ffffffffffffffffffffffffffffffffffffffff8216611dd9576040517f08c379a000000000000000000000000000000000000000000000000000000000815260206004820152601f60248201527f45524332303a206d696e7420746f20746865207a65726f20616464726573730060448201526064016105f8565b8060026000828254611deb91906126c2565b909155505073ffffffffffffffffffffffffffffffffffffffff821660009081526020819052604081208054839290611e259084906126c2565b909155505060405181815273ffffffffffffffffffffffffffffffffffffffff8316906000907fddf252ad1be2c89b69c2b068fc378daa952ba7f163c4a11628f55a4df523b3ef9060200160405180910390a35050565b611ea57fd520c4fc3bfc097da8746a8578e9e0417f5acfdd84a1de38ed670148cc1a349d829055565b60405173ffffffffffffffffffffffffffffffffffffffff8216907f4ffd725fc4a22075e9ec71c59edf9c38cdeb588a91b24fc5b61388c5be41282b90600090a250565b6000611f4b826040518060400160405280602081526020017f5361666545524332303a206c6f772d6c6576656c2063616c6c206661696c65648152508573ffffffffffffffffffffffffffffffffffffffff1661132d9092919063ffffffff16565b8051909150156113045780806020019051810190611f699190612744565b611304576040517f08c379a000000000000000000000000000000000000000000000000000000000815260206004820152602a60248201527f5361666545524332303a204552433230206f7065726174696f6e20646964206e60448201527f6f7420737563636565640000000000000000000000000000000000000000000060648201526084016105f8565b606082471015612087576040517f08c379a000000000000000000000000000000000000000000000000000000000815260206004820152602660248201527f416464726573733a20696e73756666696369656e742062616c616e636520666f60448201527f722063616c6c000000000000000000000000000000000000000000000000000060648201526084016105f8565b73ffffffffffffffffffffffffffffffffffffffff85163b612105576040517f08c379a000000000000000000000000000000000000000000000000000000000815260206004820152601d60248201527f416464726573733a2063616c6c20746f206e6f6e2d636f6e747261637400000060448201526064016105f8565b6000808673ffffffffffffffffffffffffffffffffffffffff16858760405161212e9190612766565b60006040518083038185875af1925050503d806000811461216b576040519150601f19603f3d011682016040523d82523d6000602084013e612170565b606091505b509150915061218082828661241c565b979650505050505050565b61130473ffffffffffffffffffffffffffffffffffffffff841683836121d6565b6000816121c7576121c264e8d4a5100084612782565b61052e565b61052e8364e8d4a5100061246f565b60405173ffffffffffffffffffffffffffffffffffffffff83166024820152604481018290526113049084907fa9059cbb0000000000000000000000000000000000000000000000000000000090606401611282565b6040517f70a0823100000000000000000000000000000000000000000000000000000000815273ffffffffffffffffffffffffffffffffffffffff8281166004830152600091908416906370a0823190602401602060405180830381865afa15801561229c573d6000803e3d6000fd5b505050506040513d601f19601f8201168201806040525081019061052e91906126d5565b60008183106122cf578161052e565b5090919050565b61130473ffffffffffffffffffffffffffffffffffffffff84168330846123be565b6040517f70a0823100000000000000000000000000000000000000000000000000000000815273ffffffffffffffffffffffffffffffffffffffff828116600483015260009161052e918516906370a0823190602401602060405180830381865afa15801561236b573d6000803e3d6000fd5b505050506040513d601f19601f8201168201806040525081019061238f91906126d5565b6124a1565b60008282808211156123ab576002925050506104ab565b80821015610d56576000925050506104ab565b60405173ffffffffffffffffffffffffffffffffffffffff8085166024830152831660448201526064810182905261164c9085907f23b872dd0000000000000000000000000000000000000000000000000000000090608401611282565b6060831561242b57508161052e565b82511561243b5782518084602001fd5b816040517f08c379a00000000000000000000000000000000000000000000000000000000081526004016105f891906124d6565b600061247b828461271d565b1561248757600161248a565b60005b60ff166124978385612782565b61052e91906126c2565b60006104ab64e8d4a5100083612796565b60005b838110156124cd5781810151838201526020016124b5565b50506000910152565b60208152600082518060208401526124f58160408501602087016124b2565b601f017fffffffffffffffffffffffffffffffffffffffffffffffffffffffffffffffe0169190910160400192915050565b803573ffffffffffffffffffffffffffffffffffffffff8116811461254b57600080fd5b919050565b6000806040838503121561256357600080fd5b61256c83612527565b946020939093013593505050565b6000806040838503121561258d57600080fd5b8235915061259d60208401612527565b90509250929050565b6000806000606084860312156125bb57600080fd5b6125c484612527565b92506125d260208501612527565b9150604084013590509250925092565b6000602082840312156125f457600080fd5b5035919050565b60006020828403121561260d57600080fd5b61052e82612527565b6000806040838503121561262957600080fd5b61263283612527565b915061259d60208401612527565b600181811c9082168061265457607f821691505b60208210810361268d577f4e487b7100000000000000000000000000000000000000000000000000000000600052602260045260246000fd5b50919050565b7f4e487b7100000000000000000000000000000000000000000000000000000000600052601160045260246000fd5b808201808211156104ab576104ab612693565b6000602082840312156126e757600080fd5b5051919050565b7f4e487b7100000000000000000000000000000000000000000000000000000000600052601260045260246000fd5b60008261272c5761272c6126ee565b500690565b818103818111156104ab576104ab612693565b60006020828403121561275657600080fd5b8151801515811461052e57600080fd5b600082516127788184602087016124b2565b9190910192915050565b600082612791576127916126ee565b500490565b80820281158282048414176104ab576104ab61269356fea2646970667358221220a556fb35975450efe39f9db04b9e755789c41b1914ee0c4d211a6d5253b1966a64736f6c63430008110033ad57d7911b7e3d6c3c79a68ba909a7f4ba41f9485e5207b12dee0d0c6af5398c",
  "devdoc": {
    "kind": "dev",
    "methods": {
      "acceptOwner()": {
        "details": "Can only be called by the pending owner to ensure correctness"
      },
      "allowance(address,address)": {
        "details": "See {IERC20-allowance}."
      },
      "approve(address,uint256)": {
        "details": "See {IERC20-approve}. NOTE: If `amount` is the maximum `uint256`, the allowance is not updated on `transferFrom`. This is semantically equivalent to an infinite approval. Requirements: - `spender` cannot be the zero address."
      },
      "balanceOf(address)": {
        "details": "See {IERC20-balanceOf}."
      },
      "constructor": {
        "details": "Called at implementation instantiate and constant for that implementation.",
        "params": {
          "dsu": "DSU Token address",
          "reserve": "EmptySet Reserve Aaddress",
          "usdc": "USDC Token Address"
        }
      },
      "decimals()": {
        "details": "Returns the number of decimals used to get its user representation. For example, if `decimals` equals `2`, a balance of `505` tokens should be displayed to a user as `5.05` (`505 / 10 ** 2`). Tokens usually opt for a value of 18, imitating the relationship between Ether and Wei. This is the value {ERC20} uses, unless this function is overridden; NOTE: This information is only used for _display_ purposes: it in no way affects any of the arithmetic of the contract, including {IERC20-balanceOf} and {IERC20-transfer}."
      },
      "decreaseAllowance(address,uint256)": {
        "details": "Atomically decreases the allowance granted to `spender` by the caller. This is an alternative to {approve} that can be used as a mitigation for problems described in {IERC20-approve}. Emits an {Approval} event indicating the updated allowance. Requirements: - `spender` cannot be the zero address. - `spender` must have allowance for the caller of at least `subtractedValue`."
      },
      "deposit(uint256)": {
        "details": "Reverts if `amount` has greater precision than 6 decimals",
        "params": {
          "amount": "Amount of USDC to deposit"
        }
      },
      "increaseAllowance(address,uint256)": {
        "details": "Atomically increases the allowance granted to `spender` by the caller. This is an alternative to {approve} that can be used as a mitigation for problems described in {IERC20-approve}. Emits an {Approval} event indicating the updated allowance. Requirements: - `spender` cannot be the zero address."
      },
      "name()": {
        "details": "Returns the name of the token."
      },
      "rebalance()": {
        "details": "Reverts if the new total balance is less than before"
      },
      "symbol()": {
        "details": "Returns the symbol of the token, usually a shorter version of the name."
      },
      "totalBalance()": {
        "returns": {
          "_0": "Balance of DSU + balance of USDC"
        }
      },
      "totalSupply()": {
        "details": "See {IERC20-totalSupply}."
      },
      "transfer(address,uint256)": {
        "details": "See {IERC20-transfer}. Requirements: - `to` cannot be the zero address. - the caller must have a balance of at least `amount`."
      },
      "transferFrom(address,address,uint256)": {
        "details": "See {IERC20-transferFrom}. Emits an {Approval} event indicating the updated allowance. This is not required by the EIP. See the note at the beginning of {ERC20}. NOTE: Does not update the allowance if the current allowance is the maximum `uint256`. Requirements: - `from` and `to` cannot be the zero address. - `from` must have a balance of at least `amount`. - the caller must have allowance for ``from``'s tokens of at least `amount`."
      },
      "unwrap(uint256,address)": {
        "params": {
          "amount": "Amount of DSU to unwrap",
          "to": "Receiving address of resulting USDC"
        }
      },
      "updatePendingOwner(address)": {
        "details": "Can only be called by the current owner      New owner does not take affect until that address calls `acceptOwner()`",
        "params": {
          "newPendingOwner": "New pending owner address"
        }
      },
      "withdraw(uint256)": {
        "details": "Reverts if `amount` has greater precision than 6 decimals",
        "params": {
          "amount": "Amount of USDC to withdraw"
        }
      },
      "wrap(uint256,address)": {
        "params": {
          "amount": "Amount of USDC to wrap",
          "to": "Receiving address of resulting DSU"
        }
      }
    },
    "version": 1
  },
  "userdoc": {
    "errors": {
      "TwoWayBatcherInvalidTokenAmount(uint256)": [
        {
          "notice": "Error thrown on invalid USDC amount"
        }
      ]
    },
    "events": {
      "Deposit(address,uint256)": {
        "notice": "Event emitted on USDC deposit"
      },
      "Withdraw(address,uint256)": {
        "notice": "Event emitted on USDC withdraw"
      }
    },
    "kind": "user",
    "methods": {
      "acceptOwner()": {
        "notice": "Accepts and transfers the ownership of the contract to the pending owner"
      },
      "close()": {
        "notice": "Closes the Batcher. Repaying debt to Reserve and returning excess USDC to owner."
      },
      "constructor": {
        "notice": "Initializes the TwoWayBatcher"
      },
      "deposit(uint256)": {
        "notice": "Deposits USDC for Batcher to use in unwrapping flows"
      },
      "rebalance()": {
        "notice": "Rebalances the USDC and DSU in the Batcher to maintain target balances"
      },
      "totalBalance()": {
        "notice": "Total USDC and DSU balance of the Batcher"
      },
      "unwrap(uint256,address)": {
        "notice": "Unwraps `amount` of DSU, returned USDC to `to`"
      },
      "updatePendingOwner(address)": {
        "notice": "Updates the new pending owner"
      },
      "withdraw(uint256)": {
        "notice": "Withdraws USDC from Batcher"
      },
      "wrap(uint256,address)": {
        "notice": "Wraps `amount` of USDC, returned DSU to `to`"
      }
    },
    "version": 1
  },
  "storageLayout": {
    "storage": [
      {
        "astId": 2859,
        "contract": "contracts/batcher/TwoWayBatcher.sol:TwoWayBatcher",
        "label": "_balances",
        "offset": 0,
        "slot": "0",
        "type": "t_mapping(t_address,t_uint256)"
      },
      {
        "astId": 2865,
        "contract": "contracts/batcher/TwoWayBatcher.sol:TwoWayBatcher",
        "label": "_allowances",
        "offset": 0,
        "slot": "1",
        "type": "t_mapping(t_address,t_mapping(t_address,t_uint256))"
      },
      {
        "astId": 2867,
        "contract": "contracts/batcher/TwoWayBatcher.sol:TwoWayBatcher",
        "label": "_totalSupply",
        "offset": 0,
        "slot": "2",
        "type": "t_uint256"
      },
      {
        "astId": 2869,
        "contract": "contracts/batcher/TwoWayBatcher.sol:TwoWayBatcher",
        "label": "_name",
        "offset": 0,
        "slot": "3",
        "type": "t_string_storage"
      },
      {
        "astId": 2871,
        "contract": "contracts/batcher/TwoWayBatcher.sol:TwoWayBatcher",
        "label": "_symbol",
        "offset": 0,
        "slot": "4",
        "type": "t_string_storage"
      }
    ],
    "types": {
      "t_address": {
        "encoding": "inplace",
        "label": "address",
        "numberOfBytes": "20"
      },
      "t_mapping(t_address,t_mapping(t_address,t_uint256))": {
        "encoding": "mapping",
        "key": "t_address",
        "label": "mapping(address => mapping(address => uint256))",
        "numberOfBytes": "32",
        "value": "t_mapping(t_address,t_uint256)"
      },
      "t_mapping(t_address,t_uint256)": {
        "encoding": "mapping",
        "key": "t_address",
        "label": "mapping(address => uint256)",
        "numberOfBytes": "32",
        "value": "t_uint256"
      },
      "t_string_storage": {
        "encoding": "bytes",
        "label": "string",
        "numberOfBytes": "32"
      },
      "t_uint256": {
        "encoding": "inplace",
        "label": "uint256",
        "numberOfBytes": "32"
      }
    }
  }
}