{
  "address": "0x5B540290bAEdDaa5266d071113EB1A44FC9Ca853",
  "abi": [
    {
      "inputs": [
        {
          "internalType": "ChainlinkRegistry",
          "name": "registry_",
          "type": "address"
        },
        {
          "internalType": "address",
          "name": "base_",
          "type": "address"
        },
        {
          "internalType": "address",
          "name": "quote_",
          "type": "address"
        }
      ],
      "stateMutability": "nonpayable",
      "type": "constructor"
    },
    {
      "inputs": [
        {
          "internalType": "uint256",
          "name": "version",
          "type": "uint256"
        }
      ],
      "name": "atVersion",
      "outputs": [
        {
          "components": [
            {
              "internalType": "uint256",
              "name": "version",
              "type": "uint256"
            },
            {
              "internalType": "uint256",
              "name": "timestamp",
              "type": "uint256"
            },
            {
              "internalType": "Fixed18",
              "name": "price",
              "type": "int256"
            }
          ],
          "internalType": "struct IOracleProvider.OracleVersion",
          "name": "oracleVersion",
          "type": "tuple"
        }
      ],
      "stateMutability": "view",
      "type": "function"
    },
    {
      "inputs": [],
      "name": "base",
      "outputs": [
        {
          "internalType": "address",
          "name": "",
          "type": "address"
        }
      ],
      "stateMutability": "view",
      "type": "function"
    },
    {
      "inputs": [],
      "name": "currentVersion",
      "outputs": [
        {
          "components": [
            {
              "internalType": "uint256",
              "name": "version",
              "type": "uint256"
            },
            {
              "internalType": "uint256",
              "name": "timestamp",
              "type": "uint256"
            },
            {
              "internalType": "Fixed18",
              "name": "price",
              "type": "int256"
            }
          ],
          "internalType": "struct IOracleProvider.OracleVersion",
          "name": "oracleVersion",
          "type": "tuple"
        }
      ],
      "stateMutability": "view",
      "type": "function"
    },
    {
      "inputs": [],
      "name": "quote",
      "outputs": [
        {
          "internalType": "address",
          "name": "",
          "type": "address"
        }
      ],
      "stateMutability": "view",
      "type": "function"
    },
    {
      "inputs": [],
      "name": "registry",
      "outputs": [
        {
          "internalType": "ChainlinkRegistry",
          "name": "",
          "type": "address"
        }
      ],
      "stateMutability": "view",
      "type": "function"
    },
    {
      "inputs": [],
      "name": "sync",
      "outputs": [
        {
          "components": [
            {
              "internalType": "uint256",
              "name": "version",
              "type": "uint256"
            },
            {
              "internalType": "uint256",
              "name": "timestamp",
              "type": "uint256"
            },
            {
              "internalType": "Fixed18",
              "name": "price",
              "type": "int256"
            }
          ],
          "internalType": "struct IOracleProvider.OracleVersion",
          "name": "",
          "type": "tuple"
        }
      ],
      "stateMutability": "nonpayable",
      "type": "function"
    }
  ],
  "transactionHash": "0xbe4fe8d2ae144ff066a5d3e868bfa69b62b9ed4bddd71cb0079d60c1d92ac028",
  "args": [
    "0xAa7F6f7f507457a1EE157fE97F6c7DB2BEec5cD0",
    "0xEeeeeEeeeEeEeeEeEeEeeEEEeeeeEeeeeeeeEEeE",
    "0x0000000000000000000000000000000000000348"
  ],
  "numDeployments": 1,
  "solcInputHash": "04cc164af9f8c2ea4699abe86595d6fd",
  "bytecode": "0x6101006040523480156200001257600080fd5b5060405162001421380380620014218339810160408190526200003591620001e8565b6001600160a01b03838116608081905283821660a081905291831660c081905260008054600180820183558280527f290decd9548b62a8d60345a988386fc84ba6bc95484008f6362f93160ef3e563918201839055825490810183550155620000ce92620000b09291620000db602090811b6200048417901c565b620000bd90600a62000351565b6200015c60201b620005281760201c565b60e052506200038e915050565b604051630b1c5a7560e31b81526001600160a01b0383811660048301528281166024830152600091908516906358e2d3a890604401602060405180830381865afa1580156200012e573d6000803e3d6000fd5b505050506040513d601f19601f8201168201806040525081019062000154919062000369565b949350505050565b60006001600160ff1b03821115620001cb5760405162461bcd60e51b815260206004820152602860248201527f53616665436173743a2076616c756520646f65736e27742066697420696e2061604482015267371034b73a191a9b60c11b606482015260840160405180910390fd5b5090565b6001600160a01b0381168114620001e557600080fd5b50565b600080600060608486031215620001fe57600080fd5b83516200020b81620001cf565b60208501519093506200021e81620001cf565b60408501519092506200023181620001cf565b809150509250925092565b634e487b7160e01b600052601160045260246000fd5b600181815b80851115620002935781600019048211156200027757620002776200023c565b808516156200028557918102915b93841c939080029062000257565b509250929050565b600082620002ac575060016200034b565b81620002bb575060006200034b565b8160018114620002d45760028114620002df57620002ff565b60019150506200034b565b60ff841115620002f357620002f36200023c565b50506001821b6200034b565b5060208310610133831016604e8410600b841016171562000324575081810a6200034b565b62000330838362000252565b80600019048211156200034757620003476200023c565b0290505b92915050565b60006200036260ff8416836200029b565b9392505050565b6000602082840312156200037c57600080fd5b815160ff811681146200036257600080fd5b60805160a05160c05160e051610fdd6200044460003960006107f9015260008181610129015281816101a80152818161029f01528181610350015281816103c80152818161067a0152610992015260008181607c015281816101870152818161027e0152818161032f015281816103a701528181610659015261097101526000818160cd015281816101e70152818161025c0152818161030d015281816104060152818161063701526109db0152610fdd6000f3fe608060405234801561001057600080fd5b50600436106100725760003560e01c8063999b93af11610050578063999b93af146101245780639d888e861461014b578063fff6cae91461015357600080fd5b80635001f3b5146100775780637b103999146100c85780637ece075d146100ef575b600080fd5b61009e7f000000000000000000000000000000000000000000000000000000000000000081565b60405173ffffffffffffffffffffffffffffffffffffffff90911681526020015b60405180910390f35b61009e7f000000000000000000000000000000000000000000000000000000000000000081565b6101026100fd366004610c61565b61015b565b60408051825181526020808401519082015291810151908201526060016100bf565b61009e7f000000000000000000000000000000000000000000000000000000000000000081565b61010261021b565b6101026102cd565b61017f60405180606001604052806000815260200160008152602001600081525090565b61021561020f7f00000000000000000000000000000000000000000000000000000000000000007f00000000000000000000000000000000000000000000000000000000000000006101d0866105e2565b73ffffffffffffffffffffffffffffffffffffffff7f0000000000000000000000000000000000000000000000000000000000000000169291906106b0565b836107c9565b92915050565b61023f60405180606001604052806000815260200160008152602001600081525090565b6102c86102c373ffffffffffffffffffffffffffffffffffffffff7f0000000000000000000000000000000000000000000000000000000000000000167f00000000000000000000000000000000000000000000000000000000000000007f000000000000000000000000000000000000000000000000000000000000000061083e565b610946565b905090565b6102f160405180606001604052806000815260200160008152602001600081525090565b600061037473ffffffffffffffffffffffffffffffffffffffff7f0000000000000000000000000000000000000000000000000000000000000000167f00000000000000000000000000000000000000000000000000000000000000007f000000000000000000000000000000000000000000000000000000000000000061083e565b90505b61037f610a68565b61ffff166103968260409081015161ffff911c1690565b61ffff16111561047557600061042e7f00000000000000000000000000000000000000000000000000000000000000007f00000000000000000000000000000000000000000000000000000000000000006103ef610a68565b73ffffffffffffffffffffffffffffffffffffffff7f000000000000000000000000000000000000000000000000000000000000000016929190610a78565b6000805460018101825590805269ffffffffffffffffffff919091167f290decd9548b62a8d60345a988386fc84ba6bc95484008f6362f93160ef3e5639091015550610377565b61047e81610946565b91505090565b6040517f58e2d3a800000000000000000000000000000000000000000000000000000000815273ffffffffffffffffffffffffffffffffffffffff83811660048301528281166024830152600091908516906358e2d3a890604401602060405180830381865afa1580156104fc573d6000803e3d6000fd5b505050506040513d601f19601f820116820180604052508101906105209190610c7a565b949350505050565b60007f7fffffffffffffffffffffffffffffffffffffffffffffffffffffffffffffff8211156105de576040517f08c379a000000000000000000000000000000000000000000000000000000000815260206004820152602860248201527f53616665436173743a2076616c756520646f65736e27742066697420696e206160448201527f6e20696e74323536000000000000000000000000000000000000000000000000606482015260840160405180910390fd5b5090565b6000806105ee83610b46565b905060008161ffff168154811061060757610607610c9d565b90600052602060002001548361061d9190610cfb565b61069f73ffffffffffffffffffffffffffffffffffffffff7f0000000000000000000000000000000000000000000000000000000000000000167f00000000000000000000000000000000000000000000000000000000000000007f000000000000000000000000000000000000000000000000000000000000000085610b93565b6106a99190610d12565b9392505050565b6106e060405180606001604052806000815260200160008152602001600069ffffffffffffffffffff1681525090565b6040517ffc58749e00000000000000000000000000000000000000000000000000000000815273ffffffffffffffffffffffffffffffffffffffff8581166004830152848116602483015269ffffffffffffffffffff84166044830152600091829188169063fc58749e9060640160a060405180830381865afa15801561076b573d6000803e3d6000fd5b505050506040513d601f19601f8201168201806040525081019061078f9190610d5a565b5093505092505060405180606001604052808281526020018381526020018569ffffffffffffffffffff1681525092505050949350505050565b6107ed60405180606001604052806000815260200160008152602001600081525090565b600061081d84602001517f0000000000000000000000000000000000000000000000000000000000000000610c42565b60408051606081018252948552945160208501529383019390935250919050565b61086e60405180606001604052806000815260200160008152602001600069ffffffffffffffffffff1681525090565b6040517fbcfd032d00000000000000000000000000000000000000000000000000000000815273ffffffffffffffffffffffffffffffffffffffff84811660048301528381166024830152600091829182919088169063bcfd032d9060440160a060405180830381865afa1580156108ea573d6000803e3d6000fd5b505050506040513d601f19601f8201168201806040525081019061090e9190610d5a565b5060408051606081018252918252602082019390935269ffffffffffffffffffff909316918301919091525093505050509392505050565b61096a60405180606001604052806000815260200160008152602001600081525090565b6000610a037f00000000000000000000000000000000000000000000000000000000000000007f00000000000000000000000000000000000000000000000000000000000000006109c48660409081015161ffff911c1690565b73ffffffffffffffffffffffffffffffffffffffff7f000000000000000000000000000000000000000000000000000000000000000016929190610b93565b8360400151610a129190610daa565b69ffffffffffffffffffff166000610a338560409081015161ffff911c1690565b61ffff1681548110610a4757610a47610c9d565b9060005260206000200154610a5c9190610dd5565b90506106a983826107c9565b600080546102c890600190610cfb565b6040517fc1ce86fc00000000000000000000000000000000000000000000000000000000815273ffffffffffffffffffffffffffffffffffffffff8481166004830152838116602483015261ffff83166044830152600091829182919088169063c1ce86fc906064016040805180830381865afa158015610afd573d6000803e3d6000fd5b505050506040513d601f19601f82011682018060405250810190610b219190610ded565b9092509050610b308282610daa565b610b3b906001610d12565b979650505050505050565b6000610b50610a68565b90505b8160008261ffff1681548110610b6b57610b6b610c9d565b90600052602060002001541115610b8e5780610b8681610e20565b915050610b53565b919050565b6040517fc1ce86fc00000000000000000000000000000000000000000000000000000000815273ffffffffffffffffffffffffffffffffffffffff8481166004830152838116602483015261ffff831660448301526000919086169063c1ce86fc906064016040805180830381865afa158015610c14573d6000803e3d6000fd5b505050506040513d601f19601f82011682018060405250810190610c389190610ded565b5095945050505050565b600081610c57670de0b6b3a764000085610e5c565b6106a99190610f18565b600060208284031215610c7357600080fd5b5035919050565b600060208284031215610c8c57600080fd5b815160ff811681146106a957600080fd5b7f4e487b7100000000000000000000000000000000000000000000000000000000600052603260045260246000fd5b7f4e487b7100000000000000000000000000000000000000000000000000000000600052601160045260246000fd5b600082821015610d0d57610d0d610ccc565b500390565b600069ffffffffffffffffffff808316818516808303821115610d3757610d37610ccc565b01949350505050565b805169ffffffffffffffffffff81168114610b8e57600080fd5b600080600080600060a08688031215610d7257600080fd5b610d7b86610d40565b9450602086015193506040860151925060608601519150610d9e60808701610d40565b90509295509295909350565b600069ffffffffffffffffffff83811690831681811015610dcd57610dcd610ccc565b039392505050565b60008219821115610de857610de8610ccc565b500190565b60008060408385031215610e0057600080fd5b610e0983610d40565b9150610e1760208401610d40565b90509250929050565b600061ffff821680610e3457610e34610ccc565b7fffffffffffffffffffffffffffffffffffffffffffffffffffffffffffffffff0192915050565b60007f7fffffffffffffffffffffffffffffffffffffffffffffffffffffffffffffff600084136000841385830485118282161615610e9d57610e9d610ccc565b7f80000000000000000000000000000000000000000000000000000000000000006000871286820588128184161615610ed857610ed8610ccc565b60008712925087820587128484161615610ef457610ef4610ccc565b87850587128184161615610f0a57610f0a610ccc565b505050929093029392505050565b600082610f4e577f4e487b7100000000000000000000000000000000000000000000000000000000600052601260045260246000fd5b7fffffffffffffffffffffffffffffffffffffffffffffffffffffffffffffffff83147f800000000000000000000000000000000000000000000000000000000000000083141615610fa257610fa2610ccc565b50059056fea264697066735822122096cbd43dca1f40f4eceab8f151a9d8417af9ff57b653232ebe2acc83a1dbbb9864736f6c634300080f0033",
  "devdoc": {
    "details": "One instance per Chainlink price feed should be deployed. Multiple products may use the same      ChainlinkOracle instance if their payoff functions are based on the same underlying oracle.      This implementation only support non-negative prices.",
    "kind": "dev",
    "methods": {
      "atVersion(uint256)": {
        "params": {
          "version": "The version of which to lookup"
        },
        "returns": {
          "oracleVersion": "Oracle version at version `version`"
        }
      },
      "constructor": {
        "params": {
          "base_": "base currency for feed",
          "quote_": "quote currency for feed",
          "registry_": "Chainlink price feed registry"
        }
      },
      "currentVersion()": {
        "returns": {
          "oracleVersion": "Current oracle version"
        }
      },
      "sync()": {
        "returns": {
          "_0": "The current oracle version after sync"
        }
      }
    },
    "stateVariables": {
      "_decimalOffset": {
        "details": "Decimal offset used to normalize chainlink price to 18 decimals"
      },
      "_startingVersionForPhaseId": {
        "details": "Mapping of the first oracle version for each underlying phase ID"
      },
      "base": {
        "details": "Base token address for the Chainlink oracle"
      },
      "quote": {
        "details": "Quote token address for the Chainlink oracle"
      },
      "registry": {
        "details": "Chainlink registry feed address"
      }
    },
    "title": "ChainlinkOracle",
    "version": 1
  },
  "userdoc": {
    "kind": "user",
    "methods": {
      "atVersion(uint256)": {
        "notice": "Returns the current oracle version"
      },
      "constructor": {
        "notice": "Initializes the contract state"
      },
      "currentVersion()": {
        "notice": "Returns the current oracle version"
      },
      "sync()": {
        "notice": "Checks for a new price and updates the internal phase annotation state accordingly"
      }
    },
    "notice": "Chainlink implementation of the IOracle interface.",
    "version": 1
  },
  "storageLayout": {
    "storage": [
      {
        "astId": 2536,
        "contract": "contracts/ChainlinkOracle.sol:ChainlinkOracle",
        "label": "_startingVersionForPhaseId",
        "offset": 0,
        "slot": "0",
        "type": "t_array(t_uint256)dyn_storage"
      }
    ],
    "types": {
      "t_array(t_uint256)dyn_storage": {
        "base": "t_uint256",
        "encoding": "dynamic_array",
        "label": "uint256[]",
        "numberOfBytes": "32"
      },
      "t_uint256": {
        "encoding": "inplace",
        "label": "uint256",
        "numberOfBytes": "32"
      }
    }
  }
}