{
  "address": "0x6c2e834E1b56EF126c92bc14b90dbd0627c547f7",
  "abi": [
    {
      "inputs": [
        {
          "internalType": "contract AggregatorV3Interface",
          "name": "feed_",
          "type": "address"
        },
        {
          "internalType": "uint80",
          "name": "versionOffset_",
          "type": "uint80"
        }
      ],
      "stateMutability": "nonpayable",
      "type": "constructor"
    },
    {
      "inputs": [],
      "name": "InvalidOracleVersion",
      "type": "error"
    },
    {
      "inputs": [
        {
          "internalType": "uint256",
          "name": "version",
          "type": "uint256"
        }
      ],
      "name": "atVersion",
      "outputs": [
        {
          "components": [
            {
              "internalType": "uint256",
              "name": "version",
              "type": "uint256"
            },
            {
              "internalType": "uint256",
              "name": "timestamp",
              "type": "uint256"
            },
            {
              "internalType": "Fixed18",
              "name": "price",
              "type": "int256"
            }
          ],
          "internalType": "struct IOracleProvider.OracleVersion",
          "name": "oracleVersion",
          "type": "tuple"
        }
      ],
      "stateMutability": "view",
      "type": "function"
    },
    {
      "inputs": [],
      "name": "currentVersion",
      "outputs": [
        {
          "components": [
            {
              "internalType": "uint256",
              "name": "version",
              "type": "uint256"
            },
            {
              "internalType": "uint256",
              "name": "timestamp",
              "type": "uint256"
            },
            {
              "internalType": "Fixed18",
              "name": "price",
              "type": "int256"
            }
          ],
          "internalType": "struct IOracleProvider.OracleVersion",
          "name": "oracleVersion",
          "type": "tuple"
        }
      ],
      "stateMutability": "view",
      "type": "function"
    },
    {
      "inputs": [],
      "name": "feed",
      "outputs": [
        {
          "internalType": "contract AggregatorV3Interface",
          "name": "",
          "type": "address"
        }
      ],
      "stateMutability": "view",
      "type": "function"
    },
    {
      "inputs": [],
      "name": "sync",
      "outputs": [
        {
          "components": [
            {
              "internalType": "uint256",
              "name": "version",
              "type": "uint256"
            },
            {
              "internalType": "uint256",
              "name": "timestamp",
              "type": "uint256"
            },
            {
              "internalType": "Fixed18",
              "name": "price",
              "type": "int256"
            }
          ],
          "internalType": "struct IOracleProvider.OracleVersion",
          "name": "",
          "type": "tuple"
        }
      ],
      "stateMutability": "view",
      "type": "function"
    }
  ],
  "transactionHash": "0x553f3481d0aba2f90586a7638b473edd5f03d52d9623245082785c1839572013",
  "args": [
    "0xC5B29989e47bb0a17B0870b027BE26522d654BF5",
    0
  ],
  "numDeployments": 1,
  "solcInputHash": "04cc164af9f8c2ea4699abe86595d6fd",
  "bytecode": "0x60e06040523480156200001157600080fd5b5060405162000a7838038062000a78833981016040819052620000349162000154565b6001600160a01b03821660808190526001600160501b03821660c0526040805163313ce56760e01b81529051620000d5929163313ce5679160048083019260209291908290030181865afa15801562000091573d6000803e3d6000fd5b505050506040513d601f19601f82011682018060405250810190620000b79190620001a9565b620000c490600a620002ea565b620000e160201b620003321760201c565b60a05250620002fb9050565b60006001600160ff1b03821115620001505760405162461bcd60e51b815260206004820152602860248201527f53616665436173743a2076616c756520646f65736e27742066697420696e2061604482015267371034b73a191a9b60c11b606482015260840160405180910390fd5b5090565b600080604083850312156200016857600080fd5b82516001600160a01b03811681146200018057600080fd5b60208401519092506001600160501b03811681146200019e57600080fd5b809150509250929050565b600060208284031215620001bc57600080fd5b815160ff81168114620001ce57600080fd5b9392505050565b634e487b7160e01b600052601160045260246000fd5b600181815b808511156200022c578160001904821115620002105762000210620001d5565b808516156200021e57918102915b93841c9390800290620001f0565b509250929050565b6000826200024557506001620002e4565b816200025457506000620002e4565b81600181146200026d5760028114620002785762000298565b6001915050620002e4565b60ff8411156200028c576200028c620001d5565b50506001821b620002e4565b5060208310610133831016604e8410600b8410161715620002bd575081810a620002e4565b620002c98383620001eb565b8060001904821115620002e057620002e0620001d5565b0290505b92915050565b6000620001ce60ff84168362000234565b60805160a05160c0516107396200033f60003960008181610115015261044b015260006104180152600081816056015281816101d7015261028a01526107396000f3fe608060405234801561001057600080fd5b506004361061004c5760003560e01c806337a7b7d8146100515780637ece075d146100a25780639d888e86146100d7578063fff6cae9146100d7575b600080fd5b6100787f000000000000000000000000000000000000000000000000000000000000000081565b60405173ffffffffffffffffffffffffffffffffffffffff90911681526020015b60405180910390f35b6100b56100b03660046104be565b6100df565b6040805182518152602080840151908201529181015190820152606001610099565b6100b561025f565b61010360405180606001604052806000815260200160008152602001600081525090565b600061013b69ffffffffffffffffffff7f00000000000000000000000000000000000000000000000000000000000000001684610506565b905069ffffffffffffffffffff811115610181576040517f69d4c15400000000000000000000000000000000000000000000000000000000815260040160405180910390fd5b6040517f9a6fc8f500000000000000000000000000000000000000000000000000000000815269ffffffffffffffffffff821660048201526000908190819073ffffffffffffffffffffffffffffffffffffffff7f00000000000000000000000000000000000000000000000000000000000000001690639a6fc8f59060240160a060405180830381865afa15801561021e573d6000803e3d6000fd5b505050506040513d601f19601f82011682018060405250810190610242919061053d565b50935050925092506102558383836103ec565b9695505050505050565b61028360405180606001604052806000815260200160008152602001600081525090565b60008060007f000000000000000000000000000000000000000000000000000000000000000073ffffffffffffffffffffffffffffffffffffffff1663feaf968c6040518163ffffffff1660e01b815260040160a060405180830381865afa1580156102f3573d6000803e3d6000fd5b505050506040513d601f19601f82011682018060405250810190610317919061053d565b509350509250925061032a8383836103ec565b935050505090565b60007f7fffffffffffffffffffffffffffffffffffffffffffffffffffffffffffffff8211156103e8576040517f08c379a000000000000000000000000000000000000000000000000000000000815260206004820152602860248201527f53616665436173743a2076616c756520646f65736e27742066697420696e206160448201527f6e20696e74323536000000000000000000000000000000000000000000000000606482015260840160405180910390fd5b5090565b61041060405180606001604052806000815260200160008152602001600081525090565b600061043c847f0000000000000000000000000000000000000000000000000000000000000000610498565b905060405180606001604052807f000000000000000000000000000000000000000000000000000000000000000087610475919061058d565b69ffffffffffffffffffff16815260208101949094526040909301525092915050565b6000816104ad670de0b6b3a7640000856105b8565b6104b79190610674565b9392505050565b6000602082840312156104d057600080fd5b5035919050565b7f4e487b7100000000000000000000000000000000000000000000000000000000600052601160045260246000fd5b60008219821115610519576105196104d7565b500190565b805169ffffffffffffffffffff8116811461053857600080fd5b919050565b600080600080600060a0868803121561055557600080fd5b61055e8661051e565b94506020860151935060408601519250606086015191506105816080870161051e565b90509295509295909350565b600069ffffffffffffffffffff838116908316818110156105b0576105b06104d7565b039392505050565b60007f7fffffffffffffffffffffffffffffffffffffffffffffffffffffffffffffff6000841360008413858304851182821616156105f9576105f96104d7565b7f80000000000000000000000000000000000000000000000000000000000000006000871286820588128184161615610634576106346104d7565b60008712925087820587128484161615610650576106506104d7565b87850587128184161615610666576106666104d7565b505050929093029392505050565b6000826106aa577f4e487b7100000000000000000000000000000000000000000000000000000000600052601260045260246000fd5b7fffffffffffffffffffffffffffffffffffffffffffffffffffffffffffffffff83147f8000000000000000000000000000000000000000000000000000000000000000831416156106fe576106fe6104d7565b50059056fea2646970667358221220b5a1155d56e5bb0dc250ba29b0aad0c739c5ca493c5af8d7c77ada5fbac5ae9164736f6c634300080f0033",
  "devdoc": {
    "details": "This is a naive implementation which pushes all validation to the underlying. No staleness checks are possible This oracle should not be used for regular Chainlink Data Feeds",
    "kind": "dev",
    "methods": {
      "atVersion(uint256)": {
        "details": "Converts the passed in version to a roundID by adding _versionOffset",
        "params": {
          "version": "The version of which to lookup"
        },
        "returns": {
          "oracleVersion": "Oracle version at version `version`"
        }
      },
      "constructor": {
        "params": {
          "feed_": "Reservoir price feed",
          "versionOffset_": "Version offset from source round ID"
        }
      },
      "currentVersion()": {
        "returns": {
          "oracleVersion": "Current oracle version"
        }
      },
      "sync()": {
        "returns": {
          "_0": "The current oracle version after sync"
        }
      }
    },
    "stateVariables": {
      "_decimalOffset": {
        "details": "Decimal offset used to normalize chainlink price to 18 decimals"
      },
      "_versionOffset": {
        "details": "Which underlying round to consider version 0: version = roundId - _versionOffset"
      },
      "feed": {
        "details": "Chainlink price feed to read from"
      }
    },
    "title": "ReservoirFeedOracle",
    "version": 1
  },
  "userdoc": {
    "kind": "user",
    "methods": {
      "atVersion(uint256)": {
        "notice": "Returns the oracle version specified"
      },
      "constructor": {
        "notice": "Initializes the contract state"
      },
      "currentVersion()": {
        "notice": "Returns the current oracle version"
      },
      "sync()": {
        "notice": "Checks for a new price. Does not perform staleness validation as the underlying oracle does not support this."
      }
    },
    "notice": "Reservoir implementation of the IOracle interface, using Reservoir's AggregatorV3Interface adaptors",
    "version": 1
  },
  "storageLayout": {
    "storage": [],
    "types": null
  }
}