{
  "address": "0xA8b58125953c7f2948E82A4558C745C1Cd3237ee",
  "abi": [
    {
      "inputs": [
        {
          "internalType": "Token18",
          "name": "token_",
          "type": "address"
        }
      ],
      "stateMutability": "nonpayable",
      "type": "constructor"
    },
    {
      "inputs": [
        {
          "internalType": "address",
          "name": "account",
          "type": "address"
        }
      ],
      "name": "CollateralAccountLiquidatingError",
      "type": "error"
    },
    {
      "inputs": [
        {
          "internalType": "UFixed18",
          "name": "totalMaintenance",
          "type": "uint256"
        },
        {
          "internalType": "UFixed18",
          "name": "totalCollateral",
          "type": "uint256"
        }
      ],
      "name": "CollateralCantLiquidate",
      "type": "error"
    },
    {
      "inputs": [],
      "name": "CollateralInsufficientCollateralError",
      "type": "error"
    },
    {
      "inputs": [],
      "name": "CollateralUnderLimitError",
      "type": "error"
    },
    {
      "inputs": [],
      "name": "CollateralZeroAddressError",
      "type": "error"
    },
    {
      "inputs": [
        {
          "internalType": "uint256",
          "name": "value",
          "type": "uint256"
        }
      ],
      "name": "Fixed18OverflowError",
      "type": "error"
    },
    {
      "inputs": [],
      "name": "InvalidControllerError",
      "type": "error"
    },
    {
      "inputs": [
        {
          "internalType": "address",
          "name": "account",
          "type": "address"
        },
        {
          "internalType": "address",
          "name": "operator",
          "type": "address"
        }
      ],
      "name": "NotAccountOrMultiInvokerError",
      "type": "error"
    },
    {
      "inputs": [],
      "name": "NotCollateralError",
      "type": "error"
    },
    {
      "inputs": [
        {
          "internalType": "uint256",
          "name": "coordinatorId",
          "type": "uint256"
        }
      ],
      "name": "NotOwnerError",
      "type": "error"
    },
    {
      "inputs": [
        {
          "internalType": "contract IProduct",
          "name": "product",
          "type": "address"
        }
      ],
      "name": "NotProductError",
      "type": "error"
    },
    {
      "inputs": [],
      "name": "PausedError",
      "type": "error"
    },
    {
      "inputs": [
        {
          "internalType": "uint256",
          "name": "version",
          "type": "uint256"
        }
      ],
      "name": "UInitializableAlreadyInitializedError",
      "type": "error"
    },
    {
      "inputs": [],
      "name": "UInitializableNotInitializingError",
      "type": "error"
    },
    {
      "inputs": [],
      "name": "UInitializableZeroVersionError",
      "type": "error"
    },
    {
      "inputs": [],
      "name": "UReentrancyGuardReentrantCallError",
      "type": "error"
    },
    {
      "anonymous": false,
      "inputs": [
        {
          "indexed": true,
          "internalType": "contract IProduct",
          "name": "product",
          "type": "address"
        },
        {
          "indexed": true,
          "internalType": "address",
          "name": "account",
          "type": "address"
        },
        {
          "indexed": false,
          "internalType": "Fixed18",
          "name": "amount",
          "type": "int256"
        },
        {
          "indexed": false,
          "internalType": "UFixed18",
          "name": "newShortfall",
          "type": "uint256"
        }
      ],
      "name": "AccountSettle",
      "type": "event"
    },
    {
      "anonymous": false,
      "inputs": [
        {
          "indexed": true,
          "internalType": "address",
          "name": "user",
          "type": "address"
        },
        {
          "indexed": true,
          "internalType": "contract IProduct",
          "name": "product",
          "type": "address"
        },
        {
          "indexed": false,
          "internalType": "UFixed18",
          "name": "amount",
          "type": "uint256"
        }
      ],
      "name": "Deposit",
      "type": "event"
    },
    {
      "anonymous": false,
      "inputs": [
        {
          "indexed": true,
          "internalType": "address",
          "name": "account",
          "type": "address"
        },
        {
          "indexed": false,
          "internalType": "UFixed18",
          "name": "amount",
          "type": "uint256"
        }
      ],
      "name": "FeeClaim",
      "type": "event"
    },
    {
      "anonymous": false,
      "inputs": [
        {
          "indexed": false,
          "internalType": "uint256",
          "name": "version",
          "type": "uint256"
        }
      ],
      "name": "Initialized",
      "type": "event"
    },
    {
      "anonymous": false,
      "inputs": [
        {
          "indexed": true,
          "internalType": "address",
          "name": "user",
          "type": "address"
        },
        {
          "indexed": true,
          "internalType": "contract IProduct",
          "name": "product",
          "type": "address"
        },
        {
          "indexed": false,
          "internalType": "address",
          "name": "liquidator",
          "type": "address"
        },
        {
          "indexed": false,
          "internalType": "UFixed18",
          "name": "fee",
          "type": "uint256"
        }
      ],
      "name": "Liquidation",
      "type": "event"
    },
    {
      "anonymous": false,
      "inputs": [
        {
          "indexed": true,
          "internalType": "contract IProduct",
          "name": "product",
          "type": "address"
        },
        {
          "indexed": false,
          "internalType": "UFixed18",
          "name": "protocolFee",
          "type": "uint256"
        },
        {
          "indexed": false,
          "internalType": "UFixed18",
          "name": "productFee",
          "type": "uint256"
        }
      ],
      "name": "ProductSettle",
      "type": "event"
    },
    {
      "anonymous": false,
      "inputs": [
        {
          "indexed": true,
          "internalType": "contract IProduct",
          "name": "product",
          "type": "address"
        },
        {
          "indexed": false,
          "internalType": "UFixed18",
          "name": "amount",
          "type": "uint256"
        }
      ],
      "name": "ShortfallResolution",
      "type": "event"
    },
    {
      "anonymous": false,
      "inputs": [
        {
          "indexed": true,
          "internalType": "address",
          "name": "user",
          "type": "address"
        },
        {
          "indexed": true,
          "internalType": "contract IProduct",
          "name": "product",
          "type": "address"
        },
        {
          "indexed": false,
          "internalType": "UFixed18",
          "name": "amount",
          "type": "uint256"
        }
      ],
      "name": "Withdrawal",
      "type": "event"
    },
    {
      "inputs": [],
      "name": "claimFee",
      "outputs": [],
      "stateMutability": "nonpayable",
      "type": "function"
    },
    {
      "inputs": [
        {
          "internalType": "contract IProduct",
          "name": "product",
          "type": "address"
        }
      ],
      "name": "collateral",
      "outputs": [
        {
          "internalType": "UFixed18",
          "name": "",
          "type": "uint256"
        }
      ],
      "stateMutability": "view",
      "type": "function"
    },
    {
      "inputs": [
        {
          "internalType": "address",
          "name": "account",
          "type": "address"
        },
        {
          "internalType": "contract IProduct",
          "name": "product",
          "type": "address"
        }
      ],
      "name": "collateral",
      "outputs": [
        {
          "internalType": "UFixed18",
          "name": "",
          "type": "uint256"
        }
      ],
      "stateMutability": "view",
      "type": "function"
    },
    {
      "inputs": [],
      "name": "controller",
      "outputs": [
        {
          "internalType": "contract IController",
          "name": "",
          "type": "address"
        }
      ],
      "stateMutability": "view",
      "type": "function"
    },
    {
      "inputs": [
        {
          "internalType": "address",
          "name": "account",
          "type": "address"
        },
        {
          "internalType": "contract IProduct",
          "name": "product",
          "type": "address"
        },
        {
          "internalType": "UFixed18",
          "name": "amount",
          "type": "uint256"
        }
      ],
      "name": "depositTo",
      "outputs": [],
      "stateMutability": "nonpayable",
      "type": "function"
    },
    {
      "inputs": [
        {
          "internalType": "address",
          "name": "",
          "type": "address"
        }
      ],
      "name": "fees",
      "outputs": [
        {
          "internalType": "UFixed18",
          "name": "",
          "type": "uint256"
        }
      ],
      "stateMutability": "view",
      "type": "function"
    },
    {
      "inputs": [
        {
          "internalType": "contract IController",
          "name": "controller_",
          "type": "address"
        }
      ],
      "name": "initialize",
      "outputs": [],
      "stateMutability": "nonpayable",
      "type": "function"
    },
    {
      "inputs": [
        {
          "internalType": "address",
          "name": "account",
          "type": "address"
        },
        {
          "internalType": "contract IProduct",
          "name": "product",
          "type": "address"
        }
      ],
      "name": "liquidatable",
      "outputs": [
        {
          "internalType": "bool",
          "name": "",
          "type": "bool"
        }
      ],
      "stateMutability": "view",
      "type": "function"
    },
    {
      "inputs": [
        {
          "internalType": "address",
          "name": "account",
          "type": "address"
        },
        {
          "internalType": "contract IProduct",
          "name": "product",
          "type": "address"
        }
      ],
      "name": "liquidatableNext",
      "outputs": [
        {
          "internalType": "bool",
          "name": "",
          "type": "bool"
        }
      ],
      "stateMutability": "view",
      "type": "function"
    },
    {
      "inputs": [
        {
          "internalType": "address",
          "name": "account",
          "type": "address"
        },
        {
          "internalType": "contract IProduct",
          "name": "product",
          "type": "address"
        }
      ],
      "name": "liquidate",
      "outputs": [],
      "stateMutability": "nonpayable",
      "type": "function"
    },
    {
      "inputs": [
        {
          "internalType": "contract IProduct",
          "name": "product",
          "type": "address"
        },
        {
          "internalType": "UFixed18",
          "name": "amount",
          "type": "uint256"
        }
      ],
      "name": "resolveShortfall",
      "outputs": [],
      "stateMutability": "nonpayable",
      "type": "function"
    },
    {
      "inputs": [
        {
          "internalType": "address",
          "name": "account",
          "type": "address"
        },
        {
          "internalType": "Fixed18",
          "name": "amount",
          "type": "int256"
        }
      ],
      "name": "settleAccount",
      "outputs": [],
      "stateMutability": "nonpayable",
      "type": "function"
    },
    {
      "inputs": [
        {
          "internalType": "UFixed18",
          "name": "amount",
          "type": "uint256"
        }
      ],
      "name": "settleProduct",
      "outputs": [],
      "stateMutability": "nonpayable",
      "type": "function"
    },
    {
      "inputs": [
        {
          "internalType": "contract IProduct",
          "name": "product",
          "type": "address"
        }
      ],
      "name": "shortfall",
      "outputs": [
        {
          "internalType": "UFixed18",
          "name": "",
          "type": "uint256"
        }
      ],
      "stateMutability": "view",
      "type": "function"
    },
    {
      "inputs": [],
      "name": "token",
      "outputs": [
        {
          "internalType": "Token18",
          "name": "",
          "type": "address"
        }
      ],
      "stateMutability": "view",
      "type": "function"
    },
    {
      "inputs": [
        {
          "internalType": "address",
          "name": "account",
          "type": "address"
        },
        {
          "internalType": "address",
          "name": "receiver",
          "type": "address"
        },
        {
          "internalType": "contract IProduct",
          "name": "product",
          "type": "address"
        },
        {
          "internalType": "UFixed18",
          "name": "amount",
          "type": "uint256"
        }
      ],
      "name": "withdrawFrom",
      "outputs": [],
      "stateMutability": "nonpayable",
      "type": "function"
    },
    {
      "inputs": [
        {
          "internalType": "address",
          "name": "receiver",
          "type": "address"
        },
        {
          "internalType": "contract IProduct",
          "name": "product",
          "type": "address"
        },
        {
          "internalType": "UFixed18",
          "name": "amount",
          "type": "uint256"
        }
      ],
      "name": "withdrawTo",
      "outputs": [],
      "stateMutability": "nonpayable",
      "type": "function"
    }
  ],
  "transactionHash": "0xb26ddfdf67dcdce031afd6703a9090b7ddd8abf6e1eec4e98c436f086dab0610",
  "args": [
    "0x52C64b8998eB7C80b6F526E99E29ABdcC86B841b"
  ],
  "numDeployments": 1,
  "solcInputHash": "0954eb4c5a9afab2c0aa2d884eb92458",
  "bytecode": "0x60a06040523480156200001157600080fd5b506040516200306238038062003062833981016040819052620000349162000046565b6001600160a01b031660805262000078565b6000602082840312156200005957600080fd5b81516001600160a01b03811681146200007157600080fd5b9392505050565b608051612fab620000b7600039600081816103140152818161080c015281816116dd0152818161186201528181611d4601526121040152612fab6000f3fe608060405234801561001057600080fd5b506004361061011b5760003560e01c8063c4d66de8116100b2578063e411918011610081578063f77c479111610066578063f77c4791146102c2578063faaebd21146102ef578063fc0c546a1461030f57600080fd5b8063e41191801461029c578063f213159c146102af57600080fd5b8063c4d66de81461021e578063c9cb48de14610231578063ca70d30014610244578063cc218ece1461025757600080fd5b806399d32fc4116100ee57806399d32fc414610183578063a5fdc5de1461018b578063b4d6f781146101d2578063c3b35a7e1461020b57600080fd5b806326441318146101205780637f3dd53b1461013557806382df39de1461014857806386b9d81f14610170575b600080fd5b61013361012e366004612c0d565b610336565b005b610133610143366004612c5e565b610b7b565b61015b610156366004612c77565b610efc565b60405190151581526020015b60405180910390f35b61013361017e366004612c77565b61106c565b61013361179a565b6101c4610199366004612cb0565b73ffffffffffffffffffffffffffffffffffffffff1660009081526020819052604090206001015490565b604051908152602001610167565b6101c46101e0366004612cb0565b73ffffffffffffffffffffffffffffffffffffffff1660009081526020819052604090206002015490565b610133610219366004612ccd565b6118d6565b61013361022c366004612cb0565b6118e7565b61013361023f366004612d0e565b611a05565b610133610252366004612d0e565b611b67565b6101c4610265366004612c77565b73ffffffffffffffffffffffffffffffffffffffff8082166000908152602081815260408083209386168352929052205492915050565b61015b6102aa366004612c77565b611dc2565b6101336102bd366004612ccd565b611e4d565b6102ca612248565b60405173ffffffffffffffffffffffffffffffffffffffff9091168152602001610167565b6101c46102fd366004612cb0565b60016020526000908152604090205481565b6102ca7f000000000000000000000000000000000000000000000000000000000000000081565b60026103607f1b30fe15febd596dffd21d4da0657732eea42b4b5a9789e3e6daab3d570999d75490565b03610397576040517ff320323600000000000000000000000000000000000000000000000000000000815260040160405180910390fd5b60027f1b30fe15febd596dffd21d4da0657732eea42b4b5a9789e3e6daab3d570999d7556103c3612248565b73ffffffffffffffffffffffffffffffffffffffff16635c975abb6040518163ffffffff1660e01b8152600401602060405180830381865afa15801561040d573d6000803e3d6000fd5b505050506040513d601f19601f820116820180604052508101906104319190612d3a565b15610468576040517feced32bc00000000000000000000000000000000000000000000000000000000815260040160405180910390fd5b8273ffffffffffffffffffffffffffffffffffffffff81166104b6576040517f94c3555f00000000000000000000000000000000000000000000000000000000815260040160405180910390fd5b826104bf612248565b6040517f7fd2919200000000000000000000000000000000000000000000000000000000815273ffffffffffffffffffffffffffffffffffffffff83811660048301529190911690637fd2919290602401602060405180830381865afa15801561052d573d6000803e3d6000fd5b505050506040513d601f19601f820116820180604052508101906105519190612d3a565b6105a4576040517f4d53256500000000000000000000000000000000000000000000000000000000815273ffffffffffffffffffffffffffffffffffffffff821660048201526024015b60405180910390fd5b853373ffffffffffffffffffffffffffffffffffffffff8216148061066957506105cc612248565b73ffffffffffffffffffffffffffffffffffffffff1663479e58f06040518163ffffffff1660e01b8152600401602060405180830381865afa158015610616573d6000803e3d6000fd5b505050506040513d601f19601f8201168201806040525081019061063a9190612d5c565b73ffffffffffffffffffffffffffffffffffffffff163373ffffffffffffffffffffffffffffffffffffffff16145b6106bd576040517f6dc3a3c300000000000000000000000000000000000000000000000000000000815273ffffffffffffffffffffffffffffffffffffffff8216600482015233602482015260440161059b565b6040517ff667f89700000000000000000000000000000000000000000000000000000000815273ffffffffffffffffffffffffffffffffffffffff80891660048301528891879182169063f667f89790602401600060405180830381600087803b15801561072a57600080fd5b505af115801561073e573d6000803e3d6000fd5b5050505088878a896107797fffffffffffffffffffffffffffffffffffffffffffffffffffffffffffffffff8b61227b90919063ffffffff16565b61078357896107bf565b6107bf8d8c73ffffffffffffffffffffffffffffffffffffffff8082166000908152602081815260408083209386168352929052205492915050565b73ffffffffffffffffffffffffffffffffffffffff8c166000908152602081905260409020909a506107f2908e8c612291565b61083373ffffffffffffffffffffffffffffffffffffffff7f0000000000000000000000000000000000000000000000000000000000000000168d8c612303565b8a73ffffffffffffffffffffffffffffffffffffffff168d73ffffffffffffffffffffffffffffffffffffffff167f2717ead6b9200dd235aad468c9809ea400fe33ac69b5bfaa6d3e90fc922b63988c60405161089291815260200190565b60405180910390a36040517f9168902400000000000000000000000000000000000000000000000000000000815273ffffffffffffffffffffffffffffffffffffffff838116600483015260009190831690639168902490602401602060405180830381865afa15801561090a573d6000803e3d6000fd5b505050506040513d601f19601f8201168201806040525081019061092e9190612d79565b6040517fab582f2900000000000000000000000000000000000000000000000000000000815273ffffffffffffffffffffffffffffffffffffffff858116600483015291925060009184169063ab582f2990602401602060405180830381865afa1580156109a0573d6000803e3d6000fd5b505050506040513d601f19601f820116820180604052508101906109c49190612d79565b73ffffffffffffffffffffffffffffffffffffffff80851660009081526020818152604080832093891683529290522054909150610a0c90610a068484612324565b90612330565b15610a43576040517f40e2812c00000000000000000000000000000000000000000000000000000000815260040160405180910390fd5b5050505073ffffffffffffffffffffffffffffffffffffffff818116600090815260208181526040808320938616835292905220548015801590610b025750610b02610a8d612248565b73ffffffffffffffffffffffffffffffffffffffff1663ba2de9bc6040518163ffffffff1660e01b8152600401602060405180830381865afa158015610ad7573d6000803e3d6000fd5b505050506040513d601f19601f82011682018060405250810190610afb9190612d79565b8290612346565b15610b39576040517f410d976900000000000000000000000000000000000000000000000000000000815260040160405180910390fd5b5050505050505050610b7560017f1b30fe15febd596dffd21d4da0657732eea42b4b5a9789e3e6daab3d570999d761227790919063ffffffff16565b50505050565b610b83612248565b6040517f7fd2919200000000000000000000000000000000000000000000000000000000815233600482015273ffffffffffffffffffffffffffffffffffffffff9190911690637fd2919290602401602060405180830381865afa158015610bef573d6000803e3d6000fd5b505050506040513d601f19601f82011682018060405250810190610c139190612d3a565b610c4b576040517f4d53256500000000000000000000000000000000000000000000000000000000815233600482015260240161059b565b60008033610c57612248565b9150915060008173ffffffffffffffffffffffffffffffffffffffff166361d027b36040518163ffffffff1660e01b8152600401602060405180830381865afa158015610ca8573d6000803e3d6000fd5b505050506040513d601f19601f82011682018060405250810190610ccc9190612d5c565b6040517f2d809cb600000000000000000000000000000000000000000000000000000000815273ffffffffffffffffffffffffffffffffffffffff8581166004830152919250600091841690632d809cb690602401602060405180830381865afa158015610d3e573d6000803e3d6000fd5b505050506040513d601f19601f82011682018060405250810190610d629190612d5c565b90506000610ddf8473ffffffffffffffffffffffffffffffffffffffff1663b0e21e8a6040518163ffffffff1660e01b8152600401602060405180830381865afa158015610db4573d6000803e3d6000fd5b505050506040513d601f19601f82011682018060405250810190610dd89190612d79565b879061235a565b90506000610ded8783612379565b73ffffffffffffffffffffffffffffffffffffffff87166000908152602081905260409020909150610e1f9088612385565b73ffffffffffffffffffffffffffffffffffffffff8416600090815260016020526040902054610e4f90836123a0565b73ffffffffffffffffffffffffffffffffffffffff8086166000908152600160205260408082209390935590851681522054610e8b90826123a0565b73ffffffffffffffffffffffffffffffffffffffff808516600090815260016020908152604091829020939093558051858152928301849052908816917fbb1fb7280f9f082e1804d5dc09e8cd7c89debd6b303542f604bcdf7696d9579d910160405180910390a250505050505050565b6040517f58ca6f9800000000000000000000000000000000000000000000000000000000815273ffffffffffffffffffffffffffffffffffffffff8381166004830152600091908316906358ca6f9890602401602060405180830381865afa158015610f6c573d6000803e3d6000fd5b505050506040513d601f19601f82011682018060405250810190610f909190612d3a565b15610f9d57506000611066565b73ffffffffffffffffffffffffffffffffffffffff80831660009081526020818152604080832093871683529290522054611063906040517f9168902400000000000000000000000000000000000000000000000000000000815273ffffffffffffffffffffffffffffffffffffffff86811660048301528516906391689024906024015b602060405180830381865afa15801561103f573d6000803e3d6000fd5b505050506040513d601f19601f82011682018060405250810190610a069190612d79565b90505b92915050565b60026110967f1b30fe15febd596dffd21d4da0657732eea42b4b5a9789e3e6daab3d570999d75490565b036110cd576040517ff320323600000000000000000000000000000000000000000000000000000000815260040160405180910390fd5b60027f1b30fe15febd596dffd21d4da0657732eea42b4b5a9789e3e6daab3d570999d7556110f9612248565b73ffffffffffffffffffffffffffffffffffffffff16635c975abb6040518163ffffffff1660e01b8152600401602060405180830381865afa158015611143573d6000803e3d6000fd5b505050506040513d601f19601f820116820180604052508101906111679190612d3a565b1561119e576040517feced32bc00000000000000000000000000000000000000000000000000000000815260040160405180910390fd5b806111a7612248565b6040517f7fd2919200000000000000000000000000000000000000000000000000000000815273ffffffffffffffffffffffffffffffffffffffff83811660048301529190911690637fd2919290602401602060405180830381865afa158015611215573d6000803e3d6000fd5b505050506040513d601f19601f820116820180604052508101906112399190612d3a565b611287576040517f4d53256500000000000000000000000000000000000000000000000000000000815273ffffffffffffffffffffffffffffffffffffffff8216600482015260240161059b565b6040517ff667f89700000000000000000000000000000000000000000000000000000000815273ffffffffffffffffffffffffffffffffffffffff80851660048301528491849182169063f667f89790602401600060405180830381600087803b1580156112f457600080fd5b505af1158015611308573d6000803e3d6000fd5b50506040517f58ca6f9800000000000000000000000000000000000000000000000000000000815273ffffffffffffffffffffffffffffffffffffffff8881166004830152871692506358ca6f989150602401602060405180830381865afa158015611378573d6000803e3d6000fd5b505050506040513d601f19601f8201168201806040525081019061139c9190612d3a565b156113eb576040517f0e5da45f00000000000000000000000000000000000000000000000000000000815273ffffffffffffffffffffffffffffffffffffffff8616600482015260240161059b565b6040517f9168902400000000000000000000000000000000000000000000000000000000815273ffffffffffffffffffffffffffffffffffffffff868116600483015260009190861690639168902490602401602060405180830381865afa15801561145b573d6000803e3d6000fd5b505050506040513d601f19601f8201168201806040525081019061147f9190612d79565b73ffffffffffffffffffffffffffffffffffffffff868116600090815260208181526040808320938b16835292905220549091506114bd8282612330565b6114fd576040517f8b9b0bf8000000000000000000000000000000000000000000000000000000008152600481018390526024810182905260440161059b565b6040517ff6b3200800000000000000000000000000000000000000000000000000000000815273ffffffffffffffffffffffffffffffffffffffff888116600483015287169063f6b3200890602401600060405180830381600087803b15801561156657600080fd5b505af115801561157a573d6000803e3d6000fd5b505050506000611588612248565b73ffffffffffffffffffffffffffffffffffffffff1663a36a36306040518163ffffffff1660e01b8152600401602060405180830381865afa1580156115d2573d6000803e3d6000fd5b505050506040513d601f19601f820116820180604052508101906115f69190612d79565b9050600061167984611606612248565b73ffffffffffffffffffffffffffffffffffffffff1663ba2de9bc6040518163ffffffff1660e01b8152600401602060405180830381865afa158015611650573d6000803e3d6000fd5b505050506040513d601f19601f820116820180604052508101906116749190612d79565b612324565b905060006116908461168b848661235a565b6123ac565b73ffffffffffffffffffffffffffffffffffffffff8a1660009081526020819052604090209091506116c3908b83612291565b61170473ffffffffffffffffffffffffffffffffffffffff7f0000000000000000000000000000000000000000000000000000000000000000163383612303565b604080513381526020810183905273ffffffffffffffffffffffffffffffffffffffff808c1692908d16917f76f1c54646947e8e8df3eab8141bb3d115d07da2520f8e41b208a17d138a8959910160405180910390a3505050505050505061179660017f1b30fe15febd596dffd21d4da0657732eea42b4b5a9789e3e6daab3d570999d761227790919063ffffffff16565b5050565b6117a2612248565b73ffffffffffffffffffffffffffffffffffffffff16635c975abb6040518163ffffffff1660e01b8152600401602060405180830381865afa1580156117ec573d6000803e3d6000fd5b505050506040513d601f19601f820116820180604052508101906118109190612d3a565b15611847576040517feced32bc00000000000000000000000000000000000000000000000000000000815260040160405180910390fd5b33600081815260016020526040812080549190559061189e907f000000000000000000000000000000000000000000000000000000000000000073ffffffffffffffffffffffffffffffffffffffff169083612303565b60405181815233907f10df095d1434aed409b2f33d2a6a8456f8b0824633cc12a1b43032085aadc41d9060200160405180910390a250565b6118e233848484610336565b505050565b6001806119127f5db5abc19987c2b3729df7961b62b6bb0bae886dd47e3ce25bb3a3af34c6d80b5490565b1061194c576040517f1e7a9d950000000000000000000000000000000000000000000000000000000081526004810182905260240161059b565b6119757f5db5abc19987c2b3729df7961b62b6bb0bae886dd47e3ce25bb3a3af34c6d80b829055565b60017fad57d7911b7e3d6c3c79a68ba909a7f4ba41f9485e5207b12dee0d0c6af5398c556119a2826123b8565b6119aa612498565b60007fad57d7911b7e3d6c3c79a68ba909a7f4ba41f9485e5207b12dee0d0c6af5398c556040518181527fbe9b076dc5b65990cca9dd9d7366682482e7817a6f6bc7f4faf4dc32af497f329060200160405180910390a15050565b611a0d612248565b6040517f7fd2919200000000000000000000000000000000000000000000000000000000815233600482015273ffffffffffffffffffffffffffffffffffffffff9190911690637fd2919290602401602060405180830381865afa158015611a79573d6000803e3d6000fd5b505050506040513d601f19601f82011682018060405250810190611a9d9190612d3a565b611ad5576040517f4d53256500000000000000000000000000000000000000000000000000000000815233600482015260240161059b565b336000818152602081905260408120611aef908585612524565b90508373ffffffffffffffffffffffffffffffffffffffff168273ffffffffffffffffffffffffffffffffffffffff167f40957a7f26dd9f9d628b1aba01d4a3db4c38008974c79a62f6cf0f273a78b3a88584604051611b59929190918252602082015260400190565b60405180910390a350505050565b81611b70612248565b6040517f7fd2919200000000000000000000000000000000000000000000000000000000815273ffffffffffffffffffffffffffffffffffffffff83811660048301529190911690637fd2919290602401602060405180830381865afa158015611bde573d6000803e3d6000fd5b505050506040513d601f19601f82011682018060405250810190611c029190612d3a565b611c50576040517f4d53256500000000000000000000000000000000000000000000000000000000815273ffffffffffffffffffffffffffffffffffffffff8216600482015260240161059b565b611c58612248565b73ffffffffffffffffffffffffffffffffffffffff16635c975abb6040518163ffffffff1660e01b8152600401602060405180830381865afa158015611ca2573d6000803e3d6000fd5b505050506040513d601f19601f82011682018060405250810190611cc69190612d3a565b15611cfd576040517feced32bc00000000000000000000000000000000000000000000000000000000815260040160405180910390fd5b73ffffffffffffffffffffffffffffffffffffffff83166000908152602081905260409020611d2c90836125cf565b611d6d73ffffffffffffffffffffffffffffffffffffffff7f00000000000000000000000000000000000000000000000000000000000000001633846125f2565b8273ffffffffffffffffffffffffffffffffffffffff167f8ae4dab3d718e6b7019e16378795bb41b3046b9117483430a39f7af4ab9bb89383604051611db591815260200190565b60405180910390a2505050565b73ffffffffffffffffffffffffffffffffffffffff808216600090815260208181526040808320938616835292905290812054611063906040517fab582f2900000000000000000000000000000000000000000000000000000000815273ffffffffffffffffffffffffffffffffffffffff868116600483015285169063ab582f2990602401611022565b6002611e777f1b30fe15febd596dffd21d4da0657732eea42b4b5a9789e3e6daab3d570999d75490565b03611eae576040517ff320323600000000000000000000000000000000000000000000000000000000815260040160405180910390fd5b60027f1b30fe15febd596dffd21d4da0657732eea42b4b5a9789e3e6daab3d570999d755611eda612248565b73ffffffffffffffffffffffffffffffffffffffff16635c975abb6040518163ffffffff1660e01b8152600401602060405180830381865afa158015611f24573d6000803e3d6000fd5b505050506040513d601f19601f82011682018060405250810190611f489190612d3a565b15611f7f576040517feced32bc00000000000000000000000000000000000000000000000000000000815260040160405180910390fd5b8273ffffffffffffffffffffffffffffffffffffffff8116611fcd576040517f94c3555f00000000000000000000000000000000000000000000000000000000815260040160405180910390fd5b82611fd6612248565b6040517f7fd2919200000000000000000000000000000000000000000000000000000000815273ffffffffffffffffffffffffffffffffffffffff83811660048301529190911690637fd2919290602401602060405180830381865afa158015612044573d6000803e3d6000fd5b505050506040513d601f19601f820116820180604052508101906120689190612d3a565b6120b6576040517f4d53256500000000000000000000000000000000000000000000000000000000815273ffffffffffffffffffffffffffffffffffffffff8216600482015260240161059b565b73ffffffffffffffffffffffffffffffffffffffff84166000908152602081905260409020859085906120ea908387612614565b61212b73ffffffffffffffffffffffffffffffffffffffff7f00000000000000000000000000000000000000000000000000000000000000001633876125f2565b8573ffffffffffffffffffffffffffffffffffffffff168773ffffffffffffffffffffffffffffffffffffffff167f5548c837ab068cf56a2c2479df0882a4922fd203edb7517321831d95078c5f628760405161218a91815260200190565b60405180910390a373ffffffffffffffffffffffffffffffffffffffff8181166000908152602081815260408083209386168352929052205480158015906121d857506121d8610a8d612248565b1561220f576040517f410d976900000000000000000000000000000000000000000000000000000000815260040160405180910390fd5b50505050506118e260017f1b30fe15febd596dffd21d4da0657732eea42b4b5a9789e3e6daab3d570999d761227790919063ffffffff16565b60006122727f0e555410d8128dff796eab5d29b97dd593ce9cab44a71b64c08244579ea605335490565b905090565b9055565b60006122878383612679565b6001149392505050565b73ffffffffffffffffffffffffffffffffffffffff82166000908152602084905260409020546122c19082612379565b73ffffffffffffffffffffffffffffffffffffffff831660009081526020859052604090205560018301546122f69082612379565b8360010181905550505050565b6118e273ffffffffffffffffffffffffffffffffffffffff841683836126ae565b60006110638383612782565b600061233c8383612679565b6002149392505050565b60006123528383612679565b159392505050565b6000670de0b6b3a764000061236f8385612dc1565b6110639190612dfe565b60006110638284612e39565b60018201546123949082612379565b82600101819055505050565b60006110638284612e50565b60006110638383612799565b303b151580156123e757507fad57d7911b7e3d6c3c79a68ba909a7f4ba41f9485e5207b12dee0d0c6af5398c54155b1561241e576040517f689f12a400000000000000000000000000000000000000000000000000000000815260040160405180910390fd5b73ffffffffffffffffffffffffffffffffffffffff81163b61246c576040517f14878b6900000000000000000000000000000000000000000000000000000000815260040160405180910390fd5b6124957f0e555410d8128dff796eab5d29b97dd593ce9cab44a71b64c08244579ea60533829055565b50565b303b151580156124c757507fad57d7911b7e3d6c3c79a68ba909a7f4ba41f9485e5207b12dee0d0c6af5398c54155b156124fe576040517f689f12a400000000000000000000000000000000000000000000000000000000815260040160405180910390fd5b60017f1b30fe15febd596dffd21d4da0657732eea42b4b5a9789e3e6daab3d570999d755565b73ffffffffffffffffffffffffffffffffffffffff8216600090815260208490526040812054819061256190849061255b906127a8565b90612807565b905061256c81612813565b196125815761257a8161285d565b9150600090505b61258a8161285d565b73ffffffffffffffffffffffffffffffffffffffff851660009081526020879052604090205560028501546125bf90836123a0565b8560020181905550509392505050565b60028201546125de9082612379565b6002830155600182015461239490826123a0565b6118e273ffffffffffffffffffffffffffffffffffffffff8416833084612868565b73ffffffffffffffffffffffffffffffffffffffff821660009081526020849052604090205461264490826123a0565b73ffffffffffffffffffffffffffffffffffffffff831660009081526020859052604090205560018301546122f690826123a0565b600082828082111561269057600292505050611066565b808210156126a357600092505050611066565b506001949350505050565b60405173ffffffffffffffffffffffffffffffffffffffff83166024820152604481018290526118e29084907fa9059cbb00000000000000000000000000000000000000000000000000000000906064015b604080517fffffffffffffffffffffffffffffffffffffffffffffffffffffffffffffffe08184030181529190526020810180517bffffffffffffffffffffffffffffffffffffffffffffffffffffffff167fffffffff00000000000000000000000000000000000000000000000000000000909316929092179091526128c6565b6000818310156127925781611063565b5090919050565b60008183106127925781611063565b6000817f7fffffffffffffffffffffffffffffffffffffffffffffffffffffffffffffff811115611066576040517ea07eb50000000000000000000000000000000000000000000000000000000081526004810182905260240161059b565b60006110638284612e68565b60008082131561282557506001919050565b600082121561285557507fffffffffffffffffffffffffffffffffffffffffffffffffffffffffffffffff919050565b506000919050565b6000611066826129d2565b60405173ffffffffffffffffffffffffffffffffffffffff80851660248301528316604482015260648101829052610b759085907f23b872dd0000000000000000000000000000000000000000000000000000000090608401612700565b6000612928826040518060400160405280602081526020017f5361666545524332303a206c6f772d6c6576656c2063616c6c206661696c65648152508573ffffffffffffffffffffffffffffffffffffffff166129e99092919063ffffffff16565b8051909150156118e257808060200190518101906129469190612d3a565b6118e2576040517f08c379a000000000000000000000000000000000000000000000000000000000815260206004820152602a60248201527f5361666545524332303a204552433230206f7065726174696f6e20646964206e60448201527f6f74207375636365656400000000000000000000000000000000000000000000606482015260840161059b565b6000808212156129e55781600003611066565b5090565b60606129f88484600085612a02565b90505b9392505050565b606082471015612a94576040517f08c379a000000000000000000000000000000000000000000000000000000000815260206004820152602660248201527f416464726573733a20696e73756666696369656e742062616c616e636520666f60448201527f722063616c6c0000000000000000000000000000000000000000000000000000606482015260840161059b565b73ffffffffffffffffffffffffffffffffffffffff85163b612b12576040517f08c379a000000000000000000000000000000000000000000000000000000000815260206004820152601d60248201527f416464726573733a2063616c6c20746f206e6f6e2d636f6e7472616374000000604482015260640161059b565b6000808673ffffffffffffffffffffffffffffffffffffffff168587604051612b3b9190612f08565b60006040518083038185875af1925050503d8060008114612b78576040519150601f19603f3d011682016040523d82523d6000602084013e612b7d565b606091505b5091509150612b8d828286612b98565b979650505050505050565b60608315612ba75750816129fb565b825115612bb75782518084602001fd5b816040517f08c379a000000000000000000000000000000000000000000000000000000000815260040161059b9190612f24565b73ffffffffffffffffffffffffffffffffffffffff8116811461249557600080fd5b60008060008060808587031215612c2357600080fd5b8435612c2e81612beb565b93506020850135612c3e81612beb565b92506040850135612c4e81612beb565b9396929550929360600135925050565b600060208284031215612c7057600080fd5b5035919050565b60008060408385031215612c8a57600080fd5b8235612c9581612beb565b91506020830135612ca581612beb565b809150509250929050565b600060208284031215612cc257600080fd5b81356129fb81612beb565b600080600060608486031215612ce257600080fd5b8335612ced81612beb565b92506020840135612cfd81612beb565b929592945050506040919091013590565b60008060408385031215612d2157600080fd5b8235612d2c81612beb565b946020939093013593505050565b600060208284031215612d4c57600080fd5b815180151581146129fb57600080fd5b600060208284031215612d6e57600080fd5b81516129fb81612beb565b600060208284031215612d8b57600080fd5b5051919050565b7f4e487b7100000000000000000000000000000000000000000000000000000000600052601160045260246000fd5b6000817fffffffffffffffffffffffffffffffffffffffffffffffffffffffffffffffff0483118215151615612df957612df9612d92565b500290565b600082612e34577f4e487b7100000000000000000000000000000000000000000000000000000000600052601260045260246000fd5b500490565b600082821015612e4b57612e4b612d92565b500390565b60008219821115612e6357612e63612d92565b500190565b6000808212827f7fffffffffffffffffffffffffffffffffffffffffffffffffffffffffffffff03841381151615612ea257612ea2612d92565b827f8000000000000000000000000000000000000000000000000000000000000000038412811615612ed657612ed6612d92565b50500190565b60005b83811015612ef7578181015183820152602001612edf565b83811115610b755750506000910152565b60008251612f1a818460208701612edc565b9190910192915050565b6020815260008251806020840152612f43816040850160208701612edc565b601f017fffffffffffffffffffffffffffffffffffffffffffffffffffffffffffffffe016919091016040019291505056fea2646970667358221220732a0985dee86455e766ea21677d2d95f99bab4d77c449aeb6f2914bd1d73f2e64736f6c634300080f0033",
  "devdoc": {
    "kind": "dev",
    "methods": {
      "collateral(address)": {
        "params": {
          "product": "Product to return for"
        },
        "returns": {
          "_0": "The total balance of collateral in the product"
        }
      },
      "collateral(address,address)": {
        "params": {
          "account": "Account to return for",
          "product": "Product to return for"
        },
        "returns": {
          "_0": "The balance of the collateral account"
        }
      },
      "constructor": {
        "details": "Called at implementation instantiate and constant for that implementation.",
        "params": {
          "token_": "Collateral ERC20 stablecoin address"
        }
      },
      "depositTo(address,address,uint256)": {
        "params": {
          "account": "Account to deposit the collateral for",
          "amount": "Amount of collateral to deposit",
          "product": "Product to credit the collateral to"
        }
      },
      "initialize(address)": {
        "details": "Must be called atomically as part of the upgradeable proxy deployment to      avoid front-running",
        "params": {
          "controller_": "Factory contract address"
        }
      },
      "liquidatable(address,address)": {
        "params": {
          "account": "Account to return for",
          "product": "Product to return for"
        },
        "returns": {
          "_0": "Whether the account can be liquidated"
        }
      },
      "liquidatableNext(address,address)": {
        "details": "Takes into account the current pre-position on the account",
        "params": {
          "account": "Account to return for",
          "product": "Product to return for"
        },
        "returns": {
          "_0": "Whether the account can be liquidated"
        }
      },
      "liquidate(address,address)": {
        "details": "Account must be under-collateralized, fee returned immediately to `msg.sender`",
        "params": {
          "account": "Account to liquidate",
          "product": "Product to liquidate for"
        }
      },
      "resolveShortfall(address,uint256)": {
        "details": "Shortfall is a measure of settled insolvency in the market      This hook can be used by the product owner or an insurance fund to re-capitalize an insolvent market",
        "params": {
          "amount": "Amount of shortfall to resolve",
          "product": "Product to resolve shortfall for"
        }
      },
      "settleAccount(address,int256)": {
        "details": "Callable only by the corresponding product as part of the settlement flywheel.      Moves collateral within a product, any collateral leaving the product due to      fees has already been accounted for in the settleProduct flywheel.      Debits in excess of the account balance get recorded as shortfall, and can be      resolved by the product owner as needed.",
        "params": {
          "account": "Account to credit",
          "amount": "Amount to credit the account (can be negative)"
        }
      },
      "settleProduct(uint256)": {
        "details": "Callable only by the corresponding product as part of the settlement flywheel      Removes collateral from the product as fees.",
        "params": {
          "amount": "Amount to debit from the account"
        }
      },
      "shortfall(address)": {
        "params": {
          "product": "Product to return for"
        },
        "returns": {
          "_0": "The current shortfall of the product"
        }
      },
      "withdrawFrom(address,address,address,uint256)": {
        "params": {
          "account": "Account to withdraw the collateral from",
          "amount": "Amount of collateral to withdraw",
          "product": "Product to withdraw the collateral from",
          "receiver": "Account to withdraw the collateral to"
        }
      },
      "withdrawTo(address,address,uint256)": {
        "params": {
          "amount": "Amount of collateral to withdraw",
          "product": "Product to withdraw the collateral from",
          "receiver": "Account to withdraw the collateral to"
        }
      }
    },
    "stateVariables": {
      "_products": {
        "details": "Per product collateral state"
      },
      "fees": {
        "details": "Protocol and product fees collected, but not yet claimed"
      },
      "token": {
        "details": "ERC20 stablecoin for collateral"
      }
    },
    "title": "Collateral",
    "version": 1
  },
  "userdoc": {
    "kind": "user",
    "methods": {
      "claimFee()": {
        "notice": "Claims all of `msg.sender`'s fees"
      },
      "collateral(address)": {
        "notice": "Returns the total balance of `product`'s collateral"
      },
      "collateral(address,address)": {
        "notice": "Returns the balance of `account`'s `product` collateral account"
      },
      "constructor": {
        "notice": "Initializes the immutable contract state"
      },
      "depositTo(address,address,uint256)": {
        "notice": "Deposits `amount` collateral from `msg.sender` to `account`'s `product`         account"
      },
      "initialize(address)": {
        "notice": "Initializes the contract state"
      },
      "liquidatable(address,address)": {
        "notice": "Returns whether `account`'s `product` collateral account can be liquidated"
      },
      "liquidatableNext(address,address)": {
        "notice": "Returns whether `account`'s `product` collateral account can be liquidated         after the next oracle version settlement"
      },
      "liquidate(address,address)": {
        "notice": "Liquidates `account`'s `product` collateral account"
      },
      "resolveShortfall(address,uint256)": {
        "notice": "Injects additional collateral into a product to resolve shortfall"
      },
      "settleAccount(address,int256)": {
        "notice": "Credits `amount` to `account`'s collateral account"
      },
      "settleProduct(uint256)": {
        "notice": "Debits `amount` from product's total collateral account"
      },
      "shortfall(address)": {
        "notice": "Returns the current shortfall of `product`'s collateral"
      },
      "withdrawFrom(address,address,address,uint256)": {
        "notice": "Withdraws `amount` collateral from `account`'s `product` account         and sends it to `receiver`"
      },
      "withdrawTo(address,address,uint256)": {
        "notice": "Withdraws `amount` collateral from `msg.sender`'s `product` account         and sends it to `receiver`"
      }
    },
    "notice": "Manages logic and state for all collateral accounts in the protocol.",
    "version": 1
  },
  "storageLayout": {
    "storage": [
      {
        "astId": 11201,
        "contract": "contracts/collateral/Collateral.sol:Collateral",
        "label": "_products",
        "offset": 0,
        "slot": "0",
        "type": "t_mapping(t_contract(IProduct)17416,t_struct(OptimisticLedger)11934_storage)"
      },
      {
        "astId": 11207,
        "contract": "contracts/collateral/Collateral.sol:Collateral",
        "label": "fees",
        "offset": 0,
        "slot": "1",
        "type": "t_mapping(t_address,t_userDefinedValueType(UFixed18)3611)"
      }
    ],
    "types": {
      "t_address": {
        "encoding": "inplace",
        "label": "address",
        "numberOfBytes": "20"
      },
      "t_contract(IProduct)17416": {
        "encoding": "inplace",
        "label": "contract IProduct",
        "numberOfBytes": "20"
      },
      "t_mapping(t_address,t_userDefinedValueType(UFixed18)3611)": {
        "encoding": "mapping",
        "key": "t_address",
        "label": "mapping(address => UFixed18)",
        "numberOfBytes": "32",
        "value": "t_userDefinedValueType(UFixed18)3611"
      },
      "t_mapping(t_contract(IProduct)17416,t_struct(OptimisticLedger)11934_storage)": {
        "encoding": "mapping",
        "key": "t_contract(IProduct)17416",
        "label": "mapping(contract IProduct => struct OptimisticLedger)",
        "numberOfBytes": "32",
        "value": "t_struct(OptimisticLedger)11934_storage"
      },
      "t_struct(OptimisticLedger)11934_storage": {
        "encoding": "inplace",
        "label": "struct OptimisticLedger",
        "members": [
          {
            "astId": 11925,
            "contract": "contracts/collateral/Collateral.sol:Collateral",
            "label": "balances",
            "offset": 0,
            "slot": "0",
            "type": "t_mapping(t_address,t_userDefinedValueType(UFixed18)3611)"
          },
          {
            "astId": 11929,
            "contract": "contracts/collateral/Collateral.sol:Collateral",
            "label": "total",
            "offset": 0,
            "slot": "1",
            "type": "t_userDefinedValueType(UFixed18)3611"
          },
          {
            "astId": 11933,
            "contract": "contracts/collateral/Collateral.sol:Collateral",
            "label": "shortfall",
            "offset": 0,
            "slot": "2",
            "type": "t_userDefinedValueType(UFixed18)3611"
          }
        ],
        "numberOfBytes": "96"
      },
      "t_userDefinedValueType(UFixed18)3611": {
        "encoding": "inplace",
        "label": "UFixed18",
        "numberOfBytes": "32"
      }
    }
  }
}