{
  "address": "0x8D89B54276E50E8400d51aec2312340Fd0e4c006",
  "abi": [
    {
      "inputs": [
        {
          "internalType": "Token6",
          "name": "usdc",
          "type": "address"
        },
        {
          "internalType": "contract IBatcher",
          "name": "_batcher",
          "type": "address"
        },
        {
          "internalType": "contract IEmptySetReserve",
          "name": "_reserve",
          "type": "address"
        },
        {
          "internalType": "contract IController",
          "name": "_controller",
          "type": "address"
        }
      ],
      "stateMutability": "nonpayable",
      "type": "constructor"
    },
    {
      "inputs": [],
      "name": "MultiInvokerRollupInvalidCalldataError",
      "type": "error"
    },
    {
      "inputs": [
        {
          "internalType": "uint256",
          "name": "version",
          "type": "uint256"
        }
      ],
      "name": "UInitializableAlreadyInitializedError",
      "type": "error"
    },
    {
      "inputs": [],
      "name": "UInitializableNotInitializingError",
      "type": "error"
    },
    {
      "inputs": [],
      "name": "UInitializableZeroVersionError",
      "type": "error"
    },
    {
      "anonymous": false,
      "inputs": [
        {
          "indexed": true,
          "internalType": "address",
          "name": "addr",
          "type": "address"
        },
        {
          "indexed": false,
          "internalType": "uint256",
          "name": "nonce",
          "type": "uint256"
        }
      ],
      "name": "AddressAddedToCache",
      "type": "event"
    },
    {
      "anonymous": false,
      "inputs": [
        {
          "indexed": false,
          "internalType": "uint256",
          "name": "version",
          "type": "uint256"
        }
      ],
      "name": "Initialized",
      "type": "event"
    },
    {
      "stateMutability": "nonpayable",
      "type": "fallback"
    },
    {
      "inputs": [],
      "name": "DSU",
      "outputs": [
        {
          "internalType": "Token18",
          "name": "",
          "type": "address"
        }
      ],
      "stateMutability": "view",
      "type": "function"
    },
    {
      "inputs": [],
      "name": "USDC",
      "outputs": [
        {
          "internalType": "Token6",
          "name": "",
          "type": "address"
        }
      ],
      "stateMutability": "view",
      "type": "function"
    },
    {
      "inputs": [
        {
          "internalType": "uint256",
          "name": "",
          "type": "uint256"
        }
      ],
      "name": "addressCache",
      "outputs": [
        {
          "internalType": "address",
          "name": "",
          "type": "address"
        }
      ],
      "stateMutability": "view",
      "type": "function"
    },
    {
      "inputs": [
        {
          "internalType": "address",
          "name": "",
          "type": "address"
        }
      ],
      "name": "addressLookup",
      "outputs": [
        {
          "internalType": "uint256",
          "name": "",
          "type": "uint256"
        }
      ],
      "stateMutability": "view",
      "type": "function"
    },
    {
      "inputs": [],
      "name": "batcher",
      "outputs": [
        {
          "internalType": "contract IBatcher",
          "name": "",
          "type": "address"
        }
      ],
      "stateMutability": "view",
      "type": "function"
    },
    {
      "inputs": [],
      "name": "collateral",
      "outputs": [
        {
          "internalType": "contract ICollateral",
          "name": "",
          "type": "address"
        }
      ],
      "stateMutability": "view",
      "type": "function"
    },
    {
      "inputs": [],
      "name": "controller",
      "outputs": [
        {
          "internalType": "contract IController",
          "name": "",
          "type": "address"
        }
      ],
      "stateMutability": "view",
      "type": "function"
    },
    {
      "inputs": [],
      "name": "initialize",
      "outputs": [],
      "stateMutability": "nonpayable",
      "type": "function"
    },
    {
      "inputs": [
        {
          "components": [
            {
              "internalType": "enum IMultiInvoker.PerennialAction",
              "name": "action",
              "type": "uint8"
            },
            {
              "internalType": "bytes",
              "name": "args",
              "type": "bytes"
            }
          ],
          "internalType": "struct IMultiInvoker.Invocation[]",
          "name": "invocations",
          "type": "tuple[]"
        }
      ],
      "name": "invoke",
      "outputs": [],
      "stateMutability": "nonpayable",
      "type": "function"
    },
    {
      "inputs": [],
      "name": "reserve",
      "outputs": [
        {
          "internalType": "contract IEmptySetReserve",
          "name": "",
          "type": "address"
        }
      ],
      "stateMutability": "view",
      "type": "function"
    }
  ],
  "transactionHash": "0x857ae23904225cd252db3b4c5dd4a07cd4c8c9e3f40e8c0fca36f163434ed284",
  "args": [
    "0x6775842AE82BF2F0f987b10526768Ad89d79536E",
    "0x0000000000000000000000000000000000000000",
    "0x0d49c416103Cbd276d9c3cd96710dB264e3A0c27",
    "0x6cF1A4373ba7D10bC37fAeC4694807B626B7f161"
  ],
  "numDeployments": 3,
  "solcInputHash": "181d5952a5d0fca85831e55cf8991318",
  "bytecode": "0x6101406040523480156200001257600080fd5b506040516200333538038062003335833981016040819052620000359162000207565b6001600160a01b0380851660805280841660c052811660e08190526040805163d8dfeb4560e01b8152905186928692869286929163d8dfeb459160048083019260209291908290030181865afa15801562000094573d6000803e3d6000fd5b505050506040513d601f19601f82011682018060405250810190620000ba91906200026f565b6001600160a01b031661010081905260408051637e062a3560e11b8152905163fc0c546a916004808201926020929091908290030181865afa15801562000105573d6000803e3d6000fd5b505050506040513d601f19601f820116820180604052508101906200012b91906200026f565b6001600160a01b0390811660a052919091166101205250620001529150600090506200015c565b5050505062000296565b60008054600180820183557f290decd9548b62a8d60345a988386fc84ba6bc95484008f6362f93160ef3e563820180546001600160a01b0319166001600160a01b038616908117909155808452602091825260409384902083905592518281529192917fd9643d04a6ca8b6a112ed2bb7b77a6087a6d23739fb4cfd7c813fb3a001c3096910160405180910390a25050565b6001600160a01b03811681146200020457600080fd5b50565b600080600080608085870312156200021e57600080fd5b84516200022b81620001ee565b60208601519094506200023e81620001ee565b60408601519093506200025181620001ee565b60608601519092506200026481620001ee565b939692955090935050565b6000602082840312156200028257600080fd5b81516200028f81620001ee565b9392505050565b60805160a05160c05160e0516101005161012051612f1c62000419600039600081816101a10152818161096c015281816109ce01528181610a2e01528181610a9001528181611d260152611f450152600081816101c8015281816108aa0152818161090c01528181611206015281816112c20152611743015260008181610230015261153a01526000818160e5015281816106b00152818161072601528181610788015281816107e80152818161084a01528181611c4c01528181611cc701528181611e4101528181611e7201528181611eed0152612060015260008181610167015281816107040152818161076601528181610888015281816108ea0152818161094a015281816109ac0152818161118b0152818161166d015281816117c30152818161180401528181611ca50152611dce015260008181610140015281816107c60152818161082801528181610a0c01528181610a6e0152818161161c015281816116b80152818161194d01528181611ecb0152611fed0152612f1c6000f3fe608060405234801561001057600080fd5b50600436106100be5760003560e01c8063cd3293de11610076578063e56d831e1161005b578063e56d831e146101ea578063f202bc05146101fd578063f77c47911461022b576100be565b8063cd3293de1461019c578063d8dfeb45146101c3576100be565b806389a30271116100a757806389a302711461013b578063a2060bcf14610162578063bdec4a2714610189576100be565b8063025a3a29146100e05780638129fc1c14610131575b60003660606100cd8383610252565b5050604080516020810190915260009052005b6101077f000000000000000000000000000000000000000000000000000000000000000081565b60405173ffffffffffffffffffffffffffffffffffffffff90911681526020015b60405180910390f35b6101396105f7565b005b6101077f000000000000000000000000000000000000000000000000000000000000000081565b6101077f000000000000000000000000000000000000000000000000000000000000000081565b6101396101973660046127f0565b610b0e565b6101077f000000000000000000000000000000000000000000000000000000000000000081565b6101077f000000000000000000000000000000000000000000000000000000000000000081565b6101076101f8366004612865565b610f80565b61021d61020b3660046128a3565b60016020526000908152604090205481565b604051908152602001610128565b6101077f000000000000000000000000000000000000000000000000000000000000000081565b604080516020810190915260008152815b81518111156105f1576000610279858585610fb7565b90508060ff166001036102c657600061029386868661102f565b905060006102a287878761102f565b905060006102b188888861115a565b90506102be838383611171565b5050506105eb565b8060ff166002036103095760006102de86868661102f565b905060006102ed87878761102f565b905060006102fc88888861115a565b90506102be838383611268565b8060ff1660030361034357600061032186868661102f565b9050600061033087878761115a565b905061033c82826112f1565b50506105eb565b8060ff1660040361037657600061035b86868661102f565b9050600061036a87878761115a565b905061033c828261137c565b8060ff166005036103a957600061038e86868661102f565b9050600061039d87878761115a565b905061033c82826113d5565b8060ff166006036103dc5760006103c186868661102f565b905060006103d087878761115a565b905061033c828261142e565b8060ff1660070361040f5760006103f486868661102f565b90506000610403878787611487565b905061033c8282611538565b8060ff1660080361044257600061042786868661102f565b9050600061043687878761115a565b905061033c8282611602565b8060ff1660090361047557600061045a86868661102f565b9050600061046987878761115a565b905061033c8282611653565b8060ff16600a036104b857600061048d86868661102f565b9050600061049c87878761102f565b905060006104ab88888861115a565b90506102be83838361169e565b8060ff16600b036104fb5760006104d086868661102f565b905060006104df87878761102f565b905060006104ee88888861115a565b90506102be8383836116eb565b8060ff16600c0361053e57600061051386868661102f565b9050600061052287878761102f565b9050600061053188888861115a565b90506102be8383836117a9565b8060ff16600d0361057157600061055686868661102f565b9050600061056587878761115a565b905061033c8282611886565b8060ff16600e036105a457600061058986868661102f565b9050600061059887878761102f565b905061033c81836118df565b8060ff16600f036105eb5760006105bc86868661102f565b905060006105cb87878761102f565b905060006105da88888861115a565b90506105e7838383611933565b5050505b50610263565b50505050565b6002806106227f5db5abc19987c2b3729df7961b62b6bb0bae886dd47e3ce25bb3a3af34c6d80b5490565b10610661576040517f1e7a9d95000000000000000000000000000000000000000000000000000000008152600481018290526024015b60405180910390fd5b61068a7f5db5abc19987c2b3729df7961b62b6bb0bae886dd47e3ce25bb3a3af34c6d80b829055565b60017fad57d7911b7e3d6c3c79a68ba909a7f4ba41f9485e5207b12dee0d0c6af5398c557f000000000000000000000000000000000000000000000000000000000000000073ffffffffffffffffffffffffffffffffffffffff161561086e5761074c73ffffffffffffffffffffffffffffffffffffffff7f0000000000000000000000000000000000000000000000000000000000000000167f00000000000000000000000000000000000000000000000000000000000000006000611980565b6107ac73ffffffffffffffffffffffffffffffffffffffff7f0000000000000000000000000000000000000000000000000000000000000000167f00000000000000000000000000000000000000000000000000000000000000006119a1565b61080e73ffffffffffffffffffffffffffffffffffffffff7f0000000000000000000000000000000000000000000000000000000000000000167f000000000000000000000000000000000000000000000000000000000000000060006119e2565b61086e73ffffffffffffffffffffffffffffffffffffffff7f0000000000000000000000000000000000000000000000000000000000000000167f00000000000000000000000000000000000000000000000000000000000000006119a1565b6108d073ffffffffffffffffffffffffffffffffffffffff7f0000000000000000000000000000000000000000000000000000000000000000167f00000000000000000000000000000000000000000000000000000000000000006000611980565b61093073ffffffffffffffffffffffffffffffffffffffff7f0000000000000000000000000000000000000000000000000000000000000000167f00000000000000000000000000000000000000000000000000000000000000006119a1565b61099273ffffffffffffffffffffffffffffffffffffffff7f0000000000000000000000000000000000000000000000000000000000000000167f00000000000000000000000000000000000000000000000000000000000000006000611980565b6109f273ffffffffffffffffffffffffffffffffffffffff7f0000000000000000000000000000000000000000000000000000000000000000167f00000000000000000000000000000000000000000000000000000000000000006119a1565b610a5473ffffffffffffffffffffffffffffffffffffffff7f0000000000000000000000000000000000000000000000000000000000000000167f000000000000000000000000000000000000000000000000000000000000000060006119e2565b610ab473ffffffffffffffffffffffffffffffffffffffff7f0000000000000000000000000000000000000000000000000000000000000000167f00000000000000000000000000000000000000000000000000000000000000006119a1565b60007fad57d7911b7e3d6c3c79a68ba909a7f4ba41f9485e5207b12dee0d0c6af5398c556040518181527fbe9b076dc5b65990cca9dd9d7366682482e7817a6f6bc7f4faf4dc32af497f329060200160405180910390a150565b60005b81811015610f7b576000838383818110610b2d57610b2d6128c0565b9050602002810190610b3f91906128ef565b610b48906129d4565b905060018151600f811115610b5f57610b5f612aa4565b03610b9a5760008060008360200151806020019051810190610b819190612ad3565b925092509250610b92838383611171565b505050610f68565b60028151600f811115610baf57610baf612aa4565b03610be25760008060008360200151806020019051810190610bd19190612ad3565b925092509250610b92838383611268565b60038151600f811115610bf757610bf7612aa4565b03610c2c576000808260200151806020019051810190610c179190612b16565b91509150610c2582826112f1565b5050610f68565b60048151600f811115610c4157610c41612aa4565b03610c6f576000808260200151806020019051810190610c619190612b16565b91509150610c25828261137c565b60058151600f811115610c8457610c84612aa4565b03610cb2576000808260200151806020019051810190610ca49190612b16565b91509150610c2582826113d5565b60068151600f811115610cc757610cc7612aa4565b03610cf5576000808260200151806020019051810190610ce79190612b16565b91509150610c25828261142e565b60078151600f811115610d0a57610d0a612aa4565b03610d38576000808260200151806020019051810190610d2a9190612b44565b91509150610c258282611538565b60088151600f811115610d4d57610d4d612aa4565b03610d7b576000808260200151806020019051810190610d6d9190612b16565b91509150610c258282611602565b60098151600f811115610d9057610d90612aa4565b03610dbe576000808260200151806020019051810190610db09190612b16565b91509150610c258282611653565b600a8151600f811115610dd357610dd3612aa4565b03610e065760008060008360200151806020019051810190610df59190612ad3565b925092509250610b9283838361169e565b600b8151600f811115610e1b57610e1b612aa4565b03610e4e5760008060008360200151806020019051810190610e3d9190612ad3565b925092509250610b928383836116eb565b600c8151600f811115610e6357610e63612aa4565b03610e965760008060008360200151806020019051810190610e859190612ad3565b925092509250610b928383836117a9565b600d8151600f811115610eab57610eab612aa4565b03610ed9576000808260200151806020019051810190610ecb9190612b16565b91509150610c258282611886565b600e8151600f811115610eee57610eee612aa4565b03610f1c576000808260200151806020019051810190610f0e9190612c01565b91509150610c2581836118df565b600f8151600f811115610f3157610f31612aa4565b03610f685760008060008360200151806020019051810190610f539190612ad3565b925092509250610f64838383611933565b5050505b5080610f7381612c6a565b915050610b11565b505050565b60008181548110610f9057600080fd5b60009182526020909120015473ffffffffffffffffffffffffffffffffffffffff16905081565b805160009061101590859085610fce826001612ca2565b92610fdb93929190612cba565b8080601f016020809104026020016040519081016040528093929190818152602001838380828437600092019190915250611a0f92505050565b905081600001805161102690612c6a565b90529392505050565b60008061103d858585610fb7565b90508060ff166000036110cb5782516110a59086908661105e826014612ca2565b9261106b93929190612cba565b8080601f016020809104026020016040519081016040528093929190818152602001838380828437600092019190915250611a1692505050565b91506014836000018181516110ba9190612ca2565b9052506110c682611a1d565b611152565b825160009061112b908790876110e460ff871683612ca2565b926110f193929190612cba565b8080601f016020809104026020016040519081016040528093929190818152602001838380828437600092019190915250611ad492505050565b90508160ff16846000018181516111429190612ca2565b90525061114e81611b3c565b9250505b509392505050565b6000611167848484611bb0565b90505b9392505050565b6111b273ffffffffffffffffffffffffffffffffffffffff7f0000000000000000000000000000000000000000000000000000000000000000163383611bfa565b6040517ff213159c00000000000000000000000000000000000000000000000000000000815273ffffffffffffffffffffffffffffffffffffffff84811660048301528381166024830152604482018390527f0000000000000000000000000000000000000000000000000000000000000000169063f213159c906064015b600060405180830381600087803b15801561124b57600080fd5b505af115801561125f573d6000803e3d6000fd5b50505050505050565b6040517f2644131800000000000000000000000000000000000000000000000000000000815233600482015273ffffffffffffffffffffffffffffffffffffffff84811660248301528381166044830152606482018390527f00000000000000000000000000000000000000000000000000000000000000001690632644131890608401611231565b6040517f9378bf7b0000000000000000000000000000000000000000000000000000000081523360048201526024810182905273ffffffffffffffffffffffffffffffffffffffff831690639378bf7b906044015b600060405180830381600087803b15801561136057600080fd5b505af1158015611374573d6000803e3d6000fd5b505050505050565b6040517f2131ea4a0000000000000000000000000000000000000000000000000000000081523360048201526024810182905273ffffffffffffffffffffffffffffffffffffffff831690632131ea4a90604401611346565b6040517f2d2e52be0000000000000000000000000000000000000000000000000000000081523360048201526024810182905273ffffffffffffffffffffffffffffffffffffffff831690632d2e52be90604401611346565b6040517fe503b0070000000000000000000000000000000000000000000000000000000081523360048201526024810182905273ffffffffffffffffffffffffffffffffffffffff83169063e503b00790604401611346565b60606000611496858585610fb7565b905060008160ff1667ffffffffffffffff8111156114b6576114b661292d565b6040519080825280602002602001820160405280156114df578160200160208202803683370190505b50905060005b8260ff1681101561152e5760006114fd888888611bb0565b905080838381518110611512576115126128c0565b602090810291909101015261152682612c6a565b9150506114e5565b5095945050505050565b7f000000000000000000000000000000000000000000000000000000000000000073ffffffffffffffffffffffffffffffffffffffff16636fc6407c6040518163ffffffff1660e01b8152600401602060405180830381865afa1580156115a3573d6000803e3d6000fd5b505050506040513d601f19601f820116820180604052508101906115c79190612ce4565b73ffffffffffffffffffffffffffffffffffffffff16628240533384846040518463ffffffff1660e01b815260040161134693929190612d01565b61164573ffffffffffffffffffffffffffffffffffffffff7f00000000000000000000000000000000000000000000000000000000000000001633836001611c1c565b61164f8282611c4a565b5050565b61169473ffffffffffffffffffffffffffffffffffffffff7f0000000000000000000000000000000000000000000000000000000000000000163383611bfa565b61164f8282611e70565b6116e173ffffffffffffffffffffffffffffffffffffffff7f00000000000000000000000000000000000000000000000000000000000000001633836001611c1c565b6111b23082611602565b6040517f2644131800000000000000000000000000000000000000000000000000000000815233600482015230602482015273ffffffffffffffffffffffffffffffffffffffff8381166044830152606482018390527f00000000000000000000000000000000000000000000000000000000000000001690632644131890608401600060405180830381600087803b15801561178757600080fd5b505af115801561179b573d6000803e3d6000fd5b50505050610f7b8382611653565b6117ea73ffffffffffffffffffffffffffffffffffffffff7f0000000000000000000000000000000000000000000000000000000000000000163383611bfa565b61182b73ffffffffffffffffffffffffffffffffffffffff7f0000000000000000000000000000000000000000000000000000000000000000168383611980565b6040517f6e553f650000000000000000000000000000000000000000000000000000000081526004810182905273ffffffffffffffffffffffffffffffffffffffff8481166024830152831690636e553f6590604401611231565b6040517f7bde82f20000000000000000000000000000000000000000000000000000000081526004810182905233602482015273ffffffffffffffffffffffffffffffffffffffff831690637bde82f290604401611346565b6040517f1e83409a00000000000000000000000000000000000000000000000000000000815273ffffffffffffffffffffffffffffffffffffffff8281166004830152831690631e83409a90602401611346565b61197673ffffffffffffffffffffffffffffffffffffffff7f00000000000000000000000000000000000000000000000000000000000000001633836001611c1c565b6117ea3082611602565b610f7b73ffffffffffffffffffffffffffffffffffffffff8416838361208f565b61164f73ffffffffffffffffffffffffffffffffffffffff8316827fffffffffffffffffffffffffffffffffffffffffffffffffffffffffffffffff61208f565b610f7b826119f183600061228f565b73ffffffffffffffffffffffffffffffffffffffff8616919061208f565b6001015190565b6014015190565b60008054600180820183557f290decd9548b62a8d60345a988386fc84ba6bc95484008f6362f93160ef3e563820180547fffffffffffffffffffffffff00000000000000000000000000000000000000001673ffffffffffffffffffffffffffffffffffffffff8616908117909155808452602091825260409384902083905592518281529192917fd9643d04a6ca8b6a112ed2bb7b77a6087a6d23739fb4cfd7c813fb3a001c3096910160405180910390a25050565b80516000906020811115611b14576040517f56c4491100000000000000000000000000000000000000000000000000000000815260040160405180910390fd5b60208301519150611b26816008612d71565b611b3290610100612dae565b9190911c92915050565b6000808281548110611b5057611b506128c0565b60009182526020909120015473ffffffffffffffffffffffffffffffffffffffff16905080611bab576040517f56c4491100000000000000000000000000000000000000000000000000000000815260040160405180910390fd5b919050565b600080611bbe858585610fb7565b8351909150611bd7908690866110e460ff861683612ca2565b91508060ff1683600001818151611bee9190612ca2565b90525090949350505050565b610f7b73ffffffffffffffffffffffffffffffffffffffff84168330846122c2565b6105f18330611c2b858561228f565b73ffffffffffffffffffffffffffffffffffffffff88169291906122c2565b7f000000000000000000000000000000000000000000000000000000000000000073ffffffffffffffffffffffffffffffffffffffff161580611cf25750611cf2611ceb73ffffffffffffffffffffffffffffffffffffffff7f0000000000000000000000000000000000000000000000000000000000000000167f0000000000000000000000000000000000000000000000000000000000000000612320565b82906123b4565b15611df5576040517fa0712d68000000000000000000000000000000000000000000000000000000008152600481018290527f000000000000000000000000000000000000000000000000000000000000000073ffffffffffffffffffffffffffffffffffffffff169063a0712d6890602401600060405180830381600087803b158015611d7f57600080fd5b505af1158015611d93573d6000803e3d6000fd5b5050505073ffffffffffffffffffffffffffffffffffffffff8216301461164f5761164f73ffffffffffffffffffffffffffffffffffffffff7f00000000000000000000000000000000000000000000000000000000000000001683836123ca565b6040517f13bac8200000000000000000000000000000000000000000000000000000000081526004810182905273ffffffffffffffffffffffffffffffffffffffff83811660248301527f000000000000000000000000000000000000000000000000000000000000000016906313bac82090604401611346565b7f000000000000000000000000000000000000000000000000000000000000000073ffffffffffffffffffffffffffffffffffffffff161580611f115750611f11611ceb73ffffffffffffffffffffffffffffffffffffffff7f0000000000000000000000000000000000000000000000000000000000000000167f00000000000000000000000000000000000000000000000000000000000000006123eb565b15612014576040517fdb006a75000000000000000000000000000000000000000000000000000000008152600481018290527f000000000000000000000000000000000000000000000000000000000000000073ffffffffffffffffffffffffffffffffffffffff169063db006a7590602401600060405180830381600087803b158015611f9e57600080fd5b505af1158015611fb2573d6000803e3d6000fd5b5050505073ffffffffffffffffffffffffffffffffffffffff8216301461164f5761164f73ffffffffffffffffffffffffffffffffffffffff7f0000000000000000000000000000000000000000000000000000000000000000168383612487565b6040517f7647691d0000000000000000000000000000000000000000000000000000000081526004810182905273ffffffffffffffffffffffffffffffffffffffff83811660248301527f00000000000000000000000000000000000000000000000000000000000000001690637647691d90604401611346565b80158061212f57506040517fdd62ed3e00000000000000000000000000000000000000000000000000000000815230600482015273ffffffffffffffffffffffffffffffffffffffff838116602483015284169063dd62ed3e90604401602060405180830381865afa158015612109573d6000803e3d6000fd5b505050506040513d601f19601f8201168201806040525081019061212d9190612dc5565b155b6121bb576040517f08c379a000000000000000000000000000000000000000000000000000000000815260206004820152603660248201527f5361666545524332303a20617070726f76652066726f6d206e6f6e2d7a65726f60448201527f20746f206e6f6e2d7a65726f20616c6c6f77616e6365000000000000000000006064820152608401610658565b60405173ffffffffffffffffffffffffffffffffffffffff8316602482015260448101829052610f7b9084907f095ea7b300000000000000000000000000000000000000000000000000000000906064015b604080517fffffffffffffffffffffffffffffffffffffffffffffffffffffffffffffffe08184030181529190526020810180517bffffffffffffffffffffffffffffffffffffffffffffffffffffffff167fffffffff00000000000000000000000000000000000000000000000000000000909316929092179091526124b4565b6000816122aa576122a564e8d4a5100084612e0d565b6122b9565b6122b98364e8d4a510006125c0565b90505b92915050565b60405173ffffffffffffffffffffffffffffffffffffffff808516602483015283166044820152606481018290526105f19085907f23b872dd000000000000000000000000000000000000000000000000000000009060840161220d565b6040517f70a0823100000000000000000000000000000000000000000000000000000000815273ffffffffffffffffffffffffffffffffffffffff8281166004830152600091908416906370a0823190602401602060405180830381865afa158015612390573d6000803e3d6000fd5b505050506040513d601f19601f820116820180604052508101906122b99190612dc5565b60006123c083836125f2565b6002149392505050565b610f7b73ffffffffffffffffffffffffffffffffffffffff84168383612627565b6040517f70a0823100000000000000000000000000000000000000000000000000000000815273ffffffffffffffffffffffffffffffffffffffff82811660048301526000916122b9918516906370a0823190602401602060405180830381865afa15801561245e573d6000803e3d6000fd5b505050506040513d601f19601f820116820180604052508101906124829190612dc5565b61267d565b610f7b8261249683600061228f565b73ffffffffffffffffffffffffffffffffffffffff86169190612627565b6000612516826040518060400160405280602081526020017f5361666545524332303a206c6f772d6c6576656c2063616c6c206661696c65648152508573ffffffffffffffffffffffffffffffffffffffff1661268e9092919063ffffffff16565b805190915015610f7b57808060200190518101906125349190612e21565b610f7b576040517f08c379a000000000000000000000000000000000000000000000000000000000815260206004820152602a60248201527f5361666545524332303a204552433230206f7065726174696f6e20646964206e60448201527f6f742073756363656564000000000000000000000000000000000000000000006064820152608401610658565b60006125cc8284612e43565b156125d85760016125db565b60005b60ff166125e88385612e0d565b6122b99190612ca2565b6000828280821115612609576002925050506122bc565b8082101561261c576000925050506122bc565b506001949350505050565b60405173ffffffffffffffffffffffffffffffffffffffff8316602482015260448101829052610f7b9084907fa9059cbb000000000000000000000000000000000000000000000000000000009060640161220d565b60006122bc64e8d4a5100083612d71565b606061116784846000858573ffffffffffffffffffffffffffffffffffffffff85163b612717576040517f08c379a000000000000000000000000000000000000000000000000000000000815260206004820152601d60248201527f416464726573733a2063616c6c20746f206e6f6e2d636f6e74726163740000006044820152606401610658565b6000808673ffffffffffffffffffffffffffffffffffffffff1685876040516127409190612e83565b60006040518083038185875af1925050503d806000811461277d576040519150601f19603f3d011682016040523d82523d6000602084013e612782565b606091505b509150915061279282828661279d565b979650505050505050565b606083156127ac57508161116a565b8251156127bc5782518084602001fd5b816040517f08c379a00000000000000000000000000000000000000000000000000000000081526004016106589190612e95565b6000806020838503121561280357600080fd5b823567ffffffffffffffff8082111561281b57600080fd5b818501915085601f83011261282f57600080fd5b81358181111561283e57600080fd5b8660208260051b850101111561285357600080fd5b60209290920196919550909350505050565b60006020828403121561287757600080fd5b5035919050565b73ffffffffffffffffffffffffffffffffffffffff811681146128a057600080fd5b50565b6000602082840312156128b557600080fd5b813561116a8161287e565b7f4e487b7100000000000000000000000000000000000000000000000000000000600052603260045260246000fd5b600082357fffffffffffffffffffffffffffffffffffffffffffffffffffffffffffffffc183360301811261292357600080fd5b9190910192915050565b7f4e487b7100000000000000000000000000000000000000000000000000000000600052604160045260246000fd5b6040805190810167ffffffffffffffff8111828210171561297f5761297f61292d565b60405290565b604051601f82017fffffffffffffffffffffffffffffffffffffffffffffffffffffffffffffffe016810167ffffffffffffffff811182821017156129cc576129cc61292d565b604052919050565b6000604082360312156129e657600080fd5b6129ee61295c565b8235601081106129fd57600080fd5b815260208381013567ffffffffffffffff80821115612a1b57600080fd5b9085019036601f830112612a2e57600080fd5b813581811115612a4057612a4061292d565b612a70847fffffffffffffffffffffffffffffffffffffffffffffffffffffffffffffffe0601f84011601612985565b91508082523684828501011115612a8657600080fd5b80848401858401376000908201840152918301919091525092915050565b7f4e487b7100000000000000000000000000000000000000000000000000000000600052602160045260246000fd5b600080600060608486031215612ae857600080fd5b8351612af38161287e565b6020850151909350612b048161287e565b80925050604084015190509250925092565b60008060408385031215612b2957600080fd5b8251612b348161287e565b6020939093015192949293505050565b60008060408385031215612b5757600080fd5b8251612b628161287e565b8092505060208084015167ffffffffffffffff80821115612b8257600080fd5b818601915086601f830112612b9657600080fd5b815181811115612ba857612ba861292d565b8060051b9150612bb9848301612985565b8181529183018401918481019089841115612bd357600080fd5b938501935b83851015612bf157845182529385019390850190612bd8565b8096505050505050509250929050565b60008060408385031215612c1457600080fd5b8251612c1f8161287e565b6020840151909250612c308161287e565b809150509250929050565b7f4e487b7100000000000000000000000000000000000000000000000000000000600052601160045260246000fd5b60007fffffffffffffffffffffffffffffffffffffffffffffffffffffffffffffffff8203612c9b57612c9b612c3b565b5060010190565b60008219821115612cb557612cb5612c3b565b500190565b60008085851115612cca57600080fd5b83861115612cd757600080fd5b5050820193919092039150565b600060208284031215612cf657600080fd5b815161116a8161287e565b60006060820173ffffffffffffffffffffffffffffffffffffffff8087168452602081871681860152606060408601528291508551808452608086019250818701935060005b81811015612d6357845184529382019392820192600101612d47565b509198975050505050505050565b6000817fffffffffffffffffffffffffffffffffffffffffffffffffffffffffffffffff0483118215151615612da957612da9612c3b565b500290565b600082821015612dc057612dc0612c3b565b500390565b600060208284031215612dd757600080fd5b5051919050565b7f4e487b7100000000000000000000000000000000000000000000000000000000600052601260045260246000fd5b600082612e1c57612e1c612dde565b500490565b600060208284031215612e3357600080fd5b8151801515811461116a57600080fd5b600082612e5257612e52612dde565b500690565b60005b83811015612e72578181015183820152602001612e5a565b838111156105f15750506000910152565b60008251612923818460208701612e57565b6020815260008251806020840152612eb4816040850160208701612e57565b601f017fffffffffffffffffffffffffffffffffffffffffffffffffffffffffffffffe016919091016040019291505056fea2646970667358221220ac12fa468503eb0bb50f493c094bb9593b1f43c3bbcf705362a1427d9a2f6e7464736f6c634300080f0033",
  "devdoc": {
    "errors": {
      "MultiInvokerRollupInvalidCalldataError()": [
        {
          "details": "reverts when calldata has an issue. causes: length of bytes in a uint > || cache index empty"
        }
      ]
    },
    "kind": "dev",
    "methods": {
      "initialize()": {
        "details": "Must be called atomically as part of the upgradeable proxy deployment to      avoid front-running"
      },
      "invoke((uint8,bytes)[])": {
        "params": {
          "invocations": "The list of invocations to execute in order"
        }
      }
    },
    "stateVariables": {
      "addressCache": {
        "details": "array of all stored addresses (users, products, vaults, etc) for calldata packing"
      },
      "addressLookup": {
        "details": "index lookup of above array for constructing calldata"
      }
    },
    "title": "A calldata-optimized implementation of the Perennial MultiInvoker ",
    "version": 1
  },
  "userdoc": {
    "kind": "user",
    "methods": {
      "initialize()": {
        "notice": "Initializes the contract state"
      },
      "invoke((uint8,bytes)[])": {
        "notice": "Executes a list of invocations in order"
      }
    },
    "notice": "Retains same functionality and `invoke` entry point from inherited MultiInvoker",
    "version": 1
  },
  "storageLayout": {
    "storage": [
      {
        "astId": 20398,
        "contract": "contracts/multiinvoker/MultiInvokerRollup.sol:MultiInvokerRollup",
        "label": "addressCache",
        "offset": 0,
        "slot": "0",
        "type": "t_array(t_address)dyn_storage"
      },
      {
        "astId": 20403,
        "contract": "contracts/multiinvoker/MultiInvokerRollup.sol:MultiInvokerRollup",
        "label": "addressLookup",
        "offset": 0,
        "slot": "1",
        "type": "t_mapping(t_address,t_uint256)"
      }
    ],
    "types": {
      "t_address": {
        "encoding": "inplace",
        "label": "address",
        "numberOfBytes": "20"
      },
      "t_array(t_address)dyn_storage": {
        "base": "t_address",
        "encoding": "dynamic_array",
        "label": "address[]",
        "numberOfBytes": "32"
      },
      "t_mapping(t_address,t_uint256)": {
        "encoding": "mapping",
        "key": "t_address",
        "label": "mapping(address => uint256)",
        "numberOfBytes": "32",
        "value": "t_uint256"
      },
      "t_uint256": {
        "encoding": "inplace",
        "label": "uint256",
        "numberOfBytes": "32"
      }
    }
  }
}