{
  "address": "0xE9264988CD10c2b7E466a33ECAE770e7530D2693",
  "abi": [
    {
      "inputs": [
        {
          "internalType": "Token6",
          "name": "usdc_",
          "type": "address"
        },
        {
          "internalType": "contract IBatcher",
          "name": "batcher_",
          "type": "address"
        },
        {
          "internalType": "contract IEmptySetReserve",
          "name": "reserve_",
          "type": "address"
        },
        {
          "internalType": "contract IController",
          "name": "controller_",
          "type": "address"
        }
      ],
      "stateMutability": "nonpayable",
      "type": "constructor"
    },
    {
      "inputs": [
        {
          "internalType": "uint256",
          "name": "version",
          "type": "uint256"
        }
      ],
      "name": "UInitializableAlreadyInitializedError",
      "type": "error"
    },
    {
      "inputs": [],
      "name": "UInitializableNotInitializingError",
      "type": "error"
    },
    {
      "inputs": [],
      "name": "UInitializableZeroVersionError",
      "type": "error"
    },
    {
      "anonymous": false,
      "inputs": [
        {
          "indexed": true,
          "internalType": "address",
          "name": "addr",
          "type": "address"
        },
        {
          "indexed": false,
          "internalType": "uint256",
          "name": "nonce",
          "type": "uint256"
        }
      ],
      "name": "AddressAddedToCache",
      "type": "event"
    },
    {
      "anonymous": false,
      "inputs": [
        {
          "indexed": false,
          "internalType": "uint256",
          "name": "version",
          "type": "uint256"
        }
      ],
      "name": "Initialized",
      "type": "event"
    },
    {
      "stateMutability": "nonpayable",
      "type": "fallback"
    },
    {
      "inputs": [],
      "name": "DSU",
      "outputs": [
        {
          "internalType": "Token18",
          "name": "",
          "type": "address"
        }
      ],
      "stateMutability": "view",
      "type": "function"
    },
    {
      "inputs": [],
      "name": "USDC",
      "outputs": [
        {
          "internalType": "Token6",
          "name": "",
          "type": "address"
        }
      ],
      "stateMutability": "view",
      "type": "function"
    },
    {
      "inputs": [
        {
          "internalType": "uint256",
          "name": "",
          "type": "uint256"
        }
      ],
      "name": "addressCache",
      "outputs": [
        {
          "internalType": "address",
          "name": "",
          "type": "address"
        }
      ],
      "stateMutability": "view",
      "type": "function"
    },
    {
      "inputs": [],
      "name": "addressNonce",
      "outputs": [
        {
          "internalType": "uint256",
          "name": "",
          "type": "uint256"
        }
      ],
      "stateMutability": "view",
      "type": "function"
    },
    {
      "inputs": [
        {
          "internalType": "address",
          "name": "",
          "type": "address"
        }
      ],
      "name": "addressNonces",
      "outputs": [
        {
          "internalType": "uint256",
          "name": "",
          "type": "uint256"
        }
      ],
      "stateMutability": "view",
      "type": "function"
    },
    {
      "inputs": [],
      "name": "batcher",
      "outputs": [
        {
          "internalType": "contract IBatcher",
          "name": "",
          "type": "address"
        }
      ],
      "stateMutability": "view",
      "type": "function"
    },
    {
      "inputs": [],
      "name": "collateral",
      "outputs": [
        {
          "internalType": "contract ICollateral",
          "name": "",
          "type": "address"
        }
      ],
      "stateMutability": "view",
      "type": "function"
    },
    {
      "inputs": [],
      "name": "controller",
      "outputs": [
        {
          "internalType": "contract IController",
          "name": "",
          "type": "address"
        }
      ],
      "stateMutability": "view",
      "type": "function"
    },
    {
      "inputs": [
        {
          "internalType": "uint256",
          "name": "nonce",
          "type": "uint256"
        }
      ],
      "name": "getAddressCacheSafe",
      "outputs": [
        {
          "internalType": "address",
          "name": "addr",
          "type": "address"
        }
      ],
      "stateMutability": "nonpayable",
      "type": "function"
    },
    {
      "inputs": [],
      "name": "initialize",
      "outputs": [],
      "stateMutability": "nonpayable",
      "type": "function"
    },
    {
      "inputs": [
        {
          "components": [
            {
              "internalType": "enum IMultiInvoker.PerennialAction",
              "name": "action",
              "type": "uint8"
            },
            {
              "internalType": "bytes",
              "name": "args",
              "type": "bytes"
            }
          ],
          "internalType": "struct IMultiInvoker.Invocation[]",
          "name": "invocations",
          "type": "tuple[]"
        }
      ],
      "name": "invoke",
      "outputs": [],
      "stateMutability": "nonpayable",
      "type": "function"
    },
    {
      "inputs": [],
      "name": "reserve",
      "outputs": [
        {
          "internalType": "contract IEmptySetReserve",
          "name": "",
          "type": "address"
        }
      ],
      "stateMutability": "view",
      "type": "function"
    }
  ],
  "transactionHash": "0x7264041fcad0391207bdc9655b867515efe5eb396bc4e64c5e6e010cf4508151",
  "args": [
    "0x6775842AE82BF2F0f987b10526768Ad89d79536E",
    "0x0000000000000000000000000000000000000000",
    "0x0d49c416103Cbd276d9c3cd96710dB264e3A0c27",
    "0x6cF1A4373ba7D10bC37fAeC4694807B626B7f161"
  ],
  "numDeployments": 2,
  "solcInputHash": "d0dcdcd7c0b6f58f746ab3d6e5ce337c",
  "bytecode": "0x6101406040523480156200001257600080fd5b50604051620036c3380380620036c3833981016040819052620000359162000168565b6001600160a01b0380851660805280841660c052811660e08190526040805163d8dfeb4560e01b8152905186928692869286929163d8dfeb459160048083019260209291908290030181865afa15801562000094573d6000803e3d6000fd5b505050506040513d601f19601f82011682018060405250810190620000ba9190620001d0565b6001600160a01b031661010081905260408051637e062a3560e11b8152905163fc0c546a916004808201926020929091908290030181865afa15801562000105573d6000803e3d6000fd5b505050506040513d601f19601f820116820180604052508101906200012b9190620001d0565b6001600160a01b0390811660a052919091166101205250620001f795505050505050565b6001600160a01b03811681146200016557600080fd5b50565b600080600080608085870312156200017f57600080fd5b84516200018c816200014f565b60208601519094506200019f816200014f565b6040860151909350620001b2816200014f565b6060860151909250620001c5816200014f565b939692955090935050565b600060208284031215620001e357600080fd5b8151620001f0816200014f565b9392505050565b60805160a05160c05160e051610100516101205161333b62000388600039600081816101c601528181610cc801528181610d2a01528181610d8a01528181610dec01528181611f3f0152612190015260008181610200015281816103cb01528181610c0601528181610c6801528181610f8f015281816117d101526119c201526000818161027d0152818161067401526112b101526000818160f301528181610a0c01528181610a8201528181610ae401528181610b4401528181610ba601528181611e6501528181611ee00152818161205a015281816120bd0152818161213801526122ab01526000818161018c01528181610a6001528181610ac201528181610be401528181610c4601528181610ca601528181610d0801528181611756015281816118ec01528181611a4201528181611a8301528181611ebe0152611fe701526000818161016501528181610b2201528181610b8401528181610d6801528181610dca0152818161189b0152818161193701528181611b3e015281816121160152612238015261333b6000f3fe608060405234801561001057600080fd5b50600436106100d45760003560e01c8063cd3293de11610081578063dd7dc2951161005b578063dd7dc29514610222578063e56d831e14610242578063f77c479114610278576100d4565b8063cd3293de146101c1578063d33b6ff0146101e8578063d8dfeb45146101fb576100d4565b806389a30271116100b257806389a3027114610160578063a2060bcf14610187578063bdec4a27146101ae576100d4565b8063025a3a29146100ee57806350f95c951461013f5780638129fc1c14610156575b60003660606100e3838361029f565b915050805190602001f35b6101157f000000000000000000000000000000000000000000000000000000000000000081565b60405173ffffffffffffffffffffffffffffffffffffffff90911681526020015b60405180910390f35b61014860005481565b604051908152602001610136565b61015e610953565b005b6101157f000000000000000000000000000000000000000000000000000000000000000081565b6101157f000000000000000000000000000000000000000000000000000000000000000081565b61015e6101bc366004612c24565b610e6a565b6101157f000000000000000000000000000000000000000000000000000000000000000081565b6101156101f6366004612c99565b611665565b6101157f000000000000000000000000000000000000000000000000000000000000000081565b610148610230366004612cd7565b60026020526000908152604090205481565b610115610250366004612c99565b60016020526000908152604090205473ffffffffffffffffffffffffffffffffffffffff1681565b6101157f000000000000000000000000000000000000000000000000000000000000000081565b6000815b8082101561094d5760006103058584866102be826001612d2a565b926102cb93929190612d42565b8080601f0160208091040260200160405190810160405280939291908181526020018383808284376000920191909152506116f692505050565b9050610312600184612d2a565b92508060ff1660010361034b57600080600061032f8888886116fd565b98509194509250905061034383838361173c565b505050610947565b8060ff1660020361042f5760008060006103668888886116fd565b6040517f2644131800000000000000000000000000000000000000000000000000000000815233600482015273ffffffffffffffffffffffffffffffffffffffff8086166024830152808516604483015260648201849052919a5093965091945092507f00000000000000000000000000000000000000000000000000000000000000001690632644131890608401600060405180830381600087803b15801561040f57600080fd5b505af1158015610423573d6000803e3d6000fd5b50505050505050610947565b8060ff166003036104de57600080610448878787611833565b6040517f9378bf7b00000000000000000000000000000000000000000000000000000000815233600482015260248101839052909750919350915073ffffffffffffffffffffffffffffffffffffffff831690639378bf7b906044015b600060405180830381600087803b1580156104bf57600080fd5b505af11580156104d3573d6000803e3d6000fd5b505050505050610947565b8060ff16600403610558576000806104f7878787611833565b6040517f2131ea4a00000000000000000000000000000000000000000000000000000000815233600482015260248101839052909750919350915073ffffffffffffffffffffffffffffffffffffffff831690632131ea4a906044016104a5565b8060ff166005036105d257600080610571878787611833565b6040517f2d2e52be00000000000000000000000000000000000000000000000000000000815233600482015260248101839052909750919350915073ffffffffffffffffffffffffffffffffffffffff831690632d2e52be906044016104a5565b8060ff1660060361064c576000806105eb878787611833565b6040517fe503b00700000000000000000000000000000000000000000000000000000000815233600482015260248101839052909750919350915073ffffffffffffffffffffffffffffffffffffffff83169063e503b007906044016104a5565b8060ff1660070361073c5760006060610666878787611861565b8097508193508294505050507f000000000000000000000000000000000000000000000000000000000000000073ffffffffffffffffffffffffffffffffffffffff16636fc6407c6040518163ffffffff1660e01b8152600401602060405180830381865afa1580156106dd573d6000803e3d6000fd5b505050506040513d601f19601f820116820180604052508101906107019190612d6c565b73ffffffffffffffffffffffffffffffffffffffff16628240533384846040518463ffffffff1660e01b81526004016104a593929190612d89565b8060ff1660080361076d57600080610755878787611833565b965090925090506107668282611881565b5050610947565b8060ff1660090361079757600080610786878787611833565b9650909250905061076682826118d2565b8060ff16600a036107c65760008060006107b28888886116fd565b98509194509250905061034383838361191d565b8060ff16600b036107f55760008060006107e18888886116fd565b98509194509250905061034383838361196a565b8060ff16600c036108245760008060006108108888886116fd565b985091945092509050610343838383611a28565b8060ff16600d0361089e5760008061083d878787611833565b6040517f7bde82f200000000000000000000000000000000000000000000000000000000815260048101839052336024820152909750919350915073ffffffffffffffffffffffffffffffffffffffff831690637bde82f2906044016104a5565b8060ff16600e03610914576000806108b7878787611b05565b6040517f1e83409a00000000000000000000000000000000000000000000000000000000815273ffffffffffffffffffffffffffffffffffffffff8085166004830152919850929450909250821690631e83409a906024016104a5565b8060ff16600f0361094757600080600061092f8888886116fd565b985091945092509050610943838383611b24565b5050505b506102a3565b50505050565b60028061097e7f5db5abc19987c2b3729df7961b62b6bb0bae886dd47e3ce25bb3a3af34c6d80b5490565b106109bd576040517f1e7a9d95000000000000000000000000000000000000000000000000000000008152600481018290526024015b60405180910390fd5b6109e67f5db5abc19987c2b3729df7961b62b6bb0bae886dd47e3ce25bb3a3af34c6d80b829055565b60017fad57d7911b7e3d6c3c79a68ba909a7f4ba41f9485e5207b12dee0d0c6af5398c557f000000000000000000000000000000000000000000000000000000000000000073ffffffffffffffffffffffffffffffffffffffff1615610bca57610aa873ffffffffffffffffffffffffffffffffffffffff7f0000000000000000000000000000000000000000000000000000000000000000167f00000000000000000000000000000000000000000000000000000000000000006000611b71565b610b0873ffffffffffffffffffffffffffffffffffffffff7f0000000000000000000000000000000000000000000000000000000000000000167f0000000000000000000000000000000000000000000000000000000000000000611b92565b610b6a73ffffffffffffffffffffffffffffffffffffffff7f0000000000000000000000000000000000000000000000000000000000000000167f00000000000000000000000000000000000000000000000000000000000000006000611bd3565b610bca73ffffffffffffffffffffffffffffffffffffffff7f0000000000000000000000000000000000000000000000000000000000000000167f0000000000000000000000000000000000000000000000000000000000000000611b92565b610c2c73ffffffffffffffffffffffffffffffffffffffff7f0000000000000000000000000000000000000000000000000000000000000000167f00000000000000000000000000000000000000000000000000000000000000006000611b71565b610c8c73ffffffffffffffffffffffffffffffffffffffff7f0000000000000000000000000000000000000000000000000000000000000000167f0000000000000000000000000000000000000000000000000000000000000000611b92565b610cee73ffffffffffffffffffffffffffffffffffffffff7f0000000000000000000000000000000000000000000000000000000000000000167f00000000000000000000000000000000000000000000000000000000000000006000611b71565b610d4e73ffffffffffffffffffffffffffffffffffffffff7f0000000000000000000000000000000000000000000000000000000000000000167f0000000000000000000000000000000000000000000000000000000000000000611b92565b610db073ffffffffffffffffffffffffffffffffffffffff7f0000000000000000000000000000000000000000000000000000000000000000167f00000000000000000000000000000000000000000000000000000000000000006000611bd3565b610e1073ffffffffffffffffffffffffffffffffffffffff7f0000000000000000000000000000000000000000000000000000000000000000167f0000000000000000000000000000000000000000000000000000000000000000611b92565b60007fad57d7911b7e3d6c3c79a68ba909a7f4ba41f9485e5207b12dee0d0c6af5398c556040518181527fbe9b076dc5b65990cca9dd9d7366682482e7817a6f6bc7f4faf4dc32af497f329060200160405180910390a150565b60005b81811015611660576000838383818110610e8957610e89612df9565b9050602002810190610e9b9190612e28565b610ea490612f0d565b905060018151600f811115610ebb57610ebb612fdd565b03610ef65760008060008360200151806020019051810190610edd919061300c565b925092509250610eee83838361173c565b50505061164d565b60028151600f811115610f0b57610f0b612fdd565b03610ff55760008060008360200151806020019051810190610f2d919061300c565b6040517f2644131800000000000000000000000000000000000000000000000000000000815233600482015273ffffffffffffffffffffffffffffffffffffffff848116602483015283811660448301526064820183905293965091945092507f000000000000000000000000000000000000000000000000000000000000000090911690632644131890608401600060405180830381600087803b158015610fd557600080fd5b505af1158015610fe9573d6000803e3d6000fd5b5050505050505061164d565b60038151600f81111561100a5761100a612fdd565b036110bd57600080826020015180602001905181019061102a919061304f565b6040517f9378bf7b00000000000000000000000000000000000000000000000000000000815233600482015260248101829052919350915073ffffffffffffffffffffffffffffffffffffffff831690639378bf7b906044015b600060405180830381600087803b15801561109e57600080fd5b505af11580156110b2573d6000803e3d6000fd5b50505050505061164d565b60048151600f8111156110d2576110d2612fdd565b036111505760008082602001518060200190518101906110f2919061304f565b6040517f2131ea4a00000000000000000000000000000000000000000000000000000000815233600482015260248101829052919350915073ffffffffffffffffffffffffffffffffffffffff831690632131ea4a90604401611084565b60058151600f81111561116557611165612fdd565b036111e3576000808260200151806020019051810190611185919061304f565b6040517f2d2e52be00000000000000000000000000000000000000000000000000000000815233600482015260248101829052919350915073ffffffffffffffffffffffffffffffffffffffff831690632d2e52be90604401611084565b60068151600f8111156111f8576111f8612fdd565b03611276576000808260200151806020019051810190611218919061304f565b6040517fe503b00700000000000000000000000000000000000000000000000000000000815233600482015260248101829052919350915073ffffffffffffffffffffffffffffffffffffffff83169063e503b00790604401611084565b60078151600f81111561128b5761128b612fdd565b036113795760008082602001518060200190518101906112ab919061307d565b915091507f000000000000000000000000000000000000000000000000000000000000000073ffffffffffffffffffffffffffffffffffffffff16636fc6407c6040518163ffffffff1660e01b8152600401602060405180830381865afa15801561131a573d6000803e3d6000fd5b505050506040513d601f19601f8201168201806040525081019061133e9190612d6c565b73ffffffffffffffffffffffffffffffffffffffff16628240533384846040518463ffffffff1660e01b815260040161108493929190612d89565b60088151600f81111561138e5761138e612fdd565b036113c35760008082602001518060200190518101906113ae919061304f565b915091506113bc8282611881565b505061164d565b60098151600f8111156113d8576113d8612fdd565b036114065760008082602001518060200190518101906113f8919061304f565b915091506113bc82826118d2565b600a8151600f81111561141b5761141b612fdd565b0361144e576000806000836020015180602001905181019061143d919061300c565b925092509250610eee83838361191d565b600b8151600f81111561146357611463612fdd565b036114965760008060008360200151806020019051810190611485919061300c565b925092509250610eee83838361196a565b600c8151600f8111156114ab576114ab612fdd565b036114de57600080600083602001518060200190518101906114cd919061300c565b925092509250610eee838383611a28565b600d8151600f8111156114f3576114f3612fdd565b03611571576000808260200151806020019051810190611513919061304f565b6040517f7bde82f200000000000000000000000000000000000000000000000000000000815260048101829052336024820152919350915073ffffffffffffffffffffffffffffffffffffffff831690637bde82f290604401611084565b600e8151600f81111561158657611586612fdd565b036116015760008082602001518060200190518101906115a6919061313a565b6040517f1e83409a00000000000000000000000000000000000000000000000000000000815273ffffffffffffffffffffffffffffffffffffffff808416600483015292945090925090821690631e83409a90602401611084565b600f8151600f81111561161657611616612fdd565b0361164d5760008060008360200151806020019051810190611638919061300c565b925092509250611649838383611b24565b5050505b508061165881613174565b915050610e6d565b505050565b60008181526001602052604090205473ffffffffffffffffffffffffffffffffffffffff16806116f1576040517f08c379a000000000000000000000000000000000000000000000000000000000815260206004820152601a60248201527f4261642063616c6c646174612c2075736572202163616368656400000000000060448201526064016109b4565b919050565b6001015190565b60008060008061170e878787611c00565b9550935061171d878787611c00565b9550925061172c878787611d2a565b9550915084905093509350935093565b61177d73ffffffffffffffffffffffffffffffffffffffff7f0000000000000000000000000000000000000000000000000000000000000000163383611d47565b6040517ff213159c00000000000000000000000000000000000000000000000000000000815273ffffffffffffffffffffffffffffffffffffffff84811660048301528381166024830152604482018390527f0000000000000000000000000000000000000000000000000000000000000000169063f213159c906064015b600060405180830381600087803b15801561181657600080fd5b505af115801561182a573d6000803e3d6000fd5b50505050505050565b6000806000611843868686611c00565b94509250611852868686611d2a565b93979096509294509192505050565b600060606000611872868686611c00565b94509250611852868686611d69565b6118c473ffffffffffffffffffffffffffffffffffffffff7f00000000000000000000000000000000000000000000000000000000000000001633836001611e35565b6118ce8282611e63565b5050565b61191373ffffffffffffffffffffffffffffffffffffffff7f0000000000000000000000000000000000000000000000000000000000000000163383611d47565b6118ce82826120bb565b61196073ffffffffffffffffffffffffffffffffffffffff7f00000000000000000000000000000000000000000000000000000000000000001633836001611e35565b61177d3082611e63565b6040517f2644131800000000000000000000000000000000000000000000000000000000815233600482015230602482015273ffffffffffffffffffffffffffffffffffffffff8381166044830152606482018390527f00000000000000000000000000000000000000000000000000000000000000001690632644131890608401600060405180830381600087803b158015611a0657600080fd5b505af1158015611a1a573d6000803e3d6000fd5b5050505061166083826120bb565b611a6973ffffffffffffffffffffffffffffffffffffffff7f0000000000000000000000000000000000000000000000000000000000000000163383611d47565b611aaa73ffffffffffffffffffffffffffffffffffffffff7f0000000000000000000000000000000000000000000000000000000000000000168383611b71565b6040517f6e553f650000000000000000000000000000000000000000000000000000000081526004810182905273ffffffffffffffffffffffffffffffffffffffff8481166024830152831690636e553f65906044016117fc565b6000806000611b15868686611c00565b94509250611852868686611c00565b611b6773ffffffffffffffffffffffffffffffffffffffff7f00000000000000000000000000000000000000000000000000000000000000001633836001611e35565b611a693082611e63565b61166073ffffffffffffffffffffffffffffffffffffffff841683836122da565b6118ce73ffffffffffffffffffffffffffffffffffffffff8316827fffffffffffffffffffffffffffffffffffffffffffffffffffffffffffffffff6122da565b61166082611be28360006124da565b73ffffffffffffffffffffffffffffffffffffffff861691906122da565b60008080611c158685876102be826001612d2a565b9050611c22600185612d2a565b93508060ff16600003611ca457611c87868587611c40826014612d2a565b92611c4d93929190612d42565b8080601f01602080910402602001604051908101604052809392919081815260200183838082843760009201919091525061250d92505050565b9250611c94601485612d2a565b9350611c9f83612514565b611d1e565b6000611d00878688611cb960ff871683612d2a565b92611cc693929190612d42565b8080601f0160208091040260200160405190810160405280939291908181526020018383808284376000920191909152506125bd92505050565b9050611d0f60ff831686612d2a565b9450611d1a81611665565b9350505b50829050935093915050565b6000806000611d3a8686866125f8565b9097909650945050505050565b61166073ffffffffffffffffffffffffffffffffffffffff8416833084612649565b6060600080611d7f8685876102be826001612d2a565b9050611d8a84613174565b935060008160ff1667ffffffffffffffff811115611daa57611daa612e66565b604051908082528060200260200182016040528015611dd3578160200160208202803683370190505b50905060005b8260ff16811015611e28576000611df18989896125f8565b809850819250505080838381518110611e0c57611e0c612df9565b6020908102919091010152611e2082613174565b915050611dd9565b5096939550929350505050565b61094d8330611e4485856124da565b73ffffffffffffffffffffffffffffffffffffffff8816929190612649565b7f000000000000000000000000000000000000000000000000000000000000000073ffffffffffffffffffffffffffffffffffffffff161580611f0b5750611f0b611f0473ffffffffffffffffffffffffffffffffffffffff7f0000000000000000000000000000000000000000000000000000000000000000167f00000000000000000000000000000000000000000000000000000000000000006126a7565b829061273b565b1561200e576040517fa0712d68000000000000000000000000000000000000000000000000000000008152600481018290527f000000000000000000000000000000000000000000000000000000000000000073ffffffffffffffffffffffffffffffffffffffff169063a0712d6890602401600060405180830381600087803b158015611f9857600080fd5b505af1158015611fac573d6000803e3d6000fd5b5050505073ffffffffffffffffffffffffffffffffffffffff821630146118ce576118ce73ffffffffffffffffffffffffffffffffffffffff7f0000000000000000000000000000000000000000000000000000000000000000168383612751565b6040517f13bac8200000000000000000000000000000000000000000000000000000000081526004810182905273ffffffffffffffffffffffffffffffffffffffff83811660248301527f000000000000000000000000000000000000000000000000000000000000000016906313bac820906044015b600060405180830381600087803b15801561209f57600080fd5b505af11580156120b3573d6000803e3d6000fd5b505050505050565b7f000000000000000000000000000000000000000000000000000000000000000073ffffffffffffffffffffffffffffffffffffffff16158061215c575061215c611f0473ffffffffffffffffffffffffffffffffffffffff7f0000000000000000000000000000000000000000000000000000000000000000167f0000000000000000000000000000000000000000000000000000000000000000612772565b1561225f576040517fdb006a75000000000000000000000000000000000000000000000000000000008152600481018290527f000000000000000000000000000000000000000000000000000000000000000073ffffffffffffffffffffffffffffffffffffffff169063db006a7590602401600060405180830381600087803b1580156121e957600080fd5b505af11580156121fd573d6000803e3d6000fd5b5050505073ffffffffffffffffffffffffffffffffffffffff821630146118ce576118ce73ffffffffffffffffffffffffffffffffffffffff7f000000000000000000000000000000000000000000000000000000000000000016838361280e565b6040517f7647691d0000000000000000000000000000000000000000000000000000000081526004810182905273ffffffffffffffffffffffffffffffffffffffff83811660248301527f00000000000000000000000000000000000000000000000000000000000000001690637647691d90604401612085565b80158061237a57506040517fdd62ed3e00000000000000000000000000000000000000000000000000000000815230600482015273ffffffffffffffffffffffffffffffffffffffff838116602483015284169063dd62ed3e90604401602060405180830381865afa158015612354573d6000803e3d6000fd5b505050506040513d601f19601f8201168201806040525081019061237891906131ac565b155b612406576040517f08c379a000000000000000000000000000000000000000000000000000000000815260206004820152603660248201527f5361666545524332303a20617070726f76652066726f6d206e6f6e2d7a65726f60448201527f20746f206e6f6e2d7a65726f20616c6c6f77616e63650000000000000000000060648201526084016109b4565b60405173ffffffffffffffffffffffffffffffffffffffff83166024820152604481018290526116609084907f095ea7b300000000000000000000000000000000000000000000000000000000906064015b604080517fffffffffffffffffffffffffffffffffffffffffffffffffffffffffffffffe08184030181529190526020810180517bffffffffffffffffffffffffffffffffffffffffffffffffffffffff167fffffffff000000000000000000000000000000000000000000000000000000009093169290921790915261283b565b6000816124f5576124f064e8d4a51000846131c5565b612504565b6125048364e8d4a51000612947565b90505b92915050565b6014015190565b600080815461252290613174565b9091555060008054815260016020908152604080832080547fffffffffffffffffffffffff00000000000000000000000000000000000000001673ffffffffffffffffffffffffffffffffffffffff8616908117909155835481855260028452938290208490559051928352917fd9643d04a6ca8b6a112ed2bb7b77a6087a6d23739fb4cfd7c813fb3a001c3096910160405180910390a250565b805160208083015191908290036125d75750600092915050565b6125e2816008613200565b6125ee9061010061323d565b9190911c92915050565b6000808061260d8685876102be826001612d2a565b905061261884613174565b935061262d868587611cb960ff861683612d2a565b925061263c60ff821685612d2a565b9296929550919350505050565b60405173ffffffffffffffffffffffffffffffffffffffff8085166024830152831660448201526064810182905261094d9085907f23b872dd0000000000000000000000000000000000000000000000000000000090608401612458565b6040517f70a0823100000000000000000000000000000000000000000000000000000000815273ffffffffffffffffffffffffffffffffffffffff8281166004830152600091908416906370a0823190602401602060405180830381865afa158015612717573d6000803e3d6000fd5b505050506040513d601f19601f8201168201806040525081019061250491906131ac565b60006127478383612979565b6002149392505050565b61166073ffffffffffffffffffffffffffffffffffffffff841683836129ae565b6040517f70a0823100000000000000000000000000000000000000000000000000000000815273ffffffffffffffffffffffffffffffffffffffff8281166004830152600091612504918516906370a0823190602401602060405180830381865afa1580156127e5573d6000803e3d6000fd5b505050506040513d601f19601f8201168201806040525081019061280991906131ac565b612a04565b6116608261281d8360006124da565b73ffffffffffffffffffffffffffffffffffffffff861691906129ae565b600061289d826040518060400160405280602081526020017f5361666545524332303a206c6f772d6c6576656c2063616c6c206661696c65648152508573ffffffffffffffffffffffffffffffffffffffff16612a159092919063ffffffff16565b80519091501561166057808060200190518101906128bb9190613254565b611660576040517f08c379a000000000000000000000000000000000000000000000000000000000815260206004820152602a60248201527f5361666545524332303a204552433230206f7065726174696f6e20646964206e60448201527f6f7420737563636565640000000000000000000000000000000000000000000060648201526084016109b4565b60008215612970578161295b60018561323d565b61296591906131c5565b6124f0906001612d2a565b50600092915050565b600082828082111561299057600292505050612507565b808210156129a357600092505050612507565b506001949350505050565b60405173ffffffffffffffffffffffffffffffffffffffff83166024820152604481018290526116609084907fa9059cbb0000000000000000000000000000000000000000000000000000000090606401612458565b600061250764e8d4a5100083613200565b6060612a248484600085612a2c565b949350505050565b606082471015612abe576040517f08c379a000000000000000000000000000000000000000000000000000000000815260206004820152602660248201527f416464726573733a20696e73756666696369656e742062616c616e636520666f60448201527f722063616c6c000000000000000000000000000000000000000000000000000060648201526084016109b4565b6000808673ffffffffffffffffffffffffffffffffffffffff168587604051612ae791906132a2565b60006040518083038185875af1925050503d8060008114612b24576040519150601f19603f3d011682016040523d82523d6000602084013e612b29565b606091505b5091509150612b3a87838387612b45565b979650505050505050565b60608315612bdb578251600003612bd45773ffffffffffffffffffffffffffffffffffffffff85163b612bd4576040517f08c379a000000000000000000000000000000000000000000000000000000000815260206004820152601d60248201527f416464726573733a2063616c6c20746f206e6f6e2d636f6e747261637400000060448201526064016109b4565b5081612a24565b612a248383815115612bf05781518083602001fd5b806040517f08c379a00000000000000000000000000000000000000000000000000000000081526004016109b491906132b4565b60008060208385031215612c3757600080fd5b823567ffffffffffffffff80821115612c4f57600080fd5b818501915085601f830112612c6357600080fd5b813581811115612c7257600080fd5b8660208260051b8501011115612c8757600080fd5b60209290920196919550909350505050565b600060208284031215612cab57600080fd5b5035919050565b73ffffffffffffffffffffffffffffffffffffffff81168114612cd457600080fd5b50565b600060208284031215612ce957600080fd5b8135612cf481612cb2565b9392505050565b7f4e487b7100000000000000000000000000000000000000000000000000000000600052601160045260246000fd5b60008219821115612d3d57612d3d612cfb565b500190565b60008085851115612d5257600080fd5b83861115612d5f57600080fd5b5050820193919092039150565b600060208284031215612d7e57600080fd5b8151612cf481612cb2565b60006060820173ffffffffffffffffffffffffffffffffffffffff8087168452602081871681860152606060408601528291508551808452608086019250818701935060005b81811015612deb57845184529382019392820192600101612dcf565b509198975050505050505050565b7f4e487b7100000000000000000000000000000000000000000000000000000000600052603260045260246000fd5b600082357fffffffffffffffffffffffffffffffffffffffffffffffffffffffffffffffc1833603018112612e5c57600080fd5b9190910192915050565b7f4e487b7100000000000000000000000000000000000000000000000000000000600052604160045260246000fd5b6040805190810167ffffffffffffffff81118282101715612eb857612eb8612e66565b60405290565b604051601f82017fffffffffffffffffffffffffffffffffffffffffffffffffffffffffffffffe016810167ffffffffffffffff81118282101715612f0557612f05612e66565b604052919050565b600060408236031215612f1f57600080fd5b612f27612e95565b823560108110612f3657600080fd5b815260208381013567ffffffffffffffff80821115612f5457600080fd5b9085019036601f830112612f6757600080fd5b813581811115612f7957612f79612e66565b612fa9847fffffffffffffffffffffffffffffffffffffffffffffffffffffffffffffffe0601f84011601612ebe565b91508082523684828501011115612fbf57600080fd5b80848401858401376000908201840152918301919091525092915050565b7f4e487b7100000000000000000000000000000000000000000000000000000000600052602160045260246000fd5b60008060006060848603121561302157600080fd5b835161302c81612cb2565b602085015190935061303d81612cb2565b80925050604084015190509250925092565b6000806040838503121561306257600080fd5b825161306d81612cb2565b6020939093015192949293505050565b6000806040838503121561309057600080fd5b825161309b81612cb2565b8092505060208084015167ffffffffffffffff808211156130bb57600080fd5b818601915086601f8301126130cf57600080fd5b8151818111156130e1576130e1612e66565b8060051b91506130f2848301612ebe565b818152918301840191848101908984111561310c57600080fd5b938501935b8385101561312a57845182529385019390850190613111565b8096505050505050509250929050565b6000806040838503121561314d57600080fd5b825161315881612cb2565b602084015190925061316981612cb2565b809150509250929050565b60007fffffffffffffffffffffffffffffffffffffffffffffffffffffffffffffffff82036131a5576131a5612cfb565b5060010190565b6000602082840312156131be57600080fd5b5051919050565b6000826131fb577f4e487b7100000000000000000000000000000000000000000000000000000000600052601260045260246000fd5b500490565b6000817fffffffffffffffffffffffffffffffffffffffffffffffffffffffffffffffff048311821515161561323857613238612cfb565b500290565b60008282101561324f5761324f612cfb565b500390565b60006020828403121561326657600080fd5b81518015158114612cf457600080fd5b60005b83811015613291578181015183820152602001613279565b8381111561094d5750506000910152565b60008251612e5c818460208701613276565b60208152600082518060208401526132d3816040850160208701613276565b601f017fffffffffffffffffffffffffffffffffffffffffffffffffffffffffffffffe016919091016040019291505056fea264697066735822122041d158f1f9a4f97a89a76967bf70aef471299d79e4bcc88ff2574e063a21ec8f64736f6c634300080f0033",
  "devdoc": {
    "kind": "dev",
    "methods": {
      "initialize()": {
        "details": "Must be called atomically as part of the upgradeable proxy deployment to      avoid front-running"
      },
      "invoke((uint8,bytes)[])": {
        "params": {
          "invocations": "The list of invocations to execute in order"
        }
      }
    },
    "version": 1
  },
  "userdoc": {
    "kind": "user",
    "methods": {
      "initialize()": {
        "notice": "Initializes the contract state"
      },
      "invoke((uint8,bytes)[])": {
        "notice": "Executes a list of invocations in order"
      }
    },
    "version": 1
  },
  "storageLayout": {
    "storage": [
      {
        "astId": 22318,
        "contract": "contracts/multiinvoker/MultiInvokerRollup.sol:MultiInvokerRollup",
        "label": "addressNonce",
        "offset": 0,
        "slot": "0",
        "type": "t_uint256"
      },
      {
        "astId": 22322,
        "contract": "contracts/multiinvoker/MultiInvokerRollup.sol:MultiInvokerRollup",
        "label": "addressCache",
        "offset": 0,
        "slot": "1",
        "type": "t_mapping(t_uint256,t_address)"
      },
      {
        "astId": 22326,
        "contract": "contracts/multiinvoker/MultiInvokerRollup.sol:MultiInvokerRollup",
        "label": "addressNonces",
        "offset": 0,
        "slot": "2",
        "type": "t_mapping(t_address,t_uint256)"
      }
    ],
    "types": {
      "t_address": {
        "encoding": "inplace",
        "label": "address",
        "numberOfBytes": "20"
      },
      "t_mapping(t_address,t_uint256)": {
        "encoding": "mapping",
        "key": "t_address",
        "label": "mapping(address => uint256)",
        "numberOfBytes": "32",
        "value": "t_uint256"
      },
      "t_mapping(t_uint256,t_address)": {
        "encoding": "mapping",
        "key": "t_uint256",
        "label": "mapping(uint256 => address)",
        "numberOfBytes": "32",
        "value": "t_address"
      },
      "t_uint256": {
        "encoding": "inplace",
        "label": "uint256",
        "numberOfBytes": "32"
      }
    }
  }
}