{
  "address": "0xAF8CeD28FcE00ABD30463D55dA81156AA5aEEEc2",
  "abi": [
    {
      "inputs": [],
      "name": "NotCrossChainCall",
      "type": "error"
    },
    {
      "inputs": [
        {
          "internalType": "uint256",
          "name": "version",
          "type": "uint256"
        }
      ],
      "name": "UInitializableAlreadyInitializedError",
      "type": "error"
    },
    {
      "inputs": [],
      "name": "UInitializableNotInitializingError",
      "type": "error"
    },
    {
      "inputs": [],
      "name": "UInitializableZeroVersionError",
      "type": "error"
    },
    {
      "inputs": [
        {
          "internalType": "address",
          "name": "sender",
          "type": "address"
        }
      ],
      "name": "UOwnableNotOwnerError",
      "type": "error"
    },
    {
      "inputs": [
        {
          "internalType": "address",
          "name": "sender",
          "type": "address"
        }
      ],
      "name": "UOwnableNotPendingOwnerError",
      "type": "error"
    },
    {
      "anonymous": false,
      "inputs": [
        {
          "indexed": false,
          "internalType": "uint256",
          "name": "version",
          "type": "uint256"
        }
      ],
      "name": "Initialized",
      "type": "event"
    },
    {
      "anonymous": false,
      "inputs": [
        {
          "indexed": true,
          "internalType": "address",
          "name": "newOwner",
          "type": "address"
        }
      ],
      "name": "OwnerUpdated",
      "type": "event"
    },
    {
      "anonymous": false,
      "inputs": [
        {
          "indexed": true,
          "internalType": "address",
          "name": "newPendingOwner",
          "type": "address"
        }
      ],
      "name": "PendingOwnerUpdated",
      "type": "event"
    },
    {
      "inputs": [],
      "name": "acceptOwner",
      "outputs": [],
      "stateMutability": "nonpayable",
      "type": "function"
    },
    {
      "inputs": [],
      "name": "crossChainRestricted",
      "outputs": [
        {
          "internalType": "bool",
          "name": "",
          "type": "bool"
        }
      ],
      "stateMutability": "view",
      "type": "function"
    },
    {
      "inputs": [
        {
          "internalType": "address payable",
          "name": "to",
          "type": "address"
        },
        {
          "internalType": "bytes",
          "name": "data",
          "type": "bytes"
        },
        {
          "internalType": "uint256",
          "name": "value",
          "type": "uint256"
        }
      ],
      "name": "execute",
      "outputs": [
        {
          "internalType": "bytes",
          "name": "ret",
          "type": "bytes"
        }
      ],
      "stateMutability": "payable",
      "type": "function"
    },
    {
      "inputs": [],
      "name": "initialize",
      "outputs": [],
      "stateMutability": "nonpayable",
      "type": "function"
    },
    {
      "inputs": [],
      "name": "owner",
      "outputs": [
        {
          "internalType": "address",
          "name": "",
          "type": "address"
        }
      ],
      "stateMutability": "view",
      "type": "function"
    },
    {
      "inputs": [],
      "name": "pendingOwner",
      "outputs": [
        {
          "internalType": "address",
          "name": "",
          "type": "address"
        }
      ],
      "stateMutability": "view",
      "type": "function"
    },
    {
      "inputs": [
        {
          "internalType": "address",
          "name": "newPendingOwner",
          "type": "address"
        }
      ],
      "name": "updatePendingOwner",
      "outputs": [],
      "stateMutability": "nonpayable",
      "type": "function"
    }
  ],
  "transactionHash": "0x65865c99381619171eb259dfee73c7bbb59da5190226952b8d3222e194aba1e9",
  "args": [],
  "numDeployments": 1,
  "solcInputHash": "0954eb4c5a9afab2c0aa2d884eb92458",
  "bytecode": "0x608060405234801561001057600080fd5b50610e56806100206000396000f3fe6080604052600436106100705760003560e01c8063a04a09081161004e578063a04a0908146100f0578063b5ee695514610110578063e30c397814610130578063ebbc49651461014557600080fd5b80634b074af5146100755780638129fc1c1461009f5780638da5cb5b146100b6575b600080fd5b34801561008157600080fd5b5061008a61015a565b60405190151581526020015b60405180910390f35b3480156100ab57600080fd5b506100b4610189565b005b3480156100c257600080fd5b506100cb6102a2565b60405173ffffffffffffffffffffffffffffffffffffffff9091168152602001610096565b6101036100fe366004610c07565b6102cc565b6040516100969190610d6c565b34801561011c57600080fd5b506100b461012b366004610d7f565b61038f565b34801561013c57600080fd5b506100cb610445565b34801561015157600080fd5b506100b461046f565b60006101847f29d60f5c1c5c53637cb61abb536b08f77bb52405058e33d090ec68f2ec8b63695490565b905090565b6001806101b47f5db5abc19987c2b3729df7961b62b6bb0bae886dd47e3ce25bb3a3af34c6d80b5490565b106101f3576040517f1e7a9d95000000000000000000000000000000000000000000000000000000008152600481018290526024015b60405180910390fd5b61021c7f5db5abc19987c2b3729df7961b62b6bb0bae886dd47e3ce25bb3a3af34c6d80b829055565b60017fad57d7911b7e3d6c3c79a68ba909a7f4ba41f9485e5207b12dee0d0c6af5398c55610248610527565b60007fad57d7911b7e3d6c3c79a68ba909a7f4ba41f9485e5207b12dee0d0c6af5398c556040518181527fbe9b076dc5b65990cca9dd9d7366682482e7817a6f6bc7f4faf4dc32af497f329060200160405180910390a150565b60006101847fd520c4fc3bfc097da8746a8578e9e0417f5acfdd84a1de38ed670148cc1a349d5490565b60606102d6610594565b73ffffffffffffffffffffffffffffffffffffffff166102f46102a2565b73ffffffffffffffffffffffffffffffffffffffff161461036257610317610594565b6040517f9950d22a00000000000000000000000000000000000000000000000000000000815273ffffffffffffffffffffffffffffffffffffffff90911660048201526024016101ea565b825160000361037a5761037584836105b0565b610388565b61038584848461070f565b90505b9392505050565b610397610594565b73ffffffffffffffffffffffffffffffffffffffff166103b56102a2565b73ffffffffffffffffffffffffffffffffffffffff16146103d857610317610594565b6104017faabf80d370e1f8b862122cc5c4b30b4a8eb2d6b5dda0d437726c353765e1ed32829055565b60405173ffffffffffffffffffffffffffffffffffffffff8216907f69f201bc2089b9be6195d876d97a0136b4cf56bbf8986a52dcb50697f7d1cac590600090a250565b60006101847faabf80d370e1f8b862122cc5c4b30b4a8eb2d6b5dda0d437726c353765e1ed325490565b610477610735565b61047f610445565b73ffffffffffffffffffffffffffffffffffffffff1661049d610594565b73ffffffffffffffffffffffffffffffffffffffff161461050b576104c0610594565b6040517f14f8fce700000000000000000000000000000000000000000000000000000000815273ffffffffffffffffffffffffffffffffffffffff90911660048201526024016101ea565b61051b610516610445565b610767565b610525600061038f565b565b303b1515801561055657507fad57d7911b7e3d6c3c79a68ba909a7f4ba41f9485e5207b12dee0d0c6af5398c54155b1561058d576040517f689f12a400000000000000000000000000000000000000000000000000000000815260040160405180910390fd5b6105256105165b600061059e61015a565b156105ab576101846107d4565b503390565b8047101561061a576040517f08c379a000000000000000000000000000000000000000000000000000000000815260206004820152601d60248201527f416464726573733a20696e73756666696369656e742062616c616e636500000060448201526064016101ea565b60008273ffffffffffffffffffffffffffffffffffffffff168260405160006040518083038185875af1925050503d8060008114610674576040519150601f19603f3d011682016040523d82523d6000602084013e610679565b606091505b505090508061070a576040517f08c379a000000000000000000000000000000000000000000000000000000000815260206004820152603a60248201527f416464726573733a20756e61626c6520746f2073656e642076616c75652c207260448201527f6563697069656e74206d6179206861766520726576657274656400000000000060648201526084016101ea565b505050565b6060610385848484604051806060016040528060298152602001610df86029913961081e565b61073d61015a565b6105255760017f29d60f5c1c5c53637cb61abb536b08f77bb52405058e33d090ec68f2ec8b636955565b6107907fd520c4fc3bfc097da8746a8578e9e0417f5acfdd84a1de38ed670148cc1a349d829055565b60405173ffffffffffffffffffffffffffffffffffffffff8216907f4ffd725fc4a22075e9ec71c59edf9c38cdeb588a91b24fc5b61388c5be41282b90600090a250565b60006107de6109b4565b610814576040517f4a74df9200000000000000000000000000000000000000000000000000000000815260040160405180910390fd5b61018460646109c0565b6060824710156108b0576040517f08c379a000000000000000000000000000000000000000000000000000000000815260206004820152602660248201527f416464726573733a20696e73756666696369656e742062616c616e636520666f60448201527f722063616c6c000000000000000000000000000000000000000000000000000060648201526084016101ea565b73ffffffffffffffffffffffffffffffffffffffff85163b61092e576040517f08c379a000000000000000000000000000000000000000000000000000000000815260206004820152601d60248201527f416464726573733a2063616c6c20746f206e6f6e2d636f6e747261637400000060448201526064016101ea565b6000808673ffffffffffffffffffffffffffffffffffffffff1685876040516109579190610d9c565b60006040518083038185875af1925050503d8060008114610994576040519150601f19603f3d011682016040523d82523d6000602084013e610999565b606091505b50915091506109a9828286610aef565b979650505050505050565b60006101846064610b42565b60006109cb82610b42565b610a01576040517f4a74df9200000000000000000000000000000000000000000000000000000000815260040160405180910390fd5b8173ffffffffffffffffffffffffffffffffffffffff1663175a260b6040518163ffffffff1660e01b8152600401602060405180830381865afa158015610a4c573d6000803e3d6000fd5b505050506040513d601f19601f82011682018060405250810190610a709190610db8565b610a7a5733610ae9565b8173ffffffffffffffffffffffffffffffffffffffff1663d74523b36040518163ffffffff1660e01b8152600401602060405180830381865afa158015610ac5573d6000803e3d6000fd5b505050506040513d601f19601f82011682018060405250810190610ae99190610dda565b92915050565b60608315610afe575081610388565b825115610b0e5782518084602001fd5b816040517f08c379a00000000000000000000000000000000000000000000000000000000081526004016101ea9190610d6c565b60008173ffffffffffffffffffffffffffffffffffffffff166308bd624c6040518163ffffffff1660e01b8152600401602060405180830381865afa158015610b8f573d6000803e3d6000fd5b505050506040513d601f19601f82011682018060405250810190610ae99190610db8565b73ffffffffffffffffffffffffffffffffffffffff81168114610bd557600080fd5b50565b7f4e487b7100000000000000000000000000000000000000000000000000000000600052604160045260246000fd5b600080600060608486031215610c1c57600080fd5b8335610c2781610bb3565b9250602084013567ffffffffffffffff80821115610c4457600080fd5b818601915086601f830112610c5857600080fd5b813581811115610c6a57610c6a610bd8565b604051601f82017fffffffffffffffffffffffffffffffffffffffffffffffffffffffffffffffe0908116603f01168101908382118183101715610cb057610cb0610bd8565b81604052828152896020848701011115610cc957600080fd5b826020860160208301376000602084830101528096505050505050604084013590509250925092565b60005b83811015610d0d578181015183820152602001610cf5565b83811115610d1c576000848401525b50505050565b60008151808452610d3a816020860160208601610cf2565b601f017fffffffffffffffffffffffffffffffffffffffffffffffffffffffffffffffe0169290920160200192915050565b6020815260006103886020830184610d22565b600060208284031215610d9157600080fd5b813561038881610bb3565b60008251610dae818460208701610cf2565b9190910192915050565b600060208284031215610dca57600080fd5b8151801515811461038857600080fd5b600060208284031215610dec57600080fd5b815161038881610bb356fe416464726573733a206c6f772d6c6576656c2063616c6c20776974682076616c7565206661696c6564a2646970667358221220b57af849edfe34f8516d1934f8ac2830afd77da305dc3244bb9f1fa195017d7164736f6c634300080f0033",
  "devdoc": {
    "details": "This contract is designed to act as an owner of any Ownable contract, allowing      Cross Chain Ownership without modification to the underlying ownable contract. This contract      is specific to the Arbitrum L2-side and should not be used on other chains.      See {UCrossChainOwner} for initialization and usage.",
    "kind": "dev",
    "methods": {
      "acceptOwner()": {
        "details": "Can only be called by the pending owner to ensure correctness. Calls to the `_beforeAcceptOwner` hook      to perform logic before updating ownership."
      },
      "updatePendingOwner(address)": {
        "details": "Can only be called by the current owner      New owner does not take affect until that address calls `acceptOwner()`",
        "params": {
          "newPendingOwner": "New pending owner address"
        }
      }
    },
    "title": "UCrossChainOwner_Arbitrum",
    "version": 1
  },
  "userdoc": {
    "kind": "user",
    "methods": {
      "acceptOwner()": {
        "notice": "Accepts and transfers the ownership of the contract to the pending owner"
      },
      "updatePendingOwner(address)": {
        "notice": "Updates the new pending owner"
      }
    },
    "notice": "Contract to act as an owner of other contracts",
    "version": 1
  },
  "storageLayout": {
    "storage": [],
    "types": null
  }
}