{
  "address": "0xAEf566ca7E84d1E736f999765a804687f39D9094",
  "abi": [
    {
      "inputs": [
        {
          "internalType": "uint256",
          "name": "value",
          "type": "uint256"
        }
      ],
      "name": "Fixed18OverflowError",
      "type": "error"
    },
    {
      "inputs": [],
      "name": "IncentivizerBatchClaimArgumentMismatchError",
      "type": "error"
    },
    {
      "inputs": [
        {
          "internalType": "contract IProduct",
          "name": "product",
          "type": "address"
        },
        {
          "internalType": "uint256",
          "name": "programId",
          "type": "uint256"
        }
      ],
      "name": "IncentivizerInvalidProgramError",
      "type": "error"
    },
    {
      "inputs": [
        {
          "internalType": "contract IProduct",
          "name": "product",
          "type": "address"
        }
      ],
      "name": "IncentivizerNotAllowedError",
      "type": "error"
    },
    {
      "inputs": [
        {
          "internalType": "contract IProduct",
          "name": "product",
          "type": "address"
        },
        {
          "internalType": "uint256",
          "name": "programId",
          "type": "uint256"
        }
      ],
      "name": "IncentivizerNotProgramOwnerError",
      "type": "error"
    },
    {
      "inputs": [],
      "name": "IncentivizerTooManyProgramsError",
      "type": "error"
    },
    {
      "inputs": [],
      "name": "InvalidControllerError",
      "type": "error"
    },
    {
      "inputs": [
        {
          "internalType": "address",
          "name": "account",
          "type": "address"
        },
        {
          "internalType": "address",
          "name": "operator",
          "type": "address"
        }
      ],
      "name": "NotAccountOrMultiInvokerError",
      "type": "error"
    },
    {
      "inputs": [],
      "name": "NotCollateralError",
      "type": "error"
    },
    {
      "inputs": [
        {
          "internalType": "uint256",
          "name": "coordinatorId",
          "type": "uint256"
        }
      ],
      "name": "NotOwnerError",
      "type": "error"
    },
    {
      "inputs": [
        {
          "internalType": "contract IProduct",
          "name": "product",
          "type": "address"
        }
      ],
      "name": "NotProductError",
      "type": "error"
    },
    {
      "inputs": [],
      "name": "PausedError",
      "type": "error"
    },
    {
      "inputs": [],
      "name": "ProgramInvalidDurationError",
      "type": "error"
    },
    {
      "inputs": [],
      "name": "ProgramInvalidStartError",
      "type": "error"
    },
    {
      "inputs": [
        {
          "internalType": "int256",
          "name": "value",
          "type": "int256"
        }
      ],
      "name": "UFixed18UnderflowError",
      "type": "error"
    },
    {
      "inputs": [
        {
          "internalType": "uint256",
          "name": "version",
          "type": "uint256"
        }
      ],
      "name": "UInitializableAlreadyInitializedError",
      "type": "error"
    },
    {
      "inputs": [],
      "name": "UInitializableNotInitializingError",
      "type": "error"
    },
    {
      "inputs": [],
      "name": "UInitializableZeroVersionError",
      "type": "error"
    },
    {
      "inputs": [],
      "name": "UReentrancyGuardReentrantCallError",
      "type": "error"
    },
    {
      "anonymous": false,
      "inputs": [
        {
          "indexed": true,
          "internalType": "contract IProduct",
          "name": "product",
          "type": "address"
        },
        {
          "indexed": true,
          "internalType": "address",
          "name": "account",
          "type": "address"
        },
        {
          "indexed": true,
          "internalType": "uint256",
          "name": "programId",
          "type": "uint256"
        },
        {
          "indexed": false,
          "internalType": "UFixed18",
          "name": "amount",
          "type": "uint256"
        }
      ],
      "name": "Claim",
      "type": "event"
    },
    {
      "anonymous": false,
      "inputs": [
        {
          "indexed": true,
          "internalType": "Token18",
          "name": "token",
          "type": "address"
        },
        {
          "indexed": false,
          "internalType": "UFixed18",
          "name": "amount",
          "type": "uint256"
        }
      ],
      "name": "FeeClaim",
      "type": "event"
    },
    {
      "anonymous": false,
      "inputs": [
        {
          "indexed": false,
          "internalType": "uint256",
          "name": "version",
          "type": "uint256"
        }
      ],
      "name": "Initialized",
      "type": "event"
    },
    {
      "anonymous": false,
      "inputs": [
        {
          "indexed": true,
          "internalType": "contract IProduct",
          "name": "product",
          "type": "address"
        },
        {
          "indexed": true,
          "internalType": "uint256",
          "name": "programId",
          "type": "uint256"
        },
        {
          "indexed": false,
          "internalType": "uint256",
          "name": "version",
          "type": "uint256"
        }
      ],
      "name": "ProgramComplete",
      "type": "event"
    },
    {
      "anonymous": false,
      "inputs": [
        {
          "indexed": true,
          "internalType": "contract IProduct",
          "name": "product",
          "type": "address"
        },
        {
          "indexed": true,
          "internalType": "uint256",
          "name": "programId",
          "type": "uint256"
        },
        {
          "components": [
            {
              "internalType": "uint256",
              "name": "coordinatorId",
              "type": "uint256"
            },
            {
              "components": [
                {
                  "internalType": "UFixed18",
                  "name": "maker",
                  "type": "uint256"
                },
                {
                  "internalType": "UFixed18",
                  "name": "taker",
                  "type": "uint256"
                }
              ],
              "internalType": "struct Position",
              "name": "amount",
              "type": "tuple"
            },
            {
              "internalType": "uint256",
              "name": "start",
              "type": "uint256"
            },
            {
              "internalType": "uint256",
              "name": "duration",
              "type": "uint256"
            },
            {
              "internalType": "Token18",
              "name": "token",
              "type": "address"
            }
          ],
          "indexed": false,
          "internalType": "struct ProgramInfo",
          "name": "programInfo",
          "type": "tuple"
        },
        {
          "indexed": false,
          "internalType": "UFixed18",
          "name": "programFeeAmount",
          "type": "uint256"
        }
      ],
      "name": "ProgramCreated",
      "type": "event"
    },
    {
      "anonymous": false,
      "inputs": [
        {
          "indexed": true,
          "internalType": "contract IProduct",
          "name": "product",
          "type": "address"
        },
        {
          "indexed": true,
          "internalType": "uint256",
          "name": "programId",
          "type": "uint256"
        },
        {
          "indexed": false,
          "internalType": "uint256",
          "name": "version",
          "type": "uint256"
        }
      ],
      "name": "ProgramStarted",
      "type": "event"
    },
    {
      "inputs": [
        {
          "internalType": "contract IProduct",
          "name": "product",
          "type": "address"
        }
      ],
      "name": "active",
      "outputs": [
        {
          "internalType": "uint256",
          "name": "",
          "type": "uint256"
        }
      ],
      "stateMutability": "view",
      "type": "function"
    },
    {
      "inputs": [
        {
          "internalType": "contract IProduct",
          "name": "product",
          "type": "address"
        },
        {
          "internalType": "uint256",
          "name": "programId",
          "type": "uint256"
        }
      ],
      "name": "available",
      "outputs": [
        {
          "internalType": "UFixed18",
          "name": "",
          "type": "uint256"
        }
      ],
      "stateMutability": "view",
      "type": "function"
    },
    {
      "inputs": [
        {
          "internalType": "contract IProduct",
          "name": "product",
          "type": "address"
        },
        {
          "internalType": "uint256[]",
          "name": "programIds",
          "type": "uint256[]"
        }
      ],
      "name": "claim",
      "outputs": [],
      "stateMutability": "nonpayable",
      "type": "function"
    },
    {
      "inputs": [
        {
          "internalType": "contract IProduct[]",
          "name": "products",
          "type": "address[]"
        },
        {
          "internalType": "uint256[][]",
          "name": "programIds",
          "type": "uint256[][]"
        }
      ],
      "name": "claim",
      "outputs": [],
      "stateMutability": "nonpayable",
      "type": "function"
    },
    {
      "inputs": [
        {
          "internalType": "Token18[]",
          "name": "tokens",
          "type": "address[]"
        }
      ],
      "name": "claimFee",
      "outputs": [],
      "stateMutability": "nonpayable",
      "type": "function"
    },
    {
      "inputs": [
        {
          "internalType": "address",
          "name": "account",
          "type": "address"
        },
        {
          "internalType": "contract IProduct",
          "name": "product",
          "type": "address"
        },
        {
          "internalType": "uint256[]",
          "name": "programIds",
          "type": "uint256[]"
        }
      ],
      "name": "claimFor",
      "outputs": [],
      "stateMutability": "nonpayable",
      "type": "function"
    },
    {
      "inputs": [
        {
          "internalType": "contract IProduct",
          "name": "product",
          "type": "address"
        },
        {
          "internalType": "uint256",
          "name": "programId",
          "type": "uint256"
        }
      ],
      "name": "complete",
      "outputs": [],
      "stateMutability": "nonpayable",
      "type": "function"
    },
    {
      "inputs": [],
      "name": "controller",
      "outputs": [
        {
          "internalType": "contract IController",
          "name": "",
          "type": "address"
        }
      ],
      "stateMutability": "view",
      "type": "function"
    },
    {
      "inputs": [
        {
          "internalType": "contract IProduct",
          "name": "product",
          "type": "address"
        }
      ],
      "name": "count",
      "outputs": [
        {
          "internalType": "uint256",
          "name": "",
          "type": "uint256"
        }
      ],
      "stateMutability": "view",
      "type": "function"
    },
    {
      "inputs": [
        {
          "internalType": "contract IProduct",
          "name": "product",
          "type": "address"
        },
        {
          "components": [
            {
              "internalType": "uint256",
              "name": "coordinatorId",
              "type": "uint256"
            },
            {
              "components": [
                {
                  "internalType": "UFixed18",
                  "name": "maker",
                  "type": "uint256"
                },
                {
                  "internalType": "UFixed18",
                  "name": "taker",
                  "type": "uint256"
                }
              ],
              "internalType": "struct Position",
              "name": "amount",
              "type": "tuple"
            },
            {
              "internalType": "uint256",
              "name": "start",
              "type": "uint256"
            },
            {
              "internalType": "uint256",
              "name": "duration",
              "type": "uint256"
            },
            {
              "internalType": "Token18",
              "name": "token",
              "type": "address"
            }
          ],
          "internalType": "struct ProgramInfo",
          "name": "programInfo",
          "type": "tuple"
        }
      ],
      "name": "create",
      "outputs": [
        {
          "internalType": "uint256",
          "name": "programId",
          "type": "uint256"
        }
      ],
      "stateMutability": "nonpayable",
      "type": "function"
    },
    {
      "inputs": [
        {
          "internalType": "Token18",
          "name": "",
          "type": "address"
        }
      ],
      "name": "fees",
      "outputs": [
        {
          "internalType": "UFixed18",
          "name": "",
          "type": "uint256"
        }
      ],
      "stateMutability": "view",
      "type": "function"
    },
    {
      "inputs": [
        {
          "internalType": "contract IController",
          "name": "controller_",
          "type": "address"
        }
      ],
      "name": "initialize",
      "outputs": [],
      "stateMutability": "nonpayable",
      "type": "function"
    },
    {
      "inputs": [
        {
          "internalType": "contract IProduct",
          "name": "product",
          "type": "address"
        },
        {
          "internalType": "uint256",
          "name": "programId",
          "type": "uint256"
        }
      ],
      "name": "owner",
      "outputs": [
        {
          "internalType": "address",
          "name": "",
          "type": "address"
        }
      ],
      "stateMutability": "view",
      "type": "function"
    },
    {
      "inputs": [
        {
          "internalType": "contract IProduct",
          "name": "product",
          "type": "address"
        },
        {
          "internalType": "uint256",
          "name": "programId",
          "type": "uint256"
        }
      ],
      "name": "programInfos",
      "outputs": [
        {
          "components": [
            {
              "internalType": "uint256",
              "name": "coordinatorId",
              "type": "uint256"
            },
            {
              "components": [
                {
                  "internalType": "UFixed18",
                  "name": "maker",
                  "type": "uint256"
                },
                {
                  "internalType": "UFixed18",
                  "name": "taker",
                  "type": "uint256"
                }
              ],
              "internalType": "struct Position",
              "name": "amount",
              "type": "tuple"
            },
            {
              "internalType": "uint256",
              "name": "start",
              "type": "uint256"
            },
            {
              "internalType": "uint256",
              "name": "duration",
              "type": "uint256"
            },
            {
              "internalType": "Token18",
              "name": "token",
              "type": "address"
            }
          ],
          "internalType": "struct ProgramInfo",
          "name": "",
          "type": "tuple"
        }
      ],
      "stateMutability": "view",
      "type": "function"
    },
    {
      "inputs": [
        {
          "components": [
            {
              "internalType": "uint256",
              "name": "version",
              "type": "uint256"
            },
            {
              "internalType": "uint256",
              "name": "timestamp",
              "type": "uint256"
            },
            {
              "internalType": "Fixed18",
              "name": "price",
              "type": "int256"
            }
          ],
          "internalType": "struct IOracleProvider.OracleVersion",
          "name": "currentOracleVersion",
          "type": "tuple"
        }
      ],
      "name": "sync",
      "outputs": [],
      "stateMutability": "nonpayable",
      "type": "function"
    },
    {
      "inputs": [
        {
          "internalType": "address",
          "name": "account",
          "type": "address"
        },
        {
          "components": [
            {
              "internalType": "uint256",
              "name": "version",
              "type": "uint256"
            },
            {
              "internalType": "uint256",
              "name": "timestamp",
              "type": "uint256"
            },
            {
              "internalType": "Fixed18",
              "name": "price",
              "type": "int256"
            }
          ],
          "internalType": "struct IOracleProvider.OracleVersion",
          "name": "currentOracleVersion",
          "type": "tuple"
        }
      ],
      "name": "syncAccount",
      "outputs": [],
      "stateMutability": "nonpayable",
      "type": "function"
    },
    {
      "inputs": [
        {
          "internalType": "contract IProduct",
          "name": "product",
          "type": "address"
        },
        {
          "internalType": "uint256",
          "name": "programId",
          "type": "uint256"
        }
      ],
      "name": "treasury",
      "outputs": [
        {
          "internalType": "address",
          "name": "",
          "type": "address"
        }
      ],
      "stateMutability": "view",
      "type": "function"
    },
    {
      "inputs": [
        {
          "internalType": "contract IProduct",
          "name": "product",
          "type": "address"
        },
        {
          "internalType": "address",
          "name": "account",
          "type": "address"
        },
        {
          "internalType": "uint256",
          "name": "programId",
          "type": "uint256"
        }
      ],
      "name": "unclaimed",
      "outputs": [
        {
          "internalType": "UFixed18",
          "name": "",
          "type": "uint256"
        }
      ],
      "stateMutability": "view",
      "type": "function"
    },
    {
      "inputs": [
        {
          "internalType": "contract IProduct",
          "name": "product",
          "type": "address"
        },
        {
          "internalType": "uint256",
          "name": "programId",
          "type": "uint256"
        }
      ],
      "name": "versionComplete",
      "outputs": [
        {
          "internalType": "uint256",
          "name": "",
          "type": "uint256"
        }
      ],
      "stateMutability": "view",
      "type": "function"
    },
    {
      "inputs": [
        {
          "internalType": "contract IProduct",
          "name": "product",
          "type": "address"
        },
        {
          "internalType": "uint256",
          "name": "programId",
          "type": "uint256"
        }
      ],
      "name": "versionStarted",
      "outputs": [
        {
          "internalType": "uint256",
          "name": "",
          "type": "uint256"
        }
      ],
      "stateMutability": "view",
      "type": "function"
    }
  ],
  "transactionHash": "0x259f838787b16da6fb0fb717958db1e28419df11e450b6b097b7fd3e6c5bb3fe",
  "args": [],
  "numDeployments": 1,
  "solcInputHash": "0954eb4c5a9afab2c0aa2d884eb92458",
  "bytecode": "0x608060405234801561001057600080fd5b5061444f806100206000396000f3fe608060405234801561001057600080fd5b506004361061016b5760003560e01c806370f3f08b116100cd578063d758869111610081578063f77c479111610066578063f77c479114610352578063f8724aba1461035a578063faaebd21146103a257600080fd5b8063d75886911461032c578063e1e5a82e1461033f57600080fd5b8063a55ff01d116100b2578063a55ff01d146102f3578063b774b60114610306578063c4d66de81461031957600080fd5b806370f3f08b1461029857806390672ad8146102e057600080fd5b80632c3e50e5116101245780634ea71327116101095780634ea713271461025f57806366f8162e146102725780636da0d5401461028557600080fd5b80632c3e50e51461022c578063457182781461024c57600080fd5b8063095c824111610155578063095c8241146101ce578063144dcdd1146101e15780631830349c1461021957600080fd5b80628240531461017057806305d85eda14610185575b600080fd5b61018361017e3660046138f8565b6103c2565b005b6101bb61019336600461395d565b73ffffffffffffffffffffffffffffffffffffffff1660009081526020819052604090205490565b6040519081526020015b60405180910390f35b6101bb6101dc36600461397a565b6105cf565b6101f46101ef36600461397a565b61060b565b60405173ffffffffffffffffffffffffffffffffffffffff90911681526020016101c5565b610183610227366004613aa8565b6106fa565b61023f61023a36600461397a565b6107ea565b6040516101c59190613ade565b61018361025a366004613b3a565b6108a4565b6101bb61026d36600461395d565b610990565b6101bb610280366004613b8f565b6109be565b6101f461029336600461397a565b6109f6565b6101bb6102a636600461397a565b73ffffffffffffffffffffffffffffffffffffffff9190911660009081526020818152604080832093835260019093019052206003015490565b6101836102ee366004613bd0565b610a6d565b610183610301366004613c30565b610bce565b610183610314366004613c4c565b610cfb565b61018361032736600461395d565b610f05565b6101bb61033a366004613c8e565b611023565b61018361034d36600461397a565b6116c1565b6101f461197c565b6101bb61036836600461397a565b73ffffffffffffffffffffffffffffffffffffffff9190911660009081526020818152604080832093835260019384019091529020015490565b6101bb6103b036600461395d565b60016020526000908152604090205481565b60026103ec7f1b30fe15febd596dffd21d4da0657732eea42b4b5a9789e3e6daab3d570999d75490565b03610423576040517ff320323600000000000000000000000000000000000000000000000000000000815260040160405180910390fd5b60027f1b30fe15febd596dffd21d4da0657732eea42b4b5a9789e3e6daab3d570999d755833373ffffffffffffffffffffffffffffffffffffffff8216148061050c575061046f61197c565b73ffffffffffffffffffffffffffffffffffffffff1663479e58f06040518163ffffffff1660e01b8152600401602060405180830381865afa1580156104b9573d6000803e3d6000fd5b505050506040513d601f19601f820116820180604052508101906104dd9190613ced565b73ffffffffffffffffffffffffffffffffffffffff163373ffffffffffffffffffffffffffffffffffffffff16145b610565576040517f6dc3a3c300000000000000000000000000000000000000000000000000000000815273ffffffffffffffffffffffffffffffffffffffff821660048201523360248201526044015b60405180910390fd5b6105a385858585808060200260200160405190810160405280939291908181526020018383602002808284376000920191909152506119af92505050565b5060017f1b30fe15febd596dffd21d4da0657732eea42b4b5a9789e3e6daab3d570999d7555b50505050565b73ffffffffffffffffffffffffffffffffffffffff82166000908152602081815260408083208484526001019091529020600201545b92915050565b600061061561197c565b73ffffffffffffffffffffffffffffffffffffffff16634c5430a06000808673ffffffffffffffffffffffffffffffffffffffff1673ffffffffffffffffffffffffffffffffffffffff168152602001908152602001600020600001848154811061068257610682613d0a565b9060005260206000209060060201600001546040518263ffffffff1660e01b81526004016106b291815260200190565b602060405180830381865afa1580156106cf573d6000803e3d6000fd5b505050506040513d601f19601f820116820180604052508101906106f39190613ced565b9392505050565b61070261197c565b6040517f7fd2919200000000000000000000000000000000000000000000000000000000815233600482015273ffffffffffffffffffffffffffffffffffffffff9190911690637fd2919290602401602060405180830381865afa15801561076e573d6000803e3d6000fd5b505050506040513d601f19601f820116820180604052508101906107929190613d39565b6107ca576040517f4d53256500000000000000000000000000000000000000000000000000000000815233600482015260240161055c565b3360008181526020819052604090206107e590828585611c15565b505050565b6107f2613831565b73ffffffffffffffffffffffffffffffffffffffff8316600090815260208190526040902080548390811061082957610829613d0a565b60009182526020918290206040805160a0810182526006909302909101805483528151808301835260018201548152600282015481860152938301939093526003830154908201526004820154606082015260059091015473ffffffffffffffffffffffffffffffffffffffff166080820152905092915050565b60026108ce7f1b30fe15febd596dffd21d4da0657732eea42b4b5a9789e3e6daab3d570999d75490565b03610905576040517ff320323600000000000000000000000000000000000000000000000000000000815260040160405180910390fd5b60027f1b30fe15febd596dffd21d4da0657732eea42b4b5a9789e3e6daab3d570999d75561096733848484808060200260200160405190810160405280939291908181526020018383602002808284376000920191909152506119af92505050565b60017f1b30fe15febd596dffd21d4da0657732eea42b4b5a9789e3e6daab3d570999d755505050565b73ffffffffffffffffffffffffffffffffffffffff8116600090815260208190526040812061060590611e1e565b73ffffffffffffffffffffffffffffffffffffffff831660009081526020819052604081206109ee908484611e2c565b949350505050565b6000610a0061197c565b73ffffffffffffffffffffffffffffffffffffffff1663a123c33e6000808673ffffffffffffffffffffffffffffffffffffffff1673ffffffffffffffffffffffffffffffffffffffff168152602001908152602001600020600001848154811061068257610682613d0a565b6002610a977f1b30fe15febd596dffd21d4da0657732eea42b4b5a9789e3e6daab3d570999d75490565b03610ace576040517ff320323600000000000000000000000000000000000000000000000000000000815260040160405180910390fd5b60027f1b30fe15febd596dffd21d4da0657732eea42b4b5a9789e3e6daab3d570999d755828114610b2b576040517f90fb223000000000000000000000000000000000000000000000000000000000815260040160405180910390fd5b60005b838110156105a357610bbc33868684818110610b4c57610b4c613d0a565b9050602002016020810190610b61919061395d565b858585818110610b7357610b73613d0a565b9050602002810190610b859190613d5b565b808060200260200160405190810160405280939291908181526020018383602002808284376000920191909152506119af92505050565b80610bc681613df2565b915050610b2e565b610bd661197c565b6040517f7fd2919200000000000000000000000000000000000000000000000000000000815233600482015273ffffffffffffffffffffffffffffffffffffffff9190911690637fd2919290602401602060405180830381865afa158015610c42573d6000803e3d6000fd5b505050506040513d601f19601f82011682018060405250810190610c669190613d39565b610c9e576040517f4d53256500000000000000000000000000000000000000000000000000000000815233600482015260240161055c565b336000818152602081905260408120610cb8908385611e7f565b905060005b81518110156105c957610ce983838381518110610cdc57610cdc613d0a565b6020026020010151612093565b80610cf381613df2565b915050610cbd565b610d0361197c565b73ffffffffffffffffffffffffffffffffffffffff16635c975abb6040518163ffffffff1660e01b8152600401602060405180830381865afa158015610d4d573d6000803e3d6000fd5b505050506040513d601f19601f82011682018060405250810190610d719190613d39565b15610da8576040517feced32bc00000000000000000000000000000000000000000000000000000000815260040160405180910390fd5b60005b818110156107e5576000838383818110610dc757610dc7613d0a565b9050602002016020810190610ddc919061395d565b73ffffffffffffffffffffffffffffffffffffffff811660009081526001602052604081208054919055909150610ea0610e1461197c565b73ffffffffffffffffffffffffffffffffffffffff166361d027b36040518163ffffffff1660e01b8152600401602060405180830381865afa158015610e5e573d6000803e3d6000fd5b505050506040513d601f19601f82011682018060405250810190610e829190613ced565b73ffffffffffffffffffffffffffffffffffffffff841690836121c1565b8173ffffffffffffffffffffffffffffffffffffffff167f10df095d1434aed409b2f33d2a6a8456f8b0824633cc12a1b43032085aadc41d82604051610ee891815260200190565b60405180910390a250508080610efd90613df2565b915050610dab565b600180610f307f5db5abc19987c2b3729df7961b62b6bb0bae886dd47e3ce25bb3a3af34c6d80b5490565b10610f6a576040517f1e7a9d950000000000000000000000000000000000000000000000000000000081526004810182905260240161055c565b610f937f5db5abc19987c2b3729df7961b62b6bb0bae886dd47e3ce25bb3a3af34c6d80b829055565b60017fad57d7911b7e3d6c3c79a68ba909a7f4ba41f9485e5207b12dee0d0c6af5398c55610fc0826121e2565b610fc86122c2565b60007fad57d7911b7e3d6c3c79a68ba909a7f4ba41f9485e5207b12dee0d0c6af5398c556040518181527fbe9b076dc5b65990cca9dd9d7366682482e7817a6f6bc7f4faf4dc32af497f329060200160405180910390a15050565b6000600261104f7f1b30fe15febd596dffd21d4da0657732eea42b4b5a9789e3e6daab3d570999d75490565b03611086576040517ff320323600000000000000000000000000000000000000000000000000000000815260040160405180910390fd5b60027f1b30fe15febd596dffd21d4da0657732eea42b4b5a9789e3e6daab3d570999d755826110b361197c565b6040517f7fd2919200000000000000000000000000000000000000000000000000000000815273ffffffffffffffffffffffffffffffffffffffff83811660048301529190911690637fd2919290602401602060405180830381865afa158015611121573d6000803e3d6000fd5b505050506040513d601f19601f820116820180604052508101906111459190613d39565b611193576040517f4d53256500000000000000000000000000000000000000000000000000000000815273ffffffffffffffffffffffffffffffffffffffff8216600482015260240161055c565b61119b61197c565b73ffffffffffffffffffffffffffffffffffffffff16635c975abb6040518163ffffffff1660e01b8152600401602060405180830381865afa1580156111e5573d6000803e3d6000fd5b505050506040513d601f19601f820116820180604052508101906112099190613d39565b15611240576040517feced32bc00000000000000000000000000000000000000000000000000000000815260040160405180910390fd5b823561124a61197c565b73ffffffffffffffffffffffffffffffffffffffff1663a123c33e826040518263ffffffff1660e01b815260040161128491815260200190565b602060405180830381865afa1580156112a1573d6000803e3d6000fd5b505050506040513d601f19601f820116820180604052508101906112c59190613ced565b73ffffffffffffffffffffffffffffffffffffffff163373ffffffffffffffffffffffffffffffffffffffff161461132c576040517f48f62f3c0000000000000000000000000000000000000000000000000000000081526004810182905260240161055c565b600061133661197c565b90508435158015906113d857506040517f7d254e6600000000000000000000000000000000000000000000000000000000815273ffffffffffffffffffffffffffffffffffffffff8781166004830152821690637d254e6690602401602060405180830381865afa1580156113af573d6000803e3d6000fd5b505050506040513d601f19601f820116820180604052508101906113d39190613e2a565b853514155b15611427576040517fe264a52400000000000000000000000000000000000000000000000000000000815273ffffffffffffffffffffffffffffffffffffffff8716600482015260240161055c565b8073ffffffffffffffffffffffffffffffffffffffff16637d49c1b76040518163ffffffff1660e01b8152600401602060405180830381865afa158015611472573d6000803e3d6000fd5b505050506040513d601f19601f820116820180604052508101906114969190613e2a565b61149f87610990565b106114d6576040517f1651519200000000000000000000000000000000000000000000000000000000815260040160405180910390fd5b6114ed6114e836879003870187613eb9565b61234e565b60008061157661150236899003890189613eb9565b8473ffffffffffffffffffffffffffffffffffffffff16633ceda0116040518163ffffffff1660e01b8152600401602060405180830381865afa15801561154d573d6000803e3d6000fd5b505050506040513d601f19601f820116820180604052508101906115719190613e2a565b6123de565b608082015173ffffffffffffffffffffffffffffffffffffffff1660009081526001602052604090205491935091506115af908261243d565b608083015173ffffffffffffffffffffffffffffffffffffffff908116600090815260016020908152604080832094909455918b16815290819052206115f59083612449565b955061163733611615611610368b90038b0160208c01613f5c565b612503565b608085015173ffffffffffffffffffffffffffffffffffffffff169190612517565b858873ffffffffffffffffffffffffffffffffffffffff167fee8233a38e17998eb73ba822048e13762f2b68729ef94c45133866ee75754dc68484604051611680929190613f78565b60405180910390a3505050505061060560017f1b30fe15febd596dffd21d4da0657732eea42b4b5a9789e3e6daab3d570999d76119ab90919063ffffffff16565b60026116eb7f1b30fe15febd596dffd21d4da0657732eea42b4b5a9789e3e6daab3d570999d75490565b03611722576040517ff320323600000000000000000000000000000000000000000000000000000000815260040160405180910390fd5b60027f1b30fe15febd596dffd21d4da0657732eea42b4b5a9789e3e6daab3d570999d75573ffffffffffffffffffffffffffffffffffffffff82166000908152602081905260409020548290829081106117c7576040517fd063582900000000000000000000000000000000000000000000000000000000815273ffffffffffffffffffffffffffffffffffffffff831660048201526024810182905260440161055c565b6117cf61197c565b73ffffffffffffffffffffffffffffffffffffffff16635c975abb6040518163ffffffff1660e01b8152600401602060405180830381865afa158015611819573d6000803e3d6000fd5b505050506040513d601f19601f8201168201806040525081019061183d9190613d39565b15611874576040517feced32bc00000000000000000000000000000000000000000000000000000000815260040160405180910390fd5b838361188082826109f6565b73ffffffffffffffffffffffffffffffffffffffff163373ffffffffffffffffffffffffffffffffffffffff1614611903576040517fa17e375200000000000000000000000000000000000000000000000000000000815273ffffffffffffffffffffffffffffffffffffffff831660048201526024810182905260440161055c565b73ffffffffffffffffffffffffffffffffffffffff86166000908152602081905260408120611933908888612539565b905061193f8782612093565b505050505061197860017f1b30fe15febd596dffd21d4da0657732eea42b4b5a9789e3e6daab3d570999d76119ab90919063ffffffff16565b5050565b60006119a67f0e555410d8128dff796eab5d29b97dd593ce9cab44a71b64c08244579ea605335490565b905090565b9055565b816119b861197c565b6040517f7fd2919200000000000000000000000000000000000000000000000000000000815273ffffffffffffffffffffffffffffffffffffffff83811660048301529190911690637fd2919290602401602060405180830381865afa158015611a26573d6000803e3d6000fd5b505050506040513d601f19601f82011682018060405250810190611a4a9190613d39565b611a98576040517f4d53256500000000000000000000000000000000000000000000000000000000815273ffffffffffffffffffffffffffffffffffffffff8216600482015260240161055c565b611aa061197c565b73ffffffffffffffffffffffffffffffffffffffff16635c975abb6040518163ffffffff1660e01b8152600401602060405180830381865afa158015611aea573d6000803e3d6000fd5b505050506040513d601f19601f82011682018060405250810190611b0e9190613d39565b15611b45576040517feced32bc00000000000000000000000000000000000000000000000000000000815260040160405180910390fd5b6040517ff667f89700000000000000000000000000000000000000000000000000000000815273ffffffffffffffffffffffffffffffffffffffff80861660048301528591859182169063f667f89790602401600060405180830381600087803b158015611bb257600080fd5b505af1158015611bc6573d6000803e3d6000fd5b5050505060005b8451811015611c0c57611bfa8787878481518110611bed57611bed613d0a565b6020026020010151612629565b80611c0481613df2565b915050611bcd565b50505050505050565b73ffffffffffffffffffffffffffffffffffffffff821660009081526005850160205260409020548454815b81811015611c8d5773ffffffffffffffffffffffffffffffffffffffff851660009081526004880160205260409020611c7a908261275d565b5080611c8581613df2565b915050611c41565b5073ffffffffffffffffffffffffffffffffffffffff841660009081526005870160209081526040808320849055600489019091528120611ccd90612769565b905060005b8151811015611e14576000828281518110611cef57611cef613d0a565b6020026020010151905060008960010160008381526020019081526020016000209050611da8898b6000018481548110611d2b57611d2b613d0a565b60009182526020918290206040805160a0810182526006909302909101805483528151808301835260018201548152600282015481860152938301939093526003830154908201526004820154606082015260059091015473ffffffffffffffffffffffffffffffffffffffff1660808201528391908b8b612776565b611db560028b01836127fd565b158015611dc757506003810154875110155b15611dff5773ffffffffffffffffffffffffffffffffffffffff8816600090815260048b0160205260409020611dfd9083612815565b505b50508080611e0c90613df2565b915050611cd2565b5050505050505050565b600061060582600201612821565b6000611e39848390541190565b611e45575060006106f3565b506000818152600184016020908152604080832073ffffffffffffffffffffffffffffffffffffffff861684529091529020549392505050565b60606000611e8f85600201612769565b9050805167ffffffffffffffff811115611eab57611eab6139a6565b604051908082528060200260200182016040528015611f0757816020015b611ef46040518060800160405280600081526020016000815260200160008152602001600081525090565b815260200190600190039081611ec95790505b50915060005b815181101561208a576000828281518110611f2a57611f2a613d0a565b602002602001015190506000876000018281548110611f4b57611f4b613d0a565b600091825260208083206040805160a08101825260069094029091018054845281518083018352600180830154825260028084015483870152868601929092526003830154868501526004830154606087015260059092015473ffffffffffffffffffffffffffffffffffffffff166080860152878652908d019092528320908101549193509190158015611fe857506020880151604084015111155b15611ffb57611ff88a858a61282b565b90505b6000808360030154600014801561201d575060208a015161201d908690612848565b156120335761202d8c8c88612868565b90925090505b60405180608001604052808781526020018481526020018381526020018281525089888151811061206657612066613d0a565b6020026020010181905250505050505050808061208290613df2565b915050611f0d565b50509392505050565b80516060820151156120fd576120fd6120ac848361060b565b606084015173ffffffffffffffffffffffffffffffffffffffff861660009081526020819052604090206120e09085612924565b73ffffffffffffffffffffffffffffffffffffffff1691906121c1565b60208201511561215d57808373ffffffffffffffffffffffffffffffffffffffff167f1239d8c1165187259e281474a9ae5bb87fabb197873589de0a2645ae5e2261da846020015160405161215491815260200190565b60405180910390a35b6040820151156107e557808373ffffffffffffffffffffffffffffffffffffffff167fc590246f839a70d2279ef40b9e46b50bb20789c016f823abca87b69963f2258484604001516040516121b491815260200190565b60405180910390a3505050565b6107e573ffffffffffffffffffffffffffffffffffffffff8416838361296c565b303b1515801561221157507fad57d7911b7e3d6c3c79a68ba909a7f4ba41f9485e5207b12dee0d0c6af5398c54155b15612248576040517f689f12a400000000000000000000000000000000000000000000000000000000815260040160405180910390fd5b73ffffffffffffffffffffffffffffffffffffffff81163b612296576040517f14878b6900000000000000000000000000000000000000000000000000000000815260040160405180910390fd5b6122bf7f0e555410d8128dff796eab5d29b97dd593ce9cab44a71b64c08244579ea60533829055565b50565b303b151580156122f157507fad57d7911b7e3d6c3c79a68ba909a7f4ba41f9485e5207b12dee0d0c6af5398c54155b15612328576040517f689f12a400000000000000000000000000000000000000000000000000000000815260040160405180910390fd5b60017f1b30fe15febd596dffd21d4da0657732eea42b4b5a9789e3e6daab3d570999d755565b6040810151421061238b576040517f0a5af16500000000000000000000000000000000000000000000000000000000815260040160405180910390fd5b62015180816060015110806123a757506303c267008160600151115b156122bf576040517f72cd3d6300000000000000000000000000000000000000000000000000000000815260040160405180910390fd5b6123e6613831565b6000806124096123fe670de0b6b3a764000086612a40565b602087015190612a4c565b90506000612427611610838860200151612a9d90919063ffffffff16565b60208701929092525084925090505b9250929050565b60006106f38284613fe1565b815460018082018455600084815260208082208551600686029091019081558582015180518286015582015160028201556040808701516003830155606087015160048301556080870151600590920180547fffffffffffffffffffffffff00000000000000000000000000000000000000001673ffffffffffffffffffffffffffffffffffffffff909316929092179091558483529286019052206124ef9083612aeb565b6124fc600284018261275d565b5092915050565b60208101518151600091610605919061243d565b6107e573ffffffffffffffffffffffffffffffffffffffff8416833084612b04565b6125646040518060800160405280600081526020016000815260200160008152602001600081525090565b6000828152600185016020526040812060028101549091036125ff576125f985848673ffffffffffffffffffffffffffffffffffffffff16639d888e866040518163ffffffff1660e01b8152600401606060405180830381865afa1580156125d0573d6000803e3d6000fd5b505050506040513d601f19601f820116820180604052508101906125f49190613ff9565b61282b565b60208301525b806003015460000361262157612616858585612868565b606084015260408301525b509392505050565b73ffffffffffffffffffffffffffffffffffffffff82166000908152602081905260409020548290829081106126aa576040517fd063582900000000000000000000000000000000000000000000000000000000815273ffffffffffffffffffffffffffffffffffffffff831660048201526024810182905260440161055c565b73ffffffffffffffffffffffffffffffffffffffff84166000908152602081905260408120906126db828887612b62565b90506126ec87826120e08589612924565b848773ffffffffffffffffffffffffffffffffffffffff168773ffffffffffffffffffffffffffffffffffffffff167f865ca08d59f5cb456e85cd2f7ef63664ea4f73327414e9d8152c4158b0e946458460405161274c91815260200190565b60405180910390a450505050505050565b60006106f38383612b9e565b606060006106f383612bed565b60006127858686868686612c49565b73ffffffffffffffffffffffffffffffffffffffff84166000908152602088905260409020549091506127b8908261243d565b73ffffffffffffffffffffffffffffffffffffffff841660009081526020889052604090205560018601546127ed9082612a40565b8660010181905550505050505050565b600081815260018301602052604081205415156106f3565b60006106f38383612f4a565b6000610605825490565b8051600083815260018501602052604090206002018190556106f3565b60008260600151836040015161285e9190613fe1565b9091101592915050565b6000806129098486600001858154811061288457612884613d0a565b600091825260208083206040805160a081018252600690940290910180548452815180830183526001808301548252600283015482860152858501919091526003820154858401526004820154606086015260059091015473ffffffffffffffffffffffffffffffffffffffff1660808501528985528b01909152909120919061303d565b909250905061291b6002860184612815565b50935093915050565b600082600001828154811061293b5761293b613d0a565b600091825260209091206006909102016005015473ffffffffffffffffffffffffffffffffffffffff169392505050565b60405173ffffffffffffffffffffffffffffffffffffffff83166024820152604481018290526107e59084907fa9059cbb00000000000000000000000000000000000000000000000000000000906064015b604080517fffffffffffffffffffffffffffffffffffffffffffffffffffffffffffffffe08184030181529190526020810180517bffffffffffffffffffffffffffffffffffffffffffffffffffffffff167fffffffff0000000000000000000000000000000000000000000000000000000090931692909217909152613235565b60006106f3828461407c565b60408051808201909152600080825260208201526040805180820190915283518190612a789085613341565b8152602001612a9484866020015161334190919063ffffffff16565b90529392505050565b604080518082019091526000808252602082015260408051808201909152825184518291612acb9190612a40565b8152602001612a9484602001518660200151612a4090919063ffffffff16565b612af88160200151612503565b82600101819055505050565b60405173ffffffffffffffffffffffffffffffffffffffff808516602483015283166044820152606481018290526105c99085907f23b872dd00000000000000000000000000000000000000000000000000000000906084016129be565b6000818152600184016020908152604080832073ffffffffffffffffffffffffffffffffffffffff8616845290915281208054908290556109ee565b6000818152600183016020526040812054612be557508154600181810184556000848152602080822090930184905584548482528286019093526040902091909155610605565b506000610605565b606081600001805480602002602001604051908101604052809291908181526020018280548015612c3d57602002820191906000526020600020905b815481526020019060010190808311612c29575b50505050509050919050565b60008060008760020154600014612c64578760020154612c67565b83515b600389015415612c7b578860030154612c9d565b7fffffffffffffffffffffffffffffffffffffffffffffffffffffffffffffffff5b6040517f8e480b2000000000000000000000000000000000000000000000000000000000815273ffffffffffffffffffffffffffffffffffffffff8881166004830152929450909250600091612d4c918491612d479187918d1690638e480b2090602401602060405180830381865afa158015612d1e573d6000803e3d6000fd5b505050506040513d601f19601f82011682018060405250810190612d429190613e2a565b613360565b613377565b90506000612d5e838760000151613377565b90506000612e748a73ffffffffffffffffffffffffffffffffffffffff1663476fa96d856040518263ffffffff1660e01b8152600401612da091815260200190565b6040805180830381865afa158015612dbc573d6000803e3d6000fd5b505050506040513d601f19601f82011682018060405250810190612de09190614093565b6040517f476fa96d0000000000000000000000000000000000000000000000000000000081526004810185905273ffffffffffffffffffffffffffffffffffffffff8d169063476fa96d906024016040805180830381865afa158015612e4a573d6000803e3d6000fd5b505050506040513d601f19601f82011682018060405250810190612e6e9190614093565b90613386565b6040517fb7648fb900000000000000000000000000000000000000000000000000000000815273ffffffffffffffffffffffffffffffffffffffff8a81166004830152919250600091612f159184918e169063b7648fb9906024016040805180830381865afa158015612eeb573d6000803e3d6000fd5b505050506040513d601f19601f82011682018060405250810190612f0f9190614093565b906133d4565b9050612f3a612f35612f3083612f2a8e613428565b9061344f565b61349d565b6134b1565b9c9b505050505050505050505050565b60008181526001830160205260408120548015613033576000612f6e60018361407c565b8554909150600090612f829060019061407c565b9050818114612fe7576000866000018281548110612fa257612fa2613d0a565b9060005260206000200154905080876000018481548110612fc557612fc5613d0a565b6000918252602080832090910192909255918252600188019052604090208390555b8554869080612ff857612ff86140c5565b600190038181906000526020600020016000905590558560010160008681526020019081526020016000206000905560019350505050610605565b6000915050610605565b600080600085600201549050613098818673ffffffffffffffffffffffffffffffffffffffff1663c07f47d46040518163ffffffff1660e01b8152600401602060405180830381865afa158015612d1e573d6000803e3d6000fd5b600387018190556040517f7ece075d0000000000000000000000000000000000000000000000000000000081526004810183905290935060009073ffffffffffffffffffffffffffffffffffffffff871690637ece075d90602401606060405180830381865afa158015613110573d6000803e3d6000fd5b505050506040513d601f19601f820116820180604052508101906131349190613ff9565b6040517f7ece075d0000000000000000000000000000000000000000000000000000000081526004810186905290915060009073ffffffffffffffffffffffffffffffffffffffff881690637ece075d90602401606060405180830381865afa1580156131a5573d6000803e3d6000fd5b505050506040513d601f19601f820116820180604052508101906131c99190613ff9565b90506000826020015182602001516131e1919061407c565b87606001516131f0919061407c565b905061320f8188606001516132088a60200151612503565b91906134f1565b60018a01549095506132219086612a40565b896001018190555050505050935093915050565b6000613297826040518060400160405280602081526020017f5361666545524332303a206c6f772d6c6576656c2063616c6c206661696c65648152508573ffffffffffffffffffffffffffffffffffffffff166134fe9092919063ffffffff16565b8051909150156107e557808060200190518101906132b59190613d39565b6107e5576040517f08c379a000000000000000000000000000000000000000000000000000000000815260206004820152602a60248201527f5361666545524332303a204552433230206f7065726174696f6e20646964206e60448201527f6f74207375636365656400000000000000000000000000000000000000000000606482015260840161055c565b6000670de0b6b3a764000061335683856140f4565b6106f39190614160565b60008183101561337057816106f3565b5090919050565b600081831061337057816106f3565b6040805180820190915260008082526020820152604080518082019091528251845182916133b4919061350d565b8152602001612a948460200151866020015161350d90919063ffffffff16565b6040805180820190915260008082526020820152604051806040016040528061340e84600001516134088760000151613519565b90613578565b8152602001612a9484602001516134088760200151613519565b60408051808201909152600080825260208201526060820151602083015161060591613597565b60408051808201909152600080825260208201526040805180820190915282518451829161347d9190613578565b8152602001612a948460200151866020015161357890919063ffffffff16565b6020810151815160009161060591906135fc565b60008181811215610605576040517f501f289e0000000000000000000000000000000000000000000000000000000081526004810182905260240161055c565b60006109ee848484613608565b60606109ee848460008561361f565b60006106f38284614174565b6000817f7fffffffffffffffffffffffffffffffffffffffffffffffffffffffffffffff811115610605576040517ea07eb50000000000000000000000000000000000000000000000000000000081526004810182905260240161055c565b6000670de0b6b3a764000061358d83856141e8565b6106f391906142a4565b604080518082019091526000808252602082015260405180604001604052806135db6135ca6135c5866137b5565b613519565b86516135d590613519565b906137c9565b8152602001612a946135ef6135c5866137b5565b6135d58760200151613519565b60006106f3828461430c565b60008161361584866140f4565b6109ee9190614160565b6060824710156136b1576040517f08c379a000000000000000000000000000000000000000000000000000000000815260206004820152602660248201527f416464726573733a20696e73756666696369656e742062616c616e636520666f60448201527f722063616c6c0000000000000000000000000000000000000000000000000000606482015260840161055c565b73ffffffffffffffffffffffffffffffffffffffff85163b61372f576040517f08c379a000000000000000000000000000000000000000000000000000000000815260206004820152601d60248201527f416464726573733a2063616c6c20746f206e6f6e2d636f6e7472616374000000604482015260640161055c565b6000808673ffffffffffffffffffffffffffffffffffffffff16858760405161375891906143ac565b60006040518083038185875af1925050503d8060008114613795576040519150601f19603f3d011682016040523d82523d6000602084013e61379a565b606091505b50915091506137aa8282866137de565b979650505050505050565b6000610605670de0b6b3a7640000836140f4565b60008161358d670de0b6b3a7640000856141e8565b606083156137ed5750816106f3565b8251156137fd5782518084602001fd5b816040517f08c379a000000000000000000000000000000000000000000000000000000000815260040161055c91906143c8565b6040518060a0016040528060008152602001613860604051806040016040528060008152602001600081525090565b81526020016000815260200160008152602001600073ffffffffffffffffffffffffffffffffffffffff1681525090565b73ffffffffffffffffffffffffffffffffffffffff811681146122bf57600080fd5b60008083601f8401126138c557600080fd5b50813567ffffffffffffffff8111156138dd57600080fd5b6020830191508360208260051b850101111561243657600080fd5b6000806000806060858703121561390e57600080fd5b843561391981613891565b9350602085013561392981613891565b9250604085013567ffffffffffffffff81111561394557600080fd5b613951878288016138b3565b95989497509550505050565b60006020828403121561396f57600080fd5b81356106f381613891565b6000806040838503121561398d57600080fd5b823561399881613891565b946020939093013593505050565b7f4e487b7100000000000000000000000000000000000000000000000000000000600052604160045260246000fd5b6040805190810167ffffffffffffffff81118282101715613a1f577f4e487b7100000000000000000000000000000000000000000000000000000000600052604160045260246000fd5b60405290565b600060608284031215613a3757600080fd5b6040516060810181811067ffffffffffffffff82111715613a81577f4e487b7100000000000000000000000000000000000000000000000000000000600052604160045260246000fd5b80604052508091508235815260208301356020820152604083013560408201525092915050565b60008060808385031215613abb57600080fd5b8235613ac681613891565b9150613ad58460208501613a25565b90509250929050565b60c081016106058284805182526020810151805160208401526020810151604084015250604081015160608301526060810151608083015273ffffffffffffffffffffffffffffffffffffffff60808201511660a08301525050565b600080600060408486031215613b4f57600080fd5b8335613b5a81613891565b9250602084013567ffffffffffffffff811115613b7657600080fd5b613b82868287016138b3565b9497909650939450505050565b600080600060608486031215613ba457600080fd5b8335613baf81613891565b92506020840135613bbf81613891565b929592945050506040919091013590565b60008060008060408587031215613be657600080fd5b843567ffffffffffffffff80821115613bfe57600080fd5b613c0a888389016138b3565b90965094506020870135915080821115613c2357600080fd5b50613951878288016138b3565b600060608284031215613c4257600080fd5b6106f38383613a25565b60008060208385031215613c5f57600080fd5b823567ffffffffffffffff811115613c7657600080fd5b613c82858286016138b3565b90969095509350505050565b60008082840360e0811215613ca257600080fd5b8335613cad81613891565b925060c07fffffffffffffffffffffffffffffffffffffffffffffffffffffffffffffffe082011215613cdf57600080fd5b506020830190509250929050565b600060208284031215613cff57600080fd5b81516106f381613891565b7f4e487b7100000000000000000000000000000000000000000000000000000000600052603260045260246000fd5b600060208284031215613d4b57600080fd5b815180151581146106f357600080fd5b60008083357fffffffffffffffffffffffffffffffffffffffffffffffffffffffffffffffe1843603018112613d9057600080fd5b83018035915067ffffffffffffffff821115613dab57600080fd5b6020019150600581901b360382131561243657600080fd5b7f4e487b7100000000000000000000000000000000000000000000000000000000600052601160045260246000fd5b60007fffffffffffffffffffffffffffffffffffffffffffffffffffffffffffffffff8203613e2357613e23613dc3565b5060010190565b600060208284031215613e3c57600080fd5b5051919050565b600060408284031215613e5557600080fd5b6040516040810181811067ffffffffffffffff82111715613e9f577f4e487b7100000000000000000000000000000000000000000000000000000000600052604160045260246000fd5b604052823581526020928301359281019290925250919050565b600060c08284031215613ecb57600080fd5b60405160a0810181811067ffffffffffffffff82111715613f15577f4e487b7100000000000000000000000000000000000000000000000000000000600052604160045260246000fd5b60405282358152613f298460208501613e43565b6020820152606083013560408201526080830135606082015260a0830135613f5081613891565b60808201529392505050565b600060408284031215613f6e57600080fd5b6106f38383613e43565b60e08101613fd48285805182526020810151805160208401526020810151604084015250604081015160608301526060810151608083015273ffffffffffffffffffffffffffffffffffffffff60808201511660a08301525050565b8260c08301529392505050565b60008219821115613ff457613ff4613dc3565b500190565b60006060828403121561400b57600080fd5b6040516060810181811067ffffffffffffffff82111715614055577f4e487b7100000000000000000000000000000000000000000000000000000000600052604160045260246000fd5b80604052508251815260208301516020820152604083015160408201528091505092915050565b60008282101561408e5761408e613dc3565b500390565b6000604082840312156140a557600080fd5b6140ad6139d5565b82518152602083015160208201528091505092915050565b7f4e487b7100000000000000000000000000000000000000000000000000000000600052603160045260246000fd5b6000817fffffffffffffffffffffffffffffffffffffffffffffffffffffffffffffffff048311821515161561412c5761412c613dc3565b500290565b7f4e487b7100000000000000000000000000000000000000000000000000000000600052601260045260246000fd5b60008261416f5761416f614131565b500490565b6000808312837f8000000000000000000000000000000000000000000000000000000000000000018312811516156141ae576141ae613dc3565b837f7fffffffffffffffffffffffffffffffffffffffffffffffffffffffffffffff0183138116156141e2576141e2613dc3565b50500390565b60007f7fffffffffffffffffffffffffffffffffffffffffffffffffffffffffffffff60008413600084138583048511828216161561422957614229613dc3565b7f8000000000000000000000000000000000000000000000000000000000000000600087128682058812818416161561426457614264613dc3565b6000871292508782058712848416161561428057614280613dc3565b8785058712818416161561429657614296613dc3565b505050929093029392505050565b6000826142b3576142b3614131565b7fffffffffffffffffffffffffffffffffffffffffffffffffffffffffffffffff83147f80000000000000000000000000000000000000000000000000000000000000008314161561430757614307613dc3565b500590565b6000808212827f7fffffffffffffffffffffffffffffffffffffffffffffffffffffffffffffff0384138115161561434657614346613dc3565b827f800000000000000000000000000000000000000000000000000000000000000003841281161561437a5761437a613dc3565b50500190565b60005b8381101561439b578181015183820152602001614383565b838111156105c95750506000910152565b600082516143be818460208701614380565b9190910192915050565b60208152600082518060208401526143e7816040850160208701614380565b601f017fffffffffffffffffffffffffffffffffffffffffffffffffffffffffffffffe016919091016040019291505056fea2646970667358221220126a4bd9204488d2727ac42c2bfc0eedad260f48bfc69bfc3319dd538ea97e0d64736f6c634300080f0033",
  "devdoc": {
    "kind": "dev",
    "methods": {
      "active(address)": {
        "params": {
          "product": "Product to check for"
        },
        "returns": {
          "_0": "Number of active programs"
        }
      },
      "available(address,uint256)": {
        "params": {
          "product": "Product to return for",
          "programId": "Program to return for"
        },
        "returns": {
          "_0": "Available rewards for `programId`"
        }
      },
      "claim(address,uint256[])": {
        "params": {
          "product": "Product to claim rewards for",
          "programIds": "Programs to claim rewards for"
        }
      },
      "claim(address[],uint256[][])": {
        "params": {
          "products": "Products to claim rewards for",
          "programIds": "Programs to claim rewards for"
        }
      },
      "claimFee(address[])": {
        "params": {
          "tokens": "Tokens to claim fees for"
        }
      },
      "claimFor(address,address,uint256[])": {
        "params": {
          "account": "Account to claim rewards for",
          "product": "Product to claim rewards for",
          "programIds": "Programs to claim rewards for"
        }
      },
      "complete(address,uint256)": {
        "details": "Must be called as the program owner",
        "params": {
          "product": "Product that the program is running on",
          "programId": "Program to complete early"
        }
      },
      "count(address)": {
        "params": {
          "product": "Product to check for"
        },
        "returns": {
          "_0": "Number of programs (inactive or active)"
        }
      },
      "create(address,(uint256,(uint256,uint256),uint256,uint256,address))": {
        "details": "Must be called as the product or protocol owner",
        "params": {
          "product": "The product to create the new program on",
          "programInfo": "Parameters for the new program"
        },
        "returns": {
          "programId": "New program's ID"
        }
      },
      "initialize(address)": {
        "details": "Must be called atomically as part of the upgradeable proxy deployment to      avoid front-running",
        "params": {
          "controller_": "Factory contract address"
        }
      },
      "owner(address,uint256)": {
        "params": {
          "product": "Product to return for",
          "programId": "Program to return for"
        },
        "returns": {
          "_0": "The owner of `programId`"
        }
      },
      "programInfos(address,uint256)": {
        "params": {
          "product": "Product to return for",
          "programId": "Program to return for"
        },
        "returns": {
          "_0": "Program info"
        }
      },
      "sync((uint256,uint256,int256))": {
        "details": "Called every settle() from each product",
        "params": {
          "currentOracleVersion": "The preloaded current oracle version"
        }
      },
      "syncAccount(address,(uint256,uint256,int256))": {
        "details": "Called immediately proceeding a position update in the corresponding product",
        "params": {
          "account": "Account to sync",
          "currentOracleVersion": "The preloaded current oracle version"
        }
      },
      "treasury(address,uint256)": {
        "params": {
          "product": "Product to return for",
          "programId": "Program to return for"
        },
        "returns": {
          "_0": "The treasury of `programId`"
        }
      },
      "unclaimed(address,address,uint256)": {
        "params": {
          "account": "Account to return for",
          "product": "Product to return for",
          "programId": "Program to return for"
        },
        "returns": {
          "_0": "`account`'s total unclaimed rewards for `programId`"
        }
      },
      "versionComplete(address,uint256)": {
        "params": {
          "product": "Product to return for",
          "programId": "Program to return for"
        },
        "returns": {
          "_0": "The version completed for `programId`"
        }
      },
      "versionStarted(address,uint256)": {
        "params": {
          "product": "Product to return for",
          "programId": "Program to return for"
        },
        "returns": {
          "_0": "The version started for `programId`"
        }
      }
    },
    "stateVariables": {
      "_products": {
        "details": "Product management state"
      },
      "fees": {
        "details": "Fees that have been collected, but remain unclaimed"
      }
    },
    "title": "Incentivizer",
    "version": 1
  },
  "userdoc": {
    "kind": "user",
    "methods": {
      "active(address)": {
        "notice": "Returns the quantity of active programs for a given product"
      },
      "available(address,uint256)": {
        "notice": "Returns available rewards for a specific program"
      },
      "claim(address,uint256[])": {
        "notice": "Claims all of `msg.sender`'s rewards for `product` programs"
      },
      "claim(address[],uint256[][])": {
        "notice": "Claims all of `msg.sender`'s rewards for a specific program"
      },
      "claimFee(address[])": {
        "notice": "Claims all `tokens` fees to the protocol treasury"
      },
      "claimFor(address,address,uint256[])": {
        "notice": "Claims all of `account`'s rewards for `product` programs"
      },
      "complete(address,uint256)": {
        "notice": "Completes an in-progress program early"
      },
      "count(address)": {
        "notice": "Returns the quantity of programs for a given product"
      },
      "create(address,(uint256,(uint256,uint256),uint256,uint256,address))": {
        "notice": "Creates a new incentive program"
      },
      "initialize(address)": {
        "notice": "Initializes the contract state"
      },
      "owner(address,uint256)": {
        "notice": "Returns the owner of a specific program"
      },
      "programInfos(address,uint256)": {
        "notice": "Returns program info for program `programId`"
      },
      "sync((uint256,uint256,int256))": {
        "notice": "Starts and completes programs as they become available"
      },
      "syncAccount(address,(uint256,uint256,int256))": {
        "notice": "Settles unsettled balance for `account`"
      },
      "treasury(address,uint256)": {
        "notice": "Returns the treasury of a specific program"
      },
      "unclaimed(address,address,uint256)": {
        "notice": "Returns `account`'s total unclaimed rewards for a specific program"
      },
      "versionComplete(address,uint256)": {
        "notice": "Returns the version completed for a specific program"
      },
      "versionStarted(address,uint256)": {
        "notice": "Returns the version started for a specific program"
      }
    },
    "notice": "Manages logic and state for all incentive programs in the protocol.",
    "version": 1
  },
  "storageLayout": {
    "storage": [
      {
        "astId": 13637,
        "contract": "contracts/incentivizer/Incentivizer.sol:Incentivizer",
        "label": "_products",
        "offset": 0,
        "slot": "0",
        "type": "t_mapping(t_contract(IProduct)17416,t_struct(ProductManager)14483_storage)"
      },
      {
        "astId": 13644,
        "contract": "contracts/incentivizer/Incentivizer.sol:Incentivizer",
        "label": "fees",
        "offset": 0,
        "slot": "1",
        "type": "t_mapping(t_userDefinedValueType(Token18)4398,t_userDefinedValueType(UFixed18)3611)"
      }
    ],
    "types": {
      "t_address": {
        "encoding": "inplace",
        "label": "address",
        "numberOfBytes": "20"
      },
      "t_array(t_bytes32)dyn_storage": {
        "base": "t_bytes32",
        "encoding": "dynamic_array",
        "label": "bytes32[]",
        "numberOfBytes": "32"
      },
      "t_array(t_struct(ProgramInfo)18970_storage)dyn_storage": {
        "base": "t_struct(ProgramInfo)18970_storage",
        "encoding": "dynamic_array",
        "label": "struct ProgramInfo[]",
        "numberOfBytes": "32"
      },
      "t_bytes32": {
        "encoding": "inplace",
        "label": "bytes32",
        "numberOfBytes": "32"
      },
      "t_contract(IProduct)17416": {
        "encoding": "inplace",
        "label": "contract IProduct",
        "numberOfBytes": "20"
      },
      "t_mapping(t_address,t_struct(UintSet)10892_storage)": {
        "encoding": "mapping",
        "key": "t_address",
        "label": "mapping(address => struct EnumerableSet.UintSet)",
        "numberOfBytes": "32",
        "value": "t_struct(UintSet)10892_storage"
      },
      "t_mapping(t_address,t_uint256)": {
        "encoding": "mapping",
        "key": "t_address",
        "label": "mapping(address => uint256)",
        "numberOfBytes": "32",
        "value": "t_uint256"
      },
      "t_mapping(t_address,t_userDefinedValueType(UFixed18)3611)": {
        "encoding": "mapping",
        "key": "t_address",
        "label": "mapping(address => UFixed18)",
        "numberOfBytes": "32",
        "value": "t_userDefinedValueType(UFixed18)3611"
      },
      "t_mapping(t_bytes32,t_uint256)": {
        "encoding": "mapping",
        "key": "t_bytes32",
        "label": "mapping(bytes32 => uint256)",
        "numberOfBytes": "32",
        "value": "t_uint256"
      },
      "t_mapping(t_contract(IProduct)17416,t_struct(ProductManager)14483_storage)": {
        "encoding": "mapping",
        "key": "t_contract(IProduct)17416",
        "label": "mapping(contract IProduct => struct ProductManager)",
        "numberOfBytes": "32",
        "value": "t_struct(ProductManager)14483_storage"
      },
      "t_mapping(t_uint256,t_struct(Program)15078_storage)": {
        "encoding": "mapping",
        "key": "t_uint256",
        "label": "mapping(uint256 => struct Program)",
        "numberOfBytes": "32",
        "value": "t_struct(Program)15078_storage"
      },
      "t_mapping(t_userDefinedValueType(Token18)4398,t_userDefinedValueType(UFixed18)3611)": {
        "encoding": "mapping",
        "key": "t_userDefinedValueType(Token18)4398",
        "label": "mapping(Token18 => UFixed18)",
        "numberOfBytes": "32",
        "value": "t_userDefinedValueType(UFixed18)3611"
      },
      "t_struct(Position)18308_storage": {
        "encoding": "inplace",
        "label": "struct Position",
        "members": [
          {
            "astId": 18303,
            "contract": "contracts/incentivizer/Incentivizer.sol:Incentivizer",
            "label": "maker",
            "offset": 0,
            "slot": "0",
            "type": "t_userDefinedValueType(UFixed18)3611"
          },
          {
            "astId": 18307,
            "contract": "contracts/incentivizer/Incentivizer.sol:Incentivizer",
            "label": "taker",
            "offset": 0,
            "slot": "1",
            "type": "t_userDefinedValueType(UFixed18)3611"
          }
        ],
        "numberOfBytes": "64"
      },
      "t_struct(ProductManager)14483_storage": {
        "encoding": "inplace",
        "label": "struct ProductManager",
        "members": [
          {
            "astId": 14461,
            "contract": "contracts/incentivizer/Incentivizer.sol:Incentivizer",
            "label": "programInfos",
            "offset": 0,
            "slot": "0",
            "type": "t_array(t_struct(ProgramInfo)18970_storage)dyn_storage"
          },
          {
            "astId": 14467,
            "contract": "contracts/incentivizer/Incentivizer.sol:Incentivizer",
            "label": "programs",
            "offset": 0,
            "slot": "1",
            "type": "t_mapping(t_uint256,t_struct(Program)15078_storage)"
          },
          {
            "astId": 14471,
            "contract": "contracts/incentivizer/Incentivizer.sol:Incentivizer",
            "label": "activePrograms",
            "offset": 0,
            "slot": "2",
            "type": "t_struct(UintSet)10892_storage"
          },
          {
            "astId": 14477,
            "contract": "contracts/incentivizer/Incentivizer.sol:Incentivizer",
            "label": "activeProgramsFor",
            "offset": 0,
            "slot": "4",
            "type": "t_mapping(t_address,t_struct(UintSet)10892_storage)"
          },
          {
            "astId": 14482,
            "contract": "contracts/incentivizer/Incentivizer.sol:Incentivizer",
            "label": "nextProgramFor",
            "offset": 0,
            "slot": "5",
            "type": "t_mapping(t_address,t_uint256)"
          }
        ],
        "numberOfBytes": "192"
      },
      "t_struct(Program)15078_storage": {
        "encoding": "inplace",
        "label": "struct Program",
        "members": [
          {
            "astId": 15067,
            "contract": "contracts/incentivizer/Incentivizer.sol:Incentivizer",
            "label": "settled",
            "offset": 0,
            "slot": "0",
            "type": "t_mapping(t_address,t_userDefinedValueType(UFixed18)3611)"
          },
          {
            "astId": 15071,
            "contract": "contracts/incentivizer/Incentivizer.sol:Incentivizer",
            "label": "available",
            "offset": 0,
            "slot": "1",
            "type": "t_userDefinedValueType(UFixed18)3611"
          },
          {
            "astId": 15074,
            "contract": "contracts/incentivizer/Incentivizer.sol:Incentivizer",
            "label": "versionStarted",
            "offset": 0,
            "slot": "2",
            "type": "t_uint256"
          },
          {
            "astId": 15077,
            "contract": "contracts/incentivizer/Incentivizer.sol:Incentivizer",
            "label": "versionComplete",
            "offset": 0,
            "slot": "3",
            "type": "t_uint256"
          }
        ],
        "numberOfBytes": "128"
      },
      "t_struct(ProgramInfo)18970_storage": {
        "encoding": "inplace",
        "label": "struct ProgramInfo",
        "members": [
          {
            "astId": 18955,
            "contract": "contracts/incentivizer/Incentivizer.sol:Incentivizer",
            "label": "coordinatorId",
            "offset": 0,
            "slot": "0",
            "type": "t_uint256"
          },
          {
            "astId": 18959,
            "contract": "contracts/incentivizer/Incentivizer.sol:Incentivizer",
            "label": "amount",
            "offset": 0,
            "slot": "1",
            "type": "t_struct(Position)18308_storage"
          },
          {
            "astId": 18962,
            "contract": "contracts/incentivizer/Incentivizer.sol:Incentivizer",
            "label": "start",
            "offset": 0,
            "slot": "3",
            "type": "t_uint256"
          },
          {
            "astId": 18965,
            "contract": "contracts/incentivizer/Incentivizer.sol:Incentivizer",
            "label": "duration",
            "offset": 0,
            "slot": "4",
            "type": "t_uint256"
          },
          {
            "astId": 18969,
            "contract": "contracts/incentivizer/Incentivizer.sol:Incentivizer",
            "label": "token",
            "offset": 0,
            "slot": "5",
            "type": "t_userDefinedValueType(Token18)4398"
          }
        ],
        "numberOfBytes": "192"
      },
      "t_struct(Set)10434_storage": {
        "encoding": "inplace",
        "label": "struct EnumerableSet.Set",
        "members": [
          {
            "astId": 10429,
            "contract": "contracts/incentivizer/Incentivizer.sol:Incentivizer",
            "label": "_values",
            "offset": 0,
            "slot": "0",
            "type": "t_array(t_bytes32)dyn_storage"
          },
          {
            "astId": 10433,
            "contract": "contracts/incentivizer/Incentivizer.sol:Incentivizer",
            "label": "_indexes",
            "offset": 0,
            "slot": "1",
            "type": "t_mapping(t_bytes32,t_uint256)"
          }
        ],
        "numberOfBytes": "64"
      },
      "t_struct(UintSet)10892_storage": {
        "encoding": "inplace",
        "label": "struct EnumerableSet.UintSet",
        "members": [
          {
            "astId": 10891,
            "contract": "contracts/incentivizer/Incentivizer.sol:Incentivizer",
            "label": "_inner",
            "offset": 0,
            "slot": "0",
            "type": "t_struct(Set)10434_storage"
          }
        ],
        "numberOfBytes": "64"
      },
      "t_uint256": {
        "encoding": "inplace",
        "label": "uint256",
        "numberOfBytes": "32"
      },
      "t_userDefinedValueType(Token18)4398": {
        "encoding": "inplace",
        "label": "Token18",
        "numberOfBytes": "20"
      },
      "t_userDefinedValueType(UFixed18)3611": {
        "encoding": "inplace",
        "label": "UFixed18",
        "numberOfBytes": "32"
      }
    }
  }
}