{
  "address": "0xf3E6057474199179D9eFb733f2cf47F41Cc8a1ED",
  "abi": [
    {
      "inputs": [
        {
          "internalType": "contract IController",
          "name": "_controller",
          "type": "address"
        }
      ],
      "stateMutability": "nonpayable",
      "type": "constructor"
    },
    {
      "inputs": [
        {
          "internalType": "contract IProduct",
          "name": "product",
          "type": "address"
        },
        {
          "internalType": "uint256[]",
          "name": "versions",
          "type": "uint256[]"
        }
      ],
      "name": "atVersions",
      "outputs": [
        {
          "components": [
            {
              "internalType": "uint256",
              "name": "version",
              "type": "uint256"
            },
            {
              "internalType": "uint256",
              "name": "timestamp",
              "type": "uint256"
            },
            {
              "internalType": "Fixed18",
              "name": "price",
              "type": "int256"
            }
          ],
          "internalType": "struct IOracleProvider.OracleVersion[]",
          "name": "prices",
          "type": "tuple[]"
        }
      ],
      "stateMutability": "nonpayable",
      "type": "function"
    },
    {
      "inputs": [
        {
          "internalType": "contract IProduct",
          "name": "product",
          "type": "address"
        }
      ],
      "name": "collateral",
      "outputs": [
        {
          "internalType": "UFixed18",
          "name": "",
          "type": "uint256"
        }
      ],
      "stateMutability": "nonpayable",
      "type": "function"
    },
    {
      "inputs": [
        {
          "internalType": "address",
          "name": "account",
          "type": "address"
        },
        {
          "internalType": "contract IProduct",
          "name": "product",
          "type": "address"
        }
      ],
      "name": "collateral",
      "outputs": [
        {
          "internalType": "UFixed18",
          "name": "",
          "type": "uint256"
        }
      ],
      "stateMutability": "nonpayable",
      "type": "function"
    },
    {
      "inputs": [],
      "name": "collateral",
      "outputs": [
        {
          "internalType": "contract ICollateral",
          "name": "",
          "type": "address"
        }
      ],
      "stateMutability": "view",
      "type": "function"
    },
    {
      "inputs": [],
      "name": "controller",
      "outputs": [
        {
          "internalType": "contract IController",
          "name": "",
          "type": "address"
        }
      ],
      "stateMutability": "view",
      "type": "function"
    },
    {
      "inputs": [
        {
          "internalType": "contract IProduct",
          "name": "product",
          "type": "address"
        }
      ],
      "name": "dailyRate",
      "outputs": [
        {
          "internalType": "Fixed18",
          "name": "",
          "type": "int256"
        }
      ],
      "stateMutability": "nonpayable",
      "type": "function"
    },
    {
      "inputs": [
        {
          "internalType": "address",
          "name": "account",
          "type": "address"
        },
        {
          "internalType": "contract IProduct",
          "name": "product",
          "type": "address"
        }
      ],
      "name": "exposure",
      "outputs": [
        {
          "internalType": "UFixed18",
          "name": "",
          "type": "uint256"
        }
      ],
      "stateMutability": "nonpayable",
      "type": "function"
    },
    {
      "inputs": [
        {
          "internalType": "address",
          "name": "account",
          "type": "address"
        },
        {
          "internalType": "contract IProduct",
          "name": "product",
          "type": "address"
        }
      ],
      "name": "fees",
      "outputs": [
        {
          "internalType": "UFixed18",
          "name": "",
          "type": "uint256"
        }
      ],
      "stateMutability": "nonpayable",
      "type": "function"
    },
    {
      "inputs": [
        {
          "internalType": "contract IProduct",
          "name": "product",
          "type": "address"
        }
      ],
      "name": "fees",
      "outputs": [
        {
          "internalType": "UFixed18",
          "name": "protocolFees",
          "type": "uint256"
        },
        {
          "internalType": "UFixed18",
          "name": "productFees",
          "type": "uint256"
        }
      ],
      "stateMutability": "nonpayable",
      "type": "function"
    },
    {
      "inputs": [
        {
          "internalType": "contract IProduct",
          "name": "product",
          "type": "address"
        }
      ],
      "name": "globalPosition",
      "outputs": [
        {
          "components": [
            {
              "internalType": "uint256",
              "name": "oracleVersion",
              "type": "uint256"
            },
            {
              "components": [
                {
                  "internalType": "UFixed18",
                  "name": "maker",
                  "type": "uint256"
                },
                {
                  "internalType": "UFixed18",
                  "name": "taker",
                  "type": "uint256"
                }
              ],
              "internalType": "struct Position",
              "name": "openPosition",
              "type": "tuple"
            },
            {
              "components": [
                {
                  "internalType": "UFixed18",
                  "name": "maker",
                  "type": "uint256"
                },
                {
                  "internalType": "UFixed18",
                  "name": "taker",
                  "type": "uint256"
                }
              ],
              "internalType": "struct Position",
              "name": "closePosition",
              "type": "tuple"
            }
          ],
          "internalType": "struct PrePosition",
          "name": "",
          "type": "tuple"
        },
        {
          "components": [
            {
              "internalType": "UFixed18",
              "name": "maker",
              "type": "uint256"
            },
            {
              "internalType": "UFixed18",
              "name": "taker",
              "type": "uint256"
            }
          ],
          "internalType": "struct Position",
          "name": "",
          "type": "tuple"
        }
      ],
      "stateMutability": "nonpayable",
      "type": "function"
    },
    {
      "inputs": [
        {
          "internalType": "contract IProduct",
          "name": "product",
          "type": "address"
        }
      ],
      "name": "info",
      "outputs": [
        {
          "components": [
            {
              "internalType": "string",
              "name": "name",
              "type": "string"
            },
            {
              "internalType": "string",
              "name": "symbol",
              "type": "string"
            },
            {
              "components": [
                {
                  "internalType": "enum PayoffDefinitionLib.PayoffType",
                  "name": "payoffType",
                  "type": "uint8"
                },
                {
                  "internalType": "enum PayoffDefinitionLib.PayoffDirection",
                  "name": "payoffDirection",
                  "type": "uint8"
                },
                {
                  "internalType": "bytes30",
                  "name": "data",
                  "type": "bytes30"
                }
              ],
              "internalType": "struct PayoffDefinition",
              "name": "payoffDefinition",
              "type": "tuple"
            },
            {
              "internalType": "contract IOracleProvider",
              "name": "oracle",
              "type": "address"
            },
            {
              "internalType": "UFixed18",
              "name": "maintenance",
              "type": "uint256"
            },
            {
              "internalType": "UFixed18",
              "name": "fundingFee",
              "type": "uint256"
            },
            {
              "internalType": "UFixed18",
              "name": "makerFee",
              "type": "uint256"
            },
            {
              "internalType": "UFixed18",
              "name": "takerFee",
              "type": "uint256"
            },
            {
              "internalType": "UFixed18",
              "name": "makerLimit",
              "type": "uint256"
            },
            {
              "components": [
                {
                  "internalType": "PackedFixed18",
                  "name": "minRate",
                  "type": "int128"
                },
                {
                  "internalType": "PackedFixed18",
                  "name": "maxRate",
                  "type": "int128"
                },
                {
                  "internalType": "PackedFixed18",
                  "name": "targetRate",
                  "type": "int128"
                },
                {
                  "internalType": "PackedUFixed18",
                  "name": "targetUtilization",
                  "type": "uint128"
                }
              ],
              "internalType": "struct JumpRateUtilizationCurve",
              "name": "utilizationCurve",
              "type": "tuple"
            }
          ],
          "internalType": "struct IProduct.ProductInfo",
          "name": "_info",
          "type": "tuple"
        }
      ],
      "stateMutability": "view",
      "type": "function"
    },
    {
      "inputs": [
        {
          "internalType": "contract IProduct",
          "name": "product",
          "type": "address"
        }
      ],
      "name": "latestVersion",
      "outputs": [
        {
          "components": [
            {
              "internalType": "uint256",
              "name": "version",
              "type": "uint256"
            },
            {
              "internalType": "uint256",
              "name": "timestamp",
              "type": "uint256"
            },
            {
              "internalType": "Fixed18",
              "name": "price",
              "type": "int256"
            }
          ],
          "internalType": "struct IOracleProvider.OracleVersion",
          "name": "",
          "type": "tuple"
        }
      ],
      "stateMutability": "nonpayable",
      "type": "function"
    },
    {
      "inputs": [
        {
          "internalType": "address",
          "name": "account",
          "type": "address"
        },
        {
          "internalType": "contract IProduct",
          "name": "product",
          "type": "address"
        }
      ],
      "name": "liquidatable",
      "outputs": [
        {
          "internalType": "bool",
          "name": "",
          "type": "bool"
        }
      ],
      "stateMutability": "nonpayable",
      "type": "function"
    },
    {
      "inputs": [
        {
          "internalType": "address",
          "name": "account",
          "type": "address"
        },
        {
          "internalType": "contract IProduct",
          "name": "product",
          "type": "address"
        }
      ],
      "name": "liquidating",
      "outputs": [
        {
          "internalType": "bool",
          "name": "",
          "type": "bool"
        }
      ],
      "stateMutability": "nonpayable",
      "type": "function"
    },
    {
      "inputs": [
        {
          "internalType": "address",
          "name": "account",
          "type": "address"
        },
        {
          "internalType": "contract IProduct",
          "name": "product",
          "type": "address"
        }
      ],
      "name": "maintenance",
      "outputs": [
        {
          "internalType": "UFixed18",
          "name": "",
          "type": "uint256"
        }
      ],
      "stateMutability": "nonpayable",
      "type": "function"
    },
    {
      "inputs": [
        {
          "internalType": "address",
          "name": "account",
          "type": "address"
        },
        {
          "internalType": "contract IProduct",
          "name": "product",
          "type": "address"
        },
        {
          "internalType": "UFixed18",
          "name": "positionSize",
          "type": "uint256"
        }
      ],
      "name": "maintenanceRequired",
      "outputs": [
        {
          "internalType": "UFixed18",
          "name": "",
          "type": "uint256"
        }
      ],
      "stateMutability": "nonpayable",
      "type": "function"
    },
    {
      "inputs": [
        {
          "internalType": "contract IProduct",
          "name": "product",
          "type": "address"
        }
      ],
      "name": "name",
      "outputs": [
        {
          "internalType": "string",
          "name": "",
          "type": "string"
        }
      ],
      "stateMutability": "view",
      "type": "function"
    },
    {
      "inputs": [
        {
          "internalType": "address",
          "name": "account",
          "type": "address"
        },
        {
          "internalType": "contract IProduct",
          "name": "product",
          "type": "address"
        }
      ],
      "name": "openInterest",
      "outputs": [
        {
          "components": [
            {
              "internalType": "UFixed18",
              "name": "maker",
              "type": "uint256"
            },
            {
              "internalType": "UFixed18",
              "name": "taker",
              "type": "uint256"
            }
          ],
          "internalType": "struct Position",
          "name": "",
          "type": "tuple"
        }
      ],
      "stateMutability": "nonpayable",
      "type": "function"
    },
    {
      "inputs": [
        {
          "internalType": "contract IProduct",
          "name": "product",
          "type": "address"
        }
      ],
      "name": "openInterest",
      "outputs": [
        {
          "components": [
            {
              "internalType": "UFixed18",
              "name": "maker",
              "type": "uint256"
            },
            {
              "internalType": "UFixed18",
              "name": "taker",
              "type": "uint256"
            }
          ],
          "internalType": "struct Position",
          "name": "",
          "type": "tuple"
        }
      ],
      "stateMutability": "nonpayable",
      "type": "function"
    },
    {
      "inputs": [
        {
          "internalType": "contract IProduct",
          "name": "product",
          "type": "address"
        }
      ],
      "name": "position",
      "outputs": [
        {
          "components": [
            {
              "internalType": "UFixed18",
              "name": "maker",
              "type": "uint256"
            },
            {
              "internalType": "UFixed18",
              "name": "taker",
              "type": "uint256"
            }
          ],
          "internalType": "struct Position",
          "name": "",
          "type": "tuple"
        }
      ],
      "stateMutability": "nonpayable",
      "type": "function"
    },
    {
      "inputs": [
        {
          "internalType": "address",
          "name": "account",
          "type": "address"
        },
        {
          "internalType": "contract IProduct",
          "name": "product",
          "type": "address"
        }
      ],
      "name": "position",
      "outputs": [
        {
          "components": [
            {
              "internalType": "UFixed18",
              "name": "maker",
              "type": "uint256"
            },
            {
              "internalType": "UFixed18",
              "name": "taker",
              "type": "uint256"
            }
          ],
          "internalType": "struct Position",
          "name": "",
          "type": "tuple"
        }
      ],
      "stateMutability": "nonpayable",
      "type": "function"
    },
    {
      "inputs": [
        {
          "internalType": "contract IProduct",
          "name": "product",
          "type": "address"
        }
      ],
      "name": "pre",
      "outputs": [
        {
          "components": [
            {
              "internalType": "uint256",
              "name": "oracleVersion",
              "type": "uint256"
            },
            {
              "components": [
                {
                  "internalType": "UFixed18",
                  "name": "maker",
                  "type": "uint256"
                },
                {
                  "internalType": "UFixed18",
                  "name": "taker",
                  "type": "uint256"
                }
              ],
              "internalType": "struct Position",
              "name": "openPosition",
              "type": "tuple"
            },
            {
              "components": [
                {
                  "internalType": "UFixed18",
                  "name": "maker",
                  "type": "uint256"
                },
                {
                  "internalType": "UFixed18",
                  "name": "taker",
                  "type": "uint256"
                }
              ],
              "internalType": "struct Position",
              "name": "closePosition",
              "type": "tuple"
            }
          ],
          "internalType": "struct PrePosition",
          "name": "",
          "type": "tuple"
        }
      ],
      "stateMutability": "nonpayable",
      "type": "function"
    },
    {
      "inputs": [
        {
          "internalType": "address",
          "name": "account",
          "type": "address"
        },
        {
          "internalType": "contract IProduct",
          "name": "product",
          "type": "address"
        }
      ],
      "name": "pre",
      "outputs": [
        {
          "components": [
            {
              "internalType": "uint256",
              "name": "oracleVersion",
              "type": "uint256"
            },
            {
              "components": [
                {
                  "internalType": "UFixed18",
                  "name": "maker",
                  "type": "uint256"
                },
                {
                  "internalType": "UFixed18",
                  "name": "taker",
                  "type": "uint256"
                }
              ],
              "internalType": "struct Position",
              "name": "openPosition",
              "type": "tuple"
            },
            {
              "components": [
                {
                  "internalType": "UFixed18",
                  "name": "maker",
                  "type": "uint256"
                },
                {
                  "internalType": "UFixed18",
                  "name": "taker",
                  "type": "uint256"
                }
              ],
              "internalType": "struct Position",
              "name": "closePosition",
              "type": "tuple"
            }
          ],
          "internalType": "struct PrePosition",
          "name": "",
          "type": "tuple"
        }
      ],
      "stateMutability": "nonpayable",
      "type": "function"
    },
    {
      "inputs": [
        {
          "internalType": "contract IProduct",
          "name": "product",
          "type": "address"
        }
      ],
      "name": "rate",
      "outputs": [
        {
          "internalType": "Fixed18",
          "name": "",
          "type": "int256"
        }
      ],
      "stateMutability": "nonpayable",
      "type": "function"
    },
    {
      "inputs": [
        {
          "internalType": "contract IProduct",
          "name": "product",
          "type": "address"
        }
      ],
      "name": "shortfall",
      "outputs": [
        {
          "internalType": "UFixed18",
          "name": "",
          "type": "uint256"
        }
      ],
      "stateMutability": "nonpayable",
      "type": "function"
    },
    {
      "inputs": [
        {
          "internalType": "address",
          "name": "account",
          "type": "address"
        },
        {
          "internalType": "contract IProduct",
          "name": "product",
          "type": "address"
        }
      ],
      "name": "snapshot",
      "outputs": [
        {
          "components": [
            {
              "internalType": "address",
              "name": "productAddress",
              "type": "address"
            },
            {
              "internalType": "address",
              "name": "userAddress",
              "type": "address"
            },
            {
              "internalType": "UFixed18",
              "name": "collateral",
              "type": "uint256"
            },
            {
              "internalType": "UFixed18",
              "name": "maintenance",
              "type": "uint256"
            },
            {
              "components": [
                {
                  "internalType": "uint256",
                  "name": "oracleVersion",
                  "type": "uint256"
                },
                {
                  "components": [
                    {
                      "internalType": "UFixed18",
                      "name": "maker",
                      "type": "uint256"
                    },
                    {
                      "internalType": "UFixed18",
                      "name": "taker",
                      "type": "uint256"
                    }
                  ],
                  "internalType": "struct Position",
                  "name": "openPosition",
                  "type": "tuple"
                },
                {
                  "components": [
                    {
                      "internalType": "UFixed18",
                      "name": "maker",
                      "type": "uint256"
                    },
                    {
                      "internalType": "UFixed18",
                      "name": "taker",
                      "type": "uint256"
                    }
                  ],
                  "internalType": "struct Position",
                  "name": "closePosition",
                  "type": "tuple"
                }
              ],
              "internalType": "struct PrePosition",
              "name": "pre",
              "type": "tuple"
            },
            {
              "components": [
                {
                  "internalType": "UFixed18",
                  "name": "maker",
                  "type": "uint256"
                },
                {
                  "internalType": "UFixed18",
                  "name": "taker",
                  "type": "uint256"
                }
              ],
              "internalType": "struct Position",
              "name": "position",
              "type": "tuple"
            },
            {
              "internalType": "bool",
              "name": "liquidatable",
              "type": "bool"
            },
            {
              "internalType": "bool",
              "name": "liquidating",
              "type": "bool"
            },
            {
              "components": [
                {
                  "internalType": "UFixed18",
                  "name": "maker",
                  "type": "uint256"
                },
                {
                  "internalType": "UFixed18",
                  "name": "taker",
                  "type": "uint256"
                }
              ],
              "internalType": "struct Position",
              "name": "openInterest",
              "type": "tuple"
            },
            {
              "internalType": "UFixed18",
              "name": "fees",
              "type": "uint256"
            },
            {
              "internalType": "UFixed18",
              "name": "exposure",
              "type": "uint256"
            }
          ],
          "internalType": "struct IPerennialLens.UserProductSnapshot",
          "name": "_snapshot",
          "type": "tuple"
        }
      ],
      "stateMutability": "nonpayable",
      "type": "function"
    },
    {
      "inputs": [
        {
          "internalType": "contract IProduct",
          "name": "product",
          "type": "address"
        }
      ],
      "name": "snapshot",
      "outputs": [
        {
          "components": [
            {
              "components": [
                {
                  "internalType": "string",
                  "name": "name",
                  "type": "string"
                },
                {
                  "internalType": "string",
                  "name": "symbol",
                  "type": "string"
                },
                {
                  "components": [
                    {
                      "internalType": "enum PayoffDefinitionLib.PayoffType",
                      "name": "payoffType",
                      "type": "uint8"
                    },
                    {
                      "internalType": "enum PayoffDefinitionLib.PayoffDirection",
                      "name": "payoffDirection",
                      "type": "uint8"
                    },
                    {
                      "internalType": "bytes30",
                      "name": "data",
                      "type": "bytes30"
                    }
                  ],
                  "internalType": "struct PayoffDefinition",
                  "name": "payoffDefinition",
                  "type": "tuple"
                },
                {
                  "internalType": "contract IOracleProvider",
                  "name": "oracle",
                  "type": "address"
                },
                {
                  "internalType": "UFixed18",
                  "name": "maintenance",
                  "type": "uint256"
                },
                {
                  "internalType": "UFixed18",
                  "name": "fundingFee",
                  "type": "uint256"
                },
                {
                  "internalType": "UFixed18",
                  "name": "makerFee",
                  "type": "uint256"
                },
                {
                  "internalType": "UFixed18",
                  "name": "takerFee",
                  "type": "uint256"
                },
                {
                  "internalType": "UFixed18",
                  "name": "makerLimit",
                  "type": "uint256"
                },
                {
                  "components": [
                    {
                      "internalType": "PackedFixed18",
                      "name": "minRate",
                      "type": "int128"
                    },
                    {
                      "internalType": "PackedFixed18",
                      "name": "maxRate",
                      "type": "int128"
                    },
                    {
                      "internalType": "PackedFixed18",
                      "name": "targetRate",
                      "type": "int128"
                    },
                    {
                      "internalType": "PackedUFixed18",
                      "name": "targetUtilization",
                      "type": "uint128"
                    }
                  ],
                  "internalType": "struct JumpRateUtilizationCurve",
                  "name": "utilizationCurve",
                  "type": "tuple"
                }
              ],
              "internalType": "struct IProduct.ProductInfo",
              "name": "productInfo",
              "type": "tuple"
            },
            {
              "internalType": "address",
              "name": "productAddress",
              "type": "address"
            },
            {
              "internalType": "Fixed18",
              "name": "rate",
              "type": "int256"
            },
            {
              "internalType": "Fixed18",
              "name": "dailyRate",
              "type": "int256"
            },
            {
              "components": [
                {
                  "internalType": "uint256",
                  "name": "version",
                  "type": "uint256"
                },
                {
                  "internalType": "uint256",
                  "name": "timestamp",
                  "type": "uint256"
                },
                {
                  "internalType": "Fixed18",
                  "name": "price",
                  "type": "int256"
                }
              ],
              "internalType": "struct IOracleProvider.OracleVersion",
              "name": "latestVersion",
              "type": "tuple"
            },
            {
              "internalType": "UFixed18",
              "name": "maintenance",
              "type": "uint256"
            },
            {
              "internalType": "UFixed18",
              "name": "collateral",
              "type": "uint256"
            },
            {
              "internalType": "UFixed18",
              "name": "shortfall",
              "type": "uint256"
            },
            {
              "components": [
                {
                  "internalType": "uint256",
                  "name": "oracleVersion",
                  "type": "uint256"
                },
                {
                  "components": [
                    {
                      "internalType": "UFixed18",
                      "name": "maker",
                      "type": "uint256"
                    },
                    {
                      "internalType": "UFixed18",
                      "name": "taker",
                      "type": "uint256"
                    }
                  ],
                  "internalType": "struct Position",
                  "name": "openPosition",
                  "type": "tuple"
                },
                {
                  "components": [
                    {
                      "internalType": "UFixed18",
                      "name": "maker",
                      "type": "uint256"
                    },
                    {
                      "internalType": "UFixed18",
                      "name": "taker",
                      "type": "uint256"
                    }
                  ],
                  "internalType": "struct Position",
                  "name": "closePosition",
                  "type": "tuple"
                }
              ],
              "internalType": "struct PrePosition",
              "name": "pre",
              "type": "tuple"
            },
            {
              "components": [
                {
                  "internalType": "UFixed18",
                  "name": "maker",
                  "type": "uint256"
                },
                {
                  "internalType": "UFixed18",
                  "name": "taker",
                  "type": "uint256"
                }
              ],
              "internalType": "struct Position",
              "name": "position",
              "type": "tuple"
            },
            {
              "internalType": "UFixed18",
              "name": "productFee",
              "type": "uint256"
            },
            {
              "internalType": "UFixed18",
              "name": "protocolFee",
              "type": "uint256"
            },
            {
              "components": [
                {
                  "internalType": "UFixed18",
                  "name": "maker",
                  "type": "uint256"
                },
                {
                  "internalType": "UFixed18",
                  "name": "taker",
                  "type": "uint256"
                }
              ],
              "internalType": "struct Position",
              "name": "openInterest",
              "type": "tuple"
            }
          ],
          "internalType": "struct IPerennialLens.ProductSnapshot",
          "name": "_snapshot",
          "type": "tuple"
        }
      ],
      "stateMutability": "nonpayable",
      "type": "function"
    },
    {
      "inputs": [
        {
          "internalType": "address",
          "name": "account",
          "type": "address"
        },
        {
          "internalType": "contract IProduct[]",
          "name": "productAddresses",
          "type": "address[]"
        }
      ],
      "name": "snapshots",
      "outputs": [
        {
          "components": [
            {
              "internalType": "address",
              "name": "productAddress",
              "type": "address"
            },
            {
              "internalType": "address",
              "name": "userAddress",
              "type": "address"
            },
            {
              "internalType": "UFixed18",
              "name": "collateral",
              "type": "uint256"
            },
            {
              "internalType": "UFixed18",
              "name": "maintenance",
              "type": "uint256"
            },
            {
              "components": [
                {
                  "internalType": "uint256",
                  "name": "oracleVersion",
                  "type": "uint256"
                },
                {
                  "components": [
                    {
                      "internalType": "UFixed18",
                      "name": "maker",
                      "type": "uint256"
                    },
                    {
                      "internalType": "UFixed18",
                      "name": "taker",
                      "type": "uint256"
                    }
                  ],
                  "internalType": "struct Position",
                  "name": "openPosition",
                  "type": "tuple"
                },
                {
                  "components": [
                    {
                      "internalType": "UFixed18",
                      "name": "maker",
                      "type": "uint256"
                    },
                    {
                      "internalType": "UFixed18",
                      "name": "taker",
                      "type": "uint256"
                    }
                  ],
                  "internalType": "struct Position",
                  "name": "closePosition",
                  "type": "tuple"
                }
              ],
              "internalType": "struct PrePosition",
              "name": "pre",
              "type": "tuple"
            },
            {
              "components": [
                {
                  "internalType": "UFixed18",
                  "name": "maker",
                  "type": "uint256"
                },
                {
                  "internalType": "UFixed18",
                  "name": "taker",
                  "type": "uint256"
                }
              ],
              "internalType": "struct Position",
              "name": "position",
              "type": "tuple"
            },
            {
              "internalType": "bool",
              "name": "liquidatable",
              "type": "bool"
            },
            {
              "internalType": "bool",
              "name": "liquidating",
              "type": "bool"
            },
            {
              "components": [
                {
                  "internalType": "UFixed18",
                  "name": "maker",
                  "type": "uint256"
                },
                {
                  "internalType": "UFixed18",
                  "name": "taker",
                  "type": "uint256"
                }
              ],
              "internalType": "struct Position",
              "name": "openInterest",
              "type": "tuple"
            },
            {
              "internalType": "UFixed18",
              "name": "fees",
              "type": "uint256"
            },
            {
              "internalType": "UFixed18",
              "name": "exposure",
              "type": "uint256"
            }
          ],
          "internalType": "struct IPerennialLens.UserProductSnapshot[]",
          "name": "_snapshots",
          "type": "tuple[]"
        }
      ],
      "stateMutability": "nonpayable",
      "type": "function"
    },
    {
      "inputs": [
        {
          "internalType": "contract IProduct[]",
          "name": "productAddresses",
          "type": "address[]"
        }
      ],
      "name": "snapshots",
      "outputs": [
        {
          "components": [
            {
              "components": [
                {
                  "internalType": "string",
                  "name": "name",
                  "type": "string"
                },
                {
                  "internalType": "string",
                  "name": "symbol",
                  "type": "string"
                },
                {
                  "components": [
                    {
                      "internalType": "enum PayoffDefinitionLib.PayoffType",
                      "name": "payoffType",
                      "type": "uint8"
                    },
                    {
                      "internalType": "enum PayoffDefinitionLib.PayoffDirection",
                      "name": "payoffDirection",
                      "type": "uint8"
                    },
                    {
                      "internalType": "bytes30",
                      "name": "data",
                      "type": "bytes30"
                    }
                  ],
                  "internalType": "struct PayoffDefinition",
                  "name": "payoffDefinition",
                  "type": "tuple"
                },
                {
                  "internalType": "contract IOracleProvider",
                  "name": "oracle",
                  "type": "address"
                },
                {
                  "internalType": "UFixed18",
                  "name": "maintenance",
                  "type": "uint256"
                },
                {
                  "internalType": "UFixed18",
                  "name": "fundingFee",
                  "type": "uint256"
                },
                {
                  "internalType": "UFixed18",
                  "name": "makerFee",
                  "type": "uint256"
                },
                {
                  "internalType": "UFixed18",
                  "name": "takerFee",
                  "type": "uint256"
                },
                {
                  "internalType": "UFixed18",
                  "name": "makerLimit",
                  "type": "uint256"
                },
                {
                  "components": [
                    {
                      "internalType": "PackedFixed18",
                      "name": "minRate",
                      "type": "int128"
                    },
                    {
                      "internalType": "PackedFixed18",
                      "name": "maxRate",
                      "type": "int128"
                    },
                    {
                      "internalType": "PackedFixed18",
                      "name": "targetRate",
                      "type": "int128"
                    },
                    {
                      "internalType": "PackedUFixed18",
                      "name": "targetUtilization",
                      "type": "uint128"
                    }
                  ],
                  "internalType": "struct JumpRateUtilizationCurve",
                  "name": "utilizationCurve",
                  "type": "tuple"
                }
              ],
              "internalType": "struct IProduct.ProductInfo",
              "name": "productInfo",
              "type": "tuple"
            },
            {
              "internalType": "address",
              "name": "productAddress",
              "type": "address"
            },
            {
              "internalType": "Fixed18",
              "name": "rate",
              "type": "int256"
            },
            {
              "internalType": "Fixed18",
              "name": "dailyRate",
              "type": "int256"
            },
            {
              "components": [
                {
                  "internalType": "uint256",
                  "name": "version",
                  "type": "uint256"
                },
                {
                  "internalType": "uint256",
                  "name": "timestamp",
                  "type": "uint256"
                },
                {
                  "internalType": "Fixed18",
                  "name": "price",
                  "type": "int256"
                }
              ],
              "internalType": "struct IOracleProvider.OracleVersion",
              "name": "latestVersion",
              "type": "tuple"
            },
            {
              "internalType": "UFixed18",
              "name": "maintenance",
              "type": "uint256"
            },
            {
              "internalType": "UFixed18",
              "name": "collateral",
              "type": "uint256"
            },
            {
              "internalType": "UFixed18",
              "name": "shortfall",
              "type": "uint256"
            },
            {
              "components": [
                {
                  "internalType": "uint256",
                  "name": "oracleVersion",
                  "type": "uint256"
                },
                {
                  "components": [
                    {
                      "internalType": "UFixed18",
                      "name": "maker",
                      "type": "uint256"
                    },
                    {
                      "internalType": "UFixed18",
                      "name": "taker",
                      "type": "uint256"
                    }
                  ],
                  "internalType": "struct Position",
                  "name": "openPosition",
                  "type": "tuple"
                },
                {
                  "components": [
                    {
                      "internalType": "UFixed18",
                      "name": "maker",
                      "type": "uint256"
                    },
                    {
                      "internalType": "UFixed18",
                      "name": "taker",
                      "type": "uint256"
                    }
                  ],
                  "internalType": "struct Position",
                  "name": "closePosition",
                  "type": "tuple"
                }
              ],
              "internalType": "struct PrePosition",
              "name": "pre",
              "type": "tuple"
            },
            {
              "components": [
                {
                  "internalType": "UFixed18",
                  "name": "maker",
                  "type": "uint256"
                },
                {
                  "internalType": "UFixed18",
                  "name": "taker",
                  "type": "uint256"
                }
              ],
              "internalType": "struct Position",
              "name": "position",
              "type": "tuple"
            },
            {
              "internalType": "UFixed18",
              "name": "productFee",
              "type": "uint256"
            },
            {
              "internalType": "UFixed18",
              "name": "protocolFee",
              "type": "uint256"
            },
            {
              "components": [
                {
                  "internalType": "UFixed18",
                  "name": "maker",
                  "type": "uint256"
                },
                {
                  "internalType": "UFixed18",
                  "name": "taker",
                  "type": "uint256"
                }
              ],
              "internalType": "struct Position",
              "name": "openInterest",
              "type": "tuple"
            }
          ],
          "internalType": "struct IPerennialLens.ProductSnapshot[]",
          "name": "_snapshots",
          "type": "tuple[]"
        }
      ],
      "stateMutability": "nonpayable",
      "type": "function"
    },
    {
      "inputs": [
        {
          "internalType": "contract IProduct",
          "name": "product",
          "type": "address"
        }
      ],
      "name": "symbol",
      "outputs": [
        {
          "internalType": "string",
          "name": "",
          "type": "string"
        }
      ],
      "stateMutability": "view",
      "type": "function"
    },
    {
      "inputs": [
        {
          "internalType": "address",
          "name": "account",
          "type": "address"
        },
        {
          "internalType": "contract IProduct",
          "name": "product",
          "type": "address"
        }
      ],
      "name": "unclaimedIncentiveRewards",
      "outputs": [
        {
          "internalType": "Token18[]",
          "name": "tokens",
          "type": "address[]"
        },
        {
          "internalType": "UFixed18[]",
          "name": "amounts",
          "type": "uint256[]"
        }
      ],
      "stateMutability": "nonpayable",
      "type": "function"
    },
    {
      "inputs": [
        {
          "internalType": "address",
          "name": "account",
          "type": "address"
        },
        {
          "internalType": "contract IProduct",
          "name": "product",
          "type": "address"
        },
        {
          "internalType": "uint256[]",
          "name": "programIds",
          "type": "uint256[]"
        }
      ],
      "name": "unclaimedIncentiveRewards",
      "outputs": [
        {
          "internalType": "Token18[]",
          "name": "tokens",
          "type": "address[]"
        },
        {
          "internalType": "UFixed18[]",
          "name": "amounts",
          "type": "uint256[]"
        }
      ],
      "stateMutability": "nonpayable",
      "type": "function"
    },
    {
      "inputs": [
        {
          "internalType": "address",
          "name": "account",
          "type": "address"
        },
        {
          "internalType": "contract IProduct",
          "name": "product",
          "type": "address"
        }
      ],
      "name": "userPosition",
      "outputs": [
        {
          "components": [
            {
              "internalType": "uint256",
              "name": "oracleVersion",
              "type": "uint256"
            },
            {
              "components": [
                {
                  "internalType": "UFixed18",
                  "name": "maker",
                  "type": "uint256"
                },
                {
                  "internalType": "UFixed18",
                  "name": "taker",
                  "type": "uint256"
                }
              ],
              "internalType": "struct Position",
              "name": "openPosition",
              "type": "tuple"
            },
            {
              "components": [
                {
                  "internalType": "UFixed18",
                  "name": "maker",
                  "type": "uint256"
                },
                {
                  "internalType": "UFixed18",
                  "name": "taker",
                  "type": "uint256"
                }
              ],
              "internalType": "struct Position",
              "name": "closePosition",
              "type": "tuple"
            }
          ],
          "internalType": "struct PrePosition",
          "name": "",
          "type": "tuple"
        },
        {
          "components": [
            {
              "internalType": "UFixed18",
              "name": "maker",
              "type": "uint256"
            },
            {
              "internalType": "UFixed18",
              "name": "taker",
              "type": "uint256"
            }
          ],
          "internalType": "struct Position",
          "name": "",
          "type": "tuple"
        }
      ],
      "stateMutability": "nonpayable",
      "type": "function"
    }
  ],
  "transactionHash": "0x5af81829a17c8d305d16b5ef0d51173f7c0c374ad7f9f2d96d1ebed19c33a037",
  "args": [
    "0x4a0f50b19b02AC927911C559629536B9a24d9314"
  ],
  "numDeployments": 1,
  "solcInputHash": "a1de9b0f4b57f81fe4baf3160038a424",
  "bytecode": "0x60a06040523480156200001157600080fd5b506040516200479938038062004799833981016040819052620000349162000046565b6001600160a01b031660805262000078565b6000602082840312156200005957600080fd5b81516001600160a01b03811681146200007157600080fd5b9392505050565b6080516146e2620000b76000396000818161052e015281816117d60152818161268b01528181612a3b01528181612dca0152612ea201526146e26000f3fe608060405234801561001057600080fd5b506004361061020b5760003560e01c80638f5edc081161012a578063b7a98f97116100bd578063edd8ca7b1161008c578063f77c479111610071578063f77c479114610529578063f8083f5614610550578063faaebd211461056357600080fd5b8063edd8ca7b14610503578063f5c06e1b1461051657600080fd5b8063b7a98f971461049d578063cc218ece146104b0578063d8dfeb45146104c3578063e9c6b4c1146104f057600080fd5b8063a5fdc5de116100f9578063a5fdc5de14610444578063a86e357614610457578063b4d6f7811461046a578063b7648fb91461047d57600080fd5b80638f5edc08146103de5780639b9ac2cb146103fe5780639bc02857146104115780639be2a5671461043157600080fd5b806337e710ac116101a25780637e64cc13116101715780637e64cc131461036757806382df39de146103885780638e076924146103ab5780638e480b20146103be57600080fd5b806337e710ac1461030e578063540027e6146103215780636878353e146103345780636efef0851461034757600080fd5b80631e0c6fb9116101de5780631e0c6fb91461029b578063204e94b0146102bb578063237e5899146102db57806326512160146102ee57600080fd5b80630198489214610210578063036790c0146102395780630aae7a6b1461025a5780630ba9d8ca1461027a575b600080fd5b61022361021e36600461363e565b61058b565b60405161023091906136d5565b60405180910390f35b61024c61024736600461363e565b610624565b6040516102309291906136e8565b61026d61026836600461363e565b610723565b60405161023091906138af565b61028d61028836600461363e565b610b37565b604051908152602001610230565b6102ae6102a936600461363e565b610c43565b60405161023091906138c2565b6102ce6102c93660046138f8565b610d22565b6040516102309190613a2e565b61028d6102e93660046138f8565b610e67565b6103016102fc36600461363e565b610f6f565b6040516102309190613b6e565b61028d61031c3660046138f8565b611104565b61028d61032f36600461363e565b6112bf565b61024c6103423660046138f8565b6113d7565b61035a610355366004613c4c565b6115a2565b6040516102309190613cf7565b61037a6103753660046138f8565b611748565b604051610230929190613d59565b61039b6103963660046138f8565b611b2e565b6040519015158152602001610230565b61028d6103b9366004613dea565b611c5a565b6103d16103cc36600461363e565b611d8a565b6040516102309190613e2b565b6103f16103ec366004613e4c565b611e18565b6040516102309190613eec565b61028d61040c3660046138f8565b611ed6565b61042461041f366004613f7b565b611ffa565b6040516102309190613fbd565b6102ae61043f3660046138f8565b6120b6565b61028d61045236600461363e565b6121d3565b61022361046536600461363e565b6122d1565b61028d61047836600461363e565b61231e565b61049061048b36600461363e565b6123df565b604051610230919061403d565b6104906104ab3660046138f8565b61245d565b61028d6104be3660046138f8565b612598565b6104cb612687565b60405173ffffffffffffffffffffffffffffffffffffffff9091168152602001610230565b6104906104fe3660046138f8565b61271d565b61049061051136600461363e565b612843565b61039b6105243660046138f8565b6128d0565b6104cb7f000000000000000000000000000000000000000000000000000000000000000081565b61037a61055e366004614054565b6129ad565b61057661057136600461363e565b612d62565b60408051928352602083019190915201610230565b60608173ffffffffffffffffffffffffffffffffffffffff166306fdde036040518163ffffffff1660e01b8152600401600060405180830381865afa1580156105d8573d6000803e3d6000fd5b505050506040513d6000823e601f3d9081017fffffffffffffffffffffffffffffffffffffffffffffffffffffffffffffffe016820160405261061e91908101906140b9565b92915050565b61062c613357565b6040805180820190915260008082526020820152828073ffffffffffffffffffffffffffffffffffffffff166311da60b46040518163ffffffff1660e01b8152600401600060405180830381600087803b15801561068957600080fd5b505af115801561069d573d6000803e3d6000fd5b505050508373ffffffffffffffffffffffffffffffffffffffff166359ea287d6040518163ffffffff1660e01b815260040160a060405180830381865afa1580156106ec573d6000803e3d6000fd5b505050506040513d601f19601f8201168201806040525081019061071091906141ba565b6107198561304f565b9250925050915091565b61072b6133ad565b6107348261058b565b815261073f826122d1565b81602001819052508173ffffffffffffffffffffffffffffffffffffffff166305d5c1cb6040518163ffffffff1660e01b8152600401606060405180830381865afa158015610792573d6000803e3d6000fd5b505050506040513d601f19601f820116820180604052508101906107b6919061422e565b81604001819052508173ffffffffffffffffffffffffffffffffffffffff16637dc0d1d06040518163ffffffff1660e01b8152600401602060405180830381865afa158015610809573d6000803e3d6000fd5b505050506040513d601f19601f8201168201806040525081019061082d919061429b565b816060019073ffffffffffffffffffffffffffffffffffffffff16908173ffffffffffffffffffffffffffffffffffffffff16815250508173ffffffffffffffffffffffffffffffffffffffff16636c376cc56040518163ffffffff1660e01b8152600401602060405180830381865afa1580156108af573d6000803e3d6000fd5b505050506040513d601f19601f820116820180604052508101906108d391906142b8565b8160800181815250508173ffffffffffffffffffffffffffffffffffffffff16635d16e1206040518163ffffffff1660e01b8152600401602060405180830381865afa158015610927573d6000803e3d6000fd5b505050506040513d601f19601f8201168201806040525081019061094b91906142b8565b8160a00181815250508173ffffffffffffffffffffffffffffffffffffffff1663fc741c7c6040518163ffffffff1660e01b8152600401602060405180830381865afa15801561099f573d6000803e3d6000fd5b505050506040513d601f19601f820116820180604052508101906109c391906142b8565b8160c00181815250508173ffffffffffffffffffffffffffffffffffffffff166343f0179b6040518163ffffffff1660e01b8152600401602060405180830381865afa158015610a17573d6000803e3d6000fd5b505050506040513d601f19601f82011682018060405250810190610a3b91906142b8565b8160e00181815250508173ffffffffffffffffffffffffffffffffffffffff1663193775676040518163ffffffff1660e01b8152600401602060405180830381865afa158015610a8f573d6000803e3d6000fd5b505050506040513d601f19601f82011682018060405250810190610ab391906142b8565b816101000181815250508173ffffffffffffffffffffffffffffffffffffffff1663a12e1b336040518163ffffffff1660e01b8152600401608060405180830381865afa158015610b08573d6000803e3d6000fd5b505050506040513d601f19601f82011682018060405250810190610b2c91906142e8565b610120820152919050565b6000818073ffffffffffffffffffffffffffffffffffffffff166311da60b46040518163ffffffff1660e01b8152600401600060405180830381600087803b158015610b8257600080fd5b505af1158015610b96573d6000803e3d6000fd5b505050506000610ba58461304f565b6040517f60ec91d600000000000000000000000000000000000000000000000000000000815290915073ffffffffffffffffffffffffffffffffffffffff8516906360ec91d690610bfa90849060040161403d565b602060405180830381865afa158015610c17573d6000803e3d6000fd5b505050506040513d601f19601f82011682018060405250810190610c3b91906142b8565b949350505050565b610c4b613357565b818073ffffffffffffffffffffffffffffffffffffffff166311da60b46040518163ffffffff1660e01b8152600401600060405180830381600087803b158015610c9457600080fd5b505af1158015610ca8573d6000803e3d6000fd5b505050508273ffffffffffffffffffffffffffffffffffffffff166359ea287d6040518163ffffffff1660e01b815260040160a060405180830381865afa158015610cf7573d6000803e3d6000fd5b505050506040513d601f19601f82011682018060405250810190610d1b91906141ba565b9392505050565b610d2a613477565b6040517ff667f89700000000000000000000000000000000000000000000000000000000815273ffffffffffffffffffffffffffffffffffffffff80851660048301528491849182169063f667f89790602401600060405180830381600087803b158015610d9757600080fd5b505af1158015610dab573d6000803e3d6000fd5b50505073ffffffffffffffffffffffffffffffffffffffff80861685528616602085015250610dda8585612598565b6040840152610de98585611104565b6060840152610df885856120b6565b6080840152610e07858561271d565b60a0840152610e168585611b2e565b151560c0840152610e2785856128d0565b151560e0840152610e38858561245d565b610100840152610e488585611ed6565b610120840152610e588585610e67565b61014084015250909392505050565b6040517ff667f89700000000000000000000000000000000000000000000000000000000815273ffffffffffffffffffffffffffffffffffffffff8084166004830152600091849184919082169063f667f89790602401600060405180830381600087803b158015610ed857600080fd5b505af1158015610eec573d6000803e3d6000fd5b505050506000610efb85610624565b805190925015905015610f12576000935050610f67565b6000610f1e878761245d565b9050610f2c81602001511590565b610f3d57602001519350610f679050565b81516020830151600091610f51919061314c565b8251909150610f6190829061316b565b95505050505b505092915050565b610f7761353d565b818073ffffffffffffffffffffffffffffffffffffffff166311da60b46040518163ffffffff1660e01b8152600401600060405180830381600087803b158015610fc057600080fd5b505af1158015610fd4573d6000803e3d6000fd5b50505050610fe183610723565b825273ffffffffffffffffffffffffffffffffffffffff8316602083015261100883610b37565b6040830152611016836112bf565b606083015261102483611d8a565b82608001819052508273ffffffffffffffffffffffffffffffffffffffff16636c376cc56040518163ffffffff1660e01b8152600401602060405180830381865afa158015611077573d6000803e3d6000fd5b505050506040513d601f19601f8201168201806040525081019061109b91906142b8565b60a08301526110a9836121d3565b60c08301526110b78361231e565b60e08301526110c583610c43565b6101008301526110d4836123df565b6101208301526110e383612d62565b6101608401526101408301526110f883612843565b61018083015250919050565b6040517ff667f89700000000000000000000000000000000000000000000000000000000815273ffffffffffffffffffffffffffffffffffffffff8084166004830152600091849184919082169063f667f89790602401600060405180830381600087803b15801561117557600080fd5b505af1158015611189573d6000803e3d6000fd5b50506040517f9168902400000000000000000000000000000000000000000000000000000000815273ffffffffffffffffffffffffffffffffffffffff88811660048301526112b6935087169150639168902490602401602060405180830381865afa1580156111fd573d6000803e3d6000fd5b505050506040513d601f19601f8201168201806040525081019061122191906142b8565b6040517fab582f2900000000000000000000000000000000000000000000000000000000815273ffffffffffffffffffffffffffffffffffffffff888116600483015287169063ab582f2990602401602060405180830381865afa15801561128d573d6000803e3d6000fd5b505050506040513d601f19601f820116820180604052508101906112b191906142b8565b613180565b95945050505050565b6000818073ffffffffffffffffffffffffffffffffffffffff166311da60b46040518163ffffffff1660e01b8152600401600060405180830381600087803b15801561130a57600080fd5b505af115801561131e573d6000803e3d6000fd5b50505050600061132d8461304f565b9050610c3b61133e6201518061318c565b6040517f60ec91d600000000000000000000000000000000000000000000000000000000815273ffffffffffffffffffffffffffffffffffffffff8716906360ec91d69061139090869060040161403d565b602060405180830381865afa1580156113ad573d6000803e3d6000fd5b505050506040513d601f19601f820116820180604052508101906113d191906142b8565b906131a0565b6113df613357565b6040805180820182526000808252602082015290517ff667f89700000000000000000000000000000000000000000000000000000000815273ffffffffffffffffffffffffffffffffffffffff85811660048301528591859182169063f667f89790602401600060405180830381600087803b15801561145e57600080fd5b505af1158015611472573d6000803e3d6000fd5b50506040517f1e0c6fb900000000000000000000000000000000000000000000000000000000815273ffffffffffffffffffffffffffffffffffffffff898116600483015288169250631e0c6fb9915060240160a060405180830381865afa1580156114e2573d6000803e3d6000fd5b505050506040513d601f19601f8201168201806040525081019061150691906141ba565b6040517fb7648fb900000000000000000000000000000000000000000000000000000000815273ffffffffffffffffffffffffffffffffffffffff888116600483015287169063b7648fb9906024016040805180830381865afa158015611571573d6000803e3d6000fd5b505050506040513d601f19601f82011682018060405250810190611595919061437c565b9350935050509250929050565b6060828073ffffffffffffffffffffffffffffffffffffffff166311da60b46040518163ffffffff1660e01b8152600401600060405180830381600087803b1580156115ed57600080fd5b505af1158015611601573d6000803e3d6000fd5b50505050825167ffffffffffffffff81111561161f5761161f613b81565b60405190808252806020026020018201604052801561167457816020015b61166160405180606001604052806000815260200160008152602001600081525090565b81526020019060019003908161163d5790505b50915060005b8351811015610f67578473ffffffffffffffffffffffffffffffffffffffff16637ece075d8583815181106116b1576116b1614398565b60200260200101516040518263ffffffff1660e01b81526004016116d791815260200190565b606060405180830381865afa1580156116f4573d6000803e3d6000fd5b505050506040513d601f19601f8201168201806040525081019061171891906143c7565b83828151811061172a5761172a614398565b6020026020010181905250808061174090614432565b91505061167a565b6040517ff667f89700000000000000000000000000000000000000000000000000000000815273ffffffffffffffffffffffffffffffffffffffff808416600483015260609182918591859182169063f667f89790602401600060405180830381600087803b1580156117ba57600080fd5b505af11580156117ce573d6000803e3d6000fd5b5050505060007f000000000000000000000000000000000000000000000000000000000000000073ffffffffffffffffffffffffffffffffffffffff16636fc6407c6040518163ffffffff1660e01b8152600401602060405180830381865afa15801561183f573d6000803e3d6000fd5b505050506040513d601f19601f82011682018060405250810190611863919061429b565b6040517f05d85eda00000000000000000000000000000000000000000000000000000000815273ffffffffffffffffffffffffffffffffffffffff88811660048301529192506000918316906305d85eda90602401602060405180830381865afa1580156118d5573d6000803e3d6000fd5b505050506040513d601f19601f820116820180604052508101906118f991906142b8565b90508067ffffffffffffffff81111561191457611914613b81565b60405190808252806020026020018201604052801561193d578160200160208202803683370190505b5095508067ffffffffffffffff81111561195957611959613b81565b604051908082528060200260200182016040528015611982578160200160208202803683370190505b50945060005b81811015611b22576040517f2c3e50e500000000000000000000000000000000000000000000000000000000815273ffffffffffffffffffffffffffffffffffffffff89811660048301526024820183905260009190851690632c3e50e59060440160c060405180830381865afa158015611a07573d6000803e3d6000fd5b505050506040513d601f19601f82011682018060405250810190611a2b919061446a565b90508060800151888381518110611a4457611a44614398565b73ffffffffffffffffffffffffffffffffffffffff92831660209182029290920101526040517f66f8162e0000000000000000000000000000000000000000000000000000000081528a821660048201528b8216602482015260448101849052908516906366f8162e90606401602060405180830381865afa158015611ace573d6000803e3d6000fd5b505050506040513d601f19601f82011682018060405250810190611af291906142b8565b878381518110611b0457611b04614398565b60209081029190910101525080611b1a81614432565b915050611988565b50505050509250929050565b6040517ff667f89700000000000000000000000000000000000000000000000000000000815273ffffffffffffffffffffffffffffffffffffffff8084166004830152600091849184919082169063f667f89790602401600060405180830381600087803b158015611b9f57600080fd5b505af1158015611bb3573d6000803e3d6000fd5b50505050611bbf612687565b6040517f82df39de00000000000000000000000000000000000000000000000000000000815273ffffffffffffffffffffffffffffffffffffffff8781166004830152868116602483015291909116906382df39de906044015b602060405180830381865afa158015611c36573d6000803e3d6000fd5b505050506040513d601f19601f820116820180604052508101906112b691906144e6565b6040517ff667f89700000000000000000000000000000000000000000000000000000000815273ffffffffffffffffffffffffffffffffffffffff8085166004830152600091859185919082169063f667f89790602401600060405180830381600087803b158015611ccb57600080fd5b505af1158015611cdf573d6000803e3d6000fd5b505050506000611d04611cfd611cf4886131bf565b604001516132cd565b869061316b565b9050611d7f8673ffffffffffffffffffffffffffffffffffffffff16636c376cc56040518163ffffffff1660e01b8152600401602060405180830381865afa158015611d54573d6000803e3d6000fd5b505050506040513d601f19601f82011682018060405250810190611d7891906142b8565b829061316b565b979650505050505050565b611dae60405180606001604052806000815260200160008152602001600081525090565b818073ffffffffffffffffffffffffffffffffffffffff166311da60b46040518163ffffffff1660e01b8152600401600060405180830381600087803b158015611df757600080fd5b505af1158015611e0b573d6000803e3d6000fd5b50505050610d1b836131bf565b6060815167ffffffffffffffff811115611e3457611e34613b81565b604051908082528060200260200182016040528015611e6d57816020015b611e5a613477565b815260200190600190039081611e525790505b50905060005b8251811015611ecf57611e9f84848381518110611e9257611e92614398565b6020026020010151610d22565b828281518110611eb157611eb1614398565b60200260200101819052508080611ec790614432565b915050611e73565b5092915050565b6040517ff667f89700000000000000000000000000000000000000000000000000000000815273ffffffffffffffffffffffffffffffffffffffff8084166004830152600091849184919082169063f667f89790602401600060405180830381600087803b158015611f4757600080fd5b505af1158015611f5b573d6000803e3d6000fd5b50505050611f67612687565b6040517ffaaebd2100000000000000000000000000000000000000000000000000000000815273ffffffffffffffffffffffffffffffffffffffff8781166004830152919091169063faaebd21906024015b602060405180830381865afa158015611fd6573d6000803e3d6000fd5b505050506040513d601f19601f820116820180604052508101906112b691906142b8565b60608167ffffffffffffffff81111561201557612015613b81565b60405190808252806020026020018201604052801561204e57816020015b61203b61353d565b8152602001906001900390816120335790505b50905060005b82811015611ecf5761208684848381811061207157612071614398565b90506020020160208101906102fc919061363e565b82828151811061209857612098614398565b602002602001018190525080806120ae90614432565b915050612054565b6120be613357565b6040517ff667f89700000000000000000000000000000000000000000000000000000000815273ffffffffffffffffffffffffffffffffffffffff80851660048301528491849182169063f667f89790602401600060405180830381600087803b15801561212b57600080fd5b505af115801561213f573d6000803e3d6000fd5b50506040517f1e0c6fb900000000000000000000000000000000000000000000000000000000815273ffffffffffffffffffffffffffffffffffffffff888116600483015287169250631e0c6fb9915060240160a060405180830381865afa1580156121af573d6000803e3d6000fd5b505050506040513d601f19601f820116820180604052508101906112b691906141ba565b6000818073ffffffffffffffffffffffffffffffffffffffff166311da60b46040518163ffffffff1660e01b8152600401600060405180830381600087803b15801561221e57600080fd5b505af1158015612232573d6000803e3d6000fd5b5050505061223e612687565b6040517fa5fdc5de00000000000000000000000000000000000000000000000000000000815273ffffffffffffffffffffffffffffffffffffffff8581166004830152919091169063a5fdc5de906024015b602060405180830381865afa1580156122ad573d6000803e3d6000fd5b505050506040513d601f19601f82011682018060405250810190610d1b91906142b8565b60608173ffffffffffffffffffffffffffffffffffffffff166395d89b416040518163ffffffff1660e01b8152600401600060405180830381865afa1580156105d8573d6000803e3d6000fd5b6000818073ffffffffffffffffffffffffffffffffffffffff166311da60b46040518163ffffffff1660e01b8152600401600060405180830381600087803b15801561236957600080fd5b505af115801561237d573d6000803e3d6000fd5b50505050612389612687565b6040517fb4d6f78100000000000000000000000000000000000000000000000000000000815273ffffffffffffffffffffffffffffffffffffffff8581166004830152919091169063b4d6f78190602401612290565b6040805180820190915260008082526020820152818073ffffffffffffffffffffffffffffffffffffffff166311da60b46040518163ffffffff1660e01b8152600401600060405180830381600087803b15801561243c57600080fd5b505af1158015612450573d6000803e3d6000fd5b50505050610d1b8361304f565b6040805180820182526000808252602082015290517ff667f89700000000000000000000000000000000000000000000000000000000815273ffffffffffffffffffffffffffffffffffffffff84811660048301528491849182169063f667f89790602401600060405180830381600087803b1580156124dc57600080fd5b505af11580156124f0573d6000803e3d6000fd5b505050506112b6612503611cf4866131bf565b6040517fb7648fb900000000000000000000000000000000000000000000000000000000815273ffffffffffffffffffffffffffffffffffffffff888116600483015287169063b7648fb9906024016040805180830381865afa15801561256e573d6000803e3d6000fd5b505050506040513d601f19601f82011682018060405250810190612592919061437c565b906132d8565b6040517ff667f89700000000000000000000000000000000000000000000000000000000815273ffffffffffffffffffffffffffffffffffffffff8084166004830152600091849184919082169063f667f89790602401600060405180830381600087803b15801561260957600080fd5b505af115801561261d573d6000803e3d6000fd5b50505050612629612687565b6040517fcc218ece00000000000000000000000000000000000000000000000000000000815273ffffffffffffffffffffffffffffffffffffffff87811660048301528681166024830152919091169063cc218ece90604401611fb9565b60007f000000000000000000000000000000000000000000000000000000000000000073ffffffffffffffffffffffffffffffffffffffff1663d8dfeb456040518163ffffffff1660e01b8152600401602060405180830381865afa1580156126f4573d6000803e3d6000fd5b505050506040513d601f19601f82011682018060405250810190612718919061429b565b905090565b6040805180820182526000808252602082015290517ff667f89700000000000000000000000000000000000000000000000000000000815273ffffffffffffffffffffffffffffffffffffffff84811660048301528491849182169063f667f89790602401600060405180830381600087803b15801561279c57600080fd5b505af11580156127b0573d6000803e3d6000fd5b50506040517fb7648fb900000000000000000000000000000000000000000000000000000000815273ffffffffffffffffffffffffffffffffffffffff88811660048301528716925063b7648fb991506024016040805180830381865afa15801561281f573d6000803e3d6000fd5b505050506040513d601f19601f820116820180604052508101906112b6919061437c565b6040805180820190915260008082526020820152818073ffffffffffffffffffffffffffffffffffffffff166311da60b46040518163ffffffff1660e01b8152600401600060405180830381600087803b1580156128a057600080fd5b505af11580156128b4573d6000803e3d6000fd5b50505050610d1b6128c7611cf4856131bf565b6125928561304f565b6040517ff667f89700000000000000000000000000000000000000000000000000000000815273ffffffffffffffffffffffffffffffffffffffff8084166004830152600091849184919082169063f667f89790602401600060405180830381600087803b15801561294157600080fd5b505af1158015612955573d6000803e3d6000fd5b50506040517f58ca6f9800000000000000000000000000000000000000000000000000000000815273ffffffffffffffffffffffffffffffffffffffff8881166004830152871692506358ca6f989150602401611c19565b6040517ff667f89700000000000000000000000000000000000000000000000000000000815273ffffffffffffffffffffffffffffffffffffffff808616600483015260609182918791879182169063f667f89790602401600060405180830381600087803b158015612a1f57600080fd5b505af1158015612a33573d6000803e3d6000fd5b5050505060007f000000000000000000000000000000000000000000000000000000000000000073ffffffffffffffffffffffffffffffffffffffff16636fc6407c6040518163ffffffff1660e01b8152600401602060405180830381865afa158015612aa4573d6000803e3d6000fd5b505050506040513d601f19601f82011682018060405250810190612ac8919061429b565b90508567ffffffffffffffff811115612ae357612ae3613b81565b604051908082528060200260200182016040528015612b0c578160200160208202803683370190505b5094508567ffffffffffffffff811115612b2857612b28613b81565b604051908082528060200260200182016040528015612b51578160200160208202803683370190505b50935060005b86811015612d555760008273ffffffffffffffffffffffffffffffffffffffff16632c3e50e58b8b8b86818110612b9057612b90614398565b6040517fffffffff0000000000000000000000000000000000000000000000000000000060e087901b16815273ffffffffffffffffffffffffffffffffffffffff9094166004850152602002919091013560248301525060440160c060405180830381865afa158015612c07573d6000803e3d6000fd5b505050506040513d601f19601f82011682018060405250810190612c2b919061446a565b90508060800151878381518110612c4457612c44614398565b73ffffffffffffffffffffffffffffffffffffffff928316602091820292909201015283166366f8162e8b8d8c8c87818110612c8257612c82614398565b6040517fffffffff0000000000000000000000000000000000000000000000000000000060e088901b16815273ffffffffffffffffffffffffffffffffffffffff958616600482015294909316602485015250602090910201356044820152606401602060405180830381865afa158015612d01573d6000803e3d6000fd5b505050506040513d601f19601f82011682018060405250810190612d2591906142b8565b868381518110612d3757612d37614398565b60209081029190910101525080612d4d81614432565b915050612b57565b5050505094509492505050565b600080828073ffffffffffffffffffffffffffffffffffffffff166311da60b46040518163ffffffff1660e01b8152600401600060405180830381600087803b158015612dae57600080fd5b505af1158015612dc2573d6000803e3d6000fd5b5050505060007f000000000000000000000000000000000000000000000000000000000000000073ffffffffffffffffffffffffffffffffffffffff166361d027b36040518163ffffffff1660e01b8152600401602060405180830381865afa158015612e33573d6000803e3d6000fd5b505050506040513d601f19601f82011682018060405250810190612e57919061429b565b6040517f2d809cb600000000000000000000000000000000000000000000000000000000815273ffffffffffffffffffffffffffffffffffffffff87811660048301529192506000917f00000000000000000000000000000000000000000000000000000000000000001690632d809cb690602401602060405180830381865afa158015612ee9573d6000803e3d6000fd5b505050506040513d601f19601f82011682018060405250810190612f0d919061429b565b9050612f17612687565b6040517ffaaebd2100000000000000000000000000000000000000000000000000000000815273ffffffffffffffffffffffffffffffffffffffff8481166004830152919091169063faaebd2190602401602060405180830381865afa158015612f85573d6000803e3d6000fd5b505050506040513d601f19601f82011682018060405250810190612fa991906142b8565b9450612fb3612687565b6040517ffaaebd2100000000000000000000000000000000000000000000000000000000815273ffffffffffffffffffffffffffffffffffffffff8381166004830152919091169063faaebd2190602401602060405180830381865afa158015613021573d6000803e3d6000fd5b505050506040513d601f19601f8201168201806040525081019061304591906142b8565b9350505050915091565b60408051808201909152600080825260208201528173ffffffffffffffffffffffffffffffffffffffff16639a427d038373ffffffffffffffffffffffffffffffffffffffff1663c07f47d46040518163ffffffff1660e01b8152600401602060405180830381865afa1580156130ca573d6000803e3d6000fd5b505050506040513d601f19601f820116820180604052508101906130ee91906142b8565b6040518263ffffffff1660e01b815260040161310c91815260200190565b6040805180830381865afa158015613128573d6000803e3d6000fd5b505050506040513d601f19601f8201168201806040525081019061061e919061437c565b600081613161670de0b6b3a764000085614508565b610d1b9190614574565b6000670de0b6b3a76400006131618385614508565b6000610d1b8383613329565b600061061e670de0b6b3a764000083614588565b6000670de0b6b3a76400006131b58385614588565b610d1b9190614644565b6131e360405180606001604052806000815260200160008152602001600081525090565b8173ffffffffffffffffffffffffffffffffffffffff16637ece075d8373ffffffffffffffffffffffffffffffffffffffff1663c07f47d46040518163ffffffff1660e01b8152600401602060405180830381865afa15801561324a573d6000803e3d6000fd5b505050506040513d601f19601f8201168201806040525081019061326e91906142b8565b6040518263ffffffff1660e01b815260040161328c91815260200190565b606060405180830381865afa1580156132a9573d6000803e3d6000fd5b505050506040513d601f19601f8201168201806040525081019061061e91906143c7565b600061061e82613340565b60408051808201909152600080825260208201526040805180820190915283518190613304908561316b565b815260200161332084866020015161316b90919063ffffffff16565b90529392505050565b6000818310156133395781610d1b565b5090919050565b600080821215613353578160000361061e565b5090565b604051806060016040528060008152602001613386604051806040016040528060008152602001600081525090565b81526020016133a8604051806040016040528060008152602001600081525090565b905290565b60405180610140016040528060608152602001606081526020016133ec6040805160608101909152806000815260200160008152600060209091015290565b8152602001600073ffffffffffffffffffffffffffffffffffffffff16815260200160008152602001600081526020016000815260200160008152602001600081526020016133a860405180608001604052806000600f0b81526020016000600f0b81526020016000600f0b815260200160006fffffffffffffffffffffffffffffffff1681525090565b604051806101600160405280600073ffffffffffffffffffffffffffffffffffffffff168152602001600073ffffffffffffffffffffffffffffffffffffffff16815260200160008152602001600081526020016134d3613357565b81526020016134f5604051806040016040528060008152602001600081525090565b8152602001600015158152602001600015158152602001613529604051806040016040528060008152602001600081525090565b815260200160008152602001600081525090565b604051806101a001604052806135516133ad565b8152602001600073ffffffffffffffffffffffffffffffffffffffff16815260200160008152602001600081526020016135a560405180606001604052806000815260200160008152602001600081525090565b81526020016000815260200160008152602001600081526020016135c7613357565b81526020016135e9604051806040016040528060008152602001600081525090565b815260200160008152602001600081526020016133a8604051806040016040528060008152602001600081525090565b73ffffffffffffffffffffffffffffffffffffffff8116811461363b57600080fd5b50565b60006020828403121561365057600080fd5b8135610d1b81613619565b60005b8381101561367657818101518382015260200161365e565b83811115613685576000848401525b50505050565b600081518084526136a381602086016020860161365b565b601f017fffffffffffffffffffffffffffffffffffffffffffffffffffffffffffffffe0169290920160200192915050565b602081526000610d1b602083018461368b565b82518152602080840151805182840152810151604080840191909152840151805160608401520151608082015260e08101825160a0830152602083015160c0830152610d1b565b6002811061363b577f4e487b7100000000000000000000000000000000000000000000000000000000600052602160045260246000fd5b80516137718161372f565b825260208101516137818161372f565b60208301526040908101517fffffffffffffffffffffffffffffffffffffffffffffffffffffffffffff000016910152565b60006101e082518185526137c98286018261368b565b915050602083015184820360208601526137e3828261368b565b91505060408301516137f86040860182613766565b50606083015173ffffffffffffffffffffffffffffffffffffffff811660a086015250608083015160c085015260a083015160e085015260c0830151610100818187015260e0850151915061012082818801528186015161014088015280860151925050506138a76101608601828051600f0b82526020810151600f0b60208301526040810151600f0b60408301526fffffffffffffffffffffffffffffffff60608201511660608301525050565b509392505050565b602081526000610d1b60208301846137b3565b81518152602080830151805182840152810151604080840191909152830151805160608401520151608082015260a0810161061e565b6000806040838503121561390b57600080fd5b823561391681613619565b9150602083013561392681613619565b809150509250929050565b805173ffffffffffffffffffffffffffffffffffffffff1682526020810151613972602084018273ffffffffffffffffffffffffffffffffffffffff169052565b50604081015160408301526060810151606083015260808101516139c560808401828051825260208082015180518285015290810151604084015250604001518051606083015260200151608090910152565b5060a08101516101206139e48185018380518252602090810151910152565b60c0830151151561016085015260e0830151151561018085015261010083015180516101a0860152602001516101c08501528201516101e084015250610140015161020090910152565b610220810161061e8284613931565b60006102a08251818552613a53828601826137b3565b9150506020830151613a7d602086018273ffffffffffffffffffffffffffffffffffffffff169052565b5060408301516040850152606083015160608501526080830151613ab860808601828051825260208082015190830152604090810151910152565b5060a083015160e085015260c0830151610100818187015260e0850151915061012082818801528186015192506101409150613b22828801848051825260208082015180518285015290810151604084015250604001518051606083015260200151608090910152565b85015180516101e08801526020810151610200880152915084015161022086015250610160830151610240850152610180830151805161026086015260208101516102808601526138a7565b602081526000610d1b6020830184613a3d565b7f4e487b7100000000000000000000000000000000000000000000000000000000600052604160045260246000fd5b6040516060810167ffffffffffffffff81118282101715613bd357613bd3613b81565b60405290565b604051601f82017fffffffffffffffffffffffffffffffffffffffffffffffffffffffffffffffe016810167ffffffffffffffff81118282101715613c2057613c20613b81565b604052919050565b600067ffffffffffffffff821115613c4257613c42613b81565b5060051b60200190565b60008060408385031215613c5f57600080fd5b8235613c6a81613619565b915060208381013567ffffffffffffffff811115613c8757600080fd5b8401601f81018613613c9857600080fd5b8035613cab613ca682613c28565b613bd9565b81815260059190911b82018301908381019088831115613cca57600080fd5b928401925b82841015613ce857833582529284019290840190613ccf565b80955050505050509250929050565b6020808252825182820181905260009190848201906040850190845b81811015613d4d57613d3a8385518051825260208082015190830152604090810151910152565b9284019260609290920191600101613d13565b50909695505050505050565b604080825283519082018190526000906020906060840190828701845b82811015613da857815173ffffffffffffffffffffffffffffffffffffffff1684529284019290840190600101613d76565b5050508381038285015284518082528583019183019060005b81811015613ddd57835183529284019291840191600101613dc1565b5090979650505050505050565b600080600060608486031215613dff57600080fd5b8335613e0a81613619565b92506020840135613e1a81613619565b929592945050506040919091013590565b8151815260208083015190820152604080830151908201526060810161061e565b60008060408385031215613e5f57600080fd5b8235613e6a81613619565b915060208381013567ffffffffffffffff811115613e8757600080fd5b8401601f81018613613e9857600080fd5b8035613ea6613ca682613c28565b81815260059190911b82018301908381019088831115613ec557600080fd5b928401925b82841015613ce8578335613edd81613619565b82529284019290840190613eca565b6020808252825182820181905260009190848201906040850190845b81811015613d4d57613f1b838551613931565b928401926102209290920191600101613f08565b60008083601f840112613f4157600080fd5b50813567ffffffffffffffff811115613f5957600080fd5b6020830191508360208260051b8501011115613f7457600080fd5b9250929050565b60008060208385031215613f8e57600080fd5b823567ffffffffffffffff811115613fa557600080fd5b613fb185828601613f2f565b90969095509350505050565b6000602080830181845280855180835260408601915060408160051b870101925083870160005b82811015614030577fffffffffffffffffffffffffffffffffffffffffffffffffffffffffffffffc088860301845261401e858351613a3d565b94509285019290850190600101613fe4565b5092979650505050505050565b81518152602080830151908201526040810161061e565b6000806000806060858703121561406a57600080fd5b843561407581613619565b9350602085013561408581613619565b9250604085013567ffffffffffffffff8111156140a157600080fd5b6140ad87828801613f2f565b95989497509550505050565b6000602082840312156140cb57600080fd5b815167ffffffffffffffff808211156140e357600080fd5b818401915084601f8301126140f757600080fd5b81518181111561410957614109613b81565b61413a60207fffffffffffffffffffffffffffffffffffffffffffffffffffffffffffffffe0601f84011601613bd9565b915080825285602082850101111561415157600080fd5b61416281602084016020860161365b565b50949350505050565b60006040828403121561417d57600080fd5b6040516040810181811067ffffffffffffffff821117156141a0576141a0613b81565b604052825181526020928301519281019290925250919050565b600060a082840312156141cc57600080fd5b6040516060810181811067ffffffffffffffff821117156141ef576141ef613b81565b60405282518152614203846020850161416b565b6020820152614215846060850161416b565b60408201529392505050565b6002811061363b57600080fd5b60006060828403121561424057600080fd5b614248613bb0565b825161425381614221565b8152602083015161426381614221565b602082015260408301517fffffffffffffffffffffffffffffffffffffffffffffffffffffffffffff00008116811461421557600080fd5b6000602082840312156142ad57600080fd5b8151610d1b81613619565b6000602082840312156142ca57600080fd5b5051919050565b8051600f81900b81146142e357600080fd5b919050565b6000608082840312156142fa57600080fd5b6040516080810181811067ffffffffffffffff8211171561431d5761431d613b81565b604052614329836142d1565b8152614337602084016142d1565b6020820152614348604084016142d1565b604082015260608301516fffffffffffffffffffffffffffffffff8116811461437057600080fd5b60608201529392505050565b60006040828403121561438e57600080fd5b610d1b838361416b565b7f4e487b7100000000000000000000000000000000000000000000000000000000600052603260045260246000fd5b6000606082840312156143d957600080fd5b6143e1613bb0565b8251815260208301516020820152604083015160408201528091505092915050565b7f4e487b7100000000000000000000000000000000000000000000000000000000600052601160045260246000fd5b60007fffffffffffffffffffffffffffffffffffffffffffffffffffffffffffffffff820361446357614463614403565b5060010190565b600060c0828403121561447c57600080fd5b60405160a0810181811067ffffffffffffffff8211171561449f5761449f613b81565b604052825181526144b3846020850161416b565b6020820152606083015160408201526080830151606082015260a08301516144da81613619565b60808201529392505050565b6000602082840312156144f857600080fd5b81518015158114610d1b57600080fd5b6000817fffffffffffffffffffffffffffffffffffffffffffffffffffffffffffffffff048311821515161561454057614540614403565b500290565b7f4e487b7100000000000000000000000000000000000000000000000000000000600052601260045260246000fd5b60008261458357614583614545565b500490565b60007f7fffffffffffffffffffffffffffffffffffffffffffffffffffffffffffffff6000841360008413858304851182821616156145c9576145c9614403565b7f8000000000000000000000000000000000000000000000000000000000000000600087128682058812818416161561460457614604614403565b6000871292508782058712848416161561462057614620614403565b8785058712818416161561463657614636614403565b505050929093029392505050565b60008261465357614653614545565b7fffffffffffffffffffffffffffffffffffffffffffffffffffffffffffffffff83147f8000000000000000000000000000000000000000000000000000000000000000831416156146a7576146a7614403565b50059056fea26469706673582212206db77c0d984546687817814f74442aaf51c5a60c503137ad38573cdbc56fa1f664736f6c634300080f0033",
  "devdoc": {
    "kind": "dev",
    "methods": {
      "atVersions(address,uint256[])": {
        "params": {
          "product": "Product address",
          "versions": "Oracle versions to query"
        },
        "returns": {
          "prices": "Product prices at specified versions"
        }
      },
      "collateral()": {
        "returns": {
          "_0": "Protocol collateral address"
        }
      },
      "collateral(address)": {
        "params": {
          "product": "Product address"
        },
        "returns": {
          "_0": "Total collateral for product"
        }
      },
      "collateral(address,address)": {
        "params": {
          "account": "Account address",
          "product": "Product address"
        },
        "returns": {
          "_0": "User deposited collateral for product"
        }
      },
      "constructor": {
        "params": {
          "_controller": "Protocol controller address"
        }
      },
      "dailyRate(address)": {
        "params": {
          "product": "Product address"
        },
        "returns": {
          "_0": "Product current funding extrapolated to a daily rate"
        }
      },
      "exposure(address,address)": {
        "params": {
          "account": "Account address",
          "product": "Product address"
        },
        "returns": {
          "_0": "User's exposure (openInterest * utilization) after settle"
        }
      },
      "fees(address)": {
        "params": {
          "product": "Product address"
        },
        "returns": {
          "productFees": "fees accrued by the product owner",
          "protocolFees": "fees accrued by the protocol"
        }
      },
      "fees(address,address)": {
        "params": {
          "account": "Account address",
          "product": "Product address"
        },
        "returns": {
          "_0": "sum of all fees accrued by the account"
        }
      },
      "globalPosition(address)": {
        "params": {
          "product": "Product address"
        },
        "returns": {
          "_0": "Product pre-position",
          "_1": "Product position"
        }
      },
      "info(address)": {
        "params": {
          "product": "Product address"
        },
        "returns": {
          "_info": "of the product"
        }
      },
      "latestVersion(address)": {
        "params": {
          "product": "Product address"
        },
        "returns": {
          "_0": "Product latest price"
        }
      },
      "liquidatable(address,address)": {
        "params": {
          "account": "Account address",
          "product": "Product address"
        },
        "returns": {
          "_0": "Whether or not the user's position eligible to be liquidated"
        }
      },
      "liquidating(address,address)": {
        "params": {
          "account": "Account address",
          "product": "Product address"
        },
        "returns": {
          "_0": "Whether or not the user's position is being liquidated"
        }
      },
      "maintenance(address,address)": {
        "params": {
          "account": "Account address",
          "product": "Product address"
        },
        "returns": {
          "_0": "Maximum of user maintenance, and maintenanceNext"
        }
      },
      "maintenanceRequired(address,address,uint256)": {
        "params": {
          "account": "Account address",
          "positionSize": "size of position for maintenance calculation",
          "product": "Product address"
        },
        "returns": {
          "_0": "Maintenance required for position in product"
        }
      },
      "name(address)": {
        "params": {
          "product": "Product address"
        },
        "returns": {
          "_0": "Name of the product"
        }
      },
      "openInterest(address)": {
        "params": {
          "product": "Product address"
        },
        "returns": {
          "_0": "Product maker and taker position multiplied by latest price after settle"
        }
      },
      "openInterest(address,address)": {
        "params": {
          "account": "Account address",
          "product": "Product address"
        },
        "returns": {
          "_0": "User's maker or taker position multiplied by latest price after settle"
        }
      },
      "position(address)": {
        "params": {
          "product": "Product address"
        },
        "returns": {
          "_0": "product position"
        }
      },
      "position(address,address)": {
        "params": {
          "account": "Account address",
          "product": "Product address"
        },
        "returns": {
          "_0": "User position"
        }
      },
      "pre(address)": {
        "params": {
          "product": "Product address"
        },
        "returns": {
          "_0": "Product pre-position"
        }
      },
      "pre(address,address)": {
        "params": {
          "account": "Account address",
          "product": "Product address"
        },
        "returns": {
          "_0": "User pre-position"
        }
      },
      "rate(address)": {
        "params": {
          "product": "Product address"
        },
        "returns": {
          "_0": "Product current funding rate"
        }
      },
      "shortfall(address)": {
        "params": {
          "product": "Product address"
        },
        "returns": {
          "_0": "Total shortfall for product"
        }
      },
      "snapshot(address)": {
        "params": {
          "product": "Product address"
        },
        "returns": {
          "_snapshot": "for the product after settle"
        }
      },
      "snapshot(address,address)": {
        "params": {
          "account": "User addresses",
          "product": "Product address"
        },
        "returns": {
          "_snapshot": "UserSnapshot for the product after settle"
        }
      },
      "snapshots(address,address[])": {
        "params": {
          "account": "User addresses",
          "productAddresses": "Product addresses"
        },
        "returns": {
          "_snapshots": "UserSnapshot for each product after settle"
        }
      },
      "snapshots(address[])": {
        "params": {
          "productAddresses": "Product addresses"
        },
        "returns": {
          "_snapshots": "a snapshot for each product after settle"
        }
      },
      "symbol(address)": {
        "params": {
          "product": "Product address"
        },
        "returns": {
          "_0": "Symbol of the product"
        }
      },
      "unclaimedIncentiveRewards(address,address)": {
        "params": {
          "account": "Account address",
          "product": "Product address"
        },
        "returns": {
          "amounts": "Token amounts of unclaimed incentive rewards for given product",
          "tokens": "Token addresses of unclaimed incentive rewards for given product"
        }
      },
      "unclaimedIncentiveRewards(address,address,uint256[])": {
        "params": {
          "account": "Account address",
          "product": "Product address",
          "programIds": "Program IDs to query"
        },
        "returns": {
          "amounts": "Token amounts of unclaimed incentive rewards for given program IDs",
          "tokens": "Token addresses of unclaimed incentive rewards for given program IDs"
        }
      },
      "userPosition(address,address)": {
        "params": {
          "account": "Account address",
          "product": "Product address"
        },
        "returns": {
          "_0": "User pre-position",
          "_1": "User position"
        }
      }
    },
    "stateVariables": {
      "controller": {
        "return": "Protocol controller",
        "returns": {
          "_0": "Protocol controller"
        }
      }
    },
    "title": "Lens contract to conveniently pull protocol data",
    "version": 1
  },
  "userdoc": {
    "kind": "user",
    "methods": {
      "atVersions(address,uint256[])": {
        "notice": "Prices of product at specified versions after settle"
      },
      "collateral()": {
        "notice": "Protocol collateral address"
      },
      "collateral(address)": {
        "notice": "Product total collateral amount after settle"
      },
      "collateral(address,address)": {
        "notice": "User collateral amount for product after settle"
      },
      "controller()": {
        "notice": "Protocol controller"
      },
      "dailyRate(address)": {
        "notice": "Product funding extrapolated to a daily rate after settle"
      },
      "exposure(address,address)": {
        "notice": "User's exposure in product after settle"
      },
      "fees(address)": {
        "notice": "Fees accumulated by product and protocol treasuries after settle"
      },
      "fees(address,address)": {
        "notice": "Fees accumulated by account after settle"
      },
      "globalPosition(address)": {
        "notice": "Product pre-position and position after settle"
      },
      "info(address)": {
        "notice": "Returns the info of the provided `product`"
      },
      "latestVersion(address)": {
        "notice": "Current price of product after settle"
      },
      "liquidatable(address,address)": {
        "notice": "User liquidatble status for product after settle"
      },
      "liquidating(address,address)": {
        "notice": "User liquidating status for product after settle"
      },
      "maintenance(address,address)": {
        "notice": "User maintenance amount for product after settle"
      },
      "maintenanceRequired(address,address,uint256)": {
        "notice": "User's maintenance required for position size in product after settle"
      },
      "name(address)": {
        "notice": "Returns the name of the provided `product`"
      },
      "openInterest(address)": {
        "notice": "Product total open interest after settle"
      },
      "openInterest(address,address)": {
        "notice": "User's open interest in product after settle"
      },
      "position(address)": {
        "notice": "Product position after settle"
      },
      "position(address,address)": {
        "notice": "User position for product after settle"
      },
      "pre(address)": {
        "notice": "Product pre position after settle"
      },
      "pre(address,address)": {
        "notice": "User pre position for product after settle"
      },
      "rate(address)": {
        "notice": "Product funding rate after settle"
      },
      "shortfall(address)": {
        "notice": "Product total shortfall amount after settle"
      },
      "snapshot(address)": {
        "notice": "Returns the snapshot of the provided `product`"
      },
      "snapshot(address,address)": {
        "notice": "Returns the user snapshot for the provided `product`"
      },
      "snapshots(address,address[])": {
        "notice": "Returns the user snapshots for the provided `productAddresses`"
      },
      "snapshots(address[])": {
        "notice": "Returns the snapshots of the provided `productAddresses`"
      },
      "symbol(address)": {
        "notice": "Returns the symbol of the provided `product`"
      },
      "unclaimedIncentiveRewards(address,address)": {
        "notice": "User's unclaimed rewards for all programs for product after settle"
      },
      "unclaimedIncentiveRewards(address,address,uint256[])": {
        "notice": "User's unclaimed rewards for provided programs for product after settle"
      },
      "userPosition(address,address)": {
        "notice": "User pre-position and position for product after settle"
      }
    },
    "notice": "All functions should be called using `callStatic`",
    "version": 1
  },
  "storageLayout": {
    "storage": [],
    "types": null
  }
}