{
  "address": "0x5d3A779CEa67947927bF78c61473778c46A97236",
  "abi": [
    {
      "inputs": [],
      "name": "NotCrossChainCall",
      "type": "error"
    },
    {
      "inputs": [
        {
          "internalType": "uint256",
          "name": "version",
          "type": "uint256"
        }
      ],
      "name": "UInitializableAlreadyInitializedError",
      "type": "error"
    },
    {
      "inputs": [],
      "name": "UInitializableNotInitializingError",
      "type": "error"
    },
    {
      "inputs": [],
      "name": "UInitializableZeroVersionError",
      "type": "error"
    },
    {
      "inputs": [
        {
          "internalType": "address",
          "name": "sender",
          "type": "address"
        }
      ],
      "name": "UOwnableNotOwnerError",
      "type": "error"
    },
    {
      "inputs": [
        {
          "internalType": "address",
          "name": "sender",
          "type": "address"
        }
      ],
      "name": "UOwnableNotPendingOwnerError",
      "type": "error"
    },
    {
      "anonymous": false,
      "inputs": [
        {
          "indexed": false,
          "internalType": "uint256",
          "name": "version",
          "type": "uint256"
        }
      ],
      "name": "Initialized",
      "type": "event"
    },
    {
      "anonymous": false,
      "inputs": [
        {
          "indexed": true,
          "internalType": "address",
          "name": "newOwner",
          "type": "address"
        }
      ],
      "name": "OwnerUpdated",
      "type": "event"
    },
    {
      "anonymous": false,
      "inputs": [
        {
          "indexed": true,
          "internalType": "address",
          "name": "newPendingOwner",
          "type": "address"
        }
      ],
      "name": "PendingOwnerUpdated",
      "type": "event"
    },
    {
      "inputs": [],
      "name": "L2_CROSS_DOMAIN_MESSENGER_ADDRESS",
      "outputs": [
        {
          "internalType": "address",
          "name": "",
          "type": "address"
        }
      ],
      "stateMutability": "view",
      "type": "function"
    },
    {
      "inputs": [],
      "name": "acceptOwner",
      "outputs": [],
      "stateMutability": "nonpayable",
      "type": "function"
    },
    {
      "inputs": [],
      "name": "crossChainRestricted",
      "outputs": [
        {
          "internalType": "bool",
          "name": "",
          "type": "bool"
        }
      ],
      "stateMutability": "view",
      "type": "function"
    },
    {
      "inputs": [
        {
          "internalType": "address payable",
          "name": "to",
          "type": "address"
        },
        {
          "internalType": "bytes",
          "name": "data",
          "type": "bytes"
        },
        {
          "internalType": "uint256",
          "name": "value",
          "type": "uint256"
        }
      ],
      "name": "execute",
      "outputs": [
        {
          "internalType": "bytes",
          "name": "ret",
          "type": "bytes"
        }
      ],
      "stateMutability": "payable",
      "type": "function"
    },
    {
      "inputs": [],
      "name": "initialize",
      "outputs": [],
      "stateMutability": "nonpayable",
      "type": "function"
    },
    {
      "inputs": [],
      "name": "owner",
      "outputs": [
        {
          "internalType": "address",
          "name": "",
          "type": "address"
        }
      ],
      "stateMutability": "view",
      "type": "function"
    },
    {
      "inputs": [],
      "name": "pendingOwner",
      "outputs": [
        {
          "internalType": "address",
          "name": "",
          "type": "address"
        }
      ],
      "stateMutability": "view",
      "type": "function"
    },
    {
      "inputs": [
        {
          "internalType": "address",
          "name": "newPendingOwner",
          "type": "address"
        }
      ],
      "name": "updatePendingOwner",
      "outputs": [],
      "stateMutability": "nonpayable",
      "type": "function"
    }
  ],
  "transactionHash": "0xf0f1543350fb97406305e7df954643540c0996450b690025784accc6d05dca29",
  "args": [],
  "numDeployments": 1,
  "solcInputHash": "0954eb4c5a9afab2c0aa2d884eb92458",
  "bytecode": "0x60a060405234801561001057600080fd5b50734200000000000000000000000000000000000007608052608051610dd161004b60003960008181610820015261087d0152610dd16000f3fe60806040526004361061007b5760003560e01c8063a04a09081161004e578063a04a090814610123578063b5ee695514610143578063e30c397814610163578063ebbc49651461017857600080fd5b806344b7f5e7146100805780634b074af5146100d25780638129fc1c146100f75780638da5cb5b1461010e575b600080fd5b34801561008c57600080fd5b506100a873420000000000000000000000000000000000000781565b60405173ffffffffffffffffffffffffffffffffffffffff90911681526020015b60405180910390f35b3480156100de57600080fd5b506100e761018d565b60405190151581526020016100c9565b34801561010357600080fd5b5061010c6101bc565b005b34801561011a57600080fd5b506100a86102d5565b610136610131366004610ba4565b6102ff565b6040516100c99190610d09565b34801561014f57600080fd5b5061010c61015e366004610d1c565b6103c2565b34801561016f57600080fd5b506100a8610478565b34801561018457600080fd5b5061010c6104a2565b60006101b77f29d60f5c1c5c53637cb61abb536b08f77bb52405058e33d090ec68f2ec8b63695490565b905090565b6001806101e77f5db5abc19987c2b3729df7961b62b6bb0bae886dd47e3ce25bb3a3af34c6d80b5490565b10610226576040517f1e7a9d95000000000000000000000000000000000000000000000000000000008152600481018290526024015b60405180910390fd5b61024f7f5db5abc19987c2b3729df7961b62b6bb0bae886dd47e3ce25bb3a3af34c6d80b829055565b60017fad57d7911b7e3d6c3c79a68ba909a7f4ba41f9485e5207b12dee0d0c6af5398c5561027b61055a565b60007fad57d7911b7e3d6c3c79a68ba909a7f4ba41f9485e5207b12dee0d0c6af5398c556040518181527fbe9b076dc5b65990cca9dd9d7366682482e7817a6f6bc7f4faf4dc32af497f329060200160405180910390a150565b60006101b77fd520c4fc3bfc097da8746a8578e9e0417f5acfdd84a1de38ed670148cc1a349d5490565b60606103096105c7565b73ffffffffffffffffffffffffffffffffffffffff166103276102d5565b73ffffffffffffffffffffffffffffffffffffffff16146103955761034a6105c7565b6040517f9950d22a00000000000000000000000000000000000000000000000000000000815273ffffffffffffffffffffffffffffffffffffffff909116600482015260240161021d565b82516000036103ad576103a884836105e3565b6103bb565b6103b8848484610742565b90505b9392505050565b6103ca6105c7565b73ffffffffffffffffffffffffffffffffffffffff166103e86102d5565b73ffffffffffffffffffffffffffffffffffffffff161461040b5761034a6105c7565b6104347faabf80d370e1f8b862122cc5c4b30b4a8eb2d6b5dda0d437726c353765e1ed32829055565b60405173ffffffffffffffffffffffffffffffffffffffff8216907f69f201bc2089b9be6195d876d97a0136b4cf56bbf8986a52dcb50697f7d1cac590600090a250565b60006101b77faabf80d370e1f8b862122cc5c4b30b4a8eb2d6b5dda0d437726c353765e1ed325490565b6104aa610768565b6104b2610478565b73ffffffffffffffffffffffffffffffffffffffff166104d06105c7565b73ffffffffffffffffffffffffffffffffffffffff161461053e576104f36105c7565b6040517f14f8fce700000000000000000000000000000000000000000000000000000000815273ffffffffffffffffffffffffffffffffffffffff909116600482015260240161021d565b61054e610549610478565b61079a565b61055860006103c2565b565b303b1515801561058957507fad57d7911b7e3d6c3c79a68ba909a7f4ba41f9485e5207b12dee0d0c6af5398c54155b156105c0576040517f689f12a400000000000000000000000000000000000000000000000000000000815260040160405180910390fd5b6105586105495b60006105d161018d565b156105de576101b7610807565b503390565b8047101561064d576040517f08c379a000000000000000000000000000000000000000000000000000000000815260206004820152601d60248201527f416464726573733a20696e73756666696369656e742062616c616e6365000000604482015260640161021d565b60008273ffffffffffffffffffffffffffffffffffffffff168260405160006040518083038185875af1925050503d80600081146106a7576040519150601f19603f3d011682016040523d82523d6000602084013e6106ac565b606091505b505090508061073d576040517f08c379a000000000000000000000000000000000000000000000000000000000815260206004820152603a60248201527f416464726573733a20756e61626c6520746f2073656e642076616c75652c207260448201527f6563697069656e74206d61792068617665207265766572746564000000000000606482015260840161021d565b505050565b60606103b8848484604051806060016040528060298152602001610d73602991396108a1565b61077061018d565b6105585760017f29d60f5c1c5c53637cb61abb536b08f77bb52405058e33d090ec68f2ec8b636955565b6107c37fd520c4fc3bfc097da8746a8578e9e0417f5acfdd84a1de38ed670148cc1a349d829055565b60405173ffffffffffffffffffffffffffffffffffffffff8216907f4ffd725fc4a22075e9ec71c59edf9c38cdeb588a91b24fc5b61388c5be41282b90600090a250565b600073ffffffffffffffffffffffffffffffffffffffff7f0000000000000000000000000000000000000000000000000000000000000000163314610878576040517f4a74df9200000000000000000000000000000000000000000000000000000000815260040160405180910390fd5b6101b77f0000000000000000000000000000000000000000000000000000000000000000610a37565b606082471015610933576040517f08c379a000000000000000000000000000000000000000000000000000000000815260206004820152602660248201527f416464726573733a20696e73756666696369656e742062616c616e636520666f60448201527f722063616c6c0000000000000000000000000000000000000000000000000000606482015260840161021d565b73ffffffffffffffffffffffffffffffffffffffff85163b6109b1576040517f08c379a000000000000000000000000000000000000000000000000000000000815260206004820152601d60248201527f416464726573733a2063616c6c20746f206e6f6e2d636f6e7472616374000000604482015260640161021d565b6000808673ffffffffffffffffffffffffffffffffffffffff1685876040516109da9190610d39565b60006040518083038185875af1925050503d8060008114610a17576040519150601f19603f3d011682016040523d82523d6000602084013e610a1c565b606091505b5091509150610a2c828286610afd565b979650505050505050565b600073ffffffffffffffffffffffffffffffffffffffff82163314610a88576040517f4a74df9200000000000000000000000000000000000000000000000000000000815260040160405180910390fd5b8173ffffffffffffffffffffffffffffffffffffffff16636e296e456040518163ffffffff1660e01b8152600401602060405180830381865afa158015610ad3573d6000803e3d6000fd5b505050506040513d601f19601f82011682018060405250810190610af79190610d55565b92915050565b60608315610b0c5750816103bb565b825115610b1c5782518084602001fd5b816040517f08c379a000000000000000000000000000000000000000000000000000000000815260040161021d9190610d09565b73ffffffffffffffffffffffffffffffffffffffff81168114610b7257600080fd5b50565b7f4e487b7100000000000000000000000000000000000000000000000000000000600052604160045260246000fd5b600080600060608486031215610bb957600080fd5b8335610bc481610b50565b9250602084013567ffffffffffffffff80821115610be157600080fd5b818601915086601f830112610bf557600080fd5b813581811115610c0757610c07610b75565b604051601f82017fffffffffffffffffffffffffffffffffffffffffffffffffffffffffffffffe0908116603f01168101908382118183101715610c4d57610c4d610b75565b81604052828152896020848701011115610c6657600080fd5b826020860160208301376000602084830101528096505050505050604084013590509250925092565b60005b83811015610caa578181015183820152602001610c92565b83811115610cb9576000848401525b50505050565b60008151808452610cd7816020860160208601610c8f565b601f017fffffffffffffffffffffffffffffffffffffffffffffffffffffffffffffffe0169290920160200192915050565b6020815260006103bb6020830184610cbf565b600060208284031215610d2e57600080fd5b81356103bb81610b50565b60008251610d4b818460208701610c8f565b9190910192915050565b600060208284031215610d6757600080fd5b81516103bb81610b5056fe416464726573733a206c6f772d6c6576656c2063616c6c20776974682076616c7565206661696c6564a2646970667358221220d56d78038f727406c920d28fb7ed6c0638db6376f391b970a9a870af2897910864736f6c634300080f0033",
  "devdoc": {
    "details": "This contract is designed to act as an owner of any Ownable contract, allowing      Cross Chain Ownership without modification to the underlying ownable contract. This contract      is specific to the Optimism L2-side and should not be used on other chains.      See {UCrossChainOwner} for initialization and usage.",
    "kind": "dev",
    "methods": {
      "acceptOwner()": {
        "details": "Can only be called by the pending owner to ensure correctness. Calls to the `_beforeAcceptOwner` hook      to perform logic before updating ownership."
      },
      "updatePendingOwner(address)": {
        "details": "Can only be called by the current owner      New owner does not take affect until that address calls `acceptOwner()`",
        "params": {
          "newPendingOwner": "New pending owner address"
        }
      }
    },
    "title": "UCrossChainOwner_Arbitrum",
    "version": 1
  },
  "userdoc": {
    "kind": "user",
    "methods": {
      "acceptOwner()": {
        "notice": "Accepts and transfers the ownership of the contract to the pending owner"
      },
      "updatePendingOwner(address)": {
        "notice": "Updates the new pending owner"
      }
    },
    "notice": "Contract to act as an owner of other contracts",
    "version": 1
  },
  "storageLayout": {
    "storage": [],
    "types": null
  }
}