{
  "address": "0x2C19eac953048801FfE1358D109A1Ac2aF7930fD",
  "abi": [
    {
      "inputs": [
        {
          "internalType": "ChainlinkRegistry",
          "name": "registry_",
          "type": "address"
        },
        {
          "internalType": "address",
          "name": "base_",
          "type": "address"
        },
        {
          "internalType": "address",
          "name": "quote_",
          "type": "address"
        }
      ],
      "stateMutability": "nonpayable",
      "type": "constructor"
    },
    {
      "inputs": [],
      "name": "InvalidOracleRound",
      "type": "error"
    },
    {
      "inputs": [
        {
          "internalType": "uint256",
          "name": "version",
          "type": "uint256"
        }
      ],
      "name": "atVersion",
      "outputs": [
        {
          "components": [
            {
              "internalType": "uint256",
              "name": "version",
              "type": "uint256"
            },
            {
              "internalType": "uint256",
              "name": "timestamp",
              "type": "uint256"
            },
            {
              "internalType": "Fixed18",
              "name": "price",
              "type": "int256"
            }
          ],
          "internalType": "struct IOracleProvider.OracleVersion",
          "name": "oracleVersion",
          "type": "tuple"
        }
      ],
      "stateMutability": "view",
      "type": "function"
    },
    {
      "inputs": [],
      "name": "base",
      "outputs": [
        {
          "internalType": "address",
          "name": "",
          "type": "address"
        }
      ],
      "stateMutability": "view",
      "type": "function"
    },
    {
      "inputs": [],
      "name": "currentVersion",
      "outputs": [
        {
          "components": [
            {
              "internalType": "uint256",
              "name": "version",
              "type": "uint256"
            },
            {
              "internalType": "uint256",
              "name": "timestamp",
              "type": "uint256"
            },
            {
              "internalType": "Fixed18",
              "name": "price",
              "type": "int256"
            }
          ],
          "internalType": "struct IOracleProvider.OracleVersion",
          "name": "oracleVersion",
          "type": "tuple"
        }
      ],
      "stateMutability": "view",
      "type": "function"
    },
    {
      "inputs": [],
      "name": "quote",
      "outputs": [
        {
          "internalType": "address",
          "name": "",
          "type": "address"
        }
      ],
      "stateMutability": "view",
      "type": "function"
    },
    {
      "inputs": [],
      "name": "registry",
      "outputs": [
        {
          "internalType": "ChainlinkRegistry",
          "name": "",
          "type": "address"
        }
      ],
      "stateMutability": "view",
      "type": "function"
    },
    {
      "inputs": [],
      "name": "sync",
      "outputs": [
        {
          "components": [
            {
              "internalType": "uint256",
              "name": "version",
              "type": "uint256"
            },
            {
              "internalType": "uint256",
              "name": "timestamp",
              "type": "uint256"
            },
            {
              "internalType": "Fixed18",
              "name": "price",
              "type": "int256"
            }
          ],
          "internalType": "struct IOracleProvider.OracleVersion",
          "name": "",
          "type": "tuple"
        }
      ],
      "stateMutability": "nonpayable",
      "type": "function"
    }
  ],
  "transactionHash": "0x358189bfdb91709c26bb0e63612a3c8804f5461fbcfd97ccde405fcd47faa713",
  "args": [
    "0x47Fb2585D2C56Fe188D0E6ec628a38b74fCeeeDf",
    "0xEeeeeEeeeEeEeeEeEeEeeEEEeeeeEeeeeeeeEEeE",
    "0x0000000000000000000000000000000000000348"
  ],
  "numDeployments": 1,
  "solcInputHash": "d1f7b61469855066af8b7aa23ceb1c3b",
  "bytecode": "0x6101006040523480156200001257600080fd5b506040516200172f3803806200172f83398101604081905262000035916200030a565b6001600160a01b03808416608081905283821660a05290821660c05260408051808201825260008082526020808301828152825460018181018555848052945191516001600160801b03908116600160801b029216919091177f290decd9548b62a8d60345a988386fc84ba6bc95484008f6362f93160ef3e563909101558351808501909452818452909383820192620000dc9288918891620005e662000171821b17901c565b6001600160501b03169052815460018101835560009283526020928390208251928401516001600160801b03908116600160801b0293169290921791015560a05160c051620001649262000146926001600160a01b03881692909162000695620001fd821b17901c565b6200015390600a62000473565b6200027e60201b620007391760201c565b60e0525062000505915050565b604051633073a1bf60e21b81526001600160a01b038481166004830152838116602483015261ffff831660448301526000919086169063c1ce86fc906064016040805180830381865afa158015620001cd573d6000803e3d6000fd5b505050506040513d601f19601f82011682018060405250810190620001f39190620004a8565b5095945050505050565b604051630b1c5a7560e31b81526001600160a01b0383811660048301528281166024830152600091908516906358e2d3a890604401602060405180830381865afa15801562000250573d6000803e3d6000fd5b505050506040513d601f19601f82011682018060405250810190620002769190620004e0565b949350505050565b60006001600160ff1b03821115620002ed5760405162461bcd60e51b815260206004820152602860248201527f53616665436173743a2076616c756520646f65736e27742066697420696e2061604482015267371034b73a191a9b60c11b606482015260840160405180910390fd5b5090565b6001600160a01b03811681146200030757600080fd5b50565b6000806000606084860312156200032057600080fd5b83516200032d81620002f1565b60208501519093506200034081620002f1565b60408501519092506200035381620002f1565b809150509250925092565b634e487b7160e01b600052601160045260246000fd5b600181815b80851115620003b55781600019048211156200039957620003996200035e565b80851615620003a757918102915b93841c939080029062000379565b509250929050565b600082620003ce575060016200046d565b81620003dd575060006200046d565b8160018114620003f65760028114620004015762000421565b60019150506200046d565b60ff8411156200041557620004156200035e565b50506001821b6200046d565b5060208310610133831016604e8410600b841016171562000446575081810a6200046d565b62000452838362000374565b80600019048211156200046957620004696200035e565b0290505b92915050565b60006200048460ff841683620003bd565b9392505050565b80516001600160501b0381168114620004a357600080fd5b919050565b60008060408385031215620004bc57600080fd5b620004c7836200048b565b9150620004d7602084016200048b565b90509250929050565b600060208284031215620004f357600080fd5b815160ff811681146200048457600080fd5b60805160a05160c05160e051611189620005a66000396000610977015260008181610129015281816101a80152818161029f01528181610350015281816104580152610509015260008181607c015281816101870152818161027e0152818161032f0152818161043701526104e801526000818160cd015281816101e70152818161025c0152818161030d01528181610496015261055201526111896000f3fe608060405234801561001057600080fd5b50600436106100725760003560e01c8063999b93af11610050578063999b93af146101245780639d888e861461014b578063fff6cae91461015357600080fd5b80635001f3b5146100775780637b103999146100c85780637ece075d146100ef575b600080fd5b61009e7f000000000000000000000000000000000000000000000000000000000000000081565b60405173ffffffffffffffffffffffffffffffffffffffff90911681526020015b60405180910390f35b61009e7f000000000000000000000000000000000000000000000000000000000000000081565b6101026100fd366004610dc7565b61015b565b60408051825181526020808401519082015291810151908201526060016100bf565b61009e7f000000000000000000000000000000000000000000000000000000000000000081565b61010261021b565b6101026102cd565b61017f60405180606001604052806000815260200160008152602001600081525090565b61021561020f7f00000000000000000000000000000000000000000000000000000000000000007f00000000000000000000000000000000000000000000000000000000000000006101d0866107f3565b73ffffffffffffffffffffffffffffffffffffffff7f00000000000000000000000000000000000000000000000000000000000000001692919061084b565b83610947565b92915050565b61023f60405180606001604052806000815260200160008152602001600081525090565b6102c86102c373ffffffffffffffffffffffffffffffffffffffff7f0000000000000000000000000000000000000000000000000000000000000000167f00000000000000000000000000000000000000000000000000000000000000007f00000000000000000000000000000000000000000000000000000000000000006109bc565b610ab8565b905090565b6102f160405180606001604052806000815260200160008152602001600081525090565b600061037473ffffffffffffffffffffffffffffffffffffffff7f0000000000000000000000000000000000000000000000000000000000000000167f00000000000000000000000000000000000000000000000000000000000000007f00000000000000000000000000000000000000000000000000000000000000006109bc565b9050806040015167ffffffffffffffff166000036103be576040517f5234755400000000000000000000000000000000000000000000000000000000815260040160405180910390fd5b6103c6610b75565b61ffff166103d982604090810151901c90565b61ffff1611156105d75760006040518060400160405280600060016000805490506104049190610e0f565b8154811061041457610414610e26565b6000918252602090912001546fffffffffffffffffffffffffffffffff166104c27f00000000000000000000000000000000000000000000000000000000000000007f000000000000000000000000000000000000000000000000000000000000000061047f610b75565b73ffffffffffffffffffffffffffffffffffffffff7f00000000000000000000000000000000000000000000000000000000000000001692919061ffff16610b85565b6104cc9190610e55565b6fffffffffffffffffffffffffffffffff16815260200161057a7f00000000000000000000000000000000000000000000000000000000000000007f0000000000000000000000000000000000000000000000000000000000000000610530610b75565b61053b906001610e89565b73ffffffffffffffffffffffffffffffffffffffff7f0000000000000000000000000000000000000000000000000000000000000000169291906105e6565b69ffffffffffffffffffff16905281546001810183556000928352602092839020825193909201516fffffffffffffffffffffffffffffffff908116700100000000000000000000000000000000029316929092179101556103be565b6105e081610ab8565b91505090565b6040517fc1ce86fc00000000000000000000000000000000000000000000000000000000815273ffffffffffffffffffffffffffffffffffffffff8481166004830152838116602483015261ffff831660448301526000919086169063c1ce86fc906064016040805180830381865afa158015610667573d6000803e3d6000fd5b505050506040513d601f19601f8201168201806040525081019061068b9190610ec5565b5095945050505050565b6040517f58e2d3a800000000000000000000000000000000000000000000000000000000815273ffffffffffffffffffffffffffffffffffffffff83811660048301528281166024830152600091908516906358e2d3a890604401602060405180830381865afa15801561070d573d6000803e3d6000fd5b505050506040513d601f19601f820116820180604052508101906107319190610ef8565b949350505050565b60007f7fffffffffffffffffffffffffffffffffffffffffffffffffffffffffffffff8211156107ef576040517f08c379a000000000000000000000000000000000000000000000000000000000815260206004820152602860248201527f53616665436173743a2076616c756520646f65736e27742066697420696e206160448201527f6e20696e74323536000000000000000000000000000000000000000000000000606482015260840160405180910390fd5b5090565b6000806107ff83610c90565b905080600001516fffffffffffffffffffffffffffffffff168382602001516fffffffffffffffffffffffffffffffff1661083a9190610f1b565b6108449190610e0f565b9392505050565b61086f60405180606001604052806000815260200160008152602001600081525090565b6040517ffc58749e00000000000000000000000000000000000000000000000000000000815273ffffffffffffffffffffffffffffffffffffffff8581166004830152848116602483015269ffffffffffffffffffff84166044830152600091829188169063fc58749e9060640160a060405180830381865afa1580156108fa573d6000803e3d6000fd5b505050506040513d601f19601f8201168201806040525081019061091e9190610f33565b506040805160608101825291825260208201939093529182019690965298975050505050505050565b61096b60405180606001604052806000815260200160008152602001600081525090565b600061099b84602001517f0000000000000000000000000000000000000000000000000000000000000000610da8565b60408051606081018252948552945160208501529383019390935250919050565b6109e060405180606001604052806000815260200160008152602001600081525090565b6040517fbcfd032d00000000000000000000000000000000000000000000000000000000815273ffffffffffffffffffffffffffffffffffffffff84811660048301528381166024830152600091829182919088169063bcfd032d9060440160a060405180830381865afa158015610a5c573d6000803e3d6000fd5b505050506040513d601f19601f82011682018060405250810190610a809190610f33565b5060408051606081018252918252602082019390935269ffffffffffffffffffff909316918301919091525093505050509392505050565b610adc60405180606001604052806000815260200160008152602001600081525090565b600080610aee84604090810151901c90565b61ffff1681548110610b0257610b02610e26565b6000918252602080832060408051808201825293909101546fffffffffffffffffffffffffffffffff80821680865270010000000000000000000000000000000090920416928401839052908701519294509091610b5f91610f1b565b610b699190610e0f565b90506107318482610947565b600080546102c890600190610e0f565b6040517fc1ce86fc00000000000000000000000000000000000000000000000000000000815273ffffffffffffffffffffffffffffffffffffffff8481166004830152838116602483015261ffff83166044830152600091829182919088169063c1ce86fc906064016040805180830381865afa158015610c0a573d6000803e3d6000fd5b505050506040513d601f19601f82011682018060405250810190610c2e9190610ec5565b915091508167ffffffffffffffff166000148015610c54575067ffffffffffffffff8116155b15610c6457600092505050610731565b610c6e8282610f83565b610c79906001610fae565b69ffffffffffffffffffff16979650505050505050565b60408051808201909152600080825260208201526000610cae610b75565b61ffff16905060008181548110610cc757610cc7610e26565b6000918252602091829020604080518082019091529101546fffffffffffffffffffffffffffffffff8082168352700100000000000000000000000000000000909104169181019190915291505b81516fffffffffffffffffffffffffffffffff16831015610da25780610d3a81610fd3565b91505060008181548110610d5057610d50610e26565b6000918252602091829020604080518082019091529101546fffffffffffffffffffffffffffffffff808216835270010000000000000000000000000000000090910416918101919091529150610d15565b50919050565b600081610dbd670de0b6b3a764000085611008565b61084491906110c4565b600060208284031215610dd957600080fd5b5035919050565b7f4e487b7100000000000000000000000000000000000000000000000000000000600052601160045260246000fd5b600082821015610e2157610e21610de0565b500390565b7f4e487b7100000000000000000000000000000000000000000000000000000000600052603260045260246000fd5b60006fffffffffffffffffffffffffffffffff808316818516808303821115610e8057610e80610de0565b01949350505050565b600061ffff808316818516808303821115610e8057610e80610de0565b805169ffffffffffffffffffff81168114610ec057600080fd5b919050565b60008060408385031215610ed857600080fd5b610ee183610ea6565b9150610eef60208401610ea6565b90509250929050565b600060208284031215610f0a57600080fd5b815160ff8116811461084457600080fd5b60008219821115610f2e57610f2e610de0565b500190565b600080600080600060a08688031215610f4b57600080fd5b610f5486610ea6565b9450602086015193506040860151925060608601519150610f7760808701610ea6565b90509295509295909350565b600069ffffffffffffffffffff83811690831681811015610fa657610fa6610de0565b039392505050565b600069ffffffffffffffffffff808316818516808303821115610e8057610e80610de0565b600081610fe257610fe2610de0565b507fffffffffffffffffffffffffffffffffffffffffffffffffffffffffffffffff0190565b60007f7fffffffffffffffffffffffffffffffffffffffffffffffffffffffffffffff60008413600084138583048511828216161561104957611049610de0565b7f8000000000000000000000000000000000000000000000000000000000000000600087128682058812818416161561108457611084610de0565b600087129250878205871284841616156110a0576110a0610de0565b878505871281841616156110b6576110b6610de0565b505050929093029392505050565b6000826110fa577f4e487b7100000000000000000000000000000000000000000000000000000000600052601260045260246000fd5b7fffffffffffffffffffffffffffffffffffffffffffffffffffffffffffffffff83147f80000000000000000000000000000000000000000000000000000000000000008314161561114e5761114e610de0565b50059056fea2646970667358221220df7b968fd4c86a9366678361dd4565298a5beaebc1aa233158770ce62e0c161f64736f6c634300080f0033",
  "devdoc": {
    "details": "One instance per Chainlink price feed should be deployed. Multiple products may use the same      ChainlinkOracle instance if their payoff functions are based on the same underlying oracle.      This implementation only support non-negative prices.",
    "errors": {
      "InvalidOracleRound()": [
        {
          "details": "Error for invalid oracle round"
        }
      ]
    },
    "kind": "dev",
    "methods": {
      "atVersion(uint256)": {
        "params": {
          "version": "The version of which to lookup"
        },
        "returns": {
          "oracleVersion": "Oracle version at version `version`"
        }
      },
      "constructor": {
        "params": {
          "base_": "base currency for feed",
          "quote_": "quote currency for feed",
          "registry_": "Chainlink price feed registry"
        }
      },
      "currentVersion()": {
        "returns": {
          "oracleVersion": "Current oracle version"
        }
      },
      "sync()": {
        "returns": {
          "_0": "The current oracle version after sync"
        }
      }
    },
    "stateVariables": {
      "_decimalOffset": {
        "details": "Decimal offset used to normalize chainlink price to 18 decimals"
      },
      "_phases": {
        "details": "Mapping of the starting data for each underlying phase"
      },
      "base": {
        "details": "Base token address for the Chainlink oracle"
      },
      "quote": {
        "details": "Quote token address for the Chainlink oracle"
      },
      "registry": {
        "details": "Chainlink registry feed address"
      }
    },
    "title": "ChainlinkOracle",
    "version": 1
  },
  "userdoc": {
    "kind": "user",
    "methods": {
      "atVersion(uint256)": {
        "notice": "Returns the current oracle version"
      },
      "constructor": {
        "notice": "Initializes the contract state"
      },
      "currentVersion()": {
        "notice": "Returns the current oracle version"
      },
      "sync()": {
        "notice": "Checks for a new price and updates the internal phase annotation state accordingly"
      }
    },
    "notice": "Chainlink implementation of the IOracle interface.",
    "version": 1
  },
  "storageLayout": {
    "storage": [
      {
        "astId": 2968,
        "contract": "contracts/ChainlinkOracle.sol:ChainlinkOracle",
        "label": "_phases",
        "offset": 0,
        "slot": "0",
        "type": "t_array(t_struct(Phase)2973_storage)dyn_storage"
      }
    ],
    "types": {
      "t_array(t_struct(Phase)2973_storage)dyn_storage": {
        "base": "t_struct(Phase)2973_storage",
        "encoding": "dynamic_array",
        "label": "struct ChainlinkOracle.Phase[]",
        "numberOfBytes": "32"
      },
      "t_struct(Phase)2973_storage": {
        "encoding": "inplace",
        "label": "struct ChainlinkOracle.Phase",
        "members": [
          {
            "astId": 2970,
            "contract": "contracts/ChainlinkOracle.sol:ChainlinkOracle",
            "label": "startingVersion",
            "offset": 0,
            "slot": "0",
            "type": "t_uint128"
          },
          {
            "astId": 2972,
            "contract": "contracts/ChainlinkOracle.sol:ChainlinkOracle",
            "label": "startingRoundId",
            "offset": 16,
            "slot": "0",
            "type": "t_uint128"
          }
        ],
        "numberOfBytes": "32"
      },
      "t_uint128": {
        "encoding": "inplace",
        "label": "uint128",
        "numberOfBytes": "16"
      }
    }
  }
}