{
  "address": "0xa78F8B8BB3fE11304eAaC48D275EB0d1aD75ebEf",
  "abi": [
    {
      "inputs": [
        {
          "internalType": "Fixed18",
          "name": "price",
          "type": "int256"
        }
      ],
      "name": "payoff",
      "outputs": [
        {
          "internalType": "Fixed18",
          "name": "",
          "type": "int256"
        }
      ],
      "stateMutability": "pure",
      "type": "function"
    }
  ],
  "transactionHash": "0xfd55bf37bdf457f640590b39dcaf339c01c27112a31288d7487db41e8f123168",
  "args": [],
  "numDeployments": 1,
  "solcInputHash": "d1c761247d2ec43a66ea25f0286eb40e",
  "bytecode": "0x608060405234801561001057600080fd5b50610293806100206000396000f3fe608060405234801561001057600080fd5b506004361061002b5760003560e01c8063d7c7a93514610030575b600080fd5b61004361003e3660046100ca565b610055565b60405190815260200160405180910390f35b60006100756100656103e861007b565b61006f848061008f565b906100b5565b92915050565b6000610075670de0b6b3a764000083610112565b6000670de0b6b3a76400006100a48385610112565b6100ae91906101ce565b9392505050565b6000816100a4670de0b6b3a764000085610112565b6000602082840312156100dc57600080fd5b5035919050565b7f4e487b7100000000000000000000000000000000000000000000000000000000600052601160045260246000fd5b60007f7fffffffffffffffffffffffffffffffffffffffffffffffffffffffffffffff600084136000841385830485118282161615610153576101536100e3565b7f8000000000000000000000000000000000000000000000000000000000000000600087128682058812818416161561018e5761018e6100e3565b600087129250878205871284841616156101aa576101aa6100e3565b878505871281841616156101c0576101c06100e3565b505050929093029392505050565b600082610204577f4e487b7100000000000000000000000000000000000000000000000000000000600052601260045260246000fd5b7fffffffffffffffffffffffffffffffffffffffffffffffffffffffffffffffff83147f800000000000000000000000000000000000000000000000000000000000000083141615610258576102586100e3565b50059056fea2646970667358221220c80172f7cce836372138a936518797e85b9dd931f3227c743a44dcae0595d40664736f6c634300080f0033",
  "devdoc": {
    "kind": "dev",
    "methods": {},
    "version": 1
  },
  "userdoc": {
    "kind": "user",
    "methods": {},
    "version": 1
  },
  "storageLayout": {
    "storage": [],
    "types": null
  }
}