{
  "address": "0xBCb1969b2cf6A35791557D7C522917e71869F901",
  "abi": [
    {
      "inputs": [],
      "name": "ControllerAlreadyInitializedError",
      "type": "error"
    },
    {
      "inputs": [],
      "name": "ControllerInvalidIncentivizationFeeError",
      "type": "error"
    },
    {
      "inputs": [],
      "name": "ControllerInvalidLiquidationFeeError",
      "type": "error"
    },
    {
      "inputs": [],
      "name": "ControllerInvalidMinFundingFeeError",
      "type": "error"
    },
    {
      "inputs": [],
      "name": "ControllerInvalidProtocolFeeError",
      "type": "error"
    },
    {
      "inputs": [],
      "name": "ControllerNoZeroCoordinatorError",
      "type": "error"
    },
    {
      "inputs": [
        {
          "internalType": "uint256",
          "name": "controllerId",
          "type": "uint256"
        }
      ],
      "name": "ControllerNotOwnerError",
      "type": "error"
    },
    {
      "inputs": [
        {
          "internalType": "uint256",
          "name": "coordinatorId",
          "type": "uint256"
        }
      ],
      "name": "ControllerNotPauserError",
      "type": "error"
    },
    {
      "inputs": [
        {
          "internalType": "uint256",
          "name": "controllerId",
          "type": "uint256"
        }
      ],
      "name": "ControllerNotPendingOwnerError",
      "type": "error"
    },
    {
      "inputs": [
        {
          "internalType": "uint256",
          "name": "version",
          "type": "uint256"
        }
      ],
      "name": "UInitializableAlreadyInitializedError",
      "type": "error"
    },
    {
      "inputs": [],
      "name": "UInitializableNotInitializingError",
      "type": "error"
    },
    {
      "inputs": [],
      "name": "UInitializableZeroVersionError",
      "type": "error"
    },
    {
      "anonymous": false,
      "inputs": [
        {
          "indexed": false,
          "internalType": "contract ICollateral",
          "name": "newCollateral",
          "type": "address"
        }
      ],
      "name": "CollateralUpdated",
      "type": "event"
    },
    {
      "anonymous": false,
      "inputs": [
        {
          "indexed": true,
          "internalType": "uint256",
          "name": "coordinatorId",
          "type": "uint256"
        },
        {
          "indexed": false,
          "internalType": "address",
          "name": "owner",
          "type": "address"
        }
      ],
      "name": "CoordinatorCreated",
      "type": "event"
    },
    {
      "anonymous": false,
      "inputs": [
        {
          "indexed": true,
          "internalType": "uint256",
          "name": "coordinatorId",
          "type": "uint256"
        },
        {
          "indexed": false,
          "internalType": "address",
          "name": "newOwner",
          "type": "address"
        }
      ],
      "name": "CoordinatorOwnerUpdated",
      "type": "event"
    },
    {
      "anonymous": false,
      "inputs": [
        {
          "indexed": true,
          "internalType": "uint256",
          "name": "coordinatorId",
          "type": "uint256"
        },
        {
          "indexed": false,
          "internalType": "bool",
          "name": "paused",
          "type": "bool"
        }
      ],
      "name": "CoordinatorPausedUpdated",
      "type": "event"
    },
    {
      "anonymous": false,
      "inputs": [
        {
          "indexed": true,
          "internalType": "uint256",
          "name": "coordinatorId",
          "type": "uint256"
        },
        {
          "indexed": false,
          "internalType": "address",
          "name": "pauser",
          "type": "address"
        }
      ],
      "name": "CoordinatorPauserUpdated",
      "type": "event"
    },
    {
      "anonymous": false,
      "inputs": [
        {
          "indexed": true,
          "internalType": "uint256",
          "name": "coordinatorId",
          "type": "uint256"
        },
        {
          "indexed": false,
          "internalType": "address",
          "name": "newPendingOwner",
          "type": "address"
        }
      ],
      "name": "CoordinatorPendingOwnerUpdated",
      "type": "event"
    },
    {
      "anonymous": false,
      "inputs": [
        {
          "indexed": true,
          "internalType": "uint256",
          "name": "coordinatorId",
          "type": "uint256"
        },
        {
          "indexed": false,
          "internalType": "address",
          "name": "newTreasury",
          "type": "address"
        }
      ],
      "name": "CoordinatorTreasuryUpdated",
      "type": "event"
    },
    {
      "anonymous": false,
      "inputs": [
        {
          "indexed": false,
          "internalType": "UFixed18",
          "name": "newIncentivizationFee",
          "type": "uint256"
        }
      ],
      "name": "IncentivizationFeeUpdated",
      "type": "event"
    },
    {
      "anonymous": false,
      "inputs": [
        {
          "indexed": false,
          "internalType": "contract IIncentivizer",
          "name": "newIncentivizer",
          "type": "address"
        }
      ],
      "name": "IncentivizerUpdated",
      "type": "event"
    },
    {
      "anonymous": false,
      "inputs": [
        {
          "indexed": false,
          "internalType": "UFixed18",
          "name": "newLiquidationFee",
          "type": "uint256"
        }
      ],
      "name": "LiquidationFeeUpdated",
      "type": "event"
    },
    {
      "anonymous": false,
      "inputs": [
        {
          "indexed": false,
          "internalType": "UFixed18",
          "name": "newMinCollateral",
          "type": "uint256"
        }
      ],
      "name": "MinCollateralUpdated",
      "type": "event"
    },
    {
      "anonymous": false,
      "inputs": [
        {
          "indexed": false,
          "internalType": "UFixed18",
          "name": "newMinFundingFee",
          "type": "uint256"
        }
      ],
      "name": "MinFundingFeeUpdated",
      "type": "event"
    },
    {
      "anonymous": false,
      "inputs": [
        {
          "indexed": false,
          "internalType": "contract IBeacon",
          "name": "newProductBeacon",
          "type": "address"
        }
      ],
      "name": "ProductBeaconUpdated",
      "type": "event"
    },
    {
      "anonymous": false,
      "inputs": [
        {
          "indexed": true,
          "internalType": "contract IProduct",
          "name": "product",
          "type": "address"
        },
        {
          "indexed": false,
          "internalType": "contract IProductProvider",
          "name": "provider",
          "type": "address"
        }
      ],
      "name": "ProductCreated",
      "type": "event"
    },
    {
      "anonymous": false,
      "inputs": [
        {
          "indexed": false,
          "internalType": "uint256",
          "name": "newProgramsPerProduct",
          "type": "uint256"
        }
      ],
      "name": "ProgramsPerProductUpdated",
      "type": "event"
    },
    {
      "anonymous": false,
      "inputs": [
        {
          "indexed": false,
          "internalType": "UFixed18",
          "name": "newProtocolFee",
          "type": "uint256"
        }
      ],
      "name": "ProtocolFeeUpdated",
      "type": "event"
    },
    {
      "inputs": [
        {
          "internalType": "uint256",
          "name": "coordinatorId",
          "type": "uint256"
        }
      ],
      "name": "acceptCoordinatorOwner",
      "outputs": [],
      "stateMutability": "nonpayable",
      "type": "function"
    },
    {
      "inputs": [],
      "name": "collateral",
      "outputs": [
        {
          "internalType": "contract ICollateral",
          "name": "",
          "type": "address"
        }
      ],
      "stateMutability": "view",
      "type": "function"
    },
    {
      "inputs": [
        {
          "internalType": "contract IProduct",
          "name": "",
          "type": "address"
        }
      ],
      "name": "coordinatorFor",
      "outputs": [
        {
          "internalType": "uint256",
          "name": "",
          "type": "uint256"
        }
      ],
      "stateMutability": "view",
      "type": "function"
    },
    {
      "inputs": [
        {
          "internalType": "uint256",
          "name": "coordinatorId",
          "type": "uint256"
        }
      ],
      "name": "coordinators",
      "outputs": [
        {
          "components": [
            {
              "internalType": "address",
              "name": "pendingOwner",
              "type": "address"
            },
            {
              "internalType": "address",
              "name": "owner",
              "type": "address"
            },
            {
              "internalType": "address",
              "name": "treasury",
              "type": "address"
            },
            {
              "internalType": "address",
              "name": "pauser",
              "type": "address"
            },
            {
              "internalType": "bool",
              "name": "paused",
              "type": "bool"
            }
          ],
          "internalType": "struct IController.Coordinator",
          "name": "",
          "type": "tuple"
        }
      ],
      "stateMutability": "view",
      "type": "function"
    },
    {
      "inputs": [
        {
          "internalType": "address",
          "name": "coordinatorOwner",
          "type": "address"
        }
      ],
      "name": "createCoordinator",
      "outputs": [
        {
          "internalType": "uint256",
          "name": "",
          "type": "uint256"
        }
      ],
      "stateMutability": "nonpayable",
      "type": "function"
    },
    {
      "inputs": [
        {
          "internalType": "uint256",
          "name": "coordinatorId",
          "type": "uint256"
        },
        {
          "internalType": "contract IProductProvider",
          "name": "provider",
          "type": "address"
        }
      ],
      "name": "createProduct",
      "outputs": [
        {
          "internalType": "contract IProduct",
          "name": "",
          "type": "address"
        }
      ],
      "stateMutability": "nonpayable",
      "type": "function"
    },
    {
      "inputs": [],
      "name": "incentivizationFee",
      "outputs": [
        {
          "internalType": "UFixed18",
          "name": "",
          "type": "uint256"
        }
      ],
      "stateMutability": "view",
      "type": "function"
    },
    {
      "inputs": [],
      "name": "incentivizer",
      "outputs": [
        {
          "internalType": "contract IIncentivizer",
          "name": "",
          "type": "address"
        }
      ],
      "stateMutability": "view",
      "type": "function"
    },
    {
      "inputs": [
        {
          "internalType": "contract ICollateral",
          "name": "collateral_",
          "type": "address"
        },
        {
          "internalType": "contract IIncentivizer",
          "name": "incentivizer_",
          "type": "address"
        },
        {
          "internalType": "contract IBeacon",
          "name": "productBeacon_",
          "type": "address"
        }
      ],
      "name": "initialize",
      "outputs": [],
      "stateMutability": "nonpayable",
      "type": "function"
    },
    {
      "inputs": [
        {
          "internalType": "contract IProduct",
          "name": "product",
          "type": "address"
        }
      ],
      "name": "isProduct",
      "outputs": [
        {
          "internalType": "bool",
          "name": "",
          "type": "bool"
        }
      ],
      "stateMutability": "view",
      "type": "function"
    },
    {
      "inputs": [],
      "name": "liquidationFee",
      "outputs": [
        {
          "internalType": "UFixed18",
          "name": "",
          "type": "uint256"
        }
      ],
      "stateMutability": "view",
      "type": "function"
    },
    {
      "inputs": [],
      "name": "minCollateral",
      "outputs": [
        {
          "internalType": "UFixed18",
          "name": "",
          "type": "uint256"
        }
      ],
      "stateMutability": "view",
      "type": "function"
    },
    {
      "inputs": [],
      "name": "minFundingFee",
      "outputs": [
        {
          "internalType": "UFixed18",
          "name": "",
          "type": "uint256"
        }
      ],
      "stateMutability": "view",
      "type": "function"
    },
    {
      "inputs": [
        {
          "internalType": "contract IProduct",
          "name": "product",
          "type": "address"
        }
      ],
      "name": "owner",
      "outputs": [
        {
          "internalType": "address",
          "name": "",
          "type": "address"
        }
      ],
      "stateMutability": "view",
      "type": "function"
    },
    {
      "inputs": [],
      "name": "owner",
      "outputs": [
        {
          "internalType": "address",
          "name": "",
          "type": "address"
        }
      ],
      "stateMutability": "view",
      "type": "function"
    },
    {
      "inputs": [
        {
          "internalType": "uint256",
          "name": "coordinatorId",
          "type": "uint256"
        }
      ],
      "name": "owner",
      "outputs": [
        {
          "internalType": "address",
          "name": "",
          "type": "address"
        }
      ],
      "stateMutability": "view",
      "type": "function"
    },
    {
      "inputs": [
        {
          "internalType": "uint256",
          "name": "coordinatorId",
          "type": "uint256"
        }
      ],
      "name": "paused",
      "outputs": [
        {
          "internalType": "bool",
          "name": "",
          "type": "bool"
        }
      ],
      "stateMutability": "view",
      "type": "function"
    },
    {
      "inputs": [
        {
          "internalType": "contract IProduct",
          "name": "product",
          "type": "address"
        }
      ],
      "name": "paused",
      "outputs": [
        {
          "internalType": "bool",
          "name": "",
          "type": "bool"
        }
      ],
      "stateMutability": "view",
      "type": "function"
    },
    {
      "inputs": [],
      "name": "paused",
      "outputs": [
        {
          "internalType": "bool",
          "name": "",
          "type": "bool"
        }
      ],
      "stateMutability": "view",
      "type": "function"
    },
    {
      "inputs": [
        {
          "internalType": "contract IProduct",
          "name": "product",
          "type": "address"
        }
      ],
      "name": "pauser",
      "outputs": [
        {
          "internalType": "address",
          "name": "",
          "type": "address"
        }
      ],
      "stateMutability": "view",
      "type": "function"
    },
    {
      "inputs": [
        {
          "internalType": "uint256",
          "name": "coordinatorId",
          "type": "uint256"
        }
      ],
      "name": "pauser",
      "outputs": [
        {
          "internalType": "address",
          "name": "",
          "type": "address"
        }
      ],
      "stateMutability": "view",
      "type": "function"
    },
    {
      "inputs": [],
      "name": "pauser",
      "outputs": [
        {
          "internalType": "address",
          "name": "",
          "type": "address"
        }
      ],
      "stateMutability": "view",
      "type": "function"
    },
    {
      "inputs": [
        {
          "internalType": "uint256",
          "name": "coordinatorId",
          "type": "uint256"
        }
      ],
      "name": "pendingOwner",
      "outputs": [
        {
          "internalType": "address",
          "name": "",
          "type": "address"
        }
      ],
      "stateMutability": "view",
      "type": "function"
    },
    {
      "inputs": [],
      "name": "pendingOwner",
      "outputs": [
        {
          "internalType": "address",
          "name": "",
          "type": "address"
        }
      ],
      "stateMutability": "view",
      "type": "function"
    },
    {
      "inputs": [],
      "name": "productBeacon",
      "outputs": [
        {
          "internalType": "contract IBeacon",
          "name": "",
          "type": "address"
        }
      ],
      "stateMutability": "view",
      "type": "function"
    },
    {
      "inputs": [],
      "name": "programsPerProduct",
      "outputs": [
        {
          "internalType": "uint256",
          "name": "",
          "type": "uint256"
        }
      ],
      "stateMutability": "view",
      "type": "function"
    },
    {
      "inputs": [],
      "name": "protocolFee",
      "outputs": [
        {
          "internalType": "UFixed18",
          "name": "",
          "type": "uint256"
        }
      ],
      "stateMutability": "view",
      "type": "function"
    },
    {
      "inputs": [
        {
          "internalType": "contract IProduct",
          "name": "product",
          "type": "address"
        }
      ],
      "name": "treasury",
      "outputs": [
        {
          "internalType": "address",
          "name": "",
          "type": "address"
        }
      ],
      "stateMutability": "view",
      "type": "function"
    },
    {
      "inputs": [
        {
          "internalType": "uint256",
          "name": "coordinatorId",
          "type": "uint256"
        }
      ],
      "name": "treasury",
      "outputs": [
        {
          "internalType": "address",
          "name": "",
          "type": "address"
        }
      ],
      "stateMutability": "view",
      "type": "function"
    },
    {
      "inputs": [],
      "name": "treasury",
      "outputs": [
        {
          "internalType": "address",
          "name": "",
          "type": "address"
        }
      ],
      "stateMutability": "view",
      "type": "function"
    },
    {
      "inputs": [
        {
          "internalType": "contract ICollateral",
          "name": "newCollateral",
          "type": "address"
        }
      ],
      "name": "updateCollateral",
      "outputs": [],
      "stateMutability": "nonpayable",
      "type": "function"
    },
    {
      "inputs": [
        {
          "internalType": "uint256",
          "name": "coordinatorId",
          "type": "uint256"
        },
        {
          "internalType": "bool",
          "name": "newPaused",
          "type": "bool"
        }
      ],
      "name": "updateCoordinatorPaused",
      "outputs": [],
      "stateMutability": "nonpayable",
      "type": "function"
    },
    {
      "inputs": [
        {
          "internalType": "uint256",
          "name": "coordinatorId",
          "type": "uint256"
        },
        {
          "internalType": "address",
          "name": "newPauser",
          "type": "address"
        }
      ],
      "name": "updateCoordinatorPauser",
      "outputs": [],
      "stateMutability": "nonpayable",
      "type": "function"
    },
    {
      "inputs": [
        {
          "internalType": "uint256",
          "name": "coordinatorId",
          "type": "uint256"
        },
        {
          "internalType": "address",
          "name": "newPendingOwner",
          "type": "address"
        }
      ],
      "name": "updateCoordinatorPendingOwner",
      "outputs": [],
      "stateMutability": "nonpayable",
      "type": "function"
    },
    {
      "inputs": [
        {
          "internalType": "uint256",
          "name": "coordinatorId",
          "type": "uint256"
        },
        {
          "internalType": "address",
          "name": "newTreasury",
          "type": "address"
        }
      ],
      "name": "updateCoordinatorTreasury",
      "outputs": [],
      "stateMutability": "nonpayable",
      "type": "function"
    },
    {
      "inputs": [
        {
          "internalType": "UFixed18",
          "name": "newIncentivizationFee",
          "type": "uint256"
        }
      ],
      "name": "updateIncentivizationFee",
      "outputs": [],
      "stateMutability": "nonpayable",
      "type": "function"
    },
    {
      "inputs": [
        {
          "internalType": "contract IIncentivizer",
          "name": "newIncentivizer",
          "type": "address"
        }
      ],
      "name": "updateIncentivizer",
      "outputs": [],
      "stateMutability": "nonpayable",
      "type": "function"
    },
    {
      "inputs": [
        {
          "internalType": "UFixed18",
          "name": "newLiquidationFee",
          "type": "uint256"
        }
      ],
      "name": "updateLiquidationFee",
      "outputs": [],
      "stateMutability": "nonpayable",
      "type": "function"
    },
    {
      "inputs": [
        {
          "internalType": "UFixed18",
          "name": "newMinCollateral",
          "type": "uint256"
        }
      ],
      "name": "updateMinCollateral",
      "outputs": [],
      "stateMutability": "nonpayable",
      "type": "function"
    },
    {
      "inputs": [
        {
          "internalType": "UFixed18",
          "name": "newMinFundingFee",
          "type": "uint256"
        }
      ],
      "name": "updateMinFundingFee",
      "outputs": [],
      "stateMutability": "nonpayable",
      "type": "function"
    },
    {
      "inputs": [
        {
          "internalType": "contract IBeacon",
          "name": "newProductBeacon",
          "type": "address"
        }
      ],
      "name": "updateProductBeacon",
      "outputs": [],
      "stateMutability": "nonpayable",
      "type": "function"
    },
    {
      "inputs": [
        {
          "internalType": "uint256",
          "name": "newProgramsPerProduct",
          "type": "uint256"
        }
      ],
      "name": "updateProgramsPerProduct",
      "outputs": [],
      "stateMutability": "nonpayable",
      "type": "function"
    },
    {
      "inputs": [
        {
          "internalType": "UFixed18",
          "name": "newProtocolFee",
          "type": "uint256"
        }
      ],
      "name": "updateProtocolFee",
      "outputs": [],
      "stateMutability": "nonpayable",
      "type": "function"
    }
  ],
  "transactionHash": "0x2349895720d24ba74550c60e6e3a43e177e8cfffffcf6a3d24416efb21697826",
  "args": [],
  "numDeployments": 1,
  "solcInputHash": "65527db1409d6958fd38b19b43619005",
  "bytecode": "0x608060405234801561001057600080fd5b506126a4806100206000396000f3fe60806040523480156200001157600080fd5b5060043610620003245760003560e01c80637a7da00411620001b1578063ae95263311620000f5578063c2cc6f1411620000a3578063e30c3978116200007a578063e30c397814620006dd578063e975c0c314620006e7578063f8dfc2cc14620006f157600080fd5b8063c2cc6f1414620006a5578063d809aa6114620006bc578063d8dfeb4514620006d357600080fd5b8063b0e21e8a11620000d8578063b0e21e8a146200067a578063ba2de9bc1462000684578063c0c53b8b146200068e57600080fd5b8063ae952633146200064c578063af2757b7146200066357600080fd5b80638da5cb5b116200015f578063a123c33e1162000136578063a123c33e1462000614578063a1eef78e146200062b578063a36a3630146200064257600080fd5b80638da5cb5b14620005e95780638fbf180314620005f35780639fd0506d146200060a57600080fd5b80637d254e6611620001945780637d254e66146200058e5780637d49c1b714620005b15780637fd2919214620005bb57600080fd5b80637a7da00414620005605780637c013690146200057757600080fd5b80634c5430a0116200027957806364e893de11620002275780636fc6407c11620001fe5780636fc6407c146200052857806375907f281462000532578063793d9c0d146200054957600080fd5b806364e893de14620004e357806365e821e514620004fa578063666e1b39146200051157600080fd5b80635c975abb116200025c5780635c975abb14620004625780635f1cc005146200046c57806361d027b314620004d957600080fd5b80634c5430a0146200043457806353922864146200044b57600080fd5b80632e48152c11620002d75780633ceda01111620002ba5780633ceda01114620003ed5780634256dd781462000406578063478739ca146200041d57600080fd5b80632e48152c14620003cc578063391d0c9c14620003e357600080fd5b80632933d891116200030c5780632933d89114620003855780632b800e3b146200039e5780632d809cb614620003b557600080fd5b8062dde10e14620003295780630a1289ad1462000355575b600080fd5b620003406200033a36600462001b31565b62000708565b60405190151581526020015b60405180910390f35b6200036c6200036636600462001b64565b62000757565b6040516001600160a01b0390911681526020016200034c565b6200039c6200039636600462001b31565b6200077b565b005b6200036c620003af36600462001b31565b62000824565b6200036c620003c636600462001b64565b6200085b565b62000340620003dd36600462001b64565b6200087f565b6200036c620008a3565b620003f7620008d3565b6040519081526020016200034c565b6200039c6200041736600462001b31565b620008fe565b6200039c6200042e36600462001b31565b620009e8565b6200036c6200044536600462001b31565b62000ad2565b6200036c6200045c36600462001b31565b62000b2a565b6200034062000b70565b620004836200047d36600462001b31565b62000bac565b6040516200034c9190600060a0820190506001600160a01b038084511683528060208501511660208401528060408501511660408401528060608501511660608401525060808301511515608083015292915050565b6200036c62000c5a565b6200036c620004f436600462001b84565b62000c68565b6200039c6200050b36600462001b64565b62000df9565b6200036c6200052236600462001b64565b62000ea0565b6200036c62000ec4565b6200039c6200054336600462001b31565b62000eef565b620003f76200055a36600462001b64565b62000fd9565b6200039c6200057136600462001b64565b62001028565b6200039c6200058836600462001b64565b620010cf565b620003f76200059f36600462001b64565b60016020526000908152604090205481565b620003f762001176565b62000340620005cc36600462001b64565b6001600160a01b0316600090815260016020526040902054151590565b6200036c620011a1565b6200039c6200060436600462001b31565b620011af565b6200036c62001283565b6200036c6200062536600462001b31565b62001291565b6200039c6200063c36600462001b31565b620012cb565b620003f762001369565b6200039c6200065d36600462001b84565b62001394565b6200039c6200067436600462001b84565b6200144f565b620003f762001507565b620003f762001532565b6200039c6200069f36600462001bb7565b6200155d565b6200039c620006b636600462001c09565b6200166a565b6200039c620006cd36600462001b31565b62001739565b6200036c62001823565b6200036c6200184e565b620003f76200185c565b6200039c6200070236600462001b84565b62001887565b60006200071462000b70565b806200075157506000828154811062000731576200073162001c35565b906000526020600020906004020160030160149054906101000a900460ff165b92915050565b6001600160a01b038116600090815260016020526040812054620007519062000b2a565b6000620007888162001291565b6001600160a01b0316336001600160a01b031614620007c25760405163f0a882b560e01b8152600481018290526024015b60405180910390fd5b620007ec7f2859911faffd405cbcc22bdad2f67b54a86355c092452044dbab4f656aec3dc9839055565b6040518281527fd19fe8ad9152af12b174a60210fb798db0767d63973ebb97298dc44d67a5c82d906020015b60405180910390a15050565b60008082815481106200083b576200083b62001c35565b60009182526020909120600490910201546001600160a01b031692915050565b6001600160a01b038116600090815260016020526040812054620007519062000ad2565b6001600160a01b038116600090815260016020526040812054620007519062000708565b6000620008ce7f81565bc82d6e7196d38320713fd94f897c0e1a4c83974a2fbbbf9fbb55a6d8a75490565b905090565b6000620008ce7f1f7147efa84c5ef8ccb713891d25247c732a9d5765ebc3bb6cb30d1f17d277f05490565b60006200090b8162001291565b6001600160a01b0316336001600160a01b031614620009415760405163f0a882b560e01b815260048101829052602401620007b9565b6200095582670de0b6b3a764000062001942565b156200098d576040517f3c5df10400000000000000000000000000000000000000000000000000000000815260040160405180910390fd5b620009b77f7b1a264a02657d43e78b10f2a591a99a0fdf8a165fb72bbf762d965e9973f64e839055565b6040518281527fd10d75876659a287a59a6ccfa2e3fff42f84d94b542837acd30bc184d562de409060200162000818565b6000620009f58162001291565b6001600160a01b0316336001600160a01b03161462000a2b5760405163f0a882b560e01b815260048101829052602401620007b9565b62000a3f82670de0b6b3a764000062001942565b1562000a77576040517f0c6b0ec800000000000000000000000000000000000000000000000000000000815260040160405180910390fd5b62000aa17f6f35922f1b8609c81847a86ce8bb2528f73d722df88772b050ac89d3bc48707d839055565b6040518281527fdf7e6bc55eeb2668bd338e44a5abb721b1f98ad51f7a00baaa1b62f9383862d79060200162000818565b6000806000838154811062000aeb5762000aeb62001c35565b60009182526020909120600260049092020101546001600160a01b03169050801562000b18578062000b23565b62000b238362001291565b9392505050565b6000806000838154811062000b435762000b4362001c35565b60009182526020909120600360049092020101546001600160a01b03169050801562000b18578062000b23565b60008060008154811062000b885762000b8862001c35565b906000526020600020906004020160030160149054906101000a900460ff16905090565b6040805160a0810182526000808252602082018190529181018290526060810182905260808101919091526000828154811062000bed5762000bed62001c35565b60009182526020918290206040805160a08101825260049390930290910180546001600160a01b03908116845260018201548116948401949094526002810154841691830191909152600301549182166060820152600160a01b90910460ff161515608082015292915050565b6000620008ce600062000ad2565b60008062000c768162001291565b6001600160a01b0316336001600160a01b03161462000cac5760405163f0a882b560e01b815260048101829052602401620007b9565b8360000362000ce7576040517f7244bc7800000000000000000000000000000000000000000000000000000000815260040160405180910390fd5b600062000cf3620008a3565b6040516001600160a01b038616602482015260440160408051601f198184030181529181526020820180517bffffffffffffffffffffffffffffffffffffffffffffffffffffffff167fc4d66de8000000000000000000000000000000000000000000000000000000001790525162000d6c9062001b23565b62000d7992919062001c64565b604051809103906000f08015801562000d96573d6000803e3d6000fd5b506001600160a01b038181166000818152600160209081526040918290208a905590519288168352929350839290917fa66df2ac9413442073c2e47b33e555f5891823df7841196bd1f197175a12f8ae910160405180910390a295945050505050565b600062000e068162001291565b6001600160a01b0316336001600160a01b03161462000e3c5760405163f0a882b560e01b815260048101829052602401620007b9565b62000e667fcbd1a41d9e21eb02a3acb8d57f9495422d3837dd84bf5dfbc51964fe540cff41839055565b6040516001600160a01b03831681527f18c973e70eca8db74eab2a3e0de3c4bffcc46c45f6f17f600e2d4d4f744e2a2b9060200162000818565b6001600160a01b038116600090815260016020526040812054620007519062001291565b6000620008ce7fcbd1a41d9e21eb02a3acb8d57f9495422d3837dd84bf5dfbc51964fe540cff415490565b600062000efc8162001291565b6001600160a01b0316336001600160a01b03161462000f325760405163f0a882b560e01b815260048101829052602401620007b9565b62000f4682670de0b6b3a764000062001942565b1562000f7e576040517fb4c4f79900000000000000000000000000000000000000000000000000000000815260040160405180910390fd5b62000fa87fdf23e6978beb49efbffd02ffd26ec2f120b1e5be191aa5749bafaa170026fb09839055565b6040518281527f1a35ca75fc5ab34ae3487b3507e7453b6e4c15a69f2392939fbbcf8f64558ad19060200162000818565b60008062000fe78162001291565b6001600160a01b0316336001600160a01b0316146200101d5760405163f0a882b560e01b815260048101829052602401620007b9565b62000b23836200195a565b6000620010358162001291565b6001600160a01b0316336001600160a01b0316146200106b5760405163f0a882b560e01b815260048101829052602401620007b9565b620010957f9a67237eef0f801c1f3a0e6be772257326890fecbd39f68c5f7bb69ca7c408c3839055565b6040516001600160a01b03831681527fa0fe5cb0e8843811ca9f6123983dcdfd45a33b61892b9b8f380ed444078e299a9060200162000818565b6000620010dc8162001291565b6001600160a01b0316336001600160a01b031614620011125760405163f0a882b560e01b815260048101829052602401620007b9565b6200113c7f81565bc82d6e7196d38320713fd94f897c0e1a4c83974a2fbbbf9fbb55a6d8a7839055565b6040516001600160a01b03831681527f36466d973cc33c9b726f867d2fc1f8cd56d58de206993f62ccba543a3429ea629060200162000818565b6000620008ce7fd665791d8a3246c9a2360cb3de854da1c9536240e0380f1f5c2dd0e6b8b7c8605490565b6000620008ce600062001291565b6000808281548110620011c657620011c662001c35565b6000918252602090912060049091020180549091506001600160a01b031633811462001222576040517f07f41a5f00000000000000000000000000000000000000000000000000000000815260048101849052602401620007b9565b81546001600160a01b031990811683556001830180546001600160a01b03841692168217905560405190815283907f87c983c6a4d6d9a68e6d99934d1fb50f760858298c06f8ed6b316f534e06faf4906020015b60405180910390a2505050565b6000620008ce600062000b2a565b6000808281548110620012a857620012a862001c35565b60009182526020909120600160049092020101546001600160a01b031692915050565b6000620012d88162001291565b6001600160a01b0316336001600160a01b0316146200130e5760405163f0a882b560e01b815260048101829052602401620007b9565b620013387fd665791d8a3246c9a2360cb3de854da1c9536240e0380f1f5c2dd0e6b8b7c860839055565b6040518281527f7e6452dce5202ad16be30ea14955296f7157b95e4ca48b73fc54d54601185adf9060200162000818565b6000620008ce7fdf23e6978beb49efbffd02ffd26ec2f120b1e5be191aa5749bafaa170026fb095490565b81620013a08162001291565b6001600160a01b0316336001600160a01b031614620013d65760405163f0a882b560e01b815260048101829052602401620007b9565b8160008481548110620013ed57620013ed62001c35565b60009182526020918290206004919091020160030180546001600160a01b0319166001600160a01b03938416179055604051918416825284917f7be390d6034bf06d145f44a071a895ad3320f09c185598f74add0da31cada185910162001276565b816200145b8162001291565b6001600160a01b0316336001600160a01b031614620014915760405163f0a882b560e01b815260048101829052602401620007b9565b8160008481548110620014a857620014a862001c35565b60009182526020918290206004919091020180546001600160a01b0319166001600160a01b03938416179055604051918416825284917f0bffd4439c17923ee1b2b093be5394c42dcab0d9394e349a8d6a059c239ba603910162001276565b6000620008ce7f7b1a264a02657d43e78b10f2a591a99a0fdf8a165fb72bbf762d965e9973f64e5490565b6000620008ce7f2859911faffd405cbcc22bdad2f67b54a86355c092452044dbab4f656aec3dc95490565b600180620015897f5db5abc19987c2b3729df7961b62b6bb0bae886dd47e3ce25bb3a3af34c6d80b5490565b10620015c5576040517f1e7a9d9500000000000000000000000000000000000000000000000000000000815260048101829052602401620007b9565b620015ef7f5db5abc19987c2b3729df7961b62b6bb0bae886dd47e3ce25bb3a3af34c6d80b829055565b60017fad57d7911b7e3d6c3c79a68ba909a7f4ba41f9485e5207b12dee0d0c6af5398c556200161e336200195a565b506200162a8462001028565b620016358362000df9565b6200164082620010cf565b60007fad57d7911b7e3d6c3c79a68ba909a7f4ba41f9485e5207b12dee0d0c6af5398c5550505050565b81620016768162000b2a565b6001600160a01b0316336001600160a01b031614620016c5576040517feb94b52200000000000000000000000000000000000000000000000000000000815260048101829052602401620007b9565b8160008481548110620016dc57620016dc62001c35565b906000526020600020906004020160030160146101000a81548160ff021916908315150217905550827f8687fadd114273583c49dbd5c380ea8aada2a3f92db9fc9fba379906735633268360405162001276911515815260200190565b6000620017468162001291565b6001600160a01b0316336001600160a01b0316146200177c5760405163f0a882b560e01b815260048101829052602401620007b9565b6200179082670de0b6b3a764000062001942565b15620017c8576040517f7c3ceda900000000000000000000000000000000000000000000000000000000815260040160405180910390fd5b620017f27f1f7147efa84c5ef8ccb713891d25247c732a9d5765ebc3bb6cb30d1f17d277f0839055565b6040518281527f852c049e335a49416ecbcb0128935cc3832c307d450d206f0a2d0bf2b28ba2db9060200162000818565b6000620008ce7f9a67237eef0f801c1f3a0e6be772257326890fecbd39f68c5f7bb69ca7c408c35490565b6000620008ce600062000824565b6000620008ce7f6f35922f1b8609c81847a86ce8bb2528f73d722df88772b050ac89d3bc48707d5490565b81620018938162001291565b6001600160a01b0316336001600160a01b031614620018c95760405163f0a882b560e01b815260048101829052602401620007b9565b8160008481548110620018e057620018e062001c35565b60009182526020918290206004919091020160020180546001600160a01b0319166001600160a01b03938416179055604051918416825284917fffd31ccade46a73a57d8efd7d740bbf6aa67e50a158c98ad82a06ad31556cef4910162001276565b600062001950838362001aea565b6002149392505050565b600080546040805160a0810182528381526001600160a01b038581166020830190815282840186815260608401878152608085018881526001880189558880529451600488027f290decd9548b62a8d60345a988386fc84ba6bc95484008f6362f93160ef3e563810180549287166001600160a01b031993841617905593517f290decd9548b62a8d60345a988386fc84ba6bc95484008f6362f93160ef3e5648501805491871691831691909117905591517f290decd9548b62a8d60345a988386fc84ba6bc95484008f6362f93160ef3e565840180549186169190931617909155517f290decd9548b62a8d60345a988386fc84ba6bc95484008f6362f93160ef3e566909101805493511515600160a01b027fffffffffffffffffffffff00000000000000000000000000000000000000000090941691909216179190911790555181907f645c9ae30d6a6aa6b2dace770fa0cfac2d8d44b9b036510e0a16aab39e6b59319062001adc9086906001600160a01b0391909116815260200190565b60405180910390a292915050565b600082828082111562001b035760029250505062000751565b8082101562001b185760009250505062000751565b506001949350505050565b6109a18062001cce83390190565b60006020828403121562001b4457600080fd5b5035919050565b6001600160a01b038116811462001b6157600080fd5b50565b60006020828403121562001b7757600080fd5b813562000b238162001b4b565b6000806040838503121562001b9857600080fd5b82359150602083013562001bac8162001b4b565b809150509250929050565b60008060006060848603121562001bcd57600080fd5b833562001bda8162001b4b565b9250602084013562001bec8162001b4b565b9150604084013562001bfe8162001b4b565b809150509250925092565b6000806040838503121562001c1d57600080fd5b823591506020830135801515811462001bac57600080fd5b7f4e487b7100000000000000000000000000000000000000000000000000000000600052603260045260246000fd5b6001600160a01b038316815260006020604081840152835180604085015260005b8181101562001ca35785810183015185820160600152820162001c85565b8181111562001cb6576000606083870101525b50601f01601f19169290920160600194935050505056fe60806040526040516109a13803806109a18339810160408190526100229161048b565b61004d60017fa3f0ad74e5423aebfd80d3ef4346578335a9a72aeaee59ff6cb3582b35133d5161054b565b60008051602061095a8339815191521461006957610069610570565b6100758282600061007c565b50506105f0565b61008583610147565b6040516001600160a01b038416907f1cf3b03a6cf19fa2baba4df148e9dcabedea7f8a5c07840e207e5c089be95d3e90600090a26000825111806100c65750805b1561014257610140836001600160a01b0316635c60da1b6040518163ffffffff1660e01b8152600401602060405180830381865afa15801561010c573d6000803e3d6000fd5b505050506040513d601f19601f820116820180604052508101906101309190610586565b836102d860201b6100291760201c565b505b505050565b61015a8161030460201b6100551760201c565b6101b95760405162461bcd60e51b815260206004820152602560248201527f455243313936373a206e657720626561636f6e206973206e6f74206120636f6e6044820152641d1c9858dd60da1b60648201526084015b60405180910390fd5b61022d816001600160a01b0316635c60da1b6040518163ffffffff1660e01b8152600401602060405180830381865afa1580156101fa573d6000803e3d6000fd5b505050506040513d601f19601f8201168201806040525081019061021e9190610586565b61030460201b6100551760201c565b6102925760405162461bcd60e51b815260206004820152603060248201527f455243313936373a20626561636f6e20696d706c656d656e746174696f6e206960448201526f1cc81b9bdd08184818dbdb9d1c9858dd60821b60648201526084016101b0565b806102b760008051602061095a83398151915260001b61031360201b6100641760201c565b80546001600160a01b0319166001600160a01b039290921691909117905550565b60606102fd838360405180606001604052806027815260200161097a60279139610316565b9392505050565b6001600160a01b03163b151590565b90565b60606001600160a01b0384163b61037e5760405162461bcd60e51b815260206004820152602660248201527f416464726573733a2064656c65676174652063616c6c20746f206e6f6e2d636f6044820152651b9d1c9858dd60d21b60648201526084016101b0565b600080856001600160a01b03168560405161039991906105a1565b600060405180830381855af49150503d80600081146103d4576040519150601f19603f3d011682016040523d82523d6000602084013e6103d9565b606091505b5090925090506103ea8282866103f4565b9695505050505050565b606083156104035750816102fd565b8251156104135782518084602001fd5b8160405162461bcd60e51b81526004016101b091906105bd565b80516001600160a01b038116811461044457600080fd5b919050565b634e487b7160e01b600052604160045260246000fd5b60005b8381101561047a578181015183820152602001610462565b838111156101405750506000910152565b6000806040838503121561049e57600080fd5b6104a78361042d565b60208401519092506001600160401b03808211156104c457600080fd5b818501915085601f8301126104d857600080fd5b8151818111156104ea576104ea610449565b604051601f8201601f19908116603f0116810190838211818310171561051257610512610449565b8160405282815288602084870101111561052b57600080fd5b61053c83602083016020880161045f565b80955050505050509250929050565b60008282101561056b57634e487b7160e01b600052601160045260246000fd5b500390565b634e487b7160e01b600052600160045260246000fd5b60006020828403121561059857600080fd5b6102fd8261042d565b600082516105b381846020870161045f565b9190910192915050565b60208152600082518060208401526105dc81604085016020870161045f565b601f01601f19169190910160400192915050565b61035b806105ff6000396000f3fe60806040523661001357610011610017565b005b6100115b610027610022610067565b610100565b565b606061004e83836040518060600160405280602781526020016102ff60279139610124565b9392505050565b6001600160a01b03163b151590565b90565b600061009a7fa3f0ad74e5423aebfd80d3ef4346578335a9a72aeaee59ff6cb3582b35133d50546001600160a01b031690565b6001600160a01b0316635c60da1b6040518163ffffffff1660e01b8152600401602060405180830381865afa1580156100d7573d6000803e3d6000fd5b505050506040513d601f19601f820116820180604052508101906100fb9190610256565b905090565b3660008037600080366000845af43d6000803e80801561011f573d6000f35b3d6000fd5b60606001600160a01b0384163b6101a85760405162461bcd60e51b815260206004820152602660248201527f416464726573733a2064656c65676174652063616c6c20746f206e6f6e2d636f60448201527f6e7472616374000000000000000000000000000000000000000000000000000060648201526084015b60405180910390fd5b600080856001600160a01b0316856040516101c391906102af565b600060405180830381855af49150503d80600081146101fe576040519150601f19603f3d011682016040523d82523d6000602084013e610203565b606091505b509150915061021382828661021d565b9695505050505050565b6060831561022c57508161004e565b82511561023c5782518084602001fd5b8160405162461bcd60e51b815260040161019f91906102cb565b60006020828403121561026857600080fd5b81516001600160a01b038116811461004e57600080fd5b60005b8381101561029a578181015183820152602001610282565b838111156102a9576000848401525b50505050565b600082516102c181846020870161027f565b9190910192915050565b60208152600082518060208401526102ea81604085016020870161027f565b601f01601f1916919091016040019291505056fe416464726573733a206c6f772d6c6576656c2064656c65676174652063616c6c206661696c6564a264697066735822122047a898e22485c681f7e1b0889c94dc3a2ca332e83cde02a19373313f0b65a32464736f6c634300080e0033a3f0ad74e5423aebfd80d3ef4346578335a9a72aeaee59ff6cb3582b35133d50416464726573733a206c6f772d6c6576656c2064656c65676174652063616c6c206661696c6564a2646970667358221220159ccb4abe39904638365bec3215cf3f6ac844c42ddc865bdd435fb4ed6793c264736f6c634300080e0033",
  "devdoc": {
    "kind": "dev",
    "methods": {
      "acceptCoordinatorOwner(uint256)": {
        "details": "Must be called by the coordinator's pending owner",
        "params": {
          "coordinatorId": "Coordinator to update"
        }
      },
      "coordinators(uint256)": {
        "params": {
          "coordinatorId": "Coordinator to return for"
        },
        "returns": {
          "_0": "Coordinator state"
        }
      },
      "createCoordinator(address)": {
        "details": "Can only be called by the protocol owner",
        "params": {
          "coordinatorOwner": "The owner address of the new coordinator"
        },
        "returns": {
          "_0": "New coordinator ID"
        }
      },
      "createProduct(uint256,address)": {
        "details": "Can only be called by the protocol owner",
        "params": {
          "coordinatorId": "Coordinator that will own the product",
          "provider": "Provider that will service the market"
        },
        "returns": {
          "_0": "New product contract address"
        }
      },
      "initialize(address,address,address)": {
        "details": "Must be called atomically as part of the upgradeable proxy deployment to      avoid front-running",
        "params": {
          "collateral_": "Collateral contract address",
          "incentivizer_": "Incentivizer contract address",
          "productBeacon_": "Product implementation beacon address"
        }
      },
      "isProduct(address)": {
        "params": {
          "product": "Contract address to check"
        },
        "returns": {
          "_0": "Whether a contract is a product"
        }
      },
      "owner()": {
        "returns": {
          "_0": "Owner of the protocol"
        }
      },
      "owner(address)": {
        "params": {
          "product": "Product to return for"
        },
        "returns": {
          "_0": "Owner of the product"
        }
      },
      "owner(uint256)": {
        "params": {
          "coordinatorId": "Coordinator to return for"
        },
        "returns": {
          "_0": "Owner of the coordinator"
        }
      },
      "paused()": {
        "returns": {
          "_0": "Paused status of the protocol"
        }
      },
      "paused(address)": {
        "params": {
          "product": "Product to return for"
        },
        "returns": {
          "_0": "Paused status of the product"
        }
      },
      "paused(uint256)": {
        "params": {
          "coordinatorId": "Coordinator to return for"
        },
        "returns": {
          "_0": "Paused status of the coordinator"
        }
      },
      "pauser()": {
        "details": "Defaults to the `owner` when `pauser` is unset",
        "returns": {
          "_0": "Pauser of the protocol"
        }
      },
      "pauser(address)": {
        "details": "Defaults to the `owner` when `pauser` is unset",
        "params": {
          "product": "Product to return for"
        },
        "returns": {
          "_0": "Pauser of the product"
        }
      },
      "pauser(uint256)": {
        "details": "Defaults to the `owner` when `pauser` is unset",
        "params": {
          "coordinatorId": "Coordinator to return for"
        },
        "returns": {
          "_0": "Pauser of the coordinator"
        }
      },
      "pendingOwner()": {
        "returns": {
          "_0": "Owner of the protocol"
        }
      },
      "pendingOwner(uint256)": {
        "params": {
          "coordinatorId": "Coordinator to return for"
        },
        "returns": {
          "_0": "Pending owner of the coordinator"
        }
      },
      "treasury()": {
        "details": "Defaults to the `owner` when `treasury` is unset",
        "returns": {
          "_0": "Treasury of the protocol"
        }
      },
      "treasury(address)": {
        "details": "Defaults to the `owner` when `treasury` is unset",
        "params": {
          "product": "Product to return for"
        },
        "returns": {
          "_0": "Treasury of the product"
        }
      },
      "treasury(uint256)": {
        "details": "Defaults to the `owner` when `treasury` is unset",
        "params": {
          "coordinatorId": "Coordinator to return for"
        },
        "returns": {
          "_0": "Treasury of the coordinator"
        }
      },
      "updateCollateral(address)": {
        "params": {
          "newCollateral": "New Collateral contract address"
        }
      },
      "updateCoordinatorPaused(uint256,bool)": {
        "details": "Must be called by the coordinator's current owner",
        "params": {
          "coordinatorId": "Coordinator to update",
          "newPaused": "New paused status"
        }
      },
      "updateCoordinatorPauser(uint256,address)": {
        "details": "Must be called by the coordinator's current owner",
        "params": {
          "coordinatorId": "Coordinator to update",
          "newPauser": "New pauser address"
        }
      },
      "updateCoordinatorPendingOwner(uint256,address)": {
        "details": "Must be called by the coordinator's current owner",
        "params": {
          "coordinatorId": "Coordinator to update",
          "newPendingOwner": "New pending owner address"
        }
      },
      "updateCoordinatorTreasury(uint256,address)": {
        "details": "Must be called by the coordinator's current owner",
        "params": {
          "coordinatorId": "Coordinator to update",
          "newTreasury": "New treasury address"
        }
      },
      "updateIncentivizationFee(uint256)": {
        "params": {
          "newIncentivizationFee": "New incentivization fee"
        }
      },
      "updateIncentivizer(address)": {
        "params": {
          "newIncentivizer": "New Incentivizer contract address"
        }
      },
      "updateLiquidationFee(uint256)": {
        "params": {
          "newLiquidationFee": "New liquidation fee"
        }
      },
      "updateMinCollateral(uint256)": {
        "params": {
          "newMinCollateral": "New minimum allowed collateral amount"
        }
      },
      "updateMinFundingFee(uint256)": {
        "params": {
          "newMinFundingFee": "New minimum allowed funding fee"
        }
      },
      "updateProductBeacon(address)": {
        "params": {
          "newProductBeacon": "New Product implementation beacon address"
        }
      },
      "updateProgramsPerProduct(uint256)": {
        "params": {
          "newProgramsPerProduct": "New maximum incentivization programs per product allowed"
        }
      },
      "updateProtocolFee(uint256)": {
        "params": {
          "newProtocolFee": "New protocol-product fee split"
        }
      }
    },
    "stateVariables": {
      "_collateral": {
        "details": "Collateral contract address for the protocol"
      },
      "_coordinators": {
        "details": "List of product coordinators"
      },
      "_incentivizationFee": {
        "details": "Fee on incentivization programs"
      },
      "_incentivizer": {
        "details": "Incentivizer contract address for the protocol"
      },
      "_liquidationFee": {
        "details": "Fee on maintenance for liquidation"
      },
      "_minCollateral": {
        "details": "Minimum allowable collateral amount per user account"
      },
      "_minFundingFee": {
        "details": "Minimum allowable funding fee for a product"
      },
      "_productBeacon": {
        "details": "Product implementation beacon address for the protocol"
      },
      "_programsPerProduct": {
        "details": "Maximum incentivization programs per product allowed"
      },
      "_protocolFee": {
        "details": "Percent of collected fees that go to the protocol treasury vs the product treasury"
      },
      "coordinatorFor": {
        "details": "Mapping of the coordinator for each  product"
      }
    },
    "title": "Controller",
    "version": 1
  },
  "userdoc": {
    "kind": "user",
    "methods": {
      "acceptCoordinatorOwner(uint256)": {
        "notice": "Accepts ownership over an existing coordinator"
      },
      "coordinators(uint256)": {
        "notice": "Returns coordinator state for coordinator `coordinatorId`"
      },
      "createCoordinator(address)": {
        "notice": "Creates a new coordinator with `msg.sender` as the owner"
      },
      "createProduct(uint256,address)": {
        "notice": "Creates a new product market with `provider`"
      },
      "initialize(address,address,address)": {
        "notice": "Initializes the contract state"
      },
      "isProduct(address)": {
        "notice": "Returns whether a contract is a product"
      },
      "owner()": {
        "notice": "Returns the owner of the protocol"
      },
      "owner(address)": {
        "notice": "Returns the owner of the product `product`"
      },
      "owner(uint256)": {
        "notice": "Returns the owner of the coordinator `coordinatorId`"
      },
      "paused()": {
        "notice": "Returns the paused status of the protocol"
      },
      "paused(address)": {
        "notice": "Returns the paused status of the product `product`"
      },
      "paused(uint256)": {
        "notice": "Returns the paused status of the coordinator `coordinatorId`"
      },
      "pauser()": {
        "notice": "Returns the pauser of the protocol"
      },
      "pauser(address)": {
        "notice": "Returns the pauser of the product `product`"
      },
      "pauser(uint256)": {
        "notice": "Returns the pauser of the coordinator `coordinatorId`"
      },
      "pendingOwner()": {
        "notice": "Returns the pending owner of the protocol"
      },
      "pendingOwner(uint256)": {
        "notice": "Returns the pending owner of the coordinator `coordinatorId`"
      },
      "treasury()": {
        "notice": "Returns the treasury of the protocol"
      },
      "treasury(address)": {
        "notice": "Returns the treasury of the product `product`"
      },
      "treasury(uint256)": {
        "notice": "Returns the treasury of the coordinator `coordinatorId`"
      },
      "updateCollateral(address)": {
        "notice": "Updates the Collateral contract address"
      },
      "updateCoordinatorPaused(uint256,bool)": {
        "notice": "Updates the paused status of an existing coordinator"
      },
      "updateCoordinatorPauser(uint256,address)": {
        "notice": "Updates the pauser of an existing coordinator"
      },
      "updateCoordinatorPendingOwner(uint256,address)": {
        "notice": "Updates the pending owner of an existing coordinator"
      },
      "updateCoordinatorTreasury(uint256,address)": {
        "notice": "Updates the treasury of an existing coordinator"
      },
      "updateIncentivizationFee(uint256)": {
        "notice": "Updates the incentivization fee"
      },
      "updateIncentivizer(address)": {
        "notice": "Updates the Incentivizer contract address"
      },
      "updateLiquidationFee(uint256)": {
        "notice": "Updates the liquidation fee"
      },
      "updateMinCollateral(uint256)": {
        "notice": "Updates the minimum allowed collateral amount per user account"
      },
      "updateMinFundingFee(uint256)": {
        "notice": "Updates the minimum allowed funding fee"
      },
      "updateProductBeacon(address)": {
        "notice": "Updates the Product implementation beacon address"
      },
      "updateProgramsPerProduct(uint256)": {
        "notice": "Updates the maximum incentivization programs per product allowed"
      },
      "updateProtocolFee(uint256)": {
        "notice": "Updates the protocol-product fee split"
      }
    },
    "notice": "Manages creating new products and global protocol parameters.",
    "version": 1
  },
  "storageLayout": {
    "storage": [
      {
        "astId": 10032,
        "contract": "contracts/controller/Controller.sol:Controller",
        "label": "_coordinators",
        "offset": 0,
        "slot": "0",
        "type": "t_array(t_struct(Coordinator)13239_storage)dyn_storage"
      },
      {
        "astId": 10038,
        "contract": "contracts/controller/Controller.sol:Controller",
        "label": "coordinatorFor",
        "offset": 0,
        "slot": "1",
        "type": "t_mapping(t_contract(IProduct)14123,t_uint256)"
      }
    ],
    "types": {
      "t_address": {
        "encoding": "inplace",
        "label": "address",
        "numberOfBytes": "20"
      },
      "t_array(t_struct(Coordinator)13239_storage)dyn_storage": {
        "base": "t_struct(Coordinator)13239_storage",
        "encoding": "dynamic_array",
        "label": "struct IController.Coordinator[]",
        "numberOfBytes": "32"
      },
      "t_bool": {
        "encoding": "inplace",
        "label": "bool",
        "numberOfBytes": "1"
      },
      "t_contract(IProduct)14123": {
        "encoding": "inplace",
        "label": "contract IProduct",
        "numberOfBytes": "20"
      },
      "t_mapping(t_contract(IProduct)14123,t_uint256)": {
        "encoding": "mapping",
        "key": "t_contract(IProduct)14123",
        "label": "mapping(contract IProduct => uint256)",
        "numberOfBytes": "32",
        "value": "t_uint256"
      },
      "t_struct(Coordinator)13239_storage": {
        "encoding": "inplace",
        "label": "struct IController.Coordinator",
        "members": [
          {
            "astId": 13226,
            "contract": "contracts/controller/Controller.sol:Controller",
            "label": "pendingOwner",
            "offset": 0,
            "slot": "0",
            "type": "t_address"
          },
          {
            "astId": 13229,
            "contract": "contracts/controller/Controller.sol:Controller",
            "label": "owner",
            "offset": 0,
            "slot": "1",
            "type": "t_address"
          },
          {
            "astId": 13232,
            "contract": "contracts/controller/Controller.sol:Controller",
            "label": "treasury",
            "offset": 0,
            "slot": "2",
            "type": "t_address"
          },
          {
            "astId": 13235,
            "contract": "contracts/controller/Controller.sol:Controller",
            "label": "pauser",
            "offset": 0,
            "slot": "3",
            "type": "t_address"
          },
          {
            "astId": 13238,
            "contract": "contracts/controller/Controller.sol:Controller",
            "label": "paused",
            "offset": 20,
            "slot": "3",
            "type": "t_bool"
          }
        ],
        "numberOfBytes": "128"
      },
      "t_uint256": {
        "encoding": "inplace",
        "label": "uint256",
        "numberOfBytes": "32"
      }
    }
  }
}