{
  "address": "0x8556Cb46f947597c8F95dD25306a0C60C364520E",
  "abi": [
    {
      "inputs": [],
      "name": "AlreadyInitializedError",
      "type": "error"
    },
    {
      "inputs": [
        {
          "internalType": "uint256",
          "name": "value",
          "type": "uint256"
        }
      ],
      "name": "Fixed18OverflowError",
      "type": "error"
    },
    {
      "inputs": [
        {
          "internalType": "int256",
          "name": "value",
          "type": "int256"
        }
      ],
      "name": "Fixed18PackingOverflowError",
      "type": "error"
    },
    {
      "inputs": [
        {
          "internalType": "int256",
          "name": "value",
          "type": "int256"
        }
      ],
      "name": "Fixed18PackingUnderflowError",
      "type": "error"
    },
    {
      "inputs": [],
      "name": "InvalidControllerError",
      "type": "error"
    },
    {
      "inputs": [],
      "name": "NotCollateralError",
      "type": "error"
    },
    {
      "inputs": [
        {
          "internalType": "uint256",
          "name": "coordinatorId",
          "type": "uint256"
        }
      ],
      "name": "NotOwnerError",
      "type": "error"
    },
    {
      "inputs": [
        {
          "internalType": "contract IProduct",
          "name": "product",
          "type": "address"
        }
      ],
      "name": "NotProductError",
      "type": "error"
    },
    {
      "inputs": [
        {
          "internalType": "contract IProduct",
          "name": "product",
          "type": "address"
        }
      ],
      "name": "NotProductOwnerError",
      "type": "error"
    },
    {
      "inputs": [],
      "name": "PausedError",
      "type": "error"
    },
    {
      "inputs": [],
      "name": "ProductDoubleSidedError",
      "type": "error"
    },
    {
      "inputs": [],
      "name": "ProductInLiquidationError",
      "type": "error"
    },
    {
      "inputs": [],
      "name": "ProductInsufficientCollateralError",
      "type": "error"
    },
    {
      "inputs": [
        {
          "internalType": "UFixed18",
          "name": "socializationFactor",
          "type": "uint256"
        }
      ],
      "name": "ProductInsufficientLiquidityError",
      "type": "error"
    },
    {
      "inputs": [],
      "name": "ProductMakerOverLimitError",
      "type": "error"
    },
    {
      "inputs": [],
      "name": "ProductOracleBootstrappingError",
      "type": "error"
    },
    {
      "inputs": [],
      "name": "ProductOverClosedError",
      "type": "error"
    },
    {
      "inputs": [
        {
          "internalType": "uint256",
          "name": "value",
          "type": "uint256"
        }
      ],
      "name": "UFixed18PackingOverflowError",
      "type": "error"
    },
    {
      "inputs": [
        {
          "internalType": "uint256",
          "name": "version",
          "type": "uint256"
        }
      ],
      "name": "UInitializableAlreadyInitializedError",
      "type": "error"
    },
    {
      "inputs": [],
      "name": "UInitializableNotInitializingError",
      "type": "error"
    },
    {
      "inputs": [],
      "name": "UInitializableZeroVersionError",
      "type": "error"
    },
    {
      "inputs": [],
      "name": "UReentrancyGuardReentrantCallError",
      "type": "error"
    },
    {
      "anonymous": false,
      "inputs": [
        {
          "indexed": true,
          "internalType": "address",
          "name": "account",
          "type": "address"
        },
        {
          "indexed": false,
          "internalType": "uint256",
          "name": "preVersion",
          "type": "uint256"
        },
        {
          "indexed": false,
          "internalType": "uint256",
          "name": "toVersion",
          "type": "uint256"
        }
      ],
      "name": "AccountSettle",
      "type": "event"
    },
    {
      "anonymous": false,
      "inputs": [
        {
          "indexed": true,
          "internalType": "address",
          "name": "account",
          "type": "address"
        },
        {
          "indexed": false,
          "internalType": "UFixed18",
          "name": "amount",
          "type": "uint256"
        }
      ],
      "name": "MakeClosed",
      "type": "event"
    },
    {
      "anonymous": false,
      "inputs": [
        {
          "indexed": true,
          "internalType": "address",
          "name": "account",
          "type": "address"
        },
        {
          "indexed": false,
          "internalType": "UFixed18",
          "name": "amount",
          "type": "uint256"
        }
      ],
      "name": "MakeOpened",
      "type": "event"
    },
    {
      "anonymous": false,
      "inputs": [
        {
          "indexed": false,
          "internalType": "uint256",
          "name": "preVersion",
          "type": "uint256"
        },
        {
          "indexed": false,
          "internalType": "uint256",
          "name": "toVersion",
          "type": "uint256"
        }
      ],
      "name": "Settle",
      "type": "event"
    },
    {
      "anonymous": false,
      "inputs": [
        {
          "indexed": true,
          "internalType": "address",
          "name": "account",
          "type": "address"
        },
        {
          "indexed": false,
          "internalType": "UFixed18",
          "name": "amount",
          "type": "uint256"
        }
      ],
      "name": "TakeClosed",
      "type": "event"
    },
    {
      "anonymous": false,
      "inputs": [
        {
          "indexed": true,
          "internalType": "address",
          "name": "account",
          "type": "address"
        },
        {
          "indexed": false,
          "internalType": "UFixed18",
          "name": "amount",
          "type": "uint256"
        }
      ],
      "name": "TakeOpened",
      "type": "event"
    },
    {
      "inputs": [
        {
          "internalType": "address",
          "name": "account",
          "type": "address"
        }
      ],
      "name": "closeAll",
      "outputs": [],
      "stateMutability": "nonpayable",
      "type": "function"
    },
    {
      "inputs": [
        {
          "internalType": "UFixed18",
          "name": "amount",
          "type": "uint256"
        }
      ],
      "name": "closeMake",
      "outputs": [],
      "stateMutability": "nonpayable",
      "type": "function"
    },
    {
      "inputs": [
        {
          "internalType": "UFixed18",
          "name": "amount",
          "type": "uint256"
        }
      ],
      "name": "closeTake",
      "outputs": [],
      "stateMutability": "nonpayable",
      "type": "function"
    },
    {
      "inputs": [],
      "name": "controller",
      "outputs": [
        {
          "internalType": "contract IController",
          "name": "",
          "type": "address"
        }
      ],
      "stateMutability": "view",
      "type": "function"
    },
    {
      "inputs": [
        {
          "internalType": "contract IProductProvider",
          "name": "productProvider_",
          "type": "address"
        }
      ],
      "name": "initialize",
      "outputs": [],
      "stateMutability": "nonpayable",
      "type": "function"
    },
    {
      "inputs": [
        {
          "internalType": "address",
          "name": "account",
          "type": "address"
        }
      ],
      "name": "isClosed",
      "outputs": [
        {
          "internalType": "bool",
          "name": "",
          "type": "bool"
        }
      ],
      "stateMutability": "view",
      "type": "function"
    },
    {
      "inputs": [
        {
          "internalType": "address",
          "name": "account",
          "type": "address"
        }
      ],
      "name": "isLiquidating",
      "outputs": [
        {
          "internalType": "bool",
          "name": "",
          "type": "bool"
        }
      ],
      "stateMutability": "view",
      "type": "function"
    },
    {
      "inputs": [
        {
          "internalType": "address",
          "name": "account",
          "type": "address"
        }
      ],
      "name": "latestVersion",
      "outputs": [
        {
          "internalType": "uint256",
          "name": "",
          "type": "uint256"
        }
      ],
      "stateMutability": "view",
      "type": "function"
    },
    {
      "inputs": [],
      "name": "latestVersion",
      "outputs": [
        {
          "internalType": "uint256",
          "name": "",
          "type": "uint256"
        }
      ],
      "stateMutability": "view",
      "type": "function"
    },
    {
      "inputs": [
        {
          "internalType": "address",
          "name": "account",
          "type": "address"
        }
      ],
      "name": "maintenance",
      "outputs": [
        {
          "internalType": "UFixed18",
          "name": "",
          "type": "uint256"
        }
      ],
      "stateMutability": "view",
      "type": "function"
    },
    {
      "inputs": [
        {
          "internalType": "address",
          "name": "account",
          "type": "address"
        }
      ],
      "name": "maintenanceNext",
      "outputs": [
        {
          "internalType": "UFixed18",
          "name": "",
          "type": "uint256"
        }
      ],
      "stateMutability": "view",
      "type": "function"
    },
    {
      "inputs": [
        {
          "internalType": "UFixed18",
          "name": "amount",
          "type": "uint256"
        }
      ],
      "name": "openMake",
      "outputs": [],
      "stateMutability": "nonpayable",
      "type": "function"
    },
    {
      "inputs": [
        {
          "internalType": "UFixed18",
          "name": "amount",
          "type": "uint256"
        }
      ],
      "name": "openTake",
      "outputs": [],
      "stateMutability": "nonpayable",
      "type": "function"
    },
    {
      "inputs": [
        {
          "internalType": "address",
          "name": "account",
          "type": "address"
        }
      ],
      "name": "position",
      "outputs": [
        {
          "components": [
            {
              "internalType": "UFixed18",
              "name": "maker",
              "type": "uint256"
            },
            {
              "internalType": "UFixed18",
              "name": "taker",
              "type": "uint256"
            }
          ],
          "internalType": "struct Position",
          "name": "",
          "type": "tuple"
        }
      ],
      "stateMutability": "view",
      "type": "function"
    },
    {
      "inputs": [
        {
          "internalType": "uint256",
          "name": "oracleVersion",
          "type": "uint256"
        }
      ],
      "name": "positionAtVersion",
      "outputs": [
        {
          "components": [
            {
              "internalType": "UFixed18",
              "name": "maker",
              "type": "uint256"
            },
            {
              "internalType": "UFixed18",
              "name": "taker",
              "type": "uint256"
            }
          ],
          "internalType": "struct Position",
          "name": "",
          "type": "tuple"
        }
      ],
      "stateMutability": "view",
      "type": "function"
    },
    {
      "inputs": [
        {
          "internalType": "address",
          "name": "account",
          "type": "address"
        }
      ],
      "name": "pre",
      "outputs": [
        {
          "components": [
            {
              "internalType": "uint256",
              "name": "oracleVersion",
              "type": "uint256"
            },
            {
              "components": [
                {
                  "internalType": "UFixed18",
                  "name": "maker",
                  "type": "uint256"
                },
                {
                  "internalType": "UFixed18",
                  "name": "taker",
                  "type": "uint256"
                }
              ],
              "internalType": "struct Position",
              "name": "openPosition",
              "type": "tuple"
            },
            {
              "components": [
                {
                  "internalType": "UFixed18",
                  "name": "maker",
                  "type": "uint256"
                },
                {
                  "internalType": "UFixed18",
                  "name": "taker",
                  "type": "uint256"
                }
              ],
              "internalType": "struct Position",
              "name": "closePosition",
              "type": "tuple"
            }
          ],
          "internalType": "struct PrePosition",
          "name": "",
          "type": "tuple"
        }
      ],
      "stateMutability": "view",
      "type": "function"
    },
    {
      "inputs": [],
      "name": "pre",
      "outputs": [
        {
          "components": [
            {
              "internalType": "uint256",
              "name": "oracleVersion",
              "type": "uint256"
            },
            {
              "components": [
                {
                  "internalType": "UFixed18",
                  "name": "maker",
                  "type": "uint256"
                },
                {
                  "internalType": "UFixed18",
                  "name": "taker",
                  "type": "uint256"
                }
              ],
              "internalType": "struct Position",
              "name": "openPosition",
              "type": "tuple"
            },
            {
              "components": [
                {
                  "internalType": "UFixed18",
                  "name": "maker",
                  "type": "uint256"
                },
                {
                  "internalType": "UFixed18",
                  "name": "taker",
                  "type": "uint256"
                }
              ],
              "internalType": "struct Position",
              "name": "closePosition",
              "type": "tuple"
            }
          ],
          "internalType": "struct PrePosition",
          "name": "",
          "type": "tuple"
        }
      ],
      "stateMutability": "view",
      "type": "function"
    },
    {
      "inputs": [],
      "name": "productProvider",
      "outputs": [
        {
          "internalType": "contract IProductProvider",
          "name": "",
          "type": "address"
        }
      ],
      "stateMutability": "view",
      "type": "function"
    },
    {
      "inputs": [],
      "name": "settle",
      "outputs": [],
      "stateMutability": "nonpayable",
      "type": "function"
    },
    {
      "inputs": [
        {
          "internalType": "address",
          "name": "account",
          "type": "address"
        }
      ],
      "name": "settleAccount",
      "outputs": [],
      "stateMutability": "nonpayable",
      "type": "function"
    },
    {
      "inputs": [
        {
          "internalType": "uint256",
          "name": "oracleVersion",
          "type": "uint256"
        }
      ],
      "name": "shareAtVersion",
      "outputs": [
        {
          "components": [
            {
              "internalType": "Fixed18",
              "name": "maker",
              "type": "int256"
            },
            {
              "internalType": "Fixed18",
              "name": "taker",
              "type": "int256"
            }
          ],
          "internalType": "struct Accumulator",
          "name": "",
          "type": "tuple"
        }
      ],
      "stateMutability": "view",
      "type": "function"
    },
    {
      "inputs": [
        {
          "internalType": "uint256",
          "name": "oracleVersion",
          "type": "uint256"
        }
      ],
      "name": "valueAtVersion",
      "outputs": [
        {
          "components": [
            {
              "internalType": "Fixed18",
              "name": "maker",
              "type": "int256"
            },
            {
              "internalType": "Fixed18",
              "name": "taker",
              "type": "int256"
            }
          ],
          "internalType": "struct Accumulator",
          "name": "",
          "type": "tuple"
        }
      ],
      "stateMutability": "view",
      "type": "function"
    }
  ],
  "transactionHash": "0x7c49a33800a371dd1510b14f9c354cadfa661c6ef4c8c69e5e9f4b6890a48cd2",
  "args": [],
  "numDeployments": 1,
  "solcInputHash": "65527db1409d6958fd38b19b43619005",
  "bytecode": "0x608060405234801561001057600080fd5b50613b3e806100206000396000f3fe608060405234801561001057600080fd5b50600436106101825760003560e01c806391689024116100d8578063c07f47d41161008c578063f667f89711610066578063f667f897146103e0578063f6b32008146103f3578063f77c47911461040657600080fd5b8063c07f47d4146103b2578063c4d66de8146103ba578063d7d7d6b8146103cd57600080fd5b80639d8870a7116100bd5780639d8870a71461031f578063ab582f291461034a578063b7648fb91461035d57600080fd5b806391689024146102ec5780639a427d03146102ff57600080fd5b806359218fe91161013a57806373b88f3b1161011457806373b88f3b1461028f57806376f37001146102a25780638e480b20146102b557600080fd5b806359218fe91461026157806359ea287d146102745780636943b0171461027c57600080fd5b806320fe9c3c1161016b57806320fe9c3c146101e1578063476fa96d1461020f57806358ca6f981461022257600080fd5b806311da60b4146101875780631e0c6fb914610191575b600080fd5b61018f61040e565b005b6101a461019f3660046137c6565b610507565b60408051825181526020808401518051828401528101518284015292909101518051606083015290910151608082015260a0015b60405180910390f35b6101f46101ef3660046137e3565b61057a565b604080518251815260209283015192810192909252016101d8565b6101f461021d3660046137e3565b61059f565b6102516102303660046137c6565b6001600160a01b031660009081526001602052604090206007015460ff1690565b60405190151581526020016101d8565b61018f61026f3660046137e3565b6105be565b6101a4610812565b61025161028a3660046137c6565b610869565b61018f61029d3660046137e3565b610907565b61018f6102b03660046137e3565b610c39565b6102de6102c33660046137c6565b6001600160a01b031660009081526008602052604090205490565b6040519081526020016101d8565b6102de6102fa3660046137c6565b610db7565b61031261030d3660046137e3565b610ddd565b6040516101d891906137fc565b600054610332906001600160a01b031681565b6040516001600160a01b0390911681526020016101d8565b6102de6103583660046137c6565b610dfc565b61031261036b3660046137c6565b6040805180820190915260008082526020820152506001600160a01b0316600090815260016020818152604092839020835180850190945280548452909101549082015290565b6009546102de565b61018f6103c83660046137c6565b610e22565b61018f6103db3660046137e3565b610f44565b61018f6103ee3660046137c6565b6113ef565b61018f6104013660046137c6565b611565565b6103326116e5565b6002610426600080516020613ae98339815191525490565b0361044457604051637990191b60e11b815260040160405180910390fd5b6002600080516020613ae9833981519152553061045f6116e5565b604051630b92054b60e21b81526001600160a01b0383811660048301529190911690632e48152c90602401602060405180830381865afa1580156104a7573d6000803e3d6000fd5b505050506040513d601f19601f820116820180604052508101906104cb9190613813565b156104e957604051633b3b4caf60e21b815260040160405180910390fd5b6104f1611718565b50506001600080516020613ae983398151915255565b61050f61375b565b506001600160a01b03166000908152600160209081526040918290208251606081018452600282015481528351808501855260038301548152600483015481850152818401528351808501855260058301548152600690920154928201929092529181019190915290565b6040805180820190915260008082526020820152610599600983611b0d565b92915050565b6040805180820190915260008082526020820152610599600983611b5f565b60026105d6600080516020613ae98339815191525490565b036105f457604051637990191b60e11b815260040160405180910390fd5b6002600080516020613ae9833981519152553061060f6116e5565b604051630b92054b60e21b81526001600160a01b0383811660048301529190911690632e48152c90602401602060405180830381865afa158015610657573d6000803e3d6000fd5b505050506040513d601f19601f8201168201806040525081019061067b9190613813565b1561069957604051633b3b4caf60e21b815260040160405180910390fd5b3360006106a4611718565b90506106b08282611baa565b3360009081526001602052604090206007015460ff16156106e457604051636830d4d760e01b815260040160405180910390fd5b6106ee3385612018565b33600090815260016020526040902061070690612112565b1561072457604051633975ab9360e01b815260040160405180910390fd5b6040805160608101825260035481528151808301835260045481526005546020828101919091528083019190915282518084018452600654815260075491810191909152918101919091526000906107889061078261030d60095490565b90612181565b90506000610795826121b0565b90506107a981670de0b6b3a76400006121f9565b156107e8576040517fd8b8b951000000000000000000000000000000000000000000000000000000008152600481018290526024015b60405180910390fd5b505050505061080f6001600080516020613ae983398151915261171490919063ffffffff16565b50565b61081a61375b565b5060408051606081018252600354815281518083018352600454815260055460208281019190915280830191909152825180840184526006548152600754918101919091529181019190915290565b6001600160a01b0381166000908152600160208181526040808420815160a08101835281546060808301918252958301546080830152815282519485018352600282015485528251808401845260038301548152600483015481860152858501528251808401845260058301548152600683015481860152858401529283019390935260079092015460ff161515918101919091526105999061220d565b600261091f600080516020613ae98339815191525490565b0361093d57604051637990191b60e11b815260040160405180910390fd5b6002600080516020613ae983398151915255306109586116e5565b604051630b92054b60e21b81526001600160a01b0383811660048301529190911690632e48152c90602401602060405180830381865afa1580156109a0573d6000803e3d6000fd5b505050506040513d601f19601f820116820180604052508101906109c49190613813565b156109e257604051633b3b4caf60e21b815260040160405180910390fd5b3360006109ed611718565b90506109f98282611baa565b3360009081526001602052604090206007015460ff1615610a2d57604051636830d4d760e01b815260040160405180910390fd5b60008060009054906101000a90046001600160a01b03166001600160a01b0316639d888e866040518163ffffffff1660e01b8152600401606060405180830381865afa158015610a81573d6000803e3d6000fd5b505050506040513d601f19601f82011682018060405250810190610aa59190613835565b8051336000908152600160205260409020919250610ac791600201908761222e565b8051610ad6906003908761222e565b60405185815233907fa49f7f671e5a8fa84972aea8267de5edd22e571e230370e9aab63198ed7ec8769060200160405180910390a250610b146116e5565b6001600160a01b031663d8dfeb456040518163ffffffff1660e01b8152600401602060405180830381865afa158015610b51573d6000803e3d6000fd5b505050506040513d601f19601f82011682018060405250810190610b75919061389f565b6040516301c8232360e71b81523360048201523060248201526001600160a01b03919091169063e411918090604401602060405180830381865afa158015610bc1573d6000803e3d6000fd5b505050506040513d601f19601f82011682018060405250810190610be59190613813565b15610c03576040516324a21d2960e01b815260040160405180910390fd5b336000908152600160205260409020610c1b90612253565b15610724576040516390898fd160e01b815260040160405180910390fd5b6002610c51600080516020613ae98339815191525490565b03610c6f57604051637990191b60e11b815260040160405180910390fd5b6002600080516020613ae98339815191525530610c8a6116e5565b604051630b92054b60e21b81526001600160a01b0383811660048301529190911690632e48152c90602401602060405180830381865afa158015610cd2573d6000803e3d6000fd5b505050506040513d601f19601f82011682018060405250810190610cf69190613813565b15610d1457604051633b3b4caf60e21b815260040160405180910390fd5b336000610d1f611718565b9050610d2b8282611baa565b3360009081526001602052604090206007015460ff1615610d5f57604051636830d4d760e01b815260040160405180910390fd5b610d6933856122b5565b336000908152600160205260409020610d8190612112565b15610d9f57604051633975ab9360e01b815260040160405180910390fd5b50506001600080516020613ae9833981519152555050565b600080546001600160a01b038381168352600160205260408320610599929091166123a2565b60408051808201909152600080825260208201526105996002836123dc565b600080546001600160a01b0383811683526001602052604083206105999290911661242c565b600180610e4d7f5db5abc19987c2b3729df7961b62b6bb0bae886dd47e3ce25bb3a3af34c6d80b5490565b10610e87576040517f1e7a9d95000000000000000000000000000000000000000000000000000000008152600481018290526024016107df565b610eb07f5db5abc19987c2b3729df7961b62b6bb0bae886dd47e3ce25bb3a3af34c6d80b829055565b60017fad57d7911b7e3d6c3c79a68ba909a7f4ba41f9485e5207b12dee0d0c6af5398c55610edd336124a7565b610ee561255e565b600080547fffffffffffffffffffffffff0000000000000000000000000000000000000000166001600160a01b038416178155610f40907fad57d7911b7e3d6c3c79a68ba909a7f4ba41f9485e5207b12dee0d0c6af5398c55565b5050565b6002610f5c600080516020613ae98339815191525490565b03610f7a57604051637990191b60e11b815260040160405180910390fd5b6002600080516020613ae98339815191525530610f956116e5565b604051630b92054b60e21b81526001600160a01b0383811660048301529190911690632e48152c90602401602060405180830381865afa158015610fdd573d6000803e3d6000fd5b505050506040513d601f19601f820116820180604052508101906110019190613813565b1561101f57604051633b3b4caf60e21b815260040160405180910390fd5b33600061102a611718565b90506110368282611baa565b600954600003611072576040517fc25d67ab00000000000000000000000000000000000000000000000000000000815260040160405180910390fd5b3360009081526001602052604090206007015460ff16156110a657604051636830d4d760e01b815260040160405180910390fd5b60008060009054906101000a90046001600160a01b03166001600160a01b0316639d888e866040518163ffffffff1660e01b8152600401606060405180830381865afa1580156110fa573d6000803e3d6000fd5b505050506040513d601f19601f8201168201806040525081019061111e9190613835565b80513360009081526001602052604090209192506111409160020190876125bf565b805161114f90600390876125bf565b60405185815233907f240d2eb7d93fbde0cc714cce7b10e79ddfdd3b20a9ee97a1bd1876eea2c05cba9060200160405180910390a25061118d6116e5565b6001600160a01b031663d8dfeb456040518163ffffffff1660e01b8152600401602060405180830381865afa1580156111ca573d6000803e3d6000fd5b505050506040513d601f19601f820116820180604052508101906111ee919061389f565b6040516301c8232360e71b81523360048201523060248201526001600160a01b03919091169063e411918090604401602060405180830381865afa15801561123a573d6000803e3d6000fd5b505050506040513d601f19601f8201168201806040525081019061125e9190613813565b1561127c576040516324a21d2960e01b815260040160405180910390fd5b33600090815260016020526040902061129490612253565b156112b2576040516390898fd160e01b815260040160405180910390fd5b6040805160608101825260035481528151808301835260045481526005546020828101919091528083019190915282518084018452600654815260075491810191909152918101919091526000906113109061078261030d60095490565b905061139260008054906101000a90046001600160a01b03166001600160a01b031663193775676040518163ffffffff1660e01b8152600401602060405180830381865afa158015611366573d6000803e3d6000fd5b505050506040513d601f19601f8201168201806040525081019061138a91906138bc565b8251906125df565b156113c9576040517fcefd0e5e00000000000000000000000000000000000000000000000000000000815260040160405180910390fd5b5050505061080f6001600080516020613ae983398151915261171490919063ffffffff16565b6002611407600080516020613ae98339815191525490565b0361142557604051637990191b60e11b815260040160405180910390fd5b6002600080516020613ae983398151915255306114406116e5565b604051630b92054b60e21b81526001600160a01b0383811660048301529190911690632e48152c90602401602060405180830381865afa158015611488573d6000803e3d6000fd5b505050506040513d601f19601f820116820180604052508101906114ac9190613813565b156114ca57604051633b3b4caf60e21b815260040160405180910390fd5b60008060009054906101000a90046001600160a01b03166001600160a01b0316639d888e866040518163ffffffff1660e01b8152600401606060405180830381865afa15801561151e573d6000803e3d6000fd5b505050506040513d601f19601f820116820180604052508101906115429190613835565b905061154e8382611baa565b50506001600080516020613ae98339815191525550565b61156d6116e5565b6001600160a01b031663d8dfeb456040518163ffffffff1660e01b8152600401602060405180830381865afa1580156115aa573d6000803e3d6000fd5b505050506040513d601f19601f820116820180604052508101906115ce919061389f565b6001600160a01b0316336001600160a01b031614611618576040517f40cbe9b100000000000000000000000000000000000000000000000000000000815260040160405180910390fd5b806000611623611718565b905061162f8282611baa565b6001600160a01b038316600090815260016020818152604080842081516060810183526002820154815282518084018452600383015481526004830154818601528185015282518084018452600583015481526006830154818601528184015282518084019093528154835293810154928201929092529092916116b39190612181565b90506116c3858260000151612018565b6116d18582602001516122b5565b50600701805460ff19166001179055505050565b600061170f7f0e555410d8128dff796eab5d29b97dd593ce9cab44a71b64c08244579ea605335490565b905090565b9055565b61173c60405180606001604052806000815260200160008152602001600081525090565b6000805481906001600160a01b03166117536116e5565b91509150816001600160a01b031663fff6cae96040518163ffffffff1660e01b81526004016060604051808303816000875af1158015611797573d6000803e3d6000fd5b505050506040513d601f19601f820116820180604052508101906117bb9190613835565b925060006117c860095490565b845190915081036117d95750505090565b604051637ece075d60e01b8152600481018290526000906001600160a01b03851690637ece075d90602401606060405180830381865afa158015611821573d6000803e3d6000fd5b505050506040513d601f19601f820116820180604052508101906118459190613835565b8551909150600090611859906003906125f5565b90506000866000015182146118d657604051637ece075d60e01b8152600481018390526001600160a01b03871690637ece075d90602401606060405180830381865afa1580156118ad573d6000803e3d6000fd5b505050506040513d601f19601f820116820180604052508101906118d19190613835565b6118d8565b865b9050846001600160a01b0316636fc6407c6040518163ffffffff1660e01b8152600401602060405180830381865afa158015611918573d6000803e3d6000fd5b505050506040513d601f19601f8201168201806040525081019061193c919061389f565b6001600160a01b031663a55ff01d886040518263ffffffff1660e01b815260040161196791906138d5565b600060405180830381600087803b15801561198157600080fd5b505af1158015611995573d6000803e3d6000fd5b50600092506119b891506119b190506009888a60028988612618565b8290612732565b90506119ca6119b1600289888661273e565b88518351919250146119ff576119e96119b16009888a6002878e612618565b82519091506119fd9060029089908b61273e565b505b856001600160a01b031663d8dfeb456040518163ffffffff1660e01b8152600401602060405180830381865afa158015611a3d573d6000803e3d6000fd5b505050506040513d601f19601f82011682018060405250810190611a61919061389f565b6001600160a01b0316637f3dd53b826040518263ffffffff1660e01b8152600401611a8e91815260200190565b600060405180830381600087803b158015611aa857600080fd5b505af1158015611abc573d6000803e3d6000fd5b505083518a516040517f88a84ea6dd274b386afd27dbbe11b6192b25017f5e60bb8c4053dfddb45c294d9450611afb9350918252602082015260400190565b60405180910390a15050505050505090565b6040805180820182526000808252602080830182905284825260018601815290839020835180850190945254600f81810b8552600160801b909104900b9083015290611b5890612829565b9392505050565b6040805180820182526000808252602080830182905284825260028601815290839020835180850190945254600f81810b8552600160801b909104900b9083015290611b5890612829565b6000805481906001600160a01b0316611bc16116e5565b84519193509150611be7856001600160a01b031660009081526008602052604090205490565b03611bf25750505050565b82516001600160a01b03851660009081526001602052604081209091611c1b91600201906125f5565b9050600084600001518214611c9857604051637ece075d60e01b8152600481018390526001600160a01b03851690637ece075d90602401606060405180830381865afa158015611c6f573d6000803e3d6000fd5b505050506040513d601f19601f82011682018060405250810190611c939190613835565b611c9a565b845b90506000836001600160a01b0316636fc6407c6040518163ffffffff1660e01b8152600401602060405180830381865afa158015611cdc573d6000803e3d6000fd5b505050506040513d601f19601f82011682018060405250810190611d00919061389f565b6001600160a01b0316631830349c88846040518363ffffffff1660e01b8152600401611d2d9291906138f6565b600060405180830381600087803b158015611d4757600080fd5b505af1158015611d5b573d6000803e3d6000fd5b5050506001600160a01b0388166000908152600160209081526040808320865160089093529220611da49350611d9d92611d989260099190612865565b6128ce565b82906128de565b6001600160a01b0388166000908152600160205260409020909150611dde90611dd790611dd29088866128ea565b6129a4565b82906129ea565b8651835191925014611ee757836001600160a01b0316636fc6407c6040518163ffffffff1660e01b8152600401602060405180830381865afa158015611e28573d6000803e3d6000fd5b505050506040513d601f19601f82011682018060405250810190611e4c919061389f565b6001600160a01b0316631830349c88886040518363ffffffff1660e01b8152600401611e799291906138f6565b600060405180830381600087803b158015611e9357600080fd5b505af1158015611ea7573d6000803e3d6000fd5b5050506001600160a01b03881660009081526001602090815260408083208a5160089093529220611ee49350611d9d92611d989260099190612865565b90505b836001600160a01b031663d8dfeb456040518163ffffffff1660e01b8152600401602060405180830381865afa158015611f25573d6000803e3d6000fd5b505050506040513d601f19601f82011682018060405250810190611f49919061389f565b6040517fc9cb48de0000000000000000000000000000000000000000000000000000000081526001600160a01b03898116600483015260248201849052919091169063c9cb48de90604401600060405180830381600087803b158015611fae57600080fd5b505af1158015611fc2573d6000803e3d6000fd5b5050835188516040805192835260208301919091526001600160a01b038b1693507f9d7055d24918d8c2fd08660a27bf31d4086fa71a51cd07874276470223aa480f92500160405180910390a250505050505050565b60008060009054906101000a90046001600160a01b03166001600160a01b0316639d888e866040518163ffffffff1660e01b8152600401606060405180830381865afa15801561206c573d6000803e3d6000fd5b505050506040513d601f19601f820116820180604052508101906120909190613835565b80516001600160a01b03851660009081526001602052604090209192506120bb9160020190846129f6565b80516120ca90600390846129f6565b826001600160a01b03167f8e1fbd36184b75559e6a6304fbfcc7ffac60d82cb29da4425f0a11a5cdd42ca58360405161210591815260200190565b60405180910390a2505050565b60408051808201825260038301548152600483015460208083019190915282518084019093528354835260018401549083015260009182916121549190612a16565b8051600585015491925061216891906125df565b80611b58575060208101516006840154611b58916125df565b6040805180820190915260008082526020820152611b586121a6848460200151612a16565b8360400151612a6d565b60006121be82602001511590565b6121ea57602082015182516121e591670de0b6b3a7640000916121e091612abb565b612ada565b610599565b670de0b6b3a764000092915050565b60006122058383612ae6565b159392505050565b600061221c8260200151612b1b565b80156105995750815161059990612b3a565b600283015461223d9082612732565b600284015581835561224e83612b52565b505050565b8054600090819015801561226957506003830154155b801561227757506005830154155b600184015490915060009015801561229157506004840154155b801561229f57506006840154155b9050811580156122ad575080155b949350505050565b60008060009054906101000a90046001600160a01b03166001600160a01b0316639d888e866040518163ffffffff1660e01b8152600401606060405180830381865afa158015612309573d6000803e3d6000fd5b505050506040513d601f19601f8201168201806040525081019061232d9190613835565b80516001600160a01b0385166000908152600160205260409020919250612358916002019084612bae565b80516123679060039084612bae565b826001600160a01b03167f39a4b498dc11e06b5d7ea3357b7a41d54905a72816c498299a0d67a7ba20db418360405161210591815260200190565b600782015460009060ff16156123ba57506000610599565b604080518082019091528354815260018401546020820152611b589083612bce565b6040805180820190915260008082526020820152600082815260208481526040918290208251808401909352546001600160801b038082168452600160801b9091041690820152611b5890612cd0565b60408051606081018252600284015481528151808301835260038501548152600485015460208281019190915280830191909152825180840184526005860154815260068601548183015282840152825180840190935284548352600185015490830152600091611b58916124a19190612181565b83612bce565b303b151580156124d657507fad57d7911b7e3d6c3c79a68ba909a7f4ba41f9485e5207b12dee0d0c6af5398c54155b156124f457604051631a27c4a960e21b815260040160405180910390fd5b6001600160a01b0381163b612535576040517f14878b6900000000000000000000000000000000000000000000000000000000815260040160405180910390fd5b61080f7f0e555410d8128dff796eab5d29b97dd593ce9cab44a71b64c08244579ea60533829055565b303b1515801561258d57507fad57d7911b7e3d6c3c79a68ba909a7f4ba41f9485e5207b12dee0d0c6af5398c54155b156125ab57604051631a27c4a960e21b815260040160405180910390fd5b6001600080516020613ae983398151915255565b60018301546125ce9082612732565b600184015581835561224e83612d14565b60006125eb8383612ae6565b6002149392505050565b815460009080156126105761260b81600161393d565b6122ad565b509092915050565b8151600090819061262a9086906123dc565b9050612649604051806040016040528060008152602001600081525090565b6126568888848888612d70565b9350905061266f612668838787612f7e565b8290613065565b9050600061267e8387876130b3565b90506126a061269b836126958d8a60000151611b0d565b90613065565b61313e565b8551600090815260018c0160209081526040909120825192909101516001600160801b03908116600160801b02921691909117905585516126ec9061269b908390612695908e90611b5f565b8551600090815260028c0160209081526040909120825192909101516001600160801b03908116600160801b029216919091179055505091519096555093949350505050565b6000611b58828461393d565b604080516060810182526001860154815281518083018352600287015481526003870154602082810191909152808301919091528251808401845260048801548152600588015491810191909152918101919091526000908190819081906127b49088876127ac8c8b6123dc565b92919061318a565b9250925092506127c3836131e0565b8551600090815260208a81526040909120825192909101516001600160801b03908116600160801b029216919091179055801561281e5760006001890181905560028901819055600389018190556004890181905560058901555b509695505050505050565b60408051808201909152600080825260208201526040805180820190915282518190600f0b8152602084810151910190600f0b5b905292915050565b6040805180820190915260008082526020820152845460009061289d9061288d908790611b0d565b6128978786611b0d565b90613238565b6040805180820190915285548152600186015460208201529091506128c29082613286565b92909555509392505050565b6020810151815160009161059991905b6000611b588284613955565b60408051606081018252600285015481528151808301835260038601548152600486015460208281019190915280830191909152825180840184526005870154815260068701548183015282840152825180840190935285548352600186015490830152600091829161295f9190868661318a565b82518855602090920151600188015592509050801561299c5760006002860181905560038601819055600486018190556005860181905560068601555b509392505050565b6000816001600160ff1b03811115610599576040517ea07eb5000000000000000000000000000000000000000000000000000000008152600481018290526024016107df565b6000611b588284613994565b6003830154612a059082612732565b600384015581835561224e83612d14565b604080518082019091526000808252602082015260408051808201909152825184518291612a449190612732565b8152602001612a648460200151866020015161273290919063ffffffff16565b90529392505050565b604080518082019091526000808252602082015260408051808201909152825184518291612a9b91906132d4565b8152602001612a64846020015186602001516132d490919063ffffffff16565b600081612ad0670de0b6b3a7640000856139d3565b611b589190613a08565b6000611b5883836132e0565b6000828280821115612afd57600292505050610599565b80821015612b1057600092505050610599565b506001949350505050565b6000612b2a8260200151612b3a565b8015610599575061059982604001515b80516000901580156105995750602082015115610599565b60048101546002820154612b65916125df565b15612b8c5760048101546002820154612b7d916132d4565b60028201556000600482015550565b60028101546004820154612b9f916132d4565b60048201556000600282015550565b6004830154612bbd9082612732565b600484015581835561224e83612b52565b600080826001600160a01b0316639d888e866040518163ffffffff1660e01b8152600401606060405180830381865afa158015612c0f573d6000803e3d6000fd5b505050506040513d601f19601f82011682018060405250810190612c339190613835565b6040015190506000612c59612c5483612c4e611dd2896132f6565b9061330a565b613329565b9050612cc7846001600160a01b0316636c376cc56040518163ffffffff1660e01b8152600401602060405180830381865afa158015612c9c573d6000803e3d6000fd5b505050506040513d601f19601f82011682018060405250810190612cc091906138bc565b8290613334565b95945050505050565b604080518082019091526000808252602082015260408051808201909152825181906001600160801b031681526020848101519101906001600160801b031661285d565b60038101546001820154612d27916125df565b15612d4e5760038101546001820154612d3f916132d4565b60018201556000600382015550565b60018101546003820154612d61916132d4565b60038201556000600182015550565b60408051808201909152600080825260208201526000612d9285602001511590565b15612db457505060408051808201909152600080825260208201819052612f74565b8451612dd757505060408051808201909152600080825260208201819052612f74565b600084602001518460200151612ded9190613a1c565b90506000612e09612c548760400151612c4e8a602001516129a4565b90506000612e20612e19896121b0565b8390613334565b90506000612eb9612e33611dd286613349565b6040517f60ec91d60000000000000000000000000000000000000000000000000000000081526001600160a01b038d16906360ec91d690612e78908e906004016137fc565b602060405180830381865afa158015612e95573d6000803e3d6000fd5b505050506040513d601f19601f82011682018060405250810190612c4e91906138bc565b90506000612ed0612ec9846129a4565b839061330a565b9050612ef7612ee86001600160a01b038d168e61335d565b612ef183613329565b90613334565b95506000612f1f612f078361343e565b612f1a89612f1486613329565b906132d4565b61346a565b9050612f38612f318c600001516129a4565b82906134ab565b8852612f68612f51670de0b6b3a7640000600019613a33565b612c4e612f618e602001516129a4565b84906134ab565b60208901525050505050505b9550959350505050565b60408051808201909152600080825260208201526020840151612fb557506040805180820190915260008082526020820152611b58565b8351612fd557506040805180820190915260008082526020820152611b58565b6000612ff2846040015184604001516129ea90919063ffffffff16565b90506000613006612ec987602001516129a4565b90506000613019612ec9611dd2896121b0565b9050613042613032670de0b6b3a7640000600019613a33565b612c4e612f618a600001516129a4565b8452602087015161305690612f31906129a4565b60208501525050509392505050565b60408051808201909152600080825260208201526040805180820190915282518451829161309391906128de565b8152602001612a64846020015186602001516128de90919063ffffffff16565b60408051808201909152600080825260208201526000836020015183602001516130dd9190613a1c565b85519091501561310657613101611dd286600001516130fb84613349565b90612abb565b613109565b60005b825260208501511561312e57613129611dd286602001516130fb84613349565b613131565b60005b6020830152509392505050565b6040805180820190915260008082526020820152604051806040016040528061316a84600001516134c0565b600f0b815260200161317f84602001516134c0565b600f0b905292915050565b60408051808201909152600080825260208201526000806131ab868561356d565b6131b857866000806131d0565b6131c28787612181565b6131cd878787613589565b60015b9250925092509450945094915050565b6040805180820190915260008082526020820152604051806040016040528061320c8460000151613625565b6001600160801b031681526020016132278460200151613625565b6001600160801b0316905292915050565b60408051808201909152600080825260208201526040805180820190915282518451829161326691906129ea565b8152602001612a64846020015186602001516129ea90919063ffffffff16565b604080518082019091526000808252602082015260405180604001604052806132ba8460000151612c4e87600001516129a4565b8152602001612a648460200151612c4e87602001516129a4565b6000611b588284613a1c565b60008183106132ef5781611b58565b5090919050565b60006105998260000151836020015161366c565b6000670de0b6b3a764000061331f8385613a33565b611b589190613aba565b600061059982613678565b6000670de0b6b3a7640000612ad083856139d3565b6000610599670de0b6b3a7640000836139d3565b6000611b58670de0b6b3a7640000613438846001600160a01b031663e975c0c36040518163ffffffff1660e01b8152600401602060405180830381865afa1580156133ac573d6000803e3d6000fd5b505050506040513d601f19601f820116820180604052508101906133d091906138bc565b866001600160a01b0316635d16e1206040518163ffffffff1660e01b8152600401602060405180830381865afa15801561340e573d6000803e3d6000fd5b505050506040513d601f19601f8201168201806040525081019061343291906138bc565b9061366c565b90612ada565b60008082131561345057506001919050565b60008212156134625750600019919050565b506000919050565b6000808313156134845761347d826129a4565b9050610599565b60008312156134a257613496826129a4565b61347d90600019613a33565b50600092915050565b60008161331f670de0b6b3a764000085613a33565b6000816f7fffffffffffffffffffffffffffffff811315613510576040517f59aeb746000000000000000000000000000000000000000000000000000000008152600481018290526024016107df565b7fffffffffffffffffffffffffffffffff80000000000000000000000000000000811215610599576040517f4e02165d000000000000000000000000000000000000000000000000000000008152600481018290526024016107df565b600061357883612b1b565b158015611b58575050905190511190565b6000806135a785604001518660200151612a1690919063ffffffff16565b90506000806135c4612c548660400151612c4e86600001516129a4565b6135dc612c548760400151612c4e87602001516129a4565b9150915061361a6135f8612e19886001600160a01b031661368f565b61361461360d896001600160a01b03166136ff565b8590613334565b90612732565b979650505050505050565b6000816001600160801b03811115610599576040517f53851291000000000000000000000000000000000000000000000000000000008152600481018290526024016107df565b6000611b58838361374b565b60008082121561368b5781600003610599565b5090565b6000610599670de0b6b3a7640000836001600160a01b03166343f0179b6040518163ffffffff1660e01b8152600401602060405180830381865afa1580156136db573d6000803e3d6000fd5b505050506040513d601f19601f8201168201806040525081019061343891906138bc565b6000610599670de0b6b3a7640000836001600160a01b031663fc741c7c6040518163ffffffff1660e01b8152600401602060405180830381865afa1580156136db573d6000803e3d6000fd5b6000818310156132ef5781611b58565b60405180606001604052806000815260200161378a604051806040016040528060008152602001600081525090565b81526020016137ac604051806040016040528060008152602001600081525090565b905290565b6001600160a01b038116811461080f57600080fd5b6000602082840312156137d857600080fd5b8135611b58816137b1565b6000602082840312156137f557600080fd5b5035919050565b815181526020808301519082015260408101610599565b60006020828403121561382557600080fd5b81518015158114611b5857600080fd5b60006060828403121561384757600080fd5b6040516060810181811067ffffffffffffffff8211171561387857634e487b7160e01b600052604160045260246000fd5b80604052508251815260208301516020820152604083015160408201528091505092915050565b6000602082840312156138b157600080fd5b8151611b58816137b1565b6000602082840312156138ce57600080fd5b5051919050565b81518152602080830151908201526040808301519082015260608101610599565b6001600160a01b038316815260808101611b5860208301848051825260208082015190830152604090810151910152565b634e487b7160e01b600052601160045260246000fd5b6000821982111561395057613950613927565b500190565b6000808212826001600160ff1b030384138115161561397657613976613927565b82600160ff1b03841281161561398e5761398e613927565b50500190565b600080831283600160ff1b018312811516156139b2576139b2613927565b836001600160ff1b030183138116156139cd576139cd613927565b50500390565b60008160001904831182151516156139ed576139ed613927565b500290565b634e487b7160e01b600052601260045260246000fd5b600082613a1757613a176139f2565b500490565b600082821015613a2e57613a2e613927565b500390565b60006001600160ff1b03600084136000841385830485118282161615613a5b57613a5b613927565b600160ff1b6000871286820588128184161615613a7a57613a7a613927565b60008712925087820587128484161615613a9657613a96613927565b87850587128184161615613aac57613aac613927565b505050929093029392505050565b600082613ac957613ac96139f2565b600160ff1b821460001984141615613ae357613ae3613927565b50059056fe1b30fe15febd596dffd21d4da0657732eea42b4b5a9789e3e6daab3d570999d7a2646970667358221220ef7af8325bbc3424644194de333e0332aae4c85a519d85e61d91de49d614ab6b64736f6c634300080e0033",
  "devdoc": {
    "details": "Cloned by the Controller contract to launch new product markets.",
    "kind": "dev",
    "methods": {
      "closeAll(address)": {
        "details": "Only callable by the Collateral contract as part of the liquidation flow",
        "params": {
          "account": "Account to close out"
        }
      },
      "closeMake(uint256)": {
        "params": {
          "amount": "Amount of the position to close"
        }
      },
      "closeTake(uint256)": {
        "params": {
          "amount": "Amount of the position to close"
        }
      },
      "initialize(address)": {
        "params": {
          "productProvider_": "Product provider contract address"
        }
      },
      "isClosed(address)": {
        "params": {
          "account": "Account to return for"
        },
        "returns": {
          "_0": "The the account is closed"
        }
      },
      "isLiquidating(address)": {
        "params": {
          "account": "Account to return for"
        },
        "returns": {
          "_0": "Whether the account is in liquidation"
        }
      },
      "latestVersion()": {
        "returns": {
          "_0": "Latest settled oracle version of the product"
        }
      },
      "latestVersion(address)": {
        "params": {
          "account": "Account to return for"
        },
        "returns": {
          "_0": "Latest settled oracle version of the account"
        }
      },
      "maintenance(address)": {
        "params": {
          "account": "Account to return for"
        },
        "returns": {
          "_0": "The current maintenance requirement"
        }
      },
      "maintenanceNext(address)": {
        "details": "Assumes no price change and no funding, used to protect user from over-opening",
        "params": {
          "account": "Account to return for"
        },
        "returns": {
          "_0": "The next maintenance requirement"
        }
      },
      "openMake(uint256)": {
        "params": {
          "amount": "Amount of the position to open"
        }
      },
      "openTake(uint256)": {
        "params": {
          "amount": "Amount of the position to open"
        }
      },
      "position(address)": {
        "params": {
          "account": "Account to return for"
        },
        "returns": {
          "_0": "Current position of the account"
        }
      },
      "positionAtVersion(uint256)": {
        "details": "Only valid for the version at which a global settlement occurred",
        "params": {
          "oracleVersion": "Oracle version to return for"
        },
        "returns": {
          "_0": "Global position at oracle version"
        }
      },
      "pre()": {
        "returns": {
          "_0": "Global pending-settlement position"
        }
      },
      "pre(address)": {
        "params": {
          "account": "Account to return for"
        },
        "returns": {
          "_0": "Current pre-position of the account"
        }
      },
      "settleAccount(address)": {
        "params": {
          "account": "Account to settle"
        }
      },
      "shareAtVersion(uint256)": {
        "details": "Only valid for the version at which a global settlement occurred",
        "params": {
          "oracleVersion": "Oracle version to return for"
        },
        "returns": {
          "_0": "Global accumulator share at oracle version"
        }
      },
      "valueAtVersion(uint256)": {
        "details": "Only valid for the version at which a global settlement occurred",
        "params": {
          "oracleVersion": "Oracle version to return for"
        },
        "returns": {
          "_0": "Global accumulator value at oracle version"
        }
      }
    },
    "stateVariables": {
      "_accumulator": {
        "details": "The global accumulator state for the product"
      },
      "_accumulators": {
        "details": "The individual accumulator state for each account"
      },
      "_position": {
        "details": "The global position state for the product"
      },
      "_positions": {
        "details": "The individual position state for each account"
      },
      "productProvider": {
        "details": "The parameter provider of the product market"
      }
    },
    "title": "Product",
    "version": 1
  },
  "userdoc": {
    "kind": "user",
    "methods": {
      "closeAll(address)": {
        "notice": "Closes all open and pending positions, locking for liquidation"
      },
      "closeMake(uint256)": {
        "notice": "Closes a maker position for `msg.sender`"
      },
      "closeTake(uint256)": {
        "notice": "Closes a taker position for `msg.sender`"
      },
      "initialize(address)": {
        "notice": "Initializes the contract state"
      },
      "isClosed(address)": {
        "notice": "Returns whether `account` has a completely zero'd position"
      },
      "isLiquidating(address)": {
        "notice": "Returns whether `account` is currently locked for an in-progress liquidation"
      },
      "latestVersion()": {
        "notice": "Returns the global latest settled oracle version"
      },
      "latestVersion(address)": {
        "notice": "Returns `account`'s latest settled oracle version"
      },
      "maintenance(address)": {
        "notice": "Returns the maintenance requirement for `account`"
      },
      "maintenanceNext(address)": {
        "notice": "Returns the maintenance requirement for `account` after next settlement"
      },
      "openMake(uint256)": {
        "notice": "Opens a maker position for `msg.sender`"
      },
      "openTake(uint256)": {
        "notice": "Opens a taker position for `msg.sender`"
      },
      "position(address)": {
        "notice": "Returns `account`'s current position"
      },
      "positionAtVersion(uint256)": {
        "notice": "Returns the global position at oracleVersion `oracleVersion`"
      },
      "pre()": {
        "notice": "Returns the current global pending-settlement position"
      },
      "pre(address)": {
        "notice": "Returns `account`'s current pending-settlement position"
      },
      "settle()": {
        "notice": "Surfaces global settlement externally"
      },
      "settleAccount(address)": {
        "notice": "Surfaces account settlement externally"
      },
      "shareAtVersion(uint256)": {
        "notice": "Returns the global accumulator share at oracleVersion `oracleVersion`"
      },
      "valueAtVersion(uint256)": {
        "notice": "Returns the global accumulator value at oracleVersion `oracleVersion`"
      }
    },
    "notice": "Manages logic and state for a single product market.",
    "version": 1
  },
  "storageLayout": {
    "storage": [
      {
        "astId": 16833,
        "contract": "contracts/product/Product.sol:Product",
        "label": "productProvider",
        "offset": 0,
        "slot": "0",
        "type": "t_contract(IProductProvider)14187"
      },
      {
        "astId": 16839,
        "contract": "contracts/product/Product.sol:Product",
        "label": "_positions",
        "offset": 0,
        "slot": "1",
        "type": "t_mapping(t_address,t_struct(AccountPosition)18501_storage)"
      },
      {
        "astId": 16843,
        "contract": "contracts/product/Product.sol:Product",
        "label": "_position",
        "offset": 0,
        "slot": "2",
        "type": "t_struct(VersionedPosition)18777_storage"
      },
      {
        "astId": 16849,
        "contract": "contracts/product/Product.sol:Product",
        "label": "_accumulators",
        "offset": 0,
        "slot": "8",
        "type": "t_mapping(t_address,t_struct(AccountAccumulator)17897_storage)"
      },
      {
        "astId": 16853,
        "contract": "contracts/product/Product.sol:Product",
        "label": "_accumulator",
        "offset": 0,
        "slot": "9",
        "type": "t_struct(VersionedAccumulator)17972_storage"
      }
    ],
    "types": {
      "t_address": {
        "encoding": "inplace",
        "label": "address",
        "numberOfBytes": "20"
      },
      "t_bool": {
        "encoding": "inplace",
        "label": "bool",
        "numberOfBytes": "1"
      },
      "t_contract(IProductProvider)14187": {
        "encoding": "inplace",
        "label": "contract IProductProvider",
        "numberOfBytes": "20"
      },
      "t_mapping(t_address,t_struct(AccountAccumulator)17897_storage)": {
        "encoding": "mapping",
        "key": "t_address",
        "label": "mapping(address => struct AccountAccumulator)",
        "numberOfBytes": "32",
        "value": "t_struct(AccountAccumulator)17897_storage"
      },
      "t_mapping(t_address,t_struct(AccountPosition)18501_storage)": {
        "encoding": "mapping",
        "key": "t_address",
        "label": "mapping(address => struct AccountPosition)",
        "numberOfBytes": "32",
        "value": "t_struct(AccountPosition)18501_storage"
      },
      "t_mapping(t_uint256,t_struct(PackedAccumulator)14346_storage)": {
        "encoding": "mapping",
        "key": "t_uint256",
        "label": "mapping(uint256 => struct PackedAccumulator)",
        "numberOfBytes": "32",
        "value": "t_struct(PackedAccumulator)14346_storage"
      },
      "t_mapping(t_uint256,t_struct(PackedPosition)14387_storage)": {
        "encoding": "mapping",
        "key": "t_uint256",
        "label": "mapping(uint256 => struct PackedPosition)",
        "numberOfBytes": "32",
        "value": "t_struct(PackedPosition)14387_storage"
      },
      "t_struct(AccountAccumulator)17897_storage": {
        "encoding": "inplace",
        "label": "struct AccountAccumulator",
        "members": [
          {
            "astId": 17896,
            "contract": "contracts/product/Product.sol:Product",
            "label": "latestVersion",
            "offset": 0,
            "slot": "0",
            "type": "t_uint256"
          }
        ],
        "numberOfBytes": "32"
      },
      "t_struct(AccountPosition)18501_storage": {
        "encoding": "inplace",
        "label": "struct AccountPosition",
        "members": [
          {
            "astId": 18493,
            "contract": "contracts/product/Product.sol:Product",
            "label": "position",
            "offset": 0,
            "slot": "0",
            "type": "t_struct(Position)14431_storage"
          },
          {
            "astId": 18497,
            "contract": "contracts/product/Product.sol:Product",
            "label": "pre",
            "offset": 0,
            "slot": "2",
            "type": "t_struct(PrePosition)14797_storage"
          },
          {
            "astId": 18500,
            "contract": "contracts/product/Product.sol:Product",
            "label": "liquidation",
            "offset": 0,
            "slot": "7",
            "type": "t_bool"
          }
        ],
        "numberOfBytes": "256"
      },
      "t_struct(PackedAccumulator)14346_storage": {
        "encoding": "inplace",
        "label": "struct PackedAccumulator",
        "members": [
          {
            "astId": 14341,
            "contract": "contracts/product/Product.sol:Product",
            "label": "maker",
            "offset": 0,
            "slot": "0",
            "type": "t_userDefinedValueType(PackedFixed18)1848"
          },
          {
            "astId": 14345,
            "contract": "contracts/product/Product.sol:Product",
            "label": "taker",
            "offset": 16,
            "slot": "0",
            "type": "t_userDefinedValueType(PackedFixed18)1848"
          }
        ],
        "numberOfBytes": "32"
      },
      "t_struct(PackedPosition)14387_storage": {
        "encoding": "inplace",
        "label": "struct PackedPosition",
        "members": [
          {
            "astId": 14382,
            "contract": "contracts/product/Product.sol:Product",
            "label": "maker",
            "offset": 0,
            "slot": "0",
            "type": "t_userDefinedValueType(PackedUFixed18)1903"
          },
          {
            "astId": 14386,
            "contract": "contracts/product/Product.sol:Product",
            "label": "taker",
            "offset": 16,
            "slot": "0",
            "type": "t_userDefinedValueType(PackedUFixed18)1903"
          }
        ],
        "numberOfBytes": "32"
      },
      "t_struct(Position)14431_storage": {
        "encoding": "inplace",
        "label": "struct Position",
        "members": [
          {
            "astId": 14426,
            "contract": "contracts/product/Product.sol:Product",
            "label": "maker",
            "offset": 0,
            "slot": "0",
            "type": "t_userDefinedValueType(UFixed18)1949"
          },
          {
            "astId": 14430,
            "contract": "contracts/product/Product.sol:Product",
            "label": "taker",
            "offset": 0,
            "slot": "1",
            "type": "t_userDefinedValueType(UFixed18)1949"
          }
        ],
        "numberOfBytes": "64"
      },
      "t_struct(PrePosition)14797_storage": {
        "encoding": "inplace",
        "label": "struct PrePosition",
        "members": [
          {
            "astId": 14788,
            "contract": "contracts/product/Product.sol:Product",
            "label": "oracleVersion",
            "offset": 0,
            "slot": "0",
            "type": "t_uint256"
          },
          {
            "astId": 14792,
            "contract": "contracts/product/Product.sol:Product",
            "label": "openPosition",
            "offset": 0,
            "slot": "1",
            "type": "t_struct(Position)14431_storage"
          },
          {
            "astId": 14796,
            "contract": "contracts/product/Product.sol:Product",
            "label": "closePosition",
            "offset": 0,
            "slot": "3",
            "type": "t_struct(Position)14431_storage"
          }
        ],
        "numberOfBytes": "160"
      },
      "t_struct(VersionedAccumulator)17972_storage": {
        "encoding": "inplace",
        "label": "struct VersionedAccumulator",
        "members": [
          {
            "astId": 17959,
            "contract": "contracts/product/Product.sol:Product",
            "label": "latestVersion",
            "offset": 0,
            "slot": "0",
            "type": "t_uint256"
          },
          {
            "astId": 17965,
            "contract": "contracts/product/Product.sol:Product",
            "label": "_valueAtVersion",
            "offset": 0,
            "slot": "1",
            "type": "t_mapping(t_uint256,t_struct(PackedAccumulator)14346_storage)"
          },
          {
            "astId": 17971,
            "contract": "contracts/product/Product.sol:Product",
            "label": "_shareAtVersion",
            "offset": 0,
            "slot": "2",
            "type": "t_mapping(t_uint256,t_struct(PackedAccumulator)14346_storage)"
          }
        ],
        "numberOfBytes": "96"
      },
      "t_struct(VersionedPosition)18777_storage": {
        "encoding": "inplace",
        "label": "struct VersionedPosition",
        "members": [
          {
            "astId": 18772,
            "contract": "contracts/product/Product.sol:Product",
            "label": "_positionAtVersion",
            "offset": 0,
            "slot": "0",
            "type": "t_mapping(t_uint256,t_struct(PackedPosition)14387_storage)"
          },
          {
            "astId": 18776,
            "contract": "contracts/product/Product.sol:Product",
            "label": "pre",
            "offset": 0,
            "slot": "1",
            "type": "t_struct(PrePosition)14797_storage"
          }
        ],
        "numberOfBytes": "192"
      },
      "t_uint256": {
        "encoding": "inplace",
        "label": "uint256",
        "numberOfBytes": "32"
      },
      "t_userDefinedValueType(PackedFixed18)1848": {
        "encoding": "inplace",
        "label": "PackedFixed18",
        "numberOfBytes": "16"
      },
      "t_userDefinedValueType(PackedUFixed18)1903": {
        "encoding": "inplace",
        "label": "PackedUFixed18",
        "numberOfBytes": "16"
      },
      "t_userDefinedValueType(UFixed18)1949": {
        "encoding": "inplace",
        "label": "UFixed18",
        "numberOfBytes": "32"
      }
    }
  }
}